{
	"data": {
		"bytecode": {
			"linkReferences": {},
			"object": "60e0604052600b80546001600160a01b031990811673ed001ebb1a71dc6df6659c4e4edb070342fd4a1f17909155600c805490911673b5df28f0d138275c29536400c1452a816911b77a17905561dead6080526b033b2e3c9fd0803ce8000000600d81905561006f905f19610490565b61007a905f196104c3565b600e555f600f5560016010819055601181905560128190556013819055601481905560158190556016819055601781905560188190556019556003601a819055601b8190556a0422ca8b0a00a425000000601c819055601d5569152d02c7e14af6800000601e55601f805462ffff001916610100179055604080518082018252600a815269436f666679204465466960b01b60208083019190915282518084019093526005835264434f46464960d81b90830152916101398382610574565b5060046101468282610574565b50505061015f61015a61036160201b60201c565b610365565b5f737a250d5630b4cf539739df2c5dacb4c659f2488d9050806001600160a01b031663c45a01556040518163ffffffff1660e01b8152600401602060405180830381865afa1580156101b3573d5f803e3d5ffd5b505050506040513d601f19601f820116820180604052508101906101d79190610633565b6001600160a01b031663c9c6539630836001600160a01b031663ad5c46486040518163ffffffff1660e01b8152600401602060405180830381865afa158015610222573d5f803e3d5ffd5b505050506040513d601f19601f820116820180604052508101906102469190610633565b6040516001600160e01b031960e085901b1681526001600160a01b039283166004820152911660248201526044016020604051808303815f875af1158015610290573d5f803e3d5ffd5b505050506040513d601f19601f820116820180604052508101906102b49190610633565b6001600160a01b0390811660c052811660a052600160085f6102de6005546001600160a01b031690565b6001600160a01b03908116825260208083019390935260409182015f908120805495151560ff19968716179055600b54821681526008909352818320805485166001908117909155600c54909116835281832080548516821790553083529120805490921617905561035b6103503390565b600e54600d546103b6565b50610673565b3390565b600580546001600160a01b038381166001600160a01b0319831681179093556040519116919082907f8be0079c531659141344cd1fd0a4f28419497f9722a3daafe3b4186f6b6457e0905f90a35050565b6001600160a01b0383166104105760405162461bcd60e51b815260206004820152601f60248201527f45524332303a206d696e7420746f20746865207a65726f206164647265737300604482015260640160405180910390fd5b6001600160a01b0383165f90815260066020526040902054610433908390610660565b6001600160a01b0384165f818152600660205260408082209390935591519091907fddf252ad1be2c89b69c2b068fc378daa952ba7f163c4a11628f55a4df523b3ef906104839085815260200190565b60405180910390a3505050565b5f826104aa57634e487b7160e01b5f52601260045260245ffd5b500690565b634e487b7160e01b5f52601160045260245ffd5b818103818111156104d6576104d66104af565b92915050565b634e487b7160e01b5f52604160045260245ffd5b600181811c9082168061050457607f821691505b60208210810361052257634e487b7160e01b5f52602260045260245ffd5b50919050565b601f82111561056f57805f5260205f20601f840160051c8101602085101561054d5750805b601f840160051c820191505b8181101561056c575f8155600101610559565b50505b505050565b81516001600160401b0381111561058d5761058d6104dc565b6105a18161059b84546104f0565b84610528565b602080601f8311600181146105d4575f84156105bd5750858301515b5f19600386901b1c1916600185901b17855561062b565b5f85815260208120601f198616915b82811015610602578886015182559484019460019091019084016105e3565b508582101561061f57878501515f19600388901b60f8161c191681555b505060018460011b0185555b505050505050565b5f60208284031215610643575f80fd5b81516001600160a01b0381168114610659575f80fd5b9392505050565b808201808211156104d6576104d66104af565b60805160a05160c0516135a66106c75f395f81816104fd015261221501525f818161035801528181612a8901528181612b4001528181612b7c01528181612cbc0152612ce301525f6103f501526135a65ff3fe6080604052600436106102c2575f3560e01c806379cc67901161016f578063c49b9a80116100d8578063e547be6911610092578063ec28438a1161006d578063ec28438a146108b5578063edc2fcfb146108d4578063f2fde38b146108f3578063fdeb889f14610912575f80fd5b8063e547be6914610858578063e6be4a7214610877578063ea2f0b3714610896575f80fd5b8063c49b9a801461076c578063caccd7f71461078b578063cba0e996146107aa578063ce831ed5146107e1578063dcc345f2146107f5578063dd62ed3e14610814575f80fd5b806395d89b411161012957806395d89b41146106c7578063a457c2d7146106db578063a5ece941146106fa578063a9059cbb14610719578063a94c8dd214610738578063c0b0fda214610757575f80fd5b806379cc6790146106235780637d1db4a5146106425780638a0623b4146106575780638da5cb5b1461066c578063906e9dd01461068957806395364a84146106a8575f80fd5b806342966c681161022b5780634bf2c7c9116101e5578063625e764c116101c0578063625e764c146105b25780636c317232146105d157806370a08231146105f0578063715018a61461060f575f80fd5b80634bf2c7c91461053d5780635342acb41461055c5780636049876e14610593575f80fd5b806342966c681461047a578063437823ec146104995780634549b039146104b857806348de478e146104d757806349bd5a5e146104ec5780634a74bb021461051f575f80fd5b806323b872dd1161027c57806323b872dd146103c557806327c8f835146103e4578063313ce5671461041757806332035504146104325780633206b4aa14610446578063395093511461045b575f80fd5b8063053ab182146102cd57806306fdde03146102ee578063095ea7b3146103185780631694505e1461034757806318160ddd1461039257806322976e0d146103b0575f80fd5b366102c957005b5f80fd5b3480156102d8575f80fd5b506102ec6102e73660046131b8565b610931565b005b3480156102f9575f80fd5b50610302610a1c565b60405161030f91906131cf565b60405180910390f35b348015610323575f80fd5b50610337610332366004613218565b610aac565b604051901515815260200161030f565b348015610352575f80fd5b5061037a7f000000000000000000000000000000000000000000000000000000000000000081565b6040516001600160a01b03909116815260200161030f565b34801561039d575f80fd5b50600d545b60405190815260200161030f565b3480156103bb575f80fd5b506103a260165481565b3480156103d0575f80fd5b506103376103df366004613242565b610ac2565b3480156103ef575f80fd5b5061037a7f000000000000000000000000000000000000000000000000000000000000000081565b348015610422575f80fd5b506040516012815260200161030f565b34801561043d575f80fd5b50600f546103a2565b348015610451575f80fd5b506103a260125481565b348015610466575f80fd5b50610337610475366004613218565b610b6a565b348015610485575f80fd5b506102ec6104943660046131b8565b610ba5565b3480156104a4575f80fd5b506102ec6104b3366004613280565b610bb2565b3480156104c3575f80fd5b506103a26104d23660046132a8565b610bff565b3480156104e2575f80fd5b506103a260185481565b3480156104f7575f80fd5b5061037a7f000000000000000000000000000000000000000000000000000000000000000081565b34801561052a575f80fd5b50601f5461033790610100900460ff1681565b348015610548575f80fd5b506102ec6105573660046131b8565b610c85565b348015610567575f80fd5b50610337610576366004613280565b6001600160a01b03165f9081526008602052604090205460ff1690565b34801561059e575f80fd5b506102ec6105ad366004613280565b610d4a565b3480156105bd575f80fd5b506102ec6105cc3660046131b8565b610f0c565b3480156105dc575f80fd5b506102ec6105eb3660046131b8565b610fe7565b3480156105fb575f80fd5b506103a261060a366004613280565b6110f2565b34801561061a575f80fd5b506102ec61114e565b34801561062e575f80fd5b506102ec61063d366004613218565b611183565b34801561064d575f80fd5b506103a2601c5481565b348015610662575f80fd5b506103a260145481565b348015610677575f80fd5b506005546001600160a01b031661037a565b348015610694575f80fd5b506102ec6106a3366004613280565b611208565b3480156106b3575f80fd5b50601f546103379062010000900460ff1681565b3480156106d2575f80fd5b506103026112f7565b3480156106e6575f80fd5b506103376106f5366004613218565b611306565b348015610705575f80fd5b50600b5461037a906001600160a01b031681565b348015610724575f80fd5b50610337610733366004613218565b61139e565b348015610743575f80fd5b506102ec6107523660046131b8565b6113aa565b348015610762575f80fd5b506103a260105481565b348015610777575f80fd5b506102ec6107863660046132d6565b611484565b348015610796575f80fd5b50600c5461037a906001600160a01b031681565b3480156107b5575f80fd5b506103376107c4366004613280565b6001600160a01b03165f9081526009602052604090205460ff1690565b3480156107ec575f80fd5b506102ec611502565b348015610800575f80fd5b506102ec61080f366004613280565b611605565b34801561081f575f80fd5b506103a261082e3660046132f1565b6001600160a01b039182165f90815260016020908152604080832093909416825291909152205490565b348015610863575f80fd5b506102ec6108723660046131b8565b6116f4565b348015610882575f80fd5b506102ec610891366004613218565b6117b1565b3480156108a1575f80fd5b506102ec6108b0366004613280565b61195b565b3480156108c0575f80fd5b506102ec6108cf3660046131b8565b6119a5565b3480156108df575f80fd5b506102ec6108ee3660046132d6565b611a9e565b3480156108fe575f80fd5b506102ec61090d366004613280565b611c07565b34801561091d575f80fd5b506102ec61092c366004613280565b611c9f565b335f8181526009602052604090205460ff16156109aa5760405162461bcd60e51b815260206004820152602c60248201527f4578636c75646564206164647265737365732063616e6e6f742063616c6c207460448201526b3434b990333ab731ba34b7b760a11b60648201526084015b60405180910390fd5b5f6109b483611e44565b5050506001600160a01b0383165f908152600660205260409020549091506109dd908290613331565b6001600160a01b0383165f90815260066020526040902055600e54610a03908290613331565b600e55600f54610a14908490613344565b600f55505050565b606060038054610a2b90613357565b80601f0160208091040260200160405190810160405280929190818152602001828054610a5790613357565b8015610aa25780601f10610a7957610100808354040283529160200191610aa2565b820191905f5260205f20905b815481529060010190602001808311610a8557829003601f168201915b5050505050905090565b5f610ab8338484611e95565b5060015b92915050565b5f610ace848484611fb8565b6001600160a01b0384165f90815260016020908152604080832033845290915290205482811015610b525760405162461bcd60e51b815260206004820152602860248201527f45524332303a207472616e7366657220616d6f756e74206578636565647320616044820152676c6c6f77616e636560c01b60648201526084016109a1565b610b5f8533858403611e95565b506001949350505050565b335f8181526001602090815260408083206001600160a01b03871684529091528120549091610ab8918590610ba0908690613344565b611e95565b610baf33826122bf565b50565b6005546001600160a01b03163314610bdc5760405162461bcd60e51b81526004016109a19061338f565b6001600160a01b03165f908152600860205260409020805460ff19166001179055565b5f600d54831115610c525760405162461bcd60e51b815260206004820152601f60248201527f416d6f756e74206d757374206265206c657373207468616e20737570706c790060448201526064016109a1565b81610c6e575f610c6184611e44565b50919350610abc92505050565b5f610c7884611e44565b50909350610abc92505050565b6005546001600160a01b03163314610caf5760405162461bcd60e51b81526004016109a19061338f565b600560185460165460145460125485610cc89190613344565b610cd29190613344565b610cdc9190613344565b610ce69190613344565b1115610d045760405162461bcd60e51b81526004016109a1906133c4565b601080549082905560408051828152602081018490527f78f1461296bad7bd716a7673aa3e659cc091c348a7ed4cfef7ce452c3052f2fb91015b60405180910390a15050565b6005546001600160a01b03163314610d745760405162461bcd60e51b81526004016109a19061338f565b6001600160a01b0381165f9081526009602052604090205460ff1615610ddc5760405162461bcd60e51b815260206004820152601b60248201527f4163636f756e7420697320616c7265616479206578636c75646564000000000060448201526064016109a1565b306001600160a01b03821603610e505760405162461bcd60e51b815260206004820152603360248201527f436f6e747261637420616464726573732063616e6e6f74206265206578636c756044820152723232b210333937b6903932b33632b1ba34b7b760691b60648201526084016109a1565b6001600160a01b0381165f9081526006602052604090205415610ea7576001600160a01b0381165f90815260066020526040902054610e8e9061248d565b6001600160a01b0382165f908152600760205260409020555b6001600160a01b03165f818152600960205260408120805460ff19166001908117909155600a805491820181559091527fc65a7bb8d6351c1cf70c95a316cc6a92839c986682d98bc35f958f4883f9d2a80180546001600160a01b0319169091179055565b6005546001600160a01b03163314610f365760405162461bcd60e51b81526004016109a19061338f565b600560185482601454601254601054610f4f9190613344565b610f599190613344565b610f639190613344565b610f6d9190613344565b1115610f8b5760405162461bcd60e51b81526004016109a1906133c4565b6016805490829055601854601454610fa4908490613344565b610fae9190613344565b601a5560408051828152602081018490527f043102402b1ef1ea68f92a353de80186b92415038542af2e8d748f8d6c5250329101610d3e565b6005546001600160a01b031633146110115760405162461bcd60e51b81526004016109a19061338f565b60058160165460145460125460105461102a9190613344565b6110349190613344565b61103e9190613344565b6110489190613344565b11156110965760405162461bcd60e51b815260206004820152601f60248201527f546f74616c20666565732065786365656420746865203625206c696d69742e0060448201526064016109a1565b601880549082905560165460145483916110af91613344565b6110b99190613344565b601a5560408051828152602081018490527fc9d63693638bfc625de9be66171e4bf76ad4d474ac6bef7cd4c766747cd0075f9101610d3e565b6001600160a01b0381165f9081526009602052604081205460ff161561112d57506001600160a01b03165f9081526007602052604090205490565b6001600160a01b0382165f90815260066020526040902054610abc9061248d565b6005546001600160a01b031633146111785760405162461bcd60e51b81526004016109a19061338f565b6111815f61250f565b565b5f61118e833361082e565b9050818110156111ec5760405162461bcd60e51b8152602060048201526024808201527f45524332303a206275726e20616d6f756e74206578636565647320616c6c6f77604482015263616e636560e01b60648201526084016109a1565b6111f98333848403611e95565b61120383836122bf565b505050565b6005546001600160a01b031633146112325760405162461bcd60e51b81526004016109a19061338f565b6001600160a01b03811661129d5760405162461bcd60e51b815260206004820152602c60248201527f4d61726b6574696e6720616464726573732063616e6e6f74206265207468652060448201526b7a65726f206164647265737360a01b60648201526084016109a1565b600b80546001600160a01b038381166001600160a01b031983168117909355604080519190921680825260208201939093527fa8efc72ed34f90017df79620d1972d42b8e3b17eb0077fc5fc46cbf1a19ed9a99101610d3e565b606060048054610a2b90613357565b335f9081526001602090815260408083206001600160a01b0386168452909152812054828110156113875760405162461bcd60e51b815260206004820152602560248201527f45524332303a2064656372656173656420616c6c6f77616e63652062656c6f77604482015264207a65726f60d81b60648201526084016109a1565b6113943385858403611e95565b5060019392505050565b5f610ab8338484611fb8565b6005546001600160a01b031633146113d45760405162461bcd60e51b81526004016109a19061338f565b6005601854601654836012546010546113ed9190613344565b6113f79190613344565b6114019190613344565b61140b9190613344565b11156114295760405162461bcd60e51b81526004016109a1906133c4565b60148054908290556018546016546114419084613344565b61144b9190613344565b601a5560408051828152602081018490527fd72bb987241d30efe97862fae5c01605397a36024557bbae8ebedec081678bc29101610d3e565b6005546001600160a01b031633146114ae5760405162461bcd60e51b81526004016109a19061338f565b601f80548215156101000261ff00199091161790556040517f53726dfcaf90650aa7eb35524f4d3220f07413c8d6cb404cc8c18bf5591bc159906114f790831515815260200190565b60405180910390a150565b6005546001600160a01b0316331461152c5760405162461bcd60e51b81526004016109a19061338f565b600c5460405147915f916001600160a01b039091169083908381818185875af1925050503d805f811461157a576040519150601f19603f3d011682016040523d82523d5f602084013e61157f565b606091505b50509050806115c25760405162461bcd60e51b815260206004820152600f60248201526e151c985b9cd9995c8819985a5b1959608a1b60448201526064016109a1565b600c54604080516001600160a01b039092168252602082018490527fde57927eaafd79a9562f4b8bbe822f62efd918b1dfc739deb1222e851bfa6e909101610d3e565b6005546001600160a01b0316331461162f5760405162461bcd60e51b81526004016109a19061338f565b6001600160a01b03811661169a5760405162461bcd60e51b815260206004820152602c60248201527f446576656c6f70657220616464726573732063616e6e6f74206265207468652060448201526b7a65726f206164647265737360a01b60648201526084016109a1565b600c80546001600160a01b038381166001600160a01b031983168117909355604080519190921680825260208201939093527f9a8fce0f201607a626cc555ef244d8ed346d879d2141b2964c3a955650554ae09101610d3e565b6005546001600160a01b0316331461171e5760405162461bcd60e51b81526004016109a19061338f565b6005601854601654601454846010546117379190613344565b6117419190613344565b61174b9190613344565b6117559190613344565b11156117735760405162461bcd60e51b81526004016109a1906133c4565b601280549082905560408051828152602081018490527f2c52ca41e4d19e67555be53873512bb32ca77e9e6d56b69361d6ac621a8834d19101610d3e565b6005546001600160a01b031633146117db5760405162461bcd60e51b81526004016109a19061338f565b306001600160a01b038316036118525760405162461bcd60e51b815260206004820152603660248201527f4f776e65722063616e277420636c61696d20636f6e747261637427732062616c604482015275616e6365206f6620697473206f776e20746f6b656e7360501b60648201526084016109a1565b600c5460405163a9059cbb60e01b81526001600160a01b039182166004820152602481018390525f9184169063a9059cbb906044016020604051808303815f875af11580156118a3573d5f803e3d5ffd5b505050506040513d601f19601f820116820180604052508101906118c791906133fb565b9050806119085760405162461bcd60e51b815260206004820152600f60248201526e151c985b9cd9995c8819985a5b1959608a1b60448201526064016109a1565b600c54604080516001600160a01b038087168252909216602083015281018390527f7f04a6831af98a2f03a74820315c7df18b78440fafabf085ded21faf688213739060600160405180910390a1505050565b6005546001600160a01b031633146119855760405162461bcd60e51b81526004016109a19061338f565b6001600160a01b03165f908152600860205260409020805460ff19169055565b6005546001600160a01b031633146119cf5760405162461bcd60e51b81526004016109a19061338f565b6103e8600d5460016119e19190613416565b6119eb919061342d565b811015611a605760405162461bcd60e51b815260206004820152603860248201527f4d61785478416d6f756e742073686f756c64206265206174206c65617374203060448201527f2e3125206f662074686520746f74616c20737570706c792e000000000000000060648201526084016109a1565b601c80549082905560408051828152602081018490527fadcf01123294f8514884e924e20eb4f3032288087368896a17c71f09668247c89101610d3e565b6005546001600160a01b03163314611ac85760405162461bcd60e51b81526004016109a19061338f565b601f5462010000900460ff16151581151503611b1f5760405162461bcd60e51b815260206004820152601660248201527529b2ba1030903234b33332b932b73a103b30b63ab29760511b60448201526064016109a1565b8015611b8257611b2e5f611484565b611b71601a8054601b5560148054601555601080546011556012805460135560168054601755601880546019555f95869055938590559184905583905582905555565b601c54601d55600d54601c55611bbc565b611b8c6001611484565b611bb5601b54601a55601554601455601154601055601354601255601754601655601954601855565b601d54601c555b601f8054821515620100000262ff0000199091161790556040517f754db841cd0ba8b9d7311dc4b5c8cd44b1ff98bcb4e1d8d9cab86566bce3a1fa906114f790831515815260200190565b6005546001600160a01b03163314611c315760405162461bcd60e51b81526004016109a19061338f565b6001600160a01b038116611c965760405162461bcd60e51b815260206004820152602660248201527f4f776e61626c653a206e6577206f776e657220697320746865207a65726f206160448201526564647265737360d01b60648201526084016109a1565b610baf8161250f565b6005546001600160a01b03163314611cc95760405162461bcd60e51b81526004016109a19061338f565b6001600160a01b0381165f9081526009602052604090205460ff16611d305760405162461bcd60e51b815260206004820152601b60248201527f4163636f756e7420697320616c726561647920696e636c75646564000000000060448201526064016109a1565b5f5b600a54811015611e4057816001600160a01b0316600a8281548110611d5957611d5961344c565b5f918252602090912001546001600160a01b031603611e3857600a8054611d8290600190613331565b81548110611d9257611d9261344c565b5f91825260209091200154600a80546001600160a01b039092169183908110611dbd57611dbd61344c565b5f91825260208083209190910180546001600160a01b0319166001600160a01b039485161790559184168152600782526040808220829055600990925220805460ff19169055600a805480611e1457611e14613460565b5f8281526020902081015f1990810180546001600160a01b03191690550190555050565b600101611d32565b5050565b5f805f805f611e5286612560565b90505f611e5f8288613331565b90505f611e6a6125a0565b90505f611e778284613416565b90505f611e84838b613416565b9a9199509297509095509350505050565b6001600160a01b038316611ef75760405162461bcd60e51b8152602060048201526024808201527f45524332303a20617070726f76652066726f6d20746865207a65726f206164646044820152637265737360e01b60648201526084016109a1565b6001600160a01b038216611f585760405162461bcd60e51b815260206004820152602260248201527f45524332303a20617070726f766520746f20746865207a65726f206164647265604482015261737360f01b60648201526084016109a1565b6001600160a01b038381165f8181526001602090815260408083209487168084529482529182902085905590518481527f8c5be1e5ebec7d5bd14f71427d1e84f3dd0314c0f7b2291e5b200ac8c7c3b925910160405180910390a3505050565b6001600160a01b03831661201c5760405162461bcd60e51b815260206004820152602560248201527f45524332303a207472616e736665722066726f6d20746865207a65726f206164604482015264647265737360d81b60648201526084016109a1565b6001600160a01b03821661207e5760405162461bcd60e51b815260206004820152602360248201527f45524332303a207472616e7366657220746f20746865207a65726f206164647260448201526265737360e81b60648201526084016109a1565b5f81116120df5760405162461bcd60e51b815260206004820152602960248201527f5472616e7366657220616d6f756e74206d7573742062652067726561746572206044820152687468616e207a65726f60b81b60648201526084016109a1565b5f6120e9846110f2565b90508181101561214a5760405162461bcd60e51b815260206004820152602660248201527f45524332303a207472616e7366657220616d6f756e7420657863656564732062604482015265616c616e636560d01b60648201526084016109a1565b6005546001600160a01b0385811691161480159061217657506005546001600160a01b03848116911614155b156121de57601c548211156121de5760405162461bcd60e51b815260206004820152602860248201527f5472616e7366657220616d6f756e74206578636565647320746865206d6178546044820152673c20b6b7bab73a1760c11b60648201526084016109a1565b5f6121e8306110f2565b601e54601f549192508210159060ff1615801561220c5750601f54610100900460ff165b801561224957507f00000000000000000000000000000000000000000000000000000000000000006001600160a01b0316856001600160a01b0316145b1561226257801561226257601e549150612262826125c1565b6001600160a01b0386165f9081526008602052604090205460019060ff16806122a257506001600160a01b0386165f9081526008602052604090205460ff165b156122aa57505f5b6122b68787878461283d565b50505050505050565b6001600160a01b03821661231f5760405162461bcd60e51b815260206004820152602160248201527f45524332303a206275726e2066726f6d20746865207a65726f206164647265736044820152607360f81b60648201526084016109a1565b5f612329836110f2565b9050818110156123865760405162461bcd60e51b815260206004820152602260248201527f45524332303a206275726e20616d6f756e7420657863656564732062616c616e604482015261636560f01b60648201526084016109a1565b5f61238f6125a0565b90505f61239c8285613416565b6001600160a01b0386165f9081526009602052604090205490915060ff16156123fb576001600160a01b0385165f908152600760205260409020546123e2908590613331565b6001600160a01b0386165f908152600760205260409020555b6001600160a01b0385165f9081526006602052604090205461241e908290613331565b6001600160a01b0386165f90815260066020526040902055600d54612444908590613331565b600d55600e54612455908290613331565b600e556040518481525f906001600160a01b038716905f80516020613551833981519152906020015b60405180910390a35050505050565b5f600e548211156124f35760405162461bcd60e51b815260206004820152602a60248201527f416d6f756e74206d757374206265206c657373207468616e20746f74616c207260448201526965666c656374696f6e7360b01b60648201526084016109a1565b5f6124fc6125a0565b9050612508818461342d565b9392505050565b600580546001600160a01b038381166001600160a01b0319831681179093556040519116919082907f8be0079c531659141344cd1fd0a4f28419497f9722a3daafe3b4186f6b6457e0905f90a35050565b5f80601054601254601a546125759190613344565b61257f9190613344565b90505f606461258e8386613416565b612598919061342d565b949350505050565b5f805f6125ab6128c4565b90925090506125ba818361342d565b9250505090565b601f805460ff19166001179055601a54156127ab57601a5460145447915f916125ea9085613416565b6125f4919061342d565b90505f61260260028361342d565b90505f61260f8284613331565b905061262361261e8287613331565b612a34565b5f61262e8547613331565b600b5460145491925061269e916001600160a01b039091169060029061265590600a613416565b61265f919061342d565b601a5461266d90600a613416565b6126779190613331565b60165461268590600a613416565b61268f9085613416565b612699919061342d565b612c17565b600c546014546126f0916001600160a01b0316906002906126c090600a613416565b6126ca919061342d565b601a546126d890600a613416565b6126e29190613331565b60185461268590600a613416565b5f6002601454600a6127029190613416565b61270c919061342d565b601a5461271a90600a613416565b6127249190613331565b6002601454846127349190613416565b61273f90600a613416565b612749919061342d565b612753919061342d565b905061275f8382612cb6565b60408051858152602081018390529081018490527f17bbfb9a6069321b6ded73bd96327c9e6b7212a5cd51ff219cd61370acafb5619060600160405180910390a1505050505050612830565b7f994931395f904589897e94f536b6b7ea3d2c3b2b567e6319fdf216c61eef01076040516128279060208082526034908201527f5f636f6d62696e65644c697175696469747946656520697320302c20736b69706040820152733834b7339039bbb0b820b7322634b8bab4b33c9760611b606082015260800190565b60405180910390a15b50601f805460ff19169055565b8061288557612885601a8054601b5560148054601555601080546011556012805460135560168054601755601880546019555f95869055938590559184905583905582905555565b612890848484612db9565b806128be576128be601b54601a55601554601455601154601055601354601255601754601655601954601855565b50505050565b600e54600d545f918291825b600a54811015612a03578260065f600a84815481106128f1576128f161344c565b5f9182526020808320909101546001600160a01b03168352820192909252604001902054118061295957508160075f600a84815481106129335761293361344c565b5f9182526020808320909101546001600160a01b03168352820192909252604001902054115b1561296f57600e54600d54945094505050509091565b60065f600a83815481106129855761298561344c565b5f9182526020808320909101546001600160a01b031683528201929092526040019020546129b39084613331565b925060075f600a83815481106129cb576129cb61344c565b5f9182526020808320909101546001600160a01b031683528201929092526040019020546129f99083613331565b91506001016128d0565b50600d54600e54612a14919061342d565b821015612a2b57600e54600d549350935050509091565b90939092509050565b6040805160028082526060820183525f9260208301908036833701905050905030815f81518110612a6757612a6761344c565b60200260200101906001600160a01b031690816001600160a01b0316815250507f00000000000000000000000000000000000000000000000000000000000000006001600160a01b031663ad5c46486040518163ffffffff1660e01b8152600401602060405180830381865afa158015612ae3573d5f803e3d5ffd5b505050506040513d601f19601f82011682018060405250810190612b079190613474565b81600181518110612b1a57612b1a61344c565b60200260200101906001600160a01b031690816001600160a01b031681525050612b65307f000000000000000000000000000000000000000000000000000000000000000084611e95565b60405163791ac94760e01b81526001600160a01b037f0000000000000000000000000000000000000000000000000000000000000000169063791ac94790612bb99085905f908690309042906004016134d2565b5f604051808303815f87803b158015612bd0575f80fd5b505af1158015612be2573d5f803e3d5ffd5b505050507f32cde87eb454f3a0b875ab23547023107cfad454363ec88ba5695e2c24aa52a78282604051610d3e92919061350d565b5f826001600160a01b0316826040515f6040518083038185875af1925050503d805f8114612c60576040519150601f19603f3d011682016040523d82523d5f602084013e612c65565b606091505b505090508061120357826001600160a01b03167f1c43b9761b3fba5321ca8212bfc231945f668ccc0c446f333999eea9ce8fda8183604051612ca991815260200190565b60405180910390a2505050565b612ce1307f000000000000000000000000000000000000000000000000000000000000000084611e95565b7f00000000000000000000000000000000000000000000000000000000000000006001600160a01b031663f305d7198230855f80612d276005546001600160a01b031690565b60405160e088901b6001600160e01b03191681526001600160a01b03958616600482015260248101949094526044840192909252606483015290911660848201524260a482015260c40160606040518083038185885af1158015612d8d573d5f803e3d5ffd5b50505050506040513d601f19601f82011682018060405250810190612db29190613525565b5050505050565b5f805f80612dc685611e44565b6001600160a01b038b165f9081526006602052604090205493975091955093509150612df3908590613331565b6001600160a01b038089165f908152600660205260408082209390935590881681522054612e22908490613344565b6001600160a01b038088165f90815260066020908152604080832094909455918a1681526009909152205460ff168015612e7457506001600160a01b0386165f9081526009602052604090205460ff16155b15612eb9576001600160a01b0387165f90815260076020526040902054612e9c908690613331565b6001600160a01b0388165f90815260076020526040902055612feb565b6001600160a01b0387165f9081526009602052604090205460ff16158015612ef857506001600160a01b0386165f9081526009602052604090205460ff165b15612f3d576001600160a01b0386165f90815260076020526040902054612f20908390613344565b6001600160a01b0387165f90815260076020526040902055612feb565b6001600160a01b0387165f9081526009602052604090205460ff168015612f7b57506001600160a01b0386165f9081526009602052604090205460ff165b15612feb576001600160a01b0387165f90815260076020526040902054612fa3908690613331565b6001600160a01b038089165f908152600760205260408082209390935590881681522054612fd2908390613344565b6001600160a01b0387165f908152600760205260409020555b612ff58582613052565b6130008786836130a4565b61300f878683601a5430613120565b856001600160a01b0316876001600160a01b03165f805160206135518339815191528460405161304191815260200190565b60405180910390a350505050505050565b5f6064601254846130639190613416565b61306d919061342d565b90505f61307a8383613416565b905080600e5461308a9190613331565b600e55600f5461309b908390613344565b600f5550505050565b5f6064601054846130b59190613416565b6130bf919061342d565b905080156128be575f6130d28383613416565b905081600d546130e29190613331565b600d55600e546130f3908290613331565b600e556040518281525f906001600160a01b038716905f805160206135518339815191529060200161247e565b5f606461312d8487613416565b613137919061342d565b905080156131b0575f61314a8583613416565b6001600160a01b0384165f90815260066020526040902054909150613170908290613344565b6001600160a01b038085165f8181526006602052604090819020939093559151908916905f80516020613551833981519152906130419086815260200190565b505050505050565b5f602082840312156131c8575f80fd5b5035919050565b602081525f82518060208401528060208501604085015e5f604082850101526040601f19601f83011684010191505092915050565b6001600160a01b0381168114610baf575f80fd5b5f8060408385031215613229575f80fd5b823561323481613204565b946020939093013593505050565b5f805f60608486031215613254575f80fd5b833561325f81613204565b9250602084013561326f81613204565b929592945050506040919091013590565b5f60208284031215613290575f80fd5b813561250881613204565b8015158114610baf575f80fd5b5f80604083850312156132b9575f80fd5b8235915060208301356132cb8161329b565b809150509250929050565b5f602082840312156132e6575f80fd5b81356125088161329b565b5f8060408385031215613302575f80fd5b823561330d81613204565b915060208301356132cb81613204565b634e487b7160e01b5f52601160045260245ffd5b81810381811115610abc57610abc61331d565b80820180821115610abc57610abc61331d565b600181811c9082168061336b57607f821691505b60208210810361338957634e487b7160e01b5f52602260045260245ffd5b50919050565b6020808252818101527f4f776e61626c653a2063616c6c6572206973206e6f7420746865206f776e6572604082015260600190565b6020808252601f908201527f546f74616c20666565732065786365656420746865203525206c696d69742e00604082015260600190565b5f6020828403121561340b575f80fd5b81516125088161329b565b8082028115828204841417610abc57610abc61331d565b5f8261344757634e487b7160e01b5f52601260045260245ffd5b500490565b634e487b7160e01b5f52603260045260245ffd5b634e487b7160e01b5f52603160045260245ffd5b5f60208284031215613484575f80fd5b815161250881613204565b5f815180845260208085019450602084015f5b838110156134c75781516001600160a01b0316875295820195908201906001016134a2565b509495945050505050565b85815284602082015260a060408201525f6134f060a083018661348f565b6001600160a01b0394909416606083015250608001529392505050565b828152604060208201525f612598604083018461348f565b5f805f60608486031215613537575f80fd5b835192506020840151915060408401519050925092509256feddf252ad1be2c89b69c2b068fc378daa952ba7f163c4a11628f55a4df523b3efa2646970667358221220d8fdff5b8a5ca50b8274a9210337801dceadeb19363b3aed9f332b198e830a3364736f6c63430008190033",
			"opcodes": "PUSH1 0xE0 PUSH1 0x40 MSTORE PUSH1 0xB DUP1 SLOAD PUSH1 0x1 PUSH1 0x1 PUSH1 0xA0 SHL SUB NOT SWAP1 DUP2 AND PUSH20 0xED001EBB1A71DC6DF6659C4E4EDB070342FD4A1F OR SWAP1 SWAP2 SSTORE PUSH1 0xC DUP1 SLOAD SWAP1 SWAP2 AND PUSH20 0xB5DF28F0D138275C29536400C1452A816911B77A OR SWAP1 SSTORE PUSH2 0xDEAD PUSH1 0x80 MSTORE PUSH12 0x33B2E3C9FD0803CE8000000 PUSH1 0xD DUP2 SWAP1 SSTORE PUSH2 0x6F SWAP1 PUSH0 NOT PUSH2 0x490 JUMP JUMPDEST PUSH2 0x7A SWAP1 PUSH0 NOT PUSH2 0x4C3 JUMP JUMPDEST PUSH1 0xE SSTORE PUSH0 PUSH1 0xF SSTORE PUSH1 0x1 PUSH1 0x10 DUP2 SWAP1 SSTORE PUSH1 0x11 DUP2 SWAP1 SSTORE PUSH1 0x12 DUP2 SWAP1 SSTORE PUSH1 0x13 DUP2 SWAP1 SSTORE PUSH1 0x14 DUP2 SWAP1 SSTORE PUSH1 0x15 DUP2 SWAP1 SSTORE PUSH1 0x16 DUP2 SWAP1 SSTORE PUSH1 0x17 DUP2 SWAP1 SSTORE PUSH1 0x18 DUP2 SWAP1 SSTORE PUSH1 0x19 SSTORE PUSH1 0x3 PUSH1 0x1A DUP2 SWAP1 SSTORE PUSH1 0x1B DUP2 SWAP1 SSTORE PUSH11 0x422CA8B0A00A425000000 PUSH1 0x1C DUP2 SWAP1 SSTORE PUSH1 0x1D SSTORE PUSH10 0x152D02C7E14AF6800000 PUSH1 0x1E SSTORE PUSH1 0x1F DUP1 SLOAD PUSH3 0xFFFF00 NOT AND PUSH2 0x100 OR SWAP1 SSTORE PUSH1 0x40 DUP1 MLOAD DUP1 DUP3 ADD DUP3 MSTORE PUSH1 0xA DUP2 MSTORE PUSH10 0x436F6666792044654669 PUSH1 0xB0 SHL PUSH1 0x20 DUP1 DUP4 ADD SWAP2 SWAP1 SWAP2 MSTORE DUP3 MLOAD DUP1 DUP5 ADD SWAP1 SWAP4 MSTORE PUSH1 0x5 DUP4 MSTORE PUSH5 0x434F464649 PUSH1 0xD8 SHL SWAP1 DUP4 ADD MSTORE SWAP2 PUSH2 0x139 DUP4 DUP3 PUSH2 0x574 JUMP JUMPDEST POP PUSH1 0x4 PUSH2 0x146 DUP3 DUP3 PUSH2 0x574 JUMP JUMPDEST POP POP POP PUSH2 0x15F PUSH2 0x15A PUSH2 0x361 PUSH1 0x20 SHL PUSH1 0x20 SHR JUMP JUMPDEST PUSH2 0x365 JUMP JUMPDEST PUSH0 PUSH20 0x7A250D5630B4CF539739DF2C5DACB4C659F2488D SWAP1 POP DUP1 PUSH1 0x1 PUSH1 0x1 PUSH1 0xA0 SHL SUB AND PUSH4 0xC45A0155 PUSH1 0x40 MLOAD DUP2 PUSH4 0xFFFFFFFF AND PUSH1 0xE0 SHL DUP2 MSTORE PUSH1 0x4 ADD PUSH1 0x20 PUSH1 0x40 MLOAD DUP1 DUP4 SUB DUP2 DUP7 GAS STATICCALL ISZERO DUP1 ISZERO PUSH2 0x1B3 JUMPI RETURNDATASIZE PUSH0 DUP1 RETURNDATACOPY RETURNDATASIZE PUSH0 REVERT JUMPDEST POP POP POP POP PUSH1 0x40 MLOAD RETURNDATASIZE PUSH1 0x1F NOT PUSH1 0x1F DUP3 ADD AND DUP3 ADD DUP1 PUSH1 0x40 MSTORE POP DUP2 ADD SWAP1 PUSH2 0x1D7 SWAP2 SWAP1 PUSH2 0x633 JUMP JUMPDEST PUSH1 0x1 PUSH1 0x1 PUSH1 0xA0 SHL SUB AND PUSH4 0xC9C65396 ADDRESS DUP4 PUSH1 0x1 PUSH1 0x1 PUSH1 0xA0 SHL SUB AND PUSH4 0xAD5C4648 PUSH1 0x40 MLOAD DUP2 PUSH4 0xFFFFFFFF AND PUSH1 0xE0 SHL DUP2 MSTORE PUSH1 0x4 ADD PUSH1 0x20 PUSH1 0x40 MLOAD DUP1 DUP4 SUB DUP2 DUP7 GAS STATICCALL ISZERO DUP1 ISZERO PUSH2 0x222 JUMPI RETURNDATASIZE PUSH0 DUP1 RETURNDATACOPY RETURNDATASIZE PUSH0 REVERT JUMPDEST POP POP POP POP PUSH1 0x40 MLOAD RETURNDATASIZE PUSH1 0x1F NOT PUSH1 0x1F DUP3 ADD AND DUP3 ADD DUP1 PUSH1 0x40 MSTORE POP DUP2 ADD SWAP1 PUSH2 0x246 SWAP2 SWAP1 PUSH2 0x633 JUMP JUMPDEST PUSH1 0x40 MLOAD PUSH1 0x1 PUSH1 0x1 PUSH1 0xE0 SHL SUB NOT PUSH1 0xE0 DUP6 SWAP1 SHL AND DUP2 MSTORE PUSH1 0x1 PUSH1 0x1 PUSH1 0xA0 SHL SUB SWAP3 DUP4 AND PUSH1 0x4 DUP3 ADD MSTORE SWAP2 AND PUSH1 0x24 DUP3 ADD MSTORE PUSH1 0x44 ADD PUSH1 0x20 PUSH1 0x40 MLOAD DUP1 DUP4 SUB DUP2 PUSH0 DUP8 GAS CALL ISZERO DUP1 ISZERO PUSH2 0x290 JUMPI RETURNDATASIZE PUSH0 DUP1 RETURNDATACOPY RETURNDATASIZE PUSH0 REVERT JUMPDEST POP POP POP POP PUSH1 0x40 MLOAD RETURNDATASIZE PUSH1 0x1F NOT PUSH1 0x1F DUP3 ADD AND DUP3 ADD DUP1 PUSH1 0x40 MSTORE POP DUP2 ADD SWAP1 PUSH2 0x2B4 SWAP2 SWAP1 PUSH2 0x633 JUMP JUMPDEST PUSH1 0x1 PUSH1 0x1 PUSH1 0xA0 SHL SUB SWAP1 DUP2 AND PUSH1 0xC0 MSTORE DUP2 AND PUSH1 0xA0 MSTORE PUSH1 0x1 PUSH1 0x8 PUSH0 PUSH2 0x2DE PUSH1 0x5 SLOAD PUSH1 0x1 PUSH1 0x1 PUSH1 0xA0 SHL SUB AND SWAP1 JUMP JUMPDEST PUSH1 0x1 PUSH1 0x1 PUSH1 0xA0 SHL SUB SWAP1 DUP2 AND DUP3 MSTORE PUSH1 0x20 DUP1 DUP4 ADD SWAP4 SWAP1 SWAP4 MSTORE PUSH1 0x40 SWAP2 DUP3 ADD PUSH0 SWAP1 DUP2 KECCAK256 DUP1 SLOAD SWAP6 ISZERO ISZERO PUSH1 0xFF NOT SWAP7 DUP8 AND OR SWAP1 SSTORE PUSH1 0xB SLOAD DUP3 AND DUP2 MSTORE PUSH1 0x8 SWAP1 SWAP4 MSTORE DUP2 DUP4 KECCAK256 DUP1 SLOAD DUP6 AND PUSH1 0x1 SWAP1 DUP2 OR SWAP1 SWAP2 SSTORE PUSH1 0xC SLOAD SWAP1 SWAP2 AND DUP4 MSTORE DUP2 DUP4 KECCAK256 DUP1 SLOAD DUP6 AND DUP3 OR SWAP1 SSTORE ADDRESS DUP4 MSTORE SWAP2 KECCAK256 DUP1 SLOAD SWAP1 SWAP3 AND OR SWAP1 SSTORE PUSH2 0x35B PUSH2 0x350 CALLER SWAP1 JUMP JUMPDEST PUSH1 0xE SLOAD PUSH1 0xD SLOAD PUSH2 0x3B6 JUMP JUMPDEST POP PUSH2 0x673 JUMP JUMPDEST CALLER SWAP1 JUMP JUMPDEST PUSH1 0x5 DUP1 SLOAD PUSH1 0x1 PUSH1 0x1 PUSH1 0xA0 SHL SUB DUP4 DUP2 AND PUSH1 0x1 PUSH1 0x1 PUSH1 0xA0 SHL SUB NOT DUP4 AND DUP2 OR SWAP1 SWAP4 SSTORE PUSH1 0x40 MLOAD SWAP2 AND SWAP2 SWAP1 DUP3 SWAP1 PUSH32 0x8BE0079C531659141344CD1FD0A4F28419497F9722A3DAAFE3B4186F6B6457E0 SWAP1 PUSH0 SWAP1 LOG3 POP POP JUMP JUMPDEST PUSH1 0x1 PUSH1 0x1 PUSH1 0xA0 SHL SUB DUP4 AND PUSH2 0x410 JUMPI PUSH1 0x40 MLOAD PUSH3 0x461BCD PUSH1 0xE5 SHL DUP2 MSTORE PUSH1 0x20 PUSH1 0x4 DUP3 ADD MSTORE PUSH1 0x1F PUSH1 0x24 DUP3 ADD MSTORE PUSH32 0x45524332303A206D696E7420746F20746865207A65726F206164647265737300 PUSH1 0x44 DUP3 ADD MSTORE PUSH1 0x64 ADD PUSH1 0x40 MLOAD DUP1 SWAP2 SUB SWAP1 REVERT JUMPDEST PUSH1 0x1 PUSH1 0x1 PUSH1 0xA0 SHL SUB DUP4 AND PUSH0 SWAP1 DUP2 MSTORE PUSH1 0x6 PUSH1 0x20 MSTORE PUSH1 0x40 SWAP1 KECCAK256 SLOAD PUSH2 0x433 SWAP1 DUP4 SWAP1 PUSH2 0x660 JUMP JUMPDEST PUSH1 0x1 PUSH1 0x1 PUSH1 0xA0 SHL SUB DUP5 AND PUSH0 DUP2 DUP2 MSTORE PUSH1 0x6 PUSH1 0x20 MSTORE PUSH1 0x40 DUP1 DUP3 KECCAK256 SWAP4 SWAP1 SWAP4 SSTORE SWAP2 MLOAD SWAP1 SWAP2 SWAP1 PUSH32 0xDDF252AD1BE2C89B69C2B068FC378DAA952BA7F163C4A11628F55A4DF523B3EF SWAP1 PUSH2 0x483 SWAP1 DUP6 DUP2 MSTORE PUSH1 0x20 ADD SWAP1 JUMP JUMPDEST PUSH1 0x40 MLOAD DUP1 SWAP2 SUB SWAP1 LOG3 POP POP POP JUMP JUMPDEST PUSH0 DUP3 PUSH2 0x4AA JUMPI PUSH4 0x4E487B71 PUSH1 0xE0 SHL PUSH0 MSTORE PUSH1 0x12 PUSH1 0x4 MSTORE PUSH1 0x24 PUSH0 REVERT JUMPDEST POP MOD SWAP1 JUMP JUMPDEST PUSH4 0x4E487B71 PUSH1 0xE0 SHL PUSH0 MSTORE PUSH1 0x11 PUSH1 0x4 MSTORE PUSH1 0x24 PUSH0 REVERT JUMPDEST DUP2 DUP2 SUB DUP2 DUP2 GT ISZERO PUSH2 0x4D6 JUMPI PUSH2 0x4D6 PUSH2 0x4AF JUMP JUMPDEST SWAP3 SWAP2 POP POP JUMP JUMPDEST PUSH4 0x4E487B71 PUSH1 0xE0 SHL PUSH0 MSTORE PUSH1 0x41 PUSH1 0x4 MSTORE PUSH1 0x24 PUSH0 REVERT JUMPDEST PUSH1 0x1 DUP2 DUP2 SHR SWAP1 DUP3 AND DUP1 PUSH2 0x504 JUMPI PUSH1 0x7F DUP3 AND SWAP2 POP JUMPDEST PUSH1 0x20 DUP3 LT DUP2 SUB PUSH2 0x522 JUMPI PUSH4 0x4E487B71 PUSH1 0xE0 SHL PUSH0 MSTORE PUSH1 0x22 PUSH1 0x4 MSTORE PUSH1 0x24 PUSH0 REVERT JUMPDEST POP SWAP2 SWAP1 POP JUMP JUMPDEST PUSH1 0x1F DUP3 GT ISZERO PUSH2 0x56F JUMPI DUP1 PUSH0 MSTORE PUSH1 0x20 PUSH0 KECCAK256 PUSH1 0x1F DUP5 ADD PUSH1 0x5 SHR DUP2 ADD PUSH1 0x20 DUP6 LT ISZERO PUSH2 0x54D JUMPI POP DUP1 JUMPDEST PUSH1 0x1F DUP5 ADD PUSH1 0x5 SHR DUP3 ADD SWAP2 POP JUMPDEST DUP2 DUP2 LT ISZERO PUSH2 0x56C JUMPI PUSH0 DUP2 SSTORE PUSH1 0x1 ADD PUSH2 0x559 JUMP JUMPDEST POP POP JUMPDEST POP POP POP JUMP JUMPDEST DUP2 MLOAD PUSH1 0x1 PUSH1 0x1 PUSH1 0x40 SHL SUB DUP2 GT ISZERO PUSH2 0x58D JUMPI PUSH2 0x58D PUSH2 0x4DC JUMP JUMPDEST PUSH2 0x5A1 DUP2 PUSH2 0x59B DUP5 SLOAD PUSH2 0x4F0 JUMP JUMPDEST DUP5 PUSH2 0x528 JUMP JUMPDEST PUSH1 0x20 DUP1 PUSH1 0x1F DUP4 GT PUSH1 0x1 DUP2 EQ PUSH2 0x5D4 JUMPI PUSH0 DUP5 ISZERO PUSH2 0x5BD JUMPI POP DUP6 DUP4 ADD MLOAD JUMPDEST PUSH0 NOT PUSH1 0x3 DUP7 SWAP1 SHL SHR NOT AND PUSH1 0x1 DUP6 SWAP1 SHL OR DUP6 SSTORE PUSH2 0x62B JUMP JUMPDEST PUSH0 DUP6 DUP2 MSTORE PUSH1 0x20 DUP2 KECCAK256 PUSH1 0x1F NOT DUP7 AND SWAP2 JUMPDEST DUP3 DUP2 LT ISZERO PUSH2 0x602 JUMPI DUP9 DUP7 ADD MLOAD DUP3 SSTORE SWAP5 DUP5 ADD SWAP5 PUSH1 0x1 SWAP1 SWAP2 ADD SWAP1 DUP5 ADD PUSH2 0x5E3 JUMP JUMPDEST POP DUP6 DUP3 LT ISZERO PUSH2 0x61F JUMPI DUP8 DUP6 ADD MLOAD PUSH0 NOT PUSH1 0x3 DUP9 SWAP1 SHL PUSH1 0xF8 AND SHR NOT AND DUP2 SSTORE JUMPDEST POP POP PUSH1 0x1 DUP5 PUSH1 0x1 SHL ADD DUP6 SSTORE JUMPDEST POP POP POP POP POP POP JUMP JUMPDEST PUSH0 PUSH1 0x20 DUP3 DUP5 SUB SLT ISZERO PUSH2 0x643 JUMPI PUSH0 DUP1 REVERT JUMPDEST DUP2 MLOAD PUSH1 0x1 PUSH1 0x1 PUSH1 0xA0 SHL SUB DUP2 AND DUP2 EQ PUSH2 0x659 JUMPI PUSH0 DUP1 REVERT JUMPDEST SWAP4 SWAP3 POP POP POP JUMP JUMPDEST DUP1 DUP3 ADD DUP1 DUP3 GT ISZERO PUSH2 0x4D6 JUMPI PUSH2 0x4D6 PUSH2 0x4AF JUMP JUMPDEST PUSH1 0x80 MLOAD PUSH1 0xA0 MLOAD PUSH1 0xC0 MLOAD PUSH2 0x35A6 PUSH2 0x6C7 PUSH0 CODECOPY PUSH0 DUP2 DUP2 PUSH2 0x4FD ADD MSTORE PUSH2 0x2215 ADD MSTORE PUSH0 DUP2 DUP2 PUSH2 0x358 ADD MSTORE DUP2 DUP2 PUSH2 0x2A89 ADD MSTORE DUP2 DUP2 PUSH2 0x2B40 ADD MSTORE DUP2 DUP2 PUSH2 0x2B7C ADD MSTORE DUP2 DUP2 PUSH2 0x2CBC ADD MSTORE PUSH2 0x2CE3 ADD MSTORE PUSH0 PUSH2 0x3F5 ADD MSTORE PUSH2 0x35A6 PUSH0 RETURN INVALID PUSH1 0x80 PUSH1 0x40 MSTORE PUSH1 0x4 CALLDATASIZE LT PUSH2 0x2C2 JUMPI PUSH0 CALLDATALOAD PUSH1 0xE0 SHR DUP1 PUSH4 0x79CC6790 GT PUSH2 0x16F JUMPI DUP1 PUSH4 0xC49B9A80 GT PUSH2 0xD8 JUMPI DUP1 PUSH4 0xE547BE69 GT PUSH2 0x92 JUMPI DUP1 PUSH4 0xEC28438A GT PUSH2 0x6D JUMPI DUP1 PUSH4 0xEC28438A EQ PUSH2 0x8B5 JUMPI DUP1 PUSH4 0xEDC2FCFB EQ PUSH2 0x8D4 JUMPI DUP1 PUSH4 0xF2FDE38B EQ PUSH2 0x8F3 JUMPI DUP1 PUSH4 0xFDEB889F EQ PUSH2 0x912 JUMPI PUSH0 DUP1 REVERT JUMPDEST DUP1 PUSH4 0xE547BE69 EQ PUSH2 0x858 JUMPI DUP1 PUSH4 0xE6BE4A72 EQ PUSH2 0x877 JUMPI DUP1 PUSH4 0xEA2F0B37 EQ PUSH2 0x896 JUMPI PUSH0 DUP1 REVERT JUMPDEST DUP1 PUSH4 0xC49B9A80 EQ PUSH2 0x76C JUMPI DUP1 PUSH4 0xCACCD7F7 EQ PUSH2 0x78B JUMPI DUP1 PUSH4 0xCBA0E996 EQ PUSH2 0x7AA JUMPI DUP1 PUSH4 0xCE831ED5 EQ PUSH2 0x7E1 JUMPI DUP1 PUSH4 0xDCC345F2 EQ PUSH2 0x7F5 JUMPI DUP1 PUSH4 0xDD62ED3E EQ PUSH2 0x814 JUMPI PUSH0 DUP1 REVERT JUMPDEST DUP1 PUSH4 0x95D89B41 GT PUSH2 0x129 JUMPI DUP1 PUSH4 0x95D89B41 EQ PUSH2 0x6C7 JUMPI DUP1 PUSH4 0xA457C2D7 EQ PUSH2 0x6DB JUMPI DUP1 PUSH4 0xA5ECE941 EQ PUSH2 0x6FA JUMPI DUP1 PUSH4 0xA9059CBB EQ PUSH2 0x719 JUMPI DUP1 PUSH4 0xA94C8DD2 EQ PUSH2 0x738 JUMPI DUP1 PUSH4 0xC0B0FDA2 EQ PUSH2 0x757 JUMPI PUSH0 DUP1 REVERT JUMPDEST DUP1 PUSH4 0x79CC6790 EQ PUSH2 0x623 JUMPI DUP1 PUSH4 0x7D1DB4A5 EQ PUSH2 0x642 JUMPI DUP1 PUSH4 0x8A0623B4 EQ PUSH2 0x657 JUMPI DUP1 PUSH4 0x8DA5CB5B EQ PUSH2 0x66C JUMPI DUP1 PUSH4 0x906E9DD0 EQ PUSH2 0x689 JUMPI DUP1 PUSH4 0x95364A84 EQ PUSH2 0x6A8 JUMPI PUSH0 DUP1 REVERT JUMPDEST DUP1 PUSH4 0x42966C68 GT PUSH2 0x22B JUMPI DUP1 PUSH4 0x4BF2C7C9 GT PUSH2 0x1E5 JUMPI DUP1 PUSH4 0x625E764C GT PUSH2 0x1C0 JUMPI DUP1 PUSH4 0x625E764C EQ PUSH2 0x5B2 JUMPI DUP1 PUSH4 0x6C317232 EQ PUSH2 0x5D1 JUMPI DUP1 PUSH4 0x70A08231 EQ PUSH2 0x5F0 JUMPI DUP1 PUSH4 0x715018A6 EQ PUSH2 0x60F JUMPI PUSH0 DUP1 REVERT JUMPDEST DUP1 PUSH4 0x4BF2C7C9 EQ PUSH2 0x53D JUMPI DUP1 PUSH4 0x5342ACB4 EQ PUSH2 0x55C JUMPI DUP1 PUSH4 0x6049876E EQ PUSH2 0x593 JUMPI PUSH0 DUP1 REVERT JUMPDEST DUP1 PUSH4 0x42966C68 EQ PUSH2 0x47A JUMPI DUP1 PUSH4 0x437823EC EQ PUSH2 0x499 JUMPI DUP1 PUSH4 0x4549B039 EQ PUSH2 0x4B8 JUMPI DUP1 PUSH4 0x48DE478E EQ PUSH2 0x4D7 JUMPI DUP1 PUSH4 0x49BD5A5E EQ PUSH2 0x4EC JUMPI DUP1 PUSH4 0x4A74BB02 EQ PUSH2 0x51F JUMPI PUSH0 DUP1 REVERT JUMPDEST DUP1 PUSH4 0x23B872DD GT PUSH2 0x27C JUMPI DUP1 PUSH4 0x23B872DD EQ PUSH2 0x3C5 JUMPI DUP1 PUSH4 0x27C8F835 EQ PUSH2 0x3E4 JUMPI DUP1 PUSH4 0x313CE567 EQ PUSH2 0x417 JUMPI DUP1 PUSH4 0x32035504 EQ PUSH2 0x432 JUMPI DUP1 PUSH4 0x3206B4AA EQ PUSH2 0x446 JUMPI DUP1 PUSH4 0x39509351 EQ PUSH2 0x45B JUMPI PUSH0 DUP1 REVERT JUMPDEST DUP1 PUSH4 0x53AB182 EQ PUSH2 0x2CD JUMPI DUP1 PUSH4 0x6FDDE03 EQ PUSH2 0x2EE JUMPI DUP1 PUSH4 0x95EA7B3 EQ PUSH2 0x318 JUMPI DUP1 PUSH4 0x1694505E EQ PUSH2 0x347 JUMPI DUP1 PUSH4 0x18160DDD EQ PUSH2 0x392 JUMPI DUP1 PUSH4 0x22976E0D EQ PUSH2 0x3B0 JUMPI PUSH0 DUP1 REVERT JUMPDEST CALLDATASIZE PUSH2 0x2C9 JUMPI STOP JUMPDEST PUSH0 DUP1 REVERT JUMPDEST CALLVALUE DUP1 ISZERO PUSH2 0x2D8 JUMPI PUSH0 DUP1 REVERT JUMPDEST POP PUSH2 0x2EC PUSH2 0x2E7 CALLDATASIZE PUSH1 0x4 PUSH2 0x31B8 JUMP JUMPDEST PUSH2 0x931 JUMP JUMPDEST STOP JUMPDEST CALLVALUE DUP1 ISZERO PUSH2 0x2F9 JUMPI PUSH0 DUP1 REVERT JUMPDEST POP PUSH2 0x302 PUSH2 0xA1C JUMP JUMPDEST PUSH1 0x40 MLOAD PUSH2 0x30F SWAP2 SWAP1 PUSH2 0x31CF JUMP JUMPDEST PUSH1 0x40 MLOAD DUP1 SWAP2 SUB SWAP1 RETURN JUMPDEST CALLVALUE DUP1 ISZERO PUSH2 0x323 JUMPI PUSH0 DUP1 REVERT JUMPDEST POP PUSH2 0x337 PUSH2 0x332 CALLDATASIZE PUSH1 0x4 PUSH2 0x3218 JUMP JUMPDEST PUSH2 0xAAC JUMP JUMPDEST PUSH1 0x40 MLOAD SWAP1 ISZERO ISZERO DUP2 MSTORE PUSH1 0x20 ADD PUSH2 0x30F JUMP JUMPDEST CALLVALUE DUP1 ISZERO PUSH2 0x352 JUMPI PUSH0 DUP1 REVERT JUMPDEST POP PUSH2 0x37A PUSH32 0x0 DUP2 JUMP JUMPDEST PUSH1 0x40 MLOAD PUSH1 0x1 PUSH1 0x1 PUSH1 0xA0 SHL SUB SWAP1 SWAP2 AND DUP2 MSTORE PUSH1 0x20 ADD PUSH2 0x30F JUMP JUMPDEST CALLVALUE DUP1 ISZERO PUSH2 0x39D JUMPI PUSH0 DUP1 REVERT JUMPDEST POP PUSH1 0xD SLOAD JUMPDEST PUSH1 0x40 MLOAD SWAP1 DUP2 MSTORE PUSH1 0x20 ADD PUSH2 0x30F JUMP JUMPDEST CALLVALUE DUP1 ISZERO PUSH2 0x3BB JUMPI PUSH0 DUP1 REVERT JUMPDEST POP PUSH2 0x3A2 PUSH1 0x16 SLOAD DUP2 JUMP JUMPDEST CALLVALUE DUP1 ISZERO PUSH2 0x3D0 JUMPI PUSH0 DUP1 REVERT JUMPDEST POP PUSH2 0x337 PUSH2 0x3DF CALLDATASIZE PUSH1 0x4 PUSH2 0x3242 JUMP JUMPDEST PUSH2 0xAC2 JUMP JUMPDEST CALLVALUE DUP1 ISZERO PUSH2 0x3EF JUMPI PUSH0 DUP1 REVERT JUMPDEST POP PUSH2 0x37A PUSH32 0x0 DUP2 JUMP JUMPDEST CALLVALUE DUP1 ISZERO PUSH2 0x422 JUMPI PUSH0 DUP1 REVERT JUMPDEST POP PUSH1 0x40 MLOAD PUSH1 0x12 DUP2 MSTORE PUSH1 0x20 ADD PUSH2 0x30F JUMP JUMPDEST CALLVALUE DUP1 ISZERO PUSH2 0x43D JUMPI PUSH0 DUP1 REVERT JUMPDEST POP PUSH1 0xF SLOAD PUSH2 0x3A2 JUMP JUMPDEST CALLVALUE DUP1 ISZERO PUSH2 0x451 JUMPI PUSH0 DUP1 REVERT JUMPDEST POP PUSH2 0x3A2 PUSH1 0x12 SLOAD DUP2 JUMP JUMPDEST CALLVALUE DUP1 ISZERO PUSH2 0x466 JUMPI PUSH0 DUP1 REVERT JUMPDEST POP PUSH2 0x337 PUSH2 0x475 CALLDATASIZE PUSH1 0x4 PUSH2 0x3218 JUMP JUMPDEST PUSH2 0xB6A JUMP JUMPDEST CALLVALUE DUP1 ISZERO PUSH2 0x485 JUMPI PUSH0 DUP1 REVERT JUMPDEST POP PUSH2 0x2EC PUSH2 0x494 CALLDATASIZE PUSH1 0x4 PUSH2 0x31B8 JUMP JUMPDEST PUSH2 0xBA5 JUMP JUMPDEST CALLVALUE DUP1 ISZERO PUSH2 0x4A4 JUMPI PUSH0 DUP1 REVERT JUMPDEST POP PUSH2 0x2EC PUSH2 0x4B3 CALLDATASIZE PUSH1 0x4 PUSH2 0x3280 JUMP JUMPDEST PUSH2 0xBB2 JUMP JUMPDEST CALLVALUE DUP1 ISZERO PUSH2 0x4C3 JUMPI PUSH0 DUP1 REVERT JUMPDEST POP PUSH2 0x3A2 PUSH2 0x4D2 CALLDATASIZE PUSH1 0x4 PUSH2 0x32A8 JUMP JUMPDEST PUSH2 0xBFF JUMP JUMPDEST CALLVALUE DUP1 ISZERO PUSH2 0x4E2 JUMPI PUSH0 DUP1 REVERT JUMPDEST POP PUSH2 0x3A2 PUSH1 0x18 SLOAD DUP2 JUMP JUMPDEST CALLVALUE DUP1 ISZERO PUSH2 0x4F7 JUMPI PUSH0 DUP1 REVERT JUMPDEST POP PUSH2 0x37A PUSH32 0x0 DUP2 JUMP JUMPDEST CALLVALUE DUP1 ISZERO PUSH2 0x52A JUMPI PUSH0 DUP1 REVERT JUMPDEST POP PUSH1 0x1F SLOAD PUSH2 0x337 SWAP1 PUSH2 0x100 SWAP1 DIV PUSH1 0xFF AND DUP2 JUMP JUMPDEST CALLVALUE DUP1 ISZERO PUSH2 0x548 JUMPI PUSH0 DUP1 REVERT JUMPDEST POP PUSH2 0x2EC PUSH2 0x557 CALLDATASIZE PUSH1 0x4 PUSH2 0x31B8 JUMP JUMPDEST PUSH2 0xC85 JUMP JUMPDEST CALLVALUE DUP1 ISZERO PUSH2 0x567 JUMPI PUSH0 DUP1 REVERT JUMPDEST POP PUSH2 0x337 PUSH2 0x576 CALLDATASIZE PUSH1 0x4 PUSH2 0x3280 JUMP JUMPDEST PUSH1 0x1 PUSH1 0x1 PUSH1 0xA0 SHL SUB AND PUSH0 SWAP1 DUP2 MSTORE PUSH1 0x8 PUSH1 0x20 MSTORE PUSH1 0x40 SWAP1 KECCAK256 SLOAD PUSH1 0xFF AND SWAP1 JUMP JUMPDEST CALLVALUE DUP1 ISZERO PUSH2 0x59E JUMPI PUSH0 DUP1 REVERT JUMPDEST POP PUSH2 0x2EC PUSH2 0x5AD CALLDATASIZE PUSH1 0x4 PUSH2 0x3280 JUMP JUMPDEST PUSH2 0xD4A JUMP JUMPDEST CALLVALUE DUP1 ISZERO PUSH2 0x5BD JUMPI PUSH0 DUP1 REVERT JUMPDEST POP PUSH2 0x2EC PUSH2 0x5CC CALLDATASIZE PUSH1 0x4 PUSH2 0x31B8 JUMP JUMPDEST PUSH2 0xF0C JUMP JUMPDEST CALLVALUE DUP1 ISZERO PUSH2 0x5DC JUMPI PUSH0 DUP1 REVERT JUMPDEST POP PUSH2 0x2EC PUSH2 0x5EB CALLDATASIZE PUSH1 0x4 PUSH2 0x31B8 JUMP JUMPDEST PUSH2 0xFE7 JUMP JUMPDEST CALLVALUE DUP1 ISZERO PUSH2 0x5FB JUMPI PUSH0 DUP1 REVERT JUMPDEST POP PUSH2 0x3A2 PUSH2 0x60A CALLDATASIZE PUSH1 0x4 PUSH2 0x3280 JUMP JUMPDEST PUSH2 0x10F2 JUMP JUMPDEST CALLVALUE DUP1 ISZERO PUSH2 0x61A JUMPI PUSH0 DUP1 REVERT JUMPDEST POP PUSH2 0x2EC PUSH2 0x114E JUMP JUMPDEST CALLVALUE DUP1 ISZERO PUSH2 0x62E JUMPI PUSH0 DUP1 REVERT JUMPDEST POP PUSH2 0x2EC PUSH2 0x63D CALLDATASIZE PUSH1 0x4 PUSH2 0x3218 JUMP JUMPDEST PUSH2 0x1183 JUMP JUMPDEST CALLVALUE DUP1 ISZERO PUSH2 0x64D JUMPI PUSH0 DUP1 REVERT JUMPDEST POP PUSH2 0x3A2 PUSH1 0x1C SLOAD DUP2 JUMP JUMPDEST CALLVALUE DUP1 ISZERO PUSH2 0x662 JUMPI PUSH0 DUP1 REVERT JUMPDEST POP PUSH2 0x3A2 PUSH1 0x14 SLOAD DUP2 JUMP JUMPDEST CALLVALUE DUP1 ISZERO PUSH2 0x677 JUMPI PUSH0 DUP1 REVERT JUMPDEST POP PUSH1 0x5 SLOAD PUSH1 0x1 PUSH1 0x1 PUSH1 0xA0 SHL SUB AND PUSH2 0x37A JUMP JUMPDEST CALLVALUE DUP1 ISZERO PUSH2 0x694 JUMPI PUSH0 DUP1 REVERT JUMPDEST POP PUSH2 0x2EC PUSH2 0x6A3 CALLDATASIZE PUSH1 0x4 PUSH2 0x3280 JUMP JUMPDEST PUSH2 0x1208 JUMP JUMPDEST CALLVALUE DUP1 ISZERO PUSH2 0x6B3 JUMPI PUSH0 DUP1 REVERT JUMPDEST POP PUSH1 0x1F SLOAD PUSH2 0x337 SWAP1 PUSH3 0x10000 SWAP1 DIV PUSH1 0xFF AND DUP2 JUMP JUMPDEST CALLVALUE DUP1 ISZERO PUSH2 0x6D2 JUMPI PUSH0 DUP1 REVERT JUMPDEST POP PUSH2 0x302 PUSH2 0x12F7 JUMP JUMPDEST CALLVALUE DUP1 ISZERO PUSH2 0x6E6 JUMPI PUSH0 DUP1 REVERT JUMPDEST POP PUSH2 0x337 PUSH2 0x6F5 CALLDATASIZE PUSH1 0x4 PUSH2 0x3218 JUMP JUMPDEST PUSH2 0x1306 JUMP JUMPDEST CALLVALUE DUP1 ISZERO PUSH2 0x705 JUMPI PUSH0 DUP1 REVERT JUMPDEST POP PUSH1 0xB SLOAD PUSH2 0x37A SWAP1 PUSH1 0x1 PUSH1 0x1 PUSH1 0xA0 SHL SUB AND DUP2 JUMP JUMPDEST CALLVALUE DUP1 ISZERO PUSH2 0x724 JUMPI PUSH0 DUP1 REVERT JUMPDEST POP PUSH2 0x337 PUSH2 0x733 CALLDATASIZE PUSH1 0x4 PUSH2 0x3218 JUMP JUMPDEST PUSH2 0x139E JUMP JUMPDEST CALLVALUE DUP1 ISZERO PUSH2 0x743 JUMPI PUSH0 DUP1 REVERT JUMPDEST POP PUSH2 0x2EC PUSH2 0x752 CALLDATASIZE PUSH1 0x4 PUSH2 0x31B8 JUMP JUMPDEST PUSH2 0x13AA JUMP JUMPDEST CALLVALUE DUP1 ISZERO PUSH2 0x762 JUMPI PUSH0 DUP1 REVERT JUMPDEST POP PUSH2 0x3A2 PUSH1 0x10 SLOAD DUP2 JUMP JUMPDEST CALLVALUE DUP1 ISZERO PUSH2 0x777 JUMPI PUSH0 DUP1 REVERT JUMPDEST POP PUSH2 0x2EC PUSH2 0x786 CALLDATASIZE PUSH1 0x4 PUSH2 0x32D6 JUMP JUMPDEST PUSH2 0x1484 JUMP JUMPDEST CALLVALUE DUP1 ISZERO PUSH2 0x796 JUMPI PUSH0 DUP1 REVERT JUMPDEST POP PUSH1 0xC SLOAD PUSH2 0x37A SWAP1 PUSH1 0x1 PUSH1 0x1 PUSH1 0xA0 SHL SUB AND DUP2 JUMP JUMPDEST CALLVALUE DUP1 ISZERO PUSH2 0x7B5 JUMPI PUSH0 DUP1 REVERT JUMPDEST POP PUSH2 0x337 PUSH2 0x7C4 CALLDATASIZE PUSH1 0x4 PUSH2 0x3280 JUMP JUMPDEST PUSH1 0x1 PUSH1 0x1 PUSH1 0xA0 SHL SUB AND PUSH0 SWAP1 DUP2 MSTORE PUSH1 0x9 PUSH1 0x20 MSTORE PUSH1 0x40 SWAP1 KECCAK256 SLOAD PUSH1 0xFF AND SWAP1 JUMP JUMPDEST CALLVALUE DUP1 ISZERO PUSH2 0x7EC JUMPI PUSH0 DUP1 REVERT JUMPDEST POP PUSH2 0x2EC PUSH2 0x1502 JUMP JUMPDEST CALLVALUE DUP1 ISZERO PUSH2 0x800 JUMPI PUSH0 DUP1 REVERT JUMPDEST POP PUSH2 0x2EC PUSH2 0x80F CALLDATASIZE PUSH1 0x4 PUSH2 0x3280 JUMP JUMPDEST PUSH2 0x1605 JUMP JUMPDEST CALLVALUE DUP1 ISZERO PUSH2 0x81F JUMPI PUSH0 DUP1 REVERT JUMPDEST POP PUSH2 0x3A2 PUSH2 0x82E CALLDATASIZE PUSH1 0x4 PUSH2 0x32F1 JUMP JUMPDEST PUSH1 0x1 PUSH1 0x1 PUSH1 0xA0 SHL SUB SWAP2 DUP3 AND PUSH0 SWAP1 DUP2 MSTORE PUSH1 0x1 PUSH1 0x20 SWAP1 DUP2 MSTORE PUSH1 0x40 DUP1 DUP4 KECCAK256 SWAP4 SWAP1 SWAP5 AND DUP3 MSTORE SWAP2 SWAP1 SWAP2 MSTORE KECCAK256 SLOAD SWAP1 JUMP JUMPDEST CALLVALUE DUP1 ISZERO PUSH2 0x863 JUMPI PUSH0 DUP1 REVERT JUMPDEST POP PUSH2 0x2EC PUSH2 0x872 CALLDATASIZE PUSH1 0x4 PUSH2 0x31B8 JUMP JUMPDEST PUSH2 0x16F4 JUMP JUMPDEST CALLVALUE DUP1 ISZERO PUSH2 0x882 JUMPI PUSH0 DUP1 REVERT JUMPDEST POP PUSH2 0x2EC PUSH2 0x891 CALLDATASIZE PUSH1 0x4 PUSH2 0x3218 JUMP JUMPDEST PUSH2 0x17B1 JUMP JUMPDEST CALLVALUE DUP1 ISZERO PUSH2 0x8A1 JUMPI PUSH0 DUP1 REVERT JUMPDEST POP PUSH2 0x2EC PUSH2 0x8B0 CALLDATASIZE PUSH1 0x4 PUSH2 0x3280 JUMP JUMPDEST PUSH2 0x195B JUMP JUMPDEST CALLVALUE DUP1 ISZERO PUSH2 0x8C0 JUMPI PUSH0 DUP1 REVERT JUMPDEST POP PUSH2 0x2EC PUSH2 0x8CF CALLDATASIZE PUSH1 0x4 PUSH2 0x31B8 JUMP JUMPDEST PUSH2 0x19A5 JUMP JUMPDEST CALLVALUE DUP1 ISZERO PUSH2 0x8DF JUMPI PUSH0 DUP1 REVERT JUMPDEST POP PUSH2 0x2EC PUSH2 0x8EE CALLDATASIZE PUSH1 0x4 PUSH2 0x32D6 JUMP JUMPDEST PUSH2 0x1A9E JUMP JUMPDEST CALLVALUE DUP1 ISZERO PUSH2 0x8FE JUMPI PUSH0 DUP1 REVERT JUMPDEST POP PUSH2 0x2EC PUSH2 0x90D CALLDATASIZE PUSH1 0x4 PUSH2 0x3280 JUMP JUMPDEST PUSH2 0x1C07 JUMP JUMPDEST CALLVALUE DUP1 ISZERO PUSH2 0x91D JUMPI PUSH0 DUP1 REVERT JUMPDEST POP PUSH2 0x2EC PUSH2 0x92C CALLDATASIZE PUSH1 0x4 PUSH2 0x3280 JUMP JUMPDEST PUSH2 0x1C9F JUMP JUMPDEST CALLER PUSH0 DUP2 DUP2 MSTORE PUSH1 0x9 PUSH1 0x20 MSTORE PUSH1 0x40 SWAP1 KECCAK256 SLOAD PUSH1 0xFF AND ISZERO PUSH2 0x9AA JUMPI PUSH1 0x40 MLOAD PUSH3 0x461BCD PUSH1 0xE5 SHL DUP2 MSTORE PUSH1 0x20 PUSH1 0x4 DUP3 ADD MSTORE PUSH1 0x2C PUSH1 0x24 DUP3 ADD MSTORE PUSH32 0x4578636C75646564206164647265737365732063616E6E6F742063616C6C2074 PUSH1 0x44 DUP3 ADD MSTORE PUSH12 0x3434B990333AB731BA34B7B7 PUSH1 0xA1 SHL PUSH1 0x64 DUP3 ADD MSTORE PUSH1 0x84 ADD JUMPDEST PUSH1 0x40 MLOAD DUP1 SWAP2 SUB SWAP1 REVERT JUMPDEST PUSH0 PUSH2 0x9B4 DUP4 PUSH2 0x1E44 JUMP JUMPDEST POP POP POP PUSH1 0x1 PUSH1 0x1 PUSH1 0xA0 SHL SUB DUP4 AND PUSH0 SWAP1 DUP2 MSTORE PUSH1 0x6 PUSH1 0x20 MSTORE PUSH1 0x40 SWAP1 KECCAK256 SLOAD SWAP1 SWAP2 POP PUSH2 0x9DD SWAP1 DUP3 SWAP1 PUSH2 0x3331 JUMP JUMPDEST PUSH1 0x1 PUSH1 0x1 PUSH1 0xA0 SHL SUB DUP4 AND PUSH0 SWAP1 DUP2 MSTORE PUSH1 0x6 PUSH1 0x20 MSTORE PUSH1 0x40 SWAP1 KECCAK256 SSTORE PUSH1 0xE SLOAD PUSH2 0xA03 SWAP1 DUP3 SWAP1 PUSH2 0x3331 JUMP JUMPDEST PUSH1 0xE SSTORE PUSH1 0xF SLOAD PUSH2 0xA14 SWAP1 DUP5 SWAP1 PUSH2 0x3344 JUMP JUMPDEST PUSH1 0xF SSTORE POP POP POP JUMP JUMPDEST PUSH1 0x60 PUSH1 0x3 DUP1 SLOAD PUSH2 0xA2B SWAP1 PUSH2 0x3357 JUMP JUMPDEST DUP1 PUSH1 0x1F ADD PUSH1 0x20 DUP1 SWAP2 DIV MUL PUSH1 0x20 ADD PUSH1 0x40 MLOAD SWAP1 DUP2 ADD PUSH1 0x40 MSTORE DUP1 SWAP3 SWAP2 SWAP1 DUP2 DUP2 MSTORE PUSH1 0x20 ADD DUP3 DUP1 SLOAD PUSH2 0xA57 SWAP1 PUSH2 0x3357 JUMP JUMPDEST DUP1 ISZERO PUSH2 0xAA2 JUMPI DUP1 PUSH1 0x1F LT PUSH2 0xA79 JUMPI PUSH2 0x100 DUP1 DUP4 SLOAD DIV MUL DUP4 MSTORE SWAP2 PUSH1 0x20 ADD SWAP2 PUSH2 0xAA2 JUMP JUMPDEST DUP3 ADD SWAP2 SWAP1 PUSH0 MSTORE PUSH1 0x20 PUSH0 KECCAK256 SWAP1 JUMPDEST DUP2 SLOAD DUP2 MSTORE SWAP1 PUSH1 0x1 ADD SWAP1 PUSH1 0x20 ADD DUP1 DUP4 GT PUSH2 0xA85 JUMPI DUP3 SWAP1 SUB PUSH1 0x1F AND DUP3 ADD SWAP2 JUMPDEST POP POP POP POP POP SWAP1 POP SWAP1 JUMP JUMPDEST PUSH0 PUSH2 0xAB8 CALLER DUP5 DUP5 PUSH2 0x1E95 JUMP JUMPDEST POP PUSH1 0x1 JUMPDEST SWAP3 SWAP2 POP POP JUMP JUMPDEST PUSH0 PUSH2 0xACE DUP5 DUP5 DUP5 PUSH2 0x1FB8 JUMP JUMPDEST PUSH1 0x1 PUSH1 0x1 PUSH1 0xA0 SHL SUB DUP5 AND PUSH0 SWAP1 DUP2 MSTORE PUSH1 0x1 PUSH1 0x20 SWAP1 DUP2 MSTORE PUSH1 0x40 DUP1 DUP4 KECCAK256 CALLER DUP5 MSTORE SWAP1 SWAP2 MSTORE SWAP1 KECCAK256 SLOAD DUP3 DUP2 LT ISZERO PUSH2 0xB52 JUMPI PUSH1 0x40 MLOAD PUSH3 0x461BCD PUSH1 0xE5 SHL DUP2 MSTORE PUSH1 0x20 PUSH1 0x4 DUP3 ADD MSTORE PUSH1 0x28 PUSH1 0x24 DUP3 ADD MSTORE PUSH32 0x45524332303A207472616E7366657220616D6F756E7420657863656564732061 PUSH1 0x44 DUP3 ADD MSTORE PUSH8 0x6C6C6F77616E6365 PUSH1 0xC0 SHL PUSH1 0x64 DUP3 ADD MSTORE PUSH1 0x84 ADD PUSH2 0x9A1 JUMP JUMPDEST PUSH2 0xB5F DUP6 CALLER DUP6 DUP5 SUB PUSH2 0x1E95 JUMP JUMPDEST POP PUSH1 0x1 SWAP5 SWAP4 POP POP POP POP JUMP JUMPDEST CALLER PUSH0 DUP2 DUP2 MSTORE PUSH1 0x1 PUSH1 0x20 SWAP1 DUP2 MSTORE PUSH1 0x40 DUP1 DUP4 KECCAK256 PUSH1 0x1 PUSH1 0x1 PUSH1 0xA0 SHL SUB DUP8 AND DUP5 MSTORE SWAP1 SWAP2 MSTORE DUP2 KECCAK256 SLOAD SWAP1 SWAP2 PUSH2 0xAB8 SWAP2 DUP6 SWAP1 PUSH2 0xBA0 SWAP1 DUP7 SWAP1 PUSH2 0x3344 JUMP JUMPDEST PUSH2 0x1E95 JUMP JUMPDEST PUSH2 0xBAF CALLER DUP3 PUSH2 0x22BF JUMP JUMPDEST POP JUMP JUMPDEST PUSH1 0x5 SLOAD PUSH1 0x1 PUSH1 0x1 PUSH1 0xA0 SHL SUB AND CALLER EQ PUSH2 0xBDC JUMPI PUSH1 0x40 MLOAD PUSH3 0x461BCD PUSH1 0xE5 SHL DUP2 MSTORE PUSH1 0x4 ADD PUSH2 0x9A1 SWAP1 PUSH2 0x338F JUMP JUMPDEST PUSH1 0x1 PUSH1 0x1 PUSH1 0xA0 SHL SUB AND PUSH0 SWAP1 DUP2 MSTORE PUSH1 0x8 PUSH1 0x20 MSTORE PUSH1 0x40 SWAP1 KECCAK256 DUP1 SLOAD PUSH1 0xFF NOT AND PUSH1 0x1 OR SWAP1 SSTORE JUMP JUMPDEST PUSH0 PUSH1 0xD SLOAD DUP4 GT ISZERO PUSH2 0xC52 JUMPI PUSH1 0x40 MLOAD PUSH3 0x461BCD PUSH1 0xE5 SHL DUP2 MSTORE PUSH1 0x20 PUSH1 0x4 DUP3 ADD MSTORE PUSH1 0x1F PUSH1 0x24 DUP3 ADD MSTORE PUSH32 0x416D6F756E74206D757374206265206C657373207468616E20737570706C7900 PUSH1 0x44 DUP3 ADD MSTORE PUSH1 0x64 ADD PUSH2 0x9A1 JUMP JUMPDEST DUP2 PUSH2 0xC6E JUMPI PUSH0 PUSH2 0xC61 DUP5 PUSH2 0x1E44 JUMP JUMPDEST POP SWAP2 SWAP4 POP PUSH2 0xABC SWAP3 POP POP POP JUMP JUMPDEST PUSH0 PUSH2 0xC78 DUP5 PUSH2 0x1E44 JUMP JUMPDEST POP SWAP1 SWAP4 POP PUSH2 0xABC SWAP3 POP POP POP JUMP JUMPDEST PUSH1 0x5 SLOAD PUSH1 0x1 PUSH1 0x1 PUSH1 0xA0 SHL SUB AND CALLER EQ PUSH2 0xCAF JUMPI PUSH1 0x40 MLOAD PUSH3 0x461BCD PUSH1 0xE5 SHL DUP2 MSTORE PUSH1 0x4 ADD PUSH2 0x9A1 SWAP1 PUSH2 0x338F JUMP JUMPDEST PUSH1 0x5 PUSH1 0x18 SLOAD PUSH1 0x16 SLOAD PUSH1 0x14 SLOAD PUSH1 0x12 SLOAD DUP6 PUSH2 0xCC8 SWAP2 SWAP1 PUSH2 0x3344 JUMP JUMPDEST PUSH2 0xCD2 SWAP2 SWAP1 PUSH2 0x3344 JUMP JUMPDEST PUSH2 0xCDC SWAP2 SWAP1 PUSH2 0x3344 JUMP JUMPDEST PUSH2 0xCE6 SWAP2 SWAP1 PUSH2 0x3344 JUMP JUMPDEST GT ISZERO PUSH2 0xD04 JUMPI PUSH1 0x40 MLOAD PUSH3 0x461BCD PUSH1 0xE5 SHL DUP2 MSTORE PUSH1 0x4 ADD PUSH2 0x9A1 SWAP1 PUSH2 0x33C4 JUMP JUMPDEST PUSH1 0x10 DUP1 SLOAD SWAP1 DUP3 SWAP1 SSTORE PUSH1 0x40 DUP1 MLOAD DUP3 DUP2 MSTORE PUSH1 0x20 DUP2 ADD DUP5 SWAP1 MSTORE PUSH32 0x78F1461296BAD7BD716A7673AA3E659CC091C348A7ED4CFEF7CE452C3052F2FB SWAP2 ADD JUMPDEST PUSH1 0x40 MLOAD DUP1 SWAP2 SUB SWAP1 LOG1 POP POP JUMP JUMPDEST PUSH1 0x5 SLOAD PUSH1 0x1 PUSH1 0x1 PUSH1 0xA0 SHL SUB AND CALLER EQ PUSH2 0xD74 JUMPI PUSH1 0x40 MLOAD PUSH3 0x461BCD PUSH1 0xE5 SHL DUP2 MSTORE PUSH1 0x4 ADD PUSH2 0x9A1 SWAP1 PUSH2 0x338F JUMP JUMPDEST PUSH1 0x1 PUSH1 0x1 PUSH1 0xA0 SHL SUB DUP2 AND PUSH0 SWAP1 DUP2 MSTORE PUSH1 0x9 PUSH1 0x20 MSTORE PUSH1 0x40 SWAP1 KECCAK256 SLOAD PUSH1 0xFF AND ISZERO PUSH2 0xDDC JUMPI PUSH1 0x40 MLOAD PUSH3 0x461BCD PUSH1 0xE5 SHL DUP2 MSTORE PUSH1 0x20 PUSH1 0x4 DUP3 ADD MSTORE PUSH1 0x1B PUSH1 0x24 DUP3 ADD MSTORE PUSH32 0x4163636F756E7420697320616C7265616479206578636C756465640000000000 PUSH1 0x44 DUP3 ADD MSTORE PUSH1 0x64 ADD PUSH2 0x9A1 JUMP JUMPDEST ADDRESS PUSH1 0x1 PUSH1 0x1 PUSH1 0xA0 SHL SUB DUP3 AND SUB PUSH2 0xE50 JUMPI PUSH1 0x40 MLOAD PUSH3 0x461BCD PUSH1 0xE5 SHL DUP2 MSTORE PUSH1 0x20 PUSH1 0x4 DUP3 ADD MSTORE PUSH1 0x33 PUSH1 0x24 DUP3 ADD MSTORE PUSH32 0x436F6E747261637420616464726573732063616E6E6F74206265206578636C75 PUSH1 0x44 DUP3 ADD MSTORE PUSH19 0x3232B210333937B6903932B33632B1BA34B7B7 PUSH1 0x69 SHL PUSH1 0x64 DUP3 ADD MSTORE PUSH1 0x84 ADD PUSH2 0x9A1 JUMP JUMPDEST PUSH1 0x1 PUSH1 0x1 PUSH1 0xA0 SHL SUB DUP2 AND PUSH0 SWAP1 DUP2 MSTORE PUSH1 0x6 PUSH1 0x20 MSTORE PUSH1 0x40 SWAP1 KECCAK256 SLOAD ISZERO PUSH2 0xEA7 JUMPI PUSH1 0x1 PUSH1 0x1 PUSH1 0xA0 SHL SUB DUP2 AND PUSH0 SWAP1 DUP2 MSTORE PUSH1 0x6 PUSH1 0x20 MSTORE PUSH1 0x40 SWAP1 KECCAK256 SLOAD PUSH2 0xE8E SWAP1 PUSH2 0x248D JUMP JUMPDEST PUSH1 0x1 PUSH1 0x1 PUSH1 0xA0 SHL SUB DUP3 AND PUSH0 SWAP1 DUP2 MSTORE PUSH1 0x7 PUSH1 0x20 MSTORE PUSH1 0x40 SWAP1 KECCAK256 SSTORE JUMPDEST PUSH1 0x1 PUSH1 0x1 PUSH1 0xA0 SHL SUB AND PUSH0 DUP2 DUP2 MSTORE PUSH1 0x9 PUSH1 0x20 MSTORE PUSH1 0x40 DUP2 KECCAK256 DUP1 SLOAD PUSH1 0xFF NOT AND PUSH1 0x1 SWAP1 DUP2 OR SWAP1 SWAP2 SSTORE PUSH1 0xA DUP1 SLOAD SWAP2 DUP3 ADD DUP2 SSTORE SWAP1 SWAP2 MSTORE PUSH32 0xC65A7BB8D6351C1CF70C95A316CC6A92839C986682D98BC35F958F4883F9D2A8 ADD DUP1 SLOAD PUSH1 0x1 PUSH1 0x1 PUSH1 0xA0 SHL SUB NOT AND SWAP1 SWAP2 OR SWAP1 SSTORE JUMP JUMPDEST PUSH1 0x5 SLOAD PUSH1 0x1 PUSH1 0x1 PUSH1 0xA0 SHL SUB AND CALLER EQ PUSH2 0xF36 JUMPI PUSH1 0x40 MLOAD PUSH3 0x461BCD PUSH1 0xE5 SHL DUP2 MSTORE PUSH1 0x4 ADD PUSH2 0x9A1 SWAP1 PUSH2 0x338F JUMP JUMPDEST PUSH1 0x5 PUSH1 0x18 SLOAD DUP3 PUSH1 0x14 SLOAD PUSH1 0x12 SLOAD PUSH1 0x10 SLOAD PUSH2 0xF4F SWAP2 SWAP1 PUSH2 0x3344 JUMP JUMPDEST PUSH2 0xF59 SWAP2 SWAP1 PUSH2 0x3344 JUMP JUMPDEST PUSH2 0xF63 SWAP2 SWAP1 PUSH2 0x3344 JUMP JUMPDEST PUSH2 0xF6D SWAP2 SWAP1 PUSH2 0x3344 JUMP JUMPDEST GT ISZERO PUSH2 0xF8B JUMPI PUSH1 0x40 MLOAD PUSH3 0x461BCD PUSH1 0xE5 SHL DUP2 MSTORE PUSH1 0x4 ADD PUSH2 0x9A1 SWAP1 PUSH2 0x33C4 JUMP JUMPDEST PUSH1 0x16 DUP1 SLOAD SWAP1 DUP3 SWAP1 SSTORE PUSH1 0x18 SLOAD PUSH1 0x14 SLOAD PUSH2 0xFA4 SWAP1 DUP5 SWAP1 PUSH2 0x3344 JUMP JUMPDEST PUSH2 0xFAE SWAP2 SWAP1 PUSH2 0x3344 JUMP JUMPDEST PUSH1 0x1A SSTORE PUSH1 0x40 DUP1 MLOAD DUP3 DUP2 MSTORE PUSH1 0x20 DUP2 ADD DUP5 SWAP1 MSTORE PUSH32 0x43102402B1EF1EA68F92A353DE80186B92415038542AF2E8D748F8D6C525032 SWAP2 ADD PUSH2 0xD3E JUMP JUMPDEST PUSH1 0x5 SLOAD PUSH1 0x1 PUSH1 0x1 PUSH1 0xA0 SHL SUB AND CALLER EQ PUSH2 0x1011 JUMPI PUSH1 0x40 MLOAD PUSH3 0x461BCD PUSH1 0xE5 SHL DUP2 MSTORE PUSH1 0x4 ADD PUSH2 0x9A1 SWAP1 PUSH2 0x338F JUMP JUMPDEST PUSH1 0x5 DUP2 PUSH1 0x16 SLOAD PUSH1 0x14 SLOAD PUSH1 0x12 SLOAD PUSH1 0x10 SLOAD PUSH2 0x102A SWAP2 SWAP1 PUSH2 0x3344 JUMP JUMPDEST PUSH2 0x1034 SWAP2 SWAP1 PUSH2 0x3344 JUMP JUMPDEST PUSH2 0x103E SWAP2 SWAP1 PUSH2 0x3344 JUMP JUMPDEST PUSH2 0x1048 SWAP2 SWAP1 PUSH2 0x3344 JUMP JUMPDEST GT ISZERO PUSH2 0x1096 JUMPI PUSH1 0x40 MLOAD PUSH3 0x461BCD PUSH1 0xE5 SHL DUP2 MSTORE PUSH1 0x20 PUSH1 0x4 DUP3 ADD MSTORE PUSH1 0x1F PUSH1 0x24 DUP3 ADD MSTORE PUSH32 0x546F74616C20666565732065786365656420746865203625206C696D69742E00 PUSH1 0x44 DUP3 ADD MSTORE PUSH1 0x64 ADD PUSH2 0x9A1 JUMP JUMPDEST PUSH1 0x18 DUP1 SLOAD SWAP1 DUP3 SWAP1 SSTORE PUSH1 0x16 SLOAD PUSH1 0x14 SLOAD DUP4 SWAP2 PUSH2 0x10AF SWAP2 PUSH2 0x3344 JUMP JUMPDEST PUSH2 0x10B9 SWAP2 SWAP1 PUSH2 0x3344 JUMP JUMPDEST PUSH1 0x1A SSTORE PUSH1 0x40 DUP1 MLOAD DUP3 DUP2 MSTORE PUSH1 0x20 DUP2 ADD DUP5 SWAP1 MSTORE PUSH32 0xC9D63693638BFC625DE9BE66171E4BF76AD4D474AC6BEF7CD4C766747CD0075F SWAP2 ADD PUSH2 0xD3E JUMP JUMPDEST PUSH1 0x1 PUSH1 0x1 PUSH1 0xA0 SHL SUB DUP2 AND PUSH0 SWAP1 DUP2 MSTORE PUSH1 0x9 PUSH1 0x20 MSTORE PUSH1 0x40 DUP2 KECCAK256 SLOAD PUSH1 0xFF AND ISZERO PUSH2 0x112D JUMPI POP PUSH1 0x1 PUSH1 0x1 PUSH1 0xA0 SHL SUB AND PUSH0 SWAP1 DUP2 MSTORE PUSH1 0x7 PUSH1 0x20 MSTORE PUSH1 0x40 SWAP1 KECCAK256 SLOAD SWAP1 JUMP JUMPDEST PUSH1 0x1 PUSH1 0x1 PUSH1 0xA0 SHL SUB DUP3 AND PUSH0 SWAP1 DUP2 MSTORE PUSH1 0x6 PUSH1 0x20 MSTORE PUSH1 0x40 SWAP1 KECCAK256 SLOAD PUSH2 0xABC SWAP1 PUSH2 0x248D JUMP JUMPDEST PUSH1 0x5 SLOAD PUSH1 0x1 PUSH1 0x1 PUSH1 0xA0 SHL SUB AND CALLER EQ PUSH2 0x1178 JUMPI PUSH1 0x40 MLOAD PUSH3 0x461BCD PUSH1 0xE5 SHL DUP2 MSTORE PUSH1 0x4 ADD PUSH2 0x9A1 SWAP1 PUSH2 0x338F JUMP JUMPDEST PUSH2 0x1181 PUSH0 PUSH2 0x250F JUMP JUMPDEST JUMP JUMPDEST PUSH0 PUSH2 0x118E DUP4 CALLER PUSH2 0x82E JUMP JUMPDEST SWAP1 POP DUP2 DUP2 LT ISZERO PUSH2 0x11EC JUMPI PUSH1 0x40 MLOAD PUSH3 0x461BCD PUSH1 0xE5 SHL DUP2 MSTORE PUSH1 0x20 PUSH1 0x4 DUP3 ADD MSTORE PUSH1 0x24 DUP1 DUP3 ADD MSTORE PUSH32 0x45524332303A206275726E20616D6F756E74206578636565647320616C6C6F77 PUSH1 0x44 DUP3 ADD MSTORE PUSH4 0x616E6365 PUSH1 0xE0 SHL PUSH1 0x64 DUP3 ADD MSTORE PUSH1 0x84 ADD PUSH2 0x9A1 JUMP JUMPDEST PUSH2 0x11F9 DUP4 CALLER DUP5 DUP5 SUB PUSH2 0x1E95 JUMP JUMPDEST PUSH2 0x1203 DUP4 DUP4 PUSH2 0x22BF JUMP JUMPDEST POP POP POP JUMP JUMPDEST PUSH1 0x5 SLOAD PUSH1 0x1 PUSH1 0x1 PUSH1 0xA0 SHL SUB AND CALLER EQ PUSH2 0x1232 JUMPI PUSH1 0x40 MLOAD PUSH3 0x461BCD PUSH1 0xE5 SHL DUP2 MSTORE PUSH1 0x4 ADD PUSH2 0x9A1 SWAP1 PUSH2 0x338F JUMP JUMPDEST PUSH1 0x1 PUSH1 0x1 PUSH1 0xA0 SHL SUB DUP2 AND PUSH2 0x129D JUMPI PUSH1 0x40 MLOAD PUSH3 0x461BCD PUSH1 0xE5 SHL DUP2 MSTORE PUSH1 0x20 PUSH1 0x4 DUP3 ADD MSTORE PUSH1 0x2C PUSH1 0x24 DUP3 ADD MSTORE PUSH32 0x4D61726B6574696E6720616464726573732063616E6E6F742062652074686520 PUSH1 0x44 DUP3 ADD MSTORE PUSH12 0x7A65726F2061646472657373 PUSH1 0xA0 SHL PUSH1 0x64 DUP3 ADD MSTORE PUSH1 0x84 ADD PUSH2 0x9A1 JUMP JUMPDEST PUSH1 0xB DUP1 SLOAD PUSH1 0x1 PUSH1 0x1 PUSH1 0xA0 SHL SUB DUP4 DUP2 AND PUSH1 0x1 PUSH1 0x1 PUSH1 0xA0 SHL SUB NOT DUP4 AND DUP2 OR SWAP1 SWAP4 SSTORE PUSH1 0x40 DUP1 MLOAD SWAP2 SWAP1 SWAP3 AND DUP1 DUP3 MSTORE PUSH1 0x20 DUP3 ADD SWAP4 SWAP1 SWAP4 MSTORE PUSH32 0xA8EFC72ED34F90017DF79620D1972D42B8E3B17EB0077FC5FC46CBF1A19ED9A9 SWAP2 ADD PUSH2 0xD3E JUMP JUMPDEST PUSH1 0x60 PUSH1 0x4 DUP1 SLOAD PUSH2 0xA2B SWAP1 PUSH2 0x3357 JUMP JUMPDEST CALLER PUSH0 SWAP1 DUP2 MSTORE PUSH1 0x1 PUSH1 0x20 SWAP1 DUP2 MSTORE PUSH1 0x40 DUP1 DUP4 KECCAK256 PUSH1 0x1 PUSH1 0x1 PUSH1 0xA0 SHL SUB DUP7 AND DUP5 MSTORE SWAP1 SWAP2 MSTORE DUP2 KECCAK256 SLOAD DUP3 DUP2 LT ISZERO PUSH2 0x1387 JUMPI PUSH1 0x40 MLOAD PUSH3 0x461BCD PUSH1 0xE5 SHL DUP2 MSTORE PUSH1 0x20 PUSH1 0x4 DUP3 ADD MSTORE PUSH1 0x25 PUSH1 0x24 DUP3 ADD MSTORE PUSH32 0x45524332303A2064656372656173656420616C6C6F77616E63652062656C6F77 PUSH1 0x44 DUP3 ADD MSTORE PUSH5 0x207A65726F PUSH1 0xD8 SHL PUSH1 0x64 DUP3 ADD MSTORE PUSH1 0x84 ADD PUSH2 0x9A1 JUMP JUMPDEST PUSH2 0x1394 CALLER DUP6 DUP6 DUP5 SUB PUSH2 0x1E95 JUMP JUMPDEST POP PUSH1 0x1 SWAP4 SWAP3 POP POP POP JUMP JUMPDEST PUSH0 PUSH2 0xAB8 CALLER DUP5 DUP5 PUSH2 0x1FB8 JUMP JUMPDEST PUSH1 0x5 SLOAD PUSH1 0x1 PUSH1 0x1 PUSH1 0xA0 SHL SUB AND CALLER EQ PUSH2 0x13D4 JUMPI PUSH1 0x40 MLOAD PUSH3 0x461BCD PUSH1 0xE5 SHL DUP2 MSTORE PUSH1 0x4 ADD PUSH2 0x9A1 SWAP1 PUSH2 0x338F JUMP JUMPDEST PUSH1 0x5 PUSH1 0x18 SLOAD PUSH1 0x16 SLOAD DUP4 PUSH1 0x12 SLOAD PUSH1 0x10 SLOAD PUSH2 0x13ED SWAP2 SWAP1 PUSH2 0x3344 JUMP JUMPDEST PUSH2 0x13F7 SWAP2 SWAP1 PUSH2 0x3344 JUMP JUMPDEST PUSH2 0x1401 SWAP2 SWAP1 PUSH2 0x3344 JUMP JUMPDEST PUSH2 0x140B SWAP2 SWAP1 PUSH2 0x3344 JUMP JUMPDEST GT ISZERO PUSH2 0x1429 JUMPI PUSH1 0x40 MLOAD PUSH3 0x461BCD PUSH1 0xE5 SHL DUP2 MSTORE PUSH1 0x4 ADD PUSH2 0x9A1 SWAP1 PUSH2 0x33C4 JUMP JUMPDEST PUSH1 0x14 DUP1 SLOAD SWAP1 DUP3 SWAP1 SSTORE PUSH1 0x18 SLOAD PUSH1 0x16 SLOAD PUSH2 0x1441 SWAP1 DUP5 PUSH2 0x3344 JUMP JUMPDEST PUSH2 0x144B SWAP2 SWAP1 PUSH2 0x3344 JUMP JUMPDEST PUSH1 0x1A SSTORE PUSH1 0x40 DUP1 MLOAD DUP3 DUP2 MSTORE PUSH1 0x20 DUP2 ADD DUP5 SWAP1 MSTORE PUSH32 0xD72BB987241D30EFE97862FAE5C01605397A36024557BBAE8EBEDEC081678BC2 SWAP2 ADD PUSH2 0xD3E JUMP JUMPDEST PUSH1 0x5 SLOAD PUSH1 0x1 PUSH1 0x1 PUSH1 0xA0 SHL SUB AND CALLER EQ PUSH2 0x14AE JUMPI PUSH1 0x40 MLOAD PUSH3 0x461BCD PUSH1 0xE5 SHL DUP2 MSTORE PUSH1 0x4 ADD PUSH2 0x9A1 SWAP1 PUSH2 0x338F JUMP JUMPDEST PUSH1 0x1F DUP1 SLOAD DUP3 ISZERO ISZERO PUSH2 0x100 MUL PUSH2 0xFF00 NOT SWAP1 SWAP2 AND OR SWAP1 SSTORE PUSH1 0x40 MLOAD PUSH32 0x53726DFCAF90650AA7EB35524F4D3220F07413C8D6CB404CC8C18BF5591BC159 SWAP1 PUSH2 0x14F7 SWAP1 DUP4 ISZERO ISZERO DUP2 MSTORE PUSH1 0x20 ADD SWAP1 JUMP JUMPDEST PUSH1 0x40 MLOAD DUP1 SWAP2 SUB SWAP1 LOG1 POP JUMP JUMPDEST PUSH1 0x5 SLOAD PUSH1 0x1 PUSH1 0x1 PUSH1 0xA0 SHL SUB AND CALLER EQ PUSH2 0x152C JUMPI PUSH1 0x40 MLOAD PUSH3 0x461BCD PUSH1 0xE5 SHL DUP2 MSTORE PUSH1 0x4 ADD PUSH2 0x9A1 SWAP1 PUSH2 0x338F JUMP JUMPDEST PUSH1 0xC SLOAD PUSH1 0x40 MLOAD SELFBALANCE SWAP2 PUSH0 SWAP2 PUSH1 0x1 PUSH1 0x1 PUSH1 0xA0 SHL SUB SWAP1 SWAP2 AND SWAP1 DUP4 SWAP1 DUP4 DUP2 DUP2 DUP2 DUP6 DUP8 GAS CALL SWAP3 POP POP POP RETURNDATASIZE DUP1 PUSH0 DUP2 EQ PUSH2 0x157A JUMPI PUSH1 0x40 MLOAD SWAP2 POP PUSH1 0x1F NOT PUSH1 0x3F RETURNDATASIZE ADD AND DUP3 ADD PUSH1 0x40 MSTORE RETURNDATASIZE DUP3 MSTORE RETURNDATASIZE PUSH0 PUSH1 0x20 DUP5 ADD RETURNDATACOPY PUSH2 0x157F JUMP JUMPDEST PUSH1 0x60 SWAP2 POP JUMPDEST POP POP SWAP1 POP DUP1 PUSH2 0x15C2 JUMPI PUSH1 0x40 MLOAD PUSH3 0x461BCD PUSH1 0xE5 SHL DUP2 MSTORE PUSH1 0x20 PUSH1 0x4 DUP3 ADD MSTORE PUSH1 0xF PUSH1 0x24 DUP3 ADD MSTORE PUSH15 0x151C985B9CD9995C8819985A5B1959 PUSH1 0x8A SHL PUSH1 0x44 DUP3 ADD MSTORE PUSH1 0x64 ADD PUSH2 0x9A1 JUMP JUMPDEST PUSH1 0xC SLOAD PUSH1 0x40 DUP1 MLOAD PUSH1 0x1 PUSH1 0x1 PUSH1 0xA0 SHL SUB SWAP1 SWAP3 AND DUP3 MSTORE PUSH1 0x20 DUP3 ADD DUP5 SWAP1 MSTORE PUSH32 0xDE57927EAAFD79A9562F4B8BBE822F62EFD918B1DFC739DEB1222E851BFA6E90 SWAP2 ADD PUSH2 0xD3E JUMP JUMPDEST PUSH1 0x5 SLOAD PUSH1 0x1 PUSH1 0x1 PUSH1 0xA0 SHL SUB AND CALLER EQ PUSH2 0x162F JUMPI PUSH1 0x40 MLOAD PUSH3 0x461BCD PUSH1 0xE5 SHL DUP2 MSTORE PUSH1 0x4 ADD PUSH2 0x9A1 SWAP1 PUSH2 0x338F JUMP JUMPDEST PUSH1 0x1 PUSH1 0x1 PUSH1 0xA0 SHL SUB DUP2 AND PUSH2 0x169A JUMPI PUSH1 0x40 MLOAD PUSH3 0x461BCD PUSH1 0xE5 SHL DUP2 MSTORE PUSH1 0x20 PUSH1 0x4 DUP3 ADD MSTORE PUSH1 0x2C PUSH1 0x24 DUP3 ADD MSTORE PUSH32 0x446576656C6F70657220616464726573732063616E6E6F742062652074686520 PUSH1 0x44 DUP3 ADD MSTORE PUSH12 0x7A65726F2061646472657373 PUSH1 0xA0 SHL PUSH1 0x64 DUP3 ADD MSTORE PUSH1 0x84 ADD PUSH2 0x9A1 JUMP JUMPDEST PUSH1 0xC DUP1 SLOAD PUSH1 0x1 PUSH1 0x1 PUSH1 0xA0 SHL SUB DUP4 DUP2 AND PUSH1 0x1 PUSH1 0x1 PUSH1 0xA0 SHL SUB NOT DUP4 AND DUP2 OR SWAP1 SWAP4 SSTORE PUSH1 0x40 DUP1 MLOAD SWAP2 SWAP1 SWAP3 AND DUP1 DUP3 MSTORE PUSH1 0x20 DUP3 ADD SWAP4 SWAP1 SWAP4 MSTORE PUSH32 0x9A8FCE0F201607A626CC555EF244D8ED346D879D2141B2964C3A955650554AE0 SWAP2 ADD PUSH2 0xD3E JUMP JUMPDEST PUSH1 0x5 SLOAD PUSH1 0x1 PUSH1 0x1 PUSH1 0xA0 SHL SUB AND CALLER EQ PUSH2 0x171E JUMPI PUSH1 0x40 MLOAD PUSH3 0x461BCD PUSH1 0xE5 SHL DUP2 MSTORE PUSH1 0x4 ADD PUSH2 0x9A1 SWAP1 PUSH2 0x338F JUMP JUMPDEST PUSH1 0x5 PUSH1 0x18 SLOAD PUSH1 0x16 SLOAD PUSH1 0x14 SLOAD DUP5 PUSH1 0x10 SLOAD PUSH2 0x1737 SWAP2 SWAP1 PUSH2 0x3344 JUMP JUMPDEST PUSH2 0x1741 SWAP2 SWAP1 PUSH2 0x3344 JUMP JUMPDEST PUSH2 0x174B SWAP2 SWAP1 PUSH2 0x3344 JUMP JUMPDEST PUSH2 0x1755 SWAP2 SWAP1 PUSH2 0x3344 JUMP JUMPDEST GT ISZERO PUSH2 0x1773 JUMPI PUSH1 0x40 MLOAD PUSH3 0x461BCD PUSH1 0xE5 SHL DUP2 MSTORE PUSH1 0x4 ADD PUSH2 0x9A1 SWAP1 PUSH2 0x33C4 JUMP JUMPDEST PUSH1 0x12 DUP1 SLOAD SWAP1 DUP3 SWAP1 SSTORE PUSH1 0x40 DUP1 MLOAD DUP3 DUP2 MSTORE PUSH1 0x20 DUP2 ADD DUP5 SWAP1 MSTORE PUSH32 0x2C52CA41E4D19E67555BE53873512BB32CA77E9E6D56B69361D6AC621A8834D1 SWAP2 ADD PUSH2 0xD3E JUMP JUMPDEST PUSH1 0x5 SLOAD PUSH1 0x1 PUSH1 0x1 PUSH1 0xA0 SHL SUB AND CALLER EQ PUSH2 0x17DB JUMPI PUSH1 0x40 MLOAD PUSH3 0x461BCD PUSH1 0xE5 SHL DUP2 MSTORE PUSH1 0x4 ADD PUSH2 0x9A1 SWAP1 PUSH2 0x338F JUMP JUMPDEST ADDRESS PUSH1 0x1 PUSH1 0x1 PUSH1 0xA0 SHL SUB DUP4 AND SUB PUSH2 0x1852 JUMPI PUSH1 0x40 MLOAD PUSH3 0x461BCD PUSH1 0xE5 SHL DUP2 MSTORE PUSH1 0x20 PUSH1 0x4 DUP3 ADD MSTORE PUSH1 0x36 PUSH1 0x24 DUP3 ADD MSTORE PUSH32 0x4F776E65722063616E277420636C61696D20636F6E747261637427732062616C PUSH1 0x44 DUP3 ADD MSTORE PUSH22 0x616E6365206F6620697473206F776E20746F6B656E73 PUSH1 0x50 SHL PUSH1 0x64 DUP3 ADD MSTORE PUSH1 0x84 ADD PUSH2 0x9A1 JUMP JUMPDEST PUSH1 0xC SLOAD PUSH1 0x40 MLOAD PUSH4 0xA9059CBB PUSH1 0xE0 SHL DUP2 MSTORE PUSH1 0x1 PUSH1 0x1 PUSH1 0xA0 SHL SUB SWAP2 DUP3 AND PUSH1 0x4 DUP3 ADD MSTORE PUSH1 0x24 DUP2 ADD DUP4 SWAP1 MSTORE PUSH0 SWAP2 DUP5 AND SWAP1 PUSH4 0xA9059CBB SWAP1 PUSH1 0x44 ADD PUSH1 0x20 PUSH1 0x40 MLOAD DUP1 DUP4 SUB DUP2 PUSH0 DUP8 GAS CALL ISZERO DUP1 ISZERO PUSH2 0x18A3 JUMPI RETURNDATASIZE PUSH0 DUP1 RETURNDATACOPY RETURNDATASIZE PUSH0 REVERT JUMPDEST POP POP POP POP PUSH1 0x40 MLOAD RETURNDATASIZE PUSH1 0x1F NOT PUSH1 0x1F DUP3 ADD AND DUP3 ADD DUP1 PUSH1 0x40 MSTORE POP DUP2 ADD SWAP1 PUSH2 0x18C7 SWAP2 SWAP1 PUSH2 0x33FB JUMP JUMPDEST SWAP1 POP DUP1 PUSH2 0x1908 JUMPI PUSH1 0x40 MLOAD PUSH3 0x461BCD PUSH1 0xE5 SHL DUP2 MSTORE PUSH1 0x20 PUSH1 0x4 DUP3 ADD MSTORE PUSH1 0xF PUSH1 0x24 DUP3 ADD MSTORE PUSH15 0x151C985B9CD9995C8819985A5B1959 PUSH1 0x8A SHL PUSH1 0x44 DUP3 ADD MSTORE PUSH1 0x64 ADD PUSH2 0x9A1 JUMP JUMPDEST PUSH1 0xC SLOAD PUSH1 0x40 DUP1 MLOAD PUSH1 0x1 PUSH1 0x1 PUSH1 0xA0 SHL SUB DUP1 DUP8 AND DUP3 MSTORE SWAP1 SWAP3 AND PUSH1 0x20 DUP4 ADD MSTORE DUP2 ADD DUP4 SWAP1 MSTORE PUSH32 0x7F04A6831AF98A2F03A74820315C7DF18B78440FAFABF085DED21FAF68821373 SWAP1 PUSH1 0x60 ADD PUSH1 0x40 MLOAD DUP1 SWAP2 SUB SWAP1 LOG1 POP POP POP JUMP JUMPDEST PUSH1 0x5 SLOAD PUSH1 0x1 PUSH1 0x1 PUSH1 0xA0 SHL SUB AND CALLER EQ PUSH2 0x1985 JUMPI PUSH1 0x40 MLOAD PUSH3 0x461BCD PUSH1 0xE5 SHL DUP2 MSTORE PUSH1 0x4 ADD PUSH2 0x9A1 SWAP1 PUSH2 0x338F JUMP JUMPDEST PUSH1 0x1 PUSH1 0x1 PUSH1 0xA0 SHL SUB AND PUSH0 SWAP1 DUP2 MSTORE PUSH1 0x8 PUSH1 0x20 MSTORE PUSH1 0x40 SWAP1 KECCAK256 DUP1 SLOAD PUSH1 0xFF NOT AND SWAP1 SSTORE JUMP JUMPDEST PUSH1 0x5 SLOAD PUSH1 0x1 PUSH1 0x1 PUSH1 0xA0 SHL SUB AND CALLER EQ PUSH2 0x19CF JUMPI PUSH1 0x40 MLOAD PUSH3 0x461BCD PUSH1 0xE5 SHL DUP2 MSTORE PUSH1 0x4 ADD PUSH2 0x9A1 SWAP1 PUSH2 0x338F JUMP JUMPDEST PUSH2 0x3E8 PUSH1 0xD SLOAD PUSH1 0x1 PUSH2 0x19E1 SWAP2 SWAP1 PUSH2 0x3416 JUMP JUMPDEST PUSH2 0x19EB SWAP2 SWAP1 PUSH2 0x342D JUMP JUMPDEST DUP2 LT ISZERO PUSH2 0x1A60 JUMPI PUSH1 0x40 MLOAD PUSH3 0x461BCD PUSH1 0xE5 SHL DUP2 MSTORE PUSH1 0x20 PUSH1 0x4 DUP3 ADD MSTORE PUSH1 0x38 PUSH1 0x24 DUP3 ADD MSTORE PUSH32 0x4D61785478416D6F756E742073686F756C64206265206174206C656173742030 PUSH1 0x44 DUP3 ADD MSTORE PUSH32 0x2E3125206F662074686520746F74616C20737570706C792E0000000000000000 PUSH1 0x64 DUP3 ADD MSTORE PUSH1 0x84 ADD PUSH2 0x9A1 JUMP JUMPDEST PUSH1 0x1C DUP1 SLOAD SWAP1 DUP3 SWAP1 SSTORE PUSH1 0x40 DUP1 MLOAD DUP3 DUP2 MSTORE PUSH1 0x20 DUP2 ADD DUP5 SWAP1 MSTORE PUSH32 0xADCF01123294F8514884E924E20EB4F3032288087368896A17C71F09668247C8 SWAP2 ADD PUSH2 0xD3E JUMP JUMPDEST PUSH1 0x5 SLOAD PUSH1 0x1 PUSH1 0x1 PUSH1 0xA0 SHL SUB AND CALLER EQ PUSH2 0x1AC8 JUMPI PUSH1 0x40 MLOAD PUSH3 0x461BCD PUSH1 0xE5 SHL DUP2 MSTORE PUSH1 0x4 ADD PUSH2 0x9A1 SWAP1 PUSH2 0x338F JUMP JUMPDEST PUSH1 0x1F SLOAD PUSH3 0x10000 SWAP1 DIV PUSH1 0xFF AND ISZERO ISZERO DUP2 ISZERO ISZERO SUB PUSH2 0x1B1F JUMPI PUSH1 0x40 MLOAD PUSH3 0x461BCD PUSH1 0xE5 SHL DUP2 MSTORE PUSH1 0x20 PUSH1 0x4 DUP3 ADD MSTORE PUSH1 0x16 PUSH1 0x24 DUP3 ADD MSTORE PUSH22 0x29B2BA1030903234B33332B932B73A103B30B63AB297 PUSH1 0x51 SHL PUSH1 0x44 DUP3 ADD MSTORE PUSH1 0x64 ADD PUSH2 0x9A1 JUMP JUMPDEST DUP1 ISZERO PUSH2 0x1B82 JUMPI PUSH2 0x1B2E PUSH0 PUSH2 0x1484 JUMP JUMPDEST PUSH2 0x1B71 PUSH1 0x1A DUP1 SLOAD PUSH1 0x1B SSTORE PUSH1 0x14 DUP1 SLOAD PUSH1 0x15 SSTORE PUSH1 0x10 DUP1 SLOAD PUSH1 0x11 SSTORE PUSH1 0x12 DUP1 SLOAD PUSH1 0x13 SSTORE PUSH1 0x16 DUP1 SLOAD PUSH1 0x17 SSTORE PUSH1 0x18 DUP1 SLOAD PUSH1 0x19 SSTORE PUSH0 SWAP6 DUP7 SWAP1 SSTORE SWAP4 DUP6 SWAP1 SSTORE SWAP2 DUP5 SWAP1 SSTORE DUP4 SWAP1 SSTORE DUP3 SWAP1 SSTORE SSTORE JUMP JUMPDEST PUSH1 0x1C SLOAD PUSH1 0x1D SSTORE PUSH1 0xD SLOAD PUSH1 0x1C SSTORE PUSH2 0x1BBC JUMP JUMPDEST PUSH2 0x1B8C PUSH1 0x1 PUSH2 0x1484 JUMP JUMPDEST PUSH2 0x1BB5 PUSH1 0x1B SLOAD PUSH1 0x1A SSTORE PUSH1 0x15 SLOAD PUSH1 0x14 SSTORE PUSH1 0x11 SLOAD PUSH1 0x10 SSTORE PUSH1 0x13 SLOAD PUSH1 0x12 SSTORE PUSH1 0x17 SLOAD PUSH1 0x16 SSTORE PUSH1 0x19 SLOAD PUSH1 0x18 SSTORE JUMP JUMPDEST PUSH1 0x1D SLOAD PUSH1 0x1C SSTORE JUMPDEST PUSH1 0x1F DUP1 SLOAD DUP3 ISZERO ISZERO PUSH3 0x10000 MUL PUSH3 0xFF0000 NOT SWAP1 SWAP2 AND OR SWAP1 SSTORE PUSH1 0x40 MLOAD PUSH32 0x754DB841CD0BA8B9D7311DC4B5C8CD44B1FF98BCB4E1D8D9CAB86566BCE3A1FA SWAP1 PUSH2 0x14F7 SWAP1 DUP4 ISZERO ISZERO DUP2 MSTORE PUSH1 0x20 ADD SWAP1 JUMP JUMPDEST PUSH1 0x5 SLOAD PUSH1 0x1 PUSH1 0x1 PUSH1 0xA0 SHL SUB AND CALLER EQ PUSH2 0x1C31 JUMPI PUSH1 0x40 MLOAD PUSH3 0x461BCD PUSH1 0xE5 SHL DUP2 MSTORE PUSH1 0x4 ADD PUSH2 0x9A1 SWAP1 PUSH2 0x338F JUMP JUMPDEST PUSH1 0x1 PUSH1 0x1 PUSH1 0xA0 SHL SUB DUP2 AND PUSH2 0x1C96 JUMPI PUSH1 0x40 MLOAD PUSH3 0x461BCD PUSH1 0xE5 SHL DUP2 MSTORE PUSH1 0x20 PUSH1 0x4 DUP3 ADD MSTORE PUSH1 0x26 PUSH1 0x24 DUP3 ADD MSTORE PUSH32 0x4F776E61626C653A206E6577206F776E657220697320746865207A65726F2061 PUSH1 0x44 DUP3 ADD MSTORE PUSH6 0x646472657373 PUSH1 0xD0 SHL PUSH1 0x64 DUP3 ADD MSTORE PUSH1 0x84 ADD PUSH2 0x9A1 JUMP JUMPDEST PUSH2 0xBAF DUP2 PUSH2 0x250F JUMP JUMPDEST PUSH1 0x5 SLOAD PUSH1 0x1 PUSH1 0x1 PUSH1 0xA0 SHL SUB AND CALLER EQ PUSH2 0x1CC9 JUMPI PUSH1 0x40 MLOAD PUSH3 0x461BCD PUSH1 0xE5 SHL DUP2 MSTORE PUSH1 0x4 ADD PUSH2 0x9A1 SWAP1 PUSH2 0x338F JUMP JUMPDEST PUSH1 0x1 PUSH1 0x1 PUSH1 0xA0 SHL SUB DUP2 AND PUSH0 SWAP1 DUP2 MSTORE PUSH1 0x9 PUSH1 0x20 MSTORE PUSH1 0x40 SWAP1 KECCAK256 SLOAD PUSH1 0xFF AND PUSH2 0x1D30 JUMPI PUSH1 0x40 MLOAD PUSH3 0x461BCD PUSH1 0xE5 SHL DUP2 MSTORE PUSH1 0x20 PUSH1 0x4 DUP3 ADD MSTORE PUSH1 0x1B PUSH1 0x24 DUP3 ADD MSTORE PUSH32 0x4163636F756E7420697320616C726561647920696E636C756465640000000000 PUSH1 0x44 DUP3 ADD MSTORE PUSH1 0x64 ADD PUSH2 0x9A1 JUMP JUMPDEST PUSH0 JUMPDEST PUSH1 0xA SLOAD DUP2 LT ISZERO PUSH2 0x1E40 JUMPI DUP2 PUSH1 0x1 PUSH1 0x1 PUSH1 0xA0 SHL SUB AND PUSH1 0xA DUP3 DUP2 SLOAD DUP2 LT PUSH2 0x1D59 JUMPI PUSH2 0x1D59 PUSH2 0x344C JUMP JUMPDEST PUSH0 SWAP2 DUP3 MSTORE PUSH1 0x20 SWAP1 SWAP2 KECCAK256 ADD SLOAD PUSH1 0x1 PUSH1 0x1 PUSH1 0xA0 SHL SUB AND SUB PUSH2 0x1E38 JUMPI PUSH1 0xA DUP1 SLOAD PUSH2 0x1D82 SWAP1 PUSH1 0x1 SWAP1 PUSH2 0x3331 JUMP JUMPDEST DUP2 SLOAD DUP2 LT PUSH2 0x1D92 JUMPI PUSH2 0x1D92 PUSH2 0x344C JUMP JUMPDEST PUSH0 SWAP2 DUP3 MSTORE PUSH1 0x20 SWAP1 SWAP2 KECCAK256 ADD SLOAD PUSH1 0xA DUP1 SLOAD PUSH1 0x1 PUSH1 0x1 PUSH1 0xA0 SHL SUB SWAP1 SWAP3 AND SWAP2 DUP4 SWAP1 DUP2 LT PUSH2 0x1DBD JUMPI PUSH2 0x1DBD PUSH2 0x344C JUMP JUMPDEST PUSH0 SWAP2 DUP3 MSTORE PUSH1 0x20 DUP1 DUP4 KECCAK256 SWAP2 SWAP1 SWAP2 ADD DUP1 SLOAD PUSH1 0x1 PUSH1 0x1 PUSH1 0xA0 SHL SUB NOT AND PUSH1 0x1 PUSH1 0x1 PUSH1 0xA0 SHL SUB SWAP5 DUP6 AND OR SWAP1 SSTORE SWAP2 DUP5 AND DUP2 MSTORE PUSH1 0x7 DUP3 MSTORE PUSH1 0x40 DUP1 DUP3 KECCAK256 DUP3 SWAP1 SSTORE PUSH1 0x9 SWAP1 SWAP3 MSTORE KECCAK256 DUP1 SLOAD PUSH1 0xFF NOT AND SWAP1 SSTORE PUSH1 0xA DUP1 SLOAD DUP1 PUSH2 0x1E14 JUMPI PUSH2 0x1E14 PUSH2 0x3460 JUMP JUMPDEST PUSH0 DUP3 DUP2 MSTORE PUSH1 0x20 SWAP1 KECCAK256 DUP2 ADD PUSH0 NOT SWAP1 DUP2 ADD DUP1 SLOAD PUSH1 0x1 PUSH1 0x1 PUSH1 0xA0 SHL SUB NOT AND SWAP1 SSTORE ADD SWAP1 SSTORE POP POP JUMP JUMPDEST PUSH1 0x1 ADD PUSH2 0x1D32 JUMP JUMPDEST POP POP JUMP JUMPDEST PUSH0 DUP1 PUSH0 DUP1 PUSH0 PUSH2 0x1E52 DUP7 PUSH2 0x2560 JUMP JUMPDEST SWAP1 POP PUSH0 PUSH2 0x1E5F DUP3 DUP9 PUSH2 0x3331 JUMP JUMPDEST SWAP1 POP PUSH0 PUSH2 0x1E6A PUSH2 0x25A0 JUMP JUMPDEST SWAP1 POP PUSH0 PUSH2 0x1E77 DUP3 DUP5 PUSH2 0x3416 JUMP JUMPDEST SWAP1 POP PUSH0 PUSH2 0x1E84 DUP4 DUP12 PUSH2 0x3416 JUMP JUMPDEST SWAP11 SWAP2 SWAP10 POP SWAP3 SWAP8 POP SWAP1 SWAP6 POP SWAP4 POP POP POP POP JUMP JUMPDEST PUSH1 0x1 PUSH1 0x1 PUSH1 0xA0 SHL SUB DUP4 AND PUSH2 0x1EF7 JUMPI PUSH1 0x40 MLOAD PUSH3 0x461BCD PUSH1 0xE5 SHL DUP2 MSTORE PUSH1 0x20 PUSH1 0x4 DUP3 ADD MSTORE PUSH1 0x24 DUP1 DUP3 ADD MSTORE PUSH32 0x45524332303A20617070726F76652066726F6D20746865207A65726F20616464 PUSH1 0x44 DUP3 ADD MSTORE PUSH4 0x72657373 PUSH1 0xE0 SHL PUSH1 0x64 DUP3 ADD MSTORE PUSH1 0x84 ADD PUSH2 0x9A1 JUMP JUMPDEST PUSH1 0x1 PUSH1 0x1 PUSH1 0xA0 SHL SUB DUP3 AND PUSH2 0x1F58 JUMPI PUSH1 0x40 MLOAD PUSH3 0x461BCD PUSH1 0xE5 SHL DUP2 MSTORE PUSH1 0x20 PUSH1 0x4 DUP3 ADD MSTORE PUSH1 0x22 PUSH1 0x24 DUP3 ADD MSTORE PUSH32 0x45524332303A20617070726F766520746F20746865207A65726F206164647265 PUSH1 0x44 DUP3 ADD MSTORE PUSH2 0x7373 PUSH1 0xF0 SHL PUSH1 0x64 DUP3 ADD MSTORE PUSH1 0x84 ADD PUSH2 0x9A1 JUMP JUMPDEST PUSH1 0x1 PUSH1 0x1 PUSH1 0xA0 SHL SUB DUP4 DUP2 AND PUSH0 DUP2 DUP2 MSTORE PUSH1 0x1 PUSH1 0x20 SWAP1 DUP2 MSTORE PUSH1 0x40 DUP1 DUP4 KECCAK256 SWAP5 DUP8 AND DUP1 DUP5 MSTORE SWAP5 DUP3 MSTORE SWAP2 DUP3 SWAP1 KECCAK256 DUP6 SWAP1 SSTORE SWAP1 MLOAD DUP5 DUP2 MSTORE PUSH32 0x8C5BE1E5EBEC7D5BD14F71427D1E84F3DD0314C0F7B2291E5B200AC8C7C3B925 SWAP2 ADD PUSH1 0x40 MLOAD DUP1 SWAP2 SUB SWAP1 LOG3 POP POP POP JUMP JUMPDEST PUSH1 0x1 PUSH1 0x1 PUSH1 0xA0 SHL SUB DUP4 AND PUSH2 0x201C JUMPI PUSH1 0x40 MLOAD PUSH3 0x461BCD PUSH1 0xE5 SHL DUP2 MSTORE PUSH1 0x20 PUSH1 0x4 DUP3 ADD MSTORE PUSH1 0x25 PUSH1 0x24 DUP3 ADD MSTORE PUSH32 0x45524332303A207472616E736665722066726F6D20746865207A65726F206164 PUSH1 0x44 DUP3 ADD MSTORE PUSH5 0x6472657373 PUSH1 0xD8 SHL PUSH1 0x64 DUP3 ADD MSTORE PUSH1 0x84 ADD PUSH2 0x9A1 JUMP JUMPDEST PUSH1 0x1 PUSH1 0x1 PUSH1 0xA0 SHL SUB DUP3 AND PUSH2 0x207E JUMPI PUSH1 0x40 MLOAD PUSH3 0x461BCD PUSH1 0xE5 SHL DUP2 MSTORE PUSH1 0x20 PUSH1 0x4 DUP3 ADD MSTORE PUSH1 0x23 PUSH1 0x24 DUP3 ADD MSTORE PUSH32 0x45524332303A207472616E7366657220746F20746865207A65726F2061646472 PUSH1 0x44 DUP3 ADD MSTORE PUSH3 0x657373 PUSH1 0xE8 SHL PUSH1 0x64 DUP3 ADD MSTORE PUSH1 0x84 ADD PUSH2 0x9A1 JUMP JUMPDEST PUSH0 DUP2 GT PUSH2 0x20DF JUMPI PUSH1 0x40 MLOAD PUSH3 0x461BCD PUSH1 0xE5 SHL DUP2 MSTORE PUSH1 0x20 PUSH1 0x4 DUP3 ADD MSTORE PUSH1 0x29 PUSH1 0x24 DUP3 ADD MSTORE PUSH32 0x5472616E7366657220616D6F756E74206D757374206265206772656174657220 PUSH1 0x44 DUP3 ADD MSTORE PUSH9 0x7468616E207A65726F PUSH1 0xB8 SHL PUSH1 0x64 DUP3 ADD MSTORE PUSH1 0x84 ADD PUSH2 0x9A1 JUMP JUMPDEST PUSH0 PUSH2 0x20E9 DUP5 PUSH2 0x10F2 JUMP JUMPDEST SWAP1 POP DUP2 DUP2 LT ISZERO PUSH2 0x214A JUMPI PUSH1 0x40 MLOAD PUSH3 0x461BCD PUSH1 0xE5 SHL DUP2 MSTORE PUSH1 0x20 PUSH1 0x4 DUP3 ADD MSTORE PUSH1 0x26 PUSH1 0x24 DUP3 ADD MSTORE PUSH32 0x45524332303A207472616E7366657220616D6F756E7420657863656564732062 PUSH1 0x44 DUP3 ADD MSTORE PUSH6 0x616C616E6365 PUSH1 0xD0 SHL PUSH1 0x64 DUP3 ADD MSTORE PUSH1 0x84 ADD PUSH2 0x9A1 JUMP JUMPDEST PUSH1 0x5 SLOAD PUSH1 0x1 PUSH1 0x1 PUSH1 0xA0 SHL SUB DUP6 DUP2 AND SWAP2 AND EQ DUP1 ISZERO SWAP1 PUSH2 0x2176 JUMPI POP PUSH1 0x5 SLOAD PUSH1 0x1 PUSH1 0x1 PUSH1 0xA0 SHL SUB DUP5 DUP2 AND SWAP2 AND EQ ISZERO JUMPDEST ISZERO PUSH2 0x21DE JUMPI PUSH1 0x1C SLOAD DUP3 GT ISZERO PUSH2 0x21DE JUMPI PUSH1 0x40 MLOAD PUSH3 0x461BCD PUSH1 0xE5 SHL DUP2 MSTORE PUSH1 0x20 PUSH1 0x4 DUP3 ADD MSTORE PUSH1 0x28 PUSH1 0x24 DUP3 ADD MSTORE PUSH32 0x5472616E7366657220616D6F756E74206578636565647320746865206D617854 PUSH1 0x44 DUP3 ADD MSTORE PUSH8 0x3C20B6B7BAB73A17 PUSH1 0xC1 SHL PUSH1 0x64 DUP3 ADD MSTORE PUSH1 0x84 ADD PUSH2 0x9A1 JUMP JUMPDEST PUSH0 PUSH2 0x21E8 ADDRESS PUSH2 0x10F2 JUMP JUMPDEST PUSH1 0x1E SLOAD PUSH1 0x1F SLOAD SWAP2 SWAP3 POP DUP3 LT ISZERO SWAP1 PUSH1 0xFF AND ISZERO DUP1 ISZERO PUSH2 0x220C JUMPI POP PUSH1 0x1F SLOAD PUSH2 0x100 SWAP1 DIV PUSH1 0xFF AND JUMPDEST DUP1 ISZERO PUSH2 0x2249 JUMPI POP PUSH32 0x0 PUSH1 0x1 PUSH1 0x1 PUSH1 0xA0 SHL SUB AND DUP6 PUSH1 0x1 PUSH1 0x1 PUSH1 0xA0 SHL SUB AND EQ JUMPDEST ISZERO PUSH2 0x2262 JUMPI DUP1 ISZERO PUSH2 0x2262 JUMPI PUSH1 0x1E SLOAD SWAP2 POP PUSH2 0x2262 DUP3 PUSH2 0x25C1 JUMP JUMPDEST PUSH1 0x1 PUSH1 0x1 PUSH1 0xA0 SHL SUB DUP7 AND PUSH0 SWAP1 DUP2 MSTORE PUSH1 0x8 PUSH1 0x20 MSTORE PUSH1 0x40 SWAP1 KECCAK256 SLOAD PUSH1 0x1 SWAP1 PUSH1 0xFF AND DUP1 PUSH2 0x22A2 JUMPI POP PUSH1 0x1 PUSH1 0x1 PUSH1 0xA0 SHL SUB DUP7 AND PUSH0 SWAP1 DUP2 MSTORE PUSH1 0x8 PUSH1 0x20 MSTORE PUSH1 0x40 SWAP1 KECCAK256 SLOAD PUSH1 0xFF AND JUMPDEST ISZERO PUSH2 0x22AA JUMPI POP PUSH0 JUMPDEST PUSH2 0x22B6 DUP8 DUP8 DUP8 DUP5 PUSH2 0x283D JUMP JUMPDEST POP POP POP POP POP POP POP JUMP JUMPDEST PUSH1 0x1 PUSH1 0x1 PUSH1 0xA0 SHL SUB DUP3 AND PUSH2 0x231F JUMPI PUSH1 0x40 MLOAD PUSH3 0x461BCD PUSH1 0xE5 SHL DUP2 MSTORE PUSH1 0x20 PUSH1 0x4 DUP3 ADD MSTORE PUSH1 0x21 PUSH1 0x24 DUP3 ADD MSTORE PUSH32 0x45524332303A206275726E2066726F6D20746865207A65726F20616464726573 PUSH1 0x44 DUP3 ADD MSTORE PUSH1 0x73 PUSH1 0xF8 SHL PUSH1 0x64 DUP3 ADD MSTORE PUSH1 0x84 ADD PUSH2 0x9A1 JUMP JUMPDEST PUSH0 PUSH2 0x2329 DUP4 PUSH2 0x10F2 JUMP JUMPDEST SWAP1 POP DUP2 DUP2 LT ISZERO PUSH2 0x2386 JUMPI PUSH1 0x40 MLOAD PUSH3 0x461BCD PUSH1 0xE5 SHL DUP2 MSTORE PUSH1 0x20 PUSH1 0x4 DUP3 ADD MSTORE PUSH1 0x22 PUSH1 0x24 DUP3 ADD MSTORE PUSH32 0x45524332303A206275726E20616D6F756E7420657863656564732062616C616E PUSH1 0x44 DUP3 ADD MSTORE PUSH2 0x6365 PUSH1 0xF0 SHL PUSH1 0x64 DUP3 ADD MSTORE PUSH1 0x84 ADD PUSH2 0x9A1 JUMP JUMPDEST PUSH0 PUSH2 0x238F PUSH2 0x25A0 JUMP JUMPDEST SWAP1 POP PUSH0 PUSH2 0x239C DUP3 DUP6 PUSH2 0x3416 JUMP JUMPDEST PUSH1 0x1 PUSH1 0x1 PUSH1 0xA0 SHL SUB DUP7 AND PUSH0 SWAP1 DUP2 MSTORE PUSH1 0x9 PUSH1 0x20 MSTORE PUSH1 0x40 SWAP1 KECCAK256 SLOAD SWAP1 SWAP2 POP PUSH1 0xFF AND ISZERO PUSH2 0x23FB JUMPI PUSH1 0x1 PUSH1 0x1 PUSH1 0xA0 SHL SUB DUP6 AND PUSH0 SWAP1 DUP2 MSTORE PUSH1 0x7 PUSH1 0x20 MSTORE PUSH1 0x40 SWAP1 KECCAK256 SLOAD PUSH2 0x23E2 SWAP1 DUP6 SWAP1 PUSH2 0x3331 JUMP JUMPDEST PUSH1 0x1 PUSH1 0x1 PUSH1 0xA0 SHL SUB DUP7 AND PUSH0 SWAP1 DUP2 MSTORE PUSH1 0x7 PUSH1 0x20 MSTORE PUSH1 0x40 SWAP1 KECCAK256 SSTORE JUMPDEST PUSH1 0x1 PUSH1 0x1 PUSH1 0xA0 SHL SUB DUP6 AND PUSH0 SWAP1 DUP2 MSTORE PUSH1 0x6 PUSH1 0x20 MSTORE PUSH1 0x40 SWAP1 KECCAK256 SLOAD PUSH2 0x241E SWAP1 DUP3 SWAP1 PUSH2 0x3331 JUMP JUMPDEST PUSH1 0x1 PUSH1 0x1 PUSH1 0xA0 SHL SUB DUP7 AND PUSH0 SWAP1 DUP2 MSTORE PUSH1 0x6 PUSH1 0x20 MSTORE PUSH1 0x40 SWAP1 KECCAK256 SSTORE PUSH1 0xD SLOAD PUSH2 0x2444 SWAP1 DUP6 SWAP1 PUSH2 0x3331 JUMP JUMPDEST PUSH1 0xD SSTORE PUSH1 0xE SLOAD PUSH2 0x2455 SWAP1 DUP3 SWAP1 PUSH2 0x3331 JUMP JUMPDEST PUSH1 0xE SSTORE PUSH1 0x40 MLOAD DUP5 DUP2 MSTORE PUSH0 SWAP1 PUSH1 0x1 PUSH1 0x1 PUSH1 0xA0 SHL SUB DUP8 AND SWAP1 PUSH0 DUP1 MLOAD PUSH1 0x20 PUSH2 0x3551 DUP4 CODECOPY DUP2 MLOAD SWAP2 MSTORE SWAP1 PUSH1 0x20 ADD JUMPDEST PUSH1 0x40 MLOAD DUP1 SWAP2 SUB SWAP1 LOG3 POP POP POP POP POP JUMP JUMPDEST PUSH0 PUSH1 0xE SLOAD DUP3 GT ISZERO PUSH2 0x24F3 JUMPI PUSH1 0x40 MLOAD PUSH3 0x461BCD PUSH1 0xE5 SHL DUP2 MSTORE PUSH1 0x20 PUSH1 0x4 DUP3 ADD MSTORE PUSH1 0x2A PUSH1 0x24 DUP3 ADD MSTORE PUSH32 0x416D6F756E74206D757374206265206C657373207468616E20746F74616C2072 PUSH1 0x44 DUP3 ADD MSTORE PUSH10 0x65666C656374696F6E73 PUSH1 0xB0 SHL PUSH1 0x64 DUP3 ADD MSTORE PUSH1 0x84 ADD PUSH2 0x9A1 JUMP JUMPDEST PUSH0 PUSH2 0x24FC PUSH2 0x25A0 JUMP JUMPDEST SWAP1 POP PUSH2 0x2508 DUP2 DUP5 PUSH2 0x342D JUMP JUMPDEST SWAP4 SWAP3 POP POP POP JUMP JUMPDEST PUSH1 0x5 DUP1 SLOAD PUSH1 0x1 PUSH1 0x1 PUSH1 0xA0 SHL SUB DUP4 DUP2 AND PUSH1 0x1 PUSH1 0x1 PUSH1 0xA0 SHL SUB NOT DUP4 AND DUP2 OR SWAP1 SWAP4 SSTORE PUSH1 0x40 MLOAD SWAP2 AND SWAP2 SWAP1 DUP3 SWAP1 PUSH32 0x8BE0079C531659141344CD1FD0A4F28419497F9722A3DAAFE3B4186F6B6457E0 SWAP1 PUSH0 SWAP1 LOG3 POP POP JUMP JUMPDEST PUSH0 DUP1 PUSH1 0x10 SLOAD PUSH1 0x12 SLOAD PUSH1 0x1A SLOAD PUSH2 0x2575 SWAP2 SWAP1 PUSH2 0x3344 JUMP JUMPDEST PUSH2 0x257F SWAP2 SWAP1 PUSH2 0x3344 JUMP JUMPDEST SWAP1 POP PUSH0 PUSH1 0x64 PUSH2 0x258E DUP4 DUP7 PUSH2 0x3416 JUMP JUMPDEST PUSH2 0x2598 SWAP2 SWAP1 PUSH2 0x342D JUMP JUMPDEST SWAP5 SWAP4 POP POP POP POP JUMP JUMPDEST PUSH0 DUP1 PUSH0 PUSH2 0x25AB PUSH2 0x28C4 JUMP JUMPDEST SWAP1 SWAP3 POP SWAP1 POP PUSH2 0x25BA DUP2 DUP4 PUSH2 0x342D JUMP JUMPDEST SWAP3 POP POP POP SWAP1 JUMP JUMPDEST PUSH1 0x1F DUP1 SLOAD PUSH1 0xFF NOT AND PUSH1 0x1 OR SWAP1 SSTORE PUSH1 0x1A SLOAD ISZERO PUSH2 0x27AB JUMPI PUSH1 0x1A SLOAD PUSH1 0x14 SLOAD SELFBALANCE SWAP2 PUSH0 SWAP2 PUSH2 0x25EA SWAP1 DUP6 PUSH2 0x3416 JUMP JUMPDEST PUSH2 0x25F4 SWAP2 SWAP1 PUSH2 0x342D JUMP JUMPDEST SWAP1 POP PUSH0 PUSH2 0x2602 PUSH1 0x2 DUP4 PUSH2 0x342D JUMP JUMPDEST SWAP1 POP PUSH0 PUSH2 0x260F DUP3 DUP5 PUSH2 0x3331 JUMP JUMPDEST SWAP1 POP PUSH2 0x2623 PUSH2 0x261E DUP3 DUP8 PUSH2 0x3331 JUMP JUMPDEST PUSH2 0x2A34 JUMP JUMPDEST PUSH0 PUSH2 0x262E DUP6 SELFBALANCE PUSH2 0x3331 JUMP JUMPDEST PUSH1 0xB SLOAD PUSH1 0x14 SLOAD SWAP2 SWAP3 POP PUSH2 0x269E SWAP2 PUSH1 0x1 PUSH1 0x1 PUSH1 0xA0 SHL SUB SWAP1 SWAP2 AND SWAP1 PUSH1 0x2 SWAP1 PUSH2 0x2655 SWAP1 PUSH1 0xA PUSH2 0x3416 JUMP JUMPDEST PUSH2 0x265F SWAP2 SWAP1 PUSH2 0x342D JUMP JUMPDEST PUSH1 0x1A SLOAD PUSH2 0x266D SWAP1 PUSH1 0xA PUSH2 0x3416 JUMP JUMPDEST PUSH2 0x2677 SWAP2 SWAP1 PUSH2 0x3331 JUMP JUMPDEST PUSH1 0x16 SLOAD PUSH2 0x2685 SWAP1 PUSH1 0xA PUSH2 0x3416 JUMP JUMPDEST PUSH2 0x268F SWAP1 DUP6 PUSH2 0x3416 JUMP JUMPDEST PUSH2 0x2699 SWAP2 SWAP1 PUSH2 0x342D JUMP JUMPDEST PUSH2 0x2C17 JUMP JUMPDEST PUSH1 0xC SLOAD PUSH1 0x14 SLOAD PUSH2 0x26F0 SWAP2 PUSH1 0x1 PUSH1 0x1 PUSH1 0xA0 SHL SUB AND SWAP1 PUSH1 0x2 SWAP1 PUSH2 0x26C0 SWAP1 PUSH1 0xA PUSH2 0x3416 JUMP JUMPDEST PUSH2 0x26CA SWAP2 SWAP1 PUSH2 0x342D JUMP JUMPDEST PUSH1 0x1A SLOAD PUSH2 0x26D8 SWAP1 PUSH1 0xA PUSH2 0x3416 JUMP JUMPDEST PUSH2 0x26E2 SWAP2 SWAP1 PUSH2 0x3331 JUMP JUMPDEST PUSH1 0x18 SLOAD PUSH2 0x2685 SWAP1 PUSH1 0xA PUSH2 0x3416 JUMP JUMPDEST PUSH0 PUSH1 0x2 PUSH1 0x14 SLOAD PUSH1 0xA PUSH2 0x2702 SWAP2 SWAP1 PUSH2 0x3416 JUMP JUMPDEST PUSH2 0x270C SWAP2 SWAP1 PUSH2 0x342D JUMP JUMPDEST PUSH1 0x1A SLOAD PUSH2 0x271A SWAP1 PUSH1 0xA PUSH2 0x3416 JUMP JUMPDEST PUSH2 0x2724 SWAP2 SWAP1 PUSH2 0x3331 JUMP JUMPDEST PUSH1 0x2 PUSH1 0x14 SLOAD DUP5 PUSH2 0x2734 SWAP2 SWAP1 PUSH2 0x3416 JUMP JUMPDEST PUSH2 0x273F SWAP1 PUSH1 0xA PUSH2 0x3416 JUMP JUMPDEST PUSH2 0x2749 SWAP2 SWAP1 PUSH2 0x342D JUMP JUMPDEST PUSH2 0x2753 SWAP2 SWAP1 PUSH2 0x342D JUMP JUMPDEST SWAP1 POP PUSH2 0x275F DUP4 DUP3 PUSH2 0x2CB6 JUMP JUMPDEST PUSH1 0x40 DUP1 MLOAD DUP6 DUP2 MSTORE PUSH1 0x20 DUP2 ADD DUP4 SWAP1 MSTORE SWAP1 DUP2 ADD DUP5 SWAP1 MSTORE PUSH32 0x17BBFB9A6069321B6DED73BD96327C9E6B7212A5CD51FF219CD61370ACAFB561 SWAP1 PUSH1 0x60 ADD PUSH1 0x40 MLOAD DUP1 SWAP2 SUB SWAP1 LOG1 POP POP POP POP POP POP PUSH2 0x2830 JUMP JUMPDEST PUSH32 0x994931395F904589897E94F536B6B7EA3D2C3B2B567E6319FDF216C61EEF0107 PUSH1 0x40 MLOAD PUSH2 0x2827 SWAP1 PUSH1 0x20 DUP1 DUP3 MSTORE PUSH1 0x34 SWAP1 DUP3 ADD MSTORE PUSH32 0x5F636F6D62696E65644C697175696469747946656520697320302C20736B6970 PUSH1 0x40 DUP3 ADD MSTORE PUSH20 0x3834B7339039BBB0B820B7322634B8BAB4B33C97 PUSH1 0x61 SHL PUSH1 0x60 DUP3 ADD MSTORE PUSH1 0x80 ADD SWAP1 JUMP JUMPDEST PUSH1 0x40 MLOAD DUP1 SWAP2 SUB SWAP1 LOG1 JUMPDEST POP PUSH1 0x1F DUP1 SLOAD PUSH1 0xFF NOT AND SWAP1 SSTORE JUMP JUMPDEST DUP1 PUSH2 0x2885 JUMPI PUSH2 0x2885 PUSH1 0x1A DUP1 SLOAD PUSH1 0x1B SSTORE PUSH1 0x14 DUP1 SLOAD PUSH1 0x15 SSTORE PUSH1 0x10 DUP1 SLOAD PUSH1 0x11 SSTORE PUSH1 0x12 DUP1 SLOAD PUSH1 0x13 SSTORE PUSH1 0x16 DUP1 SLOAD PUSH1 0x17 SSTORE PUSH1 0x18 DUP1 SLOAD PUSH1 0x19 SSTORE PUSH0 SWAP6 DUP7 SWAP1 SSTORE SWAP4 DUP6 SWAP1 SSTORE SWAP2 DUP5 SWAP1 SSTORE DUP4 SWAP1 SSTORE DUP3 SWAP1 SSTORE SSTORE JUMP JUMPDEST PUSH2 0x2890 DUP5 DUP5 DUP5 PUSH2 0x2DB9 JUMP JUMPDEST DUP1 PUSH2 0x28BE JUMPI PUSH2 0x28BE PUSH1 0x1B SLOAD PUSH1 0x1A SSTORE PUSH1 0x15 SLOAD PUSH1 0x14 SSTORE PUSH1 0x11 SLOAD PUSH1 0x10 SSTORE PUSH1 0x13 SLOAD PUSH1 0x12 SSTORE PUSH1 0x17 SLOAD PUSH1 0x16 SSTORE PUSH1 0x19 SLOAD PUSH1 0x18 SSTORE JUMP JUMPDEST POP POP POP POP JUMP JUMPDEST PUSH1 0xE SLOAD PUSH1 0xD SLOAD PUSH0 SWAP2 DUP3 SWAP2 DUP3 JUMPDEST PUSH1 0xA SLOAD DUP2 LT ISZERO PUSH2 0x2A03 JUMPI DUP3 PUSH1 0x6 PUSH0 PUSH1 0xA DUP5 DUP2 SLOAD DUP2 LT PUSH2 0x28F1 JUMPI PUSH2 0x28F1 PUSH2 0x344C JUMP JUMPDEST PUSH0 SWAP2 DUP3 MSTORE PUSH1 0x20 DUP1 DUP4 KECCAK256 SWAP1 SWAP2 ADD SLOAD PUSH1 0x1 PUSH1 0x1 PUSH1 0xA0 SHL SUB AND DUP4 MSTORE DUP3 ADD SWAP3 SWAP1 SWAP3 MSTORE PUSH1 0x40 ADD SWAP1 KECCAK256 SLOAD GT DUP1 PUSH2 0x2959 JUMPI POP DUP2 PUSH1 0x7 PUSH0 PUSH1 0xA DUP5 DUP2 SLOAD DUP2 LT PUSH2 0x2933 JUMPI PUSH2 0x2933 PUSH2 0x344C JUMP JUMPDEST PUSH0 SWAP2 DUP3 MSTORE PUSH1 0x20 DUP1 DUP4 KECCAK256 SWAP1 SWAP2 ADD SLOAD PUSH1 0x1 PUSH1 0x1 PUSH1 0xA0 SHL SUB AND DUP4 MSTORE DUP3 ADD SWAP3 SWAP1 SWAP3 MSTORE PUSH1 0x40 ADD SWAP1 KECCAK256 SLOAD GT JUMPDEST ISZERO PUSH2 0x296F JUMPI PUSH1 0xE SLOAD PUSH1 0xD SLOAD SWAP5 POP SWAP5 POP POP POP POP SWAP1 SWAP2 JUMP JUMPDEST PUSH1 0x6 PUSH0 PUSH1 0xA DUP4 DUP2 SLOAD DUP2 LT PUSH2 0x2985 JUMPI PUSH2 0x2985 PUSH2 0x344C JUMP JUMPDEST PUSH0 SWAP2 DUP3 MSTORE PUSH1 0x20 DUP1 DUP4 KECCAK256 SWAP1 SWAP2 ADD SLOAD PUSH1 0x1 PUSH1 0x1 PUSH1 0xA0 SHL SUB AND DUP4 MSTORE DUP3 ADD SWAP3 SWAP1 SWAP3 MSTORE PUSH1 0x40 ADD SWAP1 KECCAK256 SLOAD PUSH2 0x29B3 SWAP1 DUP5 PUSH2 0x3331 JUMP JUMPDEST SWAP3 POP PUSH1 0x7 PUSH0 PUSH1 0xA DUP4 DUP2 SLOAD DUP2 LT PUSH2 0x29CB JUMPI PUSH2 0x29CB PUSH2 0x344C JUMP JUMPDEST PUSH0 SWAP2 DUP3 MSTORE PUSH1 0x20 DUP1 DUP4 KECCAK256 SWAP1 SWAP2 ADD SLOAD PUSH1 0x1 PUSH1 0x1 PUSH1 0xA0 SHL SUB AND DUP4 MSTORE DUP3 ADD SWAP3 SWAP1 SWAP3 MSTORE PUSH1 0x40 ADD SWAP1 KECCAK256 SLOAD PUSH2 0x29F9 SWAP1 DUP4 PUSH2 0x3331 JUMP JUMPDEST SWAP2 POP PUSH1 0x1 ADD PUSH2 0x28D0 JUMP JUMPDEST POP PUSH1 0xD SLOAD PUSH1 0xE SLOAD PUSH2 0x2A14 SWAP2 SWAP1 PUSH2 0x342D JUMP JUMPDEST DUP3 LT ISZERO PUSH2 0x2A2B JUMPI PUSH1 0xE SLOAD PUSH1 0xD SLOAD SWAP4 POP SWAP4 POP POP POP SWAP1 SWAP2 JUMP JUMPDEST SWAP1 SWAP4 SWAP1 SWAP3 POP SWAP1 POP JUMP JUMPDEST PUSH1 0x40 DUP1 MLOAD PUSH1 0x2 DUP1 DUP3 MSTORE PUSH1 0x60 DUP3 ADD DUP4 MSTORE PUSH0 SWAP3 PUSH1 0x20 DUP4 ADD SWAP1 DUP1 CALLDATASIZE DUP4 CALLDATACOPY ADD SWAP1 POP POP SWAP1 POP ADDRESS DUP2 PUSH0 DUP2 MLOAD DUP2 LT PUSH2 0x2A67 JUMPI PUSH2 0x2A67 PUSH2 0x344C JUMP JUMPDEST PUSH1 0x20 MUL PUSH1 0x20 ADD ADD SWAP1 PUSH1 0x1 PUSH1 0x1 PUSH1 0xA0 SHL SUB AND SWAP1 DUP2 PUSH1 0x1 PUSH1 0x1 PUSH1 0xA0 SHL SUB AND DUP2 MSTORE POP POP PUSH32 0x0 PUSH1 0x1 PUSH1 0x1 PUSH1 0xA0 SHL SUB AND PUSH4 0xAD5C4648 PUSH1 0x40 MLOAD DUP2 PUSH4 0xFFFFFFFF AND PUSH1 0xE0 SHL DUP2 MSTORE PUSH1 0x4 ADD PUSH1 0x20 PUSH1 0x40 MLOAD DUP1 DUP4 SUB DUP2 DUP7 GAS STATICCALL ISZERO DUP1 ISZERO PUSH2 0x2AE3 JUMPI RETURNDATASIZE PUSH0 DUP1 RETURNDATACOPY RETURNDATASIZE PUSH0 REVERT JUMPDEST POP POP POP POP PUSH1 0x40 MLOAD RETURNDATASIZE PUSH1 0x1F NOT PUSH1 0x1F DUP3 ADD AND DUP3 ADD DUP1 PUSH1 0x40 MSTORE POP DUP2 ADD SWAP1 PUSH2 0x2B07 SWAP2 SWAP1 PUSH2 0x3474 JUMP JUMPDEST DUP2 PUSH1 0x1 DUP2 MLOAD DUP2 LT PUSH2 0x2B1A JUMPI PUSH2 0x2B1A PUSH2 0x344C JUMP JUMPDEST PUSH1 0x20 MUL PUSH1 0x20 ADD ADD SWAP1 PUSH1 0x1 PUSH1 0x1 PUSH1 0xA0 SHL SUB AND SWAP1 DUP2 PUSH1 0x1 PUSH1 0x1 PUSH1 0xA0 SHL SUB AND DUP2 MSTORE POP POP PUSH2 0x2B65 ADDRESS PUSH32 0x0 DUP5 PUSH2 0x1E95 JUMP JUMPDEST PUSH1 0x40 MLOAD PUSH4 0x791AC947 PUSH1 0xE0 SHL DUP2 MSTORE PUSH1 0x1 PUSH1 0x1 PUSH1 0xA0 SHL SUB PUSH32 0x0 AND SWAP1 PUSH4 0x791AC947 SWAP1 PUSH2 0x2BB9 SWAP1 DUP6 SWAP1 PUSH0 SWAP1 DUP7 SWAP1 ADDRESS SWAP1 TIMESTAMP SWAP1 PUSH1 0x4 ADD PUSH2 0x34D2 JUMP JUMPDEST PUSH0 PUSH1 0x40 MLOAD DUP1 DUP4 SUB DUP2 PUSH0 DUP8 DUP1 EXTCODESIZE ISZERO DUP1 ISZERO PUSH2 0x2BD0 JUMPI PUSH0 DUP1 REVERT JUMPDEST POP GAS CALL ISZERO DUP1 ISZERO PUSH2 0x2BE2 JUMPI RETURNDATASIZE PUSH0 DUP1 RETURNDATACOPY RETURNDATASIZE PUSH0 REVERT JUMPDEST POP POP POP POP PUSH32 0x32CDE87EB454F3A0B875AB23547023107CFAD454363EC88BA5695E2C24AA52A7 DUP3 DUP3 PUSH1 0x40 MLOAD PUSH2 0xD3E SWAP3 SWAP2 SWAP1 PUSH2 0x350D JUMP JUMPDEST PUSH0 DUP3 PUSH1 0x1 PUSH1 0x1 PUSH1 0xA0 SHL SUB AND DUP3 PUSH1 0x40 MLOAD PUSH0 PUSH1 0x40 MLOAD DUP1 DUP4 SUB DUP2 DUP6 DUP8 GAS CALL SWAP3 POP POP POP RETURNDATASIZE DUP1 PUSH0 DUP2 EQ PUSH2 0x2C60 JUMPI PUSH1 0x40 MLOAD SWAP2 POP PUSH1 0x1F NOT PUSH1 0x3F RETURNDATASIZE ADD AND DUP3 ADD PUSH1 0x40 MSTORE RETURNDATASIZE DUP3 MSTORE RETURNDATASIZE PUSH0 PUSH1 0x20 DUP5 ADD RETURNDATACOPY PUSH2 0x2C65 JUMP JUMPDEST PUSH1 0x60 SWAP2 POP JUMPDEST POP POP SWAP1 POP DUP1 PUSH2 0x1203 JUMPI DUP3 PUSH1 0x1 PUSH1 0x1 PUSH1 0xA0 SHL SUB AND PUSH32 0x1C43B9761B3FBA5321CA8212BFC231945F668CCC0C446F333999EEA9CE8FDA81 DUP4 PUSH1 0x40 MLOAD PUSH2 0x2CA9 SWAP2 DUP2 MSTORE PUSH1 0x20 ADD SWAP1 JUMP JUMPDEST PUSH1 0x40 MLOAD DUP1 SWAP2 SUB SWAP1 LOG2 POP POP POP JUMP JUMPDEST PUSH2 0x2CE1 ADDRESS PUSH32 0x0 DUP5 PUSH2 0x1E95 JUMP JUMPDEST PUSH32 0x0 PUSH1 0x1 PUSH1 0x1 PUSH1 0xA0 SHL SUB AND PUSH4 0xF305D719 DUP3 ADDRESS DUP6 PUSH0 DUP1 PUSH2 0x2D27 PUSH1 0x5 SLOAD PUSH1 0x1 PUSH1 0x1 PUSH1 0xA0 SHL SUB AND SWAP1 JUMP JUMPDEST PUSH1 0x40 MLOAD PUSH1 0xE0 DUP9 SWAP1 SHL PUSH1 0x1 PUSH1 0x1 PUSH1 0xE0 SHL SUB NOT AND DUP2 MSTORE PUSH1 0x1 PUSH1 0x1 PUSH1 0xA0 SHL SUB SWAP6 DUP7 AND PUSH1 0x4 DUP3 ADD MSTORE PUSH1 0x24 DUP2 ADD SWAP5 SWAP1 SWAP5 MSTORE PUSH1 0x44 DUP5 ADD SWAP3 SWAP1 SWAP3 MSTORE PUSH1 0x64 DUP4 ADD MSTORE SWAP1 SWAP2 AND PUSH1 0x84 DUP3 ADD MSTORE TIMESTAMP PUSH1 0xA4 DUP3 ADD MSTORE PUSH1 0xC4 ADD PUSH1 0x60 PUSH1 0x40 MLOAD DUP1 DUP4 SUB DUP2 DUP6 DUP9 GAS CALL ISZERO DUP1 ISZERO PUSH2 0x2D8D JUMPI RETURNDATASIZE PUSH0 DUP1 RETURNDATACOPY RETURNDATASIZE PUSH0 REVERT JUMPDEST POP POP POP POP POP PUSH1 0x40 MLOAD RETURNDATASIZE PUSH1 0x1F NOT PUSH1 0x1F DUP3 ADD AND DUP3 ADD DUP1 PUSH1 0x40 MSTORE POP DUP2 ADD SWAP1 PUSH2 0x2DB2 SWAP2 SWAP1 PUSH2 0x3525 JUMP JUMPDEST POP POP POP POP POP JUMP JUMPDEST PUSH0 DUP1 PUSH0 DUP1 PUSH2 0x2DC6 DUP6 PUSH2 0x1E44 JUMP JUMPDEST PUSH1 0x1 PUSH1 0x1 PUSH1 0xA0 SHL SUB DUP12 AND PUSH0 SWAP1 DUP2 MSTORE PUSH1 0x6 PUSH1 0x20 MSTORE PUSH1 0x40 SWAP1 KECCAK256 SLOAD SWAP4 SWAP8 POP SWAP2 SWAP6 POP SWAP4 POP SWAP2 POP PUSH2 0x2DF3 SWAP1 DUP6 SWAP1 PUSH2 0x3331 JUMP JUMPDEST PUSH1 0x1 PUSH1 0x1 PUSH1 0xA0 SHL SUB DUP1 DUP10 AND PUSH0 SWAP1 DUP2 MSTORE PUSH1 0x6 PUSH1 0x20 MSTORE PUSH1 0x40 DUP1 DUP3 KECCAK256 SWAP4 SWAP1 SWAP4 SSTORE SWAP1 DUP9 AND DUP2 MSTORE KECCAK256 SLOAD PUSH2 0x2E22 SWAP1 DUP5 SWAP1 PUSH2 0x3344 JUMP JUMPDEST PUSH1 0x1 PUSH1 0x1 PUSH1 0xA0 SHL SUB DUP1 DUP9 AND PUSH0 SWAP1 DUP2 MSTORE PUSH1 0x6 PUSH1 0x20 SWAP1 DUP2 MSTORE PUSH1 0x40 DUP1 DUP4 KECCAK256 SWAP5 SWAP1 SWAP5 SSTORE SWAP2 DUP11 AND DUP2 MSTORE PUSH1 0x9 SWAP1 SWAP2 MSTORE KECCAK256 SLOAD PUSH1 0xFF AND DUP1 ISZERO PUSH2 0x2E74 JUMPI POP PUSH1 0x1 PUSH1 0x1 PUSH1 0xA0 SHL SUB DUP7 AND PUSH0 SWAP1 DUP2 MSTORE PUSH1 0x9 PUSH1 0x20 MSTORE PUSH1 0x40 SWAP1 KECCAK256 SLOAD PUSH1 0xFF AND ISZERO JUMPDEST ISZERO PUSH2 0x2EB9 JUMPI PUSH1 0x1 PUSH1 0x1 PUSH1 0xA0 SHL SUB DUP8 AND PUSH0 SWAP1 DUP2 MSTORE PUSH1 0x7 PUSH1 0x20 MSTORE PUSH1 0x40 SWAP1 KECCAK256 SLOAD PUSH2 0x2E9C SWAP1 DUP7 SWAP1 PUSH2 0x3331 JUMP JUMPDEST PUSH1 0x1 PUSH1 0x1 PUSH1 0xA0 SHL SUB DUP9 AND PUSH0 SWAP1 DUP2 MSTORE PUSH1 0x7 PUSH1 0x20 MSTORE PUSH1 0x40 SWAP1 KECCAK256 SSTORE PUSH2 0x2FEB JUMP JUMPDEST PUSH1 0x1 PUSH1 0x1 PUSH1 0xA0 SHL SUB DUP8 AND PUSH0 SWAP1 DUP2 MSTORE PUSH1 0x9 PUSH1 0x20 MSTORE PUSH1 0x40 SWAP1 KECCAK256 SLOAD PUSH1 0xFF AND ISZERO DUP1 ISZERO PUSH2 0x2EF8 JUMPI POP PUSH1 0x1 PUSH1 0x1 PUSH1 0xA0 SHL SUB DUP7 AND PUSH0 SWAP1 DUP2 MSTORE PUSH1 0x9 PUSH1 0x20 MSTORE PUSH1 0x40 SWAP1 KECCAK256 SLOAD PUSH1 0xFF AND JUMPDEST ISZERO PUSH2 0x2F3D JUMPI PUSH1 0x1 PUSH1 0x1 PUSH1 0xA0 SHL SUB DUP7 AND PUSH0 SWAP1 DUP2 MSTORE PUSH1 0x7 PUSH1 0x20 MSTORE PUSH1 0x40 SWAP1 KECCAK256 SLOAD PUSH2 0x2F20 SWAP1 DUP4 SWAP1 PUSH2 0x3344 JUMP JUMPDEST PUSH1 0x1 PUSH1 0x1 PUSH1 0xA0 SHL SUB DUP8 AND PUSH0 SWAP1 DUP2 MSTORE PUSH1 0x7 PUSH1 0x20 MSTORE PUSH1 0x40 SWAP1 KECCAK256 SSTORE PUSH2 0x2FEB JUMP JUMPDEST PUSH1 0x1 PUSH1 0x1 PUSH1 0xA0 SHL SUB DUP8 AND PUSH0 SWAP1 DUP2 MSTORE PUSH1 0x9 PUSH1 0x20 MSTORE PUSH1 0x40 SWAP1 KECCAK256 SLOAD PUSH1 0xFF AND DUP1 ISZERO PUSH2 0x2F7B JUMPI POP PUSH1 0x1 PUSH1 0x1 PUSH1 0xA0 SHL SUB DUP7 AND PUSH0 SWAP1 DUP2 MSTORE PUSH1 0x9 PUSH1 0x20 MSTORE PUSH1 0x40 SWAP1 KECCAK256 SLOAD PUSH1 0xFF AND JUMPDEST ISZERO PUSH2 0x2FEB JUMPI PUSH1 0x1 PUSH1 0x1 PUSH1 0xA0 SHL SUB DUP8 AND PUSH0 SWAP1 DUP2 MSTORE PUSH1 0x7 PUSH1 0x20 MSTORE PUSH1 0x40 SWAP1 KECCAK256 SLOAD PUSH2 0x2FA3 SWAP1 DUP7 SWAP1 PUSH2 0x3331 JUMP JUMPDEST PUSH1 0x1 PUSH1 0x1 PUSH1 0xA0 SHL SUB DUP1 DUP10 AND PUSH0 SWAP1 DUP2 MSTORE PUSH1 0x7 PUSH1 0x20 MSTORE PUSH1 0x40 DUP1 DUP3 KECCAK256 SWAP4 SWAP1 SWAP4 SSTORE SWAP1 DUP9 AND DUP2 MSTORE KECCAK256 SLOAD PUSH2 0x2FD2 SWAP1 DUP4 SWAP1 PUSH2 0x3344 JUMP JUMPDEST PUSH1 0x1 PUSH1 0x1 PUSH1 0xA0 SHL SUB DUP8 AND PUSH0 SWAP1 DUP2 MSTORE PUSH1 0x7 PUSH1 0x20 MSTORE PUSH1 0x40 SWAP1 KECCAK256 SSTORE JUMPDEST PUSH2 0x2FF5 DUP6 DUP3 PUSH2 0x3052 JUMP JUMPDEST PUSH2 0x3000 DUP8 DUP7 DUP4 PUSH2 0x30A4 JUMP JUMPDEST PUSH2 0x300F DUP8 DUP7 DUP4 PUSH1 0x1A SLOAD ADDRESS PUSH2 0x3120 JUMP JUMPDEST DUP6 PUSH1 0x1 PUSH1 0x1 PUSH1 0xA0 SHL SUB AND DUP8 PUSH1 0x1 PUSH1 0x1 PUSH1 0xA0 SHL SUB AND PUSH0 DUP1 MLOAD PUSH1 0x20 PUSH2 0x3551 DUP4 CODECOPY DUP2 MLOAD SWAP2 MSTORE DUP5 PUSH1 0x40 MLOAD PUSH2 0x3041 SWAP2 DUP2 MSTORE PUSH1 0x20 ADD SWAP1 JUMP JUMPDEST PUSH1 0x40 MLOAD DUP1 SWAP2 SUB SWAP1 LOG3 POP POP POP POP POP POP POP JUMP JUMPDEST PUSH0 PUSH1 0x64 PUSH1 0x12 SLOAD DUP5 PUSH2 0x3063 SWAP2 SWAP1 PUSH2 0x3416 JUMP JUMPDEST PUSH2 0x306D SWAP2 SWAP1 PUSH2 0x342D JUMP JUMPDEST SWAP1 POP PUSH0 PUSH2 0x307A DUP4 DUP4 PUSH2 0x3416 JUMP JUMPDEST SWAP1 POP DUP1 PUSH1 0xE SLOAD PUSH2 0x308A SWAP2 SWAP1 PUSH2 0x3331 JUMP JUMPDEST PUSH1 0xE SSTORE PUSH1 0xF SLOAD PUSH2 0x309B SWAP1 DUP4 SWAP1 PUSH2 0x3344 JUMP JUMPDEST PUSH1 0xF SSTORE POP POP POP POP JUMP JUMPDEST PUSH0 PUSH1 0x64 PUSH1 0x10 SLOAD DUP5 PUSH2 0x30B5 SWAP2 SWAP1 PUSH2 0x3416 JUMP JUMPDEST PUSH2 0x30BF SWAP2 SWAP1 PUSH2 0x342D JUMP JUMPDEST SWAP1 POP DUP1 ISZERO PUSH2 0x28BE JUMPI PUSH0 PUSH2 0x30D2 DUP4 DUP4 PUSH2 0x3416 JUMP JUMPDEST SWAP1 POP DUP2 PUSH1 0xD SLOAD PUSH2 0x30E2 SWAP2 SWAP1 PUSH2 0x3331 JUMP JUMPDEST PUSH1 0xD SSTORE PUSH1 0xE SLOAD PUSH2 0x30F3 SWAP1 DUP3 SWAP1 PUSH2 0x3331 JUMP JUMPDEST PUSH1 0xE SSTORE PUSH1 0x40 MLOAD DUP3 DUP2 MSTORE PUSH0 SWAP1 PUSH1 0x1 PUSH1 0x1 PUSH1 0xA0 SHL SUB DUP8 AND SWAP1 PUSH0 DUP1 MLOAD PUSH1 0x20 PUSH2 0x3551 DUP4 CODECOPY DUP2 MLOAD SWAP2 MSTORE SWAP1 PUSH1 0x20 ADD PUSH2 0x247E JUMP JUMPDEST PUSH0 PUSH1 0x64 PUSH2 0x312D DUP5 DUP8 PUSH2 0x3416 JUMP JUMPDEST PUSH2 0x3137 SWAP2 SWAP1 PUSH2 0x342D JUMP JUMPDEST SWAP1 POP DUP1 ISZERO PUSH2 0x31B0 JUMPI PUSH0 PUSH2 0x314A DUP6 DUP4 PUSH2 0x3416 JUMP JUMPDEST PUSH1 0x1 PUSH1 0x1 PUSH1 0xA0 SHL SUB DUP5 AND PUSH0 SWAP1 DUP2 MSTORE PUSH1 0x6 PUSH1 0x20 MSTORE PUSH1 0x40 SWAP1 KECCAK256 SLOAD SWAP1 SWAP2 POP PUSH2 0x3170 SWAP1 DUP3 SWAP1 PUSH2 0x3344 JUMP JUMPDEST PUSH1 0x1 PUSH1 0x1 PUSH1 0xA0 SHL SUB DUP1 DUP6 AND PUSH0 DUP2 DUP2 MSTORE PUSH1 0x6 PUSH1 0x20 MSTORE PUSH1 0x40 SWAP1 DUP2 SWAP1 KECCAK256 SWAP4 SWAP1 SWAP4 SSTORE SWAP2 MLOAD SWAP1 DUP10 AND SWAP1 PUSH0 DUP1 MLOAD PUSH1 0x20 PUSH2 0x3551 DUP4 CODECOPY DUP2 MLOAD SWAP2 MSTORE SWAP1 PUSH2 0x3041 SWAP1 DUP7 DUP2 MSTORE PUSH1 0x20 ADD SWAP1 JUMP JUMPDEST POP POP POP POP POP POP JUMP JUMPDEST PUSH0 PUSH1 0x20 DUP3 DUP5 SUB SLT ISZERO PUSH2 0x31C8 JUMPI PUSH0 DUP1 REVERT JUMPDEST POP CALLDATALOAD SWAP2 SWAP1 POP JUMP JUMPDEST PUSH1 0x20 DUP2 MSTORE PUSH0 DUP3 MLOAD DUP1 PUSH1 0x20 DUP5 ADD MSTORE DUP1 PUSH1 0x20 DUP6 ADD PUSH1 0x40 DUP6 ADD MCOPY PUSH0 PUSH1 0x40 DUP3 DUP6 ADD ADD MSTORE PUSH1 0x40 PUSH1 0x1F NOT PUSH1 0x1F DUP4 ADD AND DUP5 ADD ADD SWAP2 POP POP SWAP3 SWAP2 POP POP JUMP JUMPDEST PUSH1 0x1 PUSH1 0x1 PUSH1 0xA0 SHL SUB DUP2 AND DUP2 EQ PUSH2 0xBAF JUMPI PUSH0 DUP1 REVERT JUMPDEST PUSH0 DUP1 PUSH1 0x40 DUP4 DUP6 SUB SLT ISZERO PUSH2 0x3229 JUMPI PUSH0 DUP1 REVERT JUMPDEST DUP3 CALLDATALOAD PUSH2 0x3234 DUP2 PUSH2 0x3204 JUMP JUMPDEST SWAP5 PUSH1 0x20 SWAP4 SWAP1 SWAP4 ADD CALLDATALOAD SWAP4 POP POP POP JUMP JUMPDEST PUSH0 DUP1 PUSH0 PUSH1 0x60 DUP5 DUP7 SUB SLT ISZERO PUSH2 0x3254 JUMPI PUSH0 DUP1 REVERT JUMPDEST DUP4 CALLDATALOAD PUSH2 0x325F DUP2 PUSH2 0x3204 JUMP JUMPDEST SWAP3 POP PUSH1 0x20 DUP5 ADD CALLDATALOAD PUSH2 0x326F DUP2 PUSH2 0x3204 JUMP JUMPDEST SWAP3 SWAP6 SWAP3 SWAP5 POP POP POP PUSH1 0x40 SWAP2 SWAP1 SWAP2 ADD CALLDATALOAD SWAP1 JUMP JUMPDEST PUSH0 PUSH1 0x20 DUP3 DUP5 SUB SLT ISZERO PUSH2 0x3290 JUMPI PUSH0 DUP1 REVERT JUMPDEST DUP2 CALLDATALOAD PUSH2 0x2508 DUP2 PUSH2 0x3204 JUMP JUMPDEST DUP1 ISZERO ISZERO DUP2 EQ PUSH2 0xBAF JUMPI PUSH0 DUP1 REVERT JUMPDEST PUSH0 DUP1 PUSH1 0x40 DUP4 DUP6 SUB SLT ISZERO PUSH2 0x32B9 JUMPI PUSH0 DUP1 REVERT JUMPDEST DUP3 CALLDATALOAD SWAP2 POP PUSH1 0x20 DUP4 ADD CALLDATALOAD PUSH2 0x32CB DUP2 PUSH2 0x329B JUMP JUMPDEST DUP1 SWAP2 POP POP SWAP3 POP SWAP3 SWAP1 POP JUMP JUMPDEST PUSH0 PUSH1 0x20 DUP3 DUP5 SUB SLT ISZERO PUSH2 0x32E6 JUMPI PUSH0 DUP1 REVERT JUMPDEST DUP2 CALLDATALOAD PUSH2 0x2508 DUP2 PUSH2 0x329B JUMP JUMPDEST PUSH0 DUP1 PUSH1 0x40 DUP4 DUP6 SUB SLT ISZERO PUSH2 0x3302 JUMPI PUSH0 DUP1 REVERT JUMPDEST DUP3 CALLDATALOAD PUSH2 0x330D DUP2 PUSH2 0x3204 JUMP JUMPDEST SWAP2 POP PUSH1 0x20 DUP4 ADD CALLDATALOAD PUSH2 0x32CB DUP2 PUSH2 0x3204 JUMP JUMPDEST PUSH4 0x4E487B71 PUSH1 0xE0 SHL PUSH0 MSTORE PUSH1 0x11 PUSH1 0x4 MSTORE PUSH1 0x24 PUSH0 REVERT JUMPDEST DUP2 DUP2 SUB DUP2 DUP2 GT ISZERO PUSH2 0xABC JUMPI PUSH2 0xABC PUSH2 0x331D JUMP JUMPDEST DUP1 DUP3 ADD DUP1 DUP3 GT ISZERO PUSH2 0xABC JUMPI PUSH2 0xABC PUSH2 0x331D JUMP JUMPDEST PUSH1 0x1 DUP2 DUP2 SHR SWAP1 DUP3 AND DUP1 PUSH2 0x336B JUMPI PUSH1 0x7F DUP3 AND SWAP2 POP JUMPDEST PUSH1 0x20 DUP3 LT DUP2 SUB PUSH2 0x3389 JUMPI PUSH4 0x4E487B71 PUSH1 0xE0 SHL PUSH0 MSTORE PUSH1 0x22 PUSH1 0x4 MSTORE PUSH1 0x24 PUSH0 REVERT JUMPDEST POP SWAP2 SWAP1 POP JUMP JUMPDEST PUSH1 0x20 DUP1 DUP3 MSTORE DUP2 DUP2 ADD MSTORE PUSH32 0x4F776E61626C653A2063616C6C6572206973206E6F7420746865206F776E6572 PUSH1 0x40 DUP3 ADD MSTORE PUSH1 0x60 ADD SWAP1 JUMP JUMPDEST PUSH1 0x20 DUP1 DUP3 MSTORE PUSH1 0x1F SWAP1 DUP3 ADD MSTORE PUSH32 0x546F74616C20666565732065786365656420746865203525206C696D69742E00 PUSH1 0x40 DUP3 ADD MSTORE PUSH1 0x60 ADD SWAP1 JUMP JUMPDEST PUSH0 PUSH1 0x20 DUP3 DUP5 SUB SLT ISZERO PUSH2 0x340B JUMPI PUSH0 DUP1 REVERT JUMPDEST DUP2 MLOAD PUSH2 0x2508 DUP2 PUSH2 0x329B JUMP JUMPDEST DUP1 DUP3 MUL DUP2 ISZERO DUP3 DUP3 DIV DUP5 EQ OR PUSH2 0xABC JUMPI PUSH2 0xABC PUSH2 0x331D JUMP JUMPDEST PUSH0 DUP3 PUSH2 0x3447 JUMPI PUSH4 0x4E487B71 PUSH1 0xE0 SHL PUSH0 MSTORE PUSH1 0x12 PUSH1 0x4 MSTORE PUSH1 0x24 PUSH0 REVERT JUMPDEST POP DIV SWAP1 JUMP JUMPDEST PUSH4 0x4E487B71 PUSH1 0xE0 SHL PUSH0 MSTORE PUSH1 0x32 PUSH1 0x4 MSTORE PUSH1 0x24 PUSH0 REVERT JUMPDEST PUSH4 0x4E487B71 PUSH1 0xE0 SHL PUSH0 MSTORE PUSH1 0x31 PUSH1 0x4 MSTORE PUSH1 0x24 PUSH0 REVERT JUMPDEST PUSH0 PUSH1 0x20 DUP3 DUP5 SUB SLT ISZERO PUSH2 0x3484 JUMPI PUSH0 DUP1 REVERT JUMPDEST DUP2 MLOAD PUSH2 0x2508 DUP2 PUSH2 0x3204 JUMP JUMPDEST PUSH0 DUP2 MLOAD DUP1 DUP5 MSTORE PUSH1 0x20 DUP1 DUP6 ADD SWAP5 POP PUSH1 0x20 DUP5 ADD PUSH0 JUMPDEST DUP4 DUP2 LT ISZERO PUSH2 0x34C7 JUMPI DUP2 MLOAD PUSH1 0x1 PUSH1 0x1 PUSH1 0xA0 SHL SUB AND DUP8 MSTORE SWAP6 DUP3 ADD SWAP6 SWAP1 DUP3 ADD SWAP1 PUSH1 0x1 ADD PUSH2 0x34A2 JUMP JUMPDEST POP SWAP5 SWAP6 SWAP5 POP POP POP POP POP JUMP JUMPDEST DUP6 DUP2 MSTORE DUP5 PUSH1 0x20 DUP3 ADD MSTORE PUSH1 0xA0 PUSH1 0x40 DUP3 ADD MSTORE PUSH0 PUSH2 0x34F0 PUSH1 0xA0 DUP4 ADD DUP7 PUSH2 0x348F JUMP JUMPDEST PUSH1 0x1 PUSH1 0x1 PUSH1 0xA0 SHL SUB SWAP5 SWAP1 SWAP5 AND PUSH1 0x60 DUP4 ADD MSTORE POP PUSH1 0x80 ADD MSTORE SWAP4 SWAP3 POP POP POP JUMP JUMPDEST DUP3 DUP2 MSTORE PUSH1 0x40 PUSH1 0x20 DUP3 ADD MSTORE PUSH0 PUSH2 0x2598 PUSH1 0x40 DUP4 ADD DUP5 PUSH2 0x348F JUMP JUMPDEST PUSH0 DUP1 PUSH0 PUSH1 0x60 DUP5 DUP7 SUB SLT ISZERO PUSH2 0x3537 JUMPI PUSH0 DUP1 REVERT JUMPDEST DUP4 MLOAD SWAP3 POP PUSH1 0x20 DUP5 ADD MLOAD SWAP2 POP PUSH1 0x40 DUP5 ADD MLOAD SWAP1 POP SWAP3 POP SWAP3 POP SWAP3 JUMP INVALID 0xDD CALLCODE MSTORE 0xAD SHL 0xE2 0xC8 SWAP12 PUSH10 0xC2B068FC378DAA952BA7 CALL PUSH4 0xC4A11628 CREATE2 GAS 0x4D CREATE2 0x23 0xB3 0xEF LOG2 PUSH5 0x6970667358 0x22 SLT KECCAK256 0xD8 REVERT SELFDESTRUCT JUMPDEST DUP11 TLOAD 0xA5 SIGNEXTEND DUP3 PUSH21 0xA9210337801DCEADEB19363B3AED9F332B198E830A CALLER PUSH5 0x736F6C6343 STOP ADDMOD NOT STOP CALLER "
		},
		"gasEstimates": {
			"creation": {
				"codeDepositCost": "2746800",
				"executionCost": "infinite",
				"totalCost": "infinite"
			},
			"external": {
				"_burnFee()": "2449",
				"_developerFee()": "2406",
				"_liquidityPoolFee()": "2384",
				"_marketingFee()": "2451",
				"_maxTxAmount()": "2362",
				"_reflectionFee()": "2428",
				"allowance(address,address)": "infinite",
				"approve(address,uint256)": "24678",
				"balanceOf(address)": "infinite",
				"burn(uint256)": "infinite",
				"burnFrom(address,uint256)": "infinite",
				"deadAddress()": "infinite",
				"decimals()": "266",
				"decreaseAllowance(address,uint256)": "26945",
				"developerAddress()": "2403",
				"excludeAccountFromReward(address)": "infinite",
				"excludeFromFee(address)": "26809",
				"includeAccountinReward(address)": "infinite",
				"includeInFee(address)": "26846",
				"increaseAllowance(address,uint256)": "infinite",
				"isExcluded(address)": "2629",
				"isExcludedFromFee(address)": "2630",
				"isPresale()": "2476",
				"marketingAddress()": "2425",
				"name()": "infinite",
				"owner()": "2442",
				"presale(bool)": "infinite",
				"recoverETHfromContract()": "infinite",
				"recoverTokensFromContract(address,uint256)": "infinite",
				"reflect(uint256)": "infinite",
				"reflectionFromToken(uint256,bool)": "infinite",
				"renounceOwnership()": "28247",
				"setBurnFee(uint256)": "infinite",
				"setDeveloperAddress(address)": "28233",
				"setDeveloperFee(uint256)": "infinite",
				"setLiquidityPoolFee(uint256)": "infinite",
				"setMarketingAddress(address)": "28234",
				"setMarketingFee(uint256)": "infinite",
				"setMaxTxAmount(uint256)": "30272",
				"setReflectionFee(uint256)": "infinite",
				"setSwapAndLiquifyEnabled(bool)": "27794",
				"swapAndLiquifyEnabled()": "2476",
				"symbol()": "infinite",
				"totalFeesRedistributed()": "2403",
				"totalSupply()": "2415",
				"transfer(address,uint256)": "infinite",
				"transferFrom(address,address,uint256)": "infinite",
				"transferOwnership(address)": "infinite",
				"uniswapV2Pair()": "infinite",
				"uniswapV2Router()": "infinite"
			},
			"internal": {
				"_burn(address,uint256)": "infinite",
				"_getCompleteTaxValue(uint256)": "infinite",
				"_getCurrentSupply()": "infinite",
				"_getRate()": "infinite",
				"_getTransferValues(uint256)": "infinite",
				"_mintStart(address,uint256,uint256)": "infinite",
				"_reflectFee(uint256,uint256)": "infinite",
				"_tokenTransfer(address,address,uint256,bool)": "infinite",
				"_transfer(address,address,uint256)": "infinite",
				"_transferStandard(address,address,uint256)": "infinite",
				"addLiquidity(uint256,uint256)": "infinite",
				"burnFeeTransfer(address,uint256,uint256)": "infinite",
				"feeTransfer(address,uint256,uint256,uint256,address)": "infinite",
				"getBalance()": "infinite",
				"removeAllFee()": "infinite",
				"restoreAllFee()": "infinite",
				"swapTokens(uint256)": "infinite",
				"swapTokensForEth(uint256)": "infinite",
				"tokenFromReflection(uint256)": "infinite",
				"transferToAddressETH(address payable,uint256)": "infinite"
			}
		},
		"methodIdentifiers": {
			"_burnFee()": "c0b0fda2",
			"_developerFee()": "48de478e",
			"_liquidityPoolFee()": "8a0623b4",
			"_marketingFee()": "22976e0d",
			"_maxTxAmount()": "7d1db4a5",
			"_reflectionFee()": "3206b4aa",
			"allowance(address,address)": "dd62ed3e",
			"approve(address,uint256)": "095ea7b3",
			"balanceOf(address)": "70a08231",
			"burn(uint256)": "42966c68",
			"burnFrom(address,uint256)": "79cc6790",
			"deadAddress()": "27c8f835",
			"decimals()": "313ce567",
			"decreaseAllowance(address,uint256)": "a457c2d7",
			"developerAddress()": "caccd7f7",
			"excludeAccountFromReward(address)": "6049876e",
			"excludeFromFee(address)": "437823ec",
			"includeAccountinReward(address)": "fdeb889f",
			"includeInFee(address)": "ea2f0b37",
			"increaseAllowance(address,uint256)": "39509351",
			"isExcluded(address)": "cba0e996",
			"isExcludedFromFee(address)": "5342acb4",
			"isPresale()": "95364a84",
			"marketingAddress()": "a5ece941",
			"name()": "06fdde03",
			"owner()": "8da5cb5b",
			"presale(bool)": "edc2fcfb",
			"recoverETHfromContract()": "ce831ed5",
			"recoverTokensFromContract(address,uint256)": "e6be4a72",
			"reflect(uint256)": "053ab182",
			"reflectionFromToken(uint256,bool)": "4549b039",
			"renounceOwnership()": "715018a6",
			"setBurnFee(uint256)": "4bf2c7c9",
			"setDeveloperAddress(address)": "dcc345f2",
			"setDeveloperFee(uint256)": "6c317232",
			"setLiquidityPoolFee(uint256)": "a94c8dd2",
			"setMarketingAddress(address)": "906e9dd0",
			"setMarketingFee(uint256)": "625e764c",
			"setMaxTxAmount(uint256)": "ec28438a",
			"setReflectionFee(uint256)": "e547be69",
			"setSwapAndLiquifyEnabled(bool)": "c49b9a80",
			"swapAndLiquifyEnabled()": "4a74bb02",
			"symbol()": "95d89b41",
			"totalFeesRedistributed()": "32035504",
			"totalSupply()": "18160ddd",
			"transfer(address,uint256)": "a9059cbb",
			"transferFrom(address,address,uint256)": "23b872dd",
			"transferOwnership(address)": "f2fde38b",
			"uniswapV2Pair()": "49bd5a5e",
			"uniswapV2Router()": "1694505e"
		}
	},
	"abi": [
		{
			"inputs": [],
			"stateMutability": "payable",
			"type": "constructor"
		},
		{
			"anonymous": false,
			"inputs": [
				{
					"indexed": true,
					"internalType": "address",
					"name": "owner",
					"type": "address"
				},
				{
					"indexed": true,
					"internalType": "address",
					"name": "spender",
					"type": "address"
				},
				{
					"indexed": false,
					"internalType": "uint256",
					"name": "value",
					"type": "uint256"
				}
			],
			"name": "Approval",
			"type": "event"
		},
		{
			"anonymous": false,
			"inputs": [
				{
					"indexed": false,
					"internalType": "uint256",
					"name": "oldBurnFee",
					"type": "uint256"
				},
				{
					"indexed": false,
					"internalType": "uint256",
					"name": "newBurnFee",
					"type": "uint256"
				}
			],
			"name": "BurnFeeUpdated",
			"type": "event"
		},
		{
			"anonymous": false,
			"inputs": [
				{
					"indexed": false,
					"internalType": "address",
					"name": "oldAddress",
					"type": "address"
				},
				{
					"indexed": false,
					"internalType": "address",
					"name": "newAddress",
					"type": "address"
				}
			],
			"name": "DeveloperAddressUpdated",
			"type": "event"
		},
		{
			"anonymous": false,
			"inputs": [
				{
					"indexed": false,
					"internalType": "uint256",
					"name": "oldDeveloperFee",
					"type": "uint256"
				},
				{
					"indexed": false,
					"internalType": "uint256",
					"name": "newDeveloperFee",
					"type": "uint256"
				}
			],
			"name": "DeveloperFeeUpdated",
			"type": "event"
		},
		{
			"anonymous": false,
			"inputs": [
				{
					"indexed": false,
					"internalType": "address",
					"name": "recoveryAddress",
					"type": "address"
				},
				{
					"indexed": false,
					"internalType": "uint256",
					"name": "amount",
					"type": "uint256"
				}
			],
			"name": "EthRecoveredFromContract",
			"type": "event"
		},
		{
			"anonymous": false,
			"inputs": [
				{
					"indexed": false,
					"internalType": "uint256",
					"name": "oldLiquidityPoolFee",
					"type": "uint256"
				},
				{
					"indexed": false,
					"internalType": "uint256",
					"name": "newLiquidityPoolFee",
					"type": "uint256"
				}
			],
			"name": "LiquidityPoolFeeUpdated",
			"type": "event"
		},
		{
			"anonymous": false,
			"inputs": [
				{
					"indexed": false,
					"internalType": "address",
					"name": "oldAddress",
					"type": "address"
				},
				{
					"indexed": false,
					"internalType": "address",
					"name": "newAddress",
					"type": "address"
				}
			],
			"name": "MarketingAddressUpdated",
			"type": "event"
		},
		{
			"anonymous": false,
			"inputs": [
				{
					"indexed": false,
					"internalType": "uint256",
					"name": "oldMarketingFee",
					"type": "uint256"
				},
				{
					"indexed": false,
					"internalType": "uint256",
					"name": "newMarketingFee",
					"type": "uint256"
				}
			],
			"name": "MarketingFeeUpdated",
			"type": "event"
		},
		{
			"anonymous": false,
			"inputs": [
				{
					"indexed": false,
					"internalType": "uint256",
					"name": "oldMaxTxAmount",
					"type": "uint256"
				},
				{
					"indexed": false,
					"internalType": "uint256",
					"name": "newMaxTxAmount",
					"type": "uint256"
				}
			],
			"name": "MaxTxAmountUpdated",
			"type": "event"
		},
		{
			"anonymous": false,
			"inputs": [
				{
					"indexed": true,
					"internalType": "address",
					"name": "previousOwner",
					"type": "address"
				},
				{
					"indexed": true,
					"internalType": "address",
					"name": "newOwner",
					"type": "address"
				}
			],
			"name": "OwnershipTransferred",
			"type": "event"
		},
		{
			"anonymous": false,
			"inputs": [
				{
					"indexed": false,
					"internalType": "bool",
					"name": "presale",
					"type": "bool"
				}
			],
			"name": "PresaleFlagUpdated",
			"type": "event"
		},
		{
			"anonymous": false,
			"inputs": [
				{
					"indexed": false,
					"internalType": "uint256",
					"name": "oldReflectionFee",
					"type": "uint256"
				},
				{
					"indexed": false,
					"internalType": "uint256",
					"name": "newReflectionFee",
					"type": "uint256"
				}
			],
			"name": "ReflectionFeeUpdated",
			"type": "event"
		},
		{
			"anonymous": false,
			"inputs": [
				{
					"indexed": false,
					"internalType": "uint256",
					"name": "tokensSwapped",
					"type": "uint256"
				},
				{
					"indexed": false,
					"internalType": "uint256",
					"name": "ethReceived",
					"type": "uint256"
				},
				{
					"indexed": false,
					"internalType": "uint256",
					"name": "tokensIntoLiqudity",
					"type": "uint256"
				}
			],
			"name": "SwapAndLiquify",
			"type": "event"
		},
		{
			"anonymous": false,
			"inputs": [
				{
					"indexed": false,
					"internalType": "bool",
					"name": "enabled",
					"type": "bool"
				}
			],
			"name": "SwapAndLiquifyEnabledUpdated",
			"type": "event"
		},
		{
			"anonymous": false,
			"inputs": [
				{
					"indexed": false,
					"internalType": "string",
					"name": "message",
					"type": "string"
				}
			],
			"name": "SwapAndLiquifyFailed",
			"type": "event"
		},
		{
			"anonymous": false,
			"inputs": [
				{
					"indexed": false,
					"internalType": "uint256",
					"name": "amountIn",
					"type": "uint256"
				},
				{
					"indexed": false,
					"internalType": "address[]",
					"name": "path",
					"type": "address[]"
				}
			],
			"name": "SwapTokensForETH",
			"type": "event"
		},
		{
			"anonymous": false,
			"inputs": [
				{
					"indexed": false,
					"internalType": "address",
					"name": "tokenAddress",
					"type": "address"
				},
				{
					"indexed": false,
					"internalType": "address",
					"name": "recoveryAddress",
					"type": "address"
				},
				{
					"indexed": false,
					"internalType": "uint256",
					"name": "amount",
					"type": "uint256"
				}
			],
			"name": "TokensRecoveredFromContract",
			"type": "event"
		},
		{
			"anonymous": false,
			"inputs": [
				{
					"indexed": true,
					"internalType": "address",
					"name": "from",
					"type": "address"
				},
				{
					"indexed": true,
					"internalType": "address",
					"name": "to",
					"type": "address"
				},
				{
					"indexed": false,
					"internalType": "uint256",
					"name": "value",
					"type": "uint256"
				}
			],
			"name": "Transfer",
			"type": "event"
		},
		{
			"anonymous": false,
			"inputs": [
				{
					"indexed": true,
					"internalType": "address",
					"name": "recipient",
					"type": "address"
				},
				{
					"indexed": false,
					"internalType": "uint256",
					"name": "amount",
					"type": "uint256"
				}
			],
			"name": "TransferFailed",
			"type": "event"
		},
		{
			"inputs": [],
			"name": "_burnFee",
			"outputs": [
				{
					"internalType": "uint256",
					"name": "",
					"type": "uint256"
				}
			],
			"stateMutability": "view",
			"type": "function"
		},
		{
			"inputs": [],
			"name": "_developerFee",
			"outputs": [
				{
					"internalType": "uint256",
					"name": "",
					"type": "uint256"
				}
			],
			"stateMutability": "view",
			"type": "function"
		},
		{
			"inputs": [],
			"name": "_liquidityPoolFee",
			"outputs": [
				{
					"internalType": "uint256",
					"name": "",
					"type": "uint256"
				}
			],
			"stateMutability": "view",
			"type": "function"
		},
		{
			"inputs": [],
			"name": "_marketingFee",
			"outputs": [
				{
					"internalType": "uint256",
					"name": "",
					"type": "uint256"
				}
			],
			"stateMutability": "view",
			"type": "function"
		},
		{
			"inputs": [],
			"name": "_maxTxAmount",
			"outputs": [
				{
					"internalType": "uint256",
					"name": "",
					"type": "uint256"
				}
			],
			"stateMutability": "view",
			"type": "function"
		},
		{
			"inputs": [],
			"name": "_reflectionFee",
			"outputs": [
				{
					"internalType": "uint256",
					"name": "",
					"type": "uint256"
				}
			],
			"stateMutability": "view",
			"type": "function"
		},
		{
			"inputs": [
				{
					"internalType": "address",
					"name": "owner",
					"type": "address"
				},
				{
					"internalType": "address",
					"name": "spender",
					"type": "address"
				}
			],
			"name": "allowance",
			"outputs": [
				{
					"internalType": "uint256",
					"name": "",
					"type": "uint256"
				}
			],
			"stateMutability": "view",
			"type": "function"
		},
		{
			"inputs": [
				{
					"internalType": "address",
					"name": "spender",
					"type": "address"
				},
				{
					"internalType": "uint256",
					"name": "amount",
					"type": "uint256"
				}
			],
			"name": "approve",
			"outputs": [
				{
					"internalType": "bool",
					"name": "",
					"type": "bool"
				}
			],
			"stateMutability": "nonpayable",
			"type": "function"
		},
		{
			"inputs": [
				{
					"internalType": "address",
					"name": "sender",
					"type": "address"
				}
			],
			"name": "balanceOf",
			"outputs": [
				{
					"internalType": "uint256",
					"name": "",
					"type": "uint256"
				}
			],
			"stateMutability": "view",
			"type": "function"
		},
		{
			"inputs": [
				{
					"internalType": "uint256",
					"name": "amount",
					"type": "uint256"
				}
			],
			"name": "burn",
			"outputs": [],
			"stateMutability": "nonpayable",
			"type": "function"
		},
		{
			"inputs": [
				{
					"internalType": "address",
					"name": "account",
					"type": "address"
				},
				{
					"internalType": "uint256",
					"name": "amount",
					"type": "uint256"
				}
			],
			"name": "burnFrom",
			"outputs": [],
			"stateMutability": "nonpayable",
			"type": "function"
		},
		{
			"inputs": [],
			"name": "deadAddress",
			"outputs": [
				{
					"internalType": "address",
					"name": "",
					"type": "address"
				}
			],
			"stateMutability": "view",
			"type": "function"
		},
		{
			"inputs": [],
			"name": "decimals",
			"outputs": [
				{
					"internalType": "uint8",
					"name": "",
					"type": "uint8"
				}
			],
			"stateMutability": "view",
			"type": "function"
		},
		{
			"inputs": [
				{
					"internalType": "address",
					"name": "spender",
					"type": "address"
				},
				{
					"internalType": "uint256",
					"name": "subtractedValue",
					"type": "uint256"
				}
			],
			"name": "decreaseAllowance",
			"outputs": [
				{
					"internalType": "bool",
					"name": "",
					"type": "bool"
				}
			],
			"stateMutability": "nonpayable",
			"type": "function"
		},
		{
			"inputs": [],
			"name": "developerAddress",
			"outputs": [
				{
					"internalType": "address payable",
					"name": "",
					"type": "address"
				}
			],
			"stateMutability": "view",
			"type": "function"
		},
		{
			"inputs": [
				{
					"internalType": "address",
					"name": "account",
					"type": "address"
				}
			],
			"name": "excludeAccountFromReward",
			"outputs": [],
			"stateMutability": "nonpayable",
			"type": "function"
		},
		{
			"inputs": [
				{
					"internalType": "address",
					"name": "account",
					"type": "address"
				}
			],
			"name": "excludeFromFee",
			"outputs": [],
			"stateMutability": "nonpayable",
			"type": "function"
		},
		{
			"inputs": [
				{
					"internalType": "address",
					"name": "account",
					"type": "address"
				}
			],
			"name": "includeAccountinReward",
			"outputs": [],
			"stateMutability": "nonpayable",
			"type": "function"
		},
		{
			"inputs": [
				{
					"internalType": "address",
					"name": "account",
					"type": "address"
				}
			],
			"name": "includeInFee",
			"outputs": [],
			"stateMutability": "nonpayable",
			"type": "function"
		},
		{
			"inputs": [
				{
					"internalType": "address",
					"name": "spender",
					"type": "address"
				},
				{
					"internalType": "uint256",
					"name": "addedValue",
					"type": "uint256"
				}
			],
			"name": "increaseAllowance",
			"outputs": [
				{
					"internalType": "bool",
					"name": "",
					"type": "bool"
				}
			],
			"stateMutability": "nonpayable",
			"type": "function"
		},
		{
			"inputs": [
				{
					"internalType": "address",
					"name": "account",
					"type": "address"
				}
			],
			"name": "isExcluded",
			"outputs": [
				{
					"internalType": "bool",
					"name": "",
					"type": "bool"
				}
			],
			"stateMutability": "view",
			"type": "function"
		},
		{
			"inputs": [
				{
					"internalType": "address",
					"name": "account",
					"type": "address"
				}
			],
			"name": "isExcludedFromFee",
			"outputs": [
				{
					"internalType": "bool",
					"name": "",
					"type": "bool"
				}
			],
			"stateMutability": "view",
			"type": "function"
		},
		{
			"inputs": [],
			"name": "isPresale",
			"outputs": [
				{
					"internalType": "bool",
					"name": "",
					"type": "bool"
				}
			],
			"stateMutability": "view",
			"type": "function"
		},
		{
			"inputs": [],
			"name": "marketingAddress",
			"outputs": [
				{
					"internalType": "address payable",
					"name": "",
					"type": "address"
				}
			],
			"stateMutability": "view",
			"type": "function"
		},
		{
			"inputs": [],
			"name": "name",
			"outputs": [
				{
					"internalType": "string",
					"name": "",
					"type": "string"
				}
			],
			"stateMutability": "view",
			"type": "function"
		},
		{
			"inputs": [],
			"name": "owner",
			"outputs": [
				{
					"internalType": "address",
					"name": "",
					"type": "address"
				}
			],
			"stateMutability": "view",
			"type": "function"
		},
		{
			"inputs": [
				{
					"internalType": "bool",
					"name": "_presale",
					"type": "bool"
				}
			],
			"name": "presale",
			"outputs": [],
			"stateMutability": "nonpayable",
			"type": "function"
		},
		{
			"inputs": [],
			"name": "recoverETHfromContract",
			"outputs": [],
			"stateMutability": "nonpayable",
			"type": "function"
		},
		{
			"inputs": [
				{
					"internalType": "address",
					"name": "_tokenAddress",
					"type": "address"
				},
				{
					"internalType": "uint256",
					"name": "_amount",
					"type": "uint256"
				}
			],
			"name": "recoverTokensFromContract",
			"outputs": [],
			"stateMutability": "nonpayable",
			"type": "function"
		},
		{
			"inputs": [
				{
					"internalType": "uint256",
					"name": "tAmount",
					"type": "uint256"
				}
			],
			"name": "reflect",
			"outputs": [],
			"stateMutability": "nonpayable",
			"type": "function"
		},
		{
			"inputs": [
				{
					"internalType": "uint256",
					"name": "tAmount",
					"type": "uint256"
				},
				{
					"internalType": "bool",
					"name": "deductTransferFee",
					"type": "bool"
				}
			],
			"name": "reflectionFromToken",
			"outputs": [
				{
					"internalType": "uint256",
					"name": "",
					"type": "uint256"
				}
			],
			"stateMutability": "view",
			"type": "function"
		},
		{
			"inputs": [],
			"name": "renounceOwnership",
			"outputs": [],
			"stateMutability": "nonpayable",
			"type": "function"
		},
		{
			"inputs": [
				{
					"internalType": "uint256",
					"name": "burnFee_",
					"type": "uint256"
				}
			],
			"name": "setBurnFee",
			"outputs": [],
			"stateMutability": "nonpayable",
			"type": "function"
		},
		{
			"inputs": [
				{
					"internalType": "address",
					"name": "_developerAddress",
					"type": "address"
				}
			],
			"name": "setDeveloperAddress",
			"outputs": [],
			"stateMutability": "nonpayable",
			"type": "function"
		},
		{
			"inputs": [
				{
					"internalType": "uint256",
					"name": "developerFee_",
					"type": "uint256"
				}
			],
			"name": "setDeveloperFee",
			"outputs": [],
			"stateMutability": "nonpayable",
			"type": "function"
		},
		{
			"inputs": [
				{
					"internalType": "uint256",
					"name": "liquidityPoolFee_",
					"type": "uint256"
				}
			],
			"name": "setLiquidityPoolFee",
			"outputs": [],
			"stateMutability": "nonpayable",
			"type": "function"
		},
		{
			"inputs": [
				{
					"internalType": "address",
					"name": "_marketingAddress",
					"type": "address"
				}
			],
			"name": "setMarketingAddress",
			"outputs": [],
			"stateMutability": "nonpayable",
			"type": "function"
		},
		{
			"inputs": [
				{
					"internalType": "uint256",
					"name": "marketingFee_",
					"type": "uint256"
				}
			],
			"name": "setMarketingFee",
			"outputs": [],
			"stateMutability": "nonpayable",
			"type": "function"
		},
		{
			"inputs": [
				{
					"internalType": "uint256",
					"name": "maxTxAmount",
					"type": "uint256"
				}
			],
			"name": "setMaxTxAmount",
			"outputs": [],
			"stateMutability": "nonpayable",
			"type": "function"
		},
		{
			"inputs": [
				{
					"internalType": "uint256",
					"name": "reflectionFee_",
					"type": "uint256"
				}
			],
			"name": "setReflectionFee",
			"outputs": [],
			"stateMutability": "nonpayable",
			"type": "function"
		},
		{
			"inputs": [
				{
					"internalType": "bool",
					"name": "_enabled",
					"type": "bool"
				}
			],
			"name": "setSwapAndLiquifyEnabled",
			"outputs": [],
			"stateMutability": "nonpayable",
			"type": "function"
		},
		{
			"inputs": [],
			"name": "swapAndLiquifyEnabled",
			"outputs": [
				{
					"internalType": "bool",
					"name": "",
					"type": "bool"
				}
			],
			"stateMutability": "view",
			"type": "function"
		},
		{
			"inputs": [],
			"name": "symbol",
			"outputs": [
				{
					"internalType": "string",
					"name": "",
					"type": "string"
				}
			],
			"stateMutability": "view",
			"type": "function"
		},
		{
			"inputs": [],
			"name": "totalFeesRedistributed",
			"outputs": [
				{
					"internalType": "uint256",
					"name": "",
					"type": "uint256"
				}
			],
			"stateMutability": "view",
			"type": "function"
		},
		{
			"inputs": [],
			"name": "totalSupply",
			"outputs": [
				{
					"internalType": "uint256",
					"name": "",
					"type": "uint256"
				}
			],
			"stateMutability": "view",
			"type": "function"
		},
		{
			"inputs": [
				{
					"internalType": "address",
					"name": "recipient",
					"type": "address"
				},
				{
					"internalType": "uint256",
					"name": "amount",
					"type": "uint256"
				}
			],
			"name": "transfer",
			"outputs": [
				{
					"internalType": "bool",
					"name": "",
					"type": "bool"
				}
			],
			"stateMutability": "nonpayable",
			"type": "function"
		},
		{
			"inputs": [
				{
					"internalType": "address",
					"name": "sender",
					"type": "address"
				},
				{
					"internalType": "address",
					"name": "recipient",
					"type": "address"
				},
				{
					"internalType": "uint256",
					"name": "amount",
					"type": "uint256"
				}
			],
			"name": "transferFrom",
			"outputs": [
				{
					"internalType": "bool",
					"name": "",
					"type": "bool"
				}
			],
			"stateMutability": "nonpayable",
			"type": "function"
		},
		{
			"inputs": [
				{
					"internalType": "address",
					"name": "newOwner",
					"type": "address"
				}
			],
			"name": "transferOwnership",
			"outputs": [],
			"stateMutability": "nonpayable",
			"type": "function"
		},
		{
			"inputs": [],
			"name": "uniswapV2Pair",
			"outputs": [
				{
					"internalType": "address",
					"name": "",
					"type": "address"
				}
			],
			"stateMutability": "view",
			"type": "function"
		},
		{
			"inputs": [],
			"name": "uniswapV2Router",
			"outputs": [
				{
					"internalType": "contract IUniswapV2Router02",
					"name": "",
					"type": "address"
				}
			],
			"stateMutability": "view",
			"type": "function"
		},
		{
			"stateMutability": "payable",
			"type": "receive"
		}
	]
}