{
	"data": {
		"bytecode": {
			"linkReferences": {},
			"object": "600b80546001600160a01b031990811673ed001ebb1a71dc6df6659c4e4edb070342fd4a1f17909155600c8054821673b5df28f0d138275c29536400c1452a816911b77a179055600d8054909116732c9bad149bef185d6b90daf9857aba8841f4dc841790555f6010556022805461ff001916610100908117909155600a60c090815269436f666679204465466960b01b60e0526101406040526005825264434f46464960d81b610120529060036100b783826106c2565b5060046100c482826106c2565b5050506100dd6100d86103e360201b60201c565b6103e7565b6100e96012600a610877565b6100f790633b9aca0061088c565b600e819055610107905f196108b7565b610112905f196108ca565b600f5560016011819055601281905560158190556016819055601781905560188190556019819055601a819055601b819055601c8190555f601d819055601e81905561015e82806108dd565b61016891906108dd565b61017291906108dd565b6013819055601455600e546103e89061018c90600561088c565b61019691906108f0565b601f819055602055600e54612710906101b090600261088c565b6101ba91906108f0565b6021819055505f737a250d5630b4cf539739df2c5dacb4c659f2488d9050806001600160a01b031663c45a01556040518163ffffffff1660e01b8152600401602060405180830381865afa158015610214573d5f803e3d5ffd5b505050506040513d601f19601f820116820180604052508101906102389190610903565b6001600160a01b031663c9c6539630836001600160a01b031663ad5c46486040518163ffffffff1660e01b8152600401602060405180830381865afa158015610283573d5f803e3d5ffd5b505050506040513d601f19601f820116820180604052508101906102a79190610903565b6040516001600160e01b031960e085901b1681526001600160a01b039283166004820152911660248201526044016020604051808303815f875af11580156102f1573d5f803e3d5ffd5b505050506040513d601f19601f820116820180604052508101906103159190610903565b6001600160a01b0390811660a052811660808190526103379030905f19610438565b600160085f61034e6005546001600160a01b031690565b6001600160a01b03908116825260208083019390935260409182015f908120805495151560ff19968716179055600b54821681526008909352818320805485166001908117909155600c54821684528284208054861682179055600d5490911683528183208054851682179055308352912080549092161790556103dd6103d23390565b600f54600e54610561565b50610929565b3390565b600580546001600160a01b038381166001600160a01b0319831681179093556040519116919082907f8be0079c531659141344cd1fd0a4f28419497f9722a3daafe3b4186f6b6457e0905f90a35050565b6001600160a01b03831661049f5760405162461bcd60e51b8152602060048201526024808201527f45524332303a20617070726f76652066726f6d20746865207a65726f206164646044820152637265737360e01b60648201526084015b60405180910390fd5b6001600160a01b0382166105005760405162461bcd60e51b815260206004820152602260248201527f45524332303a20617070726f766520746f20746865207a65726f206164647265604482015261737360f01b6064820152608401610496565b6001600160a01b038381165f8181526001602090815260408083209487168084529482529182902085905590518481527f8c5be1e5ebec7d5bd14f71427d1e84f3dd0314c0f7b2291e5b200ac8c7c3b92591015b60405180910390a3505050565b6001600160a01b0383166105b75760405162461bcd60e51b815260206004820152601f60248201527f45524332303a206d696e7420746f20746865207a65726f2061646472657373006044820152606401610496565b6001600160a01b0383165f908152600660205260409020546105da9083906108dd565b6001600160a01b0384165f818152600660205260408082209390935591519091907fddf252ad1be2c89b69c2b068fc378daa952ba7f163c4a11628f55a4df523b3ef906105549085815260200190565b634e487b7160e01b5f52604160045260245ffd5b600181811c9082168061065257607f821691505b60208210810361067057634e487b7160e01b5f52602260045260245ffd5b50919050565b601f8211156106bd57805f5260205f20601f840160051c8101602085101561069b5750805b601f840160051c820191505b818110156106ba575f81556001016106a7565b50505b505050565b81516001600160401b038111156106db576106db61062a565b6106ef816106e9845461063e565b84610676565b602080601f831160018114610722575f841561070b5750858301515b5f19600386901b1c1916600185901b178555610779565b5f85815260208120601f198616915b8281101561075057888601518255948401946001909101908401610731565b508582101561076d57878501515f19600388901b60f8161c191681555b505060018460011b0185555b505050505050565b634e487b7160e01b5f52601160045260245ffd5b600181815b808511156107cf57815f19048211156107b5576107b5610781565b808516156107c257918102915b93841c939080029061079a565b509250929050565b5f826107e557506001610871565b816107f157505f610871565b816001811461080757600281146108115761082d565b6001915050610871565b60ff84111561082257610822610781565b50506001821b610871565b5060208310610133831016604e8410600b8410161715610850575081810a610871565b61085a8383610795565b805f190482111561086d5761086d610781565b0290505b92915050565b5f61088560ff8416836107d7565b9392505050565b808202811582820484141761087157610871610781565b634e487b7160e01b5f52601260045260245ffd5b5f826108c5576108c56108a3565b500690565b8181038181111561087157610871610781565b8082018082111561087157610871610781565b5f826108fe576108fe6108a3565b500490565b5f60208284031215610913575f80fd5b81516001600160a01b0381168114610885575f80fd5b60805160a0516139856109665f395f81816105f8015261266301525f818161042901528181612ebf01528181612f7501526130b301526139855ff3fe608060405260043610610374575f3560e01c8063715018a6116101c8578063c3a1ed48116100fd578063dd62ed3e1161009d578063ec28438a1161006d578063ec28438a146109ec578063edc2fcfb14610a0b578063f2fde38b14610a2a578063fdeb889f14610a49575f80fd5b8063dd62ed3e1461094b578063e547be691461098f578063e6be4a72146109ae578063ea2f0b37146109cd575f80fd5b8063caccd7f7116100d8578063caccd7f7146108c2578063cba0e996146108e1578063ce831ed514610918578063dcc345f21461092c575f80fd5b8063c3a1ed481461088f578063c49b9a80146108a3578063c580c73a14610657575f80fd5b8063a073d37f11610168578063a9059cbb11610143578063a9059cbb1461081d578063a94c8dd21461083c578063afcf2fc41461085b578063c0b0fda21461087a575f80fd5b8063a073d37f146107cb578063a457c2d7146107df578063a5ece941146107fe575f80fd5b80638a0623b4116101a35780638a0623b4146107665780638da5cb5b1461077b578063906e9dd01461079857806395d89b41146107b7575f80fd5b8063715018a61461071e57806379cc6790146107325780637d1db4a514610751575f80fd5b806340212314116102a95780634a74bb02116102495780636049876e116102195780636049876e146106a2578063625e764c146106c15780636c317232146106e057806370a08231146106ff575f80fd5b80634a74bb021461061a5780634bf2c7c91461063857806350e8676c146106575780635342acb41461066b575f80fd5b8063437823ec11610284578063437823ec146105945780634549b039146105b357806348de478e146105d257806349bd5a5e146105e7575f80fd5b8063402123141461054c57806340f8007a1461056057806342966c6814610575575f80fd5b806322976e0d11610314578063313ce567116102ef578063313ce567146104e957806332035504146105045780633206b4aa14610518578063395093511461052d575f80fd5b806322976e0d146104a057806323b872dd146104b557806327c8f835146104d4575f80fd5b80630c9be46d1161034f5780630c9be46d146103f95780631694505e1461041857806318160ddd1461046357806320c7c59614610481575f80fd5b8063053ab1821461037f57806306fdde03146103a0578063095ea7b3146103ca575f80fd5b3661037b57005b5f80fd5b34801561038a575f80fd5b5061039e610399366004613588565b610a68565b005b3480156103ab575f80fd5b506103b4610b53565b6040516103c1919061359f565b60405180910390f35b3480156103d5575f80fd5b506103e96103e43660046135e8565b610be3565b60405190151581526020016103c1565b348015610404575f80fd5b5061039e610413366004613612565b610bf9565b348015610423575f80fd5b5061044b7f000000000000000000000000000000000000000000000000000000000000000081565b6040516001600160a01b0390911681526020016103c1565b34801561046e575f80fd5b50600e545b6040519081526020016103c1565b34801561048c575f80fd5b5061039e61049b366004613588565b610cee565b3480156104ab575f80fd5b5061047360195481565b3480156104c0575f80fd5b506103e96104cf36600461362d565b610e13565b3480156104df575f80fd5b5061044b61dead81565b3480156104f4575f80fd5b50604051601281526020016103c1565b34801561050f575f80fd5b50601054610473565b348015610523575f80fd5b5061047360115481565b348015610538575f80fd5b506103e96105473660046135e8565b610ebb565b348015610557575f80fd5b50610473600281565b34801561056b575f80fd5b50610473601d5481565b348015610580575f80fd5b5061039e61058f366004613588565b610ef6565b34801561059f575f80fd5b5061039e6105ae366004613612565b610f03565b3480156105be575f80fd5b506104736105cd366004613678565b610f50565b3480156105dd575f80fd5b50610473601b5481565b3480156105f2575f80fd5b5061044b7f000000000000000000000000000000000000000000000000000000000000000081565b348015610625575f80fd5b506022546103e990610100900460ff1681565b348015610643575f80fd5b5061039e610652366004613588565b610fd6565b348015610662575f80fd5b50610473600181565b348015610676575f80fd5b506103e9610685366004613612565b6001600160a01b03165f9081526008602052604090205460ff1690565b3480156106ad575f80fd5b5061039e6106bc366004613612565b611097565b3480156106cc575f80fd5b5061039e6106db366004613588565b611259565b3480156106eb575f80fd5b5061039e6106fa366004613588565b611377565b34801561070a575f80fd5b50610473610719366004613612565b611489565b348015610729575f80fd5b5061039e6114e5565b34801561073d575f80fd5b5061039e61074c3660046135e8565b61151a565b34801561075c575f80fd5b50610473601f5481565b348015610771575f80fd5b5061047360155481565b348015610786575f80fd5b506005546001600160a01b031661044b565b3480156107a3575f80fd5b5061039e6107b2366004613612565b61159f565b3480156107c2575f80fd5b506103b461168e565b3480156107d6575f80fd5b50602154610473565b3480156107ea575f80fd5b506103e96107f93660046135e8565b61169d565b348015610809575f80fd5b50600b5461044b906001600160a01b031681565b348015610828575f80fd5b506103e96108373660046135e8565b611735565b348015610847575f80fd5b5061039e610856366004613588565b611741565b348015610866575f80fd5b50600d5461044b906001600160a01b031681565b348015610885575f80fd5b5061047360175481565b34801561089a575f80fd5b50610473600581565b3480156108ae575f80fd5b5061039e6108bd3660046136a6565b611864565b3480156108cd575f80fd5b50600c5461044b906001600160a01b031681565b3480156108ec575f80fd5b506103e96108fb366004613612565b6001600160a01b03165f9081526009602052604090205460ff1690565b348015610923575f80fd5b5061039e6118e2565b348015610937575f80fd5b5061039e610946366004613612565b611a2c565b348015610956575f80fd5b506104736109653660046136c1565b6001600160a01b039182165f90815260016020908152604080832093909416825291909152205490565b34801561099a575f80fd5b5061039e6109a9366004613588565b611b1b565b3480156109b9575f80fd5b5061039e6109c83660046135e8565b611be8565b3480156109d8575f80fd5b5061039e6109e7366004613612565b611db6565b3480156109f7575f80fd5b5061039e610a06366004613588565b611e00565b348015610a16575f80fd5b5061039e610a253660046136a6565b611ef9565b348015610a35575f80fd5b5061039e610a44366004613612565b611fbd565b348015610a54575f80fd5b5061039e610a63366004613612565b612055565b335f8181526009602052604090205460ff1615610ae15760405162461bcd60e51b815260206004820152602c60248201527f4578636c75646564206164647265737365732063616e6e6f742063616c6c207460448201526b3434b990333ab731ba34b7b760a11b60648201526084015b60405180910390fd5b5f610aeb836121fa565b5050506001600160a01b0383165f90815260066020526040902054909150610b14908290613701565b6001600160a01b0383165f90815260066020526040902055600f54610b3a908290613701565b600f55601054610b4b908490613714565b601055505050565b606060038054610b6290613727565b80601f0160208091040260200160405190810160405280929190818152602001828054610b8e90613727565b8015610bd95780601f10610bb057610100808354040283529160200191610bd9565b820191905f5260205f20905b815481529060010190602001808311610bbc57829003601f168201915b5050505050905090565b5f610bef33848461224b565b5060015b92915050565b6005546001600160a01b03163314610c235760405162461bcd60e51b8152600401610ad89061375f565b6001600160a01b038116610c8c5760405162461bcd60e51b815260206004820152602a60248201527f4368617269747920616464726573732063616e6e6f7420626520746865207a65604482015269726f206164647265737360b01b6064820152608401610ad8565b600d80546001600160a01b038381166001600160a01b031983168117909355604080519190921680825260208201939093527fd824bede52134285982c2dbbfb23840eeda8d21c2ea774a50f74495d6147439291015b60405180910390a15050565b6005546001600160a01b03163314610d185760405162461bcd60e51b8152600401610ad89061375f565b6002811115610d735760405162461bcd60e51b815260206004820152602160248201527f4368617269747920666565206578636565647320746865203225206c696d69746044820152601760f91b6064820152608401610ad8565b610d7b61236e565b5f81601b54601954601554610d909190613714565b610d9a9190613714565b610da49190613714565b90506001811015610dc75760405162461bcd60e51b8152600401610ad890613794565b601d805490839055601382905560408051828152602081018590527fd3d6ff715a7f1ac2a5ed3fb8b1d5473a4d20852a8aac0e70546c851819e25bbc91015b60405180910390a1505050565b5f610e1f848484612406565b6001600160a01b0384165f90815260016020908152604080832033845290915290205482811015610ea35760405162461bcd60e51b815260206004820152602860248201527f45524332303a207472616e7366657220616d6f756e74206578636565647320616044820152676c6c6f77616e636560c01b6064820152608401610ad8565b610eb0853385840361224b565b506001949350505050565b335f8181526001602090815260408083206001600160a01b03871684529091528120549091610bef918590610ef1908690613714565b61224b565b610f00338261270d565b50565b6005546001600160a01b03163314610f2d5760405162461bcd60e51b8152600401610ad89061375f565b6001600160a01b03165f908152600860205260409020805460ff19166001179055565b5f600e54831115610fa35760405162461bcd60e51b815260206004820152601f60248201527f416d6f756e74206d757374206265206c657373207468616e20737570706c79006044820152606401610ad8565b81610fbf575f610fb2846121fa565b50919350610bf392505050565b5f610fc9846121fa565b50909350610bf392505050565b6005546001600160a01b031633146110005760405162461bcd60e51b8152600401610ad89061375f565b60018111156110515760405162461bcd60e51b815260206004820152601e60248201527f4275726e20666565206578636565647320746865203125206c696d69742e00006044820152606401610ad8565b61105961236e565b601780549082905560408051828152602081018490527f78f1461296bad7bd716a7673aa3e659cc091c348a7ed4cfef7ce452c3052f2fb9101610ce2565b6005546001600160a01b031633146110c15760405162461bcd60e51b8152600401610ad89061375f565b6001600160a01b0381165f9081526009602052604090205460ff16156111295760405162461bcd60e51b815260206004820152601b60248201527f4163636f756e7420697320616c7265616479206578636c7564656400000000006044820152606401610ad8565b306001600160a01b0382160361119d5760405162461bcd60e51b815260206004820152603360248201527f436f6e747261637420616464726573732063616e6e6f74206265206578636c756044820152723232b210333937b6903932b33632b1ba34b7b760691b6064820152608401610ad8565b6001600160a01b0381165f90815260066020526040902054156111f4576001600160a01b0381165f908152600660205260409020546111db906128db565b6001600160a01b0382165f908152600760205260409020555b6001600160a01b03165f818152600960205260408120805460ff19166001908117909155600a805491820181559091527fc65a7bb8d6351c1cf70c95a316cc6a92839c986682d98bc35f958f4883f9d2a80180546001600160a01b0319169091179055565b6005546001600160a01b031633146112835760405162461bcd60e51b8152600401610ad89061375f565b60028111156112e05760405162461bcd60e51b815260206004820152602360248201527f4d61726b6574696e6720666565206578636565647320746865203225206c696d60448201526234ba1760e91b6064820152608401610ad8565b6112e861236e565b5f601d54601b54836015546112fd9190613714565b6113079190613714565b6113119190613714565b905060018110156113345760405162461bcd60e51b8152600401610ad890613794565b6019805490839055601382905560408051828152602081018590527f043102402b1ef1ea68f92a353de80186b92415038542af2e8d748f8d6c5250329101610e06565b6005546001600160a01b031633146113a15760405162461bcd60e51b8152600401610ad89061375f565b60028111156113f25760405162461bcd60e51b815260206004820152601d60248201527f44657620666565206578636565647320746865203225206c696d69742e0000006044820152606401610ad8565b6113fa61236e565b5f601d548260195460155461140f9190613714565b6114199190613714565b6114239190613714565b905060018110156114465760405162461bcd60e51b8152600401610ad890613794565b601b805490839055601382905560408051828152602081018590527fc9d63693638bfc625de9be66171e4bf76ad4d474ac6bef7cd4c766747cd0075f9101610e06565b6001600160a01b0381165f9081526009602052604081205460ff16156114c457506001600160a01b03165f9081526007602052604090205490565b6001600160a01b0382165f90815260066020526040902054610bf3906128db565b6005546001600160a01b0316331461150f5760405162461bcd60e51b8152600401610ad89061375f565b6115185f61295d565b565b5f6115258333610965565b9050818110156115835760405162461bcd60e51b8152602060048201526024808201527f45524332303a206275726e20616d6f756e74206578636565647320616c6c6f77604482015263616e636560e01b6064820152608401610ad8565b611590833384840361224b565b61159a838361270d565b505050565b6005546001600160a01b031633146115c95760405162461bcd60e51b8152600401610ad89061375f565b6001600160a01b0381166116345760405162461bcd60e51b815260206004820152602c60248201527f4d61726b6574696e6720616464726573732063616e6e6f74206265207468652060448201526b7a65726f206164647265737360a01b6064820152608401610ad8565b600b80546001600160a01b038381166001600160a01b031983168117909355604080519190921680825260208201939093527fa8efc72ed34f90017df79620d1972d42b8e3b17eb0077fc5fc46cbf1a19ed9a99101610ce2565b606060048054610b6290613727565b335f9081526001602090815260408083206001600160a01b03861684529091528120548281101561171e5760405162461bcd60e51b815260206004820152602560248201527f45524332303a2064656372656173656420616c6c6f77616e63652062656c6f77604482015264207a65726f60d81b6064820152608401610ad8565b61172b338585840361224b565b5060019392505050565b5f610bef338484612406565b6005546001600160a01b0316331461176b5760405162461bcd60e51b8152600401610ad89061375f565b60028111156117cd5760405162461bcd60e51b815260206004820152602860248201527f4c697175696469747920706f6f6c20666565206578636565647320746865203260448201526712903634b6b4ba1760c11b6064820152608401610ad8565b6117d561236e565b5f601d54601b54601954846117ea9190613714565b6117f49190613714565b6117fe9190613714565b905060018110156118215760405162461bcd60e51b8152600401610ad890613794565b6015805490839055601382905560408051828152602081018590527fd72bb987241d30efe97862fae5c01605397a36024557bbae8ebedec081678bc29101610e06565b6005546001600160a01b0316331461188e5760405162461bcd60e51b8152600401610ad89061375f565b602280548215156101000261ff00199091161790556040517f53726dfcaf90650aa7eb35524f4d3220f07413c8d6cb404cc8c18bf5591bc159906118d790831515815260200190565b60405180910390a150565b6005546001600160a01b0316331461190c5760405162461bcd60e51b8152600401610ad89061375f565b600c5460405147915f916001600160a01b039091169083908381818185875af1925050503d805f811461195a576040519150601f19603f3d011682016040523d82523d5f602084013e61195f565b606091505b50509050806119a25760405162461bcd60e51b815260206004820152600f60248201526e151c985b9cd9995c8819985a5b1959608a1b6044820152606401610ad8565b600c5460408051818152602e918101919091527f57652068617665207265636f7665726564207468652073746f636b204554482060608201526d333937b69031b7b73a3930b1ba1760911b60808201526001600160a01b0390911660208201527f025dbd6ad989fe1a64db7dc049e29723ff9d35a97d84ae9aab96196f00ec1a009060a001610ce2565b6005546001600160a01b03163314611a565760405162461bcd60e51b8152600401610ad89061375f565b6001600160a01b038116611ac15760405162461bcd60e51b815260206004820152602c60248201527f446576656c6f70657220616464726573732063616e6e6f74206265207468652060448201526b7a65726f206164647265737360a01b6064820152608401610ad8565b600c80546001600160a01b038381166001600160a01b031983168117909355604080519190921680825260208201939093527f9a8fce0f201607a626cc555ef244d8ed346d879d2141b2964c3a955650554ae09101610ce2565b6005546001600160a01b03163314611b455760405162461bcd60e51b8152600401610ad89061375f565b6002811115611ba25760405162461bcd60e51b8152602060048201526024808201527f5265666c656374696f6e20666565206578636565647320746865203225206c6960448201526336b4ba1760e11b6064820152608401610ad8565b611baa61236e565b601180549082905560408051828152602081018490527f2c52ca41e4d19e67555be53873512bb32ca77e9e6d56b69361d6ac621a8834d19101610ce2565b6005546001600160a01b03163314611c125760405162461bcd60e51b8152600401610ad89061375f565b306001600160a01b03831603611c895760405162461bcd60e51b815260206004820152603660248201527f4f776e65722063616e277420636c61696d20636f6e747261637427732062616c604482015275616e6365206f6620697473206f776e20746f6b656e7360501b6064820152608401610ad8565b600c5460405163a9059cbb60e01b81526001600160a01b039182166004820152602481018390525f9184169063a9059cbb906044016020604051808303815f875af1158015611cda573d5f803e3d5ffd5b505050506040513d601f19601f82011682018060405250810190611cfe91906137da565b905080611d3f5760405162461bcd60e51b815260206004820152600f60248201526e151c985b9cd9995c8819985a5b1959608a1b6044820152606401610ad8565b604080518181526027918101919091527f57652068617665207265636f766572656420746f6b656e732066726f6d20636f606082015266373a3930b1ba1d60c91b6080820152602081018390527fdd970dd9b5bfe707922155b058a407655cb18288b807e2216442bca8ad83d6b59060a001610e06565b6005546001600160a01b03163314611de05760405162461bcd60e51b8152600401610ad89061375f565b6001600160a01b03165f908152600860205260409020805460ff19169055565b6005546001600160a01b03163314611e2a5760405162461bcd60e51b8152600401610ad89061375f565b6103e8600e546001611e3c91906137f5565b611e46919061380c565b811015611ebb5760405162461bcd60e51b815260206004820152603860248201527f4d61785478416d6f756e742073686f756c64206265206174206c65617374203060448201527f2e3125206f662074686520746f74616c20737570706c792e00000000000000006064820152608401610ad8565b601f80549082905560408051828152602081018490527fadcf01123294f8514884e924e20eb4f3032288087368896a17c71f09668247c89101610ce2565b6005546001600160a01b03163314611f235760405162461bcd60e51b8152600401610ad89061375f565b8015611f4b57611f325f611864565b611f3a6129ae565b601f54602055600e54601f55611f8b565b611f556001611864565b611f84601454601355601654601555601854601755601254601155601a54601955601c54601b55601e54601d55565b602054601f555b60405181151581527f754db841cd0ba8b9d7311dc4b5c8cd44b1ff98bcb4e1d8d9cab86566bce3a1fa906020016118d7565b6005546001600160a01b03163314611fe75760405162461bcd60e51b8152600401610ad89061375f565b6001600160a01b03811661204c5760405162461bcd60e51b815260206004820152602660248201527f4f776e61626c653a206e6577206f776e657220697320746865207a65726f206160448201526564647265737360d01b6064820152608401610ad8565b610f008161295d565b6005546001600160a01b0316331461207f5760405162461bcd60e51b8152600401610ad89061375f565b6001600160a01b0381165f9081526009602052604090205460ff166120e65760405162461bcd60e51b815260206004820152601b60248201527f4163636f756e7420697320616c726561647920696e636c7564656400000000006044820152606401610ad8565b5f5b600a548110156121f657816001600160a01b0316600a828154811061210f5761210f61382b565b5f918252602090912001546001600160a01b0316036121ee57600a805461213890600190613701565b815481106121485761214861382b565b5f91825260209091200154600a80546001600160a01b0390921691839081106121735761217361382b565b5f91825260208083209190910180546001600160a01b0319166001600160a01b039485161790559184168152600782526040808220829055600990925220805460ff19169055600a8054806121ca576121ca61383f565b5f8281526020902081015f1990810180546001600160a01b03191690550190555050565b6001016120e8565b5050565b5f805f805f612208866129f9565b90505f6122158288613701565b90505f612220612a39565b90505f61222d82846137f5565b90505f61223a838b6137f5565b9a9199509297509095509350505050565b6001600160a01b0383166122ad5760405162461bcd60e51b8152602060048201526024808201527f45524332303a20617070726f76652066726f6d20746865207a65726f206164646044820152637265737360e01b6064820152608401610ad8565b6001600160a01b03821661230e5760405162461bcd60e51b815260206004820152602260248201527f45524332303a20617070726f766520746f20746865207a65726f206164647265604482015261737360f01b6064820152608401610ad8565b6001600160a01b038381165f8181526001602090815260408083209487168084529482529182902085905590518481527f8c5be1e5ebec7d5bd14f71427d1e84f3dd0314c0f7b2291e5b200ac8c7c3b925910160405180910390a3505050565b5f601d54601b5460195460155460115460175461238b9190613714565b6123959190613714565b61239f9190613714565b6123a99190613714565b6123b39190613714565b90506005811115610f005760405162461bcd60e51b815260206004820152601f60248201527f546f74616c20666565732065786365656420746865203525206c696d69742e006044820152606401610ad8565b6001600160a01b03831661246a5760405162461bcd60e51b815260206004820152602560248201527f45524332303a207472616e736665722066726f6d20746865207a65726f206164604482015264647265737360d81b6064820152608401610ad8565b6001600160a01b0382166124cc5760405162461bcd60e51b815260206004820152602360248201527f45524332303a207472616e7366657220746f20746865207a65726f206164647260448201526265737360e81b6064820152608401610ad8565b5f811161252d5760405162461bcd60e51b815260206004820152602960248201527f5472616e7366657220616d6f756e74206d7573742062652067726561746572206044820152687468616e207a65726f60b81b6064820152608401610ad8565b5f61253784611489565b9050818110156125985760405162461bcd60e51b815260206004820152602660248201527f45524332303a207472616e7366657220616d6f756e7420657863656564732062604482015265616c616e636560d01b6064820152608401610ad8565b6005546001600160a01b038581169116148015906125c457506005546001600160a01b03848116911614155b1561262c57601f5482111561262c5760405162461bcd60e51b815260206004820152602860248201527f5472616e7366657220616d6f756e74206578636565647320746865206d6178546044820152673c20b6b7bab73a1760c11b6064820152608401610ad8565b5f61263630611489565b6021546022549192508210159060ff1615801561265a5750602254610100900460ff165b801561269757507f00000000000000000000000000000000000000000000000000000000000000006001600160a01b0316856001600160a01b0316145b156126b05780156126b05760215491506126b082612a5a565b6001600160a01b0386165f9081526008602052604090205460019060ff16806126f057506001600160a01b0386165f9081526008602052604090205460ff165b156126f857505f5b61270487878784612ca8565b50505050505050565b6001600160a01b03821661276d5760405162461bcd60e51b815260206004820152602160248201527f45524332303a206275726e2066726f6d20746865207a65726f206164647265736044820152607360f81b6064820152608401610ad8565b5f61277783611489565b9050818110156127d45760405162461bcd60e51b815260206004820152602260248201527f45524332303a206275726e20616d6f756e7420657863656564732062616c616e604482015261636560f01b6064820152608401610ad8565b5f6127dd612a39565b90505f6127ea82856137f5565b6001600160a01b0386165f9081526009602052604090205490915060ff1615612849576001600160a01b0385165f90815260076020526040902054612830908590613701565b6001600160a01b0386165f908152600760205260409020555b6001600160a01b0385165f9081526006602052604090205461286c908290613701565b6001600160a01b0386165f90815260066020526040902055600e54612892908590613701565b600e55600f546128a3908290613701565b600f556040518481525f906001600160a01b038716905f80516020613930833981519152906020015b60405180910390a35050505050565b5f600f548211156129415760405162461bcd60e51b815260206004820152602a60248201527f416d6f756e74206d757374206265206c657373207468616e20746f74616c207260448201526965666c656374696f6e7360b01b6064820152608401610ad8565b5f61294a612a39565b9050612956818461380c565b9392505050565b600580546001600160a01b038381166001600160a01b0319831681179093556040519116919082907f8be0079c531659141344cd1fd0a4f28419497f9722a3daafe3b4186f6b6457e0905f90a35050565b6013805460145560158054601655601780546018556011805460125560198054601a55601b8054601c55601d8054601e555f9687905594869055928590559084905583905582905555565b5f80601754601154601354612a0e9190613714565b612a189190613714565b90505f6064612a2783866137f5565b612a31919061380c565b949350505050565b5f805f612a44612cfa565b9092509050612a53818361380c565b9250505090565b6022805460ff1916600117905560135415612c9b5760135460155447915f91612a8390856137f5565b612a8d919061380c565b90505f612a9b60028361380c565b90505f612aa88284613701565b9050612abc612ab78287613701565b612e6a565b5f612ac78547613701565b90505f6002601554600a612adb91906137f5565b612ae5919061380c565b601354612af390600a6137f5565b612afd9190613701565b601954612b0b90600a6137f5565b612b1590846137f5565b612b1f919061380c565b600b54909150612b38906001600160a01b031682613012565b5f6002601554600a612b4a91906137f5565b612b54919061380c565b601354612b6290600a6137f5565b612b6c9190613701565b601b54612b7a90600a6137f5565b612b8490856137f5565b612b8e919061380c565b600c54909150612ba7906001600160a01b031682613012565b5f6002601554600a612bb991906137f5565b612bc3919061380c565b601354612bd190600a6137f5565b612bdb9190613701565b600260155486612beb91906137f5565b612bf690600a6137f5565b612c00919061380c565b612c0a919061380c565b9050612c1685826130b1565b60408051878152602081018390529081018690527f17bbfb9a6069321b6ded73bd96327c9e6b7212a5cd51ff219cd61370acafb5619060600160405180910390a15f8183612c648688613701565b612c6e9190613701565b612c789190613701565b600d54909150612c91906001600160a01b031682613012565b5050505050505050505b506022805460ff19169055565b80612cb557612cb56129ae565b612cc0848484613189565b80612cf457612cf4601454601355601654601555601854601755601254601155601a54601955601c54601b55601e54601d55565b50505050565b600f54600e545f918291825b600a54811015612e39578260065f600a8481548110612d2757612d2761382b565b5f9182526020808320909101546001600160a01b031683528201929092526040019020541180612d8f57508160075f600a8481548110612d6957612d6961382b565b5f9182526020808320909101546001600160a01b03168352820192909252604001902054115b15612da557600f54600e54945094505050509091565b60065f600a8381548110612dbb57612dbb61382b565b5f9182526020808320909101546001600160a01b03168352820192909252604001902054612de99084613701565b925060075f600a8381548110612e0157612e0161382b565b5f9182526020808320909101546001600160a01b03168352820192909252604001902054612e2f9083613701565b9150600101612d06565b50600e54600f54612e4a919061380c565b821015612e6157600f54600e549350935050509091565b90939092509050565b6040805160028082526060820183525f9260208301908036833701905050905030815f81518110612e9d57612e9d61382b565b60200260200101906001600160a01b031690816001600160a01b0316815250507f00000000000000000000000000000000000000000000000000000000000000006001600160a01b031663ad5c46486040518163ffffffff1660e01b8152600401602060405180830381865afa158015612f19573d5f803e3d5ffd5b505050506040513d601f19601f82011682018060405250810190612f3d9190613853565b81600181518110612f5057612f5061382b565b6001600160a01b03928316602091820292909201015260405163791ac94760e01b81527f00000000000000000000000000000000000000000000000000000000000000009091169063791ac94790612fb49085905f908690309042906004016138b1565b5f604051808303815f87803b158015612fcb575f80fd5b505af1158015612fdd573d5f803e3d5ffd5b505050507f32cde87eb454f3a0b875ab23547023107cfad454363ec88ba5695e2c24aa52a78282604051610ce29291906138ec565b5f826001600160a01b0316826040515f6040518083038185875af1925050503d805f811461305b576040519150601f19603f3d011682016040523d82523d5f602084013e613060565b606091505b505090508061159a57826001600160a01b03167f1c43b9761b3fba5321ca8212bfc231945f668ccc0c446f333999eea9ce8fda81836040516130a491815260200190565b60405180910390a2505050565b7f00000000000000000000000000000000000000000000000000000000000000006001600160a01b031663f305d7198230855f806130f76005546001600160a01b031690565b60405160e088901b6001600160e01b03191681526001600160a01b03958616600482015260248101949094526044840192909252606483015290911660848201524260a482015260c40160606040518083038185885af115801561315d573d5f803e3d5ffd5b50505050506040513d601f19601f820116820180604052508101906131829190613904565b5050505050565b5f805f80613196856121fa565b6001600160a01b038b165f90815260066020526040902054939750919550935091506131c3908590613701565b6001600160a01b038089165f9081526006602052604080822093909355908816815220546131f2908490613714565b6001600160a01b038088165f90815260066020908152604080832094909455918a1681526009909152205460ff16801561324457506001600160a01b0386165f9081526009602052604090205460ff16155b15613289576001600160a01b0387165f9081526007602052604090205461326c908690613701565b6001600160a01b0388165f908152600760205260409020556133bb565b6001600160a01b0387165f9081526009602052604090205460ff161580156132c857506001600160a01b0386165f9081526009602052604090205460ff165b1561330d576001600160a01b0386165f908152600760205260409020546132f0908390613714565b6001600160a01b0387165f908152600760205260409020556133bb565b6001600160a01b0387165f9081526009602052604090205460ff16801561334b57506001600160a01b0386165f9081526009602052604090205460ff165b156133bb576001600160a01b0387165f90815260076020526040902054613373908690613701565b6001600160a01b038089165f9081526007602052604080822093909355908816815220546133a2908390613714565b6001600160a01b0387165f908152600760205260409020555b6133c58582613422565b6133d0878683613474565b6133df878683601354306134f0565b856001600160a01b0316876001600160a01b03165f805160206139308339815191528460405161341191815260200190565b60405180910390a350505050505050565b5f60646011548461343391906137f5565b61343d919061380c565b90505f61344a83836137f5565b905080600f5461345a9190613701565b600f5560105461346b908390613714565b60105550505050565b5f60646017548461348591906137f5565b61348f919061380c565b90508015612cf4575f6134a283836137f5565b905081600e546134b29190613701565b600e55600f546134c3908290613701565b600f556040518281525f906001600160a01b038716905f80516020613930833981519152906020016128cc565b5f60646134fd84876137f5565b613507919061380c565b90508015613580575f61351a85836137f5565b6001600160a01b0384165f90815260066020526040902054909150613540908290613714565b6001600160a01b038085165f8181526006602052604090819020939093559151908916905f80516020613930833981519152906134119086815260200190565b505050505050565b5f60208284031215613598575f80fd5b5035919050565b602081525f82518060208401528060208501604085015e5f604082850101526040601f19601f83011684010191505092915050565b6001600160a01b0381168114610f00575f80fd5b5f80604083850312156135f9575f80fd5b8235613604816135d4565b946020939093013593505050565b5f60208284031215613622575f80fd5b8135612956816135d4565b5f805f6060848603121561363f575f80fd5b833561364a816135d4565b9250602084013561365a816135d4565b929592945050506040919091013590565b8015158114610f00575f80fd5b5f8060408385031215613689575f80fd5b82359150602083013561369b8161366b565b809150509250929050565b5f602082840312156136b6575f80fd5b81356129568161366b565b5f80604083850312156136d2575f80fd5b82356136dd816135d4565b9150602083013561369b816135d4565b634e487b7160e01b5f52601160045260245ffd5b81810381811115610bf357610bf36136ed565b80820180821115610bf357610bf36136ed565b600181811c9082168061373b57607f821691505b60208210810361375957634e487b7160e01b5f52602260045260245ffd5b50919050565b6020808252818101527f4f776e61626c653a2063616c6c6572206973206e6f7420746865206f776e6572604082015260600190565b60208082526026908201527f436f6d62696e6564206c6971756964697479206665652063616e6e6f74206265604082015265103d32b9379760d11b606082015260800190565b5f602082840312156137ea575f80fd5b81516129568161366b565b8082028115828204841417610bf357610bf36136ed565b5f8261382657634e487b7160e01b5f52601260045260245ffd5b500490565b634e487b7160e01b5f52603260045260245ffd5b634e487b7160e01b5f52603160045260245ffd5b5f60208284031215613863575f80fd5b8151612956816135d4565b5f815180845260208085019450602084015f5b838110156138a65781516001600160a01b031687529582019590820190600101613881565b509495945050505050565b85815284602082015260a060408201525f6138cf60a083018661386e565b6001600160a01b0394909416606083015250608001529392505050565b828152604060208201525f612a31604083018461386e565b5f805f60608486031215613916575f80fd5b835192506020840151915060408401519050925092509256feddf252ad1be2c89b69c2b068fc378daa952ba7f163c4a11628f55a4df523b3efa2646970667358221220d1cf4b5dd7ca2cda18285f64acae0c0a2a6187a656483fd8bec4b6687e4ad70664736f6c63430008190033",
			"opcodes": "PUSH1 0xB DUP1 SLOAD PUSH1 0x1 PUSH1 0x1 PUSH1 0xA0 SHL SUB NOT SWAP1 DUP2 AND PUSH20 0xED001EBB1A71DC6DF6659C4E4EDB070342FD4A1F OR SWAP1 SWAP2 SSTORE PUSH1 0xC DUP1 SLOAD DUP3 AND PUSH20 0xB5DF28F0D138275C29536400C1452A816911B77A OR SWAP1 SSTORE PUSH1 0xD DUP1 SLOAD SWAP1 SWAP2 AND PUSH20 0x2C9BAD149BEF185D6B90DAF9857ABA8841F4DC84 OR SWAP1 SSTORE PUSH0 PUSH1 0x10 SSTORE PUSH1 0x22 DUP1 SLOAD PUSH2 0xFF00 NOT AND PUSH2 0x100 SWAP1 DUP2 OR SWAP1 SWAP2 SSTORE PUSH1 0xA PUSH1 0xC0 SWAP1 DUP2 MSTORE PUSH10 0x436F6666792044654669 PUSH1 0xB0 SHL PUSH1 0xE0 MSTORE PUSH2 0x140 PUSH1 0x40 MSTORE PUSH1 0x5 DUP3 MSTORE PUSH5 0x434F464649 PUSH1 0xD8 SHL PUSH2 0x120 MSTORE SWAP1 PUSH1 0x3 PUSH2 0xB7 DUP4 DUP3 PUSH2 0x6C2 JUMP JUMPDEST POP PUSH1 0x4 PUSH2 0xC4 DUP3 DUP3 PUSH2 0x6C2 JUMP JUMPDEST POP POP POP PUSH2 0xDD PUSH2 0xD8 PUSH2 0x3E3 PUSH1 0x20 SHL PUSH1 0x20 SHR JUMP JUMPDEST PUSH2 0x3E7 JUMP JUMPDEST PUSH2 0xE9 PUSH1 0x12 PUSH1 0xA PUSH2 0x877 JUMP JUMPDEST PUSH2 0xF7 SWAP1 PUSH4 0x3B9ACA00 PUSH2 0x88C JUMP JUMPDEST PUSH1 0xE DUP2 SWAP1 SSTORE PUSH2 0x107 SWAP1 PUSH0 NOT PUSH2 0x8B7 JUMP JUMPDEST PUSH2 0x112 SWAP1 PUSH0 NOT PUSH2 0x8CA JUMP JUMPDEST PUSH1 0xF SSTORE PUSH1 0x1 PUSH1 0x11 DUP2 SWAP1 SSTORE PUSH1 0x12 DUP2 SWAP1 SSTORE PUSH1 0x15 DUP2 SWAP1 SSTORE PUSH1 0x16 DUP2 SWAP1 SSTORE PUSH1 0x17 DUP2 SWAP1 SSTORE PUSH1 0x18 DUP2 SWAP1 SSTORE PUSH1 0x19 DUP2 SWAP1 SSTORE PUSH1 0x1A DUP2 SWAP1 SSTORE PUSH1 0x1B DUP2 SWAP1 SSTORE PUSH1 0x1C DUP2 SWAP1 SSTORE PUSH0 PUSH1 0x1D DUP2 SWAP1 SSTORE PUSH1 0x1E DUP2 SWAP1 SSTORE PUSH2 0x15E DUP3 DUP1 PUSH2 0x8DD JUMP JUMPDEST PUSH2 0x168 SWAP2 SWAP1 PUSH2 0x8DD JUMP JUMPDEST PUSH2 0x172 SWAP2 SWAP1 PUSH2 0x8DD JUMP JUMPDEST PUSH1 0x13 DUP2 SWAP1 SSTORE PUSH1 0x14 SSTORE PUSH1 0xE SLOAD PUSH2 0x3E8 SWAP1 PUSH2 0x18C SWAP1 PUSH1 0x5 PUSH2 0x88C JUMP JUMPDEST PUSH2 0x196 SWAP2 SWAP1 PUSH2 0x8F0 JUMP JUMPDEST PUSH1 0x1F DUP2 SWAP1 SSTORE PUSH1 0x20 SSTORE PUSH1 0xE SLOAD PUSH2 0x2710 SWAP1 PUSH2 0x1B0 SWAP1 PUSH1 0x2 PUSH2 0x88C JUMP JUMPDEST PUSH2 0x1BA SWAP2 SWAP1 PUSH2 0x8F0 JUMP JUMPDEST PUSH1 0x21 DUP2 SWAP1 SSTORE POP PUSH0 PUSH20 0x7A250D5630B4CF539739DF2C5DACB4C659F2488D SWAP1 POP DUP1 PUSH1 0x1 PUSH1 0x1 PUSH1 0xA0 SHL SUB AND PUSH4 0xC45A0155 PUSH1 0x40 MLOAD DUP2 PUSH4 0xFFFFFFFF AND PUSH1 0xE0 SHL DUP2 MSTORE PUSH1 0x4 ADD PUSH1 0x20 PUSH1 0x40 MLOAD DUP1 DUP4 SUB DUP2 DUP7 GAS STATICCALL ISZERO DUP1 ISZERO PUSH2 0x214 JUMPI RETURNDATASIZE PUSH0 DUP1 RETURNDATACOPY RETURNDATASIZE PUSH0 REVERT JUMPDEST POP POP POP POP PUSH1 0x40 MLOAD RETURNDATASIZE PUSH1 0x1F NOT PUSH1 0x1F DUP3 ADD AND DUP3 ADD DUP1 PUSH1 0x40 MSTORE POP DUP2 ADD SWAP1 PUSH2 0x238 SWAP2 SWAP1 PUSH2 0x903 JUMP JUMPDEST PUSH1 0x1 PUSH1 0x1 PUSH1 0xA0 SHL SUB AND PUSH4 0xC9C65396 ADDRESS DUP4 PUSH1 0x1 PUSH1 0x1 PUSH1 0xA0 SHL SUB AND PUSH4 0xAD5C4648 PUSH1 0x40 MLOAD DUP2 PUSH4 0xFFFFFFFF AND PUSH1 0xE0 SHL DUP2 MSTORE PUSH1 0x4 ADD PUSH1 0x20 PUSH1 0x40 MLOAD DUP1 DUP4 SUB DUP2 DUP7 GAS STATICCALL ISZERO DUP1 ISZERO PUSH2 0x283 JUMPI RETURNDATASIZE PUSH0 DUP1 RETURNDATACOPY RETURNDATASIZE PUSH0 REVERT JUMPDEST POP POP POP POP PUSH1 0x40 MLOAD RETURNDATASIZE PUSH1 0x1F NOT PUSH1 0x1F DUP3 ADD AND DUP3 ADD DUP1 PUSH1 0x40 MSTORE POP DUP2 ADD SWAP1 PUSH2 0x2A7 SWAP2 SWAP1 PUSH2 0x903 JUMP JUMPDEST PUSH1 0x40 MLOAD PUSH1 0x1 PUSH1 0x1 PUSH1 0xE0 SHL SUB NOT PUSH1 0xE0 DUP6 SWAP1 SHL AND DUP2 MSTORE PUSH1 0x1 PUSH1 0x1 PUSH1 0xA0 SHL SUB SWAP3 DUP4 AND PUSH1 0x4 DUP3 ADD MSTORE SWAP2 AND PUSH1 0x24 DUP3 ADD MSTORE PUSH1 0x44 ADD PUSH1 0x20 PUSH1 0x40 MLOAD DUP1 DUP4 SUB DUP2 PUSH0 DUP8 GAS CALL ISZERO DUP1 ISZERO PUSH2 0x2F1 JUMPI RETURNDATASIZE PUSH0 DUP1 RETURNDATACOPY RETURNDATASIZE PUSH0 REVERT JUMPDEST POP POP POP POP PUSH1 0x40 MLOAD RETURNDATASIZE PUSH1 0x1F NOT PUSH1 0x1F DUP3 ADD AND DUP3 ADD DUP1 PUSH1 0x40 MSTORE POP DUP2 ADD SWAP1 PUSH2 0x315 SWAP2 SWAP1 PUSH2 0x903 JUMP JUMPDEST PUSH1 0x1 PUSH1 0x1 PUSH1 0xA0 SHL SUB SWAP1 DUP2 AND PUSH1 0xA0 MSTORE DUP2 AND PUSH1 0x80 DUP2 SWAP1 MSTORE PUSH2 0x337 SWAP1 ADDRESS SWAP1 PUSH0 NOT PUSH2 0x438 JUMP JUMPDEST PUSH1 0x1 PUSH1 0x8 PUSH0 PUSH2 0x34E PUSH1 0x5 SLOAD PUSH1 0x1 PUSH1 0x1 PUSH1 0xA0 SHL SUB AND SWAP1 JUMP JUMPDEST PUSH1 0x1 PUSH1 0x1 PUSH1 0xA0 SHL SUB SWAP1 DUP2 AND DUP3 MSTORE PUSH1 0x20 DUP1 DUP4 ADD SWAP4 SWAP1 SWAP4 MSTORE PUSH1 0x40 SWAP2 DUP3 ADD PUSH0 SWAP1 DUP2 KECCAK256 DUP1 SLOAD SWAP6 ISZERO ISZERO PUSH1 0xFF NOT SWAP7 DUP8 AND OR SWAP1 SSTORE PUSH1 0xB SLOAD DUP3 AND DUP2 MSTORE PUSH1 0x8 SWAP1 SWAP4 MSTORE DUP2 DUP4 KECCAK256 DUP1 SLOAD DUP6 AND PUSH1 0x1 SWAP1 DUP2 OR SWAP1 SWAP2 SSTORE PUSH1 0xC SLOAD DUP3 AND DUP5 MSTORE DUP3 DUP5 KECCAK256 DUP1 SLOAD DUP7 AND DUP3 OR SWAP1 SSTORE PUSH1 0xD SLOAD SWAP1 SWAP2 AND DUP4 MSTORE DUP2 DUP4 KECCAK256 DUP1 SLOAD DUP6 AND DUP3 OR SWAP1 SSTORE ADDRESS DUP4 MSTORE SWAP2 KECCAK256 DUP1 SLOAD SWAP1 SWAP3 AND OR SWAP1 SSTORE PUSH2 0x3DD PUSH2 0x3D2 CALLER SWAP1 JUMP JUMPDEST PUSH1 0xF SLOAD PUSH1 0xE SLOAD PUSH2 0x561 JUMP JUMPDEST POP PUSH2 0x929 JUMP JUMPDEST CALLER SWAP1 JUMP JUMPDEST PUSH1 0x5 DUP1 SLOAD PUSH1 0x1 PUSH1 0x1 PUSH1 0xA0 SHL SUB DUP4 DUP2 AND PUSH1 0x1 PUSH1 0x1 PUSH1 0xA0 SHL SUB NOT DUP4 AND DUP2 OR SWAP1 SWAP4 SSTORE PUSH1 0x40 MLOAD SWAP2 AND SWAP2 SWAP1 DUP3 SWAP1 PUSH32 0x8BE0079C531659141344CD1FD0A4F28419497F9722A3DAAFE3B4186F6B6457E0 SWAP1 PUSH0 SWAP1 LOG3 POP POP JUMP JUMPDEST PUSH1 0x1 PUSH1 0x1 PUSH1 0xA0 SHL SUB DUP4 AND PUSH2 0x49F JUMPI PUSH1 0x40 MLOAD PUSH3 0x461BCD PUSH1 0xE5 SHL DUP2 MSTORE PUSH1 0x20 PUSH1 0x4 DUP3 ADD MSTORE PUSH1 0x24 DUP1 DUP3 ADD MSTORE PUSH32 0x45524332303A20617070726F76652066726F6D20746865207A65726F20616464 PUSH1 0x44 DUP3 ADD MSTORE PUSH4 0x72657373 PUSH1 0xE0 SHL PUSH1 0x64 DUP3 ADD MSTORE PUSH1 0x84 ADD JUMPDEST PUSH1 0x40 MLOAD DUP1 SWAP2 SUB SWAP1 REVERT JUMPDEST PUSH1 0x1 PUSH1 0x1 PUSH1 0xA0 SHL SUB DUP3 AND PUSH2 0x500 JUMPI PUSH1 0x40 MLOAD PUSH3 0x461BCD PUSH1 0xE5 SHL DUP2 MSTORE PUSH1 0x20 PUSH1 0x4 DUP3 ADD MSTORE PUSH1 0x22 PUSH1 0x24 DUP3 ADD MSTORE PUSH32 0x45524332303A20617070726F766520746F20746865207A65726F206164647265 PUSH1 0x44 DUP3 ADD MSTORE PUSH2 0x7373 PUSH1 0xF0 SHL PUSH1 0x64 DUP3 ADD MSTORE PUSH1 0x84 ADD PUSH2 0x496 JUMP JUMPDEST PUSH1 0x1 PUSH1 0x1 PUSH1 0xA0 SHL SUB DUP4 DUP2 AND PUSH0 DUP2 DUP2 MSTORE PUSH1 0x1 PUSH1 0x20 SWAP1 DUP2 MSTORE PUSH1 0x40 DUP1 DUP4 KECCAK256 SWAP5 DUP8 AND DUP1 DUP5 MSTORE SWAP5 DUP3 MSTORE SWAP2 DUP3 SWAP1 KECCAK256 DUP6 SWAP1 SSTORE SWAP1 MLOAD DUP5 DUP2 MSTORE PUSH32 0x8C5BE1E5EBEC7D5BD14F71427D1E84F3DD0314C0F7B2291E5B200AC8C7C3B925 SWAP2 ADD JUMPDEST PUSH1 0x40 MLOAD DUP1 SWAP2 SUB SWAP1 LOG3 POP POP POP JUMP JUMPDEST PUSH1 0x1 PUSH1 0x1 PUSH1 0xA0 SHL SUB DUP4 AND PUSH2 0x5B7 JUMPI PUSH1 0x40 MLOAD PUSH3 0x461BCD PUSH1 0xE5 SHL DUP2 MSTORE PUSH1 0x20 PUSH1 0x4 DUP3 ADD MSTORE PUSH1 0x1F PUSH1 0x24 DUP3 ADD MSTORE PUSH32 0x45524332303A206D696E7420746F20746865207A65726F206164647265737300 PUSH1 0x44 DUP3 ADD MSTORE PUSH1 0x64 ADD PUSH2 0x496 JUMP JUMPDEST PUSH1 0x1 PUSH1 0x1 PUSH1 0xA0 SHL SUB DUP4 AND PUSH0 SWAP1 DUP2 MSTORE PUSH1 0x6 PUSH1 0x20 MSTORE PUSH1 0x40 SWAP1 KECCAK256 SLOAD PUSH2 0x5DA SWAP1 DUP4 SWAP1 PUSH2 0x8DD JUMP JUMPDEST PUSH1 0x1 PUSH1 0x1 PUSH1 0xA0 SHL SUB DUP5 AND PUSH0 DUP2 DUP2 MSTORE PUSH1 0x6 PUSH1 0x20 MSTORE PUSH1 0x40 DUP1 DUP3 KECCAK256 SWAP4 SWAP1 SWAP4 SSTORE SWAP2 MLOAD SWAP1 SWAP2 SWAP1 PUSH32 0xDDF252AD1BE2C89B69C2B068FC378DAA952BA7F163C4A11628F55A4DF523B3EF SWAP1 PUSH2 0x554 SWAP1 DUP6 DUP2 MSTORE PUSH1 0x20 ADD SWAP1 JUMP JUMPDEST PUSH4 0x4E487B71 PUSH1 0xE0 SHL PUSH0 MSTORE PUSH1 0x41 PUSH1 0x4 MSTORE PUSH1 0x24 PUSH0 REVERT JUMPDEST PUSH1 0x1 DUP2 DUP2 SHR SWAP1 DUP3 AND DUP1 PUSH2 0x652 JUMPI PUSH1 0x7F DUP3 AND SWAP2 POP JUMPDEST PUSH1 0x20 DUP3 LT DUP2 SUB PUSH2 0x670 JUMPI PUSH4 0x4E487B71 PUSH1 0xE0 SHL PUSH0 MSTORE PUSH1 0x22 PUSH1 0x4 MSTORE PUSH1 0x24 PUSH0 REVERT JUMPDEST POP SWAP2 SWAP1 POP JUMP JUMPDEST PUSH1 0x1F DUP3 GT ISZERO PUSH2 0x6BD JUMPI DUP1 PUSH0 MSTORE PUSH1 0x20 PUSH0 KECCAK256 PUSH1 0x1F DUP5 ADD PUSH1 0x5 SHR DUP2 ADD PUSH1 0x20 DUP6 LT ISZERO PUSH2 0x69B JUMPI POP DUP1 JUMPDEST PUSH1 0x1F DUP5 ADD PUSH1 0x5 SHR DUP3 ADD SWAP2 POP JUMPDEST DUP2 DUP2 LT ISZERO PUSH2 0x6BA JUMPI PUSH0 DUP2 SSTORE PUSH1 0x1 ADD PUSH2 0x6A7 JUMP JUMPDEST POP POP JUMPDEST POP POP POP JUMP JUMPDEST DUP2 MLOAD PUSH1 0x1 PUSH1 0x1 PUSH1 0x40 SHL SUB DUP2 GT ISZERO PUSH2 0x6DB JUMPI PUSH2 0x6DB PUSH2 0x62A JUMP JUMPDEST PUSH2 0x6EF DUP2 PUSH2 0x6E9 DUP5 SLOAD PUSH2 0x63E JUMP JUMPDEST DUP5 PUSH2 0x676 JUMP JUMPDEST PUSH1 0x20 DUP1 PUSH1 0x1F DUP4 GT PUSH1 0x1 DUP2 EQ PUSH2 0x722 JUMPI PUSH0 DUP5 ISZERO PUSH2 0x70B JUMPI POP DUP6 DUP4 ADD MLOAD JUMPDEST PUSH0 NOT PUSH1 0x3 DUP7 SWAP1 SHL SHR NOT AND PUSH1 0x1 DUP6 SWAP1 SHL OR DUP6 SSTORE PUSH2 0x779 JUMP JUMPDEST PUSH0 DUP6 DUP2 MSTORE PUSH1 0x20 DUP2 KECCAK256 PUSH1 0x1F NOT DUP7 AND SWAP2 JUMPDEST DUP3 DUP2 LT ISZERO PUSH2 0x750 JUMPI DUP9 DUP7 ADD MLOAD DUP3 SSTORE SWAP5 DUP5 ADD SWAP5 PUSH1 0x1 SWAP1 SWAP2 ADD SWAP1 DUP5 ADD PUSH2 0x731 JUMP JUMPDEST POP DUP6 DUP3 LT ISZERO PUSH2 0x76D JUMPI DUP8 DUP6 ADD MLOAD PUSH0 NOT PUSH1 0x3 DUP9 SWAP1 SHL PUSH1 0xF8 AND SHR NOT AND DUP2 SSTORE JUMPDEST POP POP PUSH1 0x1 DUP5 PUSH1 0x1 SHL ADD DUP6 SSTORE JUMPDEST POP POP POP POP POP POP JUMP JUMPDEST PUSH4 0x4E487B71 PUSH1 0xE0 SHL PUSH0 MSTORE PUSH1 0x11 PUSH1 0x4 MSTORE PUSH1 0x24 PUSH0 REVERT JUMPDEST PUSH1 0x1 DUP2 DUP2 JUMPDEST DUP1 DUP6 GT ISZERO PUSH2 0x7CF JUMPI DUP2 PUSH0 NOT DIV DUP3 GT ISZERO PUSH2 0x7B5 JUMPI PUSH2 0x7B5 PUSH2 0x781 JUMP JUMPDEST DUP1 DUP6 AND ISZERO PUSH2 0x7C2 JUMPI SWAP2 DUP2 MUL SWAP2 JUMPDEST SWAP4 DUP5 SHR SWAP4 SWAP1 DUP1 MUL SWAP1 PUSH2 0x79A JUMP JUMPDEST POP SWAP3 POP SWAP3 SWAP1 POP JUMP JUMPDEST PUSH0 DUP3 PUSH2 0x7E5 JUMPI POP PUSH1 0x1 PUSH2 0x871 JUMP JUMPDEST DUP2 PUSH2 0x7F1 JUMPI POP PUSH0 PUSH2 0x871 JUMP JUMPDEST DUP2 PUSH1 0x1 DUP2 EQ PUSH2 0x807 JUMPI PUSH1 0x2 DUP2 EQ PUSH2 0x811 JUMPI PUSH2 0x82D JUMP JUMPDEST PUSH1 0x1 SWAP2 POP POP PUSH2 0x871 JUMP JUMPDEST PUSH1 0xFF DUP5 GT ISZERO PUSH2 0x822 JUMPI PUSH2 0x822 PUSH2 0x781 JUMP JUMPDEST POP POP PUSH1 0x1 DUP3 SHL PUSH2 0x871 JUMP JUMPDEST POP PUSH1 0x20 DUP4 LT PUSH2 0x133 DUP4 LT AND PUSH1 0x4E DUP5 LT PUSH1 0xB DUP5 LT AND OR ISZERO PUSH2 0x850 JUMPI POP DUP2 DUP2 EXP PUSH2 0x871 JUMP JUMPDEST PUSH2 0x85A DUP4 DUP4 PUSH2 0x795 JUMP JUMPDEST DUP1 PUSH0 NOT DIV DUP3 GT ISZERO PUSH2 0x86D JUMPI PUSH2 0x86D PUSH2 0x781 JUMP JUMPDEST MUL SWAP1 POP JUMPDEST SWAP3 SWAP2 POP POP JUMP JUMPDEST PUSH0 PUSH2 0x885 PUSH1 0xFF DUP5 AND DUP4 PUSH2 0x7D7 JUMP JUMPDEST SWAP4 SWAP3 POP POP POP JUMP JUMPDEST DUP1 DUP3 MUL DUP2 ISZERO DUP3 DUP3 DIV DUP5 EQ OR PUSH2 0x871 JUMPI PUSH2 0x871 PUSH2 0x781 JUMP JUMPDEST PUSH4 0x4E487B71 PUSH1 0xE0 SHL PUSH0 MSTORE PUSH1 0x12 PUSH1 0x4 MSTORE PUSH1 0x24 PUSH0 REVERT JUMPDEST PUSH0 DUP3 PUSH2 0x8C5 JUMPI PUSH2 0x8C5 PUSH2 0x8A3 JUMP JUMPDEST POP MOD SWAP1 JUMP JUMPDEST DUP2 DUP2 SUB DUP2 DUP2 GT ISZERO PUSH2 0x871 JUMPI PUSH2 0x871 PUSH2 0x781 JUMP JUMPDEST DUP1 DUP3 ADD DUP1 DUP3 GT ISZERO PUSH2 0x871 JUMPI PUSH2 0x871 PUSH2 0x781 JUMP JUMPDEST PUSH0 DUP3 PUSH2 0x8FE JUMPI PUSH2 0x8FE PUSH2 0x8A3 JUMP JUMPDEST POP DIV SWAP1 JUMP JUMPDEST PUSH0 PUSH1 0x20 DUP3 DUP5 SUB SLT ISZERO PUSH2 0x913 JUMPI PUSH0 DUP1 REVERT JUMPDEST DUP2 MLOAD PUSH1 0x1 PUSH1 0x1 PUSH1 0xA0 SHL SUB DUP2 AND DUP2 EQ PUSH2 0x885 JUMPI PUSH0 DUP1 REVERT JUMPDEST PUSH1 0x80 MLOAD PUSH1 0xA0 MLOAD PUSH2 0x3985 PUSH2 0x966 PUSH0 CODECOPY PUSH0 DUP2 DUP2 PUSH2 0x5F8 ADD MSTORE PUSH2 0x2663 ADD MSTORE PUSH0 DUP2 DUP2 PUSH2 0x429 ADD MSTORE DUP2 DUP2 PUSH2 0x2EBF ADD MSTORE DUP2 DUP2 PUSH2 0x2F75 ADD MSTORE PUSH2 0x30B3 ADD MSTORE PUSH2 0x3985 PUSH0 RETURN INVALID PUSH1 0x80 PUSH1 0x40 MSTORE PUSH1 0x4 CALLDATASIZE LT PUSH2 0x374 JUMPI PUSH0 CALLDATALOAD PUSH1 0xE0 SHR DUP1 PUSH4 0x715018A6 GT PUSH2 0x1C8 JUMPI DUP1 PUSH4 0xC3A1ED48 GT PUSH2 0xFD JUMPI DUP1 PUSH4 0xDD62ED3E GT PUSH2 0x9D JUMPI DUP1 PUSH4 0xEC28438A GT PUSH2 0x6D JUMPI DUP1 PUSH4 0xEC28438A EQ PUSH2 0x9EC JUMPI DUP1 PUSH4 0xEDC2FCFB EQ PUSH2 0xA0B JUMPI DUP1 PUSH4 0xF2FDE38B EQ PUSH2 0xA2A JUMPI DUP1 PUSH4 0xFDEB889F EQ PUSH2 0xA49 JUMPI PUSH0 DUP1 REVERT JUMPDEST DUP1 PUSH4 0xDD62ED3E EQ PUSH2 0x94B JUMPI DUP1 PUSH4 0xE547BE69 EQ PUSH2 0x98F JUMPI DUP1 PUSH4 0xE6BE4A72 EQ PUSH2 0x9AE JUMPI DUP1 PUSH4 0xEA2F0B37 EQ PUSH2 0x9CD JUMPI PUSH0 DUP1 REVERT JUMPDEST DUP1 PUSH4 0xCACCD7F7 GT PUSH2 0xD8 JUMPI DUP1 PUSH4 0xCACCD7F7 EQ PUSH2 0x8C2 JUMPI DUP1 PUSH4 0xCBA0E996 EQ PUSH2 0x8E1 JUMPI DUP1 PUSH4 0xCE831ED5 EQ PUSH2 0x918 JUMPI DUP1 PUSH4 0xDCC345F2 EQ PUSH2 0x92C JUMPI PUSH0 DUP1 REVERT JUMPDEST DUP1 PUSH4 0xC3A1ED48 EQ PUSH2 0x88F JUMPI DUP1 PUSH4 0xC49B9A80 EQ PUSH2 0x8A3 JUMPI DUP1 PUSH4 0xC580C73A EQ PUSH2 0x657 JUMPI PUSH0 DUP1 REVERT JUMPDEST DUP1 PUSH4 0xA073D37F GT PUSH2 0x168 JUMPI DUP1 PUSH4 0xA9059CBB GT PUSH2 0x143 JUMPI DUP1 PUSH4 0xA9059CBB EQ PUSH2 0x81D JUMPI DUP1 PUSH4 0xA94C8DD2 EQ PUSH2 0x83C JUMPI DUP1 PUSH4 0xAFCF2FC4 EQ PUSH2 0x85B JUMPI DUP1 PUSH4 0xC0B0FDA2 EQ PUSH2 0x87A JUMPI PUSH0 DUP1 REVERT JUMPDEST DUP1 PUSH4 0xA073D37F EQ PUSH2 0x7CB JUMPI DUP1 PUSH4 0xA457C2D7 EQ PUSH2 0x7DF JUMPI DUP1 PUSH4 0xA5ECE941 EQ PUSH2 0x7FE JUMPI PUSH0 DUP1 REVERT JUMPDEST DUP1 PUSH4 0x8A0623B4 GT PUSH2 0x1A3 JUMPI DUP1 PUSH4 0x8A0623B4 EQ PUSH2 0x766 JUMPI DUP1 PUSH4 0x8DA5CB5B EQ PUSH2 0x77B JUMPI DUP1 PUSH4 0x906E9DD0 EQ PUSH2 0x798 JUMPI DUP1 PUSH4 0x95D89B41 EQ PUSH2 0x7B7 JUMPI PUSH0 DUP1 REVERT JUMPDEST DUP1 PUSH4 0x715018A6 EQ PUSH2 0x71E JUMPI DUP1 PUSH4 0x79CC6790 EQ PUSH2 0x732 JUMPI DUP1 PUSH4 0x7D1DB4A5 EQ PUSH2 0x751 JUMPI PUSH0 DUP1 REVERT JUMPDEST DUP1 PUSH4 0x40212314 GT PUSH2 0x2A9 JUMPI DUP1 PUSH4 0x4A74BB02 GT PUSH2 0x249 JUMPI DUP1 PUSH4 0x6049876E GT PUSH2 0x219 JUMPI DUP1 PUSH4 0x6049876E EQ PUSH2 0x6A2 JUMPI DUP1 PUSH4 0x625E764C EQ PUSH2 0x6C1 JUMPI DUP1 PUSH4 0x6C317232 EQ PUSH2 0x6E0 JUMPI DUP1 PUSH4 0x70A08231 EQ PUSH2 0x6FF JUMPI PUSH0 DUP1 REVERT JUMPDEST DUP1 PUSH4 0x4A74BB02 EQ PUSH2 0x61A JUMPI DUP1 PUSH4 0x4BF2C7C9 EQ PUSH2 0x638 JUMPI DUP1 PUSH4 0x50E8676C EQ PUSH2 0x657 JUMPI DUP1 PUSH4 0x5342ACB4 EQ PUSH2 0x66B JUMPI PUSH0 DUP1 REVERT JUMPDEST DUP1 PUSH4 0x437823EC GT PUSH2 0x284 JUMPI DUP1 PUSH4 0x437823EC EQ PUSH2 0x594 JUMPI DUP1 PUSH4 0x4549B039 EQ PUSH2 0x5B3 JUMPI DUP1 PUSH4 0x48DE478E EQ PUSH2 0x5D2 JUMPI DUP1 PUSH4 0x49BD5A5E EQ PUSH2 0x5E7 JUMPI PUSH0 DUP1 REVERT JUMPDEST DUP1 PUSH4 0x40212314 EQ PUSH2 0x54C JUMPI DUP1 PUSH4 0x40F8007A EQ PUSH2 0x560 JUMPI DUP1 PUSH4 0x42966C68 EQ PUSH2 0x575 JUMPI PUSH0 DUP1 REVERT JUMPDEST DUP1 PUSH4 0x22976E0D GT PUSH2 0x314 JUMPI DUP1 PUSH4 0x313CE567 GT PUSH2 0x2EF JUMPI DUP1 PUSH4 0x313CE567 EQ PUSH2 0x4E9 JUMPI DUP1 PUSH4 0x32035504 EQ PUSH2 0x504 JUMPI DUP1 PUSH4 0x3206B4AA EQ PUSH2 0x518 JUMPI DUP1 PUSH4 0x39509351 EQ PUSH2 0x52D JUMPI PUSH0 DUP1 REVERT JUMPDEST DUP1 PUSH4 0x22976E0D EQ PUSH2 0x4A0 JUMPI DUP1 PUSH4 0x23B872DD EQ PUSH2 0x4B5 JUMPI DUP1 PUSH4 0x27C8F835 EQ PUSH2 0x4D4 JUMPI PUSH0 DUP1 REVERT JUMPDEST DUP1 PUSH4 0xC9BE46D GT PUSH2 0x34F JUMPI DUP1 PUSH4 0xC9BE46D EQ PUSH2 0x3F9 JUMPI DUP1 PUSH4 0x1694505E EQ PUSH2 0x418 JUMPI DUP1 PUSH4 0x18160DDD EQ PUSH2 0x463 JUMPI DUP1 PUSH4 0x20C7C596 EQ PUSH2 0x481 JUMPI PUSH0 DUP1 REVERT JUMPDEST DUP1 PUSH4 0x53AB182 EQ PUSH2 0x37F JUMPI DUP1 PUSH4 0x6FDDE03 EQ PUSH2 0x3A0 JUMPI DUP1 PUSH4 0x95EA7B3 EQ PUSH2 0x3CA JUMPI PUSH0 DUP1 REVERT JUMPDEST CALLDATASIZE PUSH2 0x37B JUMPI STOP JUMPDEST PUSH0 DUP1 REVERT JUMPDEST CALLVALUE DUP1 ISZERO PUSH2 0x38A JUMPI PUSH0 DUP1 REVERT JUMPDEST POP PUSH2 0x39E PUSH2 0x399 CALLDATASIZE PUSH1 0x4 PUSH2 0x3588 JUMP JUMPDEST PUSH2 0xA68 JUMP JUMPDEST STOP JUMPDEST CALLVALUE DUP1 ISZERO PUSH2 0x3AB JUMPI PUSH0 DUP1 REVERT JUMPDEST POP PUSH2 0x3B4 PUSH2 0xB53 JUMP JUMPDEST PUSH1 0x40 MLOAD PUSH2 0x3C1 SWAP2 SWAP1 PUSH2 0x359F JUMP JUMPDEST PUSH1 0x40 MLOAD DUP1 SWAP2 SUB SWAP1 RETURN JUMPDEST CALLVALUE DUP1 ISZERO PUSH2 0x3D5 JUMPI PUSH0 DUP1 REVERT JUMPDEST POP PUSH2 0x3E9 PUSH2 0x3E4 CALLDATASIZE PUSH1 0x4 PUSH2 0x35E8 JUMP JUMPDEST PUSH2 0xBE3 JUMP JUMPDEST PUSH1 0x40 MLOAD SWAP1 ISZERO ISZERO DUP2 MSTORE PUSH1 0x20 ADD PUSH2 0x3C1 JUMP JUMPDEST CALLVALUE DUP1 ISZERO PUSH2 0x404 JUMPI PUSH0 DUP1 REVERT JUMPDEST POP PUSH2 0x39E PUSH2 0x413 CALLDATASIZE PUSH1 0x4 PUSH2 0x3612 JUMP JUMPDEST PUSH2 0xBF9 JUMP JUMPDEST CALLVALUE DUP1 ISZERO PUSH2 0x423 JUMPI PUSH0 DUP1 REVERT JUMPDEST POP PUSH2 0x44B PUSH32 0x0 DUP2 JUMP JUMPDEST PUSH1 0x40 MLOAD PUSH1 0x1 PUSH1 0x1 PUSH1 0xA0 SHL SUB SWAP1 SWAP2 AND DUP2 MSTORE PUSH1 0x20 ADD PUSH2 0x3C1 JUMP JUMPDEST CALLVALUE DUP1 ISZERO PUSH2 0x46E JUMPI PUSH0 DUP1 REVERT JUMPDEST POP PUSH1 0xE SLOAD JUMPDEST PUSH1 0x40 MLOAD SWAP1 DUP2 MSTORE PUSH1 0x20 ADD PUSH2 0x3C1 JUMP JUMPDEST CALLVALUE DUP1 ISZERO PUSH2 0x48C JUMPI PUSH0 DUP1 REVERT JUMPDEST POP PUSH2 0x39E PUSH2 0x49B CALLDATASIZE PUSH1 0x4 PUSH2 0x3588 JUMP JUMPDEST PUSH2 0xCEE JUMP JUMPDEST CALLVALUE DUP1 ISZERO PUSH2 0x4AB JUMPI PUSH0 DUP1 REVERT JUMPDEST POP PUSH2 0x473 PUSH1 0x19 SLOAD DUP2 JUMP JUMPDEST CALLVALUE DUP1 ISZERO PUSH2 0x4C0 JUMPI PUSH0 DUP1 REVERT JUMPDEST POP PUSH2 0x3E9 PUSH2 0x4CF CALLDATASIZE PUSH1 0x4 PUSH2 0x362D JUMP JUMPDEST PUSH2 0xE13 JUMP JUMPDEST CALLVALUE DUP1 ISZERO PUSH2 0x4DF JUMPI PUSH0 DUP1 REVERT JUMPDEST POP PUSH2 0x44B PUSH2 0xDEAD DUP2 JUMP JUMPDEST CALLVALUE DUP1 ISZERO PUSH2 0x4F4 JUMPI PUSH0 DUP1 REVERT JUMPDEST POP PUSH1 0x40 MLOAD PUSH1 0x12 DUP2 MSTORE PUSH1 0x20 ADD PUSH2 0x3C1 JUMP JUMPDEST CALLVALUE DUP1 ISZERO PUSH2 0x50F JUMPI PUSH0 DUP1 REVERT JUMPDEST POP PUSH1 0x10 SLOAD PUSH2 0x473 JUMP JUMPDEST CALLVALUE DUP1 ISZERO PUSH2 0x523 JUMPI PUSH0 DUP1 REVERT JUMPDEST POP PUSH2 0x473 PUSH1 0x11 SLOAD DUP2 JUMP JUMPDEST CALLVALUE DUP1 ISZERO PUSH2 0x538 JUMPI PUSH0 DUP1 REVERT JUMPDEST POP PUSH2 0x3E9 PUSH2 0x547 CALLDATASIZE PUSH1 0x4 PUSH2 0x35E8 JUMP JUMPDEST PUSH2 0xEBB JUMP JUMPDEST CALLVALUE DUP1 ISZERO PUSH2 0x557 JUMPI PUSH0 DUP1 REVERT JUMPDEST POP PUSH2 0x473 PUSH1 0x2 DUP2 JUMP JUMPDEST CALLVALUE DUP1 ISZERO PUSH2 0x56B JUMPI PUSH0 DUP1 REVERT JUMPDEST POP PUSH2 0x473 PUSH1 0x1D SLOAD DUP2 JUMP JUMPDEST CALLVALUE DUP1 ISZERO PUSH2 0x580 JUMPI PUSH0 DUP1 REVERT JUMPDEST POP PUSH2 0x39E PUSH2 0x58F CALLDATASIZE PUSH1 0x4 PUSH2 0x3588 JUMP JUMPDEST PUSH2 0xEF6 JUMP JUMPDEST CALLVALUE DUP1 ISZERO PUSH2 0x59F JUMPI PUSH0 DUP1 REVERT JUMPDEST POP PUSH2 0x39E PUSH2 0x5AE CALLDATASIZE PUSH1 0x4 PUSH2 0x3612 JUMP JUMPDEST PUSH2 0xF03 JUMP JUMPDEST CALLVALUE DUP1 ISZERO PUSH2 0x5BE JUMPI PUSH0 DUP1 REVERT JUMPDEST POP PUSH2 0x473 PUSH2 0x5CD CALLDATASIZE PUSH1 0x4 PUSH2 0x3678 JUMP JUMPDEST PUSH2 0xF50 JUMP JUMPDEST CALLVALUE DUP1 ISZERO PUSH2 0x5DD JUMPI PUSH0 DUP1 REVERT JUMPDEST POP PUSH2 0x473 PUSH1 0x1B SLOAD DUP2 JUMP JUMPDEST CALLVALUE DUP1 ISZERO PUSH2 0x5F2 JUMPI PUSH0 DUP1 REVERT JUMPDEST POP PUSH2 0x44B PUSH32 0x0 DUP2 JUMP JUMPDEST CALLVALUE DUP1 ISZERO PUSH2 0x625 JUMPI PUSH0 DUP1 REVERT JUMPDEST POP PUSH1 0x22 SLOAD PUSH2 0x3E9 SWAP1 PUSH2 0x100 SWAP1 DIV PUSH1 0xFF AND DUP2 JUMP JUMPDEST CALLVALUE DUP1 ISZERO PUSH2 0x643 JUMPI PUSH0 DUP1 REVERT JUMPDEST POP PUSH2 0x39E PUSH2 0x652 CALLDATASIZE PUSH1 0x4 PUSH2 0x3588 JUMP JUMPDEST PUSH2 0xFD6 JUMP JUMPDEST CALLVALUE DUP1 ISZERO PUSH2 0x662 JUMPI PUSH0 DUP1 REVERT JUMPDEST POP PUSH2 0x473 PUSH1 0x1 DUP2 JUMP JUMPDEST CALLVALUE DUP1 ISZERO PUSH2 0x676 JUMPI PUSH0 DUP1 REVERT JUMPDEST POP PUSH2 0x3E9 PUSH2 0x685 CALLDATASIZE PUSH1 0x4 PUSH2 0x3612 JUMP JUMPDEST PUSH1 0x1 PUSH1 0x1 PUSH1 0xA0 SHL SUB AND PUSH0 SWAP1 DUP2 MSTORE PUSH1 0x8 PUSH1 0x20 MSTORE PUSH1 0x40 SWAP1 KECCAK256 SLOAD PUSH1 0xFF AND SWAP1 JUMP JUMPDEST CALLVALUE DUP1 ISZERO PUSH2 0x6AD JUMPI PUSH0 DUP1 REVERT JUMPDEST POP PUSH2 0x39E PUSH2 0x6BC CALLDATASIZE PUSH1 0x4 PUSH2 0x3612 JUMP JUMPDEST PUSH2 0x1097 JUMP JUMPDEST CALLVALUE DUP1 ISZERO PUSH2 0x6CC JUMPI PUSH0 DUP1 REVERT JUMPDEST POP PUSH2 0x39E PUSH2 0x6DB CALLDATASIZE PUSH1 0x4 PUSH2 0x3588 JUMP JUMPDEST PUSH2 0x1259 JUMP JUMPDEST CALLVALUE DUP1 ISZERO PUSH2 0x6EB JUMPI PUSH0 DUP1 REVERT JUMPDEST POP PUSH2 0x39E PUSH2 0x6FA CALLDATASIZE PUSH1 0x4 PUSH2 0x3588 JUMP JUMPDEST PUSH2 0x1377 JUMP JUMPDEST CALLVALUE DUP1 ISZERO PUSH2 0x70A JUMPI PUSH0 DUP1 REVERT JUMPDEST POP PUSH2 0x473 PUSH2 0x719 CALLDATASIZE PUSH1 0x4 PUSH2 0x3612 JUMP JUMPDEST PUSH2 0x1489 JUMP JUMPDEST CALLVALUE DUP1 ISZERO PUSH2 0x729 JUMPI PUSH0 DUP1 REVERT JUMPDEST POP PUSH2 0x39E PUSH2 0x14E5 JUMP JUMPDEST CALLVALUE DUP1 ISZERO PUSH2 0x73D JUMPI PUSH0 DUP1 REVERT JUMPDEST POP PUSH2 0x39E PUSH2 0x74C CALLDATASIZE PUSH1 0x4 PUSH2 0x35E8 JUMP JUMPDEST PUSH2 0x151A JUMP JUMPDEST CALLVALUE DUP1 ISZERO PUSH2 0x75C JUMPI PUSH0 DUP1 REVERT JUMPDEST POP PUSH2 0x473 PUSH1 0x1F SLOAD DUP2 JUMP JUMPDEST CALLVALUE DUP1 ISZERO PUSH2 0x771 JUMPI PUSH0 DUP1 REVERT JUMPDEST POP PUSH2 0x473 PUSH1 0x15 SLOAD DUP2 JUMP JUMPDEST CALLVALUE DUP1 ISZERO PUSH2 0x786 JUMPI PUSH0 DUP1 REVERT JUMPDEST POP PUSH1 0x5 SLOAD PUSH1 0x1 PUSH1 0x1 PUSH1 0xA0 SHL SUB AND PUSH2 0x44B JUMP JUMPDEST CALLVALUE DUP1 ISZERO PUSH2 0x7A3 JUMPI PUSH0 DUP1 REVERT JUMPDEST POP PUSH2 0x39E PUSH2 0x7B2 CALLDATASIZE PUSH1 0x4 PUSH2 0x3612 JUMP JUMPDEST PUSH2 0x159F JUMP JUMPDEST CALLVALUE DUP1 ISZERO PUSH2 0x7C2 JUMPI PUSH0 DUP1 REVERT JUMPDEST POP PUSH2 0x3B4 PUSH2 0x168E JUMP JUMPDEST CALLVALUE DUP1 ISZERO PUSH2 0x7D6 JUMPI PUSH0 DUP1 REVERT JUMPDEST POP PUSH1 0x21 SLOAD PUSH2 0x473 JUMP JUMPDEST CALLVALUE DUP1 ISZERO PUSH2 0x7EA JUMPI PUSH0 DUP1 REVERT JUMPDEST POP PUSH2 0x3E9 PUSH2 0x7F9 CALLDATASIZE PUSH1 0x4 PUSH2 0x35E8 JUMP JUMPDEST PUSH2 0x169D JUMP JUMPDEST CALLVALUE DUP1 ISZERO PUSH2 0x809 JUMPI PUSH0 DUP1 REVERT JUMPDEST POP PUSH1 0xB SLOAD PUSH2 0x44B SWAP1 PUSH1 0x1 PUSH1 0x1 PUSH1 0xA0 SHL SUB AND DUP2 JUMP JUMPDEST CALLVALUE DUP1 ISZERO PUSH2 0x828 JUMPI PUSH0 DUP1 REVERT JUMPDEST POP PUSH2 0x3E9 PUSH2 0x837 CALLDATASIZE PUSH1 0x4 PUSH2 0x35E8 JUMP JUMPDEST PUSH2 0x1735 JUMP JUMPDEST CALLVALUE DUP1 ISZERO PUSH2 0x847 JUMPI PUSH0 DUP1 REVERT JUMPDEST POP PUSH2 0x39E PUSH2 0x856 CALLDATASIZE PUSH1 0x4 PUSH2 0x3588 JUMP JUMPDEST PUSH2 0x1741 JUMP JUMPDEST CALLVALUE DUP1 ISZERO PUSH2 0x866 JUMPI PUSH0 DUP1 REVERT JUMPDEST POP PUSH1 0xD SLOAD PUSH2 0x44B SWAP1 PUSH1 0x1 PUSH1 0x1 PUSH1 0xA0 SHL SUB AND DUP2 JUMP JUMPDEST CALLVALUE DUP1 ISZERO PUSH2 0x885 JUMPI PUSH0 DUP1 REVERT JUMPDEST POP PUSH2 0x473 PUSH1 0x17 SLOAD DUP2 JUMP JUMPDEST CALLVALUE DUP1 ISZERO PUSH2 0x89A JUMPI PUSH0 DUP1 REVERT JUMPDEST POP PUSH2 0x473 PUSH1 0x5 DUP2 JUMP JUMPDEST CALLVALUE DUP1 ISZERO PUSH2 0x8AE JUMPI PUSH0 DUP1 REVERT JUMPDEST POP PUSH2 0x39E PUSH2 0x8BD CALLDATASIZE PUSH1 0x4 PUSH2 0x36A6 JUMP JUMPDEST PUSH2 0x1864 JUMP JUMPDEST CALLVALUE DUP1 ISZERO PUSH2 0x8CD JUMPI PUSH0 DUP1 REVERT JUMPDEST POP PUSH1 0xC SLOAD PUSH2 0x44B SWAP1 PUSH1 0x1 PUSH1 0x1 PUSH1 0xA0 SHL SUB AND DUP2 JUMP JUMPDEST CALLVALUE DUP1 ISZERO PUSH2 0x8EC JUMPI PUSH0 DUP1 REVERT JUMPDEST POP PUSH2 0x3E9 PUSH2 0x8FB CALLDATASIZE PUSH1 0x4 PUSH2 0x3612 JUMP JUMPDEST PUSH1 0x1 PUSH1 0x1 PUSH1 0xA0 SHL SUB AND PUSH0 SWAP1 DUP2 MSTORE PUSH1 0x9 PUSH1 0x20 MSTORE PUSH1 0x40 SWAP1 KECCAK256 SLOAD PUSH1 0xFF AND SWAP1 JUMP JUMPDEST CALLVALUE DUP1 ISZERO PUSH2 0x923 JUMPI PUSH0 DUP1 REVERT JUMPDEST POP PUSH2 0x39E PUSH2 0x18E2 JUMP JUMPDEST CALLVALUE DUP1 ISZERO PUSH2 0x937 JUMPI PUSH0 DUP1 REVERT JUMPDEST POP PUSH2 0x39E PUSH2 0x946 CALLDATASIZE PUSH1 0x4 PUSH2 0x3612 JUMP JUMPDEST PUSH2 0x1A2C JUMP JUMPDEST CALLVALUE DUP1 ISZERO PUSH2 0x956 JUMPI PUSH0 DUP1 REVERT JUMPDEST POP PUSH2 0x473 PUSH2 0x965 CALLDATASIZE PUSH1 0x4 PUSH2 0x36C1 JUMP JUMPDEST PUSH1 0x1 PUSH1 0x1 PUSH1 0xA0 SHL SUB SWAP2 DUP3 AND PUSH0 SWAP1 DUP2 MSTORE PUSH1 0x1 PUSH1 0x20 SWAP1 DUP2 MSTORE PUSH1 0x40 DUP1 DUP4 KECCAK256 SWAP4 SWAP1 SWAP5 AND DUP3 MSTORE SWAP2 SWAP1 SWAP2 MSTORE KECCAK256 SLOAD SWAP1 JUMP JUMPDEST CALLVALUE DUP1 ISZERO PUSH2 0x99A JUMPI PUSH0 DUP1 REVERT JUMPDEST POP PUSH2 0x39E PUSH2 0x9A9 CALLDATASIZE PUSH1 0x4 PUSH2 0x3588 JUMP JUMPDEST PUSH2 0x1B1B JUMP JUMPDEST CALLVALUE DUP1 ISZERO PUSH2 0x9B9 JUMPI PUSH0 DUP1 REVERT JUMPDEST POP PUSH2 0x39E PUSH2 0x9C8 CALLDATASIZE PUSH1 0x4 PUSH2 0x35E8 JUMP JUMPDEST PUSH2 0x1BE8 JUMP JUMPDEST CALLVALUE DUP1 ISZERO PUSH2 0x9D8 JUMPI PUSH0 DUP1 REVERT JUMPDEST POP PUSH2 0x39E PUSH2 0x9E7 CALLDATASIZE PUSH1 0x4 PUSH2 0x3612 JUMP JUMPDEST PUSH2 0x1DB6 JUMP JUMPDEST CALLVALUE DUP1 ISZERO PUSH2 0x9F7 JUMPI PUSH0 DUP1 REVERT JUMPDEST POP PUSH2 0x39E PUSH2 0xA06 CALLDATASIZE PUSH1 0x4 PUSH2 0x3588 JUMP JUMPDEST PUSH2 0x1E00 JUMP JUMPDEST CALLVALUE DUP1 ISZERO PUSH2 0xA16 JUMPI PUSH0 DUP1 REVERT JUMPDEST POP PUSH2 0x39E PUSH2 0xA25 CALLDATASIZE PUSH1 0x4 PUSH2 0x36A6 JUMP JUMPDEST PUSH2 0x1EF9 JUMP JUMPDEST CALLVALUE DUP1 ISZERO PUSH2 0xA35 JUMPI PUSH0 DUP1 REVERT JUMPDEST POP PUSH2 0x39E PUSH2 0xA44 CALLDATASIZE PUSH1 0x4 PUSH2 0x3612 JUMP JUMPDEST PUSH2 0x1FBD JUMP JUMPDEST CALLVALUE DUP1 ISZERO PUSH2 0xA54 JUMPI PUSH0 DUP1 REVERT JUMPDEST POP PUSH2 0x39E PUSH2 0xA63 CALLDATASIZE PUSH1 0x4 PUSH2 0x3612 JUMP JUMPDEST PUSH2 0x2055 JUMP JUMPDEST CALLER PUSH0 DUP2 DUP2 MSTORE PUSH1 0x9 PUSH1 0x20 MSTORE PUSH1 0x40 SWAP1 KECCAK256 SLOAD PUSH1 0xFF AND ISZERO PUSH2 0xAE1 JUMPI PUSH1 0x40 MLOAD PUSH3 0x461BCD PUSH1 0xE5 SHL DUP2 MSTORE PUSH1 0x20 PUSH1 0x4 DUP3 ADD MSTORE PUSH1 0x2C PUSH1 0x24 DUP3 ADD MSTORE PUSH32 0x4578636C75646564206164647265737365732063616E6E6F742063616C6C2074 PUSH1 0x44 DUP3 ADD MSTORE PUSH12 0x3434B990333AB731BA34B7B7 PUSH1 0xA1 SHL PUSH1 0x64 DUP3 ADD MSTORE PUSH1 0x84 ADD JUMPDEST PUSH1 0x40 MLOAD DUP1 SWAP2 SUB SWAP1 REVERT JUMPDEST PUSH0 PUSH2 0xAEB DUP4 PUSH2 0x21FA JUMP JUMPDEST POP POP POP PUSH1 0x1 PUSH1 0x1 PUSH1 0xA0 SHL SUB DUP4 AND PUSH0 SWAP1 DUP2 MSTORE PUSH1 0x6 PUSH1 0x20 MSTORE PUSH1 0x40 SWAP1 KECCAK256 SLOAD SWAP1 SWAP2 POP PUSH2 0xB14 SWAP1 DUP3 SWAP1 PUSH2 0x3701 JUMP JUMPDEST PUSH1 0x1 PUSH1 0x1 PUSH1 0xA0 SHL SUB DUP4 AND PUSH0 SWAP1 DUP2 MSTORE PUSH1 0x6 PUSH1 0x20 MSTORE PUSH1 0x40 SWAP1 KECCAK256 SSTORE PUSH1 0xF SLOAD PUSH2 0xB3A SWAP1 DUP3 SWAP1 PUSH2 0x3701 JUMP JUMPDEST PUSH1 0xF SSTORE PUSH1 0x10 SLOAD PUSH2 0xB4B SWAP1 DUP5 SWAP1 PUSH2 0x3714 JUMP JUMPDEST PUSH1 0x10 SSTORE POP POP POP JUMP JUMPDEST PUSH1 0x60 PUSH1 0x3 DUP1 SLOAD PUSH2 0xB62 SWAP1 PUSH2 0x3727 JUMP JUMPDEST DUP1 PUSH1 0x1F ADD PUSH1 0x20 DUP1 SWAP2 DIV MUL PUSH1 0x20 ADD PUSH1 0x40 MLOAD SWAP1 DUP2 ADD PUSH1 0x40 MSTORE DUP1 SWAP3 SWAP2 SWAP1 DUP2 DUP2 MSTORE PUSH1 0x20 ADD DUP3 DUP1 SLOAD PUSH2 0xB8E SWAP1 PUSH2 0x3727 JUMP JUMPDEST DUP1 ISZERO PUSH2 0xBD9 JUMPI DUP1 PUSH1 0x1F LT PUSH2 0xBB0 JUMPI PUSH2 0x100 DUP1 DUP4 SLOAD DIV MUL DUP4 MSTORE SWAP2 PUSH1 0x20 ADD SWAP2 PUSH2 0xBD9 JUMP JUMPDEST DUP3 ADD SWAP2 SWAP1 PUSH0 MSTORE PUSH1 0x20 PUSH0 KECCAK256 SWAP1 JUMPDEST DUP2 SLOAD DUP2 MSTORE SWAP1 PUSH1 0x1 ADD SWAP1 PUSH1 0x20 ADD DUP1 DUP4 GT PUSH2 0xBBC JUMPI DUP3 SWAP1 SUB PUSH1 0x1F AND DUP3 ADD SWAP2 JUMPDEST POP POP POP POP POP SWAP1 POP SWAP1 JUMP JUMPDEST PUSH0 PUSH2 0xBEF CALLER DUP5 DUP5 PUSH2 0x224B JUMP JUMPDEST POP PUSH1 0x1 JUMPDEST SWAP3 SWAP2 POP POP JUMP JUMPDEST PUSH1 0x5 SLOAD PUSH1 0x1 PUSH1 0x1 PUSH1 0xA0 SHL SUB AND CALLER EQ PUSH2 0xC23 JUMPI PUSH1 0x40 MLOAD PUSH3 0x461BCD PUSH1 0xE5 SHL DUP2 MSTORE PUSH1 0x4 ADD PUSH2 0xAD8 SWAP1 PUSH2 0x375F JUMP JUMPDEST PUSH1 0x1 PUSH1 0x1 PUSH1 0xA0 SHL SUB DUP2 AND PUSH2 0xC8C JUMPI PUSH1 0x40 MLOAD PUSH3 0x461BCD PUSH1 0xE5 SHL DUP2 MSTORE PUSH1 0x20 PUSH1 0x4 DUP3 ADD MSTORE PUSH1 0x2A PUSH1 0x24 DUP3 ADD MSTORE PUSH32 0x4368617269747920616464726573732063616E6E6F7420626520746865207A65 PUSH1 0x44 DUP3 ADD MSTORE PUSH10 0x726F2061646472657373 PUSH1 0xB0 SHL PUSH1 0x64 DUP3 ADD MSTORE PUSH1 0x84 ADD PUSH2 0xAD8 JUMP JUMPDEST PUSH1 0xD DUP1 SLOAD PUSH1 0x1 PUSH1 0x1 PUSH1 0xA0 SHL SUB DUP4 DUP2 AND PUSH1 0x1 PUSH1 0x1 PUSH1 0xA0 SHL SUB NOT DUP4 AND DUP2 OR SWAP1 SWAP4 SSTORE PUSH1 0x40 DUP1 MLOAD SWAP2 SWAP1 SWAP3 AND DUP1 DUP3 MSTORE PUSH1 0x20 DUP3 ADD SWAP4 SWAP1 SWAP4 MSTORE PUSH32 0xD824BEDE52134285982C2DBBFB23840EEDA8D21C2EA774A50F74495D61474392 SWAP2 ADD JUMPDEST PUSH1 0x40 MLOAD DUP1 SWAP2 SUB SWAP1 LOG1 POP POP JUMP JUMPDEST PUSH1 0x5 SLOAD PUSH1 0x1 PUSH1 0x1 PUSH1 0xA0 SHL SUB AND CALLER EQ PUSH2 0xD18 JUMPI PUSH1 0x40 MLOAD PUSH3 0x461BCD PUSH1 0xE5 SHL DUP2 MSTORE PUSH1 0x4 ADD PUSH2 0xAD8 SWAP1 PUSH2 0x375F JUMP JUMPDEST PUSH1 0x2 DUP2 GT ISZERO PUSH2 0xD73 JUMPI PUSH1 0x40 MLOAD PUSH3 0x461BCD PUSH1 0xE5 SHL DUP2 MSTORE PUSH1 0x20 PUSH1 0x4 DUP3 ADD MSTORE PUSH1 0x21 PUSH1 0x24 DUP3 ADD MSTORE PUSH32 0x4368617269747920666565206578636565647320746865203225206C696D6974 PUSH1 0x44 DUP3 ADD MSTORE PUSH1 0x17 PUSH1 0xF9 SHL PUSH1 0x64 DUP3 ADD MSTORE PUSH1 0x84 ADD PUSH2 0xAD8 JUMP JUMPDEST PUSH2 0xD7B PUSH2 0x236E JUMP JUMPDEST PUSH0 DUP2 PUSH1 0x1B SLOAD PUSH1 0x19 SLOAD PUSH1 0x15 SLOAD PUSH2 0xD90 SWAP2 SWAP1 PUSH2 0x3714 JUMP JUMPDEST PUSH2 0xD9A SWAP2 SWAP1 PUSH2 0x3714 JUMP JUMPDEST PUSH2 0xDA4 SWAP2 SWAP1 PUSH2 0x3714 JUMP JUMPDEST SWAP1 POP PUSH1 0x1 DUP2 LT ISZERO PUSH2 0xDC7 JUMPI PUSH1 0x40 MLOAD PUSH3 0x461BCD PUSH1 0xE5 SHL DUP2 MSTORE PUSH1 0x4 ADD PUSH2 0xAD8 SWAP1 PUSH2 0x3794 JUMP JUMPDEST PUSH1 0x1D DUP1 SLOAD SWAP1 DUP4 SWAP1 SSTORE PUSH1 0x13 DUP3 SWAP1 SSTORE PUSH1 0x40 DUP1 MLOAD DUP3 DUP2 MSTORE PUSH1 0x20 DUP2 ADD DUP6 SWAP1 MSTORE PUSH32 0xD3D6FF715A7F1AC2A5ED3FB8B1D5473A4D20852A8AAC0E70546C851819E25BBC SWAP2 ADD JUMPDEST PUSH1 0x40 MLOAD DUP1 SWAP2 SUB SWAP1 LOG1 POP POP POP JUMP JUMPDEST PUSH0 PUSH2 0xE1F DUP5 DUP5 DUP5 PUSH2 0x2406 JUMP JUMPDEST PUSH1 0x1 PUSH1 0x1 PUSH1 0xA0 SHL SUB DUP5 AND PUSH0 SWAP1 DUP2 MSTORE PUSH1 0x1 PUSH1 0x20 SWAP1 DUP2 MSTORE PUSH1 0x40 DUP1 DUP4 KECCAK256 CALLER DUP5 MSTORE SWAP1 SWAP2 MSTORE SWAP1 KECCAK256 SLOAD DUP3 DUP2 LT ISZERO PUSH2 0xEA3 JUMPI PUSH1 0x40 MLOAD PUSH3 0x461BCD PUSH1 0xE5 SHL DUP2 MSTORE PUSH1 0x20 PUSH1 0x4 DUP3 ADD MSTORE PUSH1 0x28 PUSH1 0x24 DUP3 ADD MSTORE PUSH32 0x45524332303A207472616E7366657220616D6F756E7420657863656564732061 PUSH1 0x44 DUP3 ADD MSTORE PUSH8 0x6C6C6F77616E6365 PUSH1 0xC0 SHL PUSH1 0x64 DUP3 ADD MSTORE PUSH1 0x84 ADD PUSH2 0xAD8 JUMP JUMPDEST PUSH2 0xEB0 DUP6 CALLER DUP6 DUP5 SUB PUSH2 0x224B JUMP JUMPDEST POP PUSH1 0x1 SWAP5 SWAP4 POP POP POP POP JUMP JUMPDEST CALLER PUSH0 DUP2 DUP2 MSTORE PUSH1 0x1 PUSH1 0x20 SWAP1 DUP2 MSTORE PUSH1 0x40 DUP1 DUP4 KECCAK256 PUSH1 0x1 PUSH1 0x1 PUSH1 0xA0 SHL SUB DUP8 AND DUP5 MSTORE SWAP1 SWAP2 MSTORE DUP2 KECCAK256 SLOAD SWAP1 SWAP2 PUSH2 0xBEF SWAP2 DUP6 SWAP1 PUSH2 0xEF1 SWAP1 DUP7 SWAP1 PUSH2 0x3714 JUMP JUMPDEST PUSH2 0x224B JUMP JUMPDEST PUSH2 0xF00 CALLER DUP3 PUSH2 0x270D JUMP JUMPDEST POP JUMP JUMPDEST PUSH1 0x5 SLOAD PUSH1 0x1 PUSH1 0x1 PUSH1 0xA0 SHL SUB AND CALLER EQ PUSH2 0xF2D JUMPI PUSH1 0x40 MLOAD PUSH3 0x461BCD PUSH1 0xE5 SHL DUP2 MSTORE PUSH1 0x4 ADD PUSH2 0xAD8 SWAP1 PUSH2 0x375F JUMP JUMPDEST PUSH1 0x1 PUSH1 0x1 PUSH1 0xA0 SHL SUB AND PUSH0 SWAP1 DUP2 MSTORE PUSH1 0x8 PUSH1 0x20 MSTORE PUSH1 0x40 SWAP1 KECCAK256 DUP1 SLOAD PUSH1 0xFF NOT AND PUSH1 0x1 OR SWAP1 SSTORE JUMP JUMPDEST PUSH0 PUSH1 0xE SLOAD DUP4 GT ISZERO PUSH2 0xFA3 JUMPI PUSH1 0x40 MLOAD PUSH3 0x461BCD PUSH1 0xE5 SHL DUP2 MSTORE PUSH1 0x20 PUSH1 0x4 DUP3 ADD MSTORE PUSH1 0x1F PUSH1 0x24 DUP3 ADD MSTORE PUSH32 0x416D6F756E74206D757374206265206C657373207468616E20737570706C7900 PUSH1 0x44 DUP3 ADD MSTORE PUSH1 0x64 ADD PUSH2 0xAD8 JUMP JUMPDEST DUP2 PUSH2 0xFBF JUMPI PUSH0 PUSH2 0xFB2 DUP5 PUSH2 0x21FA JUMP JUMPDEST POP SWAP2 SWAP4 POP PUSH2 0xBF3 SWAP3 POP POP POP JUMP JUMPDEST PUSH0 PUSH2 0xFC9 DUP5 PUSH2 0x21FA JUMP JUMPDEST POP SWAP1 SWAP4 POP PUSH2 0xBF3 SWAP3 POP POP POP JUMP JUMPDEST PUSH1 0x5 SLOAD PUSH1 0x1 PUSH1 0x1 PUSH1 0xA0 SHL SUB AND CALLER EQ PUSH2 0x1000 JUMPI PUSH1 0x40 MLOAD PUSH3 0x461BCD PUSH1 0xE5 SHL DUP2 MSTORE PUSH1 0x4 ADD PUSH2 0xAD8 SWAP1 PUSH2 0x375F JUMP JUMPDEST PUSH1 0x1 DUP2 GT ISZERO PUSH2 0x1051 JUMPI PUSH1 0x40 MLOAD PUSH3 0x461BCD PUSH1 0xE5 SHL DUP2 MSTORE PUSH1 0x20 PUSH1 0x4 DUP3 ADD MSTORE PUSH1 0x1E PUSH1 0x24 DUP3 ADD MSTORE PUSH32 0x4275726E20666565206578636565647320746865203125206C696D69742E0000 PUSH1 0x44 DUP3 ADD MSTORE PUSH1 0x64 ADD PUSH2 0xAD8 JUMP JUMPDEST PUSH2 0x1059 PUSH2 0x236E JUMP JUMPDEST PUSH1 0x17 DUP1 SLOAD SWAP1 DUP3 SWAP1 SSTORE PUSH1 0x40 DUP1 MLOAD DUP3 DUP2 MSTORE PUSH1 0x20 DUP2 ADD DUP5 SWAP1 MSTORE PUSH32 0x78F1461296BAD7BD716A7673AA3E659CC091C348A7ED4CFEF7CE452C3052F2FB SWAP2 ADD PUSH2 0xCE2 JUMP JUMPDEST PUSH1 0x5 SLOAD PUSH1 0x1 PUSH1 0x1 PUSH1 0xA0 SHL SUB AND CALLER EQ PUSH2 0x10C1 JUMPI PUSH1 0x40 MLOAD PUSH3 0x461BCD PUSH1 0xE5 SHL DUP2 MSTORE PUSH1 0x4 ADD PUSH2 0xAD8 SWAP1 PUSH2 0x375F JUMP JUMPDEST PUSH1 0x1 PUSH1 0x1 PUSH1 0xA0 SHL SUB DUP2 AND PUSH0 SWAP1 DUP2 MSTORE PUSH1 0x9 PUSH1 0x20 MSTORE PUSH1 0x40 SWAP1 KECCAK256 SLOAD PUSH1 0xFF AND ISZERO PUSH2 0x1129 JUMPI PUSH1 0x40 MLOAD PUSH3 0x461BCD PUSH1 0xE5 SHL DUP2 MSTORE PUSH1 0x20 PUSH1 0x4 DUP3 ADD MSTORE PUSH1 0x1B PUSH1 0x24 DUP3 ADD MSTORE PUSH32 0x4163636F756E7420697320616C7265616479206578636C756465640000000000 PUSH1 0x44 DUP3 ADD MSTORE PUSH1 0x64 ADD PUSH2 0xAD8 JUMP JUMPDEST ADDRESS PUSH1 0x1 PUSH1 0x1 PUSH1 0xA0 SHL SUB DUP3 AND SUB PUSH2 0x119D JUMPI PUSH1 0x40 MLOAD PUSH3 0x461BCD PUSH1 0xE5 SHL DUP2 MSTORE PUSH1 0x20 PUSH1 0x4 DUP3 ADD MSTORE PUSH1 0x33 PUSH1 0x24 DUP3 ADD MSTORE PUSH32 0x436F6E747261637420616464726573732063616E6E6F74206265206578636C75 PUSH1 0x44 DUP3 ADD MSTORE PUSH19 0x3232B210333937B6903932B33632B1BA34B7B7 PUSH1 0x69 SHL PUSH1 0x64 DUP3 ADD MSTORE PUSH1 0x84 ADD PUSH2 0xAD8 JUMP JUMPDEST PUSH1 0x1 PUSH1 0x1 PUSH1 0xA0 SHL SUB DUP2 AND PUSH0 SWAP1 DUP2 MSTORE PUSH1 0x6 PUSH1 0x20 MSTORE PUSH1 0x40 SWAP1 KECCAK256 SLOAD ISZERO PUSH2 0x11F4 JUMPI PUSH1 0x1 PUSH1 0x1 PUSH1 0xA0 SHL SUB DUP2 AND PUSH0 SWAP1 DUP2 MSTORE PUSH1 0x6 PUSH1 0x20 MSTORE PUSH1 0x40 SWAP1 KECCAK256 SLOAD PUSH2 0x11DB SWAP1 PUSH2 0x28DB JUMP JUMPDEST PUSH1 0x1 PUSH1 0x1 PUSH1 0xA0 SHL SUB DUP3 AND PUSH0 SWAP1 DUP2 MSTORE PUSH1 0x7 PUSH1 0x20 MSTORE PUSH1 0x40 SWAP1 KECCAK256 SSTORE JUMPDEST PUSH1 0x1 PUSH1 0x1 PUSH1 0xA0 SHL SUB AND PUSH0 DUP2 DUP2 MSTORE PUSH1 0x9 PUSH1 0x20 MSTORE PUSH1 0x40 DUP2 KECCAK256 DUP1 SLOAD PUSH1 0xFF NOT AND PUSH1 0x1 SWAP1 DUP2 OR SWAP1 SWAP2 SSTORE PUSH1 0xA DUP1 SLOAD SWAP2 DUP3 ADD DUP2 SSTORE SWAP1 SWAP2 MSTORE PUSH32 0xC65A7BB8D6351C1CF70C95A316CC6A92839C986682D98BC35F958F4883F9D2A8 ADD DUP1 SLOAD PUSH1 0x1 PUSH1 0x1 PUSH1 0xA0 SHL SUB NOT AND SWAP1 SWAP2 OR SWAP1 SSTORE JUMP JUMPDEST PUSH1 0x5 SLOAD PUSH1 0x1 PUSH1 0x1 PUSH1 0xA0 SHL SUB AND CALLER EQ PUSH2 0x1283 JUMPI PUSH1 0x40 MLOAD PUSH3 0x461BCD PUSH1 0xE5 SHL DUP2 MSTORE PUSH1 0x4 ADD PUSH2 0xAD8 SWAP1 PUSH2 0x375F JUMP JUMPDEST PUSH1 0x2 DUP2 GT ISZERO PUSH2 0x12E0 JUMPI PUSH1 0x40 MLOAD PUSH3 0x461BCD PUSH1 0xE5 SHL DUP2 MSTORE PUSH1 0x20 PUSH1 0x4 DUP3 ADD MSTORE PUSH1 0x23 PUSH1 0x24 DUP3 ADD MSTORE PUSH32 0x4D61726B6574696E6720666565206578636565647320746865203225206C696D PUSH1 0x44 DUP3 ADD MSTORE PUSH3 0x34BA17 PUSH1 0xE9 SHL PUSH1 0x64 DUP3 ADD MSTORE PUSH1 0x84 ADD PUSH2 0xAD8 JUMP JUMPDEST PUSH2 0x12E8 PUSH2 0x236E JUMP JUMPDEST PUSH0 PUSH1 0x1D SLOAD PUSH1 0x1B SLOAD DUP4 PUSH1 0x15 SLOAD PUSH2 0x12FD SWAP2 SWAP1 PUSH2 0x3714 JUMP JUMPDEST PUSH2 0x1307 SWAP2 SWAP1 PUSH2 0x3714 JUMP JUMPDEST PUSH2 0x1311 SWAP2 SWAP1 PUSH2 0x3714 JUMP JUMPDEST SWAP1 POP PUSH1 0x1 DUP2 LT ISZERO PUSH2 0x1334 JUMPI PUSH1 0x40 MLOAD PUSH3 0x461BCD PUSH1 0xE5 SHL DUP2 MSTORE PUSH1 0x4 ADD PUSH2 0xAD8 SWAP1 PUSH2 0x3794 JUMP JUMPDEST PUSH1 0x19 DUP1 SLOAD SWAP1 DUP4 SWAP1 SSTORE PUSH1 0x13 DUP3 SWAP1 SSTORE PUSH1 0x40 DUP1 MLOAD DUP3 DUP2 MSTORE PUSH1 0x20 DUP2 ADD DUP6 SWAP1 MSTORE PUSH32 0x43102402B1EF1EA68F92A353DE80186B92415038542AF2E8D748F8D6C525032 SWAP2 ADD PUSH2 0xE06 JUMP JUMPDEST PUSH1 0x5 SLOAD PUSH1 0x1 PUSH1 0x1 PUSH1 0xA0 SHL SUB AND CALLER EQ PUSH2 0x13A1 JUMPI PUSH1 0x40 MLOAD PUSH3 0x461BCD PUSH1 0xE5 SHL DUP2 MSTORE PUSH1 0x4 ADD PUSH2 0xAD8 SWAP1 PUSH2 0x375F JUMP JUMPDEST PUSH1 0x2 DUP2 GT ISZERO PUSH2 0x13F2 JUMPI PUSH1 0x40 MLOAD PUSH3 0x461BCD PUSH1 0xE5 SHL DUP2 MSTORE PUSH1 0x20 PUSH1 0x4 DUP3 ADD MSTORE PUSH1 0x1D PUSH1 0x24 DUP3 ADD MSTORE PUSH32 0x44657620666565206578636565647320746865203225206C696D69742E000000 PUSH1 0x44 DUP3 ADD MSTORE PUSH1 0x64 ADD PUSH2 0xAD8 JUMP JUMPDEST PUSH2 0x13FA PUSH2 0x236E JUMP JUMPDEST PUSH0 PUSH1 0x1D SLOAD DUP3 PUSH1 0x19 SLOAD PUSH1 0x15 SLOAD PUSH2 0x140F SWAP2 SWAP1 PUSH2 0x3714 JUMP JUMPDEST PUSH2 0x1419 SWAP2 SWAP1 PUSH2 0x3714 JUMP JUMPDEST PUSH2 0x1423 SWAP2 SWAP1 PUSH2 0x3714 JUMP JUMPDEST SWAP1 POP PUSH1 0x1 DUP2 LT ISZERO PUSH2 0x1446 JUMPI PUSH1 0x40 MLOAD PUSH3 0x461BCD PUSH1 0xE5 SHL DUP2 MSTORE PUSH1 0x4 ADD PUSH2 0xAD8 SWAP1 PUSH2 0x3794 JUMP JUMPDEST PUSH1 0x1B DUP1 SLOAD SWAP1 DUP4 SWAP1 SSTORE PUSH1 0x13 DUP3 SWAP1 SSTORE PUSH1 0x40 DUP1 MLOAD DUP3 DUP2 MSTORE PUSH1 0x20 DUP2 ADD DUP6 SWAP1 MSTORE PUSH32 0xC9D63693638BFC625DE9BE66171E4BF76AD4D474AC6BEF7CD4C766747CD0075F SWAP2 ADD PUSH2 0xE06 JUMP JUMPDEST PUSH1 0x1 PUSH1 0x1 PUSH1 0xA0 SHL SUB DUP2 AND PUSH0 SWAP1 DUP2 MSTORE PUSH1 0x9 PUSH1 0x20 MSTORE PUSH1 0x40 DUP2 KECCAK256 SLOAD PUSH1 0xFF AND ISZERO PUSH2 0x14C4 JUMPI POP PUSH1 0x1 PUSH1 0x1 PUSH1 0xA0 SHL SUB AND PUSH0 SWAP1 DUP2 MSTORE PUSH1 0x7 PUSH1 0x20 MSTORE PUSH1 0x40 SWAP1 KECCAK256 SLOAD SWAP1 JUMP JUMPDEST PUSH1 0x1 PUSH1 0x1 PUSH1 0xA0 SHL SUB DUP3 AND PUSH0 SWAP1 DUP2 MSTORE PUSH1 0x6 PUSH1 0x20 MSTORE PUSH1 0x40 SWAP1 KECCAK256 SLOAD PUSH2 0xBF3 SWAP1 PUSH2 0x28DB JUMP JUMPDEST PUSH1 0x5 SLOAD PUSH1 0x1 PUSH1 0x1 PUSH1 0xA0 SHL SUB AND CALLER EQ PUSH2 0x150F JUMPI PUSH1 0x40 MLOAD PUSH3 0x461BCD PUSH1 0xE5 SHL DUP2 MSTORE PUSH1 0x4 ADD PUSH2 0xAD8 SWAP1 PUSH2 0x375F JUMP JUMPDEST PUSH2 0x1518 PUSH0 PUSH2 0x295D JUMP JUMPDEST JUMP JUMPDEST PUSH0 PUSH2 0x1525 DUP4 CALLER PUSH2 0x965 JUMP JUMPDEST SWAP1 POP DUP2 DUP2 LT ISZERO PUSH2 0x1583 JUMPI PUSH1 0x40 MLOAD PUSH3 0x461BCD PUSH1 0xE5 SHL DUP2 MSTORE PUSH1 0x20 PUSH1 0x4 DUP3 ADD MSTORE PUSH1 0x24 DUP1 DUP3 ADD MSTORE PUSH32 0x45524332303A206275726E20616D6F756E74206578636565647320616C6C6F77 PUSH1 0x44 DUP3 ADD MSTORE PUSH4 0x616E6365 PUSH1 0xE0 SHL PUSH1 0x64 DUP3 ADD MSTORE PUSH1 0x84 ADD PUSH2 0xAD8 JUMP JUMPDEST PUSH2 0x1590 DUP4 CALLER DUP5 DUP5 SUB PUSH2 0x224B JUMP JUMPDEST PUSH2 0x159A DUP4 DUP4 PUSH2 0x270D JUMP JUMPDEST POP POP POP JUMP JUMPDEST PUSH1 0x5 SLOAD PUSH1 0x1 PUSH1 0x1 PUSH1 0xA0 SHL SUB AND CALLER EQ PUSH2 0x15C9 JUMPI PUSH1 0x40 MLOAD PUSH3 0x461BCD PUSH1 0xE5 SHL DUP2 MSTORE PUSH1 0x4 ADD PUSH2 0xAD8 SWAP1 PUSH2 0x375F JUMP JUMPDEST PUSH1 0x1 PUSH1 0x1 PUSH1 0xA0 SHL SUB DUP2 AND PUSH2 0x1634 JUMPI PUSH1 0x40 MLOAD PUSH3 0x461BCD PUSH1 0xE5 SHL DUP2 MSTORE PUSH1 0x20 PUSH1 0x4 DUP3 ADD MSTORE PUSH1 0x2C PUSH1 0x24 DUP3 ADD MSTORE PUSH32 0x4D61726B6574696E6720616464726573732063616E6E6F742062652074686520 PUSH1 0x44 DUP3 ADD MSTORE PUSH12 0x7A65726F2061646472657373 PUSH1 0xA0 SHL PUSH1 0x64 DUP3 ADD MSTORE PUSH1 0x84 ADD PUSH2 0xAD8 JUMP JUMPDEST PUSH1 0xB DUP1 SLOAD PUSH1 0x1 PUSH1 0x1 PUSH1 0xA0 SHL SUB DUP4 DUP2 AND PUSH1 0x1 PUSH1 0x1 PUSH1 0xA0 SHL SUB NOT DUP4 AND DUP2 OR SWAP1 SWAP4 SSTORE PUSH1 0x40 DUP1 MLOAD SWAP2 SWAP1 SWAP3 AND DUP1 DUP3 MSTORE PUSH1 0x20 DUP3 ADD SWAP4 SWAP1 SWAP4 MSTORE PUSH32 0xA8EFC72ED34F90017DF79620D1972D42B8E3B17EB0077FC5FC46CBF1A19ED9A9 SWAP2 ADD PUSH2 0xCE2 JUMP JUMPDEST PUSH1 0x60 PUSH1 0x4 DUP1 SLOAD PUSH2 0xB62 SWAP1 PUSH2 0x3727 JUMP JUMPDEST CALLER PUSH0 SWAP1 DUP2 MSTORE PUSH1 0x1 PUSH1 0x20 SWAP1 DUP2 MSTORE PUSH1 0x40 DUP1 DUP4 KECCAK256 PUSH1 0x1 PUSH1 0x1 PUSH1 0xA0 SHL SUB DUP7 AND DUP5 MSTORE SWAP1 SWAP2 MSTORE DUP2 KECCAK256 SLOAD DUP3 DUP2 LT ISZERO PUSH2 0x171E JUMPI PUSH1 0x40 MLOAD PUSH3 0x461BCD PUSH1 0xE5 SHL DUP2 MSTORE PUSH1 0x20 PUSH1 0x4 DUP3 ADD MSTORE PUSH1 0x25 PUSH1 0x24 DUP3 ADD MSTORE PUSH32 0x45524332303A2064656372656173656420616C6C6F77616E63652062656C6F77 PUSH1 0x44 DUP3 ADD MSTORE PUSH5 0x207A65726F PUSH1 0xD8 SHL PUSH1 0x64 DUP3 ADD MSTORE PUSH1 0x84 ADD PUSH2 0xAD8 JUMP JUMPDEST PUSH2 0x172B CALLER DUP6 DUP6 DUP5 SUB PUSH2 0x224B JUMP JUMPDEST POP PUSH1 0x1 SWAP4 SWAP3 POP POP POP JUMP JUMPDEST PUSH0 PUSH2 0xBEF CALLER DUP5 DUP5 PUSH2 0x2406 JUMP JUMPDEST PUSH1 0x5 SLOAD PUSH1 0x1 PUSH1 0x1 PUSH1 0xA0 SHL SUB AND CALLER EQ PUSH2 0x176B JUMPI PUSH1 0x40 MLOAD PUSH3 0x461BCD PUSH1 0xE5 SHL DUP2 MSTORE PUSH1 0x4 ADD PUSH2 0xAD8 SWAP1 PUSH2 0x375F JUMP JUMPDEST PUSH1 0x2 DUP2 GT ISZERO PUSH2 0x17CD JUMPI PUSH1 0x40 MLOAD PUSH3 0x461BCD PUSH1 0xE5 SHL DUP2 MSTORE PUSH1 0x20 PUSH1 0x4 DUP3 ADD MSTORE PUSH1 0x28 PUSH1 0x24 DUP3 ADD MSTORE PUSH32 0x4C697175696469747920706F6F6C206665652065786365656473207468652032 PUSH1 0x44 DUP3 ADD MSTORE PUSH8 0x12903634B6B4BA17 PUSH1 0xC1 SHL PUSH1 0x64 DUP3 ADD MSTORE PUSH1 0x84 ADD PUSH2 0xAD8 JUMP JUMPDEST PUSH2 0x17D5 PUSH2 0x236E JUMP JUMPDEST PUSH0 PUSH1 0x1D SLOAD PUSH1 0x1B SLOAD PUSH1 0x19 SLOAD DUP5 PUSH2 0x17EA SWAP2 SWAP1 PUSH2 0x3714 JUMP JUMPDEST PUSH2 0x17F4 SWAP2 SWAP1 PUSH2 0x3714 JUMP JUMPDEST PUSH2 0x17FE SWAP2 SWAP1 PUSH2 0x3714 JUMP JUMPDEST SWAP1 POP PUSH1 0x1 DUP2 LT ISZERO PUSH2 0x1821 JUMPI PUSH1 0x40 MLOAD PUSH3 0x461BCD PUSH1 0xE5 SHL DUP2 MSTORE PUSH1 0x4 ADD PUSH2 0xAD8 SWAP1 PUSH2 0x3794 JUMP JUMPDEST PUSH1 0x15 DUP1 SLOAD SWAP1 DUP4 SWAP1 SSTORE PUSH1 0x13 DUP3 SWAP1 SSTORE PUSH1 0x40 DUP1 MLOAD DUP3 DUP2 MSTORE PUSH1 0x20 DUP2 ADD DUP6 SWAP1 MSTORE PUSH32 0xD72BB987241D30EFE97862FAE5C01605397A36024557BBAE8EBEDEC081678BC2 SWAP2 ADD PUSH2 0xE06 JUMP JUMPDEST PUSH1 0x5 SLOAD PUSH1 0x1 PUSH1 0x1 PUSH1 0xA0 SHL SUB AND CALLER EQ PUSH2 0x188E JUMPI PUSH1 0x40 MLOAD PUSH3 0x461BCD PUSH1 0xE5 SHL DUP2 MSTORE PUSH1 0x4 ADD PUSH2 0xAD8 SWAP1 PUSH2 0x375F JUMP JUMPDEST PUSH1 0x22 DUP1 SLOAD DUP3 ISZERO ISZERO PUSH2 0x100 MUL PUSH2 0xFF00 NOT SWAP1 SWAP2 AND OR SWAP1 SSTORE PUSH1 0x40 MLOAD PUSH32 0x53726DFCAF90650AA7EB35524F4D3220F07413C8D6CB404CC8C18BF5591BC159 SWAP1 PUSH2 0x18D7 SWAP1 DUP4 ISZERO ISZERO DUP2 MSTORE PUSH1 0x20 ADD SWAP1 JUMP JUMPDEST PUSH1 0x40 MLOAD DUP1 SWAP2 SUB SWAP1 LOG1 POP JUMP JUMPDEST PUSH1 0x5 SLOAD PUSH1 0x1 PUSH1 0x1 PUSH1 0xA0 SHL SUB AND CALLER EQ PUSH2 0x190C JUMPI PUSH1 0x40 MLOAD PUSH3 0x461BCD PUSH1 0xE5 SHL DUP2 MSTORE PUSH1 0x4 ADD PUSH2 0xAD8 SWAP1 PUSH2 0x375F JUMP JUMPDEST PUSH1 0xC SLOAD PUSH1 0x40 MLOAD SELFBALANCE SWAP2 PUSH0 SWAP2 PUSH1 0x1 PUSH1 0x1 PUSH1 0xA0 SHL SUB SWAP1 SWAP2 AND SWAP1 DUP4 SWAP1 DUP4 DUP2 DUP2 DUP2 DUP6 DUP8 GAS CALL SWAP3 POP POP POP RETURNDATASIZE DUP1 PUSH0 DUP2 EQ PUSH2 0x195A JUMPI PUSH1 0x40 MLOAD SWAP2 POP PUSH1 0x1F NOT PUSH1 0x3F RETURNDATASIZE ADD AND DUP3 ADD PUSH1 0x40 MSTORE RETURNDATASIZE DUP3 MSTORE RETURNDATASIZE PUSH0 PUSH1 0x20 DUP5 ADD RETURNDATACOPY PUSH2 0x195F JUMP JUMPDEST PUSH1 0x60 SWAP2 POP JUMPDEST POP POP SWAP1 POP DUP1 PUSH2 0x19A2 JUMPI PUSH1 0x40 MLOAD PUSH3 0x461BCD PUSH1 0xE5 SHL DUP2 MSTORE PUSH1 0x20 PUSH1 0x4 DUP3 ADD MSTORE PUSH1 0xF PUSH1 0x24 DUP3 ADD MSTORE PUSH15 0x151C985B9CD9995C8819985A5B1959 PUSH1 0x8A SHL PUSH1 0x44 DUP3 ADD MSTORE PUSH1 0x64 ADD PUSH2 0xAD8 JUMP JUMPDEST PUSH1 0xC SLOAD PUSH1 0x40 DUP1 MLOAD DUP2 DUP2 MSTORE PUSH1 0x2E SWAP2 DUP2 ADD SWAP2 SWAP1 SWAP2 MSTORE PUSH32 0x57652068617665207265636F7665726564207468652073746F636B2045544820 PUSH1 0x60 DUP3 ADD MSTORE PUSH14 0x333937B69031B7B73A3930B1BA17 PUSH1 0x91 SHL PUSH1 0x80 DUP3 ADD MSTORE PUSH1 0x1 PUSH1 0x1 PUSH1 0xA0 SHL SUB SWAP1 SWAP2 AND PUSH1 0x20 DUP3 ADD MSTORE PUSH32 0x25DBD6AD989FE1A64DB7DC049E29723FF9D35A97D84AE9AAB96196F00EC1A00 SWAP1 PUSH1 0xA0 ADD PUSH2 0xCE2 JUMP JUMPDEST PUSH1 0x5 SLOAD PUSH1 0x1 PUSH1 0x1 PUSH1 0xA0 SHL SUB AND CALLER EQ PUSH2 0x1A56 JUMPI PUSH1 0x40 MLOAD PUSH3 0x461BCD PUSH1 0xE5 SHL DUP2 MSTORE PUSH1 0x4 ADD PUSH2 0xAD8 SWAP1 PUSH2 0x375F JUMP JUMPDEST PUSH1 0x1 PUSH1 0x1 PUSH1 0xA0 SHL SUB DUP2 AND PUSH2 0x1AC1 JUMPI PUSH1 0x40 MLOAD PUSH3 0x461BCD PUSH1 0xE5 SHL DUP2 MSTORE PUSH1 0x20 PUSH1 0x4 DUP3 ADD MSTORE PUSH1 0x2C PUSH1 0x24 DUP3 ADD MSTORE PUSH32 0x446576656C6F70657220616464726573732063616E6E6F742062652074686520 PUSH1 0x44 DUP3 ADD MSTORE PUSH12 0x7A65726F2061646472657373 PUSH1 0xA0 SHL PUSH1 0x64 DUP3 ADD MSTORE PUSH1 0x84 ADD PUSH2 0xAD8 JUMP JUMPDEST PUSH1 0xC DUP1 SLOAD PUSH1 0x1 PUSH1 0x1 PUSH1 0xA0 SHL SUB DUP4 DUP2 AND PUSH1 0x1 PUSH1 0x1 PUSH1 0xA0 SHL SUB NOT DUP4 AND DUP2 OR SWAP1 SWAP4 SSTORE PUSH1 0x40 DUP1 MLOAD SWAP2 SWAP1 SWAP3 AND DUP1 DUP3 MSTORE PUSH1 0x20 DUP3 ADD SWAP4 SWAP1 SWAP4 MSTORE PUSH32 0x9A8FCE0F201607A626CC555EF244D8ED346D879D2141B2964C3A955650554AE0 SWAP2 ADD PUSH2 0xCE2 JUMP JUMPDEST PUSH1 0x5 SLOAD PUSH1 0x1 PUSH1 0x1 PUSH1 0xA0 SHL SUB AND CALLER EQ PUSH2 0x1B45 JUMPI PUSH1 0x40 MLOAD PUSH3 0x461BCD PUSH1 0xE5 SHL DUP2 MSTORE PUSH1 0x4 ADD PUSH2 0xAD8 SWAP1 PUSH2 0x375F JUMP JUMPDEST PUSH1 0x2 DUP2 GT ISZERO PUSH2 0x1BA2 JUMPI PUSH1 0x40 MLOAD PUSH3 0x461BCD PUSH1 0xE5 SHL DUP2 MSTORE PUSH1 0x20 PUSH1 0x4 DUP3 ADD MSTORE PUSH1 0x24 DUP1 DUP3 ADD MSTORE PUSH32 0x5265666C656374696F6E20666565206578636565647320746865203225206C69 PUSH1 0x44 DUP3 ADD MSTORE PUSH4 0x36B4BA17 PUSH1 0xE1 SHL PUSH1 0x64 DUP3 ADD MSTORE PUSH1 0x84 ADD PUSH2 0xAD8 JUMP JUMPDEST PUSH2 0x1BAA PUSH2 0x236E JUMP JUMPDEST PUSH1 0x11 DUP1 SLOAD SWAP1 DUP3 SWAP1 SSTORE PUSH1 0x40 DUP1 MLOAD DUP3 DUP2 MSTORE PUSH1 0x20 DUP2 ADD DUP5 SWAP1 MSTORE PUSH32 0x2C52CA41E4D19E67555BE53873512BB32CA77E9E6D56B69361D6AC621A8834D1 SWAP2 ADD PUSH2 0xCE2 JUMP JUMPDEST PUSH1 0x5 SLOAD PUSH1 0x1 PUSH1 0x1 PUSH1 0xA0 SHL SUB AND CALLER EQ PUSH2 0x1C12 JUMPI PUSH1 0x40 MLOAD PUSH3 0x461BCD PUSH1 0xE5 SHL DUP2 MSTORE PUSH1 0x4 ADD PUSH2 0xAD8 SWAP1 PUSH2 0x375F JUMP JUMPDEST ADDRESS PUSH1 0x1 PUSH1 0x1 PUSH1 0xA0 SHL SUB DUP4 AND SUB PUSH2 0x1C89 JUMPI PUSH1 0x40 MLOAD PUSH3 0x461BCD PUSH1 0xE5 SHL DUP2 MSTORE PUSH1 0x20 PUSH1 0x4 DUP3 ADD MSTORE PUSH1 0x36 PUSH1 0x24 DUP3 ADD MSTORE PUSH32 0x4F776E65722063616E277420636C61696D20636F6E747261637427732062616C PUSH1 0x44 DUP3 ADD MSTORE PUSH22 0x616E6365206F6620697473206F776E20746F6B656E73 PUSH1 0x50 SHL PUSH1 0x64 DUP3 ADD MSTORE PUSH1 0x84 ADD PUSH2 0xAD8 JUMP JUMPDEST PUSH1 0xC SLOAD PUSH1 0x40 MLOAD PUSH4 0xA9059CBB PUSH1 0xE0 SHL DUP2 MSTORE PUSH1 0x1 PUSH1 0x1 PUSH1 0xA0 SHL SUB SWAP2 DUP3 AND PUSH1 0x4 DUP3 ADD MSTORE PUSH1 0x24 DUP2 ADD DUP4 SWAP1 MSTORE PUSH0 SWAP2 DUP5 AND SWAP1 PUSH4 0xA9059CBB SWAP1 PUSH1 0x44 ADD PUSH1 0x20 PUSH1 0x40 MLOAD DUP1 DUP4 SUB DUP2 PUSH0 DUP8 GAS CALL ISZERO DUP1 ISZERO PUSH2 0x1CDA JUMPI RETURNDATASIZE PUSH0 DUP1 RETURNDATACOPY RETURNDATASIZE PUSH0 REVERT JUMPDEST POP POP POP POP PUSH1 0x40 MLOAD RETURNDATASIZE PUSH1 0x1F NOT PUSH1 0x1F DUP3 ADD AND DUP3 ADD DUP1 PUSH1 0x40 MSTORE POP DUP2 ADD SWAP1 PUSH2 0x1CFE SWAP2 SWAP1 PUSH2 0x37DA JUMP JUMPDEST SWAP1 POP DUP1 PUSH2 0x1D3F JUMPI PUSH1 0x40 MLOAD PUSH3 0x461BCD PUSH1 0xE5 SHL DUP2 MSTORE PUSH1 0x20 PUSH1 0x4 DUP3 ADD MSTORE PUSH1 0xF PUSH1 0x24 DUP3 ADD MSTORE PUSH15 0x151C985B9CD9995C8819985A5B1959 PUSH1 0x8A SHL PUSH1 0x44 DUP3 ADD MSTORE PUSH1 0x64 ADD PUSH2 0xAD8 JUMP JUMPDEST PUSH1 0x40 DUP1 MLOAD DUP2 DUP2 MSTORE PUSH1 0x27 SWAP2 DUP2 ADD SWAP2 SWAP1 SWAP2 MSTORE PUSH32 0x57652068617665207265636F766572656420746F6B656E732066726F6D20636F PUSH1 0x60 DUP3 ADD MSTORE PUSH7 0x373A3930B1BA1D PUSH1 0xC9 SHL PUSH1 0x80 DUP3 ADD MSTORE PUSH1 0x20 DUP2 ADD DUP4 SWAP1 MSTORE PUSH32 0xDD970DD9B5BFE707922155B058A407655CB18288B807E2216442BCA8AD83D6B5 SWAP1 PUSH1 0xA0 ADD PUSH2 0xE06 JUMP JUMPDEST PUSH1 0x5 SLOAD PUSH1 0x1 PUSH1 0x1 PUSH1 0xA0 SHL SUB AND CALLER EQ PUSH2 0x1DE0 JUMPI PUSH1 0x40 MLOAD PUSH3 0x461BCD PUSH1 0xE5 SHL DUP2 MSTORE PUSH1 0x4 ADD PUSH2 0xAD8 SWAP1 PUSH2 0x375F JUMP JUMPDEST PUSH1 0x1 PUSH1 0x1 PUSH1 0xA0 SHL SUB AND PUSH0 SWAP1 DUP2 MSTORE PUSH1 0x8 PUSH1 0x20 MSTORE PUSH1 0x40 SWAP1 KECCAK256 DUP1 SLOAD PUSH1 0xFF NOT AND SWAP1 SSTORE JUMP JUMPDEST PUSH1 0x5 SLOAD PUSH1 0x1 PUSH1 0x1 PUSH1 0xA0 SHL SUB AND CALLER EQ PUSH2 0x1E2A JUMPI PUSH1 0x40 MLOAD PUSH3 0x461BCD PUSH1 0xE5 SHL DUP2 MSTORE PUSH1 0x4 ADD PUSH2 0xAD8 SWAP1 PUSH2 0x375F JUMP JUMPDEST PUSH2 0x3E8 PUSH1 0xE SLOAD PUSH1 0x1 PUSH2 0x1E3C SWAP2 SWAP1 PUSH2 0x37F5 JUMP JUMPDEST PUSH2 0x1E46 SWAP2 SWAP1 PUSH2 0x380C JUMP JUMPDEST DUP2 LT ISZERO PUSH2 0x1EBB JUMPI PUSH1 0x40 MLOAD PUSH3 0x461BCD PUSH1 0xE5 SHL DUP2 MSTORE PUSH1 0x20 PUSH1 0x4 DUP3 ADD MSTORE PUSH1 0x38 PUSH1 0x24 DUP3 ADD MSTORE PUSH32 0x4D61785478416D6F756E742073686F756C64206265206174206C656173742030 PUSH1 0x44 DUP3 ADD MSTORE PUSH32 0x2E3125206F662074686520746F74616C20737570706C792E0000000000000000 PUSH1 0x64 DUP3 ADD MSTORE PUSH1 0x84 ADD PUSH2 0xAD8 JUMP JUMPDEST PUSH1 0x1F DUP1 SLOAD SWAP1 DUP3 SWAP1 SSTORE PUSH1 0x40 DUP1 MLOAD DUP3 DUP2 MSTORE PUSH1 0x20 DUP2 ADD DUP5 SWAP1 MSTORE PUSH32 0xADCF01123294F8514884E924E20EB4F3032288087368896A17C71F09668247C8 SWAP2 ADD PUSH2 0xCE2 JUMP JUMPDEST PUSH1 0x5 SLOAD PUSH1 0x1 PUSH1 0x1 PUSH1 0xA0 SHL SUB AND CALLER EQ PUSH2 0x1F23 JUMPI PUSH1 0x40 MLOAD PUSH3 0x461BCD PUSH1 0xE5 SHL DUP2 MSTORE PUSH1 0x4 ADD PUSH2 0xAD8 SWAP1 PUSH2 0x375F JUMP JUMPDEST DUP1 ISZERO PUSH2 0x1F4B JUMPI PUSH2 0x1F32 PUSH0 PUSH2 0x1864 JUMP JUMPDEST PUSH2 0x1F3A PUSH2 0x29AE JUMP JUMPDEST PUSH1 0x1F SLOAD PUSH1 0x20 SSTORE PUSH1 0xE SLOAD PUSH1 0x1F SSTORE PUSH2 0x1F8B JUMP JUMPDEST PUSH2 0x1F55 PUSH1 0x1 PUSH2 0x1864 JUMP JUMPDEST PUSH2 0x1F84 PUSH1 0x14 SLOAD PUSH1 0x13 SSTORE PUSH1 0x16 SLOAD PUSH1 0x15 SSTORE PUSH1 0x18 SLOAD PUSH1 0x17 SSTORE PUSH1 0x12 SLOAD PUSH1 0x11 SSTORE PUSH1 0x1A SLOAD PUSH1 0x19 SSTORE PUSH1 0x1C SLOAD PUSH1 0x1B SSTORE PUSH1 0x1E SLOAD PUSH1 0x1D SSTORE JUMP JUMPDEST PUSH1 0x20 SLOAD PUSH1 0x1F SSTORE JUMPDEST PUSH1 0x40 MLOAD DUP2 ISZERO ISZERO DUP2 MSTORE PUSH32 0x754DB841CD0BA8B9D7311DC4B5C8CD44B1FF98BCB4E1D8D9CAB86566BCE3A1FA SWAP1 PUSH1 0x20 ADD PUSH2 0x18D7 JUMP JUMPDEST PUSH1 0x5 SLOAD PUSH1 0x1 PUSH1 0x1 PUSH1 0xA0 SHL SUB AND CALLER EQ PUSH2 0x1FE7 JUMPI PUSH1 0x40 MLOAD PUSH3 0x461BCD PUSH1 0xE5 SHL DUP2 MSTORE PUSH1 0x4 ADD PUSH2 0xAD8 SWAP1 PUSH2 0x375F JUMP JUMPDEST PUSH1 0x1 PUSH1 0x1 PUSH1 0xA0 SHL SUB DUP2 AND PUSH2 0x204C JUMPI PUSH1 0x40 MLOAD PUSH3 0x461BCD PUSH1 0xE5 SHL DUP2 MSTORE PUSH1 0x20 PUSH1 0x4 DUP3 ADD MSTORE PUSH1 0x26 PUSH1 0x24 DUP3 ADD MSTORE PUSH32 0x4F776E61626C653A206E6577206F776E657220697320746865207A65726F2061 PUSH1 0x44 DUP3 ADD MSTORE PUSH6 0x646472657373 PUSH1 0xD0 SHL PUSH1 0x64 DUP3 ADD MSTORE PUSH1 0x84 ADD PUSH2 0xAD8 JUMP JUMPDEST PUSH2 0xF00 DUP2 PUSH2 0x295D JUMP JUMPDEST PUSH1 0x5 SLOAD PUSH1 0x1 PUSH1 0x1 PUSH1 0xA0 SHL SUB AND CALLER EQ PUSH2 0x207F JUMPI PUSH1 0x40 MLOAD PUSH3 0x461BCD PUSH1 0xE5 SHL DUP2 MSTORE PUSH1 0x4 ADD PUSH2 0xAD8 SWAP1 PUSH2 0x375F JUMP JUMPDEST PUSH1 0x1 PUSH1 0x1 PUSH1 0xA0 SHL SUB DUP2 AND PUSH0 SWAP1 DUP2 MSTORE PUSH1 0x9 PUSH1 0x20 MSTORE PUSH1 0x40 SWAP1 KECCAK256 SLOAD PUSH1 0xFF AND PUSH2 0x20E6 JUMPI PUSH1 0x40 MLOAD PUSH3 0x461BCD PUSH1 0xE5 SHL DUP2 MSTORE PUSH1 0x20 PUSH1 0x4 DUP3 ADD MSTORE PUSH1 0x1B PUSH1 0x24 DUP3 ADD MSTORE PUSH32 0x4163636F756E7420697320616C726561647920696E636C756465640000000000 PUSH1 0x44 DUP3 ADD MSTORE PUSH1 0x64 ADD PUSH2 0xAD8 JUMP JUMPDEST PUSH0 JUMPDEST PUSH1 0xA SLOAD DUP2 LT ISZERO PUSH2 0x21F6 JUMPI DUP2 PUSH1 0x1 PUSH1 0x1 PUSH1 0xA0 SHL SUB AND PUSH1 0xA DUP3 DUP2 SLOAD DUP2 LT PUSH2 0x210F JUMPI PUSH2 0x210F PUSH2 0x382B JUMP JUMPDEST PUSH0 SWAP2 DUP3 MSTORE PUSH1 0x20 SWAP1 SWAP2 KECCAK256 ADD SLOAD PUSH1 0x1 PUSH1 0x1 PUSH1 0xA0 SHL SUB AND SUB PUSH2 0x21EE JUMPI PUSH1 0xA DUP1 SLOAD PUSH2 0x2138 SWAP1 PUSH1 0x1 SWAP1 PUSH2 0x3701 JUMP JUMPDEST DUP2 SLOAD DUP2 LT PUSH2 0x2148 JUMPI PUSH2 0x2148 PUSH2 0x382B JUMP JUMPDEST PUSH0 SWAP2 DUP3 MSTORE PUSH1 0x20 SWAP1 SWAP2 KECCAK256 ADD SLOAD PUSH1 0xA DUP1 SLOAD PUSH1 0x1 PUSH1 0x1 PUSH1 0xA0 SHL SUB SWAP1 SWAP3 AND SWAP2 DUP4 SWAP1 DUP2 LT PUSH2 0x2173 JUMPI PUSH2 0x2173 PUSH2 0x382B JUMP JUMPDEST PUSH0 SWAP2 DUP3 MSTORE PUSH1 0x20 DUP1 DUP4 KECCAK256 SWAP2 SWAP1 SWAP2 ADD DUP1 SLOAD PUSH1 0x1 PUSH1 0x1 PUSH1 0xA0 SHL SUB NOT AND PUSH1 0x1 PUSH1 0x1 PUSH1 0xA0 SHL SUB SWAP5 DUP6 AND OR SWAP1 SSTORE SWAP2 DUP5 AND DUP2 MSTORE PUSH1 0x7 DUP3 MSTORE PUSH1 0x40 DUP1 DUP3 KECCAK256 DUP3 SWAP1 SSTORE PUSH1 0x9 SWAP1 SWAP3 MSTORE KECCAK256 DUP1 SLOAD PUSH1 0xFF NOT AND SWAP1 SSTORE PUSH1 0xA DUP1 SLOAD DUP1 PUSH2 0x21CA JUMPI PUSH2 0x21CA PUSH2 0x383F JUMP JUMPDEST PUSH0 DUP3 DUP2 MSTORE PUSH1 0x20 SWAP1 KECCAK256 DUP2 ADD PUSH0 NOT SWAP1 DUP2 ADD DUP1 SLOAD PUSH1 0x1 PUSH1 0x1 PUSH1 0xA0 SHL SUB NOT AND SWAP1 SSTORE ADD SWAP1 SSTORE POP POP JUMP JUMPDEST PUSH1 0x1 ADD PUSH2 0x20E8 JUMP JUMPDEST POP POP JUMP JUMPDEST PUSH0 DUP1 PUSH0 DUP1 PUSH0 PUSH2 0x2208 DUP7 PUSH2 0x29F9 JUMP JUMPDEST SWAP1 POP PUSH0 PUSH2 0x2215 DUP3 DUP9 PUSH2 0x3701 JUMP JUMPDEST SWAP1 POP PUSH0 PUSH2 0x2220 PUSH2 0x2A39 JUMP JUMPDEST SWAP1 POP PUSH0 PUSH2 0x222D DUP3 DUP5 PUSH2 0x37F5 JUMP JUMPDEST SWAP1 POP PUSH0 PUSH2 0x223A DUP4 DUP12 PUSH2 0x37F5 JUMP JUMPDEST SWAP11 SWAP2 SWAP10 POP SWAP3 SWAP8 POP SWAP1 SWAP6 POP SWAP4 POP POP POP POP JUMP JUMPDEST PUSH1 0x1 PUSH1 0x1 PUSH1 0xA0 SHL SUB DUP4 AND PUSH2 0x22AD JUMPI PUSH1 0x40 MLOAD PUSH3 0x461BCD PUSH1 0xE5 SHL DUP2 MSTORE PUSH1 0x20 PUSH1 0x4 DUP3 ADD MSTORE PUSH1 0x24 DUP1 DUP3 ADD MSTORE PUSH32 0x45524332303A20617070726F76652066726F6D20746865207A65726F20616464 PUSH1 0x44 DUP3 ADD MSTORE PUSH4 0x72657373 PUSH1 0xE0 SHL PUSH1 0x64 DUP3 ADD MSTORE PUSH1 0x84 ADD PUSH2 0xAD8 JUMP JUMPDEST PUSH1 0x1 PUSH1 0x1 PUSH1 0xA0 SHL SUB DUP3 AND PUSH2 0x230E JUMPI PUSH1 0x40 MLOAD PUSH3 0x461BCD PUSH1 0xE5 SHL DUP2 MSTORE PUSH1 0x20 PUSH1 0x4 DUP3 ADD MSTORE PUSH1 0x22 PUSH1 0x24 DUP3 ADD MSTORE PUSH32 0x45524332303A20617070726F766520746F20746865207A65726F206164647265 PUSH1 0x44 DUP3 ADD MSTORE PUSH2 0x7373 PUSH1 0xF0 SHL PUSH1 0x64 DUP3 ADD MSTORE PUSH1 0x84 ADD PUSH2 0xAD8 JUMP JUMPDEST PUSH1 0x1 PUSH1 0x1 PUSH1 0xA0 SHL SUB DUP4 DUP2 AND PUSH0 DUP2 DUP2 MSTORE PUSH1 0x1 PUSH1 0x20 SWAP1 DUP2 MSTORE PUSH1 0x40 DUP1 DUP4 KECCAK256 SWAP5 DUP8 AND DUP1 DUP5 MSTORE SWAP5 DUP3 MSTORE SWAP2 DUP3 SWAP1 KECCAK256 DUP6 SWAP1 SSTORE SWAP1 MLOAD DUP5 DUP2 MSTORE PUSH32 0x8C5BE1E5EBEC7D5BD14F71427D1E84F3DD0314C0F7B2291E5B200AC8C7C3B925 SWAP2 ADD PUSH1 0x40 MLOAD DUP1 SWAP2 SUB SWAP1 LOG3 POP POP POP JUMP JUMPDEST PUSH0 PUSH1 0x1D SLOAD PUSH1 0x1B SLOAD PUSH1 0x19 SLOAD PUSH1 0x15 SLOAD PUSH1 0x11 SLOAD PUSH1 0x17 SLOAD PUSH2 0x238B SWAP2 SWAP1 PUSH2 0x3714 JUMP JUMPDEST PUSH2 0x2395 SWAP2 SWAP1 PUSH2 0x3714 JUMP JUMPDEST PUSH2 0x239F SWAP2 SWAP1 PUSH2 0x3714 JUMP JUMPDEST PUSH2 0x23A9 SWAP2 SWAP1 PUSH2 0x3714 JUMP JUMPDEST PUSH2 0x23B3 SWAP2 SWAP1 PUSH2 0x3714 JUMP JUMPDEST SWAP1 POP PUSH1 0x5 DUP2 GT ISZERO PUSH2 0xF00 JUMPI PUSH1 0x40 MLOAD PUSH3 0x461BCD PUSH1 0xE5 SHL DUP2 MSTORE PUSH1 0x20 PUSH1 0x4 DUP3 ADD MSTORE PUSH1 0x1F PUSH1 0x24 DUP3 ADD MSTORE PUSH32 0x546F74616C20666565732065786365656420746865203525206C696D69742E00 PUSH1 0x44 DUP3 ADD MSTORE PUSH1 0x64 ADD PUSH2 0xAD8 JUMP JUMPDEST PUSH1 0x1 PUSH1 0x1 PUSH1 0xA0 SHL SUB DUP4 AND PUSH2 0x246A JUMPI PUSH1 0x40 MLOAD PUSH3 0x461BCD PUSH1 0xE5 SHL DUP2 MSTORE PUSH1 0x20 PUSH1 0x4 DUP3 ADD MSTORE PUSH1 0x25 PUSH1 0x24 DUP3 ADD MSTORE PUSH32 0x45524332303A207472616E736665722066726F6D20746865207A65726F206164 PUSH1 0x44 DUP3 ADD MSTORE PUSH5 0x6472657373 PUSH1 0xD8 SHL PUSH1 0x64 DUP3 ADD MSTORE PUSH1 0x84 ADD PUSH2 0xAD8 JUMP JUMPDEST PUSH1 0x1 PUSH1 0x1 PUSH1 0xA0 SHL SUB DUP3 AND PUSH2 0x24CC JUMPI PUSH1 0x40 MLOAD PUSH3 0x461BCD PUSH1 0xE5 SHL DUP2 MSTORE PUSH1 0x20 PUSH1 0x4 DUP3 ADD MSTORE PUSH1 0x23 PUSH1 0x24 DUP3 ADD MSTORE PUSH32 0x45524332303A207472616E7366657220746F20746865207A65726F2061646472 PUSH1 0x44 DUP3 ADD MSTORE PUSH3 0x657373 PUSH1 0xE8 SHL PUSH1 0x64 DUP3 ADD MSTORE PUSH1 0x84 ADD PUSH2 0xAD8 JUMP JUMPDEST PUSH0 DUP2 GT PUSH2 0x252D JUMPI PUSH1 0x40 MLOAD PUSH3 0x461BCD PUSH1 0xE5 SHL DUP2 MSTORE PUSH1 0x20 PUSH1 0x4 DUP3 ADD MSTORE PUSH1 0x29 PUSH1 0x24 DUP3 ADD MSTORE PUSH32 0x5472616E7366657220616D6F756E74206D757374206265206772656174657220 PUSH1 0x44 DUP3 ADD MSTORE PUSH9 0x7468616E207A65726F PUSH1 0xB8 SHL PUSH1 0x64 DUP3 ADD MSTORE PUSH1 0x84 ADD PUSH2 0xAD8 JUMP JUMPDEST PUSH0 PUSH2 0x2537 DUP5 PUSH2 0x1489 JUMP JUMPDEST SWAP1 POP DUP2 DUP2 LT ISZERO PUSH2 0x2598 JUMPI PUSH1 0x40 MLOAD PUSH3 0x461BCD PUSH1 0xE5 SHL DUP2 MSTORE PUSH1 0x20 PUSH1 0x4 DUP3 ADD MSTORE PUSH1 0x26 PUSH1 0x24 DUP3 ADD MSTORE PUSH32 0x45524332303A207472616E7366657220616D6F756E7420657863656564732062 PUSH1 0x44 DUP3 ADD MSTORE PUSH6 0x616C616E6365 PUSH1 0xD0 SHL PUSH1 0x64 DUP3 ADD MSTORE PUSH1 0x84 ADD PUSH2 0xAD8 JUMP JUMPDEST PUSH1 0x5 SLOAD PUSH1 0x1 PUSH1 0x1 PUSH1 0xA0 SHL SUB DUP6 DUP2 AND SWAP2 AND EQ DUP1 ISZERO SWAP1 PUSH2 0x25C4 JUMPI POP PUSH1 0x5 SLOAD PUSH1 0x1 PUSH1 0x1 PUSH1 0xA0 SHL SUB DUP5 DUP2 AND SWAP2 AND EQ ISZERO JUMPDEST ISZERO PUSH2 0x262C JUMPI PUSH1 0x1F SLOAD DUP3 GT ISZERO PUSH2 0x262C JUMPI PUSH1 0x40 MLOAD PUSH3 0x461BCD PUSH1 0xE5 SHL DUP2 MSTORE PUSH1 0x20 PUSH1 0x4 DUP3 ADD MSTORE PUSH1 0x28 PUSH1 0x24 DUP3 ADD MSTORE PUSH32 0x5472616E7366657220616D6F756E74206578636565647320746865206D617854 PUSH1 0x44 DUP3 ADD MSTORE PUSH8 0x3C20B6B7BAB73A17 PUSH1 0xC1 SHL PUSH1 0x64 DUP3 ADD MSTORE PUSH1 0x84 ADD PUSH2 0xAD8 JUMP JUMPDEST PUSH0 PUSH2 0x2636 ADDRESS PUSH2 0x1489 JUMP JUMPDEST PUSH1 0x21 SLOAD PUSH1 0x22 SLOAD SWAP2 SWAP3 POP DUP3 LT ISZERO SWAP1 PUSH1 0xFF AND ISZERO DUP1 ISZERO PUSH2 0x265A JUMPI POP PUSH1 0x22 SLOAD PUSH2 0x100 SWAP1 DIV PUSH1 0xFF AND JUMPDEST DUP1 ISZERO PUSH2 0x2697 JUMPI POP PUSH32 0x0 PUSH1 0x1 PUSH1 0x1 PUSH1 0xA0 SHL SUB AND DUP6 PUSH1 0x1 PUSH1 0x1 PUSH1 0xA0 SHL SUB AND EQ JUMPDEST ISZERO PUSH2 0x26B0 JUMPI DUP1 ISZERO PUSH2 0x26B0 JUMPI PUSH1 0x21 SLOAD SWAP2 POP PUSH2 0x26B0 DUP3 PUSH2 0x2A5A JUMP JUMPDEST PUSH1 0x1 PUSH1 0x1 PUSH1 0xA0 SHL SUB DUP7 AND PUSH0 SWAP1 DUP2 MSTORE PUSH1 0x8 PUSH1 0x20 MSTORE PUSH1 0x40 SWAP1 KECCAK256 SLOAD PUSH1 0x1 SWAP1 PUSH1 0xFF AND DUP1 PUSH2 0x26F0 JUMPI POP PUSH1 0x1 PUSH1 0x1 PUSH1 0xA0 SHL SUB DUP7 AND PUSH0 SWAP1 DUP2 MSTORE PUSH1 0x8 PUSH1 0x20 MSTORE PUSH1 0x40 SWAP1 KECCAK256 SLOAD PUSH1 0xFF AND JUMPDEST ISZERO PUSH2 0x26F8 JUMPI POP PUSH0 JUMPDEST PUSH2 0x2704 DUP8 DUP8 DUP8 DUP5 PUSH2 0x2CA8 JUMP JUMPDEST POP POP POP POP POP POP POP JUMP JUMPDEST PUSH1 0x1 PUSH1 0x1 PUSH1 0xA0 SHL SUB DUP3 AND PUSH2 0x276D JUMPI PUSH1 0x40 MLOAD PUSH3 0x461BCD PUSH1 0xE5 SHL DUP2 MSTORE PUSH1 0x20 PUSH1 0x4 DUP3 ADD MSTORE PUSH1 0x21 PUSH1 0x24 DUP3 ADD MSTORE PUSH32 0x45524332303A206275726E2066726F6D20746865207A65726F20616464726573 PUSH1 0x44 DUP3 ADD MSTORE PUSH1 0x73 PUSH1 0xF8 SHL PUSH1 0x64 DUP3 ADD MSTORE PUSH1 0x84 ADD PUSH2 0xAD8 JUMP JUMPDEST PUSH0 PUSH2 0x2777 DUP4 PUSH2 0x1489 JUMP JUMPDEST SWAP1 POP DUP2 DUP2 LT ISZERO PUSH2 0x27D4 JUMPI PUSH1 0x40 MLOAD PUSH3 0x461BCD PUSH1 0xE5 SHL DUP2 MSTORE PUSH1 0x20 PUSH1 0x4 DUP3 ADD MSTORE PUSH1 0x22 PUSH1 0x24 DUP3 ADD MSTORE PUSH32 0x45524332303A206275726E20616D6F756E7420657863656564732062616C616E PUSH1 0x44 DUP3 ADD MSTORE PUSH2 0x6365 PUSH1 0xF0 SHL PUSH1 0x64 DUP3 ADD MSTORE PUSH1 0x84 ADD PUSH2 0xAD8 JUMP JUMPDEST PUSH0 PUSH2 0x27DD PUSH2 0x2A39 JUMP JUMPDEST SWAP1 POP PUSH0 PUSH2 0x27EA DUP3 DUP6 PUSH2 0x37F5 JUMP JUMPDEST PUSH1 0x1 PUSH1 0x1 PUSH1 0xA0 SHL SUB DUP7 AND PUSH0 SWAP1 DUP2 MSTORE PUSH1 0x9 PUSH1 0x20 MSTORE PUSH1 0x40 SWAP1 KECCAK256 SLOAD SWAP1 SWAP2 POP PUSH1 0xFF AND ISZERO PUSH2 0x2849 JUMPI PUSH1 0x1 PUSH1 0x1 PUSH1 0xA0 SHL SUB DUP6 AND PUSH0 SWAP1 DUP2 MSTORE PUSH1 0x7 PUSH1 0x20 MSTORE PUSH1 0x40 SWAP1 KECCAK256 SLOAD PUSH2 0x2830 SWAP1 DUP6 SWAP1 PUSH2 0x3701 JUMP JUMPDEST PUSH1 0x1 PUSH1 0x1 PUSH1 0xA0 SHL SUB DUP7 AND PUSH0 SWAP1 DUP2 MSTORE PUSH1 0x7 PUSH1 0x20 MSTORE PUSH1 0x40 SWAP1 KECCAK256 SSTORE JUMPDEST PUSH1 0x1 PUSH1 0x1 PUSH1 0xA0 SHL SUB DUP6 AND PUSH0 SWAP1 DUP2 MSTORE PUSH1 0x6 PUSH1 0x20 MSTORE PUSH1 0x40 SWAP1 KECCAK256 SLOAD PUSH2 0x286C SWAP1 DUP3 SWAP1 PUSH2 0x3701 JUMP JUMPDEST PUSH1 0x1 PUSH1 0x1 PUSH1 0xA0 SHL SUB DUP7 AND PUSH0 SWAP1 DUP2 MSTORE PUSH1 0x6 PUSH1 0x20 MSTORE PUSH1 0x40 SWAP1 KECCAK256 SSTORE PUSH1 0xE SLOAD PUSH2 0x2892 SWAP1 DUP6 SWAP1 PUSH2 0x3701 JUMP JUMPDEST PUSH1 0xE SSTORE PUSH1 0xF SLOAD PUSH2 0x28A3 SWAP1 DUP3 SWAP1 PUSH2 0x3701 JUMP JUMPDEST PUSH1 0xF SSTORE PUSH1 0x40 MLOAD DUP5 DUP2 MSTORE PUSH0 SWAP1 PUSH1 0x1 PUSH1 0x1 PUSH1 0xA0 SHL SUB DUP8 AND SWAP1 PUSH0 DUP1 MLOAD PUSH1 0x20 PUSH2 0x3930 DUP4 CODECOPY DUP2 MLOAD SWAP2 MSTORE SWAP1 PUSH1 0x20 ADD JUMPDEST PUSH1 0x40 MLOAD DUP1 SWAP2 SUB SWAP1 LOG3 POP POP POP POP POP JUMP JUMPDEST PUSH0 PUSH1 0xF SLOAD DUP3 GT ISZERO PUSH2 0x2941 JUMPI PUSH1 0x40 MLOAD PUSH3 0x461BCD PUSH1 0xE5 SHL DUP2 MSTORE PUSH1 0x20 PUSH1 0x4 DUP3 ADD MSTORE PUSH1 0x2A PUSH1 0x24 DUP3 ADD MSTORE PUSH32 0x416D6F756E74206D757374206265206C657373207468616E20746F74616C2072 PUSH1 0x44 DUP3 ADD MSTORE PUSH10 0x65666C656374696F6E73 PUSH1 0xB0 SHL PUSH1 0x64 DUP3 ADD MSTORE PUSH1 0x84 ADD PUSH2 0xAD8 JUMP JUMPDEST PUSH0 PUSH2 0x294A PUSH2 0x2A39 JUMP JUMPDEST SWAP1 POP PUSH2 0x2956 DUP2 DUP5 PUSH2 0x380C JUMP JUMPDEST SWAP4 SWAP3 POP POP POP JUMP JUMPDEST PUSH1 0x5 DUP1 SLOAD PUSH1 0x1 PUSH1 0x1 PUSH1 0xA0 SHL SUB DUP4 DUP2 AND PUSH1 0x1 PUSH1 0x1 PUSH1 0xA0 SHL SUB NOT DUP4 AND DUP2 OR SWAP1 SWAP4 SSTORE PUSH1 0x40 MLOAD SWAP2 AND SWAP2 SWAP1 DUP3 SWAP1 PUSH32 0x8BE0079C531659141344CD1FD0A4F28419497F9722A3DAAFE3B4186F6B6457E0 SWAP1 PUSH0 SWAP1 LOG3 POP POP JUMP JUMPDEST PUSH1 0x13 DUP1 SLOAD PUSH1 0x14 SSTORE PUSH1 0x15 DUP1 SLOAD PUSH1 0x16 SSTORE PUSH1 0x17 DUP1 SLOAD PUSH1 0x18 SSTORE PUSH1 0x11 DUP1 SLOAD PUSH1 0x12 SSTORE PUSH1 0x19 DUP1 SLOAD PUSH1 0x1A SSTORE PUSH1 0x1B DUP1 SLOAD PUSH1 0x1C SSTORE PUSH1 0x1D DUP1 SLOAD PUSH1 0x1E SSTORE PUSH0 SWAP7 DUP8 SWAP1 SSTORE SWAP5 DUP7 SWAP1 SSTORE SWAP3 DUP6 SWAP1 SSTORE SWAP1 DUP5 SWAP1 SSTORE DUP4 SWAP1 SSTORE DUP3 SWAP1 SSTORE SSTORE JUMP JUMPDEST PUSH0 DUP1 PUSH1 0x17 SLOAD PUSH1 0x11 SLOAD PUSH1 0x13 SLOAD PUSH2 0x2A0E SWAP2 SWAP1 PUSH2 0x3714 JUMP JUMPDEST PUSH2 0x2A18 SWAP2 SWAP1 PUSH2 0x3714 JUMP JUMPDEST SWAP1 POP PUSH0 PUSH1 0x64 PUSH2 0x2A27 DUP4 DUP7 PUSH2 0x37F5 JUMP JUMPDEST PUSH2 0x2A31 SWAP2 SWAP1 PUSH2 0x380C JUMP JUMPDEST SWAP5 SWAP4 POP POP POP POP JUMP JUMPDEST PUSH0 DUP1 PUSH0 PUSH2 0x2A44 PUSH2 0x2CFA JUMP JUMPDEST SWAP1 SWAP3 POP SWAP1 POP PUSH2 0x2A53 DUP2 DUP4 PUSH2 0x380C JUMP JUMPDEST SWAP3 POP POP POP SWAP1 JUMP JUMPDEST PUSH1 0x22 DUP1 SLOAD PUSH1 0xFF NOT AND PUSH1 0x1 OR SWAP1 SSTORE PUSH1 0x13 SLOAD ISZERO PUSH2 0x2C9B JUMPI PUSH1 0x13 SLOAD PUSH1 0x15 SLOAD SELFBALANCE SWAP2 PUSH0 SWAP2 PUSH2 0x2A83 SWAP1 DUP6 PUSH2 0x37F5 JUMP JUMPDEST PUSH2 0x2A8D SWAP2 SWAP1 PUSH2 0x380C JUMP JUMPDEST SWAP1 POP PUSH0 PUSH2 0x2A9B PUSH1 0x2 DUP4 PUSH2 0x380C JUMP JUMPDEST SWAP1 POP PUSH0 PUSH2 0x2AA8 DUP3 DUP5 PUSH2 0x3701 JUMP JUMPDEST SWAP1 POP PUSH2 0x2ABC PUSH2 0x2AB7 DUP3 DUP8 PUSH2 0x3701 JUMP JUMPDEST PUSH2 0x2E6A JUMP JUMPDEST PUSH0 PUSH2 0x2AC7 DUP6 SELFBALANCE PUSH2 0x3701 JUMP JUMPDEST SWAP1 POP PUSH0 PUSH1 0x2 PUSH1 0x15 SLOAD PUSH1 0xA PUSH2 0x2ADB SWAP2 SWAP1 PUSH2 0x37F5 JUMP JUMPDEST PUSH2 0x2AE5 SWAP2 SWAP1 PUSH2 0x380C JUMP JUMPDEST PUSH1 0x13 SLOAD PUSH2 0x2AF3 SWAP1 PUSH1 0xA PUSH2 0x37F5 JUMP JUMPDEST PUSH2 0x2AFD SWAP2 SWAP1 PUSH2 0x3701 JUMP JUMPDEST PUSH1 0x19 SLOAD PUSH2 0x2B0B SWAP1 PUSH1 0xA PUSH2 0x37F5 JUMP JUMPDEST PUSH2 0x2B15 SWAP1 DUP5 PUSH2 0x37F5 JUMP JUMPDEST PUSH2 0x2B1F SWAP2 SWAP1 PUSH2 0x380C JUMP JUMPDEST PUSH1 0xB SLOAD SWAP1 SWAP2 POP PUSH2 0x2B38 SWAP1 PUSH1 0x1 PUSH1 0x1 PUSH1 0xA0 SHL SUB AND DUP3 PUSH2 0x3012 JUMP JUMPDEST PUSH0 PUSH1 0x2 PUSH1 0x15 SLOAD PUSH1 0xA PUSH2 0x2B4A SWAP2 SWAP1 PUSH2 0x37F5 JUMP JUMPDEST PUSH2 0x2B54 SWAP2 SWAP1 PUSH2 0x380C JUMP JUMPDEST PUSH1 0x13 SLOAD PUSH2 0x2B62 SWAP1 PUSH1 0xA PUSH2 0x37F5 JUMP JUMPDEST PUSH2 0x2B6C SWAP2 SWAP1 PUSH2 0x3701 JUMP JUMPDEST PUSH1 0x1B SLOAD PUSH2 0x2B7A SWAP1 PUSH1 0xA PUSH2 0x37F5 JUMP JUMPDEST PUSH2 0x2B84 SWAP1 DUP6 PUSH2 0x37F5 JUMP JUMPDEST PUSH2 0x2B8E SWAP2 SWAP1 PUSH2 0x380C JUMP JUMPDEST PUSH1 0xC SLOAD SWAP1 SWAP2 POP PUSH2 0x2BA7 SWAP1 PUSH1 0x1 PUSH1 0x1 PUSH1 0xA0 SHL SUB AND DUP3 PUSH2 0x3012 JUMP JUMPDEST PUSH0 PUSH1 0x2 PUSH1 0x15 SLOAD PUSH1 0xA PUSH2 0x2BB9 SWAP2 SWAP1 PUSH2 0x37F5 JUMP JUMPDEST PUSH2 0x2BC3 SWAP2 SWAP1 PUSH2 0x380C JUMP JUMPDEST PUSH1 0x13 SLOAD PUSH2 0x2BD1 SWAP1 PUSH1 0xA PUSH2 0x37F5 JUMP JUMPDEST PUSH2 0x2BDB SWAP2 SWAP1 PUSH2 0x3701 JUMP JUMPDEST PUSH1 0x2 PUSH1 0x15 SLOAD DUP7 PUSH2 0x2BEB SWAP2 SWAP1 PUSH2 0x37F5 JUMP JUMPDEST PUSH2 0x2BF6 SWAP1 PUSH1 0xA PUSH2 0x37F5 JUMP JUMPDEST PUSH2 0x2C00 SWAP2 SWAP1 PUSH2 0x380C JUMP JUMPDEST PUSH2 0x2C0A SWAP2 SWAP1 PUSH2 0x380C JUMP JUMPDEST SWAP1 POP PUSH2 0x2C16 DUP6 DUP3 PUSH2 0x30B1 JUMP JUMPDEST PUSH1 0x40 DUP1 MLOAD DUP8 DUP2 MSTORE PUSH1 0x20 DUP2 ADD DUP4 SWAP1 MSTORE SWAP1 DUP2 ADD DUP7 SWAP1 MSTORE PUSH32 0x17BBFB9A6069321B6DED73BD96327C9E6B7212A5CD51FF219CD61370ACAFB561 SWAP1 PUSH1 0x60 ADD PUSH1 0x40 MLOAD DUP1 SWAP2 SUB SWAP1 LOG1 PUSH0 DUP2 DUP4 PUSH2 0x2C64 DUP7 DUP9 PUSH2 0x3701 JUMP JUMPDEST PUSH2 0x2C6E SWAP2 SWAP1 PUSH2 0x3701 JUMP JUMPDEST PUSH2 0x2C78 SWAP2 SWAP1 PUSH2 0x3701 JUMP JUMPDEST PUSH1 0xD SLOAD SWAP1 SWAP2 POP PUSH2 0x2C91 SWAP1 PUSH1 0x1 PUSH1 0x1 PUSH1 0xA0 SHL SUB AND DUP3 PUSH2 0x3012 JUMP JUMPDEST POP POP POP POP POP POP POP POP POP JUMPDEST POP PUSH1 0x22 DUP1 SLOAD PUSH1 0xFF NOT AND SWAP1 SSTORE JUMP JUMPDEST DUP1 PUSH2 0x2CB5 JUMPI PUSH2 0x2CB5 PUSH2 0x29AE JUMP JUMPDEST PUSH2 0x2CC0 DUP5 DUP5 DUP5 PUSH2 0x3189 JUMP JUMPDEST DUP1 PUSH2 0x2CF4 JUMPI PUSH2 0x2CF4 PUSH1 0x14 SLOAD PUSH1 0x13 SSTORE PUSH1 0x16 SLOAD PUSH1 0x15 SSTORE PUSH1 0x18 SLOAD PUSH1 0x17 SSTORE PUSH1 0x12 SLOAD PUSH1 0x11 SSTORE PUSH1 0x1A SLOAD PUSH1 0x19 SSTORE PUSH1 0x1C SLOAD PUSH1 0x1B SSTORE PUSH1 0x1E SLOAD PUSH1 0x1D SSTORE JUMP JUMPDEST POP POP POP POP JUMP JUMPDEST PUSH1 0xF SLOAD PUSH1 0xE SLOAD PUSH0 SWAP2 DUP3 SWAP2 DUP3 JUMPDEST PUSH1 0xA SLOAD DUP2 LT ISZERO PUSH2 0x2E39 JUMPI DUP3 PUSH1 0x6 PUSH0 PUSH1 0xA DUP5 DUP2 SLOAD DUP2 LT PUSH2 0x2D27 JUMPI PUSH2 0x2D27 PUSH2 0x382B JUMP JUMPDEST PUSH0 SWAP2 DUP3 MSTORE PUSH1 0x20 DUP1 DUP4 KECCAK256 SWAP1 SWAP2 ADD SLOAD PUSH1 0x1 PUSH1 0x1 PUSH1 0xA0 SHL SUB AND DUP4 MSTORE DUP3 ADD SWAP3 SWAP1 SWAP3 MSTORE PUSH1 0x40 ADD SWAP1 KECCAK256 SLOAD GT DUP1 PUSH2 0x2D8F JUMPI POP DUP2 PUSH1 0x7 PUSH0 PUSH1 0xA DUP5 DUP2 SLOAD DUP2 LT PUSH2 0x2D69 JUMPI PUSH2 0x2D69 PUSH2 0x382B JUMP JUMPDEST PUSH0 SWAP2 DUP3 MSTORE PUSH1 0x20 DUP1 DUP4 KECCAK256 SWAP1 SWAP2 ADD SLOAD PUSH1 0x1 PUSH1 0x1 PUSH1 0xA0 SHL SUB AND DUP4 MSTORE DUP3 ADD SWAP3 SWAP1 SWAP3 MSTORE PUSH1 0x40 ADD SWAP1 KECCAK256 SLOAD GT JUMPDEST ISZERO PUSH2 0x2DA5 JUMPI PUSH1 0xF SLOAD PUSH1 0xE SLOAD SWAP5 POP SWAP5 POP POP POP POP SWAP1 SWAP2 JUMP JUMPDEST PUSH1 0x6 PUSH0 PUSH1 0xA DUP4 DUP2 SLOAD DUP2 LT PUSH2 0x2DBB JUMPI PUSH2 0x2DBB PUSH2 0x382B JUMP JUMPDEST PUSH0 SWAP2 DUP3 MSTORE PUSH1 0x20 DUP1 DUP4 KECCAK256 SWAP1 SWAP2 ADD SLOAD PUSH1 0x1 PUSH1 0x1 PUSH1 0xA0 SHL SUB AND DUP4 MSTORE DUP3 ADD SWAP3 SWAP1 SWAP3 MSTORE PUSH1 0x40 ADD SWAP1 KECCAK256 SLOAD PUSH2 0x2DE9 SWAP1 DUP5 PUSH2 0x3701 JUMP JUMPDEST SWAP3 POP PUSH1 0x7 PUSH0 PUSH1 0xA DUP4 DUP2 SLOAD DUP2 LT PUSH2 0x2E01 JUMPI PUSH2 0x2E01 PUSH2 0x382B JUMP JUMPDEST PUSH0 SWAP2 DUP3 MSTORE PUSH1 0x20 DUP1 DUP4 KECCAK256 SWAP1 SWAP2 ADD SLOAD PUSH1 0x1 PUSH1 0x1 PUSH1 0xA0 SHL SUB AND DUP4 MSTORE DUP3 ADD SWAP3 SWAP1 SWAP3 MSTORE PUSH1 0x40 ADD SWAP1 KECCAK256 SLOAD PUSH2 0x2E2F SWAP1 DUP4 PUSH2 0x3701 JUMP JUMPDEST SWAP2 POP PUSH1 0x1 ADD PUSH2 0x2D06 JUMP JUMPDEST POP PUSH1 0xE SLOAD PUSH1 0xF SLOAD PUSH2 0x2E4A SWAP2 SWAP1 PUSH2 0x380C JUMP JUMPDEST DUP3 LT ISZERO PUSH2 0x2E61 JUMPI PUSH1 0xF SLOAD PUSH1 0xE SLOAD SWAP4 POP SWAP4 POP POP POP SWAP1 SWAP2 JUMP JUMPDEST SWAP1 SWAP4 SWAP1 SWAP3 POP SWAP1 POP JUMP JUMPDEST PUSH1 0x40 DUP1 MLOAD PUSH1 0x2 DUP1 DUP3 MSTORE PUSH1 0x60 DUP3 ADD DUP4 MSTORE PUSH0 SWAP3 PUSH1 0x20 DUP4 ADD SWAP1 DUP1 CALLDATASIZE DUP4 CALLDATACOPY ADD SWAP1 POP POP SWAP1 POP ADDRESS DUP2 PUSH0 DUP2 MLOAD DUP2 LT PUSH2 0x2E9D JUMPI PUSH2 0x2E9D PUSH2 0x382B JUMP JUMPDEST PUSH1 0x20 MUL PUSH1 0x20 ADD ADD SWAP1 PUSH1 0x1 PUSH1 0x1 PUSH1 0xA0 SHL SUB AND SWAP1 DUP2 PUSH1 0x1 PUSH1 0x1 PUSH1 0xA0 SHL SUB AND DUP2 MSTORE POP POP PUSH32 0x0 PUSH1 0x1 PUSH1 0x1 PUSH1 0xA0 SHL SUB AND PUSH4 0xAD5C4648 PUSH1 0x40 MLOAD DUP2 PUSH4 0xFFFFFFFF AND PUSH1 0xE0 SHL DUP2 MSTORE PUSH1 0x4 ADD PUSH1 0x20 PUSH1 0x40 MLOAD DUP1 DUP4 SUB DUP2 DUP7 GAS STATICCALL ISZERO DUP1 ISZERO PUSH2 0x2F19 JUMPI RETURNDATASIZE PUSH0 DUP1 RETURNDATACOPY RETURNDATASIZE PUSH0 REVERT JUMPDEST POP POP POP POP PUSH1 0x40 MLOAD RETURNDATASIZE PUSH1 0x1F NOT PUSH1 0x1F DUP3 ADD AND DUP3 ADD DUP1 PUSH1 0x40 MSTORE POP DUP2 ADD SWAP1 PUSH2 0x2F3D SWAP2 SWAP1 PUSH2 0x3853 JUMP JUMPDEST DUP2 PUSH1 0x1 DUP2 MLOAD DUP2 LT PUSH2 0x2F50 JUMPI PUSH2 0x2F50 PUSH2 0x382B JUMP JUMPDEST PUSH1 0x1 PUSH1 0x1 PUSH1 0xA0 SHL SUB SWAP3 DUP4 AND PUSH1 0x20 SWAP2 DUP3 MUL SWAP3 SWAP1 SWAP3 ADD ADD MSTORE PUSH1 0x40 MLOAD PUSH4 0x791AC947 PUSH1 0xE0 SHL DUP2 MSTORE PUSH32 0x0 SWAP1 SWAP2 AND SWAP1 PUSH4 0x791AC947 SWAP1 PUSH2 0x2FB4 SWAP1 DUP6 SWAP1 PUSH0 SWAP1 DUP7 SWAP1 ADDRESS SWAP1 TIMESTAMP SWAP1 PUSH1 0x4 ADD PUSH2 0x38B1 JUMP JUMPDEST PUSH0 PUSH1 0x40 MLOAD DUP1 DUP4 SUB DUP2 PUSH0 DUP8 DUP1 EXTCODESIZE ISZERO DUP1 ISZERO PUSH2 0x2FCB JUMPI PUSH0 DUP1 REVERT JUMPDEST POP GAS CALL ISZERO DUP1 ISZERO PUSH2 0x2FDD JUMPI RETURNDATASIZE PUSH0 DUP1 RETURNDATACOPY RETURNDATASIZE PUSH0 REVERT JUMPDEST POP POP POP POP PUSH32 0x32CDE87EB454F3A0B875AB23547023107CFAD454363EC88BA5695E2C24AA52A7 DUP3 DUP3 PUSH1 0x40 MLOAD PUSH2 0xCE2 SWAP3 SWAP2 SWAP1 PUSH2 0x38EC JUMP JUMPDEST PUSH0 DUP3 PUSH1 0x1 PUSH1 0x1 PUSH1 0xA0 SHL SUB AND DUP3 PUSH1 0x40 MLOAD PUSH0 PUSH1 0x40 MLOAD DUP1 DUP4 SUB DUP2 DUP6 DUP8 GAS CALL SWAP3 POP POP POP RETURNDATASIZE DUP1 PUSH0 DUP2 EQ PUSH2 0x305B JUMPI PUSH1 0x40 MLOAD SWAP2 POP PUSH1 0x1F NOT PUSH1 0x3F RETURNDATASIZE ADD AND DUP3 ADD PUSH1 0x40 MSTORE RETURNDATASIZE DUP3 MSTORE RETURNDATASIZE PUSH0 PUSH1 0x20 DUP5 ADD RETURNDATACOPY PUSH2 0x3060 JUMP JUMPDEST PUSH1 0x60 SWAP2 POP JUMPDEST POP POP SWAP1 POP DUP1 PUSH2 0x159A JUMPI DUP3 PUSH1 0x1 PUSH1 0x1 PUSH1 0xA0 SHL SUB AND PUSH32 0x1C43B9761B3FBA5321CA8212BFC231945F668CCC0C446F333999EEA9CE8FDA81 DUP4 PUSH1 0x40 MLOAD PUSH2 0x30A4 SWAP2 DUP2 MSTORE PUSH1 0x20 ADD SWAP1 JUMP JUMPDEST PUSH1 0x40 MLOAD DUP1 SWAP2 SUB SWAP1 LOG2 POP POP POP JUMP JUMPDEST PUSH32 0x0 PUSH1 0x1 PUSH1 0x1 PUSH1 0xA0 SHL SUB AND PUSH4 0xF305D719 DUP3 ADDRESS DUP6 PUSH0 DUP1 PUSH2 0x30F7 PUSH1 0x5 SLOAD PUSH1 0x1 PUSH1 0x1 PUSH1 0xA0 SHL SUB AND SWAP1 JUMP JUMPDEST PUSH1 0x40 MLOAD PUSH1 0xE0 DUP9 SWAP1 SHL PUSH1 0x1 PUSH1 0x1 PUSH1 0xE0 SHL SUB NOT AND DUP2 MSTORE PUSH1 0x1 PUSH1 0x1 PUSH1 0xA0 SHL SUB SWAP6 DUP7 AND PUSH1 0x4 DUP3 ADD MSTORE PUSH1 0x24 DUP2 ADD SWAP5 SWAP1 SWAP5 MSTORE PUSH1 0x44 DUP5 ADD SWAP3 SWAP1 SWAP3 MSTORE PUSH1 0x64 DUP4 ADD MSTORE SWAP1 SWAP2 AND PUSH1 0x84 DUP3 ADD MSTORE TIMESTAMP PUSH1 0xA4 DUP3 ADD MSTORE PUSH1 0xC4 ADD PUSH1 0x60 PUSH1 0x40 MLOAD DUP1 DUP4 SUB DUP2 DUP6 DUP9 GAS CALL ISZERO DUP1 ISZERO PUSH2 0x315D JUMPI RETURNDATASIZE PUSH0 DUP1 RETURNDATACOPY RETURNDATASIZE PUSH0 REVERT JUMPDEST POP POP POP POP POP PUSH1 0x40 MLOAD RETURNDATASIZE PUSH1 0x1F NOT PUSH1 0x1F DUP3 ADD AND DUP3 ADD DUP1 PUSH1 0x40 MSTORE POP DUP2 ADD SWAP1 PUSH2 0x3182 SWAP2 SWAP1 PUSH2 0x3904 JUMP JUMPDEST POP POP POP POP POP JUMP JUMPDEST PUSH0 DUP1 PUSH0 DUP1 PUSH2 0x3196 DUP6 PUSH2 0x21FA JUMP JUMPDEST PUSH1 0x1 PUSH1 0x1 PUSH1 0xA0 SHL SUB DUP12 AND PUSH0 SWAP1 DUP2 MSTORE PUSH1 0x6 PUSH1 0x20 MSTORE PUSH1 0x40 SWAP1 KECCAK256 SLOAD SWAP4 SWAP8 POP SWAP2 SWAP6 POP SWAP4 POP SWAP2 POP PUSH2 0x31C3 SWAP1 DUP6 SWAP1 PUSH2 0x3701 JUMP JUMPDEST PUSH1 0x1 PUSH1 0x1 PUSH1 0xA0 SHL SUB DUP1 DUP10 AND PUSH0 SWAP1 DUP2 MSTORE PUSH1 0x6 PUSH1 0x20 MSTORE PUSH1 0x40 DUP1 DUP3 KECCAK256 SWAP4 SWAP1 SWAP4 SSTORE SWAP1 DUP9 AND DUP2 MSTORE KECCAK256 SLOAD PUSH2 0x31F2 SWAP1 DUP5 SWAP1 PUSH2 0x3714 JUMP JUMPDEST PUSH1 0x1 PUSH1 0x1 PUSH1 0xA0 SHL SUB DUP1 DUP9 AND PUSH0 SWAP1 DUP2 MSTORE PUSH1 0x6 PUSH1 0x20 SWAP1 DUP2 MSTORE PUSH1 0x40 DUP1 DUP4 KECCAK256 SWAP5 SWAP1 SWAP5 SSTORE SWAP2 DUP11 AND DUP2 MSTORE PUSH1 0x9 SWAP1 SWAP2 MSTORE KECCAK256 SLOAD PUSH1 0xFF AND DUP1 ISZERO PUSH2 0x3244 JUMPI POP PUSH1 0x1 PUSH1 0x1 PUSH1 0xA0 SHL SUB DUP7 AND PUSH0 SWAP1 DUP2 MSTORE PUSH1 0x9 PUSH1 0x20 MSTORE PUSH1 0x40 SWAP1 KECCAK256 SLOAD PUSH1 0xFF AND ISZERO JUMPDEST ISZERO PUSH2 0x3289 JUMPI PUSH1 0x1 PUSH1 0x1 PUSH1 0xA0 SHL SUB DUP8 AND PUSH0 SWAP1 DUP2 MSTORE PUSH1 0x7 PUSH1 0x20 MSTORE PUSH1 0x40 SWAP1 KECCAK256 SLOAD PUSH2 0x326C SWAP1 DUP7 SWAP1 PUSH2 0x3701 JUMP JUMPDEST PUSH1 0x1 PUSH1 0x1 PUSH1 0xA0 SHL SUB DUP9 AND PUSH0 SWAP1 DUP2 MSTORE PUSH1 0x7 PUSH1 0x20 MSTORE PUSH1 0x40 SWAP1 KECCAK256 SSTORE PUSH2 0x33BB JUMP JUMPDEST PUSH1 0x1 PUSH1 0x1 PUSH1 0xA0 SHL SUB DUP8 AND PUSH0 SWAP1 DUP2 MSTORE PUSH1 0x9 PUSH1 0x20 MSTORE PUSH1 0x40 SWAP1 KECCAK256 SLOAD PUSH1 0xFF AND ISZERO DUP1 ISZERO PUSH2 0x32C8 JUMPI POP PUSH1 0x1 PUSH1 0x1 PUSH1 0xA0 SHL SUB DUP7 AND PUSH0 SWAP1 DUP2 MSTORE PUSH1 0x9 PUSH1 0x20 MSTORE PUSH1 0x40 SWAP1 KECCAK256 SLOAD PUSH1 0xFF AND JUMPDEST ISZERO PUSH2 0x330D JUMPI PUSH1 0x1 PUSH1 0x1 PUSH1 0xA0 SHL SUB DUP7 AND PUSH0 SWAP1 DUP2 MSTORE PUSH1 0x7 PUSH1 0x20 MSTORE PUSH1 0x40 SWAP1 KECCAK256 SLOAD PUSH2 0x32F0 SWAP1 DUP4 SWAP1 PUSH2 0x3714 JUMP JUMPDEST PUSH1 0x1 PUSH1 0x1 PUSH1 0xA0 SHL SUB DUP8 AND PUSH0 SWAP1 DUP2 MSTORE PUSH1 0x7 PUSH1 0x20 MSTORE PUSH1 0x40 SWAP1 KECCAK256 SSTORE PUSH2 0x33BB JUMP JUMPDEST PUSH1 0x1 PUSH1 0x1 PUSH1 0xA0 SHL SUB DUP8 AND PUSH0 SWAP1 DUP2 MSTORE PUSH1 0x9 PUSH1 0x20 MSTORE PUSH1 0x40 SWAP1 KECCAK256 SLOAD PUSH1 0xFF AND DUP1 ISZERO PUSH2 0x334B JUMPI POP PUSH1 0x1 PUSH1 0x1 PUSH1 0xA0 SHL SUB DUP7 AND PUSH0 SWAP1 DUP2 MSTORE PUSH1 0x9 PUSH1 0x20 MSTORE PUSH1 0x40 SWAP1 KECCAK256 SLOAD PUSH1 0xFF AND JUMPDEST ISZERO PUSH2 0x33BB JUMPI PUSH1 0x1 PUSH1 0x1 PUSH1 0xA0 SHL SUB DUP8 AND PUSH0 SWAP1 DUP2 MSTORE PUSH1 0x7 PUSH1 0x20 MSTORE PUSH1 0x40 SWAP1 KECCAK256 SLOAD PUSH2 0x3373 SWAP1 DUP7 SWAP1 PUSH2 0x3701 JUMP JUMPDEST PUSH1 0x1 PUSH1 0x1 PUSH1 0xA0 SHL SUB DUP1 DUP10 AND PUSH0 SWAP1 DUP2 MSTORE PUSH1 0x7 PUSH1 0x20 MSTORE PUSH1 0x40 DUP1 DUP3 KECCAK256 SWAP4 SWAP1 SWAP4 SSTORE SWAP1 DUP9 AND DUP2 MSTORE KECCAK256 SLOAD PUSH2 0x33A2 SWAP1 DUP4 SWAP1 PUSH2 0x3714 JUMP JUMPDEST PUSH1 0x1 PUSH1 0x1 PUSH1 0xA0 SHL SUB DUP8 AND PUSH0 SWAP1 DUP2 MSTORE PUSH1 0x7 PUSH1 0x20 MSTORE PUSH1 0x40 SWAP1 KECCAK256 SSTORE JUMPDEST PUSH2 0x33C5 DUP6 DUP3 PUSH2 0x3422 JUMP JUMPDEST PUSH2 0x33D0 DUP8 DUP7 DUP4 PUSH2 0x3474 JUMP JUMPDEST PUSH2 0x33DF DUP8 DUP7 DUP4 PUSH1 0x13 SLOAD ADDRESS PUSH2 0x34F0 JUMP JUMPDEST DUP6 PUSH1 0x1 PUSH1 0x1 PUSH1 0xA0 SHL SUB AND DUP8 PUSH1 0x1 PUSH1 0x1 PUSH1 0xA0 SHL SUB AND PUSH0 DUP1 MLOAD PUSH1 0x20 PUSH2 0x3930 DUP4 CODECOPY DUP2 MLOAD SWAP2 MSTORE DUP5 PUSH1 0x40 MLOAD PUSH2 0x3411 SWAP2 DUP2 MSTORE PUSH1 0x20 ADD SWAP1 JUMP JUMPDEST PUSH1 0x40 MLOAD DUP1 SWAP2 SUB SWAP1 LOG3 POP POP POP POP POP POP POP JUMP JUMPDEST PUSH0 PUSH1 0x64 PUSH1 0x11 SLOAD DUP5 PUSH2 0x3433 SWAP2 SWAP1 PUSH2 0x37F5 JUMP JUMPDEST PUSH2 0x343D SWAP2 SWAP1 PUSH2 0x380C JUMP JUMPDEST SWAP1 POP PUSH0 PUSH2 0x344A DUP4 DUP4 PUSH2 0x37F5 JUMP JUMPDEST SWAP1 POP DUP1 PUSH1 0xF SLOAD PUSH2 0x345A SWAP2 SWAP1 PUSH2 0x3701 JUMP JUMPDEST PUSH1 0xF SSTORE PUSH1 0x10 SLOAD PUSH2 0x346B SWAP1 DUP4 SWAP1 PUSH2 0x3714 JUMP JUMPDEST PUSH1 0x10 SSTORE POP POP POP POP JUMP JUMPDEST PUSH0 PUSH1 0x64 PUSH1 0x17 SLOAD DUP5 PUSH2 0x3485 SWAP2 SWAP1 PUSH2 0x37F5 JUMP JUMPDEST PUSH2 0x348F SWAP2 SWAP1 PUSH2 0x380C JUMP JUMPDEST SWAP1 POP DUP1 ISZERO PUSH2 0x2CF4 JUMPI PUSH0 PUSH2 0x34A2 DUP4 DUP4 PUSH2 0x37F5 JUMP JUMPDEST SWAP1 POP DUP2 PUSH1 0xE SLOAD PUSH2 0x34B2 SWAP2 SWAP1 PUSH2 0x3701 JUMP JUMPDEST PUSH1 0xE SSTORE PUSH1 0xF SLOAD PUSH2 0x34C3 SWAP1 DUP3 SWAP1 PUSH2 0x3701 JUMP JUMPDEST PUSH1 0xF SSTORE PUSH1 0x40 MLOAD DUP3 DUP2 MSTORE PUSH0 SWAP1 PUSH1 0x1 PUSH1 0x1 PUSH1 0xA0 SHL SUB DUP8 AND SWAP1 PUSH0 DUP1 MLOAD PUSH1 0x20 PUSH2 0x3930 DUP4 CODECOPY DUP2 MLOAD SWAP2 MSTORE SWAP1 PUSH1 0x20 ADD PUSH2 0x28CC JUMP JUMPDEST PUSH0 PUSH1 0x64 PUSH2 0x34FD DUP5 DUP8 PUSH2 0x37F5 JUMP JUMPDEST PUSH2 0x3507 SWAP2 SWAP1 PUSH2 0x380C JUMP JUMPDEST SWAP1 POP DUP1 ISZERO PUSH2 0x3580 JUMPI PUSH0 PUSH2 0x351A DUP6 DUP4 PUSH2 0x37F5 JUMP JUMPDEST PUSH1 0x1 PUSH1 0x1 PUSH1 0xA0 SHL SUB DUP5 AND PUSH0 SWAP1 DUP2 MSTORE PUSH1 0x6 PUSH1 0x20 MSTORE PUSH1 0x40 SWAP1 KECCAK256 SLOAD SWAP1 SWAP2 POP PUSH2 0x3540 SWAP1 DUP3 SWAP1 PUSH2 0x3714 JUMP JUMPDEST PUSH1 0x1 PUSH1 0x1 PUSH1 0xA0 SHL SUB DUP1 DUP6 AND PUSH0 DUP2 DUP2 MSTORE PUSH1 0x6 PUSH1 0x20 MSTORE PUSH1 0x40 SWAP1 DUP2 SWAP1 KECCAK256 SWAP4 SWAP1 SWAP4 SSTORE SWAP2 MLOAD SWAP1 DUP10 AND SWAP1 PUSH0 DUP1 MLOAD PUSH1 0x20 PUSH2 0x3930 DUP4 CODECOPY DUP2 MLOAD SWAP2 MSTORE SWAP1 PUSH2 0x3411 SWAP1 DUP7 DUP2 MSTORE PUSH1 0x20 ADD SWAP1 JUMP JUMPDEST POP POP POP POP POP POP JUMP JUMPDEST PUSH0 PUSH1 0x20 DUP3 DUP5 SUB SLT ISZERO PUSH2 0x3598 JUMPI PUSH0 DUP1 REVERT JUMPDEST POP CALLDATALOAD SWAP2 SWAP1 POP JUMP JUMPDEST PUSH1 0x20 DUP2 MSTORE PUSH0 DUP3 MLOAD DUP1 PUSH1 0x20 DUP5 ADD MSTORE DUP1 PUSH1 0x20 DUP6 ADD PUSH1 0x40 DUP6 ADD MCOPY PUSH0 PUSH1 0x40 DUP3 DUP6 ADD ADD MSTORE PUSH1 0x40 PUSH1 0x1F NOT PUSH1 0x1F DUP4 ADD AND DUP5 ADD ADD SWAP2 POP POP SWAP3 SWAP2 POP POP JUMP JUMPDEST PUSH1 0x1 PUSH1 0x1 PUSH1 0xA0 SHL SUB DUP2 AND DUP2 EQ PUSH2 0xF00 JUMPI PUSH0 DUP1 REVERT JUMPDEST PUSH0 DUP1 PUSH1 0x40 DUP4 DUP6 SUB SLT ISZERO PUSH2 0x35F9 JUMPI PUSH0 DUP1 REVERT JUMPDEST DUP3 CALLDATALOAD PUSH2 0x3604 DUP2 PUSH2 0x35D4 JUMP JUMPDEST SWAP5 PUSH1 0x20 SWAP4 SWAP1 SWAP4 ADD CALLDATALOAD SWAP4 POP POP POP JUMP JUMPDEST PUSH0 PUSH1 0x20 DUP3 DUP5 SUB SLT ISZERO PUSH2 0x3622 JUMPI PUSH0 DUP1 REVERT JUMPDEST DUP2 CALLDATALOAD PUSH2 0x2956 DUP2 PUSH2 0x35D4 JUMP JUMPDEST PUSH0 DUP1 PUSH0 PUSH1 0x60 DUP5 DUP7 SUB SLT ISZERO PUSH2 0x363F JUMPI PUSH0 DUP1 REVERT JUMPDEST DUP4 CALLDATALOAD PUSH2 0x364A DUP2 PUSH2 0x35D4 JUMP JUMPDEST SWAP3 POP PUSH1 0x20 DUP5 ADD CALLDATALOAD PUSH2 0x365A DUP2 PUSH2 0x35D4 JUMP JUMPDEST SWAP3 SWAP6 SWAP3 SWAP5 POP POP POP PUSH1 0x40 SWAP2 SWAP1 SWAP2 ADD CALLDATALOAD SWAP1 JUMP JUMPDEST DUP1 ISZERO ISZERO DUP2 EQ PUSH2 0xF00 JUMPI PUSH0 DUP1 REVERT JUMPDEST PUSH0 DUP1 PUSH1 0x40 DUP4 DUP6 SUB SLT ISZERO PUSH2 0x3689 JUMPI PUSH0 DUP1 REVERT JUMPDEST DUP3 CALLDATALOAD SWAP2 POP PUSH1 0x20 DUP4 ADD CALLDATALOAD PUSH2 0x369B DUP2 PUSH2 0x366B JUMP JUMPDEST DUP1 SWAP2 POP POP SWAP3 POP SWAP3 SWAP1 POP JUMP JUMPDEST PUSH0 PUSH1 0x20 DUP3 DUP5 SUB SLT ISZERO PUSH2 0x36B6 JUMPI PUSH0 DUP1 REVERT JUMPDEST DUP2 CALLDATALOAD PUSH2 0x2956 DUP2 PUSH2 0x366B JUMP JUMPDEST PUSH0 DUP1 PUSH1 0x40 DUP4 DUP6 SUB SLT ISZERO PUSH2 0x36D2 JUMPI PUSH0 DUP1 REVERT JUMPDEST DUP3 CALLDATALOAD PUSH2 0x36DD DUP2 PUSH2 0x35D4 JUMP JUMPDEST SWAP2 POP PUSH1 0x20 DUP4 ADD CALLDATALOAD PUSH2 0x369B DUP2 PUSH2 0x35D4 JUMP JUMPDEST PUSH4 0x4E487B71 PUSH1 0xE0 SHL PUSH0 MSTORE PUSH1 0x11 PUSH1 0x4 MSTORE PUSH1 0x24 PUSH0 REVERT JUMPDEST DUP2 DUP2 SUB DUP2 DUP2 GT ISZERO PUSH2 0xBF3 JUMPI PUSH2 0xBF3 PUSH2 0x36ED JUMP JUMPDEST DUP1 DUP3 ADD DUP1 DUP3 GT ISZERO PUSH2 0xBF3 JUMPI PUSH2 0xBF3 PUSH2 0x36ED JUMP JUMPDEST PUSH1 0x1 DUP2 DUP2 SHR SWAP1 DUP3 AND DUP1 PUSH2 0x373B JUMPI PUSH1 0x7F DUP3 AND SWAP2 POP JUMPDEST PUSH1 0x20 DUP3 LT DUP2 SUB PUSH2 0x3759 JUMPI PUSH4 0x4E487B71 PUSH1 0xE0 SHL PUSH0 MSTORE PUSH1 0x22 PUSH1 0x4 MSTORE PUSH1 0x24 PUSH0 REVERT JUMPDEST POP SWAP2 SWAP1 POP JUMP JUMPDEST PUSH1 0x20 DUP1 DUP3 MSTORE DUP2 DUP2 ADD MSTORE PUSH32 0x4F776E61626C653A2063616C6C6572206973206E6F7420746865206F776E6572 PUSH1 0x40 DUP3 ADD MSTORE PUSH1 0x60 ADD SWAP1 JUMP JUMPDEST PUSH1 0x20 DUP1 DUP3 MSTORE PUSH1 0x26 SWAP1 DUP3 ADD MSTORE PUSH32 0x436F6D62696E6564206C6971756964697479206665652063616E6E6F74206265 PUSH1 0x40 DUP3 ADD MSTORE PUSH6 0x103D32B93797 PUSH1 0xD1 SHL PUSH1 0x60 DUP3 ADD MSTORE PUSH1 0x80 ADD SWAP1 JUMP JUMPDEST PUSH0 PUSH1 0x20 DUP3 DUP5 SUB SLT ISZERO PUSH2 0x37EA JUMPI PUSH0 DUP1 REVERT JUMPDEST DUP2 MLOAD PUSH2 0x2956 DUP2 PUSH2 0x366B JUMP JUMPDEST DUP1 DUP3 MUL DUP2 ISZERO DUP3 DUP3 DIV DUP5 EQ OR PUSH2 0xBF3 JUMPI PUSH2 0xBF3 PUSH2 0x36ED JUMP JUMPDEST PUSH0 DUP3 PUSH2 0x3826 JUMPI PUSH4 0x4E487B71 PUSH1 0xE0 SHL PUSH0 MSTORE PUSH1 0x12 PUSH1 0x4 MSTORE PUSH1 0x24 PUSH0 REVERT JUMPDEST POP DIV SWAP1 JUMP JUMPDEST PUSH4 0x4E487B71 PUSH1 0xE0 SHL PUSH0 MSTORE PUSH1 0x32 PUSH1 0x4 MSTORE PUSH1 0x24 PUSH0 REVERT JUMPDEST PUSH4 0x4E487B71 PUSH1 0xE0 SHL PUSH0 MSTORE PUSH1 0x31 PUSH1 0x4 MSTORE PUSH1 0x24 PUSH0 REVERT JUMPDEST PUSH0 PUSH1 0x20 DUP3 DUP5 SUB SLT ISZERO PUSH2 0x3863 JUMPI PUSH0 DUP1 REVERT JUMPDEST DUP2 MLOAD PUSH2 0x2956 DUP2 PUSH2 0x35D4 JUMP JUMPDEST PUSH0 DUP2 MLOAD DUP1 DUP5 MSTORE PUSH1 0x20 DUP1 DUP6 ADD SWAP5 POP PUSH1 0x20 DUP5 ADD PUSH0 JUMPDEST DUP4 DUP2 LT ISZERO PUSH2 0x38A6 JUMPI DUP2 MLOAD PUSH1 0x1 PUSH1 0x1 PUSH1 0xA0 SHL SUB AND DUP8 MSTORE SWAP6 DUP3 ADD SWAP6 SWAP1 DUP3 ADD SWAP1 PUSH1 0x1 ADD PUSH2 0x3881 JUMP JUMPDEST POP SWAP5 SWAP6 SWAP5 POP POP POP POP POP JUMP JUMPDEST DUP6 DUP2 MSTORE DUP5 PUSH1 0x20 DUP3 ADD MSTORE PUSH1 0xA0 PUSH1 0x40 DUP3 ADD MSTORE PUSH0 PUSH2 0x38CF PUSH1 0xA0 DUP4 ADD DUP7 PUSH2 0x386E JUMP JUMPDEST PUSH1 0x1 PUSH1 0x1 PUSH1 0xA0 SHL SUB SWAP5 SWAP1 SWAP5 AND PUSH1 0x60 DUP4 ADD MSTORE POP PUSH1 0x80 ADD MSTORE SWAP4 SWAP3 POP POP POP JUMP JUMPDEST DUP3 DUP2 MSTORE PUSH1 0x40 PUSH1 0x20 DUP3 ADD MSTORE PUSH0 PUSH2 0x2A31 PUSH1 0x40 DUP4 ADD DUP5 PUSH2 0x386E JUMP JUMPDEST PUSH0 DUP1 PUSH0 PUSH1 0x60 DUP5 DUP7 SUB SLT ISZERO PUSH2 0x3916 JUMPI PUSH0 DUP1 REVERT JUMPDEST DUP4 MLOAD SWAP3 POP PUSH1 0x20 DUP5 ADD MLOAD SWAP2 POP PUSH1 0x40 DUP5 ADD MLOAD SWAP1 POP SWAP3 POP SWAP3 POP SWAP3 JUMP INVALID 0xDD CALLCODE MSTORE 0xAD SHL 0xE2 0xC8 SWAP12 PUSH10 0xC2B068FC378DAA952BA7 CALL PUSH4 0xC4A11628 CREATE2 GAS 0x4D CREATE2 0x23 0xB3 0xEF LOG2 PUSH5 0x6970667358 0x22 SLT KECCAK256 0xD1 0xCF 0x4B TSTORE 0xD7 0xCA 0x2C 0xDA XOR 0x28 PUSH0 PUSH5 0xACAE0C0A2A PUSH2 0x87A6 JUMP BASEFEE EXTCODEHASH 0xD8 0xBE 0xC4 0xB6 PUSH9 0x7E4AD70664736F6C63 NUMBER STOP ADDMOD NOT STOP CALLER "
		},
		"gasEstimates": {
			"creation": {
				"codeDepositCost": "2945000",
				"executionCost": "infinite",
				"totalCost": "infinite"
			},
			"external": {
				"MAX_BURN_FEE()": "306",
				"MAX_FEE_INDIVIDUAL()": "263",
				"MAX_TOTAL_FEES()": "262",
				"MIN_COMBINED_LIQUIDITY_FEE()": "306",
				"_burnFee()": "2427",
				"_charityFee()": "2385",
				"_developerFee()": "2406",
				"_liquidityPoolFee()": "2362",
				"_marketingFee()": "2363",
				"_maxTxAmount()": "2407",
				"_reflectionFee()": "2406",
				"allowance(address,address)": "infinite",
				"approve(address,uint256)": "24701",
				"balanceOf(address)": "infinite",
				"burn(uint256)": "infinite",
				"burnFrom(address,uint256)": "infinite",
				"charityAddress()": "2447",
				"deadAddress()": "328",
				"decimals()": "244",
				"decreaseAllowance(address,uint256)": "26968",
				"developerAddress()": "2403",
				"excludeAccountFromReward(address)": "infinite",
				"excludeFromFee(address)": "26809",
				"includeAccountinReward(address)": "infinite",
				"includeInFee(address)": "26868",
				"increaseAllowance(address,uint256)": "infinite",
				"isExcluded(address)": "2629",
				"isExcludedFromFee(address)": "2674",
				"marketingAddress()": "2448",
				"minimumTokensBeforeSwapAmount()": "2359",
				"name()": "infinite",
				"owner()": "2420",
				"presale(bool)": "infinite",
				"recoverETHfromContract()": "infinite",
				"recoverTokensFromContract(address,uint256)": "infinite",
				"reflect(uint256)": "infinite",
				"reflectionFromToken(uint256,bool)": "infinite",
				"renounceOwnership()": "28183",
				"setBurnFee(uint256)": "infinite",
				"setCharityAddress(address)": "28158",
				"setCharityFee(uint256)": "infinite",
				"setDeveloperAddress(address)": "28233",
				"setDeveloperFee(uint256)": "infinite",
				"setLiquidityPoolFee(uint256)": "infinite",
				"setMarketingAddress(address)": "28212",
				"setMarketingFee(uint256)": "infinite",
				"setMaxTxAmount(uint256)": "30272",
				"setReflectionFee(uint256)": "infinite",
				"setSwapAndLiquifyEnabled(bool)": "27839",
				"swapAndLiquifyEnabled()": "2388",
				"symbol()": "infinite",
				"totalFeesRedistributed()": "2381",
				"totalSupply()": "2393",
				"transfer(address,uint256)": "infinite",
				"transferFrom(address,address,uint256)": "infinite",
				"transferOwnership(address)": "infinite",
				"uniswapV2Pair()": "infinite",
				"uniswapV2Router()": "infinite"
			},
			"internal": {
				"_burn(address,uint256)": "infinite",
				"_getCompleteTaxValue(uint256)": "infinite",
				"_getCurrentSupply()": "infinite",
				"_getRate()": "infinite",
				"_getTransferValues(uint256)": "infinite",
				"_mintStart(address,uint256,uint256)": "infinite",
				"_reflectFee(uint256,uint256)": "infinite",
				"_tokenTransfer(address,address,uint256,bool)": "infinite",
				"_transfer(address,address,uint256)": "infinite",
				"_transferStandard(address,address,uint256)": "infinite",
				"_validateTotalFees()": "infinite",
				"addLiquidity(uint256,uint256)": "infinite",
				"burnFeeTransfer(address,uint256,uint256)": "infinite",
				"feeTransfer(address,uint256,uint256,uint256,address)": "infinite",
				"getBalance()": "infinite",
				"removeAllFee()": "204522",
				"restoreAllFee()": "infinite",
				"swapETHForTokens(uint256)": "infinite",
				"swapTokens(uint256)": "infinite",
				"swapTokensForEth(uint256)": "infinite",
				"tokenFromReflection(uint256)": "infinite",
				"transferToAddressETH(address payable,uint256)": "infinite"
			}
		},
		"methodIdentifiers": {
			"MAX_BURN_FEE()": "50e8676c",
			"MAX_FEE_INDIVIDUAL()": "40212314",
			"MAX_TOTAL_FEES()": "c3a1ed48",
			"MIN_COMBINED_LIQUIDITY_FEE()": "c580c73a",
			"_burnFee()": "c0b0fda2",
			"_charityFee()": "40f8007a",
			"_developerFee()": "48de478e",
			"_liquidityPoolFee()": "8a0623b4",
			"_marketingFee()": "22976e0d",
			"_maxTxAmount()": "7d1db4a5",
			"_reflectionFee()": "3206b4aa",
			"allowance(address,address)": "dd62ed3e",
			"approve(address,uint256)": "095ea7b3",
			"balanceOf(address)": "70a08231",
			"burn(uint256)": "42966c68",
			"burnFrom(address,uint256)": "79cc6790",
			"charityAddress()": "afcf2fc4",
			"deadAddress()": "27c8f835",
			"decimals()": "313ce567",
			"decreaseAllowance(address,uint256)": "a457c2d7",
			"developerAddress()": "caccd7f7",
			"excludeAccountFromReward(address)": "6049876e",
			"excludeFromFee(address)": "437823ec",
			"includeAccountinReward(address)": "fdeb889f",
			"includeInFee(address)": "ea2f0b37",
			"increaseAllowance(address,uint256)": "39509351",
			"isExcluded(address)": "cba0e996",
			"isExcludedFromFee(address)": "5342acb4",
			"marketingAddress()": "a5ece941",
			"minimumTokensBeforeSwapAmount()": "a073d37f",
			"name()": "06fdde03",
			"owner()": "8da5cb5b",
			"presale(bool)": "edc2fcfb",
			"recoverETHfromContract()": "ce831ed5",
			"recoverTokensFromContract(address,uint256)": "e6be4a72",
			"reflect(uint256)": "053ab182",
			"reflectionFromToken(uint256,bool)": "4549b039",
			"renounceOwnership()": "715018a6",
			"setBurnFee(uint256)": "4bf2c7c9",
			"setCharityAddress(address)": "0c9be46d",
			"setCharityFee(uint256)": "20c7c596",
			"setDeveloperAddress(address)": "dcc345f2",
			"setDeveloperFee(uint256)": "6c317232",
			"setLiquidityPoolFee(uint256)": "a94c8dd2",
			"setMarketingAddress(address)": "906e9dd0",
			"setMarketingFee(uint256)": "625e764c",
			"setMaxTxAmount(uint256)": "ec28438a",
			"setReflectionFee(uint256)": "e547be69",
			"setSwapAndLiquifyEnabled(bool)": "c49b9a80",
			"swapAndLiquifyEnabled()": "4a74bb02",
			"symbol()": "95d89b41",
			"totalFeesRedistributed()": "32035504",
			"totalSupply()": "18160ddd",
			"transfer(address,uint256)": "a9059cbb",
			"transferFrom(address,address,uint256)": "23b872dd",
			"transferOwnership(address)": "f2fde38b",
			"uniswapV2Pair()": "49bd5a5e",
			"uniswapV2Router()": "1694505e"
		}
	},
	"abi": [
		{
			"inputs": [],
			"stateMutability": "payable",
			"type": "constructor"
		},
		{
			"anonymous": false,
			"inputs": [
				{
					"indexed": true,
					"internalType": "address",
					"name": "owner",
					"type": "address"
				},
				{
					"indexed": true,
					"internalType": "address",
					"name": "spender",
					"type": "address"
				},
				{
					"indexed": false,
					"internalType": "uint256",
					"name": "value",
					"type": "uint256"
				}
			],
			"name": "Approval",
			"type": "event"
		},
		{
			"anonymous": false,
			"inputs": [
				{
					"indexed": false,
					"internalType": "string",
					"name": "",
					"type": "string"
				},
				{
					"indexed": false,
					"internalType": "address",
					"name": "",
					"type": "address"
				}
			],
			"name": "AuditLog",
			"type": "event"
		},
		{
			"anonymous": false,
			"inputs": [
				{
					"indexed": false,
					"internalType": "uint256",
					"name": "oldBurnFee",
					"type": "uint256"
				},
				{
					"indexed": false,
					"internalType": "uint256",
					"name": "newBurnFee",
					"type": "uint256"
				}
			],
			"name": "BurnFeeUpdated",
			"type": "event"
		},
		{
			"anonymous": false,
			"inputs": [
				{
					"indexed": false,
					"internalType": "address",
					"name": "oldAddress",
					"type": "address"
				},
				{
					"indexed": false,
					"internalType": "address",
					"name": "newAddress",
					"type": "address"
				}
			],
			"name": "CharityAddressUpdated",
			"type": "event"
		},
		{
			"anonymous": false,
			"inputs": [
				{
					"indexed": false,
					"internalType": "uint256",
					"name": "oldCharityFee",
					"type": "uint256"
				},
				{
					"indexed": false,
					"internalType": "uint256",
					"name": "newCharityFee",
					"type": "uint256"
				}
			],
			"name": "CharityFeeUpdated",
			"type": "event"
		},
		{
			"anonymous": false,
			"inputs": [
				{
					"indexed": false,
					"internalType": "address",
					"name": "oldAddress",
					"type": "address"
				},
				{
					"indexed": false,
					"internalType": "address",
					"name": "newAddress",
					"type": "address"
				}
			],
			"name": "DeveloperAddressUpdated",
			"type": "event"
		},
		{
			"anonymous": false,
			"inputs": [
				{
					"indexed": false,
					"internalType": "uint256",
					"name": "oldDeveloperFee",
					"type": "uint256"
				},
				{
					"indexed": false,
					"internalType": "uint256",
					"name": "newDeveloperFee",
					"type": "uint256"
				}
			],
			"name": "DeveloperFeeUpdated",
			"type": "event"
		},
		{
			"anonymous": false,
			"inputs": [
				{
					"indexed": false,
					"internalType": "uint256",
					"name": "oldLiquidityPoolFee",
					"type": "uint256"
				},
				{
					"indexed": false,
					"internalType": "uint256",
					"name": "newLiquidityPoolFee",
					"type": "uint256"
				}
			],
			"name": "LiquidityPoolFeeUpdated",
			"type": "event"
		},
		{
			"anonymous": false,
			"inputs": [
				{
					"indexed": false,
					"internalType": "string",
					"name": "",
					"type": "string"
				},
				{
					"indexed": false,
					"internalType": "uint256",
					"name": "",
					"type": "uint256"
				}
			],
			"name": "Log",
			"type": "event"
		},
		{
			"anonymous": false,
			"inputs": [
				{
					"indexed": false,
					"internalType": "address",
					"name": "oldAddress",
					"type": "address"
				},
				{
					"indexed": false,
					"internalType": "address",
					"name": "newAddress",
					"type": "address"
				}
			],
			"name": "MarketingAddressUpdated",
			"type": "event"
		},
		{
			"anonymous": false,
			"inputs": [
				{
					"indexed": false,
					"internalType": "uint256",
					"name": "oldMarketingFee",
					"type": "uint256"
				},
				{
					"indexed": false,
					"internalType": "uint256",
					"name": "newMarketingFee",
					"type": "uint256"
				}
			],
			"name": "MarketingFeeUpdated",
			"type": "event"
		},
		{
			"anonymous": false,
			"inputs": [
				{
					"indexed": false,
					"internalType": "uint256",
					"name": "oldMaxTxAmount",
					"type": "uint256"
				},
				{
					"indexed": false,
					"internalType": "uint256",
					"name": "newMaxTxAmount",
					"type": "uint256"
				}
			],
			"name": "MaxTxAmountUpdated",
			"type": "event"
		},
		{
			"anonymous": false,
			"inputs": [
				{
					"indexed": false,
					"internalType": "uint256",
					"name": "oldMinimumTokensBeforeSwap",
					"type": "uint256"
				},
				{
					"indexed": false,
					"internalType": "uint256",
					"name": "newMinimumTokensBeforeSwap",
					"type": "uint256"
				}
			],
			"name": "MinimumTokensBeforeSwapUpdated",
			"type": "event"
		},
		{
			"anonymous": false,
			"inputs": [
				{
					"indexed": true,
					"internalType": "address",
					"name": "previousOwner",
					"type": "address"
				},
				{
					"indexed": true,
					"internalType": "address",
					"name": "newOwner",
					"type": "address"
				}
			],
			"name": "OwnershipTransferred",
			"type": "event"
		},
		{
			"anonymous": false,
			"inputs": [
				{
					"indexed": false,
					"internalType": "bool",
					"name": "presale",
					"type": "bool"
				}
			],
			"name": "PresaleFlagUpdated",
			"type": "event"
		},
		{
			"anonymous": false,
			"inputs": [
				{
					"indexed": false,
					"internalType": "uint256",
					"name": "oldReflectionFee",
					"type": "uint256"
				},
				{
					"indexed": false,
					"internalType": "uint256",
					"name": "newReflectionFee",
					"type": "uint256"
				}
			],
			"name": "ReflectionFeeUpdated",
			"type": "event"
		},
		{
			"anonymous": false,
			"inputs": [
				{
					"indexed": false,
					"internalType": "uint256",
					"name": "tokensSwapped",
					"type": "uint256"
				},
				{
					"indexed": false,
					"internalType": "uint256",
					"name": "ethReceived",
					"type": "uint256"
				},
				{
					"indexed": false,
					"internalType": "uint256",
					"name": "tokensIntoLiqudity",
					"type": "uint256"
				}
			],
			"name": "SwapAndLiquify",
			"type": "event"
		},
		{
			"anonymous": false,
			"inputs": [
				{
					"indexed": false,
					"internalType": "bool",
					"name": "enabled",
					"type": "bool"
				}
			],
			"name": "SwapAndLiquifyEnabledUpdated",
			"type": "event"
		},
		{
			"anonymous": false,
			"inputs": [
				{
					"indexed": false,
					"internalType": "uint256",
					"name": "amountIn",
					"type": "uint256"
				},
				{
					"indexed": false,
					"internalType": "address[]",
					"name": "path",
					"type": "address[]"
				}
			],
			"name": "SwapETHForTokens",
			"type": "event"
		},
		{
			"anonymous": false,
			"inputs": [
				{
					"indexed": false,
					"internalType": "uint256",
					"name": "amountIn",
					"type": "uint256"
				},
				{
					"indexed": false,
					"internalType": "address[]",
					"name": "path",
					"type": "address[]"
				}
			],
			"name": "SwapTokensForETH",
			"type": "event"
		},
		{
			"anonymous": false,
			"inputs": [
				{
					"indexed": true,
					"internalType": "address",
					"name": "from",
					"type": "address"
				},
				{
					"indexed": true,
					"internalType": "address",
					"name": "to",
					"type": "address"
				},
				{
					"indexed": false,
					"internalType": "uint256",
					"name": "value",
					"type": "uint256"
				}
			],
			"name": "Transfer",
			"type": "event"
		},
		{
			"anonymous": false,
			"inputs": [
				{
					"indexed": true,
					"internalType": "address",
					"name": "recipient",
					"type": "address"
				},
				{
					"indexed": false,
					"internalType": "uint256",
					"name": "amount",
					"type": "uint256"
				}
			],
			"name": "TransferFailed",
			"type": "event"
		},
		{
			"inputs": [],
			"name": "MAX_BURN_FEE",
			"outputs": [
				{
					"internalType": "uint256",
					"name": "",
					"type": "uint256"
				}
			],
			"stateMutability": "view",
			"type": "function"
		},
		{
			"inputs": [],
			"name": "MAX_FEE_INDIVIDUAL",
			"outputs": [
				{
					"internalType": "uint256",
					"name": "",
					"type": "uint256"
				}
			],
			"stateMutability": "view",
			"type": "function"
		},
		{
			"inputs": [],
			"name": "MAX_TOTAL_FEES",
			"outputs": [
				{
					"internalType": "uint256",
					"name": "",
					"type": "uint256"
				}
			],
			"stateMutability": "view",
			"type": "function"
		},
		{
			"inputs": [],
			"name": "MIN_COMBINED_LIQUIDITY_FEE",
			"outputs": [
				{
					"internalType": "uint256",
					"name": "",
					"type": "uint256"
				}
			],
			"stateMutability": "view",
			"type": "function"
		},
		{
			"inputs": [],
			"name": "_burnFee",
			"outputs": [
				{
					"internalType": "uint256",
					"name": "",
					"type": "uint256"
				}
			],
			"stateMutability": "view",
			"type": "function"
		},
		{
			"inputs": [],
			"name": "_charityFee",
			"outputs": [
				{
					"internalType": "uint256",
					"name": "",
					"type": "uint256"
				}
			],
			"stateMutability": "view",
			"type": "function"
		},
		{
			"inputs": [],
			"name": "_developerFee",
			"outputs": [
				{
					"internalType": "uint256",
					"name": "",
					"type": "uint256"
				}
			],
			"stateMutability": "view",
			"type": "function"
		},
		{
			"inputs": [],
			"name": "_liquidityPoolFee",
			"outputs": [
				{
					"internalType": "uint256",
					"name": "",
					"type": "uint256"
				}
			],
			"stateMutability": "view",
			"type": "function"
		},
		{
			"inputs": [],
			"name": "_marketingFee",
			"outputs": [
				{
					"internalType": "uint256",
					"name": "",
					"type": "uint256"
				}
			],
			"stateMutability": "view",
			"type": "function"
		},
		{
			"inputs": [],
			"name": "_maxTxAmount",
			"outputs": [
				{
					"internalType": "uint256",
					"name": "",
					"type": "uint256"
				}
			],
			"stateMutability": "view",
			"type": "function"
		},
		{
			"inputs": [],
			"name": "_reflectionFee",
			"outputs": [
				{
					"internalType": "uint256",
					"name": "",
					"type": "uint256"
				}
			],
			"stateMutability": "view",
			"type": "function"
		},
		{
			"inputs": [
				{
					"internalType": "address",
					"name": "owner",
					"type": "address"
				},
				{
					"internalType": "address",
					"name": "spender",
					"type": "address"
				}
			],
			"name": "allowance",
			"outputs": [
				{
					"internalType": "uint256",
					"name": "",
					"type": "uint256"
				}
			],
			"stateMutability": "view",
			"type": "function"
		},
		{
			"inputs": [
				{
					"internalType": "address",
					"name": "spender",
					"type": "address"
				},
				{
					"internalType": "uint256",
					"name": "amount",
					"type": "uint256"
				}
			],
			"name": "approve",
			"outputs": [
				{
					"internalType": "bool",
					"name": "",
					"type": "bool"
				}
			],
			"stateMutability": "nonpayable",
			"type": "function"
		},
		{
			"inputs": [
				{
					"internalType": "address",
					"name": "sender",
					"type": "address"
				}
			],
			"name": "balanceOf",
			"outputs": [
				{
					"internalType": "uint256",
					"name": "",
					"type": "uint256"
				}
			],
			"stateMutability": "view",
			"type": "function"
		},
		{
			"inputs": [
				{
					"internalType": "uint256",
					"name": "amount",
					"type": "uint256"
				}
			],
			"name": "burn",
			"outputs": [],
			"stateMutability": "nonpayable",
			"type": "function"
		},
		{
			"inputs": [
				{
					"internalType": "address",
					"name": "account",
					"type": "address"
				},
				{
					"internalType": "uint256",
					"name": "amount",
					"type": "uint256"
				}
			],
			"name": "burnFrom",
			"outputs": [],
			"stateMutability": "nonpayable",
			"type": "function"
		},
		{
			"inputs": [],
			"name": "charityAddress",
			"outputs": [
				{
					"internalType": "address payable",
					"name": "",
					"type": "address"
				}
			],
			"stateMutability": "view",
			"type": "function"
		},
		{
			"inputs": [],
			"name": "deadAddress",
			"outputs": [
				{
					"internalType": "address",
					"name": "",
					"type": "address"
				}
			],
			"stateMutability": "view",
			"type": "function"
		},
		{
			"inputs": [],
			"name": "decimals",
			"outputs": [
				{
					"internalType": "uint8",
					"name": "",
					"type": "uint8"
				}
			],
			"stateMutability": "view",
			"type": "function"
		},
		{
			"inputs": [
				{
					"internalType": "address",
					"name": "spender",
					"type": "address"
				},
				{
					"internalType": "uint256",
					"name": "subtractedValue",
					"type": "uint256"
				}
			],
			"name": "decreaseAllowance",
			"outputs": [
				{
					"internalType": "bool",
					"name": "",
					"type": "bool"
				}
			],
			"stateMutability": "nonpayable",
			"type": "function"
		},
		{
			"inputs": [],
			"name": "developerAddress",
			"outputs": [
				{
					"internalType": "address payable",
					"name": "",
					"type": "address"
				}
			],
			"stateMutability": "view",
			"type": "function"
		},
		{
			"inputs": [
				{
					"internalType": "address",
					"name": "account",
					"type": "address"
				}
			],
			"name": "excludeAccountFromReward",
			"outputs": [],
			"stateMutability": "nonpayable",
			"type": "function"
		},
		{
			"inputs": [
				{
					"internalType": "address",
					"name": "account",
					"type": "address"
				}
			],
			"name": "excludeFromFee",
			"outputs": [],
			"stateMutability": "nonpayable",
			"type": "function"
		},
		{
			"inputs": [
				{
					"internalType": "address",
					"name": "account",
					"type": "address"
				}
			],
			"name": "includeAccountinReward",
			"outputs": [],
			"stateMutability": "nonpayable",
			"type": "function"
		},
		{
			"inputs": [
				{
					"internalType": "address",
					"name": "account",
					"type": "address"
				}
			],
			"name": "includeInFee",
			"outputs": [],
			"stateMutability": "nonpayable",
			"type": "function"
		},
		{
			"inputs": [
				{
					"internalType": "address",
					"name": "spender",
					"type": "address"
				},
				{
					"internalType": "uint256",
					"name": "addedValue",
					"type": "uint256"
				}
			],
			"name": "increaseAllowance",
			"outputs": [
				{
					"internalType": "bool",
					"name": "",
					"type": "bool"
				}
			],
			"stateMutability": "nonpayable",
			"type": "function"
		},
		{
			"inputs": [
				{
					"internalType": "address",
					"name": "account",
					"type": "address"
				}
			],
			"name": "isExcluded",
			"outputs": [
				{
					"internalType": "bool",
					"name": "",
					"type": "bool"
				}
			],
			"stateMutability": "view",
			"type": "function"
		},
		{
			"inputs": [
				{
					"internalType": "address",
					"name": "account",
					"type": "address"
				}
			],
			"name": "isExcludedFromFee",
			"outputs": [
				{
					"internalType": "bool",
					"name": "",
					"type": "bool"
				}
			],
			"stateMutability": "view",
			"type": "function"
		},
		{
			"inputs": [],
			"name": "marketingAddress",
			"outputs": [
				{
					"internalType": "address payable",
					"name": "",
					"type": "address"
				}
			],
			"stateMutability": "view",
			"type": "function"
		},
		{
			"inputs": [],
			"name": "minimumTokensBeforeSwapAmount",
			"outputs": [
				{
					"internalType": "uint256",
					"name": "",
					"type": "uint256"
				}
			],
			"stateMutability": "view",
			"type": "function"
		},
		{
			"inputs": [],
			"name": "name",
			"outputs": [
				{
					"internalType": "string",
					"name": "",
					"type": "string"
				}
			],
			"stateMutability": "view",
			"type": "function"
		},
		{
			"inputs": [],
			"name": "owner",
			"outputs": [
				{
					"internalType": "address",
					"name": "",
					"type": "address"
				}
			],
			"stateMutability": "view",
			"type": "function"
		},
		{
			"inputs": [
				{
					"internalType": "bool",
					"name": "_presale",
					"type": "bool"
				}
			],
			"name": "presale",
			"outputs": [],
			"stateMutability": "nonpayable",
			"type": "function"
		},
		{
			"inputs": [],
			"name": "recoverETHfromContract",
			"outputs": [],
			"stateMutability": "nonpayable",
			"type": "function"
		},
		{
			"inputs": [
				{
					"internalType": "address",
					"name": "_tokenAddress",
					"type": "address"
				},
				{
					"internalType": "uint256",
					"name": "_amount",
					"type": "uint256"
				}
			],
			"name": "recoverTokensFromContract",
			"outputs": [],
			"stateMutability": "nonpayable",
			"type": "function"
		},
		{
			"inputs": [
				{
					"internalType": "uint256",
					"name": "tAmount",
					"type": "uint256"
				}
			],
			"name": "reflect",
			"outputs": [],
			"stateMutability": "nonpayable",
			"type": "function"
		},
		{
			"inputs": [
				{
					"internalType": "uint256",
					"name": "tAmount",
					"type": "uint256"
				},
				{
					"internalType": "bool",
					"name": "deductTransferFee",
					"type": "bool"
				}
			],
			"name": "reflectionFromToken",
			"outputs": [
				{
					"internalType": "uint256",
					"name": "",
					"type": "uint256"
				}
			],
			"stateMutability": "view",
			"type": "function"
		},
		{
			"inputs": [],
			"name": "renounceOwnership",
			"outputs": [],
			"stateMutability": "nonpayable",
			"type": "function"
		},
		{
			"inputs": [
				{
					"internalType": "uint256",
					"name": "burnFee_",
					"type": "uint256"
				}
			],
			"name": "setBurnFee",
			"outputs": [],
			"stateMutability": "nonpayable",
			"type": "function"
		},
		{
			"inputs": [
				{
					"internalType": "address",
					"name": "_charityAddress",
					"type": "address"
				}
			],
			"name": "setCharityAddress",
			"outputs": [],
			"stateMutability": "nonpayable",
			"type": "function"
		},
		{
			"inputs": [
				{
					"internalType": "uint256",
					"name": "charityFee_",
					"type": "uint256"
				}
			],
			"name": "setCharityFee",
			"outputs": [],
			"stateMutability": "nonpayable",
			"type": "function"
		},
		{
			"inputs": [
				{
					"internalType": "address",
					"name": "_developerAddress",
					"type": "address"
				}
			],
			"name": "setDeveloperAddress",
			"outputs": [],
			"stateMutability": "nonpayable",
			"type": "function"
		},
		{
			"inputs": [
				{
					"internalType": "uint256",
					"name": "developerFee_",
					"type": "uint256"
				}
			],
			"name": "setDeveloperFee",
			"outputs": [],
			"stateMutability": "nonpayable",
			"type": "function"
		},
		{
			"inputs": [
				{
					"internalType": "uint256",
					"name": "liquidityPoolFee_",
					"type": "uint256"
				}
			],
			"name": "setLiquidityPoolFee",
			"outputs": [],
			"stateMutability": "nonpayable",
			"type": "function"
		},
		{
			"inputs": [
				{
					"internalType": "address",
					"name": "_marketingAddress",
					"type": "address"
				}
			],
			"name": "setMarketingAddress",
			"outputs": [],
			"stateMutability": "nonpayable",
			"type": "function"
		},
		{
			"inputs": [
				{
					"internalType": "uint256",
					"name": "marketingFee_",
					"type": "uint256"
				}
			],
			"name": "setMarketingFee",
			"outputs": [],
			"stateMutability": "nonpayable",
			"type": "function"
		},
		{
			"inputs": [
				{
					"internalType": "uint256",
					"name": "maxTxAmount",
					"type": "uint256"
				}
			],
			"name": "setMaxTxAmount",
			"outputs": [],
			"stateMutability": "nonpayable",
			"type": "function"
		},
		{
			"inputs": [
				{
					"internalType": "uint256",
					"name": "newReflectionFee",
					"type": "uint256"
				}
			],
			"name": "setReflectionFee",
			"outputs": [],
			"stateMutability": "nonpayable",
			"type": "function"
		},
		{
			"inputs": [
				{
					"internalType": "bool",
					"name": "_enabled",
					"type": "bool"
				}
			],
			"name": "setSwapAndLiquifyEnabled",
			"outputs": [],
			"stateMutability": "nonpayable",
			"type": "function"
		},
		{
			"inputs": [],
			"name": "swapAndLiquifyEnabled",
			"outputs": [
				{
					"internalType": "bool",
					"name": "",
					"type": "bool"
				}
			],
			"stateMutability": "view",
			"type": "function"
		},
		{
			"inputs": [],
			"name": "symbol",
			"outputs": [
				{
					"internalType": "string",
					"name": "",
					"type": "string"
				}
			],
			"stateMutability": "view",
			"type": "function"
		},
		{
			"inputs": [],
			"name": "totalFeesRedistributed",
			"outputs": [
				{
					"internalType": "uint256",
					"name": "",
					"type": "uint256"
				}
			],
			"stateMutability": "view",
			"type": "function"
		},
		{
			"inputs": [],
			"name": "totalSupply",
			"outputs": [
				{
					"internalType": "uint256",
					"name": "",
					"type": "uint256"
				}
			],
			"stateMutability": "view",
			"type": "function"
		},
		{
			"inputs": [
				{
					"internalType": "address",
					"name": "recipient",
					"type": "address"
				},
				{
					"internalType": "uint256",
					"name": "amount",
					"type": "uint256"
				}
			],
			"name": "transfer",
			"outputs": [
				{
					"internalType": "bool",
					"name": "",
					"type": "bool"
				}
			],
			"stateMutability": "nonpayable",
			"type": "function"
		},
		{
			"inputs": [
				{
					"internalType": "address",
					"name": "sender",
					"type": "address"
				},
				{
					"internalType": "address",
					"name": "recipient",
					"type": "address"
				},
				{
					"internalType": "uint256",
					"name": "amount",
					"type": "uint256"
				}
			],
			"name": "transferFrom",
			"outputs": [
				{
					"internalType": "bool",
					"name": "",
					"type": "bool"
				}
			],
			"stateMutability": "nonpayable",
			"type": "function"
		},
		{
			"inputs": [
				{
					"internalType": "address",
					"name": "newOwner",
					"type": "address"
				}
			],
			"name": "transferOwnership",
			"outputs": [],
			"stateMutability": "nonpayable",
			"type": "function"
		},
		{
			"inputs": [],
			"name": "uniswapV2Pair",
			"outputs": [
				{
					"internalType": "address",
					"name": "",
					"type": "address"
				}
			],
			"stateMutability": "view",
			"type": "function"
		},
		{
			"inputs": [],
			"name": "uniswapV2Router",
			"outputs": [
				{
					"internalType": "contract IUniswapV2Router02",
					"name": "",
					"type": "address"
				}
			],
			"stateMutability": "view",
			"type": "function"
		},
		{
			"stateMutability": "payable",
			"type": "receive"
		}
	]
}