{
	"data": {
		"bytecode": {
			"linkReferences": {},
			"object": "60e0604052600b80546001600160a01b031990811673ed001ebb1a71dc6df6659c4e4edb070342fd4a1f17909155600c805490911673b5df28f0d138275c29536400c1452a816911b77a17905561dead6080526b033b2e3c9fd0803ce8000000600d81905561006f905f196104ab565b61007a905f196104de565b600e555f600f5560016010556001601155600160125560016013556001601455600160155560016016556001601755600160185560016019556003601a556003601b556a084595161401484a000000601c556a084595161401484a000000601d5569152d02c7e14af6800000601e556001601f60016101000a81548160ff0219169083151502179055506040518060400160405280600a815260200169436f666679204465466960b01b81525060405180604001604052806005815260200164434f46464960d81b8152508160039081610154919061058f565b506004610161828261058f565b50505061017a61017561037c60201b60201c565b610380565b5f737a250d5630b4cf539739df2c5dacb4c659f2488d9050806001600160a01b031663c45a01556040518163ffffffff1660e01b8152600401602060405180830381865afa1580156101ce573d5f803e3d5ffd5b505050506040513d601f19601f820116820180604052508101906101f2919061064e565b6001600160a01b031663c9c6539630836001600160a01b031663ad5c46486040518163ffffffff1660e01b8152600401602060405180830381865afa15801561023d573d5f803e3d5ffd5b505050506040513d601f19601f82011682018060405250810190610261919061064e565b6040516001600160e01b031960e085901b1681526001600160a01b039283166004820152911660248201526044016020604051808303815f875af11580156102ab573d5f803e3d5ffd5b505050506040513d601f19601f820116820180604052508101906102cf919061064e565b6001600160a01b0390811660c052811660a052600160085f6102f96005546001600160a01b031690565b6001600160a01b03908116825260208083019390935260409182015f908120805495151560ff19968716179055600b54821681526008909352818320805485166001908117909155600c54909116835281832080548516821790553083529120805490921617905561037661036b3390565b600e54600d546103d1565b5061068e565b3390565b600580546001600160a01b038381166001600160a01b0319831681179093556040519116919082907f8be0079c531659141344cd1fd0a4f28419497f9722a3daafe3b4186f6b6457e0905f90a35050565b6001600160a01b03831661042b5760405162461bcd60e51b815260206004820152601f60248201527f45524332303a206d696e7420746f20746865207a65726f206164647265737300604482015260640160405180910390fd5b6001600160a01b0383165f9081526006602052604090205461044e90839061067b565b6001600160a01b0384165f818152600660205260408082209390935591519091907fddf252ad1be2c89b69c2b068fc378daa952ba7f163c4a11628f55a4df523b3ef9061049e9085815260200190565b60405180910390a3505050565b5f826104c557634e487b7160e01b5f52601260045260245ffd5b500690565b634e487b7160e01b5f52601160045260245ffd5b818103818111156104f1576104f16104ca565b92915050565b634e487b7160e01b5f52604160045260245ffd5b600181811c9082168061051f57607f821691505b60208210810361053d57634e487b7160e01b5f52602260045260245ffd5b50919050565b601f82111561058a57805f5260205f20601f840160051c810160208510156105685750805b601f840160051c820191505b81811015610587575f8155600101610574565b50505b505050565b81516001600160401b038111156105a8576105a86104f7565b6105bc816105b6845461050b565b84610543565b602080601f8311600181146105ef575f84156105d85750858301515b5f19600386901b1c1916600185901b178555610646565b5f85815260208120601f198616915b8281101561061d578886015182559484019460019091019084016105fe565b508582101561063a57878501515f19600388901b60f8161c191681555b505060018460011b0185555b505050505050565b5f6020828403121561065e575f80fd5b81516001600160a01b0381168114610674575f80fd5b9392505050565b808201808211156104f1576104f16104ca565b60805160a05160c0516134e36106e25f395f81816104e301526121db01525f818161033e015281816129c601528181612a7d01528181612ab901528181612bf90152612c2001525f6103db01526134e35ff3fe6080604052600436106102a8575f3560e01c8063715018a61161016f578063c49b9a80116100d8578063e547be6911610092578063ec28438a1161006d578063ec28438a1461087c578063edc2fcfb1461089b578063f2fde38b146108ba578063fdeb889f146108d9575f80fd5b8063e547be691461081f578063e6be4a721461083e578063ea2f0b371461085d575f80fd5b8063c49b9a8014610733578063caccd7f714610752578063cba0e99614610771578063ce831ed5146107a8578063dcc345f2146107bc578063dd62ed3e146107db575f80fd5b806395d89b411161012957806395d89b411461068e578063a457c2d7146106a2578063a5ece941146106c1578063a9059cbb146106e0578063a94c8dd2146106ff578063c0b0fda21461071e575f80fd5b8063715018a6146105f557806379cc6790146106095780637d1db4a5146106285780638a0623b41461063d5780638da5cb5b14610652578063906e9dd01461066f575f80fd5b806342966c68116102115780634bf2c7c9116101cb5780634bf2c7c9146105235780635342acb4146105425780636049876e14610579578063625e764c146105985780636c317232146105b757806370a08231146105d6575f80fd5b806342966c6814610460578063437823ec1461047f5780634549b0391461049e57806348de478e146104bd57806349bd5a5e146104d25780634a74bb0214610505575f80fd5b806323b872dd1161026257806323b872dd146103ab57806327c8f835146103ca578063313ce567146103fd57806332035504146104185780633206b4aa1461042c5780633950935114610441575f80fd5b8063053ab182146102b357806306fdde03146102d4578063095ea7b3146102fe5780631694505e1461032d57806318160ddd1461037857806322976e0d14610396575f80fd5b366102af57005b5f80fd5b3480156102be575f80fd5b506102d26102cd3660046130f5565b6108f8565b005b3480156102df575f80fd5b506102e86109e3565b6040516102f5919061310c565b60405180910390f35b348015610309575f80fd5b5061031d610318366004613155565b610a73565b60405190151581526020016102f5565b348015610338575f80fd5b506103607f000000000000000000000000000000000000000000000000000000000000000081565b6040516001600160a01b0390911681526020016102f5565b348015610383575f80fd5b50600d545b6040519081526020016102f5565b3480156103a1575f80fd5b5061038860165481565b3480156103b6575f80fd5b5061031d6103c536600461317f565b610a89565b3480156103d5575f80fd5b506103607f000000000000000000000000000000000000000000000000000000000000000081565b348015610408575f80fd5b50604051601281526020016102f5565b348015610423575f80fd5b50600f54610388565b348015610437575f80fd5b5061038860125481565b34801561044c575f80fd5b5061031d61045b366004613155565b610b31565b34801561046b575f80fd5b506102d261047a3660046130f5565b610b6c565b34801561048a575f80fd5b506102d26104993660046131bd565b610b79565b3480156104a9575f80fd5b506103886104b83660046131e5565b610bc6565b3480156104c8575f80fd5b5061038860185481565b3480156104dd575f80fd5b506103607f000000000000000000000000000000000000000000000000000000000000000081565b348015610510575f80fd5b50601f5461031d90610100900460ff1681565b34801561052e575f80fd5b506102d261053d3660046130f5565b610c4c565b34801561054d575f80fd5b5061031d61055c3660046131bd565b6001600160a01b03165f9081526008602052604090205460ff1690565b348015610584575f80fd5b506102d26105933660046131bd565b610d11565b3480156105a3575f80fd5b506102d26105b23660046130f5565b610ed3565b3480156105c2575f80fd5b506102d26105d13660046130f5565b610fae565b3480156105e1575f80fd5b506103886105f03660046131bd565b6110b9565b348015610600575f80fd5b506102d2611115565b348015610614575f80fd5b506102d2610623366004613155565b61114a565b348015610633575f80fd5b50610388601c5481565b348015610648575f80fd5b5061038860145481565b34801561065d575f80fd5b506005546001600160a01b0316610360565b34801561067a575f80fd5b506102d26106893660046131bd565b6111cf565b348015610699575f80fd5b506102e86112be565b3480156106ad575f80fd5b5061031d6106bc366004613155565b6112cd565b3480156106cc575f80fd5b50600b54610360906001600160a01b031681565b3480156106eb575f80fd5b5061031d6106fa366004613155565b611365565b34801561070a575f80fd5b506102d26107193660046130f5565b611371565b348015610729575f80fd5b5061038860105481565b34801561073e575f80fd5b506102d261074d366004613213565b61144b565b34801561075d575f80fd5b50600c54610360906001600160a01b031681565b34801561077c575f80fd5b5061031d61078b3660046131bd565b6001600160a01b03165f9081526009602052604090205460ff1690565b3480156107b3575f80fd5b506102d26114c9565b3480156107c7575f80fd5b506102d26107d63660046131bd565b611613565b3480156107e6575f80fd5b506103886107f536600461322e565b6001600160a01b039182165f90815260016020908152604080832093909416825291909152205490565b34801561082a575f80fd5b506102d26108393660046130f5565b611702565b348015610849575f80fd5b506102d2610858366004613155565b6117bf565b348015610868575f80fd5b506102d26108773660046131bd565b611991565b348015610887575f80fd5b506102d26108963660046130f5565b6119db565b3480156108a6575f80fd5b506102d26108b5366004613213565b611ad4565b3480156108c5575f80fd5b506102d26108d43660046131bd565b611bcd565b3480156108e4575f80fd5b506102d26108f33660046131bd565b611c65565b335f8181526009602052604090205460ff16156109715760405162461bcd60e51b815260206004820152602c60248201527f4578636c75646564206164647265737365732063616e6e6f742063616c6c207460448201526b3434b990333ab731ba34b7b760a11b60648201526084015b60405180910390fd5b5f61097b83611e0a565b5050506001600160a01b0383165f908152600660205260409020549091506109a490829061326e565b6001600160a01b0383165f90815260066020526040902055600e546109ca90829061326e565b600e55600f546109db908490613281565b600f55505050565b6060600380546109f290613294565b80601f0160208091040260200160405190810160405280929190818152602001828054610a1e90613294565b8015610a695780601f10610a4057610100808354040283529160200191610a69565b820191905f5260205f20905b815481529060010190602001808311610a4c57829003601f168201915b5050505050905090565b5f610a7f338484611e5b565b5060015b92915050565b5f610a95848484611f7e565b6001600160a01b0384165f90815260016020908152604080832033845290915290205482811015610b195760405162461bcd60e51b815260206004820152602860248201527f45524332303a207472616e7366657220616d6f756e74206578636565647320616044820152676c6c6f77616e636560c01b6064820152608401610968565b610b268533858403611e5b565b506001949350505050565b335f8181526001602090815260408083206001600160a01b03871684529091528120549091610a7f918590610b67908690613281565b611e5b565b610b763382612285565b50565b6005546001600160a01b03163314610ba35760405162461bcd60e51b8152600401610968906132cc565b6001600160a01b03165f908152600860205260409020805460ff19166001179055565b5f600d54831115610c195760405162461bcd60e51b815260206004820152601f60248201527f416d6f756e74206d757374206265206c657373207468616e20737570706c79006044820152606401610968565b81610c35575f610c2884611e0a565b50919350610a8392505050565b5f610c3f84611e0a565b50909350610a8392505050565b6005546001600160a01b03163314610c765760405162461bcd60e51b8152600401610968906132cc565b600560185460165460145460125485610c8f9190613281565b610c999190613281565b610ca39190613281565b610cad9190613281565b1115610ccb5760405162461bcd60e51b815260040161096890613301565b601080549082905560408051828152602081018490527f78f1461296bad7bd716a7673aa3e659cc091c348a7ed4cfef7ce452c3052f2fb91015b60405180910390a15050565b6005546001600160a01b03163314610d3b5760405162461bcd60e51b8152600401610968906132cc565b6001600160a01b0381165f9081526009602052604090205460ff1615610da35760405162461bcd60e51b815260206004820152601b60248201527f4163636f756e7420697320616c7265616479206578636c7564656400000000006044820152606401610968565b306001600160a01b03821603610e175760405162461bcd60e51b815260206004820152603360248201527f436f6e747261637420616464726573732063616e6e6f74206265206578636c756044820152723232b210333937b6903932b33632b1ba34b7b760691b6064820152608401610968565b6001600160a01b0381165f9081526006602052604090205415610e6e576001600160a01b0381165f90815260066020526040902054610e5590612453565b6001600160a01b0382165f908152600760205260409020555b6001600160a01b03165f818152600960205260408120805460ff19166001908117909155600a805491820181559091527fc65a7bb8d6351c1cf70c95a316cc6a92839c986682d98bc35f958f4883f9d2a80180546001600160a01b0319169091179055565b6005546001600160a01b03163314610efd5760405162461bcd60e51b8152600401610968906132cc565b600560185482601454601254601054610f169190613281565b610f209190613281565b610f2a9190613281565b610f349190613281565b1115610f525760405162461bcd60e51b815260040161096890613301565b6016805490829055601854601454610f6b908490613281565b610f759190613281565b601a5560408051828152602081018490527f043102402b1ef1ea68f92a353de80186b92415038542af2e8d748f8d6c5250329101610d05565b6005546001600160a01b03163314610fd85760405162461bcd60e51b8152600401610968906132cc565b600581601654601454601254601054610ff19190613281565b610ffb9190613281565b6110059190613281565b61100f9190613281565b111561105d5760405162461bcd60e51b815260206004820152601f60248201527f546f74616c20666565732065786365656420746865203625206c696d69742e006044820152606401610968565b6018805490829055601654601454839161107691613281565b6110809190613281565b601a5560408051828152602081018490527fc9d63693638bfc625de9be66171e4bf76ad4d474ac6bef7cd4c766747cd0075f9101610d05565b6001600160a01b0381165f9081526009602052604081205460ff16156110f457506001600160a01b03165f9081526007602052604090205490565b6001600160a01b0382165f90815260066020526040902054610a8390612453565b6005546001600160a01b0316331461113f5760405162461bcd60e51b8152600401610968906132cc565b6111485f6124d5565b565b5f61115583336107f5565b9050818110156111b35760405162461bcd60e51b8152602060048201526024808201527f45524332303a206275726e20616d6f756e74206578636565647320616c6c6f77604482015263616e636560e01b6064820152608401610968565b6111c08333848403611e5b565b6111ca8383612285565b505050565b6005546001600160a01b031633146111f95760405162461bcd60e51b8152600401610968906132cc565b6001600160a01b0381166112645760405162461bcd60e51b815260206004820152602c60248201527f4d61726b6574696e6720616464726573732063616e6e6f74206265207468652060448201526b7a65726f206164647265737360a01b6064820152608401610968565b600b80546001600160a01b038381166001600160a01b031983168117909355604080519190921680825260208201939093527fa8efc72ed34f90017df79620d1972d42b8e3b17eb0077fc5fc46cbf1a19ed9a99101610d05565b6060600480546109f290613294565b335f9081526001602090815260408083206001600160a01b03861684529091528120548281101561134e5760405162461bcd60e51b815260206004820152602560248201527f45524332303a2064656372656173656420616c6c6f77616e63652062656c6f77604482015264207a65726f60d81b6064820152608401610968565b61135b3385858403611e5b565b5060019392505050565b5f610a7f338484611f7e565b6005546001600160a01b0316331461139b5760405162461bcd60e51b8152600401610968906132cc565b6005601854601654836012546010546113b49190613281565b6113be9190613281565b6113c89190613281565b6113d29190613281565b11156113f05760405162461bcd60e51b815260040161096890613301565b60148054908290556018546016546114089084613281565b6114129190613281565b601a5560408051828152602081018490527fd72bb987241d30efe97862fae5c01605397a36024557bbae8ebedec081678bc29101610d05565b6005546001600160a01b031633146114755760405162461bcd60e51b8152600401610968906132cc565b601f80548215156101000261ff00199091161790556040517f53726dfcaf90650aa7eb35524f4d3220f07413c8d6cb404cc8c18bf5591bc159906114be90831515815260200190565b60405180910390a150565b6005546001600160a01b031633146114f35760405162461bcd60e51b8152600401610968906132cc565b600c5460405147915f916001600160a01b039091169083908381818185875af1925050503d805f8114611541576040519150601f19603f3d011682016040523d82523d5f602084013e611546565b606091505b50509050806115895760405162461bcd60e51b815260206004820152600f60248201526e151c985b9cd9995c8819985a5b1959608a1b6044820152606401610968565b600c5460408051818152602e918101919091527f57652068617665207265636f7665726564207468652073746f636b204554482060608201526d333937b69031b7b73a3930b1ba1760911b60808201526001600160a01b0390911660208201527f025dbd6ad989fe1a64db7dc049e29723ff9d35a97d84ae9aab96196f00ec1a009060a001610d05565b6005546001600160a01b0316331461163d5760405162461bcd60e51b8152600401610968906132cc565b6001600160a01b0381166116a85760405162461bcd60e51b815260206004820152602c60248201527f446576656c6f70657220616464726573732063616e6e6f74206265207468652060448201526b7a65726f206164647265737360a01b6064820152608401610968565b600c80546001600160a01b038381166001600160a01b031983168117909355604080519190921680825260208201939093527f9a8fce0f201607a626cc555ef244d8ed346d879d2141b2964c3a955650554ae09101610d05565b6005546001600160a01b0316331461172c5760405162461bcd60e51b8152600401610968906132cc565b6005601854601654601454846010546117459190613281565b61174f9190613281565b6117599190613281565b6117639190613281565b11156117815760405162461bcd60e51b815260040161096890613301565b601280549082905560408051828152602081018490527f2c52ca41e4d19e67555be53873512bb32ca77e9e6d56b69361d6ac621a8834d19101610d05565b6005546001600160a01b031633146117e95760405162461bcd60e51b8152600401610968906132cc565b306001600160a01b038316036118605760405162461bcd60e51b815260206004820152603660248201527f4f776e65722063616e277420636c61696d20636f6e747261637427732062616c604482015275616e6365206f6620697473206f776e20746f6b656e7360501b6064820152608401610968565b600c5460405163a9059cbb60e01b81526001600160a01b039182166004820152602481018390525f9184169063a9059cbb906044016020604051808303815f875af11580156118b1573d5f803e3d5ffd5b505050506040513d601f19601f820116820180604052508101906118d59190613338565b9050806119165760405162461bcd60e51b815260206004820152600f60248201526e151c985b9cd9995c8819985a5b1959608a1b6044820152606401610968565b604080518181526027818301527f57652068617665207265636f766572656420746f6b656e732066726f6d20636f606082015266373a3930b1ba1d60c91b60808201526020810184905290517fdd970dd9b5bfe707922155b058a407655cb18288b807e2216442bca8ad83d6b59181900360a00190a1505050565b6005546001600160a01b031633146119bb5760405162461bcd60e51b8152600401610968906132cc565b6001600160a01b03165f908152600860205260409020805460ff19169055565b6005546001600160a01b03163314611a055760405162461bcd60e51b8152600401610968906132cc565b6103e8600d546001611a179190613353565b611a21919061336a565b811015611a965760405162461bcd60e51b815260206004820152603860248201527f4d61785478416d6f756e742073686f756c64206265206174206c65617374203060448201527f2e3125206f662074686520746f74616c20737570706c792e00000000000000006064820152608401610968565b601c80549082905560408051828152602081018490527fadcf01123294f8514884e924e20eb4f3032288087368896a17c71f09668247c89101610d05565b6005546001600160a01b03163314611afe5760405162461bcd60e51b8152600401610968906132cc565b8015611b6157611b0d5f61144b565b611b50601a8054601b5560148054601555601080546011556012805460135560168054601755601880546019555f95869055938590559184905583905582905555565b601c54601d55600d54601c55611b9b565b611b6b600161144b565b611b94601b54601a55601554601455601154601055601354601255601754601655601954601855565b601d54601c555b60405181151581527f754db841cd0ba8b9d7311dc4b5c8cd44b1ff98bcb4e1d8d9cab86566bce3a1fa906020016114be565b6005546001600160a01b03163314611bf75760405162461bcd60e51b8152600401610968906132cc565b6001600160a01b038116611c5c5760405162461bcd60e51b815260206004820152602660248201527f4f776e61626c653a206e6577206f776e657220697320746865207a65726f206160448201526564647265737360d01b6064820152608401610968565b610b76816124d5565b6005546001600160a01b03163314611c8f5760405162461bcd60e51b8152600401610968906132cc565b6001600160a01b0381165f9081526009602052604090205460ff16611cf65760405162461bcd60e51b815260206004820152601b60248201527f4163636f756e7420697320616c726561647920696e636c7564656400000000006044820152606401610968565b5f5b600a54811015611e0657816001600160a01b0316600a8281548110611d1f57611d1f613389565b5f918252602090912001546001600160a01b031603611dfe57600a8054611d489060019061326e565b81548110611d5857611d58613389565b5f91825260209091200154600a80546001600160a01b039092169183908110611d8357611d83613389565b5f91825260208083209190910180546001600160a01b0319166001600160a01b039485161790559184168152600782526040808220829055600990925220805460ff19169055600a805480611dda57611dda61339d565b5f8281526020902081015f1990810180546001600160a01b03191690550190555050565b600101611cf8565b5050565b5f805f805f611e1886612526565b90505f611e25828861326e565b90505f611e30612566565b90505f611e3d8284613353565b90505f611e4a838b613353565b9a9199509297509095509350505050565b6001600160a01b038316611ebd5760405162461bcd60e51b8152602060048201526024808201527f45524332303a20617070726f76652066726f6d20746865207a65726f206164646044820152637265737360e01b6064820152608401610968565b6001600160a01b038216611f1e5760405162461bcd60e51b815260206004820152602260248201527f45524332303a20617070726f766520746f20746865207a65726f206164647265604482015261737360f01b6064820152608401610968565b6001600160a01b038381165f8181526001602090815260408083209487168084529482529182902085905590518481527f8c5be1e5ebec7d5bd14f71427d1e84f3dd0314c0f7b2291e5b200ac8c7c3b925910160405180910390a3505050565b6001600160a01b038316611fe25760405162461bcd60e51b815260206004820152602560248201527f45524332303a207472616e736665722066726f6d20746865207a65726f206164604482015264647265737360d81b6064820152608401610968565b6001600160a01b0382166120445760405162461bcd60e51b815260206004820152602360248201527f45524332303a207472616e7366657220746f20746865207a65726f206164647260448201526265737360e81b6064820152608401610968565b5f81116120a55760405162461bcd60e51b815260206004820152602960248201527f5472616e7366657220616d6f756e74206d7573742062652067726561746572206044820152687468616e207a65726f60b81b6064820152608401610968565b5f6120af846110b9565b9050818110156121105760405162461bcd60e51b815260206004820152602660248201527f45524332303a207472616e7366657220616d6f756e7420657863656564732062604482015265616c616e636560d01b6064820152608401610968565b6005546001600160a01b0385811691161480159061213c57506005546001600160a01b03848116911614155b156121a457601c548211156121a45760405162461bcd60e51b815260206004820152602860248201527f5472616e7366657220616d6f756e74206578636565647320746865206d6178546044820152673c20b6b7bab73a1760c11b6064820152608401610968565b5f6121ae306110b9565b601e54601f549192508210159060ff161580156121d25750601f54610100900460ff165b801561220f57507f00000000000000000000000000000000000000000000000000000000000000006001600160a01b0316856001600160a01b0316145b1561222857801561222857601e54915061222882612587565b6001600160a01b0386165f9081526008602052604090205460019060ff168061226857506001600160a01b0386165f9081526008602052604090205460ff165b1561227057505f5b61227c8787878461277a565b50505050505050565b6001600160a01b0382166122e55760405162461bcd60e51b815260206004820152602160248201527f45524332303a206275726e2066726f6d20746865207a65726f206164647265736044820152607360f81b6064820152608401610968565b5f6122ef836110b9565b90508181101561234c5760405162461bcd60e51b815260206004820152602260248201527f45524332303a206275726e20616d6f756e7420657863656564732062616c616e604482015261636560f01b6064820152608401610968565b5f612355612566565b90505f6123628285613353565b6001600160a01b0386165f9081526009602052604090205490915060ff16156123c1576001600160a01b0385165f908152600760205260409020546123a890859061326e565b6001600160a01b0386165f908152600760205260409020555b6001600160a01b0385165f908152600660205260409020546123e490829061326e565b6001600160a01b0386165f90815260066020526040902055600d5461240a90859061326e565b600d55600e5461241b90829061326e565b600e556040518481525f906001600160a01b038716905f8051602061348e833981519152906020015b60405180910390a35050505050565b5f600e548211156124b95760405162461bcd60e51b815260206004820152602a60248201527f416d6f756e74206d757374206265206c657373207468616e20746f74616c207260448201526965666c656374696f6e7360b01b6064820152608401610968565b5f6124c2612566565b90506124ce818461336a565b9392505050565b600580546001600160a01b038381166001600160a01b0319831681179093556040519116919082907f8be0079c531659141344cd1fd0a4f28419497f9722a3daafe3b4186f6b6457e0905f90a35050565b5f80601054601254601a5461253b9190613281565b6125459190613281565b90505f60646125548386613353565b61255e919061336a565b949350505050565b5f805f612571612801565b9092509050612580818361336a565b9250505090565b601f805460ff19166001179055601a541561276d57601a5460145447915f916125b09085613353565b6125ba919061336a565b90505f6125c860028361336a565b90505f6125d5828461326e565b90506125e96125e4828761326e565b612971565b5f6125f4854761326e565b600b54601454919250612664916001600160a01b039091169060029061261b90600a613353565b612625919061336a565b601a5461263390600a613353565b61263d919061326e565b60165461264b90600a613353565b6126559085613353565b61265f919061336a565b612b54565b600c546014546126b6916001600160a01b03169060029061268690600a613353565b612690919061336a565b601a5461269e90600a613353565b6126a8919061326e565b60185461264b90600a613353565b5f6002601454600a6126c89190613353565b6126d2919061336a565b601a546126e090600a613353565b6126ea919061326e565b6002601454600a6126fb9190613353565b612705919061336a565b61270f9084613353565b612719919061336a565b90506127258382612bf3565b60408051858152602081018390529081018490527f17bbfb9a6069321b6ded73bd96327c9e6b7212a5cd51ff219cd61370acafb5619060600160405180910390a15050505050505b50601f805460ff19169055565b806127c2576127c2601a8054601b5560148054601555601080546011556012805460135560168054601755601880546019555f95869055938590559184905583905582905555565b6127cd848484612cf6565b806127fb576127fb601b54601a55601554601455601154601055601354601255601754601655601954601855565b50505050565b600e54600d545f918291825b600a54811015612940578260065f600a848154811061282e5761282e613389565b5f9182526020808320909101546001600160a01b03168352820192909252604001902054118061289657508160075f600a848154811061287057612870613389565b5f9182526020808320909101546001600160a01b03168352820192909252604001902054115b156128ac57600e54600d54945094505050509091565b60065f600a83815481106128c2576128c2613389565b5f9182526020808320909101546001600160a01b031683528201929092526040019020546128f0908461326e565b925060075f600a838154811061290857612908613389565b5f9182526020808320909101546001600160a01b03168352820192909252604001902054612936908361326e565b915060010161280d565b50600d54600e54612951919061336a565b82101561296857600e54600d549350935050509091565b90939092509050565b6040805160028082526060820183525f9260208301908036833701905050905030815f815181106129a4576129a4613389565b60200260200101906001600160a01b031690816001600160a01b0316815250507f00000000000000000000000000000000000000000000000000000000000000006001600160a01b031663ad5c46486040518163ffffffff1660e01b8152600401602060405180830381865afa158015612a20573d5f803e3d5ffd5b505050506040513d601f19601f82011682018060405250810190612a4491906133b1565b81600181518110612a5757612a57613389565b60200260200101906001600160a01b031690816001600160a01b031681525050612aa2307f000000000000000000000000000000000000000000000000000000000000000084611e5b565b60405163791ac94760e01b81526001600160a01b037f0000000000000000000000000000000000000000000000000000000000000000169063791ac94790612af69085905f9086903090429060040161340f565b5f604051808303815f87803b158015612b0d575f80fd5b505af1158015612b1f573d5f803e3d5ffd5b505050507f32cde87eb454f3a0b875ab23547023107cfad454363ec88ba5695e2c24aa52a78282604051610d0592919061344a565b5f826001600160a01b0316826040515f6040518083038185875af1925050503d805f8114612b9d576040519150601f19603f3d011682016040523d82523d5f602084013e612ba2565b606091505b50509050806111ca57826001600160a01b03167f1c43b9761b3fba5321ca8212bfc231945f668ccc0c446f333999eea9ce8fda8183604051612be691815260200190565b60405180910390a2505050565b612c1e307f000000000000000000000000000000000000000000000000000000000000000084611e5b565b7f00000000000000000000000000000000000000000000000000000000000000006001600160a01b031663f305d7198230855f80612c646005546001600160a01b031690565b60405160e088901b6001600160e01b03191681526001600160a01b03958616600482015260248101949094526044840192909252606483015290911660848201524260a482015260c40160606040518083038185885af1158015612cca573d5f803e3d5ffd5b50505050506040513d601f19601f82011682018060405250810190612cef9190613462565b5050505050565b5f805f80612d0385611e0a565b6001600160a01b038b165f9081526006602052604090205493975091955093509150612d3090859061326e565b6001600160a01b038089165f908152600660205260408082209390935590881681522054612d5f908490613281565b6001600160a01b038088165f90815260066020908152604080832094909455918a1681526009909152205460ff168015612db157506001600160a01b0386165f9081526009602052604090205460ff16155b15612df6576001600160a01b0387165f90815260076020526040902054612dd990869061326e565b6001600160a01b0388165f90815260076020526040902055612f28565b6001600160a01b0387165f9081526009602052604090205460ff16158015612e3557506001600160a01b0386165f9081526009602052604090205460ff165b15612e7a576001600160a01b0386165f90815260076020526040902054612e5d908390613281565b6001600160a01b0387165f90815260076020526040902055612f28565b6001600160a01b0387165f9081526009602052604090205460ff168015612eb857506001600160a01b0386165f9081526009602052604090205460ff165b15612f28576001600160a01b0387165f90815260076020526040902054612ee090869061326e565b6001600160a01b038089165f908152600760205260408082209390935590881681522054612f0f908390613281565b6001600160a01b0387165f908152600760205260409020555b612f328582612f8f565b612f3d878683612fe1565b612f4c878683601a543061305d565b856001600160a01b0316876001600160a01b03165f8051602061348e83398151915284604051612f7e91815260200190565b60405180910390a350505050505050565b5f606460125484612fa09190613353565b612faa919061336a565b90505f612fb78383613353565b905080600e54612fc7919061326e565b600e55600f54612fd8908390613281565b600f5550505050565b5f606460105484612ff29190613353565b612ffc919061336a565b905080156127fb575f61300f8383613353565b905081600d5461301f919061326e565b600d55600e5461303090829061326e565b600e556040518281525f906001600160a01b038716905f8051602061348e83398151915290602001612444565b5f606461306a8487613353565b613074919061336a565b905080156130ed575f6130878583613353565b6001600160a01b0384165f908152600660205260409020549091506130ad908290613281565b6001600160a01b038085165f8181526006602052604090819020939093559151908916905f8051602061348e83398151915290612f7e9086815260200190565b505050505050565b5f60208284031215613105575f80fd5b5035919050565b602081525f82518060208401528060208501604085015e5f604082850101526040601f19601f83011684010191505092915050565b6001600160a01b0381168114610b76575f80fd5b5f8060408385031215613166575f80fd5b823561317181613141565b946020939093013593505050565b5f805f60608486031215613191575f80fd5b833561319c81613141565b925060208401356131ac81613141565b929592945050506040919091013590565b5f602082840312156131cd575f80fd5b81356124ce81613141565b8015158114610b76575f80fd5b5f80604083850312156131f6575f80fd5b823591506020830135613208816131d8565b809150509250929050565b5f60208284031215613223575f80fd5b81356124ce816131d8565b5f806040838503121561323f575f80fd5b823561324a81613141565b9150602083013561320881613141565b634e487b7160e01b5f52601160045260245ffd5b81810381811115610a8357610a8361325a565b80820180821115610a8357610a8361325a565b600181811c908216806132a857607f821691505b6020821081036132c657634e487b7160e01b5f52602260045260245ffd5b50919050565b6020808252818101527f4f776e61626c653a2063616c6c6572206973206e6f7420746865206f776e6572604082015260600190565b6020808252601f908201527f546f74616c20666565732065786365656420746865203525206c696d69742e00604082015260600190565b5f60208284031215613348575f80fd5b81516124ce816131d8565b8082028115828204841417610a8357610a8361325a565b5f8261338457634e487b7160e01b5f52601260045260245ffd5b500490565b634e487b7160e01b5f52603260045260245ffd5b634e487b7160e01b5f52603160045260245ffd5b5f602082840312156133c1575f80fd5b81516124ce81613141565b5f815180845260208085019450602084015f5b838110156134045781516001600160a01b0316875295820195908201906001016133df565b509495945050505050565b85815284602082015260a060408201525f61342d60a08301866133cc565b6001600160a01b0394909416606083015250608001529392505050565b828152604060208201525f61255e60408301846133cc565b5f805f60608486031215613474575f80fd5b835192506020840151915060408401519050925092509256feddf252ad1be2c89b69c2b068fc378daa952ba7f163c4a11628f55a4df523b3efa264697066735822122016a480a7bd24d24307a3eb81e34a93d9ab269b67fa457011f5eb058c555c5df064736f6c63430008190033",
			"opcodes": "PUSH1 0xE0 PUSH1 0x40 MSTORE PUSH1 0xB DUP1 SLOAD PUSH1 0x1 PUSH1 0x1 PUSH1 0xA0 SHL SUB NOT SWAP1 DUP2 AND PUSH20 0xED001EBB1A71DC6DF6659C4E4EDB070342FD4A1F OR SWAP1 SWAP2 SSTORE PUSH1 0xC DUP1 SLOAD SWAP1 SWAP2 AND PUSH20 0xB5DF28F0D138275C29536400C1452A816911B77A OR SWAP1 SSTORE PUSH2 0xDEAD PUSH1 0x80 MSTORE PUSH12 0x33B2E3C9FD0803CE8000000 PUSH1 0xD DUP2 SWAP1 SSTORE PUSH2 0x6F SWAP1 PUSH0 NOT PUSH2 0x4AB JUMP JUMPDEST PUSH2 0x7A SWAP1 PUSH0 NOT PUSH2 0x4DE JUMP JUMPDEST PUSH1 0xE SSTORE PUSH0 PUSH1 0xF SSTORE PUSH1 0x1 PUSH1 0x10 SSTORE PUSH1 0x1 PUSH1 0x11 SSTORE PUSH1 0x1 PUSH1 0x12 SSTORE PUSH1 0x1 PUSH1 0x13 SSTORE PUSH1 0x1 PUSH1 0x14 SSTORE PUSH1 0x1 PUSH1 0x15 SSTORE PUSH1 0x1 PUSH1 0x16 SSTORE PUSH1 0x1 PUSH1 0x17 SSTORE PUSH1 0x1 PUSH1 0x18 SSTORE PUSH1 0x1 PUSH1 0x19 SSTORE PUSH1 0x3 PUSH1 0x1A SSTORE PUSH1 0x3 PUSH1 0x1B SSTORE PUSH11 0x84595161401484A000000 PUSH1 0x1C SSTORE PUSH11 0x84595161401484A000000 PUSH1 0x1D SSTORE PUSH10 0x152D02C7E14AF6800000 PUSH1 0x1E SSTORE PUSH1 0x1 PUSH1 0x1F PUSH1 0x1 PUSH2 0x100 EXP DUP2 SLOAD DUP2 PUSH1 0xFF MUL NOT AND SWAP1 DUP4 ISZERO ISZERO MUL OR SWAP1 SSTORE POP PUSH1 0x40 MLOAD DUP1 PUSH1 0x40 ADD PUSH1 0x40 MSTORE DUP1 PUSH1 0xA DUP2 MSTORE PUSH1 0x20 ADD PUSH10 0x436F6666792044654669 PUSH1 0xB0 SHL DUP2 MSTORE POP PUSH1 0x40 MLOAD DUP1 PUSH1 0x40 ADD PUSH1 0x40 MSTORE DUP1 PUSH1 0x5 DUP2 MSTORE PUSH1 0x20 ADD PUSH5 0x434F464649 PUSH1 0xD8 SHL DUP2 MSTORE POP DUP2 PUSH1 0x3 SWAP1 DUP2 PUSH2 0x154 SWAP2 SWAP1 PUSH2 0x58F JUMP JUMPDEST POP PUSH1 0x4 PUSH2 0x161 DUP3 DUP3 PUSH2 0x58F JUMP JUMPDEST POP POP POP PUSH2 0x17A PUSH2 0x175 PUSH2 0x37C PUSH1 0x20 SHL PUSH1 0x20 SHR JUMP JUMPDEST PUSH2 0x380 JUMP JUMPDEST PUSH0 PUSH20 0x7A250D5630B4CF539739DF2C5DACB4C659F2488D SWAP1 POP DUP1 PUSH1 0x1 PUSH1 0x1 PUSH1 0xA0 SHL SUB AND PUSH4 0xC45A0155 PUSH1 0x40 MLOAD DUP2 PUSH4 0xFFFFFFFF AND PUSH1 0xE0 SHL DUP2 MSTORE PUSH1 0x4 ADD PUSH1 0x20 PUSH1 0x40 MLOAD DUP1 DUP4 SUB DUP2 DUP7 GAS STATICCALL ISZERO DUP1 ISZERO PUSH2 0x1CE JUMPI RETURNDATASIZE PUSH0 DUP1 RETURNDATACOPY RETURNDATASIZE PUSH0 REVERT JUMPDEST POP POP POP POP PUSH1 0x40 MLOAD RETURNDATASIZE PUSH1 0x1F NOT PUSH1 0x1F DUP3 ADD AND DUP3 ADD DUP1 PUSH1 0x40 MSTORE POP DUP2 ADD SWAP1 PUSH2 0x1F2 SWAP2 SWAP1 PUSH2 0x64E JUMP JUMPDEST PUSH1 0x1 PUSH1 0x1 PUSH1 0xA0 SHL SUB AND PUSH4 0xC9C65396 ADDRESS DUP4 PUSH1 0x1 PUSH1 0x1 PUSH1 0xA0 SHL SUB AND PUSH4 0xAD5C4648 PUSH1 0x40 MLOAD DUP2 PUSH4 0xFFFFFFFF AND PUSH1 0xE0 SHL DUP2 MSTORE PUSH1 0x4 ADD PUSH1 0x20 PUSH1 0x40 MLOAD DUP1 DUP4 SUB DUP2 DUP7 GAS STATICCALL ISZERO DUP1 ISZERO PUSH2 0x23D JUMPI RETURNDATASIZE PUSH0 DUP1 RETURNDATACOPY RETURNDATASIZE PUSH0 REVERT JUMPDEST POP POP POP POP PUSH1 0x40 MLOAD RETURNDATASIZE PUSH1 0x1F NOT PUSH1 0x1F DUP3 ADD AND DUP3 ADD DUP1 PUSH1 0x40 MSTORE POP DUP2 ADD SWAP1 PUSH2 0x261 SWAP2 SWAP1 PUSH2 0x64E JUMP JUMPDEST PUSH1 0x40 MLOAD PUSH1 0x1 PUSH1 0x1 PUSH1 0xE0 SHL SUB NOT PUSH1 0xE0 DUP6 SWAP1 SHL AND DUP2 MSTORE PUSH1 0x1 PUSH1 0x1 PUSH1 0xA0 SHL SUB SWAP3 DUP4 AND PUSH1 0x4 DUP3 ADD MSTORE SWAP2 AND PUSH1 0x24 DUP3 ADD MSTORE PUSH1 0x44 ADD PUSH1 0x20 PUSH1 0x40 MLOAD DUP1 DUP4 SUB DUP2 PUSH0 DUP8 GAS CALL ISZERO DUP1 ISZERO PUSH2 0x2AB JUMPI RETURNDATASIZE PUSH0 DUP1 RETURNDATACOPY RETURNDATASIZE PUSH0 REVERT JUMPDEST POP POP POP POP PUSH1 0x40 MLOAD RETURNDATASIZE PUSH1 0x1F NOT PUSH1 0x1F DUP3 ADD AND DUP3 ADD DUP1 PUSH1 0x40 MSTORE POP DUP2 ADD SWAP1 PUSH2 0x2CF SWAP2 SWAP1 PUSH2 0x64E JUMP JUMPDEST PUSH1 0x1 PUSH1 0x1 PUSH1 0xA0 SHL SUB SWAP1 DUP2 AND PUSH1 0xC0 MSTORE DUP2 AND PUSH1 0xA0 MSTORE PUSH1 0x1 PUSH1 0x8 PUSH0 PUSH2 0x2F9 PUSH1 0x5 SLOAD PUSH1 0x1 PUSH1 0x1 PUSH1 0xA0 SHL SUB AND SWAP1 JUMP JUMPDEST PUSH1 0x1 PUSH1 0x1 PUSH1 0xA0 SHL SUB SWAP1 DUP2 AND DUP3 MSTORE PUSH1 0x20 DUP1 DUP4 ADD SWAP4 SWAP1 SWAP4 MSTORE PUSH1 0x40 SWAP2 DUP3 ADD PUSH0 SWAP1 DUP2 KECCAK256 DUP1 SLOAD SWAP6 ISZERO ISZERO PUSH1 0xFF NOT SWAP7 DUP8 AND OR SWAP1 SSTORE PUSH1 0xB SLOAD DUP3 AND DUP2 MSTORE PUSH1 0x8 SWAP1 SWAP4 MSTORE DUP2 DUP4 KECCAK256 DUP1 SLOAD DUP6 AND PUSH1 0x1 SWAP1 DUP2 OR SWAP1 SWAP2 SSTORE PUSH1 0xC SLOAD SWAP1 SWAP2 AND DUP4 MSTORE DUP2 DUP4 KECCAK256 DUP1 SLOAD DUP6 AND DUP3 OR SWAP1 SSTORE ADDRESS DUP4 MSTORE SWAP2 KECCAK256 DUP1 SLOAD SWAP1 SWAP3 AND OR SWAP1 SSTORE PUSH2 0x376 PUSH2 0x36B CALLER SWAP1 JUMP JUMPDEST PUSH1 0xE SLOAD PUSH1 0xD SLOAD PUSH2 0x3D1 JUMP JUMPDEST POP PUSH2 0x68E JUMP JUMPDEST CALLER SWAP1 JUMP JUMPDEST PUSH1 0x5 DUP1 SLOAD PUSH1 0x1 PUSH1 0x1 PUSH1 0xA0 SHL SUB DUP4 DUP2 AND PUSH1 0x1 PUSH1 0x1 PUSH1 0xA0 SHL SUB NOT DUP4 AND DUP2 OR SWAP1 SWAP4 SSTORE PUSH1 0x40 MLOAD SWAP2 AND SWAP2 SWAP1 DUP3 SWAP1 PUSH32 0x8BE0079C531659141344CD1FD0A4F28419497F9722A3DAAFE3B4186F6B6457E0 SWAP1 PUSH0 SWAP1 LOG3 POP POP JUMP JUMPDEST PUSH1 0x1 PUSH1 0x1 PUSH1 0xA0 SHL SUB DUP4 AND PUSH2 0x42B JUMPI PUSH1 0x40 MLOAD PUSH3 0x461BCD PUSH1 0xE5 SHL DUP2 MSTORE PUSH1 0x20 PUSH1 0x4 DUP3 ADD MSTORE PUSH1 0x1F PUSH1 0x24 DUP3 ADD MSTORE PUSH32 0x45524332303A206D696E7420746F20746865207A65726F206164647265737300 PUSH1 0x44 DUP3 ADD MSTORE PUSH1 0x64 ADD PUSH1 0x40 MLOAD DUP1 SWAP2 SUB SWAP1 REVERT JUMPDEST PUSH1 0x1 PUSH1 0x1 PUSH1 0xA0 SHL SUB DUP4 AND PUSH0 SWAP1 DUP2 MSTORE PUSH1 0x6 PUSH1 0x20 MSTORE PUSH1 0x40 SWAP1 KECCAK256 SLOAD PUSH2 0x44E SWAP1 DUP4 SWAP1 PUSH2 0x67B JUMP JUMPDEST PUSH1 0x1 PUSH1 0x1 PUSH1 0xA0 SHL SUB DUP5 AND PUSH0 DUP2 DUP2 MSTORE PUSH1 0x6 PUSH1 0x20 MSTORE PUSH1 0x40 DUP1 DUP3 KECCAK256 SWAP4 SWAP1 SWAP4 SSTORE SWAP2 MLOAD SWAP1 SWAP2 SWAP1 PUSH32 0xDDF252AD1BE2C89B69C2B068FC378DAA952BA7F163C4A11628F55A4DF523B3EF SWAP1 PUSH2 0x49E SWAP1 DUP6 DUP2 MSTORE PUSH1 0x20 ADD SWAP1 JUMP JUMPDEST PUSH1 0x40 MLOAD DUP1 SWAP2 SUB SWAP1 LOG3 POP POP POP JUMP JUMPDEST PUSH0 DUP3 PUSH2 0x4C5 JUMPI PUSH4 0x4E487B71 PUSH1 0xE0 SHL PUSH0 MSTORE PUSH1 0x12 PUSH1 0x4 MSTORE PUSH1 0x24 PUSH0 REVERT JUMPDEST POP MOD SWAP1 JUMP JUMPDEST PUSH4 0x4E487B71 PUSH1 0xE0 SHL PUSH0 MSTORE PUSH1 0x11 PUSH1 0x4 MSTORE PUSH1 0x24 PUSH0 REVERT JUMPDEST DUP2 DUP2 SUB DUP2 DUP2 GT ISZERO PUSH2 0x4F1 JUMPI PUSH2 0x4F1 PUSH2 0x4CA JUMP JUMPDEST SWAP3 SWAP2 POP POP JUMP JUMPDEST PUSH4 0x4E487B71 PUSH1 0xE0 SHL PUSH0 MSTORE PUSH1 0x41 PUSH1 0x4 MSTORE PUSH1 0x24 PUSH0 REVERT JUMPDEST PUSH1 0x1 DUP2 DUP2 SHR SWAP1 DUP3 AND DUP1 PUSH2 0x51F JUMPI PUSH1 0x7F DUP3 AND SWAP2 POP JUMPDEST PUSH1 0x20 DUP3 LT DUP2 SUB PUSH2 0x53D JUMPI PUSH4 0x4E487B71 PUSH1 0xE0 SHL PUSH0 MSTORE PUSH1 0x22 PUSH1 0x4 MSTORE PUSH1 0x24 PUSH0 REVERT JUMPDEST POP SWAP2 SWAP1 POP JUMP JUMPDEST PUSH1 0x1F DUP3 GT ISZERO PUSH2 0x58A JUMPI DUP1 PUSH0 MSTORE PUSH1 0x20 PUSH0 KECCAK256 PUSH1 0x1F DUP5 ADD PUSH1 0x5 SHR DUP2 ADD PUSH1 0x20 DUP6 LT ISZERO PUSH2 0x568 JUMPI POP DUP1 JUMPDEST PUSH1 0x1F DUP5 ADD PUSH1 0x5 SHR DUP3 ADD SWAP2 POP JUMPDEST DUP2 DUP2 LT ISZERO PUSH2 0x587 JUMPI PUSH0 DUP2 SSTORE PUSH1 0x1 ADD PUSH2 0x574 JUMP JUMPDEST POP POP JUMPDEST POP POP POP JUMP JUMPDEST DUP2 MLOAD PUSH1 0x1 PUSH1 0x1 PUSH1 0x40 SHL SUB DUP2 GT ISZERO PUSH2 0x5A8 JUMPI PUSH2 0x5A8 PUSH2 0x4F7 JUMP JUMPDEST PUSH2 0x5BC DUP2 PUSH2 0x5B6 DUP5 SLOAD PUSH2 0x50B JUMP JUMPDEST DUP5 PUSH2 0x543 JUMP JUMPDEST PUSH1 0x20 DUP1 PUSH1 0x1F DUP4 GT PUSH1 0x1 DUP2 EQ PUSH2 0x5EF JUMPI PUSH0 DUP5 ISZERO PUSH2 0x5D8 JUMPI POP DUP6 DUP4 ADD MLOAD JUMPDEST PUSH0 NOT PUSH1 0x3 DUP7 SWAP1 SHL SHR NOT AND PUSH1 0x1 DUP6 SWAP1 SHL OR DUP6 SSTORE PUSH2 0x646 JUMP JUMPDEST PUSH0 DUP6 DUP2 MSTORE PUSH1 0x20 DUP2 KECCAK256 PUSH1 0x1F NOT DUP7 AND SWAP2 JUMPDEST DUP3 DUP2 LT ISZERO PUSH2 0x61D JUMPI DUP9 DUP7 ADD MLOAD DUP3 SSTORE SWAP5 DUP5 ADD SWAP5 PUSH1 0x1 SWAP1 SWAP2 ADD SWAP1 DUP5 ADD PUSH2 0x5FE JUMP JUMPDEST POP DUP6 DUP3 LT ISZERO PUSH2 0x63A JUMPI DUP8 DUP6 ADD MLOAD PUSH0 NOT PUSH1 0x3 DUP9 SWAP1 SHL PUSH1 0xF8 AND SHR NOT AND DUP2 SSTORE JUMPDEST POP POP PUSH1 0x1 DUP5 PUSH1 0x1 SHL ADD DUP6 SSTORE JUMPDEST POP POP POP POP POP POP JUMP JUMPDEST PUSH0 PUSH1 0x20 DUP3 DUP5 SUB SLT ISZERO PUSH2 0x65E JUMPI PUSH0 DUP1 REVERT JUMPDEST DUP2 MLOAD PUSH1 0x1 PUSH1 0x1 PUSH1 0xA0 SHL SUB DUP2 AND DUP2 EQ PUSH2 0x674 JUMPI PUSH0 DUP1 REVERT JUMPDEST SWAP4 SWAP3 POP POP POP JUMP JUMPDEST DUP1 DUP3 ADD DUP1 DUP3 GT ISZERO PUSH2 0x4F1 JUMPI PUSH2 0x4F1 PUSH2 0x4CA JUMP JUMPDEST PUSH1 0x80 MLOAD PUSH1 0xA0 MLOAD PUSH1 0xC0 MLOAD PUSH2 0x34E3 PUSH2 0x6E2 PUSH0 CODECOPY PUSH0 DUP2 DUP2 PUSH2 0x4E3 ADD MSTORE PUSH2 0x21DB ADD MSTORE PUSH0 DUP2 DUP2 PUSH2 0x33E ADD MSTORE DUP2 DUP2 PUSH2 0x29C6 ADD MSTORE DUP2 DUP2 PUSH2 0x2A7D ADD MSTORE DUP2 DUP2 PUSH2 0x2AB9 ADD MSTORE DUP2 DUP2 PUSH2 0x2BF9 ADD MSTORE PUSH2 0x2C20 ADD MSTORE PUSH0 PUSH2 0x3DB ADD MSTORE PUSH2 0x34E3 PUSH0 RETURN INVALID PUSH1 0x80 PUSH1 0x40 MSTORE PUSH1 0x4 CALLDATASIZE LT PUSH2 0x2A8 JUMPI PUSH0 CALLDATALOAD PUSH1 0xE0 SHR DUP1 PUSH4 0x715018A6 GT PUSH2 0x16F JUMPI DUP1 PUSH4 0xC49B9A80 GT PUSH2 0xD8 JUMPI DUP1 PUSH4 0xE547BE69 GT PUSH2 0x92 JUMPI DUP1 PUSH4 0xEC28438A GT PUSH2 0x6D JUMPI DUP1 PUSH4 0xEC28438A EQ PUSH2 0x87C JUMPI DUP1 PUSH4 0xEDC2FCFB EQ PUSH2 0x89B JUMPI DUP1 PUSH4 0xF2FDE38B EQ PUSH2 0x8BA JUMPI DUP1 PUSH4 0xFDEB889F EQ PUSH2 0x8D9 JUMPI PUSH0 DUP1 REVERT JUMPDEST DUP1 PUSH4 0xE547BE69 EQ PUSH2 0x81F JUMPI DUP1 PUSH4 0xE6BE4A72 EQ PUSH2 0x83E JUMPI DUP1 PUSH4 0xEA2F0B37 EQ PUSH2 0x85D JUMPI PUSH0 DUP1 REVERT JUMPDEST DUP1 PUSH4 0xC49B9A80 EQ PUSH2 0x733 JUMPI DUP1 PUSH4 0xCACCD7F7 EQ PUSH2 0x752 JUMPI DUP1 PUSH4 0xCBA0E996 EQ PUSH2 0x771 JUMPI DUP1 PUSH4 0xCE831ED5 EQ PUSH2 0x7A8 JUMPI DUP1 PUSH4 0xDCC345F2 EQ PUSH2 0x7BC JUMPI DUP1 PUSH4 0xDD62ED3E EQ PUSH2 0x7DB JUMPI PUSH0 DUP1 REVERT JUMPDEST DUP1 PUSH4 0x95D89B41 GT PUSH2 0x129 JUMPI DUP1 PUSH4 0x95D89B41 EQ PUSH2 0x68E JUMPI DUP1 PUSH4 0xA457C2D7 EQ PUSH2 0x6A2 JUMPI DUP1 PUSH4 0xA5ECE941 EQ PUSH2 0x6C1 JUMPI DUP1 PUSH4 0xA9059CBB EQ PUSH2 0x6E0 JUMPI DUP1 PUSH4 0xA94C8DD2 EQ PUSH2 0x6FF JUMPI DUP1 PUSH4 0xC0B0FDA2 EQ PUSH2 0x71E JUMPI PUSH0 DUP1 REVERT JUMPDEST DUP1 PUSH4 0x715018A6 EQ PUSH2 0x5F5 JUMPI DUP1 PUSH4 0x79CC6790 EQ PUSH2 0x609 JUMPI DUP1 PUSH4 0x7D1DB4A5 EQ PUSH2 0x628 JUMPI DUP1 PUSH4 0x8A0623B4 EQ PUSH2 0x63D JUMPI DUP1 PUSH4 0x8DA5CB5B EQ PUSH2 0x652 JUMPI DUP1 PUSH4 0x906E9DD0 EQ PUSH2 0x66F JUMPI PUSH0 DUP1 REVERT JUMPDEST DUP1 PUSH4 0x42966C68 GT PUSH2 0x211 JUMPI DUP1 PUSH4 0x4BF2C7C9 GT PUSH2 0x1CB JUMPI DUP1 PUSH4 0x4BF2C7C9 EQ PUSH2 0x523 JUMPI DUP1 PUSH4 0x5342ACB4 EQ PUSH2 0x542 JUMPI DUP1 PUSH4 0x6049876E EQ PUSH2 0x579 JUMPI DUP1 PUSH4 0x625E764C EQ PUSH2 0x598 JUMPI DUP1 PUSH4 0x6C317232 EQ PUSH2 0x5B7 JUMPI DUP1 PUSH4 0x70A08231 EQ PUSH2 0x5D6 JUMPI PUSH0 DUP1 REVERT JUMPDEST DUP1 PUSH4 0x42966C68 EQ PUSH2 0x460 JUMPI DUP1 PUSH4 0x437823EC EQ PUSH2 0x47F JUMPI DUP1 PUSH4 0x4549B039 EQ PUSH2 0x49E JUMPI DUP1 PUSH4 0x48DE478E EQ PUSH2 0x4BD JUMPI DUP1 PUSH4 0x49BD5A5E EQ PUSH2 0x4D2 JUMPI DUP1 PUSH4 0x4A74BB02 EQ PUSH2 0x505 JUMPI PUSH0 DUP1 REVERT JUMPDEST DUP1 PUSH4 0x23B872DD GT PUSH2 0x262 JUMPI DUP1 PUSH4 0x23B872DD EQ PUSH2 0x3AB JUMPI DUP1 PUSH4 0x27C8F835 EQ PUSH2 0x3CA JUMPI DUP1 PUSH4 0x313CE567 EQ PUSH2 0x3FD JUMPI DUP1 PUSH4 0x32035504 EQ PUSH2 0x418 JUMPI DUP1 PUSH4 0x3206B4AA EQ PUSH2 0x42C JUMPI DUP1 PUSH4 0x39509351 EQ PUSH2 0x441 JUMPI PUSH0 DUP1 REVERT JUMPDEST DUP1 PUSH4 0x53AB182 EQ PUSH2 0x2B3 JUMPI DUP1 PUSH4 0x6FDDE03 EQ PUSH2 0x2D4 JUMPI DUP1 PUSH4 0x95EA7B3 EQ PUSH2 0x2FE JUMPI DUP1 PUSH4 0x1694505E EQ PUSH2 0x32D JUMPI DUP1 PUSH4 0x18160DDD EQ PUSH2 0x378 JUMPI DUP1 PUSH4 0x22976E0D EQ PUSH2 0x396 JUMPI PUSH0 DUP1 REVERT JUMPDEST CALLDATASIZE PUSH2 0x2AF JUMPI STOP JUMPDEST PUSH0 DUP1 REVERT JUMPDEST CALLVALUE DUP1 ISZERO PUSH2 0x2BE JUMPI PUSH0 DUP1 REVERT JUMPDEST POP PUSH2 0x2D2 PUSH2 0x2CD CALLDATASIZE PUSH1 0x4 PUSH2 0x30F5 JUMP JUMPDEST PUSH2 0x8F8 JUMP JUMPDEST STOP JUMPDEST CALLVALUE DUP1 ISZERO PUSH2 0x2DF JUMPI PUSH0 DUP1 REVERT JUMPDEST POP PUSH2 0x2E8 PUSH2 0x9E3 JUMP JUMPDEST PUSH1 0x40 MLOAD PUSH2 0x2F5 SWAP2 SWAP1 PUSH2 0x310C JUMP JUMPDEST PUSH1 0x40 MLOAD DUP1 SWAP2 SUB SWAP1 RETURN JUMPDEST CALLVALUE DUP1 ISZERO PUSH2 0x309 JUMPI PUSH0 DUP1 REVERT JUMPDEST POP PUSH2 0x31D PUSH2 0x318 CALLDATASIZE PUSH1 0x4 PUSH2 0x3155 JUMP JUMPDEST PUSH2 0xA73 JUMP JUMPDEST PUSH1 0x40 MLOAD SWAP1 ISZERO ISZERO DUP2 MSTORE PUSH1 0x20 ADD PUSH2 0x2F5 JUMP JUMPDEST CALLVALUE DUP1 ISZERO PUSH2 0x338 JUMPI PUSH0 DUP1 REVERT JUMPDEST POP PUSH2 0x360 PUSH32 0x0 DUP2 JUMP JUMPDEST PUSH1 0x40 MLOAD PUSH1 0x1 PUSH1 0x1 PUSH1 0xA0 SHL SUB SWAP1 SWAP2 AND DUP2 MSTORE PUSH1 0x20 ADD PUSH2 0x2F5 JUMP JUMPDEST CALLVALUE DUP1 ISZERO PUSH2 0x383 JUMPI PUSH0 DUP1 REVERT JUMPDEST POP PUSH1 0xD SLOAD JUMPDEST PUSH1 0x40 MLOAD SWAP1 DUP2 MSTORE PUSH1 0x20 ADD PUSH2 0x2F5 JUMP JUMPDEST CALLVALUE DUP1 ISZERO PUSH2 0x3A1 JUMPI PUSH0 DUP1 REVERT JUMPDEST POP PUSH2 0x388 PUSH1 0x16 SLOAD DUP2 JUMP JUMPDEST CALLVALUE DUP1 ISZERO PUSH2 0x3B6 JUMPI PUSH0 DUP1 REVERT JUMPDEST POP PUSH2 0x31D PUSH2 0x3C5 CALLDATASIZE PUSH1 0x4 PUSH2 0x317F JUMP JUMPDEST PUSH2 0xA89 JUMP JUMPDEST CALLVALUE DUP1 ISZERO PUSH2 0x3D5 JUMPI PUSH0 DUP1 REVERT JUMPDEST POP PUSH2 0x360 PUSH32 0x0 DUP2 JUMP JUMPDEST CALLVALUE DUP1 ISZERO PUSH2 0x408 JUMPI PUSH0 DUP1 REVERT JUMPDEST POP PUSH1 0x40 MLOAD PUSH1 0x12 DUP2 MSTORE PUSH1 0x20 ADD PUSH2 0x2F5 JUMP JUMPDEST CALLVALUE DUP1 ISZERO PUSH2 0x423 JUMPI PUSH0 DUP1 REVERT JUMPDEST POP PUSH1 0xF SLOAD PUSH2 0x388 JUMP JUMPDEST CALLVALUE DUP1 ISZERO PUSH2 0x437 JUMPI PUSH0 DUP1 REVERT JUMPDEST POP PUSH2 0x388 PUSH1 0x12 SLOAD DUP2 JUMP JUMPDEST CALLVALUE DUP1 ISZERO PUSH2 0x44C JUMPI PUSH0 DUP1 REVERT JUMPDEST POP PUSH2 0x31D PUSH2 0x45B CALLDATASIZE PUSH1 0x4 PUSH2 0x3155 JUMP JUMPDEST PUSH2 0xB31 JUMP JUMPDEST CALLVALUE DUP1 ISZERO PUSH2 0x46B JUMPI PUSH0 DUP1 REVERT JUMPDEST POP PUSH2 0x2D2 PUSH2 0x47A CALLDATASIZE PUSH1 0x4 PUSH2 0x30F5 JUMP JUMPDEST PUSH2 0xB6C JUMP JUMPDEST CALLVALUE DUP1 ISZERO PUSH2 0x48A JUMPI PUSH0 DUP1 REVERT JUMPDEST POP PUSH2 0x2D2 PUSH2 0x499 CALLDATASIZE PUSH1 0x4 PUSH2 0x31BD JUMP JUMPDEST PUSH2 0xB79 JUMP JUMPDEST CALLVALUE DUP1 ISZERO PUSH2 0x4A9 JUMPI PUSH0 DUP1 REVERT JUMPDEST POP PUSH2 0x388 PUSH2 0x4B8 CALLDATASIZE PUSH1 0x4 PUSH2 0x31E5 JUMP JUMPDEST PUSH2 0xBC6 JUMP JUMPDEST CALLVALUE DUP1 ISZERO PUSH2 0x4C8 JUMPI PUSH0 DUP1 REVERT JUMPDEST POP PUSH2 0x388 PUSH1 0x18 SLOAD DUP2 JUMP JUMPDEST CALLVALUE DUP1 ISZERO PUSH2 0x4DD JUMPI PUSH0 DUP1 REVERT JUMPDEST POP PUSH2 0x360 PUSH32 0x0 DUP2 JUMP JUMPDEST CALLVALUE DUP1 ISZERO PUSH2 0x510 JUMPI PUSH0 DUP1 REVERT JUMPDEST POP PUSH1 0x1F SLOAD PUSH2 0x31D SWAP1 PUSH2 0x100 SWAP1 DIV PUSH1 0xFF AND DUP2 JUMP JUMPDEST CALLVALUE DUP1 ISZERO PUSH2 0x52E JUMPI PUSH0 DUP1 REVERT JUMPDEST POP PUSH2 0x2D2 PUSH2 0x53D CALLDATASIZE PUSH1 0x4 PUSH2 0x30F5 JUMP JUMPDEST PUSH2 0xC4C JUMP JUMPDEST CALLVALUE DUP1 ISZERO PUSH2 0x54D JUMPI PUSH0 DUP1 REVERT JUMPDEST POP PUSH2 0x31D PUSH2 0x55C CALLDATASIZE PUSH1 0x4 PUSH2 0x31BD JUMP JUMPDEST PUSH1 0x1 PUSH1 0x1 PUSH1 0xA0 SHL SUB AND PUSH0 SWAP1 DUP2 MSTORE PUSH1 0x8 PUSH1 0x20 MSTORE PUSH1 0x40 SWAP1 KECCAK256 SLOAD PUSH1 0xFF AND SWAP1 JUMP JUMPDEST CALLVALUE DUP1 ISZERO PUSH2 0x584 JUMPI PUSH0 DUP1 REVERT JUMPDEST POP PUSH2 0x2D2 PUSH2 0x593 CALLDATASIZE PUSH1 0x4 PUSH2 0x31BD JUMP JUMPDEST PUSH2 0xD11 JUMP JUMPDEST CALLVALUE DUP1 ISZERO PUSH2 0x5A3 JUMPI PUSH0 DUP1 REVERT JUMPDEST POP PUSH2 0x2D2 PUSH2 0x5B2 CALLDATASIZE PUSH1 0x4 PUSH2 0x30F5 JUMP JUMPDEST PUSH2 0xED3 JUMP JUMPDEST CALLVALUE DUP1 ISZERO PUSH2 0x5C2 JUMPI PUSH0 DUP1 REVERT JUMPDEST POP PUSH2 0x2D2 PUSH2 0x5D1 CALLDATASIZE PUSH1 0x4 PUSH2 0x30F5 JUMP JUMPDEST PUSH2 0xFAE JUMP JUMPDEST CALLVALUE DUP1 ISZERO PUSH2 0x5E1 JUMPI PUSH0 DUP1 REVERT JUMPDEST POP PUSH2 0x388 PUSH2 0x5F0 CALLDATASIZE PUSH1 0x4 PUSH2 0x31BD JUMP JUMPDEST PUSH2 0x10B9 JUMP JUMPDEST CALLVALUE DUP1 ISZERO PUSH2 0x600 JUMPI PUSH0 DUP1 REVERT JUMPDEST POP PUSH2 0x2D2 PUSH2 0x1115 JUMP JUMPDEST CALLVALUE DUP1 ISZERO PUSH2 0x614 JUMPI PUSH0 DUP1 REVERT JUMPDEST POP PUSH2 0x2D2 PUSH2 0x623 CALLDATASIZE PUSH1 0x4 PUSH2 0x3155 JUMP JUMPDEST PUSH2 0x114A JUMP JUMPDEST CALLVALUE DUP1 ISZERO PUSH2 0x633 JUMPI PUSH0 DUP1 REVERT JUMPDEST POP PUSH2 0x388 PUSH1 0x1C SLOAD DUP2 JUMP JUMPDEST CALLVALUE DUP1 ISZERO PUSH2 0x648 JUMPI PUSH0 DUP1 REVERT JUMPDEST POP PUSH2 0x388 PUSH1 0x14 SLOAD DUP2 JUMP JUMPDEST CALLVALUE DUP1 ISZERO PUSH2 0x65D JUMPI PUSH0 DUP1 REVERT JUMPDEST POP PUSH1 0x5 SLOAD PUSH1 0x1 PUSH1 0x1 PUSH1 0xA0 SHL SUB AND PUSH2 0x360 JUMP JUMPDEST CALLVALUE DUP1 ISZERO PUSH2 0x67A JUMPI PUSH0 DUP1 REVERT JUMPDEST POP PUSH2 0x2D2 PUSH2 0x689 CALLDATASIZE PUSH1 0x4 PUSH2 0x31BD JUMP JUMPDEST PUSH2 0x11CF JUMP JUMPDEST CALLVALUE DUP1 ISZERO PUSH2 0x699 JUMPI PUSH0 DUP1 REVERT JUMPDEST POP PUSH2 0x2E8 PUSH2 0x12BE JUMP JUMPDEST CALLVALUE DUP1 ISZERO PUSH2 0x6AD JUMPI PUSH0 DUP1 REVERT JUMPDEST POP PUSH2 0x31D PUSH2 0x6BC CALLDATASIZE PUSH1 0x4 PUSH2 0x3155 JUMP JUMPDEST PUSH2 0x12CD JUMP JUMPDEST CALLVALUE DUP1 ISZERO PUSH2 0x6CC JUMPI PUSH0 DUP1 REVERT JUMPDEST POP PUSH1 0xB SLOAD PUSH2 0x360 SWAP1 PUSH1 0x1 PUSH1 0x1 PUSH1 0xA0 SHL SUB AND DUP2 JUMP JUMPDEST CALLVALUE DUP1 ISZERO PUSH2 0x6EB JUMPI PUSH0 DUP1 REVERT JUMPDEST POP PUSH2 0x31D PUSH2 0x6FA CALLDATASIZE PUSH1 0x4 PUSH2 0x3155 JUMP JUMPDEST PUSH2 0x1365 JUMP JUMPDEST CALLVALUE DUP1 ISZERO PUSH2 0x70A JUMPI PUSH0 DUP1 REVERT JUMPDEST POP PUSH2 0x2D2 PUSH2 0x719 CALLDATASIZE PUSH1 0x4 PUSH2 0x30F5 JUMP JUMPDEST PUSH2 0x1371 JUMP JUMPDEST CALLVALUE DUP1 ISZERO PUSH2 0x729 JUMPI PUSH0 DUP1 REVERT JUMPDEST POP PUSH2 0x388 PUSH1 0x10 SLOAD DUP2 JUMP JUMPDEST CALLVALUE DUP1 ISZERO PUSH2 0x73E JUMPI PUSH0 DUP1 REVERT JUMPDEST POP PUSH2 0x2D2 PUSH2 0x74D CALLDATASIZE PUSH1 0x4 PUSH2 0x3213 JUMP JUMPDEST PUSH2 0x144B JUMP JUMPDEST CALLVALUE DUP1 ISZERO PUSH2 0x75D JUMPI PUSH0 DUP1 REVERT JUMPDEST POP PUSH1 0xC SLOAD PUSH2 0x360 SWAP1 PUSH1 0x1 PUSH1 0x1 PUSH1 0xA0 SHL SUB AND DUP2 JUMP JUMPDEST CALLVALUE DUP1 ISZERO PUSH2 0x77C JUMPI PUSH0 DUP1 REVERT JUMPDEST POP PUSH2 0x31D PUSH2 0x78B CALLDATASIZE PUSH1 0x4 PUSH2 0x31BD JUMP JUMPDEST PUSH1 0x1 PUSH1 0x1 PUSH1 0xA0 SHL SUB AND PUSH0 SWAP1 DUP2 MSTORE PUSH1 0x9 PUSH1 0x20 MSTORE PUSH1 0x40 SWAP1 KECCAK256 SLOAD PUSH1 0xFF AND SWAP1 JUMP JUMPDEST CALLVALUE DUP1 ISZERO PUSH2 0x7B3 JUMPI PUSH0 DUP1 REVERT JUMPDEST POP PUSH2 0x2D2 PUSH2 0x14C9 JUMP JUMPDEST CALLVALUE DUP1 ISZERO PUSH2 0x7C7 JUMPI PUSH0 DUP1 REVERT JUMPDEST POP PUSH2 0x2D2 PUSH2 0x7D6 CALLDATASIZE PUSH1 0x4 PUSH2 0x31BD JUMP JUMPDEST PUSH2 0x1613 JUMP JUMPDEST CALLVALUE DUP1 ISZERO PUSH2 0x7E6 JUMPI PUSH0 DUP1 REVERT JUMPDEST POP PUSH2 0x388 PUSH2 0x7F5 CALLDATASIZE PUSH1 0x4 PUSH2 0x322E JUMP JUMPDEST PUSH1 0x1 PUSH1 0x1 PUSH1 0xA0 SHL SUB SWAP2 DUP3 AND PUSH0 SWAP1 DUP2 MSTORE PUSH1 0x1 PUSH1 0x20 SWAP1 DUP2 MSTORE PUSH1 0x40 DUP1 DUP4 KECCAK256 SWAP4 SWAP1 SWAP5 AND DUP3 MSTORE SWAP2 SWAP1 SWAP2 MSTORE KECCAK256 SLOAD SWAP1 JUMP JUMPDEST CALLVALUE DUP1 ISZERO PUSH2 0x82A JUMPI PUSH0 DUP1 REVERT JUMPDEST POP PUSH2 0x2D2 PUSH2 0x839 CALLDATASIZE PUSH1 0x4 PUSH2 0x30F5 JUMP JUMPDEST PUSH2 0x1702 JUMP JUMPDEST CALLVALUE DUP1 ISZERO PUSH2 0x849 JUMPI PUSH0 DUP1 REVERT JUMPDEST POP PUSH2 0x2D2 PUSH2 0x858 CALLDATASIZE PUSH1 0x4 PUSH2 0x3155 JUMP JUMPDEST PUSH2 0x17BF JUMP JUMPDEST CALLVALUE DUP1 ISZERO PUSH2 0x868 JUMPI PUSH0 DUP1 REVERT JUMPDEST POP PUSH2 0x2D2 PUSH2 0x877 CALLDATASIZE PUSH1 0x4 PUSH2 0x31BD JUMP JUMPDEST PUSH2 0x1991 JUMP JUMPDEST CALLVALUE DUP1 ISZERO PUSH2 0x887 JUMPI PUSH0 DUP1 REVERT JUMPDEST POP PUSH2 0x2D2 PUSH2 0x896 CALLDATASIZE PUSH1 0x4 PUSH2 0x30F5 JUMP JUMPDEST PUSH2 0x19DB JUMP JUMPDEST CALLVALUE DUP1 ISZERO PUSH2 0x8A6 JUMPI PUSH0 DUP1 REVERT JUMPDEST POP PUSH2 0x2D2 PUSH2 0x8B5 CALLDATASIZE PUSH1 0x4 PUSH2 0x3213 JUMP JUMPDEST PUSH2 0x1AD4 JUMP JUMPDEST CALLVALUE DUP1 ISZERO PUSH2 0x8C5 JUMPI PUSH0 DUP1 REVERT JUMPDEST POP PUSH2 0x2D2 PUSH2 0x8D4 CALLDATASIZE PUSH1 0x4 PUSH2 0x31BD JUMP JUMPDEST PUSH2 0x1BCD JUMP JUMPDEST CALLVALUE DUP1 ISZERO PUSH2 0x8E4 JUMPI PUSH0 DUP1 REVERT JUMPDEST POP PUSH2 0x2D2 PUSH2 0x8F3 CALLDATASIZE PUSH1 0x4 PUSH2 0x31BD JUMP JUMPDEST PUSH2 0x1C65 JUMP JUMPDEST CALLER PUSH0 DUP2 DUP2 MSTORE PUSH1 0x9 PUSH1 0x20 MSTORE PUSH1 0x40 SWAP1 KECCAK256 SLOAD PUSH1 0xFF AND ISZERO PUSH2 0x971 JUMPI PUSH1 0x40 MLOAD PUSH3 0x461BCD PUSH1 0xE5 SHL DUP2 MSTORE PUSH1 0x20 PUSH1 0x4 DUP3 ADD MSTORE PUSH1 0x2C PUSH1 0x24 DUP3 ADD MSTORE PUSH32 0x4578636C75646564206164647265737365732063616E6E6F742063616C6C2074 PUSH1 0x44 DUP3 ADD MSTORE PUSH12 0x3434B990333AB731BA34B7B7 PUSH1 0xA1 SHL PUSH1 0x64 DUP3 ADD MSTORE PUSH1 0x84 ADD JUMPDEST PUSH1 0x40 MLOAD DUP1 SWAP2 SUB SWAP1 REVERT JUMPDEST PUSH0 PUSH2 0x97B DUP4 PUSH2 0x1E0A JUMP JUMPDEST POP POP POP PUSH1 0x1 PUSH1 0x1 PUSH1 0xA0 SHL SUB DUP4 AND PUSH0 SWAP1 DUP2 MSTORE PUSH1 0x6 PUSH1 0x20 MSTORE PUSH1 0x40 SWAP1 KECCAK256 SLOAD SWAP1 SWAP2 POP PUSH2 0x9A4 SWAP1 DUP3 SWAP1 PUSH2 0x326E JUMP JUMPDEST PUSH1 0x1 PUSH1 0x1 PUSH1 0xA0 SHL SUB DUP4 AND PUSH0 SWAP1 DUP2 MSTORE PUSH1 0x6 PUSH1 0x20 MSTORE PUSH1 0x40 SWAP1 KECCAK256 SSTORE PUSH1 0xE SLOAD PUSH2 0x9CA SWAP1 DUP3 SWAP1 PUSH2 0x326E JUMP JUMPDEST PUSH1 0xE SSTORE PUSH1 0xF SLOAD PUSH2 0x9DB SWAP1 DUP5 SWAP1 PUSH2 0x3281 JUMP JUMPDEST PUSH1 0xF SSTORE POP POP POP JUMP JUMPDEST PUSH1 0x60 PUSH1 0x3 DUP1 SLOAD PUSH2 0x9F2 SWAP1 PUSH2 0x3294 JUMP JUMPDEST DUP1 PUSH1 0x1F ADD PUSH1 0x20 DUP1 SWAP2 DIV MUL PUSH1 0x20 ADD PUSH1 0x40 MLOAD SWAP1 DUP2 ADD PUSH1 0x40 MSTORE DUP1 SWAP3 SWAP2 SWAP1 DUP2 DUP2 MSTORE PUSH1 0x20 ADD DUP3 DUP1 SLOAD PUSH2 0xA1E SWAP1 PUSH2 0x3294 JUMP JUMPDEST DUP1 ISZERO PUSH2 0xA69 JUMPI DUP1 PUSH1 0x1F LT PUSH2 0xA40 JUMPI PUSH2 0x100 DUP1 DUP4 SLOAD DIV MUL DUP4 MSTORE SWAP2 PUSH1 0x20 ADD SWAP2 PUSH2 0xA69 JUMP JUMPDEST DUP3 ADD SWAP2 SWAP1 PUSH0 MSTORE PUSH1 0x20 PUSH0 KECCAK256 SWAP1 JUMPDEST DUP2 SLOAD DUP2 MSTORE SWAP1 PUSH1 0x1 ADD SWAP1 PUSH1 0x20 ADD DUP1 DUP4 GT PUSH2 0xA4C JUMPI DUP3 SWAP1 SUB PUSH1 0x1F AND DUP3 ADD SWAP2 JUMPDEST POP POP POP POP POP SWAP1 POP SWAP1 JUMP JUMPDEST PUSH0 PUSH2 0xA7F CALLER DUP5 DUP5 PUSH2 0x1E5B JUMP JUMPDEST POP PUSH1 0x1 JUMPDEST SWAP3 SWAP2 POP POP JUMP JUMPDEST PUSH0 PUSH2 0xA95 DUP5 DUP5 DUP5 PUSH2 0x1F7E JUMP JUMPDEST PUSH1 0x1 PUSH1 0x1 PUSH1 0xA0 SHL SUB DUP5 AND PUSH0 SWAP1 DUP2 MSTORE PUSH1 0x1 PUSH1 0x20 SWAP1 DUP2 MSTORE PUSH1 0x40 DUP1 DUP4 KECCAK256 CALLER DUP5 MSTORE SWAP1 SWAP2 MSTORE SWAP1 KECCAK256 SLOAD DUP3 DUP2 LT ISZERO PUSH2 0xB19 JUMPI PUSH1 0x40 MLOAD PUSH3 0x461BCD PUSH1 0xE5 SHL DUP2 MSTORE PUSH1 0x20 PUSH1 0x4 DUP3 ADD MSTORE PUSH1 0x28 PUSH1 0x24 DUP3 ADD MSTORE PUSH32 0x45524332303A207472616E7366657220616D6F756E7420657863656564732061 PUSH1 0x44 DUP3 ADD MSTORE PUSH8 0x6C6C6F77616E6365 PUSH1 0xC0 SHL PUSH1 0x64 DUP3 ADD MSTORE PUSH1 0x84 ADD PUSH2 0x968 JUMP JUMPDEST PUSH2 0xB26 DUP6 CALLER DUP6 DUP5 SUB PUSH2 0x1E5B JUMP JUMPDEST POP PUSH1 0x1 SWAP5 SWAP4 POP POP POP POP JUMP JUMPDEST CALLER PUSH0 DUP2 DUP2 MSTORE PUSH1 0x1 PUSH1 0x20 SWAP1 DUP2 MSTORE PUSH1 0x40 DUP1 DUP4 KECCAK256 PUSH1 0x1 PUSH1 0x1 PUSH1 0xA0 SHL SUB DUP8 AND DUP5 MSTORE SWAP1 SWAP2 MSTORE DUP2 KECCAK256 SLOAD SWAP1 SWAP2 PUSH2 0xA7F SWAP2 DUP6 SWAP1 PUSH2 0xB67 SWAP1 DUP7 SWAP1 PUSH2 0x3281 JUMP JUMPDEST PUSH2 0x1E5B JUMP JUMPDEST PUSH2 0xB76 CALLER DUP3 PUSH2 0x2285 JUMP JUMPDEST POP JUMP JUMPDEST PUSH1 0x5 SLOAD PUSH1 0x1 PUSH1 0x1 PUSH1 0xA0 SHL SUB AND CALLER EQ PUSH2 0xBA3 JUMPI PUSH1 0x40 MLOAD PUSH3 0x461BCD PUSH1 0xE5 SHL DUP2 MSTORE PUSH1 0x4 ADD PUSH2 0x968 SWAP1 PUSH2 0x32CC JUMP JUMPDEST PUSH1 0x1 PUSH1 0x1 PUSH1 0xA0 SHL SUB AND PUSH0 SWAP1 DUP2 MSTORE PUSH1 0x8 PUSH1 0x20 MSTORE PUSH1 0x40 SWAP1 KECCAK256 DUP1 SLOAD PUSH1 0xFF NOT AND PUSH1 0x1 OR SWAP1 SSTORE JUMP JUMPDEST PUSH0 PUSH1 0xD SLOAD DUP4 GT ISZERO PUSH2 0xC19 JUMPI PUSH1 0x40 MLOAD PUSH3 0x461BCD PUSH1 0xE5 SHL DUP2 MSTORE PUSH1 0x20 PUSH1 0x4 DUP3 ADD MSTORE PUSH1 0x1F PUSH1 0x24 DUP3 ADD MSTORE PUSH32 0x416D6F756E74206D757374206265206C657373207468616E20737570706C7900 PUSH1 0x44 DUP3 ADD MSTORE PUSH1 0x64 ADD PUSH2 0x968 JUMP JUMPDEST DUP2 PUSH2 0xC35 JUMPI PUSH0 PUSH2 0xC28 DUP5 PUSH2 0x1E0A JUMP JUMPDEST POP SWAP2 SWAP4 POP PUSH2 0xA83 SWAP3 POP POP POP JUMP JUMPDEST PUSH0 PUSH2 0xC3F DUP5 PUSH2 0x1E0A JUMP JUMPDEST POP SWAP1 SWAP4 POP PUSH2 0xA83 SWAP3 POP POP POP JUMP JUMPDEST PUSH1 0x5 SLOAD PUSH1 0x1 PUSH1 0x1 PUSH1 0xA0 SHL SUB AND CALLER EQ PUSH2 0xC76 JUMPI PUSH1 0x40 MLOAD PUSH3 0x461BCD PUSH1 0xE5 SHL DUP2 MSTORE PUSH1 0x4 ADD PUSH2 0x968 SWAP1 PUSH2 0x32CC JUMP JUMPDEST PUSH1 0x5 PUSH1 0x18 SLOAD PUSH1 0x16 SLOAD PUSH1 0x14 SLOAD PUSH1 0x12 SLOAD DUP6 PUSH2 0xC8F SWAP2 SWAP1 PUSH2 0x3281 JUMP JUMPDEST PUSH2 0xC99 SWAP2 SWAP1 PUSH2 0x3281 JUMP JUMPDEST PUSH2 0xCA3 SWAP2 SWAP1 PUSH2 0x3281 JUMP JUMPDEST PUSH2 0xCAD SWAP2 SWAP1 PUSH2 0x3281 JUMP JUMPDEST GT ISZERO PUSH2 0xCCB JUMPI PUSH1 0x40 MLOAD PUSH3 0x461BCD PUSH1 0xE5 SHL DUP2 MSTORE PUSH1 0x4 ADD PUSH2 0x968 SWAP1 PUSH2 0x3301 JUMP JUMPDEST PUSH1 0x10 DUP1 SLOAD SWAP1 DUP3 SWAP1 SSTORE PUSH1 0x40 DUP1 MLOAD DUP3 DUP2 MSTORE PUSH1 0x20 DUP2 ADD DUP5 SWAP1 MSTORE PUSH32 0x78F1461296BAD7BD716A7673AA3E659CC091C348A7ED4CFEF7CE452C3052F2FB SWAP2 ADD JUMPDEST PUSH1 0x40 MLOAD DUP1 SWAP2 SUB SWAP1 LOG1 POP POP JUMP JUMPDEST PUSH1 0x5 SLOAD PUSH1 0x1 PUSH1 0x1 PUSH1 0xA0 SHL SUB AND CALLER EQ PUSH2 0xD3B JUMPI PUSH1 0x40 MLOAD PUSH3 0x461BCD PUSH1 0xE5 SHL DUP2 MSTORE PUSH1 0x4 ADD PUSH2 0x968 SWAP1 PUSH2 0x32CC JUMP JUMPDEST PUSH1 0x1 PUSH1 0x1 PUSH1 0xA0 SHL SUB DUP2 AND PUSH0 SWAP1 DUP2 MSTORE PUSH1 0x9 PUSH1 0x20 MSTORE PUSH1 0x40 SWAP1 KECCAK256 SLOAD PUSH1 0xFF AND ISZERO PUSH2 0xDA3 JUMPI PUSH1 0x40 MLOAD PUSH3 0x461BCD PUSH1 0xE5 SHL DUP2 MSTORE PUSH1 0x20 PUSH1 0x4 DUP3 ADD MSTORE PUSH1 0x1B PUSH1 0x24 DUP3 ADD MSTORE PUSH32 0x4163636F756E7420697320616C7265616479206578636C756465640000000000 PUSH1 0x44 DUP3 ADD MSTORE PUSH1 0x64 ADD PUSH2 0x968 JUMP JUMPDEST ADDRESS PUSH1 0x1 PUSH1 0x1 PUSH1 0xA0 SHL SUB DUP3 AND SUB PUSH2 0xE17 JUMPI PUSH1 0x40 MLOAD PUSH3 0x461BCD PUSH1 0xE5 SHL DUP2 MSTORE PUSH1 0x20 PUSH1 0x4 DUP3 ADD MSTORE PUSH1 0x33 PUSH1 0x24 DUP3 ADD MSTORE PUSH32 0x436F6E747261637420616464726573732063616E6E6F74206265206578636C75 PUSH1 0x44 DUP3 ADD MSTORE PUSH19 0x3232B210333937B6903932B33632B1BA34B7B7 PUSH1 0x69 SHL PUSH1 0x64 DUP3 ADD MSTORE PUSH1 0x84 ADD PUSH2 0x968 JUMP JUMPDEST PUSH1 0x1 PUSH1 0x1 PUSH1 0xA0 SHL SUB DUP2 AND PUSH0 SWAP1 DUP2 MSTORE PUSH1 0x6 PUSH1 0x20 MSTORE PUSH1 0x40 SWAP1 KECCAK256 SLOAD ISZERO PUSH2 0xE6E JUMPI PUSH1 0x1 PUSH1 0x1 PUSH1 0xA0 SHL SUB DUP2 AND PUSH0 SWAP1 DUP2 MSTORE PUSH1 0x6 PUSH1 0x20 MSTORE PUSH1 0x40 SWAP1 KECCAK256 SLOAD PUSH2 0xE55 SWAP1 PUSH2 0x2453 JUMP JUMPDEST PUSH1 0x1 PUSH1 0x1 PUSH1 0xA0 SHL SUB DUP3 AND PUSH0 SWAP1 DUP2 MSTORE PUSH1 0x7 PUSH1 0x20 MSTORE PUSH1 0x40 SWAP1 KECCAK256 SSTORE JUMPDEST PUSH1 0x1 PUSH1 0x1 PUSH1 0xA0 SHL SUB AND PUSH0 DUP2 DUP2 MSTORE PUSH1 0x9 PUSH1 0x20 MSTORE PUSH1 0x40 DUP2 KECCAK256 DUP1 SLOAD PUSH1 0xFF NOT AND PUSH1 0x1 SWAP1 DUP2 OR SWAP1 SWAP2 SSTORE PUSH1 0xA DUP1 SLOAD SWAP2 DUP3 ADD DUP2 SSTORE SWAP1 SWAP2 MSTORE PUSH32 0xC65A7BB8D6351C1CF70C95A316CC6A92839C986682D98BC35F958F4883F9D2A8 ADD DUP1 SLOAD PUSH1 0x1 PUSH1 0x1 PUSH1 0xA0 SHL SUB NOT AND SWAP1 SWAP2 OR SWAP1 SSTORE JUMP JUMPDEST PUSH1 0x5 SLOAD PUSH1 0x1 PUSH1 0x1 PUSH1 0xA0 SHL SUB AND CALLER EQ PUSH2 0xEFD JUMPI PUSH1 0x40 MLOAD PUSH3 0x461BCD PUSH1 0xE5 SHL DUP2 MSTORE PUSH1 0x4 ADD PUSH2 0x968 SWAP1 PUSH2 0x32CC JUMP JUMPDEST PUSH1 0x5 PUSH1 0x18 SLOAD DUP3 PUSH1 0x14 SLOAD PUSH1 0x12 SLOAD PUSH1 0x10 SLOAD PUSH2 0xF16 SWAP2 SWAP1 PUSH2 0x3281 JUMP JUMPDEST PUSH2 0xF20 SWAP2 SWAP1 PUSH2 0x3281 JUMP JUMPDEST PUSH2 0xF2A SWAP2 SWAP1 PUSH2 0x3281 JUMP JUMPDEST PUSH2 0xF34 SWAP2 SWAP1 PUSH2 0x3281 JUMP JUMPDEST GT ISZERO PUSH2 0xF52 JUMPI PUSH1 0x40 MLOAD PUSH3 0x461BCD PUSH1 0xE5 SHL DUP2 MSTORE PUSH1 0x4 ADD PUSH2 0x968 SWAP1 PUSH2 0x3301 JUMP JUMPDEST PUSH1 0x16 DUP1 SLOAD SWAP1 DUP3 SWAP1 SSTORE PUSH1 0x18 SLOAD PUSH1 0x14 SLOAD PUSH2 0xF6B SWAP1 DUP5 SWAP1 PUSH2 0x3281 JUMP JUMPDEST PUSH2 0xF75 SWAP2 SWAP1 PUSH2 0x3281 JUMP JUMPDEST PUSH1 0x1A SSTORE PUSH1 0x40 DUP1 MLOAD DUP3 DUP2 MSTORE PUSH1 0x20 DUP2 ADD DUP5 SWAP1 MSTORE PUSH32 0x43102402B1EF1EA68F92A353DE80186B92415038542AF2E8D748F8D6C525032 SWAP2 ADD PUSH2 0xD05 JUMP JUMPDEST PUSH1 0x5 SLOAD PUSH1 0x1 PUSH1 0x1 PUSH1 0xA0 SHL SUB AND CALLER EQ PUSH2 0xFD8 JUMPI PUSH1 0x40 MLOAD PUSH3 0x461BCD PUSH1 0xE5 SHL DUP2 MSTORE PUSH1 0x4 ADD PUSH2 0x968 SWAP1 PUSH2 0x32CC JUMP JUMPDEST PUSH1 0x5 DUP2 PUSH1 0x16 SLOAD PUSH1 0x14 SLOAD PUSH1 0x12 SLOAD PUSH1 0x10 SLOAD PUSH2 0xFF1 SWAP2 SWAP1 PUSH2 0x3281 JUMP JUMPDEST PUSH2 0xFFB SWAP2 SWAP1 PUSH2 0x3281 JUMP JUMPDEST PUSH2 0x1005 SWAP2 SWAP1 PUSH2 0x3281 JUMP JUMPDEST PUSH2 0x100F SWAP2 SWAP1 PUSH2 0x3281 JUMP JUMPDEST GT ISZERO PUSH2 0x105D JUMPI PUSH1 0x40 MLOAD PUSH3 0x461BCD PUSH1 0xE5 SHL DUP2 MSTORE PUSH1 0x20 PUSH1 0x4 DUP3 ADD MSTORE PUSH1 0x1F PUSH1 0x24 DUP3 ADD MSTORE PUSH32 0x546F74616C20666565732065786365656420746865203625206C696D69742E00 PUSH1 0x44 DUP3 ADD MSTORE PUSH1 0x64 ADD PUSH2 0x968 JUMP JUMPDEST PUSH1 0x18 DUP1 SLOAD SWAP1 DUP3 SWAP1 SSTORE PUSH1 0x16 SLOAD PUSH1 0x14 SLOAD DUP4 SWAP2 PUSH2 0x1076 SWAP2 PUSH2 0x3281 JUMP JUMPDEST PUSH2 0x1080 SWAP2 SWAP1 PUSH2 0x3281 JUMP JUMPDEST PUSH1 0x1A SSTORE PUSH1 0x40 DUP1 MLOAD DUP3 DUP2 MSTORE PUSH1 0x20 DUP2 ADD DUP5 SWAP1 MSTORE PUSH32 0xC9D63693638BFC625DE9BE66171E4BF76AD4D474AC6BEF7CD4C766747CD0075F SWAP2 ADD PUSH2 0xD05 JUMP JUMPDEST PUSH1 0x1 PUSH1 0x1 PUSH1 0xA0 SHL SUB DUP2 AND PUSH0 SWAP1 DUP2 MSTORE PUSH1 0x9 PUSH1 0x20 MSTORE PUSH1 0x40 DUP2 KECCAK256 SLOAD PUSH1 0xFF AND ISZERO PUSH2 0x10F4 JUMPI POP PUSH1 0x1 PUSH1 0x1 PUSH1 0xA0 SHL SUB AND PUSH0 SWAP1 DUP2 MSTORE PUSH1 0x7 PUSH1 0x20 MSTORE PUSH1 0x40 SWAP1 KECCAK256 SLOAD SWAP1 JUMP JUMPDEST PUSH1 0x1 PUSH1 0x1 PUSH1 0xA0 SHL SUB DUP3 AND PUSH0 SWAP1 DUP2 MSTORE PUSH1 0x6 PUSH1 0x20 MSTORE PUSH1 0x40 SWAP1 KECCAK256 SLOAD PUSH2 0xA83 SWAP1 PUSH2 0x2453 JUMP JUMPDEST PUSH1 0x5 SLOAD PUSH1 0x1 PUSH1 0x1 PUSH1 0xA0 SHL SUB AND CALLER EQ PUSH2 0x113F JUMPI PUSH1 0x40 MLOAD PUSH3 0x461BCD PUSH1 0xE5 SHL DUP2 MSTORE PUSH1 0x4 ADD PUSH2 0x968 SWAP1 PUSH2 0x32CC JUMP JUMPDEST PUSH2 0x1148 PUSH0 PUSH2 0x24D5 JUMP JUMPDEST JUMP JUMPDEST PUSH0 PUSH2 0x1155 DUP4 CALLER PUSH2 0x7F5 JUMP JUMPDEST SWAP1 POP DUP2 DUP2 LT ISZERO PUSH2 0x11B3 JUMPI PUSH1 0x40 MLOAD PUSH3 0x461BCD PUSH1 0xE5 SHL DUP2 MSTORE PUSH1 0x20 PUSH1 0x4 DUP3 ADD MSTORE PUSH1 0x24 DUP1 DUP3 ADD MSTORE PUSH32 0x45524332303A206275726E20616D6F756E74206578636565647320616C6C6F77 PUSH1 0x44 DUP3 ADD MSTORE PUSH4 0x616E6365 PUSH1 0xE0 SHL PUSH1 0x64 DUP3 ADD MSTORE PUSH1 0x84 ADD PUSH2 0x968 JUMP JUMPDEST PUSH2 0x11C0 DUP4 CALLER DUP5 DUP5 SUB PUSH2 0x1E5B JUMP JUMPDEST PUSH2 0x11CA DUP4 DUP4 PUSH2 0x2285 JUMP JUMPDEST POP POP POP JUMP JUMPDEST PUSH1 0x5 SLOAD PUSH1 0x1 PUSH1 0x1 PUSH1 0xA0 SHL SUB AND CALLER EQ PUSH2 0x11F9 JUMPI PUSH1 0x40 MLOAD PUSH3 0x461BCD PUSH1 0xE5 SHL DUP2 MSTORE PUSH1 0x4 ADD PUSH2 0x968 SWAP1 PUSH2 0x32CC JUMP JUMPDEST PUSH1 0x1 PUSH1 0x1 PUSH1 0xA0 SHL SUB DUP2 AND PUSH2 0x1264 JUMPI PUSH1 0x40 MLOAD PUSH3 0x461BCD PUSH1 0xE5 SHL DUP2 MSTORE PUSH1 0x20 PUSH1 0x4 DUP3 ADD MSTORE PUSH1 0x2C PUSH1 0x24 DUP3 ADD MSTORE PUSH32 0x4D61726B6574696E6720616464726573732063616E6E6F742062652074686520 PUSH1 0x44 DUP3 ADD MSTORE PUSH12 0x7A65726F2061646472657373 PUSH1 0xA0 SHL PUSH1 0x64 DUP3 ADD MSTORE PUSH1 0x84 ADD PUSH2 0x968 JUMP JUMPDEST PUSH1 0xB DUP1 SLOAD PUSH1 0x1 PUSH1 0x1 PUSH1 0xA0 SHL SUB DUP4 DUP2 AND PUSH1 0x1 PUSH1 0x1 PUSH1 0xA0 SHL SUB NOT DUP4 AND DUP2 OR SWAP1 SWAP4 SSTORE PUSH1 0x40 DUP1 MLOAD SWAP2 SWAP1 SWAP3 AND DUP1 DUP3 MSTORE PUSH1 0x20 DUP3 ADD SWAP4 SWAP1 SWAP4 MSTORE PUSH32 0xA8EFC72ED34F90017DF79620D1972D42B8E3B17EB0077FC5FC46CBF1A19ED9A9 SWAP2 ADD PUSH2 0xD05 JUMP JUMPDEST PUSH1 0x60 PUSH1 0x4 DUP1 SLOAD PUSH2 0x9F2 SWAP1 PUSH2 0x3294 JUMP JUMPDEST CALLER PUSH0 SWAP1 DUP2 MSTORE PUSH1 0x1 PUSH1 0x20 SWAP1 DUP2 MSTORE PUSH1 0x40 DUP1 DUP4 KECCAK256 PUSH1 0x1 PUSH1 0x1 PUSH1 0xA0 SHL SUB DUP7 AND DUP5 MSTORE SWAP1 SWAP2 MSTORE DUP2 KECCAK256 SLOAD DUP3 DUP2 LT ISZERO PUSH2 0x134E JUMPI PUSH1 0x40 MLOAD PUSH3 0x461BCD PUSH1 0xE5 SHL DUP2 MSTORE PUSH1 0x20 PUSH1 0x4 DUP3 ADD MSTORE PUSH1 0x25 PUSH1 0x24 DUP3 ADD MSTORE PUSH32 0x45524332303A2064656372656173656420616C6C6F77616E63652062656C6F77 PUSH1 0x44 DUP3 ADD MSTORE PUSH5 0x207A65726F PUSH1 0xD8 SHL PUSH1 0x64 DUP3 ADD MSTORE PUSH1 0x84 ADD PUSH2 0x968 JUMP JUMPDEST PUSH2 0x135B CALLER DUP6 DUP6 DUP5 SUB PUSH2 0x1E5B JUMP JUMPDEST POP PUSH1 0x1 SWAP4 SWAP3 POP POP POP JUMP JUMPDEST PUSH0 PUSH2 0xA7F CALLER DUP5 DUP5 PUSH2 0x1F7E JUMP JUMPDEST PUSH1 0x5 SLOAD PUSH1 0x1 PUSH1 0x1 PUSH1 0xA0 SHL SUB AND CALLER EQ PUSH2 0x139B JUMPI PUSH1 0x40 MLOAD PUSH3 0x461BCD PUSH1 0xE5 SHL DUP2 MSTORE PUSH1 0x4 ADD PUSH2 0x968 SWAP1 PUSH2 0x32CC JUMP JUMPDEST PUSH1 0x5 PUSH1 0x18 SLOAD PUSH1 0x16 SLOAD DUP4 PUSH1 0x12 SLOAD PUSH1 0x10 SLOAD PUSH2 0x13B4 SWAP2 SWAP1 PUSH2 0x3281 JUMP JUMPDEST PUSH2 0x13BE SWAP2 SWAP1 PUSH2 0x3281 JUMP JUMPDEST PUSH2 0x13C8 SWAP2 SWAP1 PUSH2 0x3281 JUMP JUMPDEST PUSH2 0x13D2 SWAP2 SWAP1 PUSH2 0x3281 JUMP JUMPDEST GT ISZERO PUSH2 0x13F0 JUMPI PUSH1 0x40 MLOAD PUSH3 0x461BCD PUSH1 0xE5 SHL DUP2 MSTORE PUSH1 0x4 ADD PUSH2 0x968 SWAP1 PUSH2 0x3301 JUMP JUMPDEST PUSH1 0x14 DUP1 SLOAD SWAP1 DUP3 SWAP1 SSTORE PUSH1 0x18 SLOAD PUSH1 0x16 SLOAD PUSH2 0x1408 SWAP1 DUP5 PUSH2 0x3281 JUMP JUMPDEST PUSH2 0x1412 SWAP2 SWAP1 PUSH2 0x3281 JUMP JUMPDEST PUSH1 0x1A SSTORE PUSH1 0x40 DUP1 MLOAD DUP3 DUP2 MSTORE PUSH1 0x20 DUP2 ADD DUP5 SWAP1 MSTORE PUSH32 0xD72BB987241D30EFE97862FAE5C01605397A36024557BBAE8EBEDEC081678BC2 SWAP2 ADD PUSH2 0xD05 JUMP JUMPDEST PUSH1 0x5 SLOAD PUSH1 0x1 PUSH1 0x1 PUSH1 0xA0 SHL SUB AND CALLER EQ PUSH2 0x1475 JUMPI PUSH1 0x40 MLOAD PUSH3 0x461BCD PUSH1 0xE5 SHL DUP2 MSTORE PUSH1 0x4 ADD PUSH2 0x968 SWAP1 PUSH2 0x32CC JUMP JUMPDEST PUSH1 0x1F DUP1 SLOAD DUP3 ISZERO ISZERO PUSH2 0x100 MUL PUSH2 0xFF00 NOT SWAP1 SWAP2 AND OR SWAP1 SSTORE PUSH1 0x40 MLOAD PUSH32 0x53726DFCAF90650AA7EB35524F4D3220F07413C8D6CB404CC8C18BF5591BC159 SWAP1 PUSH2 0x14BE SWAP1 DUP4 ISZERO ISZERO DUP2 MSTORE PUSH1 0x20 ADD SWAP1 JUMP JUMPDEST PUSH1 0x40 MLOAD DUP1 SWAP2 SUB SWAP1 LOG1 POP JUMP JUMPDEST PUSH1 0x5 SLOAD PUSH1 0x1 PUSH1 0x1 PUSH1 0xA0 SHL SUB AND CALLER EQ PUSH2 0x14F3 JUMPI PUSH1 0x40 MLOAD PUSH3 0x461BCD PUSH1 0xE5 SHL DUP2 MSTORE PUSH1 0x4 ADD PUSH2 0x968 SWAP1 PUSH2 0x32CC JUMP JUMPDEST PUSH1 0xC SLOAD PUSH1 0x40 MLOAD SELFBALANCE SWAP2 PUSH0 SWAP2 PUSH1 0x1 PUSH1 0x1 PUSH1 0xA0 SHL SUB SWAP1 SWAP2 AND SWAP1 DUP4 SWAP1 DUP4 DUP2 DUP2 DUP2 DUP6 DUP8 GAS CALL SWAP3 POP POP POP RETURNDATASIZE DUP1 PUSH0 DUP2 EQ PUSH2 0x1541 JUMPI PUSH1 0x40 MLOAD SWAP2 POP PUSH1 0x1F NOT PUSH1 0x3F RETURNDATASIZE ADD AND DUP3 ADD PUSH1 0x40 MSTORE RETURNDATASIZE DUP3 MSTORE RETURNDATASIZE PUSH0 PUSH1 0x20 DUP5 ADD RETURNDATACOPY PUSH2 0x1546 JUMP JUMPDEST PUSH1 0x60 SWAP2 POP JUMPDEST POP POP SWAP1 POP DUP1 PUSH2 0x1589 JUMPI PUSH1 0x40 MLOAD PUSH3 0x461BCD PUSH1 0xE5 SHL DUP2 MSTORE PUSH1 0x20 PUSH1 0x4 DUP3 ADD MSTORE PUSH1 0xF PUSH1 0x24 DUP3 ADD MSTORE PUSH15 0x151C985B9CD9995C8819985A5B1959 PUSH1 0x8A SHL PUSH1 0x44 DUP3 ADD MSTORE PUSH1 0x64 ADD PUSH2 0x968 JUMP JUMPDEST PUSH1 0xC SLOAD PUSH1 0x40 DUP1 MLOAD DUP2 DUP2 MSTORE PUSH1 0x2E SWAP2 DUP2 ADD SWAP2 SWAP1 SWAP2 MSTORE PUSH32 0x57652068617665207265636F7665726564207468652073746F636B2045544820 PUSH1 0x60 DUP3 ADD MSTORE PUSH14 0x333937B69031B7B73A3930B1BA17 PUSH1 0x91 SHL PUSH1 0x80 DUP3 ADD MSTORE PUSH1 0x1 PUSH1 0x1 PUSH1 0xA0 SHL SUB SWAP1 SWAP2 AND PUSH1 0x20 DUP3 ADD MSTORE PUSH32 0x25DBD6AD989FE1A64DB7DC049E29723FF9D35A97D84AE9AAB96196F00EC1A00 SWAP1 PUSH1 0xA0 ADD PUSH2 0xD05 JUMP JUMPDEST PUSH1 0x5 SLOAD PUSH1 0x1 PUSH1 0x1 PUSH1 0xA0 SHL SUB AND CALLER EQ PUSH2 0x163D JUMPI PUSH1 0x40 MLOAD PUSH3 0x461BCD PUSH1 0xE5 SHL DUP2 MSTORE PUSH1 0x4 ADD PUSH2 0x968 SWAP1 PUSH2 0x32CC JUMP JUMPDEST PUSH1 0x1 PUSH1 0x1 PUSH1 0xA0 SHL SUB DUP2 AND PUSH2 0x16A8 JUMPI PUSH1 0x40 MLOAD PUSH3 0x461BCD PUSH1 0xE5 SHL DUP2 MSTORE PUSH1 0x20 PUSH1 0x4 DUP3 ADD MSTORE PUSH1 0x2C PUSH1 0x24 DUP3 ADD MSTORE PUSH32 0x446576656C6F70657220616464726573732063616E6E6F742062652074686520 PUSH1 0x44 DUP3 ADD MSTORE PUSH12 0x7A65726F2061646472657373 PUSH1 0xA0 SHL PUSH1 0x64 DUP3 ADD MSTORE PUSH1 0x84 ADD PUSH2 0x968 JUMP JUMPDEST PUSH1 0xC DUP1 SLOAD PUSH1 0x1 PUSH1 0x1 PUSH1 0xA0 SHL SUB DUP4 DUP2 AND PUSH1 0x1 PUSH1 0x1 PUSH1 0xA0 SHL SUB NOT DUP4 AND DUP2 OR SWAP1 SWAP4 SSTORE PUSH1 0x40 DUP1 MLOAD SWAP2 SWAP1 SWAP3 AND DUP1 DUP3 MSTORE PUSH1 0x20 DUP3 ADD SWAP4 SWAP1 SWAP4 MSTORE PUSH32 0x9A8FCE0F201607A626CC555EF244D8ED346D879D2141B2964C3A955650554AE0 SWAP2 ADD PUSH2 0xD05 JUMP JUMPDEST PUSH1 0x5 SLOAD PUSH1 0x1 PUSH1 0x1 PUSH1 0xA0 SHL SUB AND CALLER EQ PUSH2 0x172C JUMPI PUSH1 0x40 MLOAD PUSH3 0x461BCD PUSH1 0xE5 SHL DUP2 MSTORE PUSH1 0x4 ADD PUSH2 0x968 SWAP1 PUSH2 0x32CC JUMP JUMPDEST PUSH1 0x5 PUSH1 0x18 SLOAD PUSH1 0x16 SLOAD PUSH1 0x14 SLOAD DUP5 PUSH1 0x10 SLOAD PUSH2 0x1745 SWAP2 SWAP1 PUSH2 0x3281 JUMP JUMPDEST PUSH2 0x174F SWAP2 SWAP1 PUSH2 0x3281 JUMP JUMPDEST PUSH2 0x1759 SWAP2 SWAP1 PUSH2 0x3281 JUMP JUMPDEST PUSH2 0x1763 SWAP2 SWAP1 PUSH2 0x3281 JUMP JUMPDEST GT ISZERO PUSH2 0x1781 JUMPI PUSH1 0x40 MLOAD PUSH3 0x461BCD PUSH1 0xE5 SHL DUP2 MSTORE PUSH1 0x4 ADD PUSH2 0x968 SWAP1 PUSH2 0x3301 JUMP JUMPDEST PUSH1 0x12 DUP1 SLOAD SWAP1 DUP3 SWAP1 SSTORE PUSH1 0x40 DUP1 MLOAD DUP3 DUP2 MSTORE PUSH1 0x20 DUP2 ADD DUP5 SWAP1 MSTORE PUSH32 0x2C52CA41E4D19E67555BE53873512BB32CA77E9E6D56B69361D6AC621A8834D1 SWAP2 ADD PUSH2 0xD05 JUMP JUMPDEST PUSH1 0x5 SLOAD PUSH1 0x1 PUSH1 0x1 PUSH1 0xA0 SHL SUB AND CALLER EQ PUSH2 0x17E9 JUMPI PUSH1 0x40 MLOAD PUSH3 0x461BCD PUSH1 0xE5 SHL DUP2 MSTORE PUSH1 0x4 ADD PUSH2 0x968 SWAP1 PUSH2 0x32CC JUMP JUMPDEST ADDRESS PUSH1 0x1 PUSH1 0x1 PUSH1 0xA0 SHL SUB DUP4 AND SUB PUSH2 0x1860 JUMPI PUSH1 0x40 MLOAD PUSH3 0x461BCD PUSH1 0xE5 SHL DUP2 MSTORE PUSH1 0x20 PUSH1 0x4 DUP3 ADD MSTORE PUSH1 0x36 PUSH1 0x24 DUP3 ADD MSTORE PUSH32 0x4F776E65722063616E277420636C61696D20636F6E747261637427732062616C PUSH1 0x44 DUP3 ADD MSTORE PUSH22 0x616E6365206F6620697473206F776E20746F6B656E73 PUSH1 0x50 SHL PUSH1 0x64 DUP3 ADD MSTORE PUSH1 0x84 ADD PUSH2 0x968 JUMP JUMPDEST PUSH1 0xC SLOAD PUSH1 0x40 MLOAD PUSH4 0xA9059CBB PUSH1 0xE0 SHL DUP2 MSTORE PUSH1 0x1 PUSH1 0x1 PUSH1 0xA0 SHL SUB SWAP2 DUP3 AND PUSH1 0x4 DUP3 ADD MSTORE PUSH1 0x24 DUP2 ADD DUP4 SWAP1 MSTORE PUSH0 SWAP2 DUP5 AND SWAP1 PUSH4 0xA9059CBB SWAP1 PUSH1 0x44 ADD PUSH1 0x20 PUSH1 0x40 MLOAD DUP1 DUP4 SUB DUP2 PUSH0 DUP8 GAS CALL ISZERO DUP1 ISZERO PUSH2 0x18B1 JUMPI RETURNDATASIZE PUSH0 DUP1 RETURNDATACOPY RETURNDATASIZE PUSH0 REVERT JUMPDEST POP POP POP POP PUSH1 0x40 MLOAD RETURNDATASIZE PUSH1 0x1F NOT PUSH1 0x1F DUP3 ADD AND DUP3 ADD DUP1 PUSH1 0x40 MSTORE POP DUP2 ADD SWAP1 PUSH2 0x18D5 SWAP2 SWAP1 PUSH2 0x3338 JUMP JUMPDEST SWAP1 POP DUP1 PUSH2 0x1916 JUMPI PUSH1 0x40 MLOAD PUSH3 0x461BCD PUSH1 0xE5 SHL DUP2 MSTORE PUSH1 0x20 PUSH1 0x4 DUP3 ADD MSTORE PUSH1 0xF PUSH1 0x24 DUP3 ADD MSTORE PUSH15 0x151C985B9CD9995C8819985A5B1959 PUSH1 0x8A SHL PUSH1 0x44 DUP3 ADD MSTORE PUSH1 0x64 ADD PUSH2 0x968 JUMP JUMPDEST PUSH1 0x40 DUP1 MLOAD DUP2 DUP2 MSTORE PUSH1 0x27 DUP2 DUP4 ADD MSTORE PUSH32 0x57652068617665207265636F766572656420746F6B656E732066726F6D20636F PUSH1 0x60 DUP3 ADD MSTORE PUSH7 0x373A3930B1BA1D PUSH1 0xC9 SHL PUSH1 0x80 DUP3 ADD MSTORE PUSH1 0x20 DUP2 ADD DUP5 SWAP1 MSTORE SWAP1 MLOAD PUSH32 0xDD970DD9B5BFE707922155B058A407655CB18288B807E2216442BCA8AD83D6B5 SWAP2 DUP2 SWAP1 SUB PUSH1 0xA0 ADD SWAP1 LOG1 POP POP POP JUMP JUMPDEST PUSH1 0x5 SLOAD PUSH1 0x1 PUSH1 0x1 PUSH1 0xA0 SHL SUB AND CALLER EQ PUSH2 0x19BB JUMPI PUSH1 0x40 MLOAD PUSH3 0x461BCD PUSH1 0xE5 SHL DUP2 MSTORE PUSH1 0x4 ADD PUSH2 0x968 SWAP1 PUSH2 0x32CC JUMP JUMPDEST PUSH1 0x1 PUSH1 0x1 PUSH1 0xA0 SHL SUB AND PUSH0 SWAP1 DUP2 MSTORE PUSH1 0x8 PUSH1 0x20 MSTORE PUSH1 0x40 SWAP1 KECCAK256 DUP1 SLOAD PUSH1 0xFF NOT AND SWAP1 SSTORE JUMP JUMPDEST PUSH1 0x5 SLOAD PUSH1 0x1 PUSH1 0x1 PUSH1 0xA0 SHL SUB AND CALLER EQ PUSH2 0x1A05 JUMPI PUSH1 0x40 MLOAD PUSH3 0x461BCD PUSH1 0xE5 SHL DUP2 MSTORE PUSH1 0x4 ADD PUSH2 0x968 SWAP1 PUSH2 0x32CC JUMP JUMPDEST PUSH2 0x3E8 PUSH1 0xD SLOAD PUSH1 0x1 PUSH2 0x1A17 SWAP2 SWAP1 PUSH2 0x3353 JUMP JUMPDEST PUSH2 0x1A21 SWAP2 SWAP1 PUSH2 0x336A JUMP JUMPDEST DUP2 LT ISZERO PUSH2 0x1A96 JUMPI PUSH1 0x40 MLOAD PUSH3 0x461BCD PUSH1 0xE5 SHL DUP2 MSTORE PUSH1 0x20 PUSH1 0x4 DUP3 ADD MSTORE PUSH1 0x38 PUSH1 0x24 DUP3 ADD MSTORE PUSH32 0x4D61785478416D6F756E742073686F756C64206265206174206C656173742030 PUSH1 0x44 DUP3 ADD MSTORE PUSH32 0x2E3125206F662074686520746F74616C20737570706C792E0000000000000000 PUSH1 0x64 DUP3 ADD MSTORE PUSH1 0x84 ADD PUSH2 0x968 JUMP JUMPDEST PUSH1 0x1C DUP1 SLOAD SWAP1 DUP3 SWAP1 SSTORE PUSH1 0x40 DUP1 MLOAD DUP3 DUP2 MSTORE PUSH1 0x20 DUP2 ADD DUP5 SWAP1 MSTORE PUSH32 0xADCF01123294F8514884E924E20EB4F3032288087368896A17C71F09668247C8 SWAP2 ADD PUSH2 0xD05 JUMP JUMPDEST PUSH1 0x5 SLOAD PUSH1 0x1 PUSH1 0x1 PUSH1 0xA0 SHL SUB AND CALLER EQ PUSH2 0x1AFE JUMPI PUSH1 0x40 MLOAD PUSH3 0x461BCD PUSH1 0xE5 SHL DUP2 MSTORE PUSH1 0x4 ADD PUSH2 0x968 SWAP1 PUSH2 0x32CC JUMP JUMPDEST DUP1 ISZERO PUSH2 0x1B61 JUMPI PUSH2 0x1B0D PUSH0 PUSH2 0x144B JUMP JUMPDEST PUSH2 0x1B50 PUSH1 0x1A DUP1 SLOAD PUSH1 0x1B SSTORE PUSH1 0x14 DUP1 SLOAD PUSH1 0x15 SSTORE PUSH1 0x10 DUP1 SLOAD PUSH1 0x11 SSTORE PUSH1 0x12 DUP1 SLOAD PUSH1 0x13 SSTORE PUSH1 0x16 DUP1 SLOAD PUSH1 0x17 SSTORE PUSH1 0x18 DUP1 SLOAD PUSH1 0x19 SSTORE PUSH0 SWAP6 DUP7 SWAP1 SSTORE SWAP4 DUP6 SWAP1 SSTORE SWAP2 DUP5 SWAP1 SSTORE DUP4 SWAP1 SSTORE DUP3 SWAP1 SSTORE SSTORE JUMP JUMPDEST PUSH1 0x1C SLOAD PUSH1 0x1D SSTORE PUSH1 0xD SLOAD PUSH1 0x1C SSTORE PUSH2 0x1B9B JUMP JUMPDEST PUSH2 0x1B6B PUSH1 0x1 PUSH2 0x144B JUMP JUMPDEST PUSH2 0x1B94 PUSH1 0x1B SLOAD PUSH1 0x1A SSTORE PUSH1 0x15 SLOAD PUSH1 0x14 SSTORE PUSH1 0x11 SLOAD PUSH1 0x10 SSTORE PUSH1 0x13 SLOAD PUSH1 0x12 SSTORE PUSH1 0x17 SLOAD PUSH1 0x16 SSTORE PUSH1 0x19 SLOAD PUSH1 0x18 SSTORE JUMP JUMPDEST PUSH1 0x1D SLOAD PUSH1 0x1C SSTORE JUMPDEST PUSH1 0x40 MLOAD DUP2 ISZERO ISZERO DUP2 MSTORE PUSH32 0x754DB841CD0BA8B9D7311DC4B5C8CD44B1FF98BCB4E1D8D9CAB86566BCE3A1FA SWAP1 PUSH1 0x20 ADD PUSH2 0x14BE JUMP JUMPDEST PUSH1 0x5 SLOAD PUSH1 0x1 PUSH1 0x1 PUSH1 0xA0 SHL SUB AND CALLER EQ PUSH2 0x1BF7 JUMPI PUSH1 0x40 MLOAD PUSH3 0x461BCD PUSH1 0xE5 SHL DUP2 MSTORE PUSH1 0x4 ADD PUSH2 0x968 SWAP1 PUSH2 0x32CC JUMP JUMPDEST PUSH1 0x1 PUSH1 0x1 PUSH1 0xA0 SHL SUB DUP2 AND PUSH2 0x1C5C JUMPI PUSH1 0x40 MLOAD PUSH3 0x461BCD PUSH1 0xE5 SHL DUP2 MSTORE PUSH1 0x20 PUSH1 0x4 DUP3 ADD MSTORE PUSH1 0x26 PUSH1 0x24 DUP3 ADD MSTORE PUSH32 0x4F776E61626C653A206E6577206F776E657220697320746865207A65726F2061 PUSH1 0x44 DUP3 ADD MSTORE PUSH6 0x646472657373 PUSH1 0xD0 SHL PUSH1 0x64 DUP3 ADD MSTORE PUSH1 0x84 ADD PUSH2 0x968 JUMP JUMPDEST PUSH2 0xB76 DUP2 PUSH2 0x24D5 JUMP JUMPDEST PUSH1 0x5 SLOAD PUSH1 0x1 PUSH1 0x1 PUSH1 0xA0 SHL SUB AND CALLER EQ PUSH2 0x1C8F JUMPI PUSH1 0x40 MLOAD PUSH3 0x461BCD PUSH1 0xE5 SHL DUP2 MSTORE PUSH1 0x4 ADD PUSH2 0x968 SWAP1 PUSH2 0x32CC JUMP JUMPDEST PUSH1 0x1 PUSH1 0x1 PUSH1 0xA0 SHL SUB DUP2 AND PUSH0 SWAP1 DUP2 MSTORE PUSH1 0x9 PUSH1 0x20 MSTORE PUSH1 0x40 SWAP1 KECCAK256 SLOAD PUSH1 0xFF AND PUSH2 0x1CF6 JUMPI PUSH1 0x40 MLOAD PUSH3 0x461BCD PUSH1 0xE5 SHL DUP2 MSTORE PUSH1 0x20 PUSH1 0x4 DUP3 ADD MSTORE PUSH1 0x1B PUSH1 0x24 DUP3 ADD MSTORE PUSH32 0x4163636F756E7420697320616C726561647920696E636C756465640000000000 PUSH1 0x44 DUP3 ADD MSTORE PUSH1 0x64 ADD PUSH2 0x968 JUMP JUMPDEST PUSH0 JUMPDEST PUSH1 0xA SLOAD DUP2 LT ISZERO PUSH2 0x1E06 JUMPI DUP2 PUSH1 0x1 PUSH1 0x1 PUSH1 0xA0 SHL SUB AND PUSH1 0xA DUP3 DUP2 SLOAD DUP2 LT PUSH2 0x1D1F JUMPI PUSH2 0x1D1F PUSH2 0x3389 JUMP JUMPDEST PUSH0 SWAP2 DUP3 MSTORE PUSH1 0x20 SWAP1 SWAP2 KECCAK256 ADD SLOAD PUSH1 0x1 PUSH1 0x1 PUSH1 0xA0 SHL SUB AND SUB PUSH2 0x1DFE JUMPI PUSH1 0xA DUP1 SLOAD PUSH2 0x1D48 SWAP1 PUSH1 0x1 SWAP1 PUSH2 0x326E JUMP JUMPDEST DUP2 SLOAD DUP2 LT PUSH2 0x1D58 JUMPI PUSH2 0x1D58 PUSH2 0x3389 JUMP JUMPDEST PUSH0 SWAP2 DUP3 MSTORE PUSH1 0x20 SWAP1 SWAP2 KECCAK256 ADD SLOAD PUSH1 0xA DUP1 SLOAD PUSH1 0x1 PUSH1 0x1 PUSH1 0xA0 SHL SUB SWAP1 SWAP3 AND SWAP2 DUP4 SWAP1 DUP2 LT PUSH2 0x1D83 JUMPI PUSH2 0x1D83 PUSH2 0x3389 JUMP JUMPDEST PUSH0 SWAP2 DUP3 MSTORE PUSH1 0x20 DUP1 DUP4 KECCAK256 SWAP2 SWAP1 SWAP2 ADD DUP1 SLOAD PUSH1 0x1 PUSH1 0x1 PUSH1 0xA0 SHL SUB NOT AND PUSH1 0x1 PUSH1 0x1 PUSH1 0xA0 SHL SUB SWAP5 DUP6 AND OR SWAP1 SSTORE SWAP2 DUP5 AND DUP2 MSTORE PUSH1 0x7 DUP3 MSTORE PUSH1 0x40 DUP1 DUP3 KECCAK256 DUP3 SWAP1 SSTORE PUSH1 0x9 SWAP1 SWAP3 MSTORE KECCAK256 DUP1 SLOAD PUSH1 0xFF NOT AND SWAP1 SSTORE PUSH1 0xA DUP1 SLOAD DUP1 PUSH2 0x1DDA JUMPI PUSH2 0x1DDA PUSH2 0x339D JUMP JUMPDEST PUSH0 DUP3 DUP2 MSTORE PUSH1 0x20 SWAP1 KECCAK256 DUP2 ADD PUSH0 NOT SWAP1 DUP2 ADD DUP1 SLOAD PUSH1 0x1 PUSH1 0x1 PUSH1 0xA0 SHL SUB NOT AND SWAP1 SSTORE ADD SWAP1 SSTORE POP POP JUMP JUMPDEST PUSH1 0x1 ADD PUSH2 0x1CF8 JUMP JUMPDEST POP POP JUMP JUMPDEST PUSH0 DUP1 PUSH0 DUP1 PUSH0 PUSH2 0x1E18 DUP7 PUSH2 0x2526 JUMP JUMPDEST SWAP1 POP PUSH0 PUSH2 0x1E25 DUP3 DUP9 PUSH2 0x326E JUMP JUMPDEST SWAP1 POP PUSH0 PUSH2 0x1E30 PUSH2 0x2566 JUMP JUMPDEST SWAP1 POP PUSH0 PUSH2 0x1E3D DUP3 DUP5 PUSH2 0x3353 JUMP JUMPDEST SWAP1 POP PUSH0 PUSH2 0x1E4A DUP4 DUP12 PUSH2 0x3353 JUMP JUMPDEST SWAP11 SWAP2 SWAP10 POP SWAP3 SWAP8 POP SWAP1 SWAP6 POP SWAP4 POP POP POP POP JUMP JUMPDEST PUSH1 0x1 PUSH1 0x1 PUSH1 0xA0 SHL SUB DUP4 AND PUSH2 0x1EBD JUMPI PUSH1 0x40 MLOAD PUSH3 0x461BCD PUSH1 0xE5 SHL DUP2 MSTORE PUSH1 0x20 PUSH1 0x4 DUP3 ADD MSTORE PUSH1 0x24 DUP1 DUP3 ADD MSTORE PUSH32 0x45524332303A20617070726F76652066726F6D20746865207A65726F20616464 PUSH1 0x44 DUP3 ADD MSTORE PUSH4 0x72657373 PUSH1 0xE0 SHL PUSH1 0x64 DUP3 ADD MSTORE PUSH1 0x84 ADD PUSH2 0x968 JUMP JUMPDEST PUSH1 0x1 PUSH1 0x1 PUSH1 0xA0 SHL SUB DUP3 AND PUSH2 0x1F1E JUMPI PUSH1 0x40 MLOAD PUSH3 0x461BCD PUSH1 0xE5 SHL DUP2 MSTORE PUSH1 0x20 PUSH1 0x4 DUP3 ADD MSTORE PUSH1 0x22 PUSH1 0x24 DUP3 ADD MSTORE PUSH32 0x45524332303A20617070726F766520746F20746865207A65726F206164647265 PUSH1 0x44 DUP3 ADD MSTORE PUSH2 0x7373 PUSH1 0xF0 SHL PUSH1 0x64 DUP3 ADD MSTORE PUSH1 0x84 ADD PUSH2 0x968 JUMP JUMPDEST PUSH1 0x1 PUSH1 0x1 PUSH1 0xA0 SHL SUB DUP4 DUP2 AND PUSH0 DUP2 DUP2 MSTORE PUSH1 0x1 PUSH1 0x20 SWAP1 DUP2 MSTORE PUSH1 0x40 DUP1 DUP4 KECCAK256 SWAP5 DUP8 AND DUP1 DUP5 MSTORE SWAP5 DUP3 MSTORE SWAP2 DUP3 SWAP1 KECCAK256 DUP6 SWAP1 SSTORE SWAP1 MLOAD DUP5 DUP2 MSTORE PUSH32 0x8C5BE1E5EBEC7D5BD14F71427D1E84F3DD0314C0F7B2291E5B200AC8C7C3B925 SWAP2 ADD PUSH1 0x40 MLOAD DUP1 SWAP2 SUB SWAP1 LOG3 POP POP POP JUMP JUMPDEST PUSH1 0x1 PUSH1 0x1 PUSH1 0xA0 SHL SUB DUP4 AND PUSH2 0x1FE2 JUMPI PUSH1 0x40 MLOAD PUSH3 0x461BCD PUSH1 0xE5 SHL DUP2 MSTORE PUSH1 0x20 PUSH1 0x4 DUP3 ADD MSTORE PUSH1 0x25 PUSH1 0x24 DUP3 ADD MSTORE PUSH32 0x45524332303A207472616E736665722066726F6D20746865207A65726F206164 PUSH1 0x44 DUP3 ADD MSTORE PUSH5 0x6472657373 PUSH1 0xD8 SHL PUSH1 0x64 DUP3 ADD MSTORE PUSH1 0x84 ADD PUSH2 0x968 JUMP JUMPDEST PUSH1 0x1 PUSH1 0x1 PUSH1 0xA0 SHL SUB DUP3 AND PUSH2 0x2044 JUMPI PUSH1 0x40 MLOAD PUSH3 0x461BCD PUSH1 0xE5 SHL DUP2 MSTORE PUSH1 0x20 PUSH1 0x4 DUP3 ADD MSTORE PUSH1 0x23 PUSH1 0x24 DUP3 ADD MSTORE PUSH32 0x45524332303A207472616E7366657220746F20746865207A65726F2061646472 PUSH1 0x44 DUP3 ADD MSTORE PUSH3 0x657373 PUSH1 0xE8 SHL PUSH1 0x64 DUP3 ADD MSTORE PUSH1 0x84 ADD PUSH2 0x968 JUMP JUMPDEST PUSH0 DUP2 GT PUSH2 0x20A5 JUMPI PUSH1 0x40 MLOAD PUSH3 0x461BCD PUSH1 0xE5 SHL DUP2 MSTORE PUSH1 0x20 PUSH1 0x4 DUP3 ADD MSTORE PUSH1 0x29 PUSH1 0x24 DUP3 ADD MSTORE PUSH32 0x5472616E7366657220616D6F756E74206D757374206265206772656174657220 PUSH1 0x44 DUP3 ADD MSTORE PUSH9 0x7468616E207A65726F PUSH1 0xB8 SHL PUSH1 0x64 DUP3 ADD MSTORE PUSH1 0x84 ADD PUSH2 0x968 JUMP JUMPDEST PUSH0 PUSH2 0x20AF DUP5 PUSH2 0x10B9 JUMP JUMPDEST SWAP1 POP DUP2 DUP2 LT ISZERO PUSH2 0x2110 JUMPI PUSH1 0x40 MLOAD PUSH3 0x461BCD PUSH1 0xE5 SHL DUP2 MSTORE PUSH1 0x20 PUSH1 0x4 DUP3 ADD MSTORE PUSH1 0x26 PUSH1 0x24 DUP3 ADD MSTORE PUSH32 0x45524332303A207472616E7366657220616D6F756E7420657863656564732062 PUSH1 0x44 DUP3 ADD MSTORE PUSH6 0x616C616E6365 PUSH1 0xD0 SHL PUSH1 0x64 DUP3 ADD MSTORE PUSH1 0x84 ADD PUSH2 0x968 JUMP JUMPDEST PUSH1 0x5 SLOAD PUSH1 0x1 PUSH1 0x1 PUSH1 0xA0 SHL SUB DUP6 DUP2 AND SWAP2 AND EQ DUP1 ISZERO SWAP1 PUSH2 0x213C JUMPI POP PUSH1 0x5 SLOAD PUSH1 0x1 PUSH1 0x1 PUSH1 0xA0 SHL SUB DUP5 DUP2 AND SWAP2 AND EQ ISZERO JUMPDEST ISZERO PUSH2 0x21A4 JUMPI PUSH1 0x1C SLOAD DUP3 GT ISZERO PUSH2 0x21A4 JUMPI PUSH1 0x40 MLOAD PUSH3 0x461BCD PUSH1 0xE5 SHL DUP2 MSTORE PUSH1 0x20 PUSH1 0x4 DUP3 ADD MSTORE PUSH1 0x28 PUSH1 0x24 DUP3 ADD MSTORE PUSH32 0x5472616E7366657220616D6F756E74206578636565647320746865206D617854 PUSH1 0x44 DUP3 ADD MSTORE PUSH8 0x3C20B6B7BAB73A17 PUSH1 0xC1 SHL PUSH1 0x64 DUP3 ADD MSTORE PUSH1 0x84 ADD PUSH2 0x968 JUMP JUMPDEST PUSH0 PUSH2 0x21AE ADDRESS PUSH2 0x10B9 JUMP JUMPDEST PUSH1 0x1E SLOAD PUSH1 0x1F SLOAD SWAP2 SWAP3 POP DUP3 LT ISZERO SWAP1 PUSH1 0xFF AND ISZERO DUP1 ISZERO PUSH2 0x21D2 JUMPI POP PUSH1 0x1F SLOAD PUSH2 0x100 SWAP1 DIV PUSH1 0xFF AND JUMPDEST DUP1 ISZERO PUSH2 0x220F JUMPI POP PUSH32 0x0 PUSH1 0x1 PUSH1 0x1 PUSH1 0xA0 SHL SUB AND DUP6 PUSH1 0x1 PUSH1 0x1 PUSH1 0xA0 SHL SUB AND EQ JUMPDEST ISZERO PUSH2 0x2228 JUMPI DUP1 ISZERO PUSH2 0x2228 JUMPI PUSH1 0x1E SLOAD SWAP2 POP PUSH2 0x2228 DUP3 PUSH2 0x2587 JUMP JUMPDEST PUSH1 0x1 PUSH1 0x1 PUSH1 0xA0 SHL SUB DUP7 AND PUSH0 SWAP1 DUP2 MSTORE PUSH1 0x8 PUSH1 0x20 MSTORE PUSH1 0x40 SWAP1 KECCAK256 SLOAD PUSH1 0x1 SWAP1 PUSH1 0xFF AND DUP1 PUSH2 0x2268 JUMPI POP PUSH1 0x1 PUSH1 0x1 PUSH1 0xA0 SHL SUB DUP7 AND PUSH0 SWAP1 DUP2 MSTORE PUSH1 0x8 PUSH1 0x20 MSTORE PUSH1 0x40 SWAP1 KECCAK256 SLOAD PUSH1 0xFF AND JUMPDEST ISZERO PUSH2 0x2270 JUMPI POP PUSH0 JUMPDEST PUSH2 0x227C DUP8 DUP8 DUP8 DUP5 PUSH2 0x277A JUMP JUMPDEST POP POP POP POP POP POP POP JUMP JUMPDEST PUSH1 0x1 PUSH1 0x1 PUSH1 0xA0 SHL SUB DUP3 AND PUSH2 0x22E5 JUMPI PUSH1 0x40 MLOAD PUSH3 0x461BCD PUSH1 0xE5 SHL DUP2 MSTORE PUSH1 0x20 PUSH1 0x4 DUP3 ADD MSTORE PUSH1 0x21 PUSH1 0x24 DUP3 ADD MSTORE PUSH32 0x45524332303A206275726E2066726F6D20746865207A65726F20616464726573 PUSH1 0x44 DUP3 ADD MSTORE PUSH1 0x73 PUSH1 0xF8 SHL PUSH1 0x64 DUP3 ADD MSTORE PUSH1 0x84 ADD PUSH2 0x968 JUMP JUMPDEST PUSH0 PUSH2 0x22EF DUP4 PUSH2 0x10B9 JUMP JUMPDEST SWAP1 POP DUP2 DUP2 LT ISZERO PUSH2 0x234C JUMPI PUSH1 0x40 MLOAD PUSH3 0x461BCD PUSH1 0xE5 SHL DUP2 MSTORE PUSH1 0x20 PUSH1 0x4 DUP3 ADD MSTORE PUSH1 0x22 PUSH1 0x24 DUP3 ADD MSTORE PUSH32 0x45524332303A206275726E20616D6F756E7420657863656564732062616C616E PUSH1 0x44 DUP3 ADD MSTORE PUSH2 0x6365 PUSH1 0xF0 SHL PUSH1 0x64 DUP3 ADD MSTORE PUSH1 0x84 ADD PUSH2 0x968 JUMP JUMPDEST PUSH0 PUSH2 0x2355 PUSH2 0x2566 JUMP JUMPDEST SWAP1 POP PUSH0 PUSH2 0x2362 DUP3 DUP6 PUSH2 0x3353 JUMP JUMPDEST PUSH1 0x1 PUSH1 0x1 PUSH1 0xA0 SHL SUB DUP7 AND PUSH0 SWAP1 DUP2 MSTORE PUSH1 0x9 PUSH1 0x20 MSTORE PUSH1 0x40 SWAP1 KECCAK256 SLOAD SWAP1 SWAP2 POP PUSH1 0xFF AND ISZERO PUSH2 0x23C1 JUMPI PUSH1 0x1 PUSH1 0x1 PUSH1 0xA0 SHL SUB DUP6 AND PUSH0 SWAP1 DUP2 MSTORE PUSH1 0x7 PUSH1 0x20 MSTORE PUSH1 0x40 SWAP1 KECCAK256 SLOAD PUSH2 0x23A8 SWAP1 DUP6 SWAP1 PUSH2 0x326E JUMP JUMPDEST PUSH1 0x1 PUSH1 0x1 PUSH1 0xA0 SHL SUB DUP7 AND PUSH0 SWAP1 DUP2 MSTORE PUSH1 0x7 PUSH1 0x20 MSTORE PUSH1 0x40 SWAP1 KECCAK256 SSTORE JUMPDEST PUSH1 0x1 PUSH1 0x1 PUSH1 0xA0 SHL SUB DUP6 AND PUSH0 SWAP1 DUP2 MSTORE PUSH1 0x6 PUSH1 0x20 MSTORE PUSH1 0x40 SWAP1 KECCAK256 SLOAD PUSH2 0x23E4 SWAP1 DUP3 SWAP1 PUSH2 0x326E JUMP JUMPDEST PUSH1 0x1 PUSH1 0x1 PUSH1 0xA0 SHL SUB DUP7 AND PUSH0 SWAP1 DUP2 MSTORE PUSH1 0x6 PUSH1 0x20 MSTORE PUSH1 0x40 SWAP1 KECCAK256 SSTORE PUSH1 0xD SLOAD PUSH2 0x240A SWAP1 DUP6 SWAP1 PUSH2 0x326E JUMP JUMPDEST PUSH1 0xD SSTORE PUSH1 0xE SLOAD PUSH2 0x241B SWAP1 DUP3 SWAP1 PUSH2 0x326E JUMP JUMPDEST PUSH1 0xE SSTORE PUSH1 0x40 MLOAD DUP5 DUP2 MSTORE PUSH0 SWAP1 PUSH1 0x1 PUSH1 0x1 PUSH1 0xA0 SHL SUB DUP8 AND SWAP1 PUSH0 DUP1 MLOAD PUSH1 0x20 PUSH2 0x348E DUP4 CODECOPY DUP2 MLOAD SWAP2 MSTORE SWAP1 PUSH1 0x20 ADD JUMPDEST PUSH1 0x40 MLOAD DUP1 SWAP2 SUB SWAP1 LOG3 POP POP POP POP POP JUMP JUMPDEST PUSH0 PUSH1 0xE SLOAD DUP3 GT ISZERO PUSH2 0x24B9 JUMPI PUSH1 0x40 MLOAD PUSH3 0x461BCD PUSH1 0xE5 SHL DUP2 MSTORE PUSH1 0x20 PUSH1 0x4 DUP3 ADD MSTORE PUSH1 0x2A PUSH1 0x24 DUP3 ADD MSTORE PUSH32 0x416D6F756E74206D757374206265206C657373207468616E20746F74616C2072 PUSH1 0x44 DUP3 ADD MSTORE PUSH10 0x65666C656374696F6E73 PUSH1 0xB0 SHL PUSH1 0x64 DUP3 ADD MSTORE PUSH1 0x84 ADD PUSH2 0x968 JUMP JUMPDEST PUSH0 PUSH2 0x24C2 PUSH2 0x2566 JUMP JUMPDEST SWAP1 POP PUSH2 0x24CE DUP2 DUP5 PUSH2 0x336A JUMP JUMPDEST SWAP4 SWAP3 POP POP POP JUMP JUMPDEST PUSH1 0x5 DUP1 SLOAD PUSH1 0x1 PUSH1 0x1 PUSH1 0xA0 SHL SUB DUP4 DUP2 AND PUSH1 0x1 PUSH1 0x1 PUSH1 0xA0 SHL SUB NOT DUP4 AND DUP2 OR SWAP1 SWAP4 SSTORE PUSH1 0x40 MLOAD SWAP2 AND SWAP2 SWAP1 DUP3 SWAP1 PUSH32 0x8BE0079C531659141344CD1FD0A4F28419497F9722A3DAAFE3B4186F6B6457E0 SWAP1 PUSH0 SWAP1 LOG3 POP POP JUMP JUMPDEST PUSH0 DUP1 PUSH1 0x10 SLOAD PUSH1 0x12 SLOAD PUSH1 0x1A SLOAD PUSH2 0x253B SWAP2 SWAP1 PUSH2 0x3281 JUMP JUMPDEST PUSH2 0x2545 SWAP2 SWAP1 PUSH2 0x3281 JUMP JUMPDEST SWAP1 POP PUSH0 PUSH1 0x64 PUSH2 0x2554 DUP4 DUP7 PUSH2 0x3353 JUMP JUMPDEST PUSH2 0x255E SWAP2 SWAP1 PUSH2 0x336A JUMP JUMPDEST SWAP5 SWAP4 POP POP POP POP JUMP JUMPDEST PUSH0 DUP1 PUSH0 PUSH2 0x2571 PUSH2 0x2801 JUMP JUMPDEST SWAP1 SWAP3 POP SWAP1 POP PUSH2 0x2580 DUP2 DUP4 PUSH2 0x336A JUMP JUMPDEST SWAP3 POP POP POP SWAP1 JUMP JUMPDEST PUSH1 0x1F DUP1 SLOAD PUSH1 0xFF NOT AND PUSH1 0x1 OR SWAP1 SSTORE PUSH1 0x1A SLOAD ISZERO PUSH2 0x276D JUMPI PUSH1 0x1A SLOAD PUSH1 0x14 SLOAD SELFBALANCE SWAP2 PUSH0 SWAP2 PUSH2 0x25B0 SWAP1 DUP6 PUSH2 0x3353 JUMP JUMPDEST PUSH2 0x25BA SWAP2 SWAP1 PUSH2 0x336A JUMP JUMPDEST SWAP1 POP PUSH0 PUSH2 0x25C8 PUSH1 0x2 DUP4 PUSH2 0x336A JUMP JUMPDEST SWAP1 POP PUSH0 PUSH2 0x25D5 DUP3 DUP5 PUSH2 0x326E JUMP JUMPDEST SWAP1 POP PUSH2 0x25E9 PUSH2 0x25E4 DUP3 DUP8 PUSH2 0x326E JUMP JUMPDEST PUSH2 0x2971 JUMP JUMPDEST PUSH0 PUSH2 0x25F4 DUP6 SELFBALANCE PUSH2 0x326E JUMP JUMPDEST PUSH1 0xB SLOAD PUSH1 0x14 SLOAD SWAP2 SWAP3 POP PUSH2 0x2664 SWAP2 PUSH1 0x1 PUSH1 0x1 PUSH1 0xA0 SHL SUB SWAP1 SWAP2 AND SWAP1 PUSH1 0x2 SWAP1 PUSH2 0x261B SWAP1 PUSH1 0xA PUSH2 0x3353 JUMP JUMPDEST PUSH2 0x2625 SWAP2 SWAP1 PUSH2 0x336A JUMP JUMPDEST PUSH1 0x1A SLOAD PUSH2 0x2633 SWAP1 PUSH1 0xA PUSH2 0x3353 JUMP JUMPDEST PUSH2 0x263D SWAP2 SWAP1 PUSH2 0x326E JUMP JUMPDEST PUSH1 0x16 SLOAD PUSH2 0x264B SWAP1 PUSH1 0xA PUSH2 0x3353 JUMP JUMPDEST PUSH2 0x2655 SWAP1 DUP6 PUSH2 0x3353 JUMP JUMPDEST PUSH2 0x265F SWAP2 SWAP1 PUSH2 0x336A JUMP JUMPDEST PUSH2 0x2B54 JUMP JUMPDEST PUSH1 0xC SLOAD PUSH1 0x14 SLOAD PUSH2 0x26B6 SWAP2 PUSH1 0x1 PUSH1 0x1 PUSH1 0xA0 SHL SUB AND SWAP1 PUSH1 0x2 SWAP1 PUSH2 0x2686 SWAP1 PUSH1 0xA PUSH2 0x3353 JUMP JUMPDEST PUSH2 0x2690 SWAP2 SWAP1 PUSH2 0x336A JUMP JUMPDEST PUSH1 0x1A SLOAD PUSH2 0x269E SWAP1 PUSH1 0xA PUSH2 0x3353 JUMP JUMPDEST PUSH2 0x26A8 SWAP2 SWAP1 PUSH2 0x326E JUMP JUMPDEST PUSH1 0x18 SLOAD PUSH2 0x264B SWAP1 PUSH1 0xA PUSH2 0x3353 JUMP JUMPDEST PUSH0 PUSH1 0x2 PUSH1 0x14 SLOAD PUSH1 0xA PUSH2 0x26C8 SWAP2 SWAP1 PUSH2 0x3353 JUMP JUMPDEST PUSH2 0x26D2 SWAP2 SWAP1 PUSH2 0x336A JUMP JUMPDEST PUSH1 0x1A SLOAD PUSH2 0x26E0 SWAP1 PUSH1 0xA PUSH2 0x3353 JUMP JUMPDEST PUSH2 0x26EA SWAP2 SWAP1 PUSH2 0x326E JUMP JUMPDEST PUSH1 0x2 PUSH1 0x14 SLOAD PUSH1 0xA PUSH2 0x26FB SWAP2 SWAP1 PUSH2 0x3353 JUMP JUMPDEST PUSH2 0x2705 SWAP2 SWAP1 PUSH2 0x336A JUMP JUMPDEST PUSH2 0x270F SWAP1 DUP5 PUSH2 0x3353 JUMP JUMPDEST PUSH2 0x2719 SWAP2 SWAP1 PUSH2 0x336A JUMP JUMPDEST SWAP1 POP PUSH2 0x2725 DUP4 DUP3 PUSH2 0x2BF3 JUMP JUMPDEST PUSH1 0x40 DUP1 MLOAD DUP6 DUP2 MSTORE PUSH1 0x20 DUP2 ADD DUP4 SWAP1 MSTORE SWAP1 DUP2 ADD DUP5 SWAP1 MSTORE PUSH32 0x17BBFB9A6069321B6DED73BD96327C9E6B7212A5CD51FF219CD61370ACAFB561 SWAP1 PUSH1 0x60 ADD PUSH1 0x40 MLOAD DUP1 SWAP2 SUB SWAP1 LOG1 POP POP POP POP POP POP JUMPDEST POP PUSH1 0x1F DUP1 SLOAD PUSH1 0xFF NOT AND SWAP1 SSTORE JUMP JUMPDEST DUP1 PUSH2 0x27C2 JUMPI PUSH2 0x27C2 PUSH1 0x1A DUP1 SLOAD PUSH1 0x1B SSTORE PUSH1 0x14 DUP1 SLOAD PUSH1 0x15 SSTORE PUSH1 0x10 DUP1 SLOAD PUSH1 0x11 SSTORE PUSH1 0x12 DUP1 SLOAD PUSH1 0x13 SSTORE PUSH1 0x16 DUP1 SLOAD PUSH1 0x17 SSTORE PUSH1 0x18 DUP1 SLOAD PUSH1 0x19 SSTORE PUSH0 SWAP6 DUP7 SWAP1 SSTORE SWAP4 DUP6 SWAP1 SSTORE SWAP2 DUP5 SWAP1 SSTORE DUP4 SWAP1 SSTORE DUP3 SWAP1 SSTORE SSTORE JUMP JUMPDEST PUSH2 0x27CD DUP5 DUP5 DUP5 PUSH2 0x2CF6 JUMP JUMPDEST DUP1 PUSH2 0x27FB JUMPI PUSH2 0x27FB PUSH1 0x1B SLOAD PUSH1 0x1A SSTORE PUSH1 0x15 SLOAD PUSH1 0x14 SSTORE PUSH1 0x11 SLOAD PUSH1 0x10 SSTORE PUSH1 0x13 SLOAD PUSH1 0x12 SSTORE PUSH1 0x17 SLOAD PUSH1 0x16 SSTORE PUSH1 0x19 SLOAD PUSH1 0x18 SSTORE JUMP JUMPDEST POP POP POP POP JUMP JUMPDEST PUSH1 0xE SLOAD PUSH1 0xD SLOAD PUSH0 SWAP2 DUP3 SWAP2 DUP3 JUMPDEST PUSH1 0xA SLOAD DUP2 LT ISZERO PUSH2 0x2940 JUMPI DUP3 PUSH1 0x6 PUSH0 PUSH1 0xA DUP5 DUP2 SLOAD DUP2 LT PUSH2 0x282E JUMPI PUSH2 0x282E PUSH2 0x3389 JUMP JUMPDEST PUSH0 SWAP2 DUP3 MSTORE PUSH1 0x20 DUP1 DUP4 KECCAK256 SWAP1 SWAP2 ADD SLOAD PUSH1 0x1 PUSH1 0x1 PUSH1 0xA0 SHL SUB AND DUP4 MSTORE DUP3 ADD SWAP3 SWAP1 SWAP3 MSTORE PUSH1 0x40 ADD SWAP1 KECCAK256 SLOAD GT DUP1 PUSH2 0x2896 JUMPI POP DUP2 PUSH1 0x7 PUSH0 PUSH1 0xA DUP5 DUP2 SLOAD DUP2 LT PUSH2 0x2870 JUMPI PUSH2 0x2870 PUSH2 0x3389 JUMP JUMPDEST PUSH0 SWAP2 DUP3 MSTORE PUSH1 0x20 DUP1 DUP4 KECCAK256 SWAP1 SWAP2 ADD SLOAD PUSH1 0x1 PUSH1 0x1 PUSH1 0xA0 SHL SUB AND DUP4 MSTORE DUP3 ADD SWAP3 SWAP1 SWAP3 MSTORE PUSH1 0x40 ADD SWAP1 KECCAK256 SLOAD GT JUMPDEST ISZERO PUSH2 0x28AC JUMPI PUSH1 0xE SLOAD PUSH1 0xD SLOAD SWAP5 POP SWAP5 POP POP POP POP SWAP1 SWAP2 JUMP JUMPDEST PUSH1 0x6 PUSH0 PUSH1 0xA DUP4 DUP2 SLOAD DUP2 LT PUSH2 0x28C2 JUMPI PUSH2 0x28C2 PUSH2 0x3389 JUMP JUMPDEST PUSH0 SWAP2 DUP3 MSTORE PUSH1 0x20 DUP1 DUP4 KECCAK256 SWAP1 SWAP2 ADD SLOAD PUSH1 0x1 PUSH1 0x1 PUSH1 0xA0 SHL SUB AND DUP4 MSTORE DUP3 ADD SWAP3 SWAP1 SWAP3 MSTORE PUSH1 0x40 ADD SWAP1 KECCAK256 SLOAD PUSH2 0x28F0 SWAP1 DUP5 PUSH2 0x326E JUMP JUMPDEST SWAP3 POP PUSH1 0x7 PUSH0 PUSH1 0xA DUP4 DUP2 SLOAD DUP2 LT PUSH2 0x2908 JUMPI PUSH2 0x2908 PUSH2 0x3389 JUMP JUMPDEST PUSH0 SWAP2 DUP3 MSTORE PUSH1 0x20 DUP1 DUP4 KECCAK256 SWAP1 SWAP2 ADD SLOAD PUSH1 0x1 PUSH1 0x1 PUSH1 0xA0 SHL SUB AND DUP4 MSTORE DUP3 ADD SWAP3 SWAP1 SWAP3 MSTORE PUSH1 0x40 ADD SWAP1 KECCAK256 SLOAD PUSH2 0x2936 SWAP1 DUP4 PUSH2 0x326E JUMP JUMPDEST SWAP2 POP PUSH1 0x1 ADD PUSH2 0x280D JUMP JUMPDEST POP PUSH1 0xD SLOAD PUSH1 0xE SLOAD PUSH2 0x2951 SWAP2 SWAP1 PUSH2 0x336A JUMP JUMPDEST DUP3 LT ISZERO PUSH2 0x2968 JUMPI PUSH1 0xE SLOAD PUSH1 0xD SLOAD SWAP4 POP SWAP4 POP POP POP SWAP1 SWAP2 JUMP JUMPDEST SWAP1 SWAP4 SWAP1 SWAP3 POP SWAP1 POP JUMP JUMPDEST PUSH1 0x40 DUP1 MLOAD PUSH1 0x2 DUP1 DUP3 MSTORE PUSH1 0x60 DUP3 ADD DUP4 MSTORE PUSH0 SWAP3 PUSH1 0x20 DUP4 ADD SWAP1 DUP1 CALLDATASIZE DUP4 CALLDATACOPY ADD SWAP1 POP POP SWAP1 POP ADDRESS DUP2 PUSH0 DUP2 MLOAD DUP2 LT PUSH2 0x29A4 JUMPI PUSH2 0x29A4 PUSH2 0x3389 JUMP JUMPDEST PUSH1 0x20 MUL PUSH1 0x20 ADD ADD SWAP1 PUSH1 0x1 PUSH1 0x1 PUSH1 0xA0 SHL SUB AND SWAP1 DUP2 PUSH1 0x1 PUSH1 0x1 PUSH1 0xA0 SHL SUB AND DUP2 MSTORE POP POP PUSH32 0x0 PUSH1 0x1 PUSH1 0x1 PUSH1 0xA0 SHL SUB AND PUSH4 0xAD5C4648 PUSH1 0x40 MLOAD DUP2 PUSH4 0xFFFFFFFF AND PUSH1 0xE0 SHL DUP2 MSTORE PUSH1 0x4 ADD PUSH1 0x20 PUSH1 0x40 MLOAD DUP1 DUP4 SUB DUP2 DUP7 GAS STATICCALL ISZERO DUP1 ISZERO PUSH2 0x2A20 JUMPI RETURNDATASIZE PUSH0 DUP1 RETURNDATACOPY RETURNDATASIZE PUSH0 REVERT JUMPDEST POP POP POP POP PUSH1 0x40 MLOAD RETURNDATASIZE PUSH1 0x1F NOT PUSH1 0x1F DUP3 ADD AND DUP3 ADD DUP1 PUSH1 0x40 MSTORE POP DUP2 ADD SWAP1 PUSH2 0x2A44 SWAP2 SWAP1 PUSH2 0x33B1 JUMP JUMPDEST DUP2 PUSH1 0x1 DUP2 MLOAD DUP2 LT PUSH2 0x2A57 JUMPI PUSH2 0x2A57 PUSH2 0x3389 JUMP JUMPDEST PUSH1 0x20 MUL PUSH1 0x20 ADD ADD SWAP1 PUSH1 0x1 PUSH1 0x1 PUSH1 0xA0 SHL SUB AND SWAP1 DUP2 PUSH1 0x1 PUSH1 0x1 PUSH1 0xA0 SHL SUB AND DUP2 MSTORE POP POP PUSH2 0x2AA2 ADDRESS PUSH32 0x0 DUP5 PUSH2 0x1E5B JUMP JUMPDEST PUSH1 0x40 MLOAD PUSH4 0x791AC947 PUSH1 0xE0 SHL DUP2 MSTORE PUSH1 0x1 PUSH1 0x1 PUSH1 0xA0 SHL SUB PUSH32 0x0 AND SWAP1 PUSH4 0x791AC947 SWAP1 PUSH2 0x2AF6 SWAP1 DUP6 SWAP1 PUSH0 SWAP1 DUP7 SWAP1 ADDRESS SWAP1 TIMESTAMP SWAP1 PUSH1 0x4 ADD PUSH2 0x340F JUMP JUMPDEST PUSH0 PUSH1 0x40 MLOAD DUP1 DUP4 SUB DUP2 PUSH0 DUP8 DUP1 EXTCODESIZE ISZERO DUP1 ISZERO PUSH2 0x2B0D JUMPI PUSH0 DUP1 REVERT JUMPDEST POP GAS CALL ISZERO DUP1 ISZERO PUSH2 0x2B1F JUMPI RETURNDATASIZE PUSH0 DUP1 RETURNDATACOPY RETURNDATASIZE PUSH0 REVERT JUMPDEST POP POP POP POP PUSH32 0x32CDE87EB454F3A0B875AB23547023107CFAD454363EC88BA5695E2C24AA52A7 DUP3 DUP3 PUSH1 0x40 MLOAD PUSH2 0xD05 SWAP3 SWAP2 SWAP1 PUSH2 0x344A JUMP JUMPDEST PUSH0 DUP3 PUSH1 0x1 PUSH1 0x1 PUSH1 0xA0 SHL SUB AND DUP3 PUSH1 0x40 MLOAD PUSH0 PUSH1 0x40 MLOAD DUP1 DUP4 SUB DUP2 DUP6 DUP8 GAS CALL SWAP3 POP POP POP RETURNDATASIZE DUP1 PUSH0 DUP2 EQ PUSH2 0x2B9D JUMPI PUSH1 0x40 MLOAD SWAP2 POP PUSH1 0x1F NOT PUSH1 0x3F RETURNDATASIZE ADD AND DUP3 ADD PUSH1 0x40 MSTORE RETURNDATASIZE DUP3 MSTORE RETURNDATASIZE PUSH0 PUSH1 0x20 DUP5 ADD RETURNDATACOPY PUSH2 0x2BA2 JUMP JUMPDEST PUSH1 0x60 SWAP2 POP JUMPDEST POP POP SWAP1 POP DUP1 PUSH2 0x11CA JUMPI DUP3 PUSH1 0x1 PUSH1 0x1 PUSH1 0xA0 SHL SUB AND PUSH32 0x1C43B9761B3FBA5321CA8212BFC231945F668CCC0C446F333999EEA9CE8FDA81 DUP4 PUSH1 0x40 MLOAD PUSH2 0x2BE6 SWAP2 DUP2 MSTORE PUSH1 0x20 ADD SWAP1 JUMP JUMPDEST PUSH1 0x40 MLOAD DUP1 SWAP2 SUB SWAP1 LOG2 POP POP POP JUMP JUMPDEST PUSH2 0x2C1E ADDRESS PUSH32 0x0 DUP5 PUSH2 0x1E5B JUMP JUMPDEST PUSH32 0x0 PUSH1 0x1 PUSH1 0x1 PUSH1 0xA0 SHL SUB AND PUSH4 0xF305D719 DUP3 ADDRESS DUP6 PUSH0 DUP1 PUSH2 0x2C64 PUSH1 0x5 SLOAD PUSH1 0x1 PUSH1 0x1 PUSH1 0xA0 SHL SUB AND SWAP1 JUMP JUMPDEST PUSH1 0x40 MLOAD PUSH1 0xE0 DUP9 SWAP1 SHL PUSH1 0x1 PUSH1 0x1 PUSH1 0xE0 SHL SUB NOT AND DUP2 MSTORE PUSH1 0x1 PUSH1 0x1 PUSH1 0xA0 SHL SUB SWAP6 DUP7 AND PUSH1 0x4 DUP3 ADD MSTORE PUSH1 0x24 DUP2 ADD SWAP5 SWAP1 SWAP5 MSTORE PUSH1 0x44 DUP5 ADD SWAP3 SWAP1 SWAP3 MSTORE PUSH1 0x64 DUP4 ADD MSTORE SWAP1 SWAP2 AND PUSH1 0x84 DUP3 ADD MSTORE TIMESTAMP PUSH1 0xA4 DUP3 ADD MSTORE PUSH1 0xC4 ADD PUSH1 0x60 PUSH1 0x40 MLOAD DUP1 DUP4 SUB DUP2 DUP6 DUP9 GAS CALL ISZERO DUP1 ISZERO PUSH2 0x2CCA JUMPI RETURNDATASIZE PUSH0 DUP1 RETURNDATACOPY RETURNDATASIZE PUSH0 REVERT JUMPDEST POP POP POP POP POP PUSH1 0x40 MLOAD RETURNDATASIZE PUSH1 0x1F NOT PUSH1 0x1F DUP3 ADD AND DUP3 ADD DUP1 PUSH1 0x40 MSTORE POP DUP2 ADD SWAP1 PUSH2 0x2CEF SWAP2 SWAP1 PUSH2 0x3462 JUMP JUMPDEST POP POP POP POP POP JUMP JUMPDEST PUSH0 DUP1 PUSH0 DUP1 PUSH2 0x2D03 DUP6 PUSH2 0x1E0A JUMP JUMPDEST PUSH1 0x1 PUSH1 0x1 PUSH1 0xA0 SHL SUB DUP12 AND PUSH0 SWAP1 DUP2 MSTORE PUSH1 0x6 PUSH1 0x20 MSTORE PUSH1 0x40 SWAP1 KECCAK256 SLOAD SWAP4 SWAP8 POP SWAP2 SWAP6 POP SWAP4 POP SWAP2 POP PUSH2 0x2D30 SWAP1 DUP6 SWAP1 PUSH2 0x326E JUMP JUMPDEST PUSH1 0x1 PUSH1 0x1 PUSH1 0xA0 SHL SUB DUP1 DUP10 AND PUSH0 SWAP1 DUP2 MSTORE PUSH1 0x6 PUSH1 0x20 MSTORE PUSH1 0x40 DUP1 DUP3 KECCAK256 SWAP4 SWAP1 SWAP4 SSTORE SWAP1 DUP9 AND DUP2 MSTORE KECCAK256 SLOAD PUSH2 0x2D5F SWAP1 DUP5 SWAP1 PUSH2 0x3281 JUMP JUMPDEST PUSH1 0x1 PUSH1 0x1 PUSH1 0xA0 SHL SUB DUP1 DUP9 AND PUSH0 SWAP1 DUP2 MSTORE PUSH1 0x6 PUSH1 0x20 SWAP1 DUP2 MSTORE PUSH1 0x40 DUP1 DUP4 KECCAK256 SWAP5 SWAP1 SWAP5 SSTORE SWAP2 DUP11 AND DUP2 MSTORE PUSH1 0x9 SWAP1 SWAP2 MSTORE KECCAK256 SLOAD PUSH1 0xFF AND DUP1 ISZERO PUSH2 0x2DB1 JUMPI POP PUSH1 0x1 PUSH1 0x1 PUSH1 0xA0 SHL SUB DUP7 AND PUSH0 SWAP1 DUP2 MSTORE PUSH1 0x9 PUSH1 0x20 MSTORE PUSH1 0x40 SWAP1 KECCAK256 SLOAD PUSH1 0xFF AND ISZERO JUMPDEST ISZERO PUSH2 0x2DF6 JUMPI PUSH1 0x1 PUSH1 0x1 PUSH1 0xA0 SHL SUB DUP8 AND PUSH0 SWAP1 DUP2 MSTORE PUSH1 0x7 PUSH1 0x20 MSTORE PUSH1 0x40 SWAP1 KECCAK256 SLOAD PUSH2 0x2DD9 SWAP1 DUP7 SWAP1 PUSH2 0x326E JUMP JUMPDEST PUSH1 0x1 PUSH1 0x1 PUSH1 0xA0 SHL SUB DUP9 AND PUSH0 SWAP1 DUP2 MSTORE PUSH1 0x7 PUSH1 0x20 MSTORE PUSH1 0x40 SWAP1 KECCAK256 SSTORE PUSH2 0x2F28 JUMP JUMPDEST PUSH1 0x1 PUSH1 0x1 PUSH1 0xA0 SHL SUB DUP8 AND PUSH0 SWAP1 DUP2 MSTORE PUSH1 0x9 PUSH1 0x20 MSTORE PUSH1 0x40 SWAP1 KECCAK256 SLOAD PUSH1 0xFF AND ISZERO DUP1 ISZERO PUSH2 0x2E35 JUMPI POP PUSH1 0x1 PUSH1 0x1 PUSH1 0xA0 SHL SUB DUP7 AND PUSH0 SWAP1 DUP2 MSTORE PUSH1 0x9 PUSH1 0x20 MSTORE PUSH1 0x40 SWAP1 KECCAK256 SLOAD PUSH1 0xFF AND JUMPDEST ISZERO PUSH2 0x2E7A JUMPI PUSH1 0x1 PUSH1 0x1 PUSH1 0xA0 SHL SUB DUP7 AND PUSH0 SWAP1 DUP2 MSTORE PUSH1 0x7 PUSH1 0x20 MSTORE PUSH1 0x40 SWAP1 KECCAK256 SLOAD PUSH2 0x2E5D SWAP1 DUP4 SWAP1 PUSH2 0x3281 JUMP JUMPDEST PUSH1 0x1 PUSH1 0x1 PUSH1 0xA0 SHL SUB DUP8 AND PUSH0 SWAP1 DUP2 MSTORE PUSH1 0x7 PUSH1 0x20 MSTORE PUSH1 0x40 SWAP1 KECCAK256 SSTORE PUSH2 0x2F28 JUMP JUMPDEST PUSH1 0x1 PUSH1 0x1 PUSH1 0xA0 SHL SUB DUP8 AND PUSH0 SWAP1 DUP2 MSTORE PUSH1 0x9 PUSH1 0x20 MSTORE PUSH1 0x40 SWAP1 KECCAK256 SLOAD PUSH1 0xFF AND DUP1 ISZERO PUSH2 0x2EB8 JUMPI POP PUSH1 0x1 PUSH1 0x1 PUSH1 0xA0 SHL SUB DUP7 AND PUSH0 SWAP1 DUP2 MSTORE PUSH1 0x9 PUSH1 0x20 MSTORE PUSH1 0x40 SWAP1 KECCAK256 SLOAD PUSH1 0xFF AND JUMPDEST ISZERO PUSH2 0x2F28 JUMPI PUSH1 0x1 PUSH1 0x1 PUSH1 0xA0 SHL SUB DUP8 AND PUSH0 SWAP1 DUP2 MSTORE PUSH1 0x7 PUSH1 0x20 MSTORE PUSH1 0x40 SWAP1 KECCAK256 SLOAD PUSH2 0x2EE0 SWAP1 DUP7 SWAP1 PUSH2 0x326E JUMP JUMPDEST PUSH1 0x1 PUSH1 0x1 PUSH1 0xA0 SHL SUB DUP1 DUP10 AND PUSH0 SWAP1 DUP2 MSTORE PUSH1 0x7 PUSH1 0x20 MSTORE PUSH1 0x40 DUP1 DUP3 KECCAK256 SWAP4 SWAP1 SWAP4 SSTORE SWAP1 DUP9 AND DUP2 MSTORE KECCAK256 SLOAD PUSH2 0x2F0F SWAP1 DUP4 SWAP1 PUSH2 0x3281 JUMP JUMPDEST PUSH1 0x1 PUSH1 0x1 PUSH1 0xA0 SHL SUB DUP8 AND PUSH0 SWAP1 DUP2 MSTORE PUSH1 0x7 PUSH1 0x20 MSTORE PUSH1 0x40 SWAP1 KECCAK256 SSTORE JUMPDEST PUSH2 0x2F32 DUP6 DUP3 PUSH2 0x2F8F JUMP JUMPDEST PUSH2 0x2F3D DUP8 DUP7 DUP4 PUSH2 0x2FE1 JUMP JUMPDEST PUSH2 0x2F4C DUP8 DUP7 DUP4 PUSH1 0x1A SLOAD ADDRESS PUSH2 0x305D JUMP JUMPDEST DUP6 PUSH1 0x1 PUSH1 0x1 PUSH1 0xA0 SHL SUB AND DUP8 PUSH1 0x1 PUSH1 0x1 PUSH1 0xA0 SHL SUB AND PUSH0 DUP1 MLOAD PUSH1 0x20 PUSH2 0x348E DUP4 CODECOPY DUP2 MLOAD SWAP2 MSTORE DUP5 PUSH1 0x40 MLOAD PUSH2 0x2F7E SWAP2 DUP2 MSTORE PUSH1 0x20 ADD SWAP1 JUMP JUMPDEST PUSH1 0x40 MLOAD DUP1 SWAP2 SUB SWAP1 LOG3 POP POP POP POP POP POP POP JUMP JUMPDEST PUSH0 PUSH1 0x64 PUSH1 0x12 SLOAD DUP5 PUSH2 0x2FA0 SWAP2 SWAP1 PUSH2 0x3353 JUMP JUMPDEST PUSH2 0x2FAA SWAP2 SWAP1 PUSH2 0x336A JUMP JUMPDEST SWAP1 POP PUSH0 PUSH2 0x2FB7 DUP4 DUP4 PUSH2 0x3353 JUMP JUMPDEST SWAP1 POP DUP1 PUSH1 0xE SLOAD PUSH2 0x2FC7 SWAP2 SWAP1 PUSH2 0x326E JUMP JUMPDEST PUSH1 0xE SSTORE PUSH1 0xF SLOAD PUSH2 0x2FD8 SWAP1 DUP4 SWAP1 PUSH2 0x3281 JUMP JUMPDEST PUSH1 0xF SSTORE POP POP POP POP JUMP JUMPDEST PUSH0 PUSH1 0x64 PUSH1 0x10 SLOAD DUP5 PUSH2 0x2FF2 SWAP2 SWAP1 PUSH2 0x3353 JUMP JUMPDEST PUSH2 0x2FFC SWAP2 SWAP1 PUSH2 0x336A JUMP JUMPDEST SWAP1 POP DUP1 ISZERO PUSH2 0x27FB JUMPI PUSH0 PUSH2 0x300F DUP4 DUP4 PUSH2 0x3353 JUMP JUMPDEST SWAP1 POP DUP2 PUSH1 0xD SLOAD PUSH2 0x301F SWAP2 SWAP1 PUSH2 0x326E JUMP JUMPDEST PUSH1 0xD SSTORE PUSH1 0xE SLOAD PUSH2 0x3030 SWAP1 DUP3 SWAP1 PUSH2 0x326E JUMP JUMPDEST PUSH1 0xE SSTORE PUSH1 0x40 MLOAD DUP3 DUP2 MSTORE PUSH0 SWAP1 PUSH1 0x1 PUSH1 0x1 PUSH1 0xA0 SHL SUB DUP8 AND SWAP1 PUSH0 DUP1 MLOAD PUSH1 0x20 PUSH2 0x348E DUP4 CODECOPY DUP2 MLOAD SWAP2 MSTORE SWAP1 PUSH1 0x20 ADD PUSH2 0x2444 JUMP JUMPDEST PUSH0 PUSH1 0x64 PUSH2 0x306A DUP5 DUP8 PUSH2 0x3353 JUMP JUMPDEST PUSH2 0x3074 SWAP2 SWAP1 PUSH2 0x336A JUMP JUMPDEST SWAP1 POP DUP1 ISZERO PUSH2 0x30ED JUMPI PUSH0 PUSH2 0x3087 DUP6 DUP4 PUSH2 0x3353 JUMP JUMPDEST PUSH1 0x1 PUSH1 0x1 PUSH1 0xA0 SHL SUB DUP5 AND PUSH0 SWAP1 DUP2 MSTORE PUSH1 0x6 PUSH1 0x20 MSTORE PUSH1 0x40 SWAP1 KECCAK256 SLOAD SWAP1 SWAP2 POP PUSH2 0x30AD SWAP1 DUP3 SWAP1 PUSH2 0x3281 JUMP JUMPDEST PUSH1 0x1 PUSH1 0x1 PUSH1 0xA0 SHL SUB DUP1 DUP6 AND PUSH0 DUP2 DUP2 MSTORE PUSH1 0x6 PUSH1 0x20 MSTORE PUSH1 0x40 SWAP1 DUP2 SWAP1 KECCAK256 SWAP4 SWAP1 SWAP4 SSTORE SWAP2 MLOAD SWAP1 DUP10 AND SWAP1 PUSH0 DUP1 MLOAD PUSH1 0x20 PUSH2 0x348E DUP4 CODECOPY DUP2 MLOAD SWAP2 MSTORE SWAP1 PUSH2 0x2F7E SWAP1 DUP7 DUP2 MSTORE PUSH1 0x20 ADD SWAP1 JUMP JUMPDEST POP POP POP POP POP POP JUMP JUMPDEST PUSH0 PUSH1 0x20 DUP3 DUP5 SUB SLT ISZERO PUSH2 0x3105 JUMPI PUSH0 DUP1 REVERT JUMPDEST POP CALLDATALOAD SWAP2 SWAP1 POP JUMP JUMPDEST PUSH1 0x20 DUP2 MSTORE PUSH0 DUP3 MLOAD DUP1 PUSH1 0x20 DUP5 ADD MSTORE DUP1 PUSH1 0x20 DUP6 ADD PUSH1 0x40 DUP6 ADD MCOPY PUSH0 PUSH1 0x40 DUP3 DUP6 ADD ADD MSTORE PUSH1 0x40 PUSH1 0x1F NOT PUSH1 0x1F DUP4 ADD AND DUP5 ADD ADD SWAP2 POP POP SWAP3 SWAP2 POP POP JUMP JUMPDEST PUSH1 0x1 PUSH1 0x1 PUSH1 0xA0 SHL SUB DUP2 AND DUP2 EQ PUSH2 0xB76 JUMPI PUSH0 DUP1 REVERT JUMPDEST PUSH0 DUP1 PUSH1 0x40 DUP4 DUP6 SUB SLT ISZERO PUSH2 0x3166 JUMPI PUSH0 DUP1 REVERT JUMPDEST DUP3 CALLDATALOAD PUSH2 0x3171 DUP2 PUSH2 0x3141 JUMP JUMPDEST SWAP5 PUSH1 0x20 SWAP4 SWAP1 SWAP4 ADD CALLDATALOAD SWAP4 POP POP POP JUMP JUMPDEST PUSH0 DUP1 PUSH0 PUSH1 0x60 DUP5 DUP7 SUB SLT ISZERO PUSH2 0x3191 JUMPI PUSH0 DUP1 REVERT JUMPDEST DUP4 CALLDATALOAD PUSH2 0x319C DUP2 PUSH2 0x3141 JUMP JUMPDEST SWAP3 POP PUSH1 0x20 DUP5 ADD CALLDATALOAD PUSH2 0x31AC DUP2 PUSH2 0x3141 JUMP JUMPDEST SWAP3 SWAP6 SWAP3 SWAP5 POP POP POP PUSH1 0x40 SWAP2 SWAP1 SWAP2 ADD CALLDATALOAD SWAP1 JUMP JUMPDEST PUSH0 PUSH1 0x20 DUP3 DUP5 SUB SLT ISZERO PUSH2 0x31CD JUMPI PUSH0 DUP1 REVERT JUMPDEST DUP2 CALLDATALOAD PUSH2 0x24CE DUP2 PUSH2 0x3141 JUMP JUMPDEST DUP1 ISZERO ISZERO DUP2 EQ PUSH2 0xB76 JUMPI PUSH0 DUP1 REVERT JUMPDEST PUSH0 DUP1 PUSH1 0x40 DUP4 DUP6 SUB SLT ISZERO PUSH2 0x31F6 JUMPI PUSH0 DUP1 REVERT JUMPDEST DUP3 CALLDATALOAD SWAP2 POP PUSH1 0x20 DUP4 ADD CALLDATALOAD PUSH2 0x3208 DUP2 PUSH2 0x31D8 JUMP JUMPDEST DUP1 SWAP2 POP POP SWAP3 POP SWAP3 SWAP1 POP JUMP JUMPDEST PUSH0 PUSH1 0x20 DUP3 DUP5 SUB SLT ISZERO PUSH2 0x3223 JUMPI PUSH0 DUP1 REVERT JUMPDEST DUP2 CALLDATALOAD PUSH2 0x24CE DUP2 PUSH2 0x31D8 JUMP JUMPDEST PUSH0 DUP1 PUSH1 0x40 DUP4 DUP6 SUB SLT ISZERO PUSH2 0x323F JUMPI PUSH0 DUP1 REVERT JUMPDEST DUP3 CALLDATALOAD PUSH2 0x324A DUP2 PUSH2 0x3141 JUMP JUMPDEST SWAP2 POP PUSH1 0x20 DUP4 ADD CALLDATALOAD PUSH2 0x3208 DUP2 PUSH2 0x3141 JUMP JUMPDEST PUSH4 0x4E487B71 PUSH1 0xE0 SHL PUSH0 MSTORE PUSH1 0x11 PUSH1 0x4 MSTORE PUSH1 0x24 PUSH0 REVERT JUMPDEST DUP2 DUP2 SUB DUP2 DUP2 GT ISZERO PUSH2 0xA83 JUMPI PUSH2 0xA83 PUSH2 0x325A JUMP JUMPDEST DUP1 DUP3 ADD DUP1 DUP3 GT ISZERO PUSH2 0xA83 JUMPI PUSH2 0xA83 PUSH2 0x325A JUMP JUMPDEST PUSH1 0x1 DUP2 DUP2 SHR SWAP1 DUP3 AND DUP1 PUSH2 0x32A8 JUMPI PUSH1 0x7F DUP3 AND SWAP2 POP JUMPDEST PUSH1 0x20 DUP3 LT DUP2 SUB PUSH2 0x32C6 JUMPI PUSH4 0x4E487B71 PUSH1 0xE0 SHL PUSH0 MSTORE PUSH1 0x22 PUSH1 0x4 MSTORE PUSH1 0x24 PUSH0 REVERT JUMPDEST POP SWAP2 SWAP1 POP JUMP JUMPDEST PUSH1 0x20 DUP1 DUP3 MSTORE DUP2 DUP2 ADD MSTORE PUSH32 0x4F776E61626C653A2063616C6C6572206973206E6F7420746865206F776E6572 PUSH1 0x40 DUP3 ADD MSTORE PUSH1 0x60 ADD SWAP1 JUMP JUMPDEST PUSH1 0x20 DUP1 DUP3 MSTORE PUSH1 0x1F SWAP1 DUP3 ADD MSTORE PUSH32 0x546F74616C20666565732065786365656420746865203525206C696D69742E00 PUSH1 0x40 DUP3 ADD MSTORE PUSH1 0x60 ADD SWAP1 JUMP JUMPDEST PUSH0 PUSH1 0x20 DUP3 DUP5 SUB SLT ISZERO PUSH2 0x3348 JUMPI PUSH0 DUP1 REVERT JUMPDEST DUP2 MLOAD PUSH2 0x24CE DUP2 PUSH2 0x31D8 JUMP JUMPDEST DUP1 DUP3 MUL DUP2 ISZERO DUP3 DUP3 DIV DUP5 EQ OR PUSH2 0xA83 JUMPI PUSH2 0xA83 PUSH2 0x325A JUMP JUMPDEST PUSH0 DUP3 PUSH2 0x3384 JUMPI PUSH4 0x4E487B71 PUSH1 0xE0 SHL PUSH0 MSTORE PUSH1 0x12 PUSH1 0x4 MSTORE PUSH1 0x24 PUSH0 REVERT JUMPDEST POP DIV SWAP1 JUMP JUMPDEST PUSH4 0x4E487B71 PUSH1 0xE0 SHL PUSH0 MSTORE PUSH1 0x32 PUSH1 0x4 MSTORE PUSH1 0x24 PUSH0 REVERT JUMPDEST PUSH4 0x4E487B71 PUSH1 0xE0 SHL PUSH0 MSTORE PUSH1 0x31 PUSH1 0x4 MSTORE PUSH1 0x24 PUSH0 REVERT JUMPDEST PUSH0 PUSH1 0x20 DUP3 DUP5 SUB SLT ISZERO PUSH2 0x33C1 JUMPI PUSH0 DUP1 REVERT JUMPDEST DUP2 MLOAD PUSH2 0x24CE DUP2 PUSH2 0x3141 JUMP JUMPDEST PUSH0 DUP2 MLOAD DUP1 DUP5 MSTORE PUSH1 0x20 DUP1 DUP6 ADD SWAP5 POP PUSH1 0x20 DUP5 ADD PUSH0 JUMPDEST DUP4 DUP2 LT ISZERO PUSH2 0x3404 JUMPI DUP2 MLOAD PUSH1 0x1 PUSH1 0x1 PUSH1 0xA0 SHL SUB AND DUP8 MSTORE SWAP6 DUP3 ADD SWAP6 SWAP1 DUP3 ADD SWAP1 PUSH1 0x1 ADD PUSH2 0x33DF JUMP JUMPDEST POP SWAP5 SWAP6 SWAP5 POP POP POP POP POP JUMP JUMPDEST DUP6 DUP2 MSTORE DUP5 PUSH1 0x20 DUP3 ADD MSTORE PUSH1 0xA0 PUSH1 0x40 DUP3 ADD MSTORE PUSH0 PUSH2 0x342D PUSH1 0xA0 DUP4 ADD DUP7 PUSH2 0x33CC JUMP JUMPDEST PUSH1 0x1 PUSH1 0x1 PUSH1 0xA0 SHL SUB SWAP5 SWAP1 SWAP5 AND PUSH1 0x60 DUP4 ADD MSTORE POP PUSH1 0x80 ADD MSTORE SWAP4 SWAP3 POP POP POP JUMP JUMPDEST DUP3 DUP2 MSTORE PUSH1 0x40 PUSH1 0x20 DUP3 ADD MSTORE PUSH0 PUSH2 0x255E PUSH1 0x40 DUP4 ADD DUP5 PUSH2 0x33CC JUMP JUMPDEST PUSH0 DUP1 PUSH0 PUSH1 0x60 DUP5 DUP7 SUB SLT ISZERO PUSH2 0x3474 JUMPI PUSH0 DUP1 REVERT JUMPDEST DUP4 MLOAD SWAP3 POP PUSH1 0x20 DUP5 ADD MLOAD SWAP2 POP PUSH1 0x40 DUP5 ADD MLOAD SWAP1 POP SWAP3 POP SWAP3 POP SWAP3 JUMP INVALID 0xDD CALLCODE MSTORE 0xAD SHL 0xE2 0xC8 SWAP12 PUSH10 0xC2B068FC378DAA952BA7 CALL PUSH4 0xC4A11628 CREATE2 GAS 0x4D CREATE2 0x23 0xB3 0xEF LOG2 PUSH5 0x6970667358 0x22 SLT KECCAK256 AND LOG4 DUP1 0xA7 0xBD 0x24 0xD2 NUMBER SMOD LOG3 0xEB DUP2 0xE3 BLOBBASEFEE SWAP4 0xD9 0xAB 0x26 SWAP12 PUSH8 0xFA457011F5EB058C SSTORE TLOAD TSTORE CREATE PUSH5 0x736F6C6343 STOP ADDMOD NOT STOP CALLER "
		},
		"gasEstimates": {
			"creation": {
				"codeDepositCost": "2707800",
				"executionCost": "infinite",
				"totalCost": "infinite"
			},
			"external": {
				"_burnFee()": "2449",
				"_developerFee()": "2406",
				"_liquidityPoolFee()": "2406",
				"_marketingFee()": "2451",
				"_maxTxAmount()": "2384",
				"_reflectionFee()": "2428",
				"allowance(address,address)": "infinite",
				"approve(address,uint256)": "24678",
				"balanceOf(address)": "infinite",
				"burn(uint256)": "infinite",
				"burnFrom(address,uint256)": "infinite",
				"deadAddress()": "infinite",
				"decimals()": "266",
				"decreaseAllowance(address,uint256)": "26945",
				"developerAddress()": "2403",
				"excludeAccountFromReward(address)": "infinite",
				"excludeFromFee(address)": "26809",
				"includeAccountinReward(address)": "infinite",
				"includeInFee(address)": "26846",
				"increaseAllowance(address,uint256)": "infinite",
				"isExcluded(address)": "2629",
				"isExcludedFromFee(address)": "2607",
				"marketingAddress()": "2425",
				"name()": "infinite",
				"owner()": "2464",
				"presale(bool)": "infinite",
				"recoverETHfromContract()": "infinite",
				"recoverTokensFromContract(address,uint256)": "infinite",
				"reflect(uint256)": "infinite",
				"reflectionFromToken(uint256,bool)": "infinite",
				"renounceOwnership()": "28160",
				"setBurnFee(uint256)": "infinite",
				"setDeveloperAddress(address)": "28233",
				"setDeveloperFee(uint256)": "infinite",
				"setLiquidityPoolFee(uint256)": "infinite",
				"setMarketingAddress(address)": "28256",
				"setMarketingFee(uint256)": "infinite",
				"setMaxTxAmount(uint256)": "30272",
				"setReflectionFee(uint256)": "infinite",
				"setSwapAndLiquifyEnabled(bool)": "27794",
				"swapAndLiquifyEnabled()": "2476",
				"symbol()": "infinite",
				"totalFeesRedistributed()": "2403",
				"totalSupply()": "2415",
				"transfer(address,uint256)": "infinite",
				"transferFrom(address,address,uint256)": "infinite",
				"transferOwnership(address)": "infinite",
				"uniswapV2Pair()": "infinite",
				"uniswapV2Router()": "infinite"
			},
			"internal": {
				"_burn(address,uint256)": "infinite",
				"_getCompleteTaxValue(uint256)": "infinite",
				"_getCurrentSupply()": "infinite",
				"_getRate()": "infinite",
				"_getTransferValues(uint256)": "infinite",
				"_mintStart(address,uint256,uint256)": "infinite",
				"_reflectFee(uint256,uint256)": "infinite",
				"_tokenTransfer(address,address,uint256,bool)": "infinite",
				"_transfer(address,address,uint256)": "infinite",
				"_transferStandard(address,address,uint256)": "infinite",
				"addLiquidity(uint256,uint256)": "infinite",
				"burnFeeTransfer(address,uint256,uint256)": "infinite",
				"feeTransfer(address,uint256,uint256,uint256,address)": "infinite",
				"getBalance()": "infinite",
				"removeAllFee()": "infinite",
				"restoreAllFee()": "infinite",
				"swapTokens(uint256)": "infinite",
				"swapTokensForEth(uint256)": "infinite",
				"tokenFromReflection(uint256)": "infinite",
				"transferToAddressETH(address payable,uint256)": "infinite"
			}
		},
		"methodIdentifiers": {
			"_burnFee()": "c0b0fda2",
			"_developerFee()": "48de478e",
			"_liquidityPoolFee()": "8a0623b4",
			"_marketingFee()": "22976e0d",
			"_maxTxAmount()": "7d1db4a5",
			"_reflectionFee()": "3206b4aa",
			"allowance(address,address)": "dd62ed3e",
			"approve(address,uint256)": "095ea7b3",
			"balanceOf(address)": "70a08231",
			"burn(uint256)": "42966c68",
			"burnFrom(address,uint256)": "79cc6790",
			"deadAddress()": "27c8f835",
			"decimals()": "313ce567",
			"decreaseAllowance(address,uint256)": "a457c2d7",
			"developerAddress()": "caccd7f7",
			"excludeAccountFromReward(address)": "6049876e",
			"excludeFromFee(address)": "437823ec",
			"includeAccountinReward(address)": "fdeb889f",
			"includeInFee(address)": "ea2f0b37",
			"increaseAllowance(address,uint256)": "39509351",
			"isExcluded(address)": "cba0e996",
			"isExcludedFromFee(address)": "5342acb4",
			"marketingAddress()": "a5ece941",
			"name()": "06fdde03",
			"owner()": "8da5cb5b",
			"presale(bool)": "edc2fcfb",
			"recoverETHfromContract()": "ce831ed5",
			"recoverTokensFromContract(address,uint256)": "e6be4a72",
			"reflect(uint256)": "053ab182",
			"reflectionFromToken(uint256,bool)": "4549b039",
			"renounceOwnership()": "715018a6",
			"setBurnFee(uint256)": "4bf2c7c9",
			"setDeveloperAddress(address)": "dcc345f2",
			"setDeveloperFee(uint256)": "6c317232",
			"setLiquidityPoolFee(uint256)": "a94c8dd2",
			"setMarketingAddress(address)": "906e9dd0",
			"setMarketingFee(uint256)": "625e764c",
			"setMaxTxAmount(uint256)": "ec28438a",
			"setReflectionFee(uint256)": "e547be69",
			"setSwapAndLiquifyEnabled(bool)": "c49b9a80",
			"swapAndLiquifyEnabled()": "4a74bb02",
			"symbol()": "95d89b41",
			"totalFeesRedistributed()": "32035504",
			"totalSupply()": "18160ddd",
			"transfer(address,uint256)": "a9059cbb",
			"transferFrom(address,address,uint256)": "23b872dd",
			"transferOwnership(address)": "f2fde38b",
			"uniswapV2Pair()": "49bd5a5e",
			"uniswapV2Router()": "1694505e"
		}
	},
	"abi": [
		{
			"inputs": [],
			"stateMutability": "payable",
			"type": "constructor"
		},
		{
			"anonymous": false,
			"inputs": [
				{
					"indexed": true,
					"internalType": "address",
					"name": "owner",
					"type": "address"
				},
				{
					"indexed": true,
					"internalType": "address",
					"name": "spender",
					"type": "address"
				},
				{
					"indexed": false,
					"internalType": "uint256",
					"name": "value",
					"type": "uint256"
				}
			],
			"name": "Approval",
			"type": "event"
		},
		{
			"anonymous": false,
			"inputs": [
				{
					"indexed": false,
					"internalType": "string",
					"name": "",
					"type": "string"
				},
				{
					"indexed": false,
					"internalType": "address",
					"name": "",
					"type": "address"
				}
			],
			"name": "AuditLog",
			"type": "event"
		},
		{
			"anonymous": false,
			"inputs": [
				{
					"indexed": false,
					"internalType": "uint256",
					"name": "oldBurnFee",
					"type": "uint256"
				},
				{
					"indexed": false,
					"internalType": "uint256",
					"name": "newBurnFee",
					"type": "uint256"
				}
			],
			"name": "BurnFeeUpdated",
			"type": "event"
		},
		{
			"anonymous": false,
			"inputs": [
				{
					"indexed": false,
					"internalType": "address",
					"name": "oldAddress",
					"type": "address"
				},
				{
					"indexed": false,
					"internalType": "address",
					"name": "newAddress",
					"type": "address"
				}
			],
			"name": "DeveloperAddressUpdated",
			"type": "event"
		},
		{
			"anonymous": false,
			"inputs": [
				{
					"indexed": false,
					"internalType": "uint256",
					"name": "oldDeveloperFee",
					"type": "uint256"
				},
				{
					"indexed": false,
					"internalType": "uint256",
					"name": "newDeveloperFee",
					"type": "uint256"
				}
			],
			"name": "DeveloperFeeUpdated",
			"type": "event"
		},
		{
			"anonymous": false,
			"inputs": [
				{
					"indexed": false,
					"internalType": "uint256",
					"name": "oldLiquidityPoolFee",
					"type": "uint256"
				},
				{
					"indexed": false,
					"internalType": "uint256",
					"name": "newLiquidityPoolFee",
					"type": "uint256"
				}
			],
			"name": "LiquidityPoolFeeUpdated",
			"type": "event"
		},
		{
			"anonymous": false,
			"inputs": [
				{
					"indexed": false,
					"internalType": "string",
					"name": "",
					"type": "string"
				},
				{
					"indexed": false,
					"internalType": "uint256",
					"name": "",
					"type": "uint256"
				}
			],
			"name": "Log",
			"type": "event"
		},
		{
			"anonymous": false,
			"inputs": [
				{
					"indexed": false,
					"internalType": "address",
					"name": "oldAddress",
					"type": "address"
				},
				{
					"indexed": false,
					"internalType": "address",
					"name": "newAddress",
					"type": "address"
				}
			],
			"name": "MarketingAddressUpdated",
			"type": "event"
		},
		{
			"anonymous": false,
			"inputs": [
				{
					"indexed": false,
					"internalType": "uint256",
					"name": "oldMarketingFee",
					"type": "uint256"
				},
				{
					"indexed": false,
					"internalType": "uint256",
					"name": "newMarketingFee",
					"type": "uint256"
				}
			],
			"name": "MarketingFeeUpdated",
			"type": "event"
		},
		{
			"anonymous": false,
			"inputs": [
				{
					"indexed": false,
					"internalType": "uint256",
					"name": "oldMaxTxAmount",
					"type": "uint256"
				},
				{
					"indexed": false,
					"internalType": "uint256",
					"name": "newMaxTxAmount",
					"type": "uint256"
				}
			],
			"name": "MaxTxAmountUpdated",
			"type": "event"
		},
		{
			"anonymous": false,
			"inputs": [
				{
					"indexed": true,
					"internalType": "address",
					"name": "previousOwner",
					"type": "address"
				},
				{
					"indexed": true,
					"internalType": "address",
					"name": "newOwner",
					"type": "address"
				}
			],
			"name": "OwnershipTransferred",
			"type": "event"
		},
		{
			"anonymous": false,
			"inputs": [
				{
					"indexed": false,
					"internalType": "bool",
					"name": "presale",
					"type": "bool"
				}
			],
			"name": "PresaleFlagUpdated",
			"type": "event"
		},
		{
			"anonymous": false,
			"inputs": [
				{
					"indexed": false,
					"internalType": "uint256",
					"name": "oldReflectionFee",
					"type": "uint256"
				},
				{
					"indexed": false,
					"internalType": "uint256",
					"name": "newReflectionFee",
					"type": "uint256"
				}
			],
			"name": "ReflectionFeeUpdated",
			"type": "event"
		},
		{
			"anonymous": false,
			"inputs": [
				{
					"indexed": false,
					"internalType": "uint256",
					"name": "tokensSwapped",
					"type": "uint256"
				},
				{
					"indexed": false,
					"internalType": "uint256",
					"name": "ethReceived",
					"type": "uint256"
				},
				{
					"indexed": false,
					"internalType": "uint256",
					"name": "tokensIntoLiqudity",
					"type": "uint256"
				}
			],
			"name": "SwapAndLiquify",
			"type": "event"
		},
		{
			"anonymous": false,
			"inputs": [
				{
					"indexed": false,
					"internalType": "bool",
					"name": "enabled",
					"type": "bool"
				}
			],
			"name": "SwapAndLiquifyEnabledUpdated",
			"type": "event"
		},
		{
			"anonymous": false,
			"inputs": [
				{
					"indexed": false,
					"internalType": "uint256",
					"name": "amountIn",
					"type": "uint256"
				},
				{
					"indexed": false,
					"internalType": "address[]",
					"name": "path",
					"type": "address[]"
				}
			],
			"name": "SwapTokensForETH",
			"type": "event"
		},
		{
			"anonymous": false,
			"inputs": [
				{
					"indexed": true,
					"internalType": "address",
					"name": "from",
					"type": "address"
				},
				{
					"indexed": true,
					"internalType": "address",
					"name": "to",
					"type": "address"
				},
				{
					"indexed": false,
					"internalType": "uint256",
					"name": "value",
					"type": "uint256"
				}
			],
			"name": "Transfer",
			"type": "event"
		},
		{
			"anonymous": false,
			"inputs": [
				{
					"indexed": true,
					"internalType": "address",
					"name": "recipient",
					"type": "address"
				},
				{
					"indexed": false,
					"internalType": "uint256",
					"name": "amount",
					"type": "uint256"
				}
			],
			"name": "TransferFailed",
			"type": "event"
		},
		{
			"inputs": [],
			"name": "_burnFee",
			"outputs": [
				{
					"internalType": "uint256",
					"name": "",
					"type": "uint256"
				}
			],
			"stateMutability": "view",
			"type": "function"
		},
		{
			"inputs": [],
			"name": "_developerFee",
			"outputs": [
				{
					"internalType": "uint256",
					"name": "",
					"type": "uint256"
				}
			],
			"stateMutability": "view",
			"type": "function"
		},
		{
			"inputs": [],
			"name": "_liquidityPoolFee",
			"outputs": [
				{
					"internalType": "uint256",
					"name": "",
					"type": "uint256"
				}
			],
			"stateMutability": "view",
			"type": "function"
		},
		{
			"inputs": [],
			"name": "_marketingFee",
			"outputs": [
				{
					"internalType": "uint256",
					"name": "",
					"type": "uint256"
				}
			],
			"stateMutability": "view",
			"type": "function"
		},
		{
			"inputs": [],
			"name": "_maxTxAmount",
			"outputs": [
				{
					"internalType": "uint256",
					"name": "",
					"type": "uint256"
				}
			],
			"stateMutability": "view",
			"type": "function"
		},
		{
			"inputs": [],
			"name": "_reflectionFee",
			"outputs": [
				{
					"internalType": "uint256",
					"name": "",
					"type": "uint256"
				}
			],
			"stateMutability": "view",
			"type": "function"
		},
		{
			"inputs": [
				{
					"internalType": "address",
					"name": "owner",
					"type": "address"
				},
				{
					"internalType": "address",
					"name": "spender",
					"type": "address"
				}
			],
			"name": "allowance",
			"outputs": [
				{
					"internalType": "uint256",
					"name": "",
					"type": "uint256"
				}
			],
			"stateMutability": "view",
			"type": "function"
		},
		{
			"inputs": [
				{
					"internalType": "address",
					"name": "spender",
					"type": "address"
				},
				{
					"internalType": "uint256",
					"name": "amount",
					"type": "uint256"
				}
			],
			"name": "approve",
			"outputs": [
				{
					"internalType": "bool",
					"name": "",
					"type": "bool"
				}
			],
			"stateMutability": "nonpayable",
			"type": "function"
		},
		{
			"inputs": [
				{
					"internalType": "address",
					"name": "sender",
					"type": "address"
				}
			],
			"name": "balanceOf",
			"outputs": [
				{
					"internalType": "uint256",
					"name": "",
					"type": "uint256"
				}
			],
			"stateMutability": "view",
			"type": "function"
		},
		{
			"inputs": [
				{
					"internalType": "uint256",
					"name": "amount",
					"type": "uint256"
				}
			],
			"name": "burn",
			"outputs": [],
			"stateMutability": "nonpayable",
			"type": "function"
		},
		{
			"inputs": [
				{
					"internalType": "address",
					"name": "account",
					"type": "address"
				},
				{
					"internalType": "uint256",
					"name": "amount",
					"type": "uint256"
				}
			],
			"name": "burnFrom",
			"outputs": [],
			"stateMutability": "nonpayable",
			"type": "function"
		},
		{
			"inputs": [],
			"name": "deadAddress",
			"outputs": [
				{
					"internalType": "address",
					"name": "",
					"type": "address"
				}
			],
			"stateMutability": "view",
			"type": "function"
		},
		{
			"inputs": [],
			"name": "decimals",
			"outputs": [
				{
					"internalType": "uint8",
					"name": "",
					"type": "uint8"
				}
			],
			"stateMutability": "view",
			"type": "function"
		},
		{
			"inputs": [
				{
					"internalType": "address",
					"name": "spender",
					"type": "address"
				},
				{
					"internalType": "uint256",
					"name": "subtractedValue",
					"type": "uint256"
				}
			],
			"name": "decreaseAllowance",
			"outputs": [
				{
					"internalType": "bool",
					"name": "",
					"type": "bool"
				}
			],
			"stateMutability": "nonpayable",
			"type": "function"
		},
		{
			"inputs": [],
			"name": "developerAddress",
			"outputs": [
				{
					"internalType": "address payable",
					"name": "",
					"type": "address"
				}
			],
			"stateMutability": "view",
			"type": "function"
		},
		{
			"inputs": [
				{
					"internalType": "address",
					"name": "account",
					"type": "address"
				}
			],
			"name": "excludeAccountFromReward",
			"outputs": [],
			"stateMutability": "nonpayable",
			"type": "function"
		},
		{
			"inputs": [
				{
					"internalType": "address",
					"name": "account",
					"type": "address"
				}
			],
			"name": "excludeFromFee",
			"outputs": [],
			"stateMutability": "nonpayable",
			"type": "function"
		},
		{
			"inputs": [
				{
					"internalType": "address",
					"name": "account",
					"type": "address"
				}
			],
			"name": "includeAccountinReward",
			"outputs": [],
			"stateMutability": "nonpayable",
			"type": "function"
		},
		{
			"inputs": [
				{
					"internalType": "address",
					"name": "account",
					"type": "address"
				}
			],
			"name": "includeInFee",
			"outputs": [],
			"stateMutability": "nonpayable",
			"type": "function"
		},
		{
			"inputs": [
				{
					"internalType": "address",
					"name": "spender",
					"type": "address"
				},
				{
					"internalType": "uint256",
					"name": "addedValue",
					"type": "uint256"
				}
			],
			"name": "increaseAllowance",
			"outputs": [
				{
					"internalType": "bool",
					"name": "",
					"type": "bool"
				}
			],
			"stateMutability": "nonpayable",
			"type": "function"
		},
		{
			"inputs": [
				{
					"internalType": "address",
					"name": "account",
					"type": "address"
				}
			],
			"name": "isExcluded",
			"outputs": [
				{
					"internalType": "bool",
					"name": "",
					"type": "bool"
				}
			],
			"stateMutability": "view",
			"type": "function"
		},
		{
			"inputs": [
				{
					"internalType": "address",
					"name": "account",
					"type": "address"
				}
			],
			"name": "isExcludedFromFee",
			"outputs": [
				{
					"internalType": "bool",
					"name": "",
					"type": "bool"
				}
			],
			"stateMutability": "view",
			"type": "function"
		},
		{
			"inputs": [],
			"name": "marketingAddress",
			"outputs": [
				{
					"internalType": "address payable",
					"name": "",
					"type": "address"
				}
			],
			"stateMutability": "view",
			"type": "function"
		},
		{
			"inputs": [],
			"name": "name",
			"outputs": [
				{
					"internalType": "string",
					"name": "",
					"type": "string"
				}
			],
			"stateMutability": "view",
			"type": "function"
		},
		{
			"inputs": [],
			"name": "owner",
			"outputs": [
				{
					"internalType": "address",
					"name": "",
					"type": "address"
				}
			],
			"stateMutability": "view",
			"type": "function"
		},
		{
			"inputs": [
				{
					"internalType": "bool",
					"name": "_presale",
					"type": "bool"
				}
			],
			"name": "presale",
			"outputs": [],
			"stateMutability": "nonpayable",
			"type": "function"
		},
		{
			"inputs": [],
			"name": "recoverETHfromContract",
			"outputs": [],
			"stateMutability": "nonpayable",
			"type": "function"
		},
		{
			"inputs": [
				{
					"internalType": "address",
					"name": "_tokenAddress",
					"type": "address"
				},
				{
					"internalType": "uint256",
					"name": "_amount",
					"type": "uint256"
				}
			],
			"name": "recoverTokensFromContract",
			"outputs": [],
			"stateMutability": "nonpayable",
			"type": "function"
		},
		{
			"inputs": [
				{
					"internalType": "uint256",
					"name": "tAmount",
					"type": "uint256"
				}
			],
			"name": "reflect",
			"outputs": [],
			"stateMutability": "nonpayable",
			"type": "function"
		},
		{
			"inputs": [
				{
					"internalType": "uint256",
					"name": "tAmount",
					"type": "uint256"
				},
				{
					"internalType": "bool",
					"name": "deductTransferFee",
					"type": "bool"
				}
			],
			"name": "reflectionFromToken",
			"outputs": [
				{
					"internalType": "uint256",
					"name": "",
					"type": "uint256"
				}
			],
			"stateMutability": "view",
			"type": "function"
		},
		{
			"inputs": [],
			"name": "renounceOwnership",
			"outputs": [],
			"stateMutability": "nonpayable",
			"type": "function"
		},
		{
			"inputs": [
				{
					"internalType": "uint256",
					"name": "burnFee_",
					"type": "uint256"
				}
			],
			"name": "setBurnFee",
			"outputs": [],
			"stateMutability": "nonpayable",
			"type": "function"
		},
		{
			"inputs": [
				{
					"internalType": "address",
					"name": "_developerAddress",
					"type": "address"
				}
			],
			"name": "setDeveloperAddress",
			"outputs": [],
			"stateMutability": "nonpayable",
			"type": "function"
		},
		{
			"inputs": [
				{
					"internalType": "uint256",
					"name": "developerFee_",
					"type": "uint256"
				}
			],
			"name": "setDeveloperFee",
			"outputs": [],
			"stateMutability": "nonpayable",
			"type": "function"
		},
		{
			"inputs": [
				{
					"internalType": "uint256",
					"name": "liquidityPoolFee_",
					"type": "uint256"
				}
			],
			"name": "setLiquidityPoolFee",
			"outputs": [],
			"stateMutability": "nonpayable",
			"type": "function"
		},
		{
			"inputs": [
				{
					"internalType": "address",
					"name": "_marketingAddress",
					"type": "address"
				}
			],
			"name": "setMarketingAddress",
			"outputs": [],
			"stateMutability": "nonpayable",
			"type": "function"
		},
		{
			"inputs": [
				{
					"internalType": "uint256",
					"name": "marketingFee_",
					"type": "uint256"
				}
			],
			"name": "setMarketingFee",
			"outputs": [],
			"stateMutability": "nonpayable",
			"type": "function"
		},
		{
			"inputs": [
				{
					"internalType": "uint256",
					"name": "maxTxAmount",
					"type": "uint256"
				}
			],
			"name": "setMaxTxAmount",
			"outputs": [],
			"stateMutability": "nonpayable",
			"type": "function"
		},
		{
			"inputs": [
				{
					"internalType": "uint256",
					"name": "reflectionFee_",
					"type": "uint256"
				}
			],
			"name": "setReflectionFee",
			"outputs": [],
			"stateMutability": "nonpayable",
			"type": "function"
		},
		{
			"inputs": [
				{
					"internalType": "bool",
					"name": "_enabled",
					"type": "bool"
				}
			],
			"name": "setSwapAndLiquifyEnabled",
			"outputs": [],
			"stateMutability": "nonpayable",
			"type": "function"
		},
		{
			"inputs": [],
			"name": "swapAndLiquifyEnabled",
			"outputs": [
				{
					"internalType": "bool",
					"name": "",
					"type": "bool"
				}
			],
			"stateMutability": "view",
			"type": "function"
		},
		{
			"inputs": [],
			"name": "symbol",
			"outputs": [
				{
					"internalType": "string",
					"name": "",
					"type": "string"
				}
			],
			"stateMutability": "view",
			"type": "function"
		},
		{
			"inputs": [],
			"name": "totalFeesRedistributed",
			"outputs": [
				{
					"internalType": "uint256",
					"name": "",
					"type": "uint256"
				}
			],
			"stateMutability": "view",
			"type": "function"
		},
		{
			"inputs": [],
			"name": "totalSupply",
			"outputs": [
				{
					"internalType": "uint256",
					"name": "",
					"type": "uint256"
				}
			],
			"stateMutability": "view",
			"type": "function"
		},
		{
			"inputs": [
				{
					"internalType": "address",
					"name": "recipient",
					"type": "address"
				},
				{
					"internalType": "uint256",
					"name": "amount",
					"type": "uint256"
				}
			],
			"name": "transfer",
			"outputs": [
				{
					"internalType": "bool",
					"name": "",
					"type": "bool"
				}
			],
			"stateMutability": "nonpayable",
			"type": "function"
		},
		{
			"inputs": [
				{
					"internalType": "address",
					"name": "sender",
					"type": "address"
				},
				{
					"internalType": "address",
					"name": "recipient",
					"type": "address"
				},
				{
					"internalType": "uint256",
					"name": "amount",
					"type": "uint256"
				}
			],
			"name": "transferFrom",
			"outputs": [
				{
					"internalType": "bool",
					"name": "",
					"type": "bool"
				}
			],
			"stateMutability": "nonpayable",
			"type": "function"
		},
		{
			"inputs": [
				{
					"internalType": "address",
					"name": "newOwner",
					"type": "address"
				}
			],
			"name": "transferOwnership",
			"outputs": [],
			"stateMutability": "nonpayable",
			"type": "function"
		},
		{
			"inputs": [],
			"name": "uniswapV2Pair",
			"outputs": [
				{
					"internalType": "address",
					"name": "",
					"type": "address"
				}
			],
			"stateMutability": "view",
			"type": "function"
		},
		{
			"inputs": [],
			"name": "uniswapV2Router",
			"outputs": [
				{
					"internalType": "contract IUniswapV2Router02",
					"name": "",
					"type": "address"
				}
			],
			"stateMutability": "view",
			"type": "function"
		},
		{
			"stateMutability": "payable",
			"type": "receive"
		}
	]
}