{
	"data": {
		"bytecode": {
			"linkReferences": {},
			"object": "600b80546001600160a01b031990811673ed001ebb1a71dc6df6659c4e4edb070342fd4a1f17909155600c8054821673b5df28f0d138275c29536400c1452a816911b77a179055600d8054909116732c9bad149bef185d6b90daf9857aba8841f4dc841790555f6010556022805461ff001916610100908117909155600a60c090815269436f666679204465466960b01b60e0526101406040526005825264434f46464960d81b610120529060036100b783826106c2565b5060046100c482826106c2565b5050506100dd6100d86103e360201b60201c565b6103e7565b6100e96012600a610877565b6100f790633b9aca0061088c565b600e819055610107905f196108b7565b610112905f196108ca565b600f5560016011819055601281905560158190556016819055601781905560188190556019819055601a819055601b819055601c8190555f601d819055601e81905561015e82806108dd565b61016891906108dd565b61017291906108dd565b6013819055601455600e546103e89061018c90600561088c565b61019691906108f0565b601f819055602055600e54612710906101b090600261088c565b6101ba91906108f0565b6021819055505f737a250d5630b4cf539739df2c5dacb4c659f2488d9050806001600160a01b031663c45a01556040518163ffffffff1660e01b8152600401602060405180830381865afa158015610214573d5f803e3d5ffd5b505050506040513d601f19601f820116820180604052508101906102389190610903565b6001600160a01b031663c9c6539630836001600160a01b031663ad5c46486040518163ffffffff1660e01b8152600401602060405180830381865afa158015610283573d5f803e3d5ffd5b505050506040513d601f19601f820116820180604052508101906102a79190610903565b6040516001600160e01b031960e085901b1681526001600160a01b039283166004820152911660248201526044016020604051808303815f875af11580156102f1573d5f803e3d5ffd5b505050506040513d601f19601f820116820180604052508101906103159190610903565b6001600160a01b0390811660a052811660808190526103379030905f19610438565b600160085f61034e6005546001600160a01b031690565b6001600160a01b03908116825260208083019390935260409182015f908120805495151560ff19968716179055600b54821681526008909352818320805485166001908117909155600c54821684528284208054861682179055600d5490911683528183208054851682179055308352912080549092161790556103dd6103d23390565b600f54600e54610561565b50610929565b3390565b600580546001600160a01b038381166001600160a01b0319831681179093556040519116919082907f8be0079c531659141344cd1fd0a4f28419497f9722a3daafe3b4186f6b6457e0905f90a35050565b6001600160a01b03831661049f5760405162461bcd60e51b8152602060048201526024808201527f45524332303a20617070726f76652066726f6d20746865207a65726f206164646044820152637265737360e01b60648201526084015b60405180910390fd5b6001600160a01b0382166105005760405162461bcd60e51b815260206004820152602260248201527f45524332303a20617070726f766520746f20746865207a65726f206164647265604482015261737360f01b6064820152608401610496565b6001600160a01b038381165f8181526001602090815260408083209487168084529482529182902085905590518481527f8c5be1e5ebec7d5bd14f71427d1e84f3dd0314c0f7b2291e5b200ac8c7c3b92591015b60405180910390a3505050565b6001600160a01b0383166105b75760405162461bcd60e51b815260206004820152601f60248201527f45524332303a206d696e7420746f20746865207a65726f2061646472657373006044820152606401610496565b6001600160a01b0383165f908152600660205260409020546105da9083906108dd565b6001600160a01b0384165f818152600660205260408082209390935591519091907fddf252ad1be2c89b69c2b068fc378daa952ba7f163c4a11628f55a4df523b3ef906105549085815260200190565b634e487b7160e01b5f52604160045260245ffd5b600181811c9082168061065257607f821691505b60208210810361067057634e487b7160e01b5f52602260045260245ffd5b50919050565b601f8211156106bd57805f5260205f20601f840160051c8101602085101561069b5750805b601f840160051c820191505b818110156106ba575f81556001016106a7565b50505b505050565b81516001600160401b038111156106db576106db61062a565b6106ef816106e9845461063e565b84610676565b602080601f831160018114610722575f841561070b5750858301515b5f19600386901b1c1916600185901b178555610779565b5f85815260208120601f198616915b8281101561075057888601518255948401946001909101908401610731565b508582101561076d57878501515f19600388901b60f8161c191681555b505060018460011b0185555b505050505050565b634e487b7160e01b5f52601160045260245ffd5b600181815b808511156107cf57815f19048211156107b5576107b5610781565b808516156107c257918102915b93841c939080029061079a565b509250929050565b5f826107e557506001610871565b816107f157505f610871565b816001811461080757600281146108115761082d565b6001915050610871565b60ff84111561082257610822610781565b50506001821b610871565b5060208310610133831016604e8410600b8410161715610850575081810a610871565b61085a8383610795565b805f190482111561086d5761086d610781565b0290505b92915050565b5f61088560ff8416836107d7565b9392505050565b808202811582820484141761087157610871610781565b634e487b7160e01b5f52601260045260245ffd5b5f826108c5576108c56108a3565b500690565b8181038181111561087157610871610781565b8082018082111561087157610871610781565b5f826108fe576108fe6108a3565b500490565b5f60208284031215610913575f80fd5b81516001600160a01b0381168114610885575f80fd5b60805160a0516138466109665f395f81816105f8015261252401525f818161042901528181612d8001528181612e360152612f7401526138465ff3fe608060405260043610610374575f3560e01c8063715018a6116101c8578063c3a1ed48116100fd578063dd62ed3e1161009d578063ec28438a1161006d578063ec28438a146109ec578063edc2fcfb14610a0b578063f2fde38b14610a2a578063fdeb889f14610a49575f80fd5b8063dd62ed3e1461094b578063e547be691461098f578063e6be4a72146109ae578063ea2f0b37146109cd575f80fd5b8063caccd7f7116100d8578063caccd7f7146108c2578063cba0e996146108e1578063ce831ed514610918578063dcc345f21461092c575f80fd5b8063c3a1ed481461088f578063c49b9a80146108a3578063c580c73a14610657575f80fd5b8063a073d37f11610168578063a9059cbb11610143578063a9059cbb1461081d578063a94c8dd21461083c578063afcf2fc41461085b578063c0b0fda21461087a575f80fd5b8063a073d37f146107cb578063a457c2d7146107df578063a5ece941146107fe575f80fd5b80638a0623b4116101a35780638a0623b4146107665780638da5cb5b1461077b578063906e9dd01461079857806395d89b41146107b7575f80fd5b8063715018a61461071e57806379cc6790146107325780637d1db4a514610751575f80fd5b806340212314116102a95780634a74bb02116102495780636049876e116102195780636049876e146106a2578063625e764c146106c15780636c317232146106e057806370a08231146106ff575f80fd5b80634a74bb021461061a5780634bf2c7c91461063857806350e8676c146106575780635342acb41461066b575f80fd5b8063437823ec11610284578063437823ec146105945780634549b039146105b357806348de478e146105d257806349bd5a5e146105e7575f80fd5b8063402123141461054c57806340f8007a1461056057806342966c6814610575575f80fd5b806322976e0d11610314578063313ce567116102ef578063313ce567146104e957806332035504146105045780633206b4aa14610518578063395093511461052d575f80fd5b806322976e0d146104a057806323b872dd146104b557806327c8f835146104d4575f80fd5b80630c9be46d1161034f5780630c9be46d146103f95780631694505e1461041857806318160ddd1461046357806320c7c59614610481575f80fd5b8063053ab1821461037f57806306fdde03146103a0578063095ea7b3146103ca575f80fd5b3661037b57005b5f80fd5b34801561038a575f80fd5b5061039e610399366004613449565b610a68565b005b3480156103ab575f80fd5b506103b4610b53565b6040516103c19190613460565b60405180910390f35b3480156103d5575f80fd5b506103e96103e43660046134a9565b610be3565b60405190151581526020016103c1565b348015610404575f80fd5b5061039e6104133660046134d3565b610bf9565b348015610423575f80fd5b5061044b7f000000000000000000000000000000000000000000000000000000000000000081565b6040516001600160a01b0390911681526020016103c1565b34801561046e575f80fd5b50600e545b6040519081526020016103c1565b34801561048c575f80fd5b5061039e61049b366004613449565b610c85565b3480156104ab575f80fd5b5061047360195481565b3480156104c0575f80fd5b506103e96104cf3660046134ee565b610daa565b3480156104df575f80fd5b5061044b61dead81565b3480156104f4575f80fd5b50604051601281526020016103c1565b34801561050f575f80fd5b50601054610473565b348015610523575f80fd5b5061047360115481565b348015610538575f80fd5b506103e96105473660046134a9565b610e52565b348015610557575f80fd5b50610473600281565b34801561056b575f80fd5b50610473601d5481565b348015610580575f80fd5b5061039e61058f366004613449565b610e8d565b34801561059f575f80fd5b5061039e6105ae3660046134d3565b610e9a565b3480156105be575f80fd5b506104736105cd366004613539565b610ee7565b3480156105dd575f80fd5b50610473601b5481565b3480156105f2575f80fd5b5061044b7f000000000000000000000000000000000000000000000000000000000000000081565b348015610625575f80fd5b506022546103e990610100900460ff1681565b348015610643575f80fd5b5061039e610652366004613449565b610f6d565b348015610662575f80fd5b50610473600181565b348015610676575f80fd5b506103e96106853660046134d3565b6001600160a01b03165f9081526008602052604090205460ff1690565b3480156106ad575f80fd5b5061039e6106bc3660046134d3565b61102e565b3480156106cc575f80fd5b5061039e6106db366004613449565b6111f0565b3480156106eb575f80fd5b5061039e6106fa366004613449565b61130e565b34801561070a575f80fd5b506104736107193660046134d3565b611420565b348015610729575f80fd5b5061039e61147c565b34801561073d575f80fd5b5061039e61074c3660046134a9565b6114b1565b34801561075c575f80fd5b50610473601f5481565b348015610771575f80fd5b5061047360155481565b348015610786575f80fd5b506005546001600160a01b031661044b565b3480156107a3575f80fd5b5061039e6107b23660046134d3565b611536565b3480156107c2575f80fd5b506103b46115ba565b3480156107d6575f80fd5b50602154610473565b3480156107ea575f80fd5b506103e96107f93660046134a9565b6115c9565b348015610809575f80fd5b50600b5461044b906001600160a01b031681565b348015610828575f80fd5b506103e96108373660046134a9565b611661565b348015610847575f80fd5b5061039e610856366004613449565b61166d565b348015610866575f80fd5b50600d5461044b906001600160a01b031681565b348015610885575f80fd5b5061047360175481565b34801561089a575f80fd5b50610473600581565b3480156108ae575f80fd5b5061039e6108bd366004613567565b611790565b3480156108cd575f80fd5b50600c5461044b906001600160a01b031681565b3480156108ec575f80fd5b506103e96108fb3660046134d3565b6001600160a01b03165f9081526009602052604090205460ff1690565b348015610923575f80fd5b5061039e61180e565b348015610937575f80fd5b5061039e6109463660046134d3565b611958565b348015610956575f80fd5b50610473610965366004613582565b6001600160a01b039182165f90815260016020908152604080832093909416825291909152205490565b34801561099a575f80fd5b5061039e6109a9366004613449565b6119dc565b3480156109b9575f80fd5b5061039e6109c83660046134a9565b611aa9565b3480156109d8575f80fd5b5061039e6109e73660046134d3565b611c77565b3480156109f7575f80fd5b5061039e610a06366004613449565b611cc1565b348015610a16575f80fd5b5061039e610a25366004613567565b611dba565b348015610a35575f80fd5b5061039e610a443660046134d3565b611e7e565b348015610a54575f80fd5b5061039e610a633660046134d3565b611f16565b335f8181526009602052604090205460ff1615610ae15760405162461bcd60e51b815260206004820152602c60248201527f4578636c75646564206164647265737365732063616e6e6f742063616c6c207460448201526b3434b990333ab731ba34b7b760a11b60648201526084015b60405180910390fd5b5f610aeb836120bb565b5050506001600160a01b0383165f90815260066020526040902054909150610b149082906135c2565b6001600160a01b0383165f90815260066020526040902055600f54610b3a9082906135c2565b600f55601054610b4b9084906135d5565b601055505050565b606060038054610b62906135e8565b80601f0160208091040260200160405190810160405280929190818152602001828054610b8e906135e8565b8015610bd95780601f10610bb057610100808354040283529160200191610bd9565b820191905f5260205f20905b815481529060010190602001808311610bbc57829003601f168201915b5050505050905090565b5f610bef33848461210c565b5060015b92915050565b6005546001600160a01b03163314610c235760405162461bcd60e51b8152600401610ad890613620565b600d80546001600160a01b038381166001600160a01b031983168117909355604080519190921680825260208201939093527fd824bede52134285982c2dbbfb23840eeda8d21c2ea774a50f74495d6147439291015b60405180910390a15050565b6005546001600160a01b03163314610caf5760405162461bcd60e51b8152600401610ad890613620565b6002811115610d0a5760405162461bcd60e51b815260206004820152602160248201527f4368617269747920666565206578636565647320746865203225206c696d69746044820152601760f91b6064820152608401610ad8565b610d1261222f565b5f81601b54601954601554610d2791906135d5565b610d3191906135d5565b610d3b91906135d5565b90506001811015610d5e5760405162461bcd60e51b8152600401610ad890613655565b601d805490839055601382905560408051828152602081018590527fd3d6ff715a7f1ac2a5ed3fb8b1d5473a4d20852a8aac0e70546c851819e25bbc91015b60405180910390a1505050565b5f610db68484846122c7565b6001600160a01b0384165f90815260016020908152604080832033845290915290205482811015610e3a5760405162461bcd60e51b815260206004820152602860248201527f45524332303a207472616e7366657220616d6f756e74206578636565647320616044820152676c6c6f77616e636560c01b6064820152608401610ad8565b610e47853385840361210c565b506001949350505050565b335f8181526001602090815260408083206001600160a01b03871684529091528120549091610bef918590610e889086906135d5565b61210c565b610e9733826125ce565b50565b6005546001600160a01b03163314610ec45760405162461bcd60e51b8152600401610ad890613620565b6001600160a01b03165f908152600860205260409020805460ff19166001179055565b5f600e54831115610f3a5760405162461bcd60e51b815260206004820152601f60248201527f416d6f756e74206d757374206265206c657373207468616e20737570706c79006044820152606401610ad8565b81610f56575f610f49846120bb565b50919350610bf392505050565b5f610f60846120bb565b50909350610bf392505050565b6005546001600160a01b03163314610f975760405162461bcd60e51b8152600401610ad890613620565b6001811115610fe85760405162461bcd60e51b815260206004820152601e60248201527f4275726e20666565206578636565647320746865203125206c696d69742e00006044820152606401610ad8565b610ff061222f565b601780549082905560408051828152602081018490527f78f1461296bad7bd716a7673aa3e659cc091c348a7ed4cfef7ce452c3052f2fb9101610c79565b6005546001600160a01b031633146110585760405162461bcd60e51b8152600401610ad890613620565b6001600160a01b0381165f9081526009602052604090205460ff16156110c05760405162461bcd60e51b815260206004820152601b60248201527f4163636f756e7420697320616c7265616479206578636c7564656400000000006044820152606401610ad8565b306001600160a01b038216036111345760405162461bcd60e51b815260206004820152603360248201527f436f6e747261637420616464726573732063616e6e6f74206265206578636c756044820152723232b210333937b6903932b33632b1ba34b7b760691b6064820152608401610ad8565b6001600160a01b0381165f908152600660205260409020541561118b576001600160a01b0381165f908152600660205260409020546111729061279c565b6001600160a01b0382165f908152600760205260409020555b6001600160a01b03165f818152600960205260408120805460ff19166001908117909155600a805491820181559091527fc65a7bb8d6351c1cf70c95a316cc6a92839c986682d98bc35f958f4883f9d2a80180546001600160a01b0319169091179055565b6005546001600160a01b0316331461121a5760405162461bcd60e51b8152600401610ad890613620565b60028111156112775760405162461bcd60e51b815260206004820152602360248201527f4d61726b6574696e6720666565206578636565647320746865203225206c696d60448201526234ba1760e91b6064820152608401610ad8565b61127f61222f565b5f601d54601b548360155461129491906135d5565b61129e91906135d5565b6112a891906135d5565b905060018110156112cb5760405162461bcd60e51b8152600401610ad890613655565b6019805490839055601382905560408051828152602081018590527f043102402b1ef1ea68f92a353de80186b92415038542af2e8d748f8d6c5250329101610d9d565b6005546001600160a01b031633146113385760405162461bcd60e51b8152600401610ad890613620565b60028111156113895760405162461bcd60e51b815260206004820152601d60248201527f44657620666565206578636565647320746865203225206c696d69742e0000006044820152606401610ad8565b61139161222f565b5f601d54826019546015546113a691906135d5565b6113b091906135d5565b6113ba91906135d5565b905060018110156113dd5760405162461bcd60e51b8152600401610ad890613655565b601b805490839055601382905560408051828152602081018590527fc9d63693638bfc625de9be66171e4bf76ad4d474ac6bef7cd4c766747cd0075f9101610d9d565b6001600160a01b0381165f9081526009602052604081205460ff161561145b57506001600160a01b03165f9081526007602052604090205490565b6001600160a01b0382165f90815260066020526040902054610bf39061279c565b6005546001600160a01b031633146114a65760405162461bcd60e51b8152600401610ad890613620565b6114af5f61281e565b565b5f6114bc8333610965565b90508181101561151a5760405162461bcd60e51b8152602060048201526024808201527f45524332303a206275726e20616d6f756e74206578636565647320616c6c6f77604482015263616e636560e01b6064820152608401610ad8565b611527833384840361210c565b61153183836125ce565b505050565b6005546001600160a01b031633146115605760405162461bcd60e51b8152600401610ad890613620565b600b80546001600160a01b038381166001600160a01b031983168117909355604080519190921680825260208201939093527fa8efc72ed34f90017df79620d1972d42b8e3b17eb0077fc5fc46cbf1a19ed9a99101610c79565b606060048054610b62906135e8565b335f9081526001602090815260408083206001600160a01b03861684529091528120548281101561164a5760405162461bcd60e51b815260206004820152602560248201527f45524332303a2064656372656173656420616c6c6f77616e63652062656c6f77604482015264207a65726f60d81b6064820152608401610ad8565b611657338585840361210c565b5060019392505050565b5f610bef3384846122c7565b6005546001600160a01b031633146116975760405162461bcd60e51b8152600401610ad890613620565b60028111156116f95760405162461bcd60e51b815260206004820152602860248201527f4c697175696469747920706f6f6c20666565206578636565647320746865203260448201526712903634b6b4ba1760c11b6064820152608401610ad8565b61170161222f565b5f601d54601b546019548461171691906135d5565b61172091906135d5565b61172a91906135d5565b9050600181101561174d5760405162461bcd60e51b8152600401610ad890613655565b6015805490839055601382905560408051828152602081018590527fd72bb987241d30efe97862fae5c01605397a36024557bbae8ebedec081678bc29101610d9d565b6005546001600160a01b031633146117ba5760405162461bcd60e51b8152600401610ad890613620565b602280548215156101000261ff00199091161790556040517f53726dfcaf90650aa7eb35524f4d3220f07413c8d6cb404cc8c18bf5591bc1599061180390831515815260200190565b60405180910390a150565b6005546001600160a01b031633146118385760405162461bcd60e51b8152600401610ad890613620565b600c5460405147915f916001600160a01b039091169083908381818185875af1925050503d805f8114611886576040519150601f19603f3d011682016040523d82523d5f602084013e61188b565b606091505b50509050806118ce5760405162461bcd60e51b815260206004820152600f60248201526e151c985b9cd9995c8819985a5b1959608a1b6044820152606401610ad8565b600c5460408051818152602e918101919091527f57652068617665207265636f7665726564207468652073746f636b204554482060608201526d333937b69031b7b73a3930b1ba1760911b60808201526001600160a01b0390911660208201527f025dbd6ad989fe1a64db7dc049e29723ff9d35a97d84ae9aab96196f00ec1a009060a001610c79565b6005546001600160a01b031633146119825760405162461bcd60e51b8152600401610ad890613620565b600c80546001600160a01b038381166001600160a01b031983168117909355604080519190921680825260208201939093527f9a8fce0f201607a626cc555ef244d8ed346d879d2141b2964c3a955650554ae09101610c79565b6005546001600160a01b03163314611a065760405162461bcd60e51b8152600401610ad890613620565b6002811115611a635760405162461bcd60e51b8152602060048201526024808201527f5265666c656374696f6e20666565206578636565647320746865203225206c6960448201526336b4ba1760e11b6064820152608401610ad8565b611a6b61222f565b601180549082905560408051828152602081018490527f2c52ca41e4d19e67555be53873512bb32ca77e9e6d56b69361d6ac621a8834d19101610c79565b6005546001600160a01b03163314611ad35760405162461bcd60e51b8152600401610ad890613620565b306001600160a01b03831603611b4a5760405162461bcd60e51b815260206004820152603660248201527f4f776e65722063616e277420636c61696d20636f6e747261637427732062616c604482015275616e6365206f6620697473206f776e20746f6b656e7360501b6064820152608401610ad8565b600c5460405163a9059cbb60e01b81526001600160a01b039182166004820152602481018390525f9184169063a9059cbb906044016020604051808303815f875af1158015611b9b573d5f803e3d5ffd5b505050506040513d601f19601f82011682018060405250810190611bbf919061369b565b905080611c005760405162461bcd60e51b815260206004820152600f60248201526e151c985b9cd9995c8819985a5b1959608a1b6044820152606401610ad8565b604080518181526027918101919091527f57652068617665207265636f766572656420746f6b656e732066726f6d20636f606082015266373a3930b1ba1d60c91b6080820152602081018390527fdd970dd9b5bfe707922155b058a407655cb18288b807e2216442bca8ad83d6b59060a001610d9d565b6005546001600160a01b03163314611ca15760405162461bcd60e51b8152600401610ad890613620565b6001600160a01b03165f908152600860205260409020805460ff19169055565b6005546001600160a01b03163314611ceb5760405162461bcd60e51b8152600401610ad890613620565b6103e8600e546001611cfd91906136b6565b611d0791906136cd565b811015611d7c5760405162461bcd60e51b815260206004820152603860248201527f4d61785478416d6f756e742073686f756c64206265206174206c65617374203060448201527f2e3125206f662074686520746f74616c20737570706c792e00000000000000006064820152608401610ad8565b601f80549082905560408051828152602081018490527fadcf01123294f8514884e924e20eb4f3032288087368896a17c71f09668247c89101610c79565b6005546001600160a01b03163314611de45760405162461bcd60e51b8152600401610ad890613620565b8015611e0c57611df35f611790565b611dfb61286f565b601f54602055600e54601f55611e4c565b611e166001611790565b611e45601454601355601654601555601854601755601254601155601a54601955601c54601b55601e54601d55565b602054601f555b60405181151581527f754db841cd0ba8b9d7311dc4b5c8cd44b1ff98bcb4e1d8d9cab86566bce3a1fa90602001611803565b6005546001600160a01b03163314611ea85760405162461bcd60e51b8152600401610ad890613620565b6001600160a01b038116611f0d5760405162461bcd60e51b815260206004820152602660248201527f4f776e61626c653a206e6577206f776e657220697320746865207a65726f206160448201526564647265737360d01b6064820152608401610ad8565b610e978161281e565b6005546001600160a01b03163314611f405760405162461bcd60e51b8152600401610ad890613620565b6001600160a01b0381165f9081526009602052604090205460ff16611fa75760405162461bcd60e51b815260206004820152601b60248201527f4163636f756e7420697320616c726561647920696e636c7564656400000000006044820152606401610ad8565b5f5b600a548110156120b757816001600160a01b0316600a8281548110611fd057611fd06136ec565b5f918252602090912001546001600160a01b0316036120af57600a8054611ff9906001906135c2565b81548110612009576120096136ec565b5f91825260209091200154600a80546001600160a01b039092169183908110612034576120346136ec565b5f91825260208083209190910180546001600160a01b0319166001600160a01b039485161790559184168152600782526040808220829055600990925220805460ff19169055600a80548061208b5761208b613700565b5f8281526020902081015f1990810180546001600160a01b03191690550190555050565b600101611fa9565b5050565b5f805f805f6120c9866128ba565b90505f6120d682886135c2565b90505f6120e16128fa565b90505f6120ee82846136b6565b90505f6120fb838b6136b6565b9a9199509297509095509350505050565b6001600160a01b03831661216e5760405162461bcd60e51b8152602060048201526024808201527f45524332303a20617070726f76652066726f6d20746865207a65726f206164646044820152637265737360e01b6064820152608401610ad8565b6001600160a01b0382166121cf5760405162461bcd60e51b815260206004820152602260248201527f45524332303a20617070726f766520746f20746865207a65726f206164647265604482015261737360f01b6064820152608401610ad8565b6001600160a01b038381165f8181526001602090815260408083209487168084529482529182902085905590518481527f8c5be1e5ebec7d5bd14f71427d1e84f3dd0314c0f7b2291e5b200ac8c7c3b925910160405180910390a3505050565b5f601d54601b5460195460155460115460175461224c91906135d5565b61225691906135d5565b61226091906135d5565b61226a91906135d5565b61227491906135d5565b90506005811115610e975760405162461bcd60e51b815260206004820152601f60248201527f546f74616c20666565732065786365656420746865203525206c696d69742e006044820152606401610ad8565b6001600160a01b03831661232b5760405162461bcd60e51b815260206004820152602560248201527f45524332303a207472616e736665722066726f6d20746865207a65726f206164604482015264647265737360d81b6064820152608401610ad8565b6001600160a01b03821661238d5760405162461bcd60e51b815260206004820152602360248201527f45524332303a207472616e7366657220746f20746865207a65726f206164647260448201526265737360e81b6064820152608401610ad8565b5f81116123ee5760405162461bcd60e51b815260206004820152602960248201527f5472616e7366657220616d6f756e74206d7573742062652067726561746572206044820152687468616e207a65726f60b81b6064820152608401610ad8565b5f6123f884611420565b9050818110156124595760405162461bcd60e51b815260206004820152602660248201527f45524332303a207472616e7366657220616d6f756e7420657863656564732062604482015265616c616e636560d01b6064820152608401610ad8565b6005546001600160a01b0385811691161480159061248557506005546001600160a01b03848116911614155b156124ed57601f548211156124ed5760405162461bcd60e51b815260206004820152602860248201527f5472616e7366657220616d6f756e74206578636565647320746865206d6178546044820152673c20b6b7bab73a1760c11b6064820152608401610ad8565b5f6124f730611420565b6021546022549192508210159060ff1615801561251b5750602254610100900460ff165b801561255857507f00000000000000000000000000000000000000000000000000000000000000006001600160a01b0316856001600160a01b0316145b156125715780156125715760215491506125718261291b565b6001600160a01b0386165f9081526008602052604090205460019060ff16806125b157506001600160a01b0386165f9081526008602052604090205460ff165b156125b957505f5b6125c587878784612b69565b50505050505050565b6001600160a01b03821661262e5760405162461bcd60e51b815260206004820152602160248201527f45524332303a206275726e2066726f6d20746865207a65726f206164647265736044820152607360f81b6064820152608401610ad8565b5f61263883611420565b9050818110156126955760405162461bcd60e51b815260206004820152602260248201527f45524332303a206275726e20616d6f756e7420657863656564732062616c616e604482015261636560f01b6064820152608401610ad8565b5f61269e6128fa565b90505f6126ab82856136b6565b6001600160a01b0386165f9081526009602052604090205490915060ff161561270a576001600160a01b0385165f908152600760205260409020546126f19085906135c2565b6001600160a01b0386165f908152600760205260409020555b6001600160a01b0385165f9081526006602052604090205461272d9082906135c2565b6001600160a01b0386165f90815260066020526040902055600e546127539085906135c2565b600e55600f546127649082906135c2565b600f556040518481525f906001600160a01b038716905f805160206137f1833981519152906020015b60405180910390a35050505050565b5f600f548211156128025760405162461bcd60e51b815260206004820152602a60248201527f416d6f756e74206d757374206265206c657373207468616e20746f74616c207260448201526965666c656374696f6e7360b01b6064820152608401610ad8565b5f61280b6128fa565b905061281781846136cd565b9392505050565b600580546001600160a01b038381166001600160a01b0319831681179093556040519116919082907f8be0079c531659141344cd1fd0a4f28419497f9722a3daafe3b4186f6b6457e0905f90a35050565b6013805460145560158054601655601780546018556011805460125560198054601a55601b8054601c55601d8054601e555f9687905594869055928590559084905583905582905555565b5f806017546011546013546128cf91906135d5565b6128d991906135d5565b90505f60646128e883866136b6565b6128f291906136cd565b949350505050565b5f805f612905612bbb565b909250905061291481836136cd565b9250505090565b6022805460ff1916600117905560135415612b5c5760135460155447915f9161294490856136b6565b61294e91906136cd565b90505f61295c6002836136cd565b90505f61296982846135c2565b905061297d61297882876135c2565b612d2b565b5f61298885476135c2565b90505f6002601554600a61299c91906136b6565b6129a691906136cd565b6013546129b490600a6136b6565b6129be91906135c2565b6019546129cc90600a6136b6565b6129d690846136b6565b6129e091906136cd565b600b549091506129f9906001600160a01b031682612ed3565b5f6002601554600a612a0b91906136b6565b612a1591906136cd565b601354612a2390600a6136b6565b612a2d91906135c2565b601b54612a3b90600a6136b6565b612a4590856136b6565b612a4f91906136cd565b600c54909150612a68906001600160a01b031682612ed3565b5f6002601554600a612a7a91906136b6565b612a8491906136cd565b601354612a9290600a6136b6565b612a9c91906135c2565b600260155486612aac91906136b6565b612ab790600a6136b6565b612ac191906136cd565b612acb91906136cd565b9050612ad78582612f72565b5f8183612ae486886135c2565b612aee91906135c2565b612af891906135c2565b600d54909150612b11906001600160a01b031682612ed3565b60408051888152602081018490529081018790527f17bbfb9a6069321b6ded73bd96327c9e6b7212a5cd51ff219cd61370acafb5619060600160405180910390a15050505050505050505b506022805460ff19169055565b80612b7657612b7661286f565b612b8184848461304a565b80612bb557612bb5601454601355601654601555601854601755601254601155601a54601955601c54601b55601e54601d55565b50505050565b600f54600e545f918291825b600a54811015612cfa578260065f600a8481548110612be857612be86136ec565b5f9182526020808320909101546001600160a01b031683528201929092526040019020541180612c5057508160075f600a8481548110612c2a57612c2a6136ec565b5f9182526020808320909101546001600160a01b03168352820192909252604001902054115b15612c6657600f54600e54945094505050509091565b60065f600a8381548110612c7c57612c7c6136ec565b5f9182526020808320909101546001600160a01b03168352820192909252604001902054612caa90846135c2565b925060075f600a8381548110612cc257612cc26136ec565b5f9182526020808320909101546001600160a01b03168352820192909252604001902054612cf090836135c2565b9150600101612bc7565b50600e54600f54612d0b91906136cd565b821015612d2257600f54600e549350935050509091565b90939092509050565b6040805160028082526060820183525f9260208301908036833701905050905030815f81518110612d5e57612d5e6136ec565b60200260200101906001600160a01b031690816001600160a01b0316815250507f00000000000000000000000000000000000000000000000000000000000000006001600160a01b031663ad5c46486040518163ffffffff1660e01b8152600401602060405180830381865afa158015612dda573d5f803e3d5ffd5b505050506040513d601f19601f82011682018060405250810190612dfe9190613714565b81600181518110612e1157612e116136ec565b6001600160a01b03928316602091820292909201015260405163791ac94760e01b81527f00000000000000000000000000000000000000000000000000000000000000009091169063791ac94790612e759085905f90869030904290600401613772565b5f604051808303815f87803b158015612e8c575f80fd5b505af1158015612e9e573d5f803e3d5ffd5b505050507f32cde87eb454f3a0b875ab23547023107cfad454363ec88ba5695e2c24aa52a78282604051610c799291906137ad565b5f826001600160a01b0316826040515f6040518083038185875af1925050503d805f8114612f1c576040519150601f19603f3d011682016040523d82523d5f602084013e612f21565b606091505b505090508061153157826001600160a01b03167f1c43b9761b3fba5321ca8212bfc231945f668ccc0c446f333999eea9ce8fda8183604051612f6591815260200190565b60405180910390a2505050565b7f00000000000000000000000000000000000000000000000000000000000000006001600160a01b031663f305d7198230855f80612fb86005546001600160a01b031690565b60405160e088901b6001600160e01b03191681526001600160a01b03958616600482015260248101949094526044840192909252606483015290911660848201524260a482015260c40160606040518083038185885af115801561301e573d5f803e3d5ffd5b50505050506040513d601f19601f8201168201806040525081019061304391906137c5565b5050505050565b5f805f80613057856120bb565b6001600160a01b038b165f90815260066020526040902054939750919550935091506130849085906135c2565b6001600160a01b038089165f9081526006602052604080822093909355908816815220546130b39084906135d5565b6001600160a01b038088165f90815260066020908152604080832094909455918a1681526009909152205460ff16801561310557506001600160a01b0386165f9081526009602052604090205460ff16155b1561314a576001600160a01b0387165f9081526007602052604090205461312d9086906135c2565b6001600160a01b0388165f9081526007602052604090205561327c565b6001600160a01b0387165f9081526009602052604090205460ff1615801561318957506001600160a01b0386165f9081526009602052604090205460ff165b156131ce576001600160a01b0386165f908152600760205260409020546131b19083906135d5565b6001600160a01b0387165f9081526007602052604090205561327c565b6001600160a01b0387165f9081526009602052604090205460ff16801561320c57506001600160a01b0386165f9081526009602052604090205460ff165b1561327c576001600160a01b0387165f908152600760205260409020546132349086906135c2565b6001600160a01b038089165f9081526007602052604080822093909355908816815220546132639083906135d5565b6001600160a01b0387165f908152600760205260409020555b61328685826132e3565b613291878683613335565b6132a0878683601354306133b1565b856001600160a01b0316876001600160a01b03165f805160206137f1833981519152846040516132d291815260200190565b60405180910390a350505050505050565b5f6064601154846132f491906136b6565b6132fe91906136cd565b90505f61330b83836136b6565b905080600f5461331b91906135c2565b600f5560105461332c9083906135d5565b60105550505050565b5f60646017548461334691906136b6565b61335091906136cd565b90508015612bb5575f61336383836136b6565b905081600e5461337391906135c2565b600e55600f546133849082906135c2565b600f556040518281525f906001600160a01b038716905f805160206137f18339815191529060200161278d565b5f60646133be84876136b6565b6133c891906136cd565b90508015613441575f6133db85836136b6565b6001600160a01b0384165f908152600660205260409020549091506134019082906135d5565b6001600160a01b038085165f8181526006602052604090819020939093559151908916905f805160206137f1833981519152906132d29086815260200190565b505050505050565b5f60208284031215613459575f80fd5b5035919050565b602081525f82518060208401528060208501604085015e5f604082850101526040601f19601f83011684010191505092915050565b6001600160a01b0381168114610e97575f80fd5b5f80604083850312156134ba575f80fd5b82356134c581613495565b946020939093013593505050565b5f602082840312156134e3575f80fd5b813561281781613495565b5f805f60608486031215613500575f80fd5b833561350b81613495565b9250602084013561351b81613495565b929592945050506040919091013590565b8015158114610e97575f80fd5b5f806040838503121561354a575f80fd5b82359150602083013561355c8161352c565b809150509250929050565b5f60208284031215613577575f80fd5b81356128178161352c565b5f8060408385031215613593575f80fd5b823561359e81613495565b9150602083013561355c81613495565b634e487b7160e01b5f52601160045260245ffd5b81810381811115610bf357610bf36135ae565b80820180821115610bf357610bf36135ae565b600181811c908216806135fc57607f821691505b60208210810361361a57634e487b7160e01b5f52602260045260245ffd5b50919050565b6020808252818101527f4f776e61626c653a2063616c6c6572206973206e6f7420746865206f776e6572604082015260600190565b60208082526026908201527f436f6d62696e6564206c6971756964697479206665652063616e6e6f74206265604082015265103d32b9379760d11b606082015260800190565b5f602082840312156136ab575f80fd5b81516128178161352c565b8082028115828204841417610bf357610bf36135ae565b5f826136e757634e487b7160e01b5f52601260045260245ffd5b500490565b634e487b7160e01b5f52603260045260245ffd5b634e487b7160e01b5f52603160045260245ffd5b5f60208284031215613724575f80fd5b815161281781613495565b5f815180845260208085019450602084015f5b838110156137675781516001600160a01b031687529582019590820190600101613742565b509495945050505050565b85815284602082015260a060408201525f61379060a083018661372f565b6001600160a01b0394909416606083015250608001529392505050565b828152604060208201525f6128f2604083018461372f565b5f805f606084860312156137d7575f80fd5b835192506020840151915060408401519050925092509256feddf252ad1be2c89b69c2b068fc378daa952ba7f163c4a11628f55a4df523b3efa2646970667358221220974ac510761ffb8ea91822f6abc4d023deddfd99979fa4d4fd48301b251bde6c64736f6c63430008190033",
			"opcodes": "PUSH1 0xB DUP1 SLOAD PUSH1 0x1 PUSH1 0x1 PUSH1 0xA0 SHL SUB NOT SWAP1 DUP2 AND PUSH20 0xED001EBB1A71DC6DF6659C4E4EDB070342FD4A1F OR SWAP1 SWAP2 SSTORE PUSH1 0xC DUP1 SLOAD DUP3 AND PUSH20 0xB5DF28F0D138275C29536400C1452A816911B77A OR SWAP1 SSTORE PUSH1 0xD DUP1 SLOAD SWAP1 SWAP2 AND PUSH20 0x2C9BAD149BEF185D6B90DAF9857ABA8841F4DC84 OR SWAP1 SSTORE PUSH0 PUSH1 0x10 SSTORE PUSH1 0x22 DUP1 SLOAD PUSH2 0xFF00 NOT AND PUSH2 0x100 SWAP1 DUP2 OR SWAP1 SWAP2 SSTORE PUSH1 0xA PUSH1 0xC0 SWAP1 DUP2 MSTORE PUSH10 0x436F6666792044654669 PUSH1 0xB0 SHL PUSH1 0xE0 MSTORE PUSH2 0x140 PUSH1 0x40 MSTORE PUSH1 0x5 DUP3 MSTORE PUSH5 0x434F464649 PUSH1 0xD8 SHL PUSH2 0x120 MSTORE SWAP1 PUSH1 0x3 PUSH2 0xB7 DUP4 DUP3 PUSH2 0x6C2 JUMP JUMPDEST POP PUSH1 0x4 PUSH2 0xC4 DUP3 DUP3 PUSH2 0x6C2 JUMP JUMPDEST POP POP POP PUSH2 0xDD PUSH2 0xD8 PUSH2 0x3E3 PUSH1 0x20 SHL PUSH1 0x20 SHR JUMP JUMPDEST PUSH2 0x3E7 JUMP JUMPDEST PUSH2 0xE9 PUSH1 0x12 PUSH1 0xA PUSH2 0x877 JUMP JUMPDEST PUSH2 0xF7 SWAP1 PUSH4 0x3B9ACA00 PUSH2 0x88C JUMP JUMPDEST PUSH1 0xE DUP2 SWAP1 SSTORE PUSH2 0x107 SWAP1 PUSH0 NOT PUSH2 0x8B7 JUMP JUMPDEST PUSH2 0x112 SWAP1 PUSH0 NOT PUSH2 0x8CA JUMP JUMPDEST PUSH1 0xF SSTORE PUSH1 0x1 PUSH1 0x11 DUP2 SWAP1 SSTORE PUSH1 0x12 DUP2 SWAP1 SSTORE PUSH1 0x15 DUP2 SWAP1 SSTORE PUSH1 0x16 DUP2 SWAP1 SSTORE PUSH1 0x17 DUP2 SWAP1 SSTORE PUSH1 0x18 DUP2 SWAP1 SSTORE PUSH1 0x19 DUP2 SWAP1 SSTORE PUSH1 0x1A DUP2 SWAP1 SSTORE PUSH1 0x1B DUP2 SWAP1 SSTORE PUSH1 0x1C DUP2 SWAP1 SSTORE PUSH0 PUSH1 0x1D DUP2 SWAP1 SSTORE PUSH1 0x1E DUP2 SWAP1 SSTORE PUSH2 0x15E DUP3 DUP1 PUSH2 0x8DD JUMP JUMPDEST PUSH2 0x168 SWAP2 SWAP1 PUSH2 0x8DD JUMP JUMPDEST PUSH2 0x172 SWAP2 SWAP1 PUSH2 0x8DD JUMP JUMPDEST PUSH1 0x13 DUP2 SWAP1 SSTORE PUSH1 0x14 SSTORE PUSH1 0xE SLOAD PUSH2 0x3E8 SWAP1 PUSH2 0x18C SWAP1 PUSH1 0x5 PUSH2 0x88C JUMP JUMPDEST PUSH2 0x196 SWAP2 SWAP1 PUSH2 0x8F0 JUMP JUMPDEST PUSH1 0x1F DUP2 SWAP1 SSTORE PUSH1 0x20 SSTORE PUSH1 0xE SLOAD PUSH2 0x2710 SWAP1 PUSH2 0x1B0 SWAP1 PUSH1 0x2 PUSH2 0x88C JUMP JUMPDEST PUSH2 0x1BA SWAP2 SWAP1 PUSH2 0x8F0 JUMP JUMPDEST PUSH1 0x21 DUP2 SWAP1 SSTORE POP PUSH0 PUSH20 0x7A250D5630B4CF539739DF2C5DACB4C659F2488D SWAP1 POP DUP1 PUSH1 0x1 PUSH1 0x1 PUSH1 0xA0 SHL SUB AND PUSH4 0xC45A0155 PUSH1 0x40 MLOAD DUP2 PUSH4 0xFFFFFFFF AND PUSH1 0xE0 SHL DUP2 MSTORE PUSH1 0x4 ADD PUSH1 0x20 PUSH1 0x40 MLOAD DUP1 DUP4 SUB DUP2 DUP7 GAS STATICCALL ISZERO DUP1 ISZERO PUSH2 0x214 JUMPI RETURNDATASIZE PUSH0 DUP1 RETURNDATACOPY RETURNDATASIZE PUSH0 REVERT JUMPDEST POP POP POP POP PUSH1 0x40 MLOAD RETURNDATASIZE PUSH1 0x1F NOT PUSH1 0x1F DUP3 ADD AND DUP3 ADD DUP1 PUSH1 0x40 MSTORE POP DUP2 ADD SWAP1 PUSH2 0x238 SWAP2 SWAP1 PUSH2 0x903 JUMP JUMPDEST PUSH1 0x1 PUSH1 0x1 PUSH1 0xA0 SHL SUB AND PUSH4 0xC9C65396 ADDRESS DUP4 PUSH1 0x1 PUSH1 0x1 PUSH1 0xA0 SHL SUB AND PUSH4 0xAD5C4648 PUSH1 0x40 MLOAD DUP2 PUSH4 0xFFFFFFFF AND PUSH1 0xE0 SHL DUP2 MSTORE PUSH1 0x4 ADD PUSH1 0x20 PUSH1 0x40 MLOAD DUP1 DUP4 SUB DUP2 DUP7 GAS STATICCALL ISZERO DUP1 ISZERO PUSH2 0x283 JUMPI RETURNDATASIZE PUSH0 DUP1 RETURNDATACOPY RETURNDATASIZE PUSH0 REVERT JUMPDEST POP POP POP POP PUSH1 0x40 MLOAD RETURNDATASIZE PUSH1 0x1F NOT PUSH1 0x1F DUP3 ADD AND DUP3 ADD DUP1 PUSH1 0x40 MSTORE POP DUP2 ADD SWAP1 PUSH2 0x2A7 SWAP2 SWAP1 PUSH2 0x903 JUMP JUMPDEST PUSH1 0x40 MLOAD PUSH1 0x1 PUSH1 0x1 PUSH1 0xE0 SHL SUB NOT PUSH1 0xE0 DUP6 SWAP1 SHL AND DUP2 MSTORE PUSH1 0x1 PUSH1 0x1 PUSH1 0xA0 SHL SUB SWAP3 DUP4 AND PUSH1 0x4 DUP3 ADD MSTORE SWAP2 AND PUSH1 0x24 DUP3 ADD MSTORE PUSH1 0x44 ADD PUSH1 0x20 PUSH1 0x40 MLOAD DUP1 DUP4 SUB DUP2 PUSH0 DUP8 GAS CALL ISZERO DUP1 ISZERO PUSH2 0x2F1 JUMPI RETURNDATASIZE PUSH0 DUP1 RETURNDATACOPY RETURNDATASIZE PUSH0 REVERT JUMPDEST POP POP POP POP PUSH1 0x40 MLOAD RETURNDATASIZE PUSH1 0x1F NOT PUSH1 0x1F DUP3 ADD AND DUP3 ADD DUP1 PUSH1 0x40 MSTORE POP DUP2 ADD SWAP1 PUSH2 0x315 SWAP2 SWAP1 PUSH2 0x903 JUMP JUMPDEST PUSH1 0x1 PUSH1 0x1 PUSH1 0xA0 SHL SUB SWAP1 DUP2 AND PUSH1 0xA0 MSTORE DUP2 AND PUSH1 0x80 DUP2 SWAP1 MSTORE PUSH2 0x337 SWAP1 ADDRESS SWAP1 PUSH0 NOT PUSH2 0x438 JUMP JUMPDEST PUSH1 0x1 PUSH1 0x8 PUSH0 PUSH2 0x34E PUSH1 0x5 SLOAD PUSH1 0x1 PUSH1 0x1 PUSH1 0xA0 SHL SUB AND SWAP1 JUMP JUMPDEST PUSH1 0x1 PUSH1 0x1 PUSH1 0xA0 SHL SUB SWAP1 DUP2 AND DUP3 MSTORE PUSH1 0x20 DUP1 DUP4 ADD SWAP4 SWAP1 SWAP4 MSTORE PUSH1 0x40 SWAP2 DUP3 ADD PUSH0 SWAP1 DUP2 KECCAK256 DUP1 SLOAD SWAP6 ISZERO ISZERO PUSH1 0xFF NOT SWAP7 DUP8 AND OR SWAP1 SSTORE PUSH1 0xB SLOAD DUP3 AND DUP2 MSTORE PUSH1 0x8 SWAP1 SWAP4 MSTORE DUP2 DUP4 KECCAK256 DUP1 SLOAD DUP6 AND PUSH1 0x1 SWAP1 DUP2 OR SWAP1 SWAP2 SSTORE PUSH1 0xC SLOAD DUP3 AND DUP5 MSTORE DUP3 DUP5 KECCAK256 DUP1 SLOAD DUP7 AND DUP3 OR SWAP1 SSTORE PUSH1 0xD SLOAD SWAP1 SWAP2 AND DUP4 MSTORE DUP2 DUP4 KECCAK256 DUP1 SLOAD DUP6 AND DUP3 OR SWAP1 SSTORE ADDRESS DUP4 MSTORE SWAP2 KECCAK256 DUP1 SLOAD SWAP1 SWAP3 AND OR SWAP1 SSTORE PUSH2 0x3DD PUSH2 0x3D2 CALLER SWAP1 JUMP JUMPDEST PUSH1 0xF SLOAD PUSH1 0xE SLOAD PUSH2 0x561 JUMP JUMPDEST POP PUSH2 0x929 JUMP JUMPDEST CALLER SWAP1 JUMP JUMPDEST PUSH1 0x5 DUP1 SLOAD PUSH1 0x1 PUSH1 0x1 PUSH1 0xA0 SHL SUB DUP4 DUP2 AND PUSH1 0x1 PUSH1 0x1 PUSH1 0xA0 SHL SUB NOT DUP4 AND DUP2 OR SWAP1 SWAP4 SSTORE PUSH1 0x40 MLOAD SWAP2 AND SWAP2 SWAP1 DUP3 SWAP1 PUSH32 0x8BE0079C531659141344CD1FD0A4F28419497F9722A3DAAFE3B4186F6B6457E0 SWAP1 PUSH0 SWAP1 LOG3 POP POP JUMP JUMPDEST PUSH1 0x1 PUSH1 0x1 PUSH1 0xA0 SHL SUB DUP4 AND PUSH2 0x49F JUMPI PUSH1 0x40 MLOAD PUSH3 0x461BCD PUSH1 0xE5 SHL DUP2 MSTORE PUSH1 0x20 PUSH1 0x4 DUP3 ADD MSTORE PUSH1 0x24 DUP1 DUP3 ADD MSTORE PUSH32 0x45524332303A20617070726F76652066726F6D20746865207A65726F20616464 PUSH1 0x44 DUP3 ADD MSTORE PUSH4 0x72657373 PUSH1 0xE0 SHL PUSH1 0x64 DUP3 ADD MSTORE PUSH1 0x84 ADD JUMPDEST PUSH1 0x40 MLOAD DUP1 SWAP2 SUB SWAP1 REVERT JUMPDEST PUSH1 0x1 PUSH1 0x1 PUSH1 0xA0 SHL SUB DUP3 AND PUSH2 0x500 JUMPI PUSH1 0x40 MLOAD PUSH3 0x461BCD PUSH1 0xE5 SHL DUP2 MSTORE PUSH1 0x20 PUSH1 0x4 DUP3 ADD MSTORE PUSH1 0x22 PUSH1 0x24 DUP3 ADD MSTORE PUSH32 0x45524332303A20617070726F766520746F20746865207A65726F206164647265 PUSH1 0x44 DUP3 ADD MSTORE PUSH2 0x7373 PUSH1 0xF0 SHL PUSH1 0x64 DUP3 ADD MSTORE PUSH1 0x84 ADD PUSH2 0x496 JUMP JUMPDEST PUSH1 0x1 PUSH1 0x1 PUSH1 0xA0 SHL SUB DUP4 DUP2 AND PUSH0 DUP2 DUP2 MSTORE PUSH1 0x1 PUSH1 0x20 SWAP1 DUP2 MSTORE PUSH1 0x40 DUP1 DUP4 KECCAK256 SWAP5 DUP8 AND DUP1 DUP5 MSTORE SWAP5 DUP3 MSTORE SWAP2 DUP3 SWAP1 KECCAK256 DUP6 SWAP1 SSTORE SWAP1 MLOAD DUP5 DUP2 MSTORE PUSH32 0x8C5BE1E5EBEC7D5BD14F71427D1E84F3DD0314C0F7B2291E5B200AC8C7C3B925 SWAP2 ADD JUMPDEST PUSH1 0x40 MLOAD DUP1 SWAP2 SUB SWAP1 LOG3 POP POP POP JUMP JUMPDEST PUSH1 0x1 PUSH1 0x1 PUSH1 0xA0 SHL SUB DUP4 AND PUSH2 0x5B7 JUMPI PUSH1 0x40 MLOAD PUSH3 0x461BCD PUSH1 0xE5 SHL DUP2 MSTORE PUSH1 0x20 PUSH1 0x4 DUP3 ADD MSTORE PUSH1 0x1F PUSH1 0x24 DUP3 ADD MSTORE PUSH32 0x45524332303A206D696E7420746F20746865207A65726F206164647265737300 PUSH1 0x44 DUP3 ADD MSTORE PUSH1 0x64 ADD PUSH2 0x496 JUMP JUMPDEST PUSH1 0x1 PUSH1 0x1 PUSH1 0xA0 SHL SUB DUP4 AND PUSH0 SWAP1 DUP2 MSTORE PUSH1 0x6 PUSH1 0x20 MSTORE PUSH1 0x40 SWAP1 KECCAK256 SLOAD PUSH2 0x5DA SWAP1 DUP4 SWAP1 PUSH2 0x8DD JUMP JUMPDEST PUSH1 0x1 PUSH1 0x1 PUSH1 0xA0 SHL SUB DUP5 AND PUSH0 DUP2 DUP2 MSTORE PUSH1 0x6 PUSH1 0x20 MSTORE PUSH1 0x40 DUP1 DUP3 KECCAK256 SWAP4 SWAP1 SWAP4 SSTORE SWAP2 MLOAD SWAP1 SWAP2 SWAP1 PUSH32 0xDDF252AD1BE2C89B69C2B068FC378DAA952BA7F163C4A11628F55A4DF523B3EF SWAP1 PUSH2 0x554 SWAP1 DUP6 DUP2 MSTORE PUSH1 0x20 ADD SWAP1 JUMP JUMPDEST PUSH4 0x4E487B71 PUSH1 0xE0 SHL PUSH0 MSTORE PUSH1 0x41 PUSH1 0x4 MSTORE PUSH1 0x24 PUSH0 REVERT JUMPDEST PUSH1 0x1 DUP2 DUP2 SHR SWAP1 DUP3 AND DUP1 PUSH2 0x652 JUMPI PUSH1 0x7F DUP3 AND SWAP2 POP JUMPDEST PUSH1 0x20 DUP3 LT DUP2 SUB PUSH2 0x670 JUMPI PUSH4 0x4E487B71 PUSH1 0xE0 SHL PUSH0 MSTORE PUSH1 0x22 PUSH1 0x4 MSTORE PUSH1 0x24 PUSH0 REVERT JUMPDEST POP SWAP2 SWAP1 POP JUMP JUMPDEST PUSH1 0x1F DUP3 GT ISZERO PUSH2 0x6BD JUMPI DUP1 PUSH0 MSTORE PUSH1 0x20 PUSH0 KECCAK256 PUSH1 0x1F DUP5 ADD PUSH1 0x5 SHR DUP2 ADD PUSH1 0x20 DUP6 LT ISZERO PUSH2 0x69B JUMPI POP DUP1 JUMPDEST PUSH1 0x1F DUP5 ADD PUSH1 0x5 SHR DUP3 ADD SWAP2 POP JUMPDEST DUP2 DUP2 LT ISZERO PUSH2 0x6BA JUMPI PUSH0 DUP2 SSTORE PUSH1 0x1 ADD PUSH2 0x6A7 JUMP JUMPDEST POP POP JUMPDEST POP POP POP JUMP JUMPDEST DUP2 MLOAD PUSH1 0x1 PUSH1 0x1 PUSH1 0x40 SHL SUB DUP2 GT ISZERO PUSH2 0x6DB JUMPI PUSH2 0x6DB PUSH2 0x62A JUMP JUMPDEST PUSH2 0x6EF DUP2 PUSH2 0x6E9 DUP5 SLOAD PUSH2 0x63E JUMP JUMPDEST DUP5 PUSH2 0x676 JUMP JUMPDEST PUSH1 0x20 DUP1 PUSH1 0x1F DUP4 GT PUSH1 0x1 DUP2 EQ PUSH2 0x722 JUMPI PUSH0 DUP5 ISZERO PUSH2 0x70B JUMPI POP DUP6 DUP4 ADD MLOAD JUMPDEST PUSH0 NOT PUSH1 0x3 DUP7 SWAP1 SHL SHR NOT AND PUSH1 0x1 DUP6 SWAP1 SHL OR DUP6 SSTORE PUSH2 0x779 JUMP JUMPDEST PUSH0 DUP6 DUP2 MSTORE PUSH1 0x20 DUP2 KECCAK256 PUSH1 0x1F NOT DUP7 AND SWAP2 JUMPDEST DUP3 DUP2 LT ISZERO PUSH2 0x750 JUMPI DUP9 DUP7 ADD MLOAD DUP3 SSTORE SWAP5 DUP5 ADD SWAP5 PUSH1 0x1 SWAP1 SWAP2 ADD SWAP1 DUP5 ADD PUSH2 0x731 JUMP JUMPDEST POP DUP6 DUP3 LT ISZERO PUSH2 0x76D JUMPI DUP8 DUP6 ADD MLOAD PUSH0 NOT PUSH1 0x3 DUP9 SWAP1 SHL PUSH1 0xF8 AND SHR NOT AND DUP2 SSTORE JUMPDEST POP POP PUSH1 0x1 DUP5 PUSH1 0x1 SHL ADD DUP6 SSTORE JUMPDEST POP POP POP POP POP POP JUMP JUMPDEST PUSH4 0x4E487B71 PUSH1 0xE0 SHL PUSH0 MSTORE PUSH1 0x11 PUSH1 0x4 MSTORE PUSH1 0x24 PUSH0 REVERT JUMPDEST PUSH1 0x1 DUP2 DUP2 JUMPDEST DUP1 DUP6 GT ISZERO PUSH2 0x7CF JUMPI DUP2 PUSH0 NOT DIV DUP3 GT ISZERO PUSH2 0x7B5 JUMPI PUSH2 0x7B5 PUSH2 0x781 JUMP JUMPDEST DUP1 DUP6 AND ISZERO PUSH2 0x7C2 JUMPI SWAP2 DUP2 MUL SWAP2 JUMPDEST SWAP4 DUP5 SHR SWAP4 SWAP1 DUP1 MUL SWAP1 PUSH2 0x79A JUMP JUMPDEST POP SWAP3 POP SWAP3 SWAP1 POP JUMP JUMPDEST PUSH0 DUP3 PUSH2 0x7E5 JUMPI POP PUSH1 0x1 PUSH2 0x871 JUMP JUMPDEST DUP2 PUSH2 0x7F1 JUMPI POP PUSH0 PUSH2 0x871 JUMP JUMPDEST DUP2 PUSH1 0x1 DUP2 EQ PUSH2 0x807 JUMPI PUSH1 0x2 DUP2 EQ PUSH2 0x811 JUMPI PUSH2 0x82D JUMP JUMPDEST PUSH1 0x1 SWAP2 POP POP PUSH2 0x871 JUMP JUMPDEST PUSH1 0xFF DUP5 GT ISZERO PUSH2 0x822 JUMPI PUSH2 0x822 PUSH2 0x781 JUMP JUMPDEST POP POP PUSH1 0x1 DUP3 SHL PUSH2 0x871 JUMP JUMPDEST POP PUSH1 0x20 DUP4 LT PUSH2 0x133 DUP4 LT AND PUSH1 0x4E DUP5 LT PUSH1 0xB DUP5 LT AND OR ISZERO PUSH2 0x850 JUMPI POP DUP2 DUP2 EXP PUSH2 0x871 JUMP JUMPDEST PUSH2 0x85A DUP4 DUP4 PUSH2 0x795 JUMP JUMPDEST DUP1 PUSH0 NOT DIV DUP3 GT ISZERO PUSH2 0x86D JUMPI PUSH2 0x86D PUSH2 0x781 JUMP JUMPDEST MUL SWAP1 POP JUMPDEST SWAP3 SWAP2 POP POP JUMP JUMPDEST PUSH0 PUSH2 0x885 PUSH1 0xFF DUP5 AND DUP4 PUSH2 0x7D7 JUMP JUMPDEST SWAP4 SWAP3 POP POP POP JUMP JUMPDEST DUP1 DUP3 MUL DUP2 ISZERO DUP3 DUP3 DIV DUP5 EQ OR PUSH2 0x871 JUMPI PUSH2 0x871 PUSH2 0x781 JUMP JUMPDEST PUSH4 0x4E487B71 PUSH1 0xE0 SHL PUSH0 MSTORE PUSH1 0x12 PUSH1 0x4 MSTORE PUSH1 0x24 PUSH0 REVERT JUMPDEST PUSH0 DUP3 PUSH2 0x8C5 JUMPI PUSH2 0x8C5 PUSH2 0x8A3 JUMP JUMPDEST POP MOD SWAP1 JUMP JUMPDEST DUP2 DUP2 SUB DUP2 DUP2 GT ISZERO PUSH2 0x871 JUMPI PUSH2 0x871 PUSH2 0x781 JUMP JUMPDEST DUP1 DUP3 ADD DUP1 DUP3 GT ISZERO PUSH2 0x871 JUMPI PUSH2 0x871 PUSH2 0x781 JUMP JUMPDEST PUSH0 DUP3 PUSH2 0x8FE JUMPI PUSH2 0x8FE PUSH2 0x8A3 JUMP JUMPDEST POP DIV SWAP1 JUMP JUMPDEST PUSH0 PUSH1 0x20 DUP3 DUP5 SUB SLT ISZERO PUSH2 0x913 JUMPI PUSH0 DUP1 REVERT JUMPDEST DUP2 MLOAD PUSH1 0x1 PUSH1 0x1 PUSH1 0xA0 SHL SUB DUP2 AND DUP2 EQ PUSH2 0x885 JUMPI PUSH0 DUP1 REVERT JUMPDEST PUSH1 0x80 MLOAD PUSH1 0xA0 MLOAD PUSH2 0x3846 PUSH2 0x966 PUSH0 CODECOPY PUSH0 DUP2 DUP2 PUSH2 0x5F8 ADD MSTORE PUSH2 0x2524 ADD MSTORE PUSH0 DUP2 DUP2 PUSH2 0x429 ADD MSTORE DUP2 DUP2 PUSH2 0x2D80 ADD MSTORE DUP2 DUP2 PUSH2 0x2E36 ADD MSTORE PUSH2 0x2F74 ADD MSTORE PUSH2 0x3846 PUSH0 RETURN INVALID PUSH1 0x80 PUSH1 0x40 MSTORE PUSH1 0x4 CALLDATASIZE LT PUSH2 0x374 JUMPI PUSH0 CALLDATALOAD PUSH1 0xE0 SHR DUP1 PUSH4 0x715018A6 GT PUSH2 0x1C8 JUMPI DUP1 PUSH4 0xC3A1ED48 GT PUSH2 0xFD JUMPI DUP1 PUSH4 0xDD62ED3E GT PUSH2 0x9D JUMPI DUP1 PUSH4 0xEC28438A GT PUSH2 0x6D JUMPI DUP1 PUSH4 0xEC28438A EQ PUSH2 0x9EC JUMPI DUP1 PUSH4 0xEDC2FCFB EQ PUSH2 0xA0B JUMPI DUP1 PUSH4 0xF2FDE38B EQ PUSH2 0xA2A JUMPI DUP1 PUSH4 0xFDEB889F EQ PUSH2 0xA49 JUMPI PUSH0 DUP1 REVERT JUMPDEST DUP1 PUSH4 0xDD62ED3E EQ PUSH2 0x94B JUMPI DUP1 PUSH4 0xE547BE69 EQ PUSH2 0x98F JUMPI DUP1 PUSH4 0xE6BE4A72 EQ PUSH2 0x9AE JUMPI DUP1 PUSH4 0xEA2F0B37 EQ PUSH2 0x9CD JUMPI PUSH0 DUP1 REVERT JUMPDEST DUP1 PUSH4 0xCACCD7F7 GT PUSH2 0xD8 JUMPI DUP1 PUSH4 0xCACCD7F7 EQ PUSH2 0x8C2 JUMPI DUP1 PUSH4 0xCBA0E996 EQ PUSH2 0x8E1 JUMPI DUP1 PUSH4 0xCE831ED5 EQ PUSH2 0x918 JUMPI DUP1 PUSH4 0xDCC345F2 EQ PUSH2 0x92C JUMPI PUSH0 DUP1 REVERT JUMPDEST DUP1 PUSH4 0xC3A1ED48 EQ PUSH2 0x88F JUMPI DUP1 PUSH4 0xC49B9A80 EQ PUSH2 0x8A3 JUMPI DUP1 PUSH4 0xC580C73A EQ PUSH2 0x657 JUMPI PUSH0 DUP1 REVERT JUMPDEST DUP1 PUSH4 0xA073D37F GT PUSH2 0x168 JUMPI DUP1 PUSH4 0xA9059CBB GT PUSH2 0x143 JUMPI DUP1 PUSH4 0xA9059CBB EQ PUSH2 0x81D JUMPI DUP1 PUSH4 0xA94C8DD2 EQ PUSH2 0x83C JUMPI DUP1 PUSH4 0xAFCF2FC4 EQ PUSH2 0x85B JUMPI DUP1 PUSH4 0xC0B0FDA2 EQ PUSH2 0x87A JUMPI PUSH0 DUP1 REVERT JUMPDEST DUP1 PUSH4 0xA073D37F EQ PUSH2 0x7CB JUMPI DUP1 PUSH4 0xA457C2D7 EQ PUSH2 0x7DF JUMPI DUP1 PUSH4 0xA5ECE941 EQ PUSH2 0x7FE JUMPI PUSH0 DUP1 REVERT JUMPDEST DUP1 PUSH4 0x8A0623B4 GT PUSH2 0x1A3 JUMPI DUP1 PUSH4 0x8A0623B4 EQ PUSH2 0x766 JUMPI DUP1 PUSH4 0x8DA5CB5B EQ PUSH2 0x77B JUMPI DUP1 PUSH4 0x906E9DD0 EQ PUSH2 0x798 JUMPI DUP1 PUSH4 0x95D89B41 EQ PUSH2 0x7B7 JUMPI PUSH0 DUP1 REVERT JUMPDEST DUP1 PUSH4 0x715018A6 EQ PUSH2 0x71E JUMPI DUP1 PUSH4 0x79CC6790 EQ PUSH2 0x732 JUMPI DUP1 PUSH4 0x7D1DB4A5 EQ PUSH2 0x751 JUMPI PUSH0 DUP1 REVERT JUMPDEST DUP1 PUSH4 0x40212314 GT PUSH2 0x2A9 JUMPI DUP1 PUSH4 0x4A74BB02 GT PUSH2 0x249 JUMPI DUP1 PUSH4 0x6049876E GT PUSH2 0x219 JUMPI DUP1 PUSH4 0x6049876E EQ PUSH2 0x6A2 JUMPI DUP1 PUSH4 0x625E764C EQ PUSH2 0x6C1 JUMPI DUP1 PUSH4 0x6C317232 EQ PUSH2 0x6E0 JUMPI DUP1 PUSH4 0x70A08231 EQ PUSH2 0x6FF JUMPI PUSH0 DUP1 REVERT JUMPDEST DUP1 PUSH4 0x4A74BB02 EQ PUSH2 0x61A JUMPI DUP1 PUSH4 0x4BF2C7C9 EQ PUSH2 0x638 JUMPI DUP1 PUSH4 0x50E8676C EQ PUSH2 0x657 JUMPI DUP1 PUSH4 0x5342ACB4 EQ PUSH2 0x66B JUMPI PUSH0 DUP1 REVERT JUMPDEST DUP1 PUSH4 0x437823EC GT PUSH2 0x284 JUMPI DUP1 PUSH4 0x437823EC EQ PUSH2 0x594 JUMPI DUP1 PUSH4 0x4549B039 EQ PUSH2 0x5B3 JUMPI DUP1 PUSH4 0x48DE478E EQ PUSH2 0x5D2 JUMPI DUP1 PUSH4 0x49BD5A5E EQ PUSH2 0x5E7 JUMPI PUSH0 DUP1 REVERT JUMPDEST DUP1 PUSH4 0x40212314 EQ PUSH2 0x54C JUMPI DUP1 PUSH4 0x40F8007A EQ PUSH2 0x560 JUMPI DUP1 PUSH4 0x42966C68 EQ PUSH2 0x575 JUMPI PUSH0 DUP1 REVERT JUMPDEST DUP1 PUSH4 0x22976E0D GT PUSH2 0x314 JUMPI DUP1 PUSH4 0x313CE567 GT PUSH2 0x2EF JUMPI DUP1 PUSH4 0x313CE567 EQ PUSH2 0x4E9 JUMPI DUP1 PUSH4 0x32035504 EQ PUSH2 0x504 JUMPI DUP1 PUSH4 0x3206B4AA EQ PUSH2 0x518 JUMPI DUP1 PUSH4 0x39509351 EQ PUSH2 0x52D JUMPI PUSH0 DUP1 REVERT JUMPDEST DUP1 PUSH4 0x22976E0D EQ PUSH2 0x4A0 JUMPI DUP1 PUSH4 0x23B872DD EQ PUSH2 0x4B5 JUMPI DUP1 PUSH4 0x27C8F835 EQ PUSH2 0x4D4 JUMPI PUSH0 DUP1 REVERT JUMPDEST DUP1 PUSH4 0xC9BE46D GT PUSH2 0x34F JUMPI DUP1 PUSH4 0xC9BE46D EQ PUSH2 0x3F9 JUMPI DUP1 PUSH4 0x1694505E EQ PUSH2 0x418 JUMPI DUP1 PUSH4 0x18160DDD EQ PUSH2 0x463 JUMPI DUP1 PUSH4 0x20C7C596 EQ PUSH2 0x481 JUMPI PUSH0 DUP1 REVERT JUMPDEST DUP1 PUSH4 0x53AB182 EQ PUSH2 0x37F JUMPI DUP1 PUSH4 0x6FDDE03 EQ PUSH2 0x3A0 JUMPI DUP1 PUSH4 0x95EA7B3 EQ PUSH2 0x3CA JUMPI PUSH0 DUP1 REVERT JUMPDEST CALLDATASIZE PUSH2 0x37B JUMPI STOP JUMPDEST PUSH0 DUP1 REVERT JUMPDEST CALLVALUE DUP1 ISZERO PUSH2 0x38A JUMPI PUSH0 DUP1 REVERT JUMPDEST POP PUSH2 0x39E PUSH2 0x399 CALLDATASIZE PUSH1 0x4 PUSH2 0x3449 JUMP JUMPDEST PUSH2 0xA68 JUMP JUMPDEST STOP JUMPDEST CALLVALUE DUP1 ISZERO PUSH2 0x3AB JUMPI PUSH0 DUP1 REVERT JUMPDEST POP PUSH2 0x3B4 PUSH2 0xB53 JUMP JUMPDEST PUSH1 0x40 MLOAD PUSH2 0x3C1 SWAP2 SWAP1 PUSH2 0x3460 JUMP JUMPDEST PUSH1 0x40 MLOAD DUP1 SWAP2 SUB SWAP1 RETURN JUMPDEST CALLVALUE DUP1 ISZERO PUSH2 0x3D5 JUMPI PUSH0 DUP1 REVERT JUMPDEST POP PUSH2 0x3E9 PUSH2 0x3E4 CALLDATASIZE PUSH1 0x4 PUSH2 0x34A9 JUMP JUMPDEST PUSH2 0xBE3 JUMP JUMPDEST PUSH1 0x40 MLOAD SWAP1 ISZERO ISZERO DUP2 MSTORE PUSH1 0x20 ADD PUSH2 0x3C1 JUMP JUMPDEST CALLVALUE DUP1 ISZERO PUSH2 0x404 JUMPI PUSH0 DUP1 REVERT JUMPDEST POP PUSH2 0x39E PUSH2 0x413 CALLDATASIZE PUSH1 0x4 PUSH2 0x34D3 JUMP JUMPDEST PUSH2 0xBF9 JUMP JUMPDEST CALLVALUE DUP1 ISZERO PUSH2 0x423 JUMPI PUSH0 DUP1 REVERT JUMPDEST POP PUSH2 0x44B PUSH32 0x0 DUP2 JUMP JUMPDEST PUSH1 0x40 MLOAD PUSH1 0x1 PUSH1 0x1 PUSH1 0xA0 SHL SUB SWAP1 SWAP2 AND DUP2 MSTORE PUSH1 0x20 ADD PUSH2 0x3C1 JUMP JUMPDEST CALLVALUE DUP1 ISZERO PUSH2 0x46E JUMPI PUSH0 DUP1 REVERT JUMPDEST POP PUSH1 0xE SLOAD JUMPDEST PUSH1 0x40 MLOAD SWAP1 DUP2 MSTORE PUSH1 0x20 ADD PUSH2 0x3C1 JUMP JUMPDEST CALLVALUE DUP1 ISZERO PUSH2 0x48C JUMPI PUSH0 DUP1 REVERT JUMPDEST POP PUSH2 0x39E PUSH2 0x49B CALLDATASIZE PUSH1 0x4 PUSH2 0x3449 JUMP JUMPDEST PUSH2 0xC85 JUMP JUMPDEST CALLVALUE DUP1 ISZERO PUSH2 0x4AB JUMPI PUSH0 DUP1 REVERT JUMPDEST POP PUSH2 0x473 PUSH1 0x19 SLOAD DUP2 JUMP JUMPDEST CALLVALUE DUP1 ISZERO PUSH2 0x4C0 JUMPI PUSH0 DUP1 REVERT JUMPDEST POP PUSH2 0x3E9 PUSH2 0x4CF CALLDATASIZE PUSH1 0x4 PUSH2 0x34EE JUMP JUMPDEST PUSH2 0xDAA JUMP JUMPDEST CALLVALUE DUP1 ISZERO PUSH2 0x4DF JUMPI PUSH0 DUP1 REVERT JUMPDEST POP PUSH2 0x44B PUSH2 0xDEAD DUP2 JUMP JUMPDEST CALLVALUE DUP1 ISZERO PUSH2 0x4F4 JUMPI PUSH0 DUP1 REVERT JUMPDEST POP PUSH1 0x40 MLOAD PUSH1 0x12 DUP2 MSTORE PUSH1 0x20 ADD PUSH2 0x3C1 JUMP JUMPDEST CALLVALUE DUP1 ISZERO PUSH2 0x50F JUMPI PUSH0 DUP1 REVERT JUMPDEST POP PUSH1 0x10 SLOAD PUSH2 0x473 JUMP JUMPDEST CALLVALUE DUP1 ISZERO PUSH2 0x523 JUMPI PUSH0 DUP1 REVERT JUMPDEST POP PUSH2 0x473 PUSH1 0x11 SLOAD DUP2 JUMP JUMPDEST CALLVALUE DUP1 ISZERO PUSH2 0x538 JUMPI PUSH0 DUP1 REVERT JUMPDEST POP PUSH2 0x3E9 PUSH2 0x547 CALLDATASIZE PUSH1 0x4 PUSH2 0x34A9 JUMP JUMPDEST PUSH2 0xE52 JUMP JUMPDEST CALLVALUE DUP1 ISZERO PUSH2 0x557 JUMPI PUSH0 DUP1 REVERT JUMPDEST POP PUSH2 0x473 PUSH1 0x2 DUP2 JUMP JUMPDEST CALLVALUE DUP1 ISZERO PUSH2 0x56B JUMPI PUSH0 DUP1 REVERT JUMPDEST POP PUSH2 0x473 PUSH1 0x1D SLOAD DUP2 JUMP JUMPDEST CALLVALUE DUP1 ISZERO PUSH2 0x580 JUMPI PUSH0 DUP1 REVERT JUMPDEST POP PUSH2 0x39E PUSH2 0x58F CALLDATASIZE PUSH1 0x4 PUSH2 0x3449 JUMP JUMPDEST PUSH2 0xE8D JUMP JUMPDEST CALLVALUE DUP1 ISZERO PUSH2 0x59F JUMPI PUSH0 DUP1 REVERT JUMPDEST POP PUSH2 0x39E PUSH2 0x5AE CALLDATASIZE PUSH1 0x4 PUSH2 0x34D3 JUMP JUMPDEST PUSH2 0xE9A JUMP JUMPDEST CALLVALUE DUP1 ISZERO PUSH2 0x5BE JUMPI PUSH0 DUP1 REVERT JUMPDEST POP PUSH2 0x473 PUSH2 0x5CD CALLDATASIZE PUSH1 0x4 PUSH2 0x3539 JUMP JUMPDEST PUSH2 0xEE7 JUMP JUMPDEST CALLVALUE DUP1 ISZERO PUSH2 0x5DD JUMPI PUSH0 DUP1 REVERT JUMPDEST POP PUSH2 0x473 PUSH1 0x1B SLOAD DUP2 JUMP JUMPDEST CALLVALUE DUP1 ISZERO PUSH2 0x5F2 JUMPI PUSH0 DUP1 REVERT JUMPDEST POP PUSH2 0x44B PUSH32 0x0 DUP2 JUMP JUMPDEST CALLVALUE DUP1 ISZERO PUSH2 0x625 JUMPI PUSH0 DUP1 REVERT JUMPDEST POP PUSH1 0x22 SLOAD PUSH2 0x3E9 SWAP1 PUSH2 0x100 SWAP1 DIV PUSH1 0xFF AND DUP2 JUMP JUMPDEST CALLVALUE DUP1 ISZERO PUSH2 0x643 JUMPI PUSH0 DUP1 REVERT JUMPDEST POP PUSH2 0x39E PUSH2 0x652 CALLDATASIZE PUSH1 0x4 PUSH2 0x3449 JUMP JUMPDEST PUSH2 0xF6D JUMP JUMPDEST CALLVALUE DUP1 ISZERO PUSH2 0x662 JUMPI PUSH0 DUP1 REVERT JUMPDEST POP PUSH2 0x473 PUSH1 0x1 DUP2 JUMP JUMPDEST CALLVALUE DUP1 ISZERO PUSH2 0x676 JUMPI PUSH0 DUP1 REVERT JUMPDEST POP PUSH2 0x3E9 PUSH2 0x685 CALLDATASIZE PUSH1 0x4 PUSH2 0x34D3 JUMP JUMPDEST PUSH1 0x1 PUSH1 0x1 PUSH1 0xA0 SHL SUB AND PUSH0 SWAP1 DUP2 MSTORE PUSH1 0x8 PUSH1 0x20 MSTORE PUSH1 0x40 SWAP1 KECCAK256 SLOAD PUSH1 0xFF AND SWAP1 JUMP JUMPDEST CALLVALUE DUP1 ISZERO PUSH2 0x6AD JUMPI PUSH0 DUP1 REVERT JUMPDEST POP PUSH2 0x39E PUSH2 0x6BC CALLDATASIZE PUSH1 0x4 PUSH2 0x34D3 JUMP JUMPDEST PUSH2 0x102E JUMP JUMPDEST CALLVALUE DUP1 ISZERO PUSH2 0x6CC JUMPI PUSH0 DUP1 REVERT JUMPDEST POP PUSH2 0x39E PUSH2 0x6DB CALLDATASIZE PUSH1 0x4 PUSH2 0x3449 JUMP JUMPDEST PUSH2 0x11F0 JUMP JUMPDEST CALLVALUE DUP1 ISZERO PUSH2 0x6EB JUMPI PUSH0 DUP1 REVERT JUMPDEST POP PUSH2 0x39E PUSH2 0x6FA CALLDATASIZE PUSH1 0x4 PUSH2 0x3449 JUMP JUMPDEST PUSH2 0x130E JUMP JUMPDEST CALLVALUE DUP1 ISZERO PUSH2 0x70A JUMPI PUSH0 DUP1 REVERT JUMPDEST POP PUSH2 0x473 PUSH2 0x719 CALLDATASIZE PUSH1 0x4 PUSH2 0x34D3 JUMP JUMPDEST PUSH2 0x1420 JUMP JUMPDEST CALLVALUE DUP1 ISZERO PUSH2 0x729 JUMPI PUSH0 DUP1 REVERT JUMPDEST POP PUSH2 0x39E PUSH2 0x147C JUMP JUMPDEST CALLVALUE DUP1 ISZERO PUSH2 0x73D JUMPI PUSH0 DUP1 REVERT JUMPDEST POP PUSH2 0x39E PUSH2 0x74C CALLDATASIZE PUSH1 0x4 PUSH2 0x34A9 JUMP JUMPDEST PUSH2 0x14B1 JUMP JUMPDEST CALLVALUE DUP1 ISZERO PUSH2 0x75C JUMPI PUSH0 DUP1 REVERT JUMPDEST POP PUSH2 0x473 PUSH1 0x1F SLOAD DUP2 JUMP JUMPDEST CALLVALUE DUP1 ISZERO PUSH2 0x771 JUMPI PUSH0 DUP1 REVERT JUMPDEST POP PUSH2 0x473 PUSH1 0x15 SLOAD DUP2 JUMP JUMPDEST CALLVALUE DUP1 ISZERO PUSH2 0x786 JUMPI PUSH0 DUP1 REVERT JUMPDEST POP PUSH1 0x5 SLOAD PUSH1 0x1 PUSH1 0x1 PUSH1 0xA0 SHL SUB AND PUSH2 0x44B JUMP JUMPDEST CALLVALUE DUP1 ISZERO PUSH2 0x7A3 JUMPI PUSH0 DUP1 REVERT JUMPDEST POP PUSH2 0x39E PUSH2 0x7B2 CALLDATASIZE PUSH1 0x4 PUSH2 0x34D3 JUMP JUMPDEST PUSH2 0x1536 JUMP JUMPDEST CALLVALUE DUP1 ISZERO PUSH2 0x7C2 JUMPI PUSH0 DUP1 REVERT JUMPDEST POP PUSH2 0x3B4 PUSH2 0x15BA JUMP JUMPDEST CALLVALUE DUP1 ISZERO PUSH2 0x7D6 JUMPI PUSH0 DUP1 REVERT JUMPDEST POP PUSH1 0x21 SLOAD PUSH2 0x473 JUMP JUMPDEST CALLVALUE DUP1 ISZERO PUSH2 0x7EA JUMPI PUSH0 DUP1 REVERT JUMPDEST POP PUSH2 0x3E9 PUSH2 0x7F9 CALLDATASIZE PUSH1 0x4 PUSH2 0x34A9 JUMP JUMPDEST PUSH2 0x15C9 JUMP JUMPDEST CALLVALUE DUP1 ISZERO PUSH2 0x809 JUMPI PUSH0 DUP1 REVERT JUMPDEST POP PUSH1 0xB SLOAD PUSH2 0x44B SWAP1 PUSH1 0x1 PUSH1 0x1 PUSH1 0xA0 SHL SUB AND DUP2 JUMP JUMPDEST CALLVALUE DUP1 ISZERO PUSH2 0x828 JUMPI PUSH0 DUP1 REVERT JUMPDEST POP PUSH2 0x3E9 PUSH2 0x837 CALLDATASIZE PUSH1 0x4 PUSH2 0x34A9 JUMP JUMPDEST PUSH2 0x1661 JUMP JUMPDEST CALLVALUE DUP1 ISZERO PUSH2 0x847 JUMPI PUSH0 DUP1 REVERT JUMPDEST POP PUSH2 0x39E PUSH2 0x856 CALLDATASIZE PUSH1 0x4 PUSH2 0x3449 JUMP JUMPDEST PUSH2 0x166D JUMP JUMPDEST CALLVALUE DUP1 ISZERO PUSH2 0x866 JUMPI PUSH0 DUP1 REVERT JUMPDEST POP PUSH1 0xD SLOAD PUSH2 0x44B SWAP1 PUSH1 0x1 PUSH1 0x1 PUSH1 0xA0 SHL SUB AND DUP2 JUMP JUMPDEST CALLVALUE DUP1 ISZERO PUSH2 0x885 JUMPI PUSH0 DUP1 REVERT JUMPDEST POP PUSH2 0x473 PUSH1 0x17 SLOAD DUP2 JUMP JUMPDEST CALLVALUE DUP1 ISZERO PUSH2 0x89A JUMPI PUSH0 DUP1 REVERT JUMPDEST POP PUSH2 0x473 PUSH1 0x5 DUP2 JUMP JUMPDEST CALLVALUE DUP1 ISZERO PUSH2 0x8AE JUMPI PUSH0 DUP1 REVERT JUMPDEST POP PUSH2 0x39E PUSH2 0x8BD CALLDATASIZE PUSH1 0x4 PUSH2 0x3567 JUMP JUMPDEST PUSH2 0x1790 JUMP JUMPDEST CALLVALUE DUP1 ISZERO PUSH2 0x8CD JUMPI PUSH0 DUP1 REVERT JUMPDEST POP PUSH1 0xC SLOAD PUSH2 0x44B SWAP1 PUSH1 0x1 PUSH1 0x1 PUSH1 0xA0 SHL SUB AND DUP2 JUMP JUMPDEST CALLVALUE DUP1 ISZERO PUSH2 0x8EC JUMPI PUSH0 DUP1 REVERT JUMPDEST POP PUSH2 0x3E9 PUSH2 0x8FB CALLDATASIZE PUSH1 0x4 PUSH2 0x34D3 JUMP JUMPDEST PUSH1 0x1 PUSH1 0x1 PUSH1 0xA0 SHL SUB AND PUSH0 SWAP1 DUP2 MSTORE PUSH1 0x9 PUSH1 0x20 MSTORE PUSH1 0x40 SWAP1 KECCAK256 SLOAD PUSH1 0xFF AND SWAP1 JUMP JUMPDEST CALLVALUE DUP1 ISZERO PUSH2 0x923 JUMPI PUSH0 DUP1 REVERT JUMPDEST POP PUSH2 0x39E PUSH2 0x180E JUMP JUMPDEST CALLVALUE DUP1 ISZERO PUSH2 0x937 JUMPI PUSH0 DUP1 REVERT JUMPDEST POP PUSH2 0x39E PUSH2 0x946 CALLDATASIZE PUSH1 0x4 PUSH2 0x34D3 JUMP JUMPDEST PUSH2 0x1958 JUMP JUMPDEST CALLVALUE DUP1 ISZERO PUSH2 0x956 JUMPI PUSH0 DUP1 REVERT JUMPDEST POP PUSH2 0x473 PUSH2 0x965 CALLDATASIZE PUSH1 0x4 PUSH2 0x3582 JUMP JUMPDEST PUSH1 0x1 PUSH1 0x1 PUSH1 0xA0 SHL SUB SWAP2 DUP3 AND PUSH0 SWAP1 DUP2 MSTORE PUSH1 0x1 PUSH1 0x20 SWAP1 DUP2 MSTORE PUSH1 0x40 DUP1 DUP4 KECCAK256 SWAP4 SWAP1 SWAP5 AND DUP3 MSTORE SWAP2 SWAP1 SWAP2 MSTORE KECCAK256 SLOAD SWAP1 JUMP JUMPDEST CALLVALUE DUP1 ISZERO PUSH2 0x99A JUMPI PUSH0 DUP1 REVERT JUMPDEST POP PUSH2 0x39E PUSH2 0x9A9 CALLDATASIZE PUSH1 0x4 PUSH2 0x3449 JUMP JUMPDEST PUSH2 0x19DC JUMP JUMPDEST CALLVALUE DUP1 ISZERO PUSH2 0x9B9 JUMPI PUSH0 DUP1 REVERT JUMPDEST POP PUSH2 0x39E PUSH2 0x9C8 CALLDATASIZE PUSH1 0x4 PUSH2 0x34A9 JUMP JUMPDEST PUSH2 0x1AA9 JUMP JUMPDEST CALLVALUE DUP1 ISZERO PUSH2 0x9D8 JUMPI PUSH0 DUP1 REVERT JUMPDEST POP PUSH2 0x39E PUSH2 0x9E7 CALLDATASIZE PUSH1 0x4 PUSH2 0x34D3 JUMP JUMPDEST PUSH2 0x1C77 JUMP JUMPDEST CALLVALUE DUP1 ISZERO PUSH2 0x9F7 JUMPI PUSH0 DUP1 REVERT JUMPDEST POP PUSH2 0x39E PUSH2 0xA06 CALLDATASIZE PUSH1 0x4 PUSH2 0x3449 JUMP JUMPDEST PUSH2 0x1CC1 JUMP JUMPDEST CALLVALUE DUP1 ISZERO PUSH2 0xA16 JUMPI PUSH0 DUP1 REVERT JUMPDEST POP PUSH2 0x39E PUSH2 0xA25 CALLDATASIZE PUSH1 0x4 PUSH2 0x3567 JUMP JUMPDEST PUSH2 0x1DBA JUMP JUMPDEST CALLVALUE DUP1 ISZERO PUSH2 0xA35 JUMPI PUSH0 DUP1 REVERT JUMPDEST POP PUSH2 0x39E PUSH2 0xA44 CALLDATASIZE PUSH1 0x4 PUSH2 0x34D3 JUMP JUMPDEST PUSH2 0x1E7E JUMP JUMPDEST CALLVALUE DUP1 ISZERO PUSH2 0xA54 JUMPI PUSH0 DUP1 REVERT JUMPDEST POP PUSH2 0x39E PUSH2 0xA63 CALLDATASIZE PUSH1 0x4 PUSH2 0x34D3 JUMP JUMPDEST PUSH2 0x1F16 JUMP JUMPDEST CALLER PUSH0 DUP2 DUP2 MSTORE PUSH1 0x9 PUSH1 0x20 MSTORE PUSH1 0x40 SWAP1 KECCAK256 SLOAD PUSH1 0xFF AND ISZERO PUSH2 0xAE1 JUMPI PUSH1 0x40 MLOAD PUSH3 0x461BCD PUSH1 0xE5 SHL DUP2 MSTORE PUSH1 0x20 PUSH1 0x4 DUP3 ADD MSTORE PUSH1 0x2C PUSH1 0x24 DUP3 ADD MSTORE PUSH32 0x4578636C75646564206164647265737365732063616E6E6F742063616C6C2074 PUSH1 0x44 DUP3 ADD MSTORE PUSH12 0x3434B990333AB731BA34B7B7 PUSH1 0xA1 SHL PUSH1 0x64 DUP3 ADD MSTORE PUSH1 0x84 ADD JUMPDEST PUSH1 0x40 MLOAD DUP1 SWAP2 SUB SWAP1 REVERT JUMPDEST PUSH0 PUSH2 0xAEB DUP4 PUSH2 0x20BB JUMP JUMPDEST POP POP POP PUSH1 0x1 PUSH1 0x1 PUSH1 0xA0 SHL SUB DUP4 AND PUSH0 SWAP1 DUP2 MSTORE PUSH1 0x6 PUSH1 0x20 MSTORE PUSH1 0x40 SWAP1 KECCAK256 SLOAD SWAP1 SWAP2 POP PUSH2 0xB14 SWAP1 DUP3 SWAP1 PUSH2 0x35C2 JUMP JUMPDEST PUSH1 0x1 PUSH1 0x1 PUSH1 0xA0 SHL SUB DUP4 AND PUSH0 SWAP1 DUP2 MSTORE PUSH1 0x6 PUSH1 0x20 MSTORE PUSH1 0x40 SWAP1 KECCAK256 SSTORE PUSH1 0xF SLOAD PUSH2 0xB3A SWAP1 DUP3 SWAP1 PUSH2 0x35C2 JUMP JUMPDEST PUSH1 0xF SSTORE PUSH1 0x10 SLOAD PUSH2 0xB4B SWAP1 DUP5 SWAP1 PUSH2 0x35D5 JUMP JUMPDEST PUSH1 0x10 SSTORE POP POP POP JUMP JUMPDEST PUSH1 0x60 PUSH1 0x3 DUP1 SLOAD PUSH2 0xB62 SWAP1 PUSH2 0x35E8 JUMP JUMPDEST DUP1 PUSH1 0x1F ADD PUSH1 0x20 DUP1 SWAP2 DIV MUL PUSH1 0x20 ADD PUSH1 0x40 MLOAD SWAP1 DUP2 ADD PUSH1 0x40 MSTORE DUP1 SWAP3 SWAP2 SWAP1 DUP2 DUP2 MSTORE PUSH1 0x20 ADD DUP3 DUP1 SLOAD PUSH2 0xB8E SWAP1 PUSH2 0x35E8 JUMP JUMPDEST DUP1 ISZERO PUSH2 0xBD9 JUMPI DUP1 PUSH1 0x1F LT PUSH2 0xBB0 JUMPI PUSH2 0x100 DUP1 DUP4 SLOAD DIV MUL DUP4 MSTORE SWAP2 PUSH1 0x20 ADD SWAP2 PUSH2 0xBD9 JUMP JUMPDEST DUP3 ADD SWAP2 SWAP1 PUSH0 MSTORE PUSH1 0x20 PUSH0 KECCAK256 SWAP1 JUMPDEST DUP2 SLOAD DUP2 MSTORE SWAP1 PUSH1 0x1 ADD SWAP1 PUSH1 0x20 ADD DUP1 DUP4 GT PUSH2 0xBBC JUMPI DUP3 SWAP1 SUB PUSH1 0x1F AND DUP3 ADD SWAP2 JUMPDEST POP POP POP POP POP SWAP1 POP SWAP1 JUMP JUMPDEST PUSH0 PUSH2 0xBEF CALLER DUP5 DUP5 PUSH2 0x210C JUMP JUMPDEST POP PUSH1 0x1 JUMPDEST SWAP3 SWAP2 POP POP JUMP JUMPDEST PUSH1 0x5 SLOAD PUSH1 0x1 PUSH1 0x1 PUSH1 0xA0 SHL SUB AND CALLER EQ PUSH2 0xC23 JUMPI PUSH1 0x40 MLOAD PUSH3 0x461BCD PUSH1 0xE5 SHL DUP2 MSTORE PUSH1 0x4 ADD PUSH2 0xAD8 SWAP1 PUSH2 0x3620 JUMP JUMPDEST PUSH1 0xD DUP1 SLOAD PUSH1 0x1 PUSH1 0x1 PUSH1 0xA0 SHL SUB DUP4 DUP2 AND PUSH1 0x1 PUSH1 0x1 PUSH1 0xA0 SHL SUB NOT DUP4 AND DUP2 OR SWAP1 SWAP4 SSTORE PUSH1 0x40 DUP1 MLOAD SWAP2 SWAP1 SWAP3 AND DUP1 DUP3 MSTORE PUSH1 0x20 DUP3 ADD SWAP4 SWAP1 SWAP4 MSTORE PUSH32 0xD824BEDE52134285982C2DBBFB23840EEDA8D21C2EA774A50F74495D61474392 SWAP2 ADD JUMPDEST PUSH1 0x40 MLOAD DUP1 SWAP2 SUB SWAP1 LOG1 POP POP JUMP JUMPDEST PUSH1 0x5 SLOAD PUSH1 0x1 PUSH1 0x1 PUSH1 0xA0 SHL SUB AND CALLER EQ PUSH2 0xCAF JUMPI PUSH1 0x40 MLOAD PUSH3 0x461BCD PUSH1 0xE5 SHL DUP2 MSTORE PUSH1 0x4 ADD PUSH2 0xAD8 SWAP1 PUSH2 0x3620 JUMP JUMPDEST PUSH1 0x2 DUP2 GT ISZERO PUSH2 0xD0A JUMPI PUSH1 0x40 MLOAD PUSH3 0x461BCD PUSH1 0xE5 SHL DUP2 MSTORE PUSH1 0x20 PUSH1 0x4 DUP3 ADD MSTORE PUSH1 0x21 PUSH1 0x24 DUP3 ADD MSTORE PUSH32 0x4368617269747920666565206578636565647320746865203225206C696D6974 PUSH1 0x44 DUP3 ADD MSTORE PUSH1 0x17 PUSH1 0xF9 SHL PUSH1 0x64 DUP3 ADD MSTORE PUSH1 0x84 ADD PUSH2 0xAD8 JUMP JUMPDEST PUSH2 0xD12 PUSH2 0x222F JUMP JUMPDEST PUSH0 DUP2 PUSH1 0x1B SLOAD PUSH1 0x19 SLOAD PUSH1 0x15 SLOAD PUSH2 0xD27 SWAP2 SWAP1 PUSH2 0x35D5 JUMP JUMPDEST PUSH2 0xD31 SWAP2 SWAP1 PUSH2 0x35D5 JUMP JUMPDEST PUSH2 0xD3B SWAP2 SWAP1 PUSH2 0x35D5 JUMP JUMPDEST SWAP1 POP PUSH1 0x1 DUP2 LT ISZERO PUSH2 0xD5E JUMPI PUSH1 0x40 MLOAD PUSH3 0x461BCD PUSH1 0xE5 SHL DUP2 MSTORE PUSH1 0x4 ADD PUSH2 0xAD8 SWAP1 PUSH2 0x3655 JUMP JUMPDEST PUSH1 0x1D DUP1 SLOAD SWAP1 DUP4 SWAP1 SSTORE PUSH1 0x13 DUP3 SWAP1 SSTORE PUSH1 0x40 DUP1 MLOAD DUP3 DUP2 MSTORE PUSH1 0x20 DUP2 ADD DUP6 SWAP1 MSTORE PUSH32 0xD3D6FF715A7F1AC2A5ED3FB8B1D5473A4D20852A8AAC0E70546C851819E25BBC SWAP2 ADD JUMPDEST PUSH1 0x40 MLOAD DUP1 SWAP2 SUB SWAP1 LOG1 POP POP POP JUMP JUMPDEST PUSH0 PUSH2 0xDB6 DUP5 DUP5 DUP5 PUSH2 0x22C7 JUMP JUMPDEST PUSH1 0x1 PUSH1 0x1 PUSH1 0xA0 SHL SUB DUP5 AND PUSH0 SWAP1 DUP2 MSTORE PUSH1 0x1 PUSH1 0x20 SWAP1 DUP2 MSTORE PUSH1 0x40 DUP1 DUP4 KECCAK256 CALLER DUP5 MSTORE SWAP1 SWAP2 MSTORE SWAP1 KECCAK256 SLOAD DUP3 DUP2 LT ISZERO PUSH2 0xE3A JUMPI PUSH1 0x40 MLOAD PUSH3 0x461BCD PUSH1 0xE5 SHL DUP2 MSTORE PUSH1 0x20 PUSH1 0x4 DUP3 ADD MSTORE PUSH1 0x28 PUSH1 0x24 DUP3 ADD MSTORE PUSH32 0x45524332303A207472616E7366657220616D6F756E7420657863656564732061 PUSH1 0x44 DUP3 ADD MSTORE PUSH8 0x6C6C6F77616E6365 PUSH1 0xC0 SHL PUSH1 0x64 DUP3 ADD MSTORE PUSH1 0x84 ADD PUSH2 0xAD8 JUMP JUMPDEST PUSH2 0xE47 DUP6 CALLER DUP6 DUP5 SUB PUSH2 0x210C JUMP JUMPDEST POP PUSH1 0x1 SWAP5 SWAP4 POP POP POP POP JUMP JUMPDEST CALLER PUSH0 DUP2 DUP2 MSTORE PUSH1 0x1 PUSH1 0x20 SWAP1 DUP2 MSTORE PUSH1 0x40 DUP1 DUP4 KECCAK256 PUSH1 0x1 PUSH1 0x1 PUSH1 0xA0 SHL SUB DUP8 AND DUP5 MSTORE SWAP1 SWAP2 MSTORE DUP2 KECCAK256 SLOAD SWAP1 SWAP2 PUSH2 0xBEF SWAP2 DUP6 SWAP1 PUSH2 0xE88 SWAP1 DUP7 SWAP1 PUSH2 0x35D5 JUMP JUMPDEST PUSH2 0x210C JUMP JUMPDEST PUSH2 0xE97 CALLER DUP3 PUSH2 0x25CE JUMP JUMPDEST POP JUMP JUMPDEST PUSH1 0x5 SLOAD PUSH1 0x1 PUSH1 0x1 PUSH1 0xA0 SHL SUB AND CALLER EQ PUSH2 0xEC4 JUMPI PUSH1 0x40 MLOAD PUSH3 0x461BCD PUSH1 0xE5 SHL DUP2 MSTORE PUSH1 0x4 ADD PUSH2 0xAD8 SWAP1 PUSH2 0x3620 JUMP JUMPDEST PUSH1 0x1 PUSH1 0x1 PUSH1 0xA0 SHL SUB AND PUSH0 SWAP1 DUP2 MSTORE PUSH1 0x8 PUSH1 0x20 MSTORE PUSH1 0x40 SWAP1 KECCAK256 DUP1 SLOAD PUSH1 0xFF NOT AND PUSH1 0x1 OR SWAP1 SSTORE JUMP JUMPDEST PUSH0 PUSH1 0xE SLOAD DUP4 GT ISZERO PUSH2 0xF3A JUMPI PUSH1 0x40 MLOAD PUSH3 0x461BCD PUSH1 0xE5 SHL DUP2 MSTORE PUSH1 0x20 PUSH1 0x4 DUP3 ADD MSTORE PUSH1 0x1F PUSH1 0x24 DUP3 ADD MSTORE PUSH32 0x416D6F756E74206D757374206265206C657373207468616E20737570706C7900 PUSH1 0x44 DUP3 ADD MSTORE PUSH1 0x64 ADD PUSH2 0xAD8 JUMP JUMPDEST DUP2 PUSH2 0xF56 JUMPI PUSH0 PUSH2 0xF49 DUP5 PUSH2 0x20BB JUMP JUMPDEST POP SWAP2 SWAP4 POP PUSH2 0xBF3 SWAP3 POP POP POP JUMP JUMPDEST PUSH0 PUSH2 0xF60 DUP5 PUSH2 0x20BB JUMP JUMPDEST POP SWAP1 SWAP4 POP PUSH2 0xBF3 SWAP3 POP POP POP JUMP JUMPDEST PUSH1 0x5 SLOAD PUSH1 0x1 PUSH1 0x1 PUSH1 0xA0 SHL SUB AND CALLER EQ PUSH2 0xF97 JUMPI PUSH1 0x40 MLOAD PUSH3 0x461BCD PUSH1 0xE5 SHL DUP2 MSTORE PUSH1 0x4 ADD PUSH2 0xAD8 SWAP1 PUSH2 0x3620 JUMP JUMPDEST PUSH1 0x1 DUP2 GT ISZERO PUSH2 0xFE8 JUMPI PUSH1 0x40 MLOAD PUSH3 0x461BCD PUSH1 0xE5 SHL DUP2 MSTORE PUSH1 0x20 PUSH1 0x4 DUP3 ADD MSTORE PUSH1 0x1E PUSH1 0x24 DUP3 ADD MSTORE PUSH32 0x4275726E20666565206578636565647320746865203125206C696D69742E0000 PUSH1 0x44 DUP3 ADD MSTORE PUSH1 0x64 ADD PUSH2 0xAD8 JUMP JUMPDEST PUSH2 0xFF0 PUSH2 0x222F JUMP JUMPDEST PUSH1 0x17 DUP1 SLOAD SWAP1 DUP3 SWAP1 SSTORE PUSH1 0x40 DUP1 MLOAD DUP3 DUP2 MSTORE PUSH1 0x20 DUP2 ADD DUP5 SWAP1 MSTORE PUSH32 0x78F1461296BAD7BD716A7673AA3E659CC091C348A7ED4CFEF7CE452C3052F2FB SWAP2 ADD PUSH2 0xC79 JUMP JUMPDEST PUSH1 0x5 SLOAD PUSH1 0x1 PUSH1 0x1 PUSH1 0xA0 SHL SUB AND CALLER EQ PUSH2 0x1058 JUMPI PUSH1 0x40 MLOAD PUSH3 0x461BCD PUSH1 0xE5 SHL DUP2 MSTORE PUSH1 0x4 ADD PUSH2 0xAD8 SWAP1 PUSH2 0x3620 JUMP JUMPDEST PUSH1 0x1 PUSH1 0x1 PUSH1 0xA0 SHL SUB DUP2 AND PUSH0 SWAP1 DUP2 MSTORE PUSH1 0x9 PUSH1 0x20 MSTORE PUSH1 0x40 SWAP1 KECCAK256 SLOAD PUSH1 0xFF AND ISZERO PUSH2 0x10C0 JUMPI PUSH1 0x40 MLOAD PUSH3 0x461BCD PUSH1 0xE5 SHL DUP2 MSTORE PUSH1 0x20 PUSH1 0x4 DUP3 ADD MSTORE PUSH1 0x1B PUSH1 0x24 DUP3 ADD MSTORE PUSH32 0x4163636F756E7420697320616C7265616479206578636C756465640000000000 PUSH1 0x44 DUP3 ADD MSTORE PUSH1 0x64 ADD PUSH2 0xAD8 JUMP JUMPDEST ADDRESS PUSH1 0x1 PUSH1 0x1 PUSH1 0xA0 SHL SUB DUP3 AND SUB PUSH2 0x1134 JUMPI PUSH1 0x40 MLOAD PUSH3 0x461BCD PUSH1 0xE5 SHL DUP2 MSTORE PUSH1 0x20 PUSH1 0x4 DUP3 ADD MSTORE PUSH1 0x33 PUSH1 0x24 DUP3 ADD MSTORE PUSH32 0x436F6E747261637420616464726573732063616E6E6F74206265206578636C75 PUSH1 0x44 DUP3 ADD MSTORE PUSH19 0x3232B210333937B6903932B33632B1BA34B7B7 PUSH1 0x69 SHL PUSH1 0x64 DUP3 ADD MSTORE PUSH1 0x84 ADD PUSH2 0xAD8 JUMP JUMPDEST PUSH1 0x1 PUSH1 0x1 PUSH1 0xA0 SHL SUB DUP2 AND PUSH0 SWAP1 DUP2 MSTORE PUSH1 0x6 PUSH1 0x20 MSTORE PUSH1 0x40 SWAP1 KECCAK256 SLOAD ISZERO PUSH2 0x118B JUMPI PUSH1 0x1 PUSH1 0x1 PUSH1 0xA0 SHL SUB DUP2 AND PUSH0 SWAP1 DUP2 MSTORE PUSH1 0x6 PUSH1 0x20 MSTORE PUSH1 0x40 SWAP1 KECCAK256 SLOAD PUSH2 0x1172 SWAP1 PUSH2 0x279C JUMP JUMPDEST PUSH1 0x1 PUSH1 0x1 PUSH1 0xA0 SHL SUB DUP3 AND PUSH0 SWAP1 DUP2 MSTORE PUSH1 0x7 PUSH1 0x20 MSTORE PUSH1 0x40 SWAP1 KECCAK256 SSTORE JUMPDEST PUSH1 0x1 PUSH1 0x1 PUSH1 0xA0 SHL SUB AND PUSH0 DUP2 DUP2 MSTORE PUSH1 0x9 PUSH1 0x20 MSTORE PUSH1 0x40 DUP2 KECCAK256 DUP1 SLOAD PUSH1 0xFF NOT AND PUSH1 0x1 SWAP1 DUP2 OR SWAP1 SWAP2 SSTORE PUSH1 0xA DUP1 SLOAD SWAP2 DUP3 ADD DUP2 SSTORE SWAP1 SWAP2 MSTORE PUSH32 0xC65A7BB8D6351C1CF70C95A316CC6A92839C986682D98BC35F958F4883F9D2A8 ADD DUP1 SLOAD PUSH1 0x1 PUSH1 0x1 PUSH1 0xA0 SHL SUB NOT AND SWAP1 SWAP2 OR SWAP1 SSTORE JUMP JUMPDEST PUSH1 0x5 SLOAD PUSH1 0x1 PUSH1 0x1 PUSH1 0xA0 SHL SUB AND CALLER EQ PUSH2 0x121A JUMPI PUSH1 0x40 MLOAD PUSH3 0x461BCD PUSH1 0xE5 SHL DUP2 MSTORE PUSH1 0x4 ADD PUSH2 0xAD8 SWAP1 PUSH2 0x3620 JUMP JUMPDEST PUSH1 0x2 DUP2 GT ISZERO PUSH2 0x1277 JUMPI PUSH1 0x40 MLOAD PUSH3 0x461BCD PUSH1 0xE5 SHL DUP2 MSTORE PUSH1 0x20 PUSH1 0x4 DUP3 ADD MSTORE PUSH1 0x23 PUSH1 0x24 DUP3 ADD MSTORE PUSH32 0x4D61726B6574696E6720666565206578636565647320746865203225206C696D PUSH1 0x44 DUP3 ADD MSTORE PUSH3 0x34BA17 PUSH1 0xE9 SHL PUSH1 0x64 DUP3 ADD MSTORE PUSH1 0x84 ADD PUSH2 0xAD8 JUMP JUMPDEST PUSH2 0x127F PUSH2 0x222F JUMP JUMPDEST PUSH0 PUSH1 0x1D SLOAD PUSH1 0x1B SLOAD DUP4 PUSH1 0x15 SLOAD PUSH2 0x1294 SWAP2 SWAP1 PUSH2 0x35D5 JUMP JUMPDEST PUSH2 0x129E SWAP2 SWAP1 PUSH2 0x35D5 JUMP JUMPDEST PUSH2 0x12A8 SWAP2 SWAP1 PUSH2 0x35D5 JUMP JUMPDEST SWAP1 POP PUSH1 0x1 DUP2 LT ISZERO PUSH2 0x12CB JUMPI PUSH1 0x40 MLOAD PUSH3 0x461BCD PUSH1 0xE5 SHL DUP2 MSTORE PUSH1 0x4 ADD PUSH2 0xAD8 SWAP1 PUSH2 0x3655 JUMP JUMPDEST PUSH1 0x19 DUP1 SLOAD SWAP1 DUP4 SWAP1 SSTORE PUSH1 0x13 DUP3 SWAP1 SSTORE PUSH1 0x40 DUP1 MLOAD DUP3 DUP2 MSTORE PUSH1 0x20 DUP2 ADD DUP6 SWAP1 MSTORE PUSH32 0x43102402B1EF1EA68F92A353DE80186B92415038542AF2E8D748F8D6C525032 SWAP2 ADD PUSH2 0xD9D JUMP JUMPDEST PUSH1 0x5 SLOAD PUSH1 0x1 PUSH1 0x1 PUSH1 0xA0 SHL SUB AND CALLER EQ PUSH2 0x1338 JUMPI PUSH1 0x40 MLOAD PUSH3 0x461BCD PUSH1 0xE5 SHL DUP2 MSTORE PUSH1 0x4 ADD PUSH2 0xAD8 SWAP1 PUSH2 0x3620 JUMP JUMPDEST PUSH1 0x2 DUP2 GT ISZERO PUSH2 0x1389 JUMPI PUSH1 0x40 MLOAD PUSH3 0x461BCD PUSH1 0xE5 SHL DUP2 MSTORE PUSH1 0x20 PUSH1 0x4 DUP3 ADD MSTORE PUSH1 0x1D PUSH1 0x24 DUP3 ADD MSTORE PUSH32 0x44657620666565206578636565647320746865203225206C696D69742E000000 PUSH1 0x44 DUP3 ADD MSTORE PUSH1 0x64 ADD PUSH2 0xAD8 JUMP JUMPDEST PUSH2 0x1391 PUSH2 0x222F JUMP JUMPDEST PUSH0 PUSH1 0x1D SLOAD DUP3 PUSH1 0x19 SLOAD PUSH1 0x15 SLOAD PUSH2 0x13A6 SWAP2 SWAP1 PUSH2 0x35D5 JUMP JUMPDEST PUSH2 0x13B0 SWAP2 SWAP1 PUSH2 0x35D5 JUMP JUMPDEST PUSH2 0x13BA SWAP2 SWAP1 PUSH2 0x35D5 JUMP JUMPDEST SWAP1 POP PUSH1 0x1 DUP2 LT ISZERO PUSH2 0x13DD JUMPI PUSH1 0x40 MLOAD PUSH3 0x461BCD PUSH1 0xE5 SHL DUP2 MSTORE PUSH1 0x4 ADD PUSH2 0xAD8 SWAP1 PUSH2 0x3655 JUMP JUMPDEST PUSH1 0x1B DUP1 SLOAD SWAP1 DUP4 SWAP1 SSTORE PUSH1 0x13 DUP3 SWAP1 SSTORE PUSH1 0x40 DUP1 MLOAD DUP3 DUP2 MSTORE PUSH1 0x20 DUP2 ADD DUP6 SWAP1 MSTORE PUSH32 0xC9D63693638BFC625DE9BE66171E4BF76AD4D474AC6BEF7CD4C766747CD0075F SWAP2 ADD PUSH2 0xD9D JUMP JUMPDEST PUSH1 0x1 PUSH1 0x1 PUSH1 0xA0 SHL SUB DUP2 AND PUSH0 SWAP1 DUP2 MSTORE PUSH1 0x9 PUSH1 0x20 MSTORE PUSH1 0x40 DUP2 KECCAK256 SLOAD PUSH1 0xFF AND ISZERO PUSH2 0x145B JUMPI POP PUSH1 0x1 PUSH1 0x1 PUSH1 0xA0 SHL SUB AND PUSH0 SWAP1 DUP2 MSTORE PUSH1 0x7 PUSH1 0x20 MSTORE PUSH1 0x40 SWAP1 KECCAK256 SLOAD SWAP1 JUMP JUMPDEST PUSH1 0x1 PUSH1 0x1 PUSH1 0xA0 SHL SUB DUP3 AND PUSH0 SWAP1 DUP2 MSTORE PUSH1 0x6 PUSH1 0x20 MSTORE PUSH1 0x40 SWAP1 KECCAK256 SLOAD PUSH2 0xBF3 SWAP1 PUSH2 0x279C JUMP JUMPDEST PUSH1 0x5 SLOAD PUSH1 0x1 PUSH1 0x1 PUSH1 0xA0 SHL SUB AND CALLER EQ PUSH2 0x14A6 JUMPI PUSH1 0x40 MLOAD PUSH3 0x461BCD PUSH1 0xE5 SHL DUP2 MSTORE PUSH1 0x4 ADD PUSH2 0xAD8 SWAP1 PUSH2 0x3620 JUMP JUMPDEST PUSH2 0x14AF PUSH0 PUSH2 0x281E JUMP JUMPDEST JUMP JUMPDEST PUSH0 PUSH2 0x14BC DUP4 CALLER PUSH2 0x965 JUMP JUMPDEST SWAP1 POP DUP2 DUP2 LT ISZERO PUSH2 0x151A JUMPI PUSH1 0x40 MLOAD PUSH3 0x461BCD PUSH1 0xE5 SHL DUP2 MSTORE PUSH1 0x20 PUSH1 0x4 DUP3 ADD MSTORE PUSH1 0x24 DUP1 DUP3 ADD MSTORE PUSH32 0x45524332303A206275726E20616D6F756E74206578636565647320616C6C6F77 PUSH1 0x44 DUP3 ADD MSTORE PUSH4 0x616E6365 PUSH1 0xE0 SHL PUSH1 0x64 DUP3 ADD MSTORE PUSH1 0x84 ADD PUSH2 0xAD8 JUMP JUMPDEST PUSH2 0x1527 DUP4 CALLER DUP5 DUP5 SUB PUSH2 0x210C JUMP JUMPDEST PUSH2 0x1531 DUP4 DUP4 PUSH2 0x25CE JUMP JUMPDEST POP POP POP JUMP JUMPDEST PUSH1 0x5 SLOAD PUSH1 0x1 PUSH1 0x1 PUSH1 0xA0 SHL SUB AND CALLER EQ PUSH2 0x1560 JUMPI PUSH1 0x40 MLOAD PUSH3 0x461BCD PUSH1 0xE5 SHL DUP2 MSTORE PUSH1 0x4 ADD PUSH2 0xAD8 SWAP1 PUSH2 0x3620 JUMP JUMPDEST PUSH1 0xB DUP1 SLOAD PUSH1 0x1 PUSH1 0x1 PUSH1 0xA0 SHL SUB DUP4 DUP2 AND PUSH1 0x1 PUSH1 0x1 PUSH1 0xA0 SHL SUB NOT DUP4 AND DUP2 OR SWAP1 SWAP4 SSTORE PUSH1 0x40 DUP1 MLOAD SWAP2 SWAP1 SWAP3 AND DUP1 DUP3 MSTORE PUSH1 0x20 DUP3 ADD SWAP4 SWAP1 SWAP4 MSTORE PUSH32 0xA8EFC72ED34F90017DF79620D1972D42B8E3B17EB0077FC5FC46CBF1A19ED9A9 SWAP2 ADD PUSH2 0xC79 JUMP JUMPDEST PUSH1 0x60 PUSH1 0x4 DUP1 SLOAD PUSH2 0xB62 SWAP1 PUSH2 0x35E8 JUMP JUMPDEST CALLER PUSH0 SWAP1 DUP2 MSTORE PUSH1 0x1 PUSH1 0x20 SWAP1 DUP2 MSTORE PUSH1 0x40 DUP1 DUP4 KECCAK256 PUSH1 0x1 PUSH1 0x1 PUSH1 0xA0 SHL SUB DUP7 AND DUP5 MSTORE SWAP1 SWAP2 MSTORE DUP2 KECCAK256 SLOAD DUP3 DUP2 LT ISZERO PUSH2 0x164A JUMPI PUSH1 0x40 MLOAD PUSH3 0x461BCD PUSH1 0xE5 SHL DUP2 MSTORE PUSH1 0x20 PUSH1 0x4 DUP3 ADD MSTORE PUSH1 0x25 PUSH1 0x24 DUP3 ADD MSTORE PUSH32 0x45524332303A2064656372656173656420616C6C6F77616E63652062656C6F77 PUSH1 0x44 DUP3 ADD MSTORE PUSH5 0x207A65726F PUSH1 0xD8 SHL PUSH1 0x64 DUP3 ADD MSTORE PUSH1 0x84 ADD PUSH2 0xAD8 JUMP JUMPDEST PUSH2 0x1657 CALLER DUP6 DUP6 DUP5 SUB PUSH2 0x210C JUMP JUMPDEST POP PUSH1 0x1 SWAP4 SWAP3 POP POP POP JUMP JUMPDEST PUSH0 PUSH2 0xBEF CALLER DUP5 DUP5 PUSH2 0x22C7 JUMP JUMPDEST PUSH1 0x5 SLOAD PUSH1 0x1 PUSH1 0x1 PUSH1 0xA0 SHL SUB AND CALLER EQ PUSH2 0x1697 JUMPI PUSH1 0x40 MLOAD PUSH3 0x461BCD PUSH1 0xE5 SHL DUP2 MSTORE PUSH1 0x4 ADD PUSH2 0xAD8 SWAP1 PUSH2 0x3620 JUMP JUMPDEST PUSH1 0x2 DUP2 GT ISZERO PUSH2 0x16F9 JUMPI PUSH1 0x40 MLOAD PUSH3 0x461BCD PUSH1 0xE5 SHL DUP2 MSTORE PUSH1 0x20 PUSH1 0x4 DUP3 ADD MSTORE PUSH1 0x28 PUSH1 0x24 DUP3 ADD MSTORE PUSH32 0x4C697175696469747920706F6F6C206665652065786365656473207468652032 PUSH1 0x44 DUP3 ADD MSTORE PUSH8 0x12903634B6B4BA17 PUSH1 0xC1 SHL PUSH1 0x64 DUP3 ADD MSTORE PUSH1 0x84 ADD PUSH2 0xAD8 JUMP JUMPDEST PUSH2 0x1701 PUSH2 0x222F JUMP JUMPDEST PUSH0 PUSH1 0x1D SLOAD PUSH1 0x1B SLOAD PUSH1 0x19 SLOAD DUP5 PUSH2 0x1716 SWAP2 SWAP1 PUSH2 0x35D5 JUMP JUMPDEST PUSH2 0x1720 SWAP2 SWAP1 PUSH2 0x35D5 JUMP JUMPDEST PUSH2 0x172A SWAP2 SWAP1 PUSH2 0x35D5 JUMP JUMPDEST SWAP1 POP PUSH1 0x1 DUP2 LT ISZERO PUSH2 0x174D JUMPI PUSH1 0x40 MLOAD PUSH3 0x461BCD PUSH1 0xE5 SHL DUP2 MSTORE PUSH1 0x4 ADD PUSH2 0xAD8 SWAP1 PUSH2 0x3655 JUMP JUMPDEST PUSH1 0x15 DUP1 SLOAD SWAP1 DUP4 SWAP1 SSTORE PUSH1 0x13 DUP3 SWAP1 SSTORE PUSH1 0x40 DUP1 MLOAD DUP3 DUP2 MSTORE PUSH1 0x20 DUP2 ADD DUP6 SWAP1 MSTORE PUSH32 0xD72BB987241D30EFE97862FAE5C01605397A36024557BBAE8EBEDEC081678BC2 SWAP2 ADD PUSH2 0xD9D JUMP JUMPDEST PUSH1 0x5 SLOAD PUSH1 0x1 PUSH1 0x1 PUSH1 0xA0 SHL SUB AND CALLER EQ PUSH2 0x17BA JUMPI PUSH1 0x40 MLOAD PUSH3 0x461BCD PUSH1 0xE5 SHL DUP2 MSTORE PUSH1 0x4 ADD PUSH2 0xAD8 SWAP1 PUSH2 0x3620 JUMP JUMPDEST PUSH1 0x22 DUP1 SLOAD DUP3 ISZERO ISZERO PUSH2 0x100 MUL PUSH2 0xFF00 NOT SWAP1 SWAP2 AND OR SWAP1 SSTORE PUSH1 0x40 MLOAD PUSH32 0x53726DFCAF90650AA7EB35524F4D3220F07413C8D6CB404CC8C18BF5591BC159 SWAP1 PUSH2 0x1803 SWAP1 DUP4 ISZERO ISZERO DUP2 MSTORE PUSH1 0x20 ADD SWAP1 JUMP JUMPDEST PUSH1 0x40 MLOAD DUP1 SWAP2 SUB SWAP1 LOG1 POP JUMP JUMPDEST PUSH1 0x5 SLOAD PUSH1 0x1 PUSH1 0x1 PUSH1 0xA0 SHL SUB AND CALLER EQ PUSH2 0x1838 JUMPI PUSH1 0x40 MLOAD PUSH3 0x461BCD PUSH1 0xE5 SHL DUP2 MSTORE PUSH1 0x4 ADD PUSH2 0xAD8 SWAP1 PUSH2 0x3620 JUMP JUMPDEST PUSH1 0xC SLOAD PUSH1 0x40 MLOAD SELFBALANCE SWAP2 PUSH0 SWAP2 PUSH1 0x1 PUSH1 0x1 PUSH1 0xA0 SHL SUB SWAP1 SWAP2 AND SWAP1 DUP4 SWAP1 DUP4 DUP2 DUP2 DUP2 DUP6 DUP8 GAS CALL SWAP3 POP POP POP RETURNDATASIZE DUP1 PUSH0 DUP2 EQ PUSH2 0x1886 JUMPI PUSH1 0x40 MLOAD SWAP2 POP PUSH1 0x1F NOT PUSH1 0x3F RETURNDATASIZE ADD AND DUP3 ADD PUSH1 0x40 MSTORE RETURNDATASIZE DUP3 MSTORE RETURNDATASIZE PUSH0 PUSH1 0x20 DUP5 ADD RETURNDATACOPY PUSH2 0x188B JUMP JUMPDEST PUSH1 0x60 SWAP2 POP JUMPDEST POP POP SWAP1 POP DUP1 PUSH2 0x18CE JUMPI PUSH1 0x40 MLOAD PUSH3 0x461BCD PUSH1 0xE5 SHL DUP2 MSTORE PUSH1 0x20 PUSH1 0x4 DUP3 ADD MSTORE PUSH1 0xF PUSH1 0x24 DUP3 ADD MSTORE PUSH15 0x151C985B9CD9995C8819985A5B1959 PUSH1 0x8A SHL PUSH1 0x44 DUP3 ADD MSTORE PUSH1 0x64 ADD PUSH2 0xAD8 JUMP JUMPDEST PUSH1 0xC SLOAD PUSH1 0x40 DUP1 MLOAD DUP2 DUP2 MSTORE PUSH1 0x2E SWAP2 DUP2 ADD SWAP2 SWAP1 SWAP2 MSTORE PUSH32 0x57652068617665207265636F7665726564207468652073746F636B2045544820 PUSH1 0x60 DUP3 ADD MSTORE PUSH14 0x333937B69031B7B73A3930B1BA17 PUSH1 0x91 SHL PUSH1 0x80 DUP3 ADD MSTORE PUSH1 0x1 PUSH1 0x1 PUSH1 0xA0 SHL SUB SWAP1 SWAP2 AND PUSH1 0x20 DUP3 ADD MSTORE PUSH32 0x25DBD6AD989FE1A64DB7DC049E29723FF9D35A97D84AE9AAB96196F00EC1A00 SWAP1 PUSH1 0xA0 ADD PUSH2 0xC79 JUMP JUMPDEST PUSH1 0x5 SLOAD PUSH1 0x1 PUSH1 0x1 PUSH1 0xA0 SHL SUB AND CALLER EQ PUSH2 0x1982 JUMPI PUSH1 0x40 MLOAD PUSH3 0x461BCD PUSH1 0xE5 SHL DUP2 MSTORE PUSH1 0x4 ADD PUSH2 0xAD8 SWAP1 PUSH2 0x3620 JUMP JUMPDEST PUSH1 0xC DUP1 SLOAD PUSH1 0x1 PUSH1 0x1 PUSH1 0xA0 SHL SUB DUP4 DUP2 AND PUSH1 0x1 PUSH1 0x1 PUSH1 0xA0 SHL SUB NOT DUP4 AND DUP2 OR SWAP1 SWAP4 SSTORE PUSH1 0x40 DUP1 MLOAD SWAP2 SWAP1 SWAP3 AND DUP1 DUP3 MSTORE PUSH1 0x20 DUP3 ADD SWAP4 SWAP1 SWAP4 MSTORE PUSH32 0x9A8FCE0F201607A626CC555EF244D8ED346D879D2141B2964C3A955650554AE0 SWAP2 ADD PUSH2 0xC79 JUMP JUMPDEST PUSH1 0x5 SLOAD PUSH1 0x1 PUSH1 0x1 PUSH1 0xA0 SHL SUB AND CALLER EQ PUSH2 0x1A06 JUMPI PUSH1 0x40 MLOAD PUSH3 0x461BCD PUSH1 0xE5 SHL DUP2 MSTORE PUSH1 0x4 ADD PUSH2 0xAD8 SWAP1 PUSH2 0x3620 JUMP JUMPDEST PUSH1 0x2 DUP2 GT ISZERO PUSH2 0x1A63 JUMPI PUSH1 0x40 MLOAD PUSH3 0x461BCD PUSH1 0xE5 SHL DUP2 MSTORE PUSH1 0x20 PUSH1 0x4 DUP3 ADD MSTORE PUSH1 0x24 DUP1 DUP3 ADD MSTORE PUSH32 0x5265666C656374696F6E20666565206578636565647320746865203225206C69 PUSH1 0x44 DUP3 ADD MSTORE PUSH4 0x36B4BA17 PUSH1 0xE1 SHL PUSH1 0x64 DUP3 ADD MSTORE PUSH1 0x84 ADD PUSH2 0xAD8 JUMP JUMPDEST PUSH2 0x1A6B PUSH2 0x222F JUMP JUMPDEST PUSH1 0x11 DUP1 SLOAD SWAP1 DUP3 SWAP1 SSTORE PUSH1 0x40 DUP1 MLOAD DUP3 DUP2 MSTORE PUSH1 0x20 DUP2 ADD DUP5 SWAP1 MSTORE PUSH32 0x2C52CA41E4D19E67555BE53873512BB32CA77E9E6D56B69361D6AC621A8834D1 SWAP2 ADD PUSH2 0xC79 JUMP JUMPDEST PUSH1 0x5 SLOAD PUSH1 0x1 PUSH1 0x1 PUSH1 0xA0 SHL SUB AND CALLER EQ PUSH2 0x1AD3 JUMPI PUSH1 0x40 MLOAD PUSH3 0x461BCD PUSH1 0xE5 SHL DUP2 MSTORE PUSH1 0x4 ADD PUSH2 0xAD8 SWAP1 PUSH2 0x3620 JUMP JUMPDEST ADDRESS PUSH1 0x1 PUSH1 0x1 PUSH1 0xA0 SHL SUB DUP4 AND SUB PUSH2 0x1B4A JUMPI PUSH1 0x40 MLOAD PUSH3 0x461BCD PUSH1 0xE5 SHL DUP2 MSTORE PUSH1 0x20 PUSH1 0x4 DUP3 ADD MSTORE PUSH1 0x36 PUSH1 0x24 DUP3 ADD MSTORE PUSH32 0x4F776E65722063616E277420636C61696D20636F6E747261637427732062616C PUSH1 0x44 DUP3 ADD MSTORE PUSH22 0x616E6365206F6620697473206F776E20746F6B656E73 PUSH1 0x50 SHL PUSH1 0x64 DUP3 ADD MSTORE PUSH1 0x84 ADD PUSH2 0xAD8 JUMP JUMPDEST PUSH1 0xC SLOAD PUSH1 0x40 MLOAD PUSH4 0xA9059CBB PUSH1 0xE0 SHL DUP2 MSTORE PUSH1 0x1 PUSH1 0x1 PUSH1 0xA0 SHL SUB SWAP2 DUP3 AND PUSH1 0x4 DUP3 ADD MSTORE PUSH1 0x24 DUP2 ADD DUP4 SWAP1 MSTORE PUSH0 SWAP2 DUP5 AND SWAP1 PUSH4 0xA9059CBB SWAP1 PUSH1 0x44 ADD PUSH1 0x20 PUSH1 0x40 MLOAD DUP1 DUP4 SUB DUP2 PUSH0 DUP8 GAS CALL ISZERO DUP1 ISZERO PUSH2 0x1B9B JUMPI RETURNDATASIZE PUSH0 DUP1 RETURNDATACOPY RETURNDATASIZE PUSH0 REVERT JUMPDEST POP POP POP POP PUSH1 0x40 MLOAD RETURNDATASIZE PUSH1 0x1F NOT PUSH1 0x1F DUP3 ADD AND DUP3 ADD DUP1 PUSH1 0x40 MSTORE POP DUP2 ADD SWAP1 PUSH2 0x1BBF SWAP2 SWAP1 PUSH2 0x369B JUMP JUMPDEST SWAP1 POP DUP1 PUSH2 0x1C00 JUMPI PUSH1 0x40 MLOAD PUSH3 0x461BCD PUSH1 0xE5 SHL DUP2 MSTORE PUSH1 0x20 PUSH1 0x4 DUP3 ADD MSTORE PUSH1 0xF PUSH1 0x24 DUP3 ADD MSTORE PUSH15 0x151C985B9CD9995C8819985A5B1959 PUSH1 0x8A SHL PUSH1 0x44 DUP3 ADD MSTORE PUSH1 0x64 ADD PUSH2 0xAD8 JUMP JUMPDEST PUSH1 0x40 DUP1 MLOAD DUP2 DUP2 MSTORE PUSH1 0x27 SWAP2 DUP2 ADD SWAP2 SWAP1 SWAP2 MSTORE PUSH32 0x57652068617665207265636F766572656420746F6B656E732066726F6D20636F PUSH1 0x60 DUP3 ADD MSTORE PUSH7 0x373A3930B1BA1D PUSH1 0xC9 SHL PUSH1 0x80 DUP3 ADD MSTORE PUSH1 0x20 DUP2 ADD DUP4 SWAP1 MSTORE PUSH32 0xDD970DD9B5BFE707922155B058A407655CB18288B807E2216442BCA8AD83D6B5 SWAP1 PUSH1 0xA0 ADD PUSH2 0xD9D JUMP JUMPDEST PUSH1 0x5 SLOAD PUSH1 0x1 PUSH1 0x1 PUSH1 0xA0 SHL SUB AND CALLER EQ PUSH2 0x1CA1 JUMPI PUSH1 0x40 MLOAD PUSH3 0x461BCD PUSH1 0xE5 SHL DUP2 MSTORE PUSH1 0x4 ADD PUSH2 0xAD8 SWAP1 PUSH2 0x3620 JUMP JUMPDEST PUSH1 0x1 PUSH1 0x1 PUSH1 0xA0 SHL SUB AND PUSH0 SWAP1 DUP2 MSTORE PUSH1 0x8 PUSH1 0x20 MSTORE PUSH1 0x40 SWAP1 KECCAK256 DUP1 SLOAD PUSH1 0xFF NOT AND SWAP1 SSTORE JUMP JUMPDEST PUSH1 0x5 SLOAD PUSH1 0x1 PUSH1 0x1 PUSH1 0xA0 SHL SUB AND CALLER EQ PUSH2 0x1CEB JUMPI PUSH1 0x40 MLOAD PUSH3 0x461BCD PUSH1 0xE5 SHL DUP2 MSTORE PUSH1 0x4 ADD PUSH2 0xAD8 SWAP1 PUSH2 0x3620 JUMP JUMPDEST PUSH2 0x3E8 PUSH1 0xE SLOAD PUSH1 0x1 PUSH2 0x1CFD SWAP2 SWAP1 PUSH2 0x36B6 JUMP JUMPDEST PUSH2 0x1D07 SWAP2 SWAP1 PUSH2 0x36CD JUMP JUMPDEST DUP2 LT ISZERO PUSH2 0x1D7C JUMPI PUSH1 0x40 MLOAD PUSH3 0x461BCD PUSH1 0xE5 SHL DUP2 MSTORE PUSH1 0x20 PUSH1 0x4 DUP3 ADD MSTORE PUSH1 0x38 PUSH1 0x24 DUP3 ADD MSTORE PUSH32 0x4D61785478416D6F756E742073686F756C64206265206174206C656173742030 PUSH1 0x44 DUP3 ADD MSTORE PUSH32 0x2E3125206F662074686520746F74616C20737570706C792E0000000000000000 PUSH1 0x64 DUP3 ADD MSTORE PUSH1 0x84 ADD PUSH2 0xAD8 JUMP JUMPDEST PUSH1 0x1F DUP1 SLOAD SWAP1 DUP3 SWAP1 SSTORE PUSH1 0x40 DUP1 MLOAD DUP3 DUP2 MSTORE PUSH1 0x20 DUP2 ADD DUP5 SWAP1 MSTORE PUSH32 0xADCF01123294F8514884E924E20EB4F3032288087368896A17C71F09668247C8 SWAP2 ADD PUSH2 0xC79 JUMP JUMPDEST PUSH1 0x5 SLOAD PUSH1 0x1 PUSH1 0x1 PUSH1 0xA0 SHL SUB AND CALLER EQ PUSH2 0x1DE4 JUMPI PUSH1 0x40 MLOAD PUSH3 0x461BCD PUSH1 0xE5 SHL DUP2 MSTORE PUSH1 0x4 ADD PUSH2 0xAD8 SWAP1 PUSH2 0x3620 JUMP JUMPDEST DUP1 ISZERO PUSH2 0x1E0C JUMPI PUSH2 0x1DF3 PUSH0 PUSH2 0x1790 JUMP JUMPDEST PUSH2 0x1DFB PUSH2 0x286F JUMP JUMPDEST PUSH1 0x1F SLOAD PUSH1 0x20 SSTORE PUSH1 0xE SLOAD PUSH1 0x1F SSTORE PUSH2 0x1E4C JUMP JUMPDEST PUSH2 0x1E16 PUSH1 0x1 PUSH2 0x1790 JUMP JUMPDEST PUSH2 0x1E45 PUSH1 0x14 SLOAD PUSH1 0x13 SSTORE PUSH1 0x16 SLOAD PUSH1 0x15 SSTORE PUSH1 0x18 SLOAD PUSH1 0x17 SSTORE PUSH1 0x12 SLOAD PUSH1 0x11 SSTORE PUSH1 0x1A SLOAD PUSH1 0x19 SSTORE PUSH1 0x1C SLOAD PUSH1 0x1B SSTORE PUSH1 0x1E SLOAD PUSH1 0x1D SSTORE JUMP JUMPDEST PUSH1 0x20 SLOAD PUSH1 0x1F SSTORE JUMPDEST PUSH1 0x40 MLOAD DUP2 ISZERO ISZERO DUP2 MSTORE PUSH32 0x754DB841CD0BA8B9D7311DC4B5C8CD44B1FF98BCB4E1D8D9CAB86566BCE3A1FA SWAP1 PUSH1 0x20 ADD PUSH2 0x1803 JUMP JUMPDEST PUSH1 0x5 SLOAD PUSH1 0x1 PUSH1 0x1 PUSH1 0xA0 SHL SUB AND CALLER EQ PUSH2 0x1EA8 JUMPI PUSH1 0x40 MLOAD PUSH3 0x461BCD PUSH1 0xE5 SHL DUP2 MSTORE PUSH1 0x4 ADD PUSH2 0xAD8 SWAP1 PUSH2 0x3620 JUMP JUMPDEST PUSH1 0x1 PUSH1 0x1 PUSH1 0xA0 SHL SUB DUP2 AND PUSH2 0x1F0D JUMPI PUSH1 0x40 MLOAD PUSH3 0x461BCD PUSH1 0xE5 SHL DUP2 MSTORE PUSH1 0x20 PUSH1 0x4 DUP3 ADD MSTORE PUSH1 0x26 PUSH1 0x24 DUP3 ADD MSTORE PUSH32 0x4F776E61626C653A206E6577206F776E657220697320746865207A65726F2061 PUSH1 0x44 DUP3 ADD MSTORE PUSH6 0x646472657373 PUSH1 0xD0 SHL PUSH1 0x64 DUP3 ADD MSTORE PUSH1 0x84 ADD PUSH2 0xAD8 JUMP JUMPDEST PUSH2 0xE97 DUP2 PUSH2 0x281E JUMP JUMPDEST PUSH1 0x5 SLOAD PUSH1 0x1 PUSH1 0x1 PUSH1 0xA0 SHL SUB AND CALLER EQ PUSH2 0x1F40 JUMPI PUSH1 0x40 MLOAD PUSH3 0x461BCD PUSH1 0xE5 SHL DUP2 MSTORE PUSH1 0x4 ADD PUSH2 0xAD8 SWAP1 PUSH2 0x3620 JUMP JUMPDEST PUSH1 0x1 PUSH1 0x1 PUSH1 0xA0 SHL SUB DUP2 AND PUSH0 SWAP1 DUP2 MSTORE PUSH1 0x9 PUSH1 0x20 MSTORE PUSH1 0x40 SWAP1 KECCAK256 SLOAD PUSH1 0xFF AND PUSH2 0x1FA7 JUMPI PUSH1 0x40 MLOAD PUSH3 0x461BCD PUSH1 0xE5 SHL DUP2 MSTORE PUSH1 0x20 PUSH1 0x4 DUP3 ADD MSTORE PUSH1 0x1B PUSH1 0x24 DUP3 ADD MSTORE PUSH32 0x4163636F756E7420697320616C726561647920696E636C756465640000000000 PUSH1 0x44 DUP3 ADD MSTORE PUSH1 0x64 ADD PUSH2 0xAD8 JUMP JUMPDEST PUSH0 JUMPDEST PUSH1 0xA SLOAD DUP2 LT ISZERO PUSH2 0x20B7 JUMPI DUP2 PUSH1 0x1 PUSH1 0x1 PUSH1 0xA0 SHL SUB AND PUSH1 0xA DUP3 DUP2 SLOAD DUP2 LT PUSH2 0x1FD0 JUMPI PUSH2 0x1FD0 PUSH2 0x36EC JUMP JUMPDEST PUSH0 SWAP2 DUP3 MSTORE PUSH1 0x20 SWAP1 SWAP2 KECCAK256 ADD SLOAD PUSH1 0x1 PUSH1 0x1 PUSH1 0xA0 SHL SUB AND SUB PUSH2 0x20AF JUMPI PUSH1 0xA DUP1 SLOAD PUSH2 0x1FF9 SWAP1 PUSH1 0x1 SWAP1 PUSH2 0x35C2 JUMP JUMPDEST DUP2 SLOAD DUP2 LT PUSH2 0x2009 JUMPI PUSH2 0x2009 PUSH2 0x36EC JUMP JUMPDEST PUSH0 SWAP2 DUP3 MSTORE PUSH1 0x20 SWAP1 SWAP2 KECCAK256 ADD SLOAD PUSH1 0xA DUP1 SLOAD PUSH1 0x1 PUSH1 0x1 PUSH1 0xA0 SHL SUB SWAP1 SWAP3 AND SWAP2 DUP4 SWAP1 DUP2 LT PUSH2 0x2034 JUMPI PUSH2 0x2034 PUSH2 0x36EC JUMP JUMPDEST PUSH0 SWAP2 DUP3 MSTORE PUSH1 0x20 DUP1 DUP4 KECCAK256 SWAP2 SWAP1 SWAP2 ADD DUP1 SLOAD PUSH1 0x1 PUSH1 0x1 PUSH1 0xA0 SHL SUB NOT AND PUSH1 0x1 PUSH1 0x1 PUSH1 0xA0 SHL SUB SWAP5 DUP6 AND OR SWAP1 SSTORE SWAP2 DUP5 AND DUP2 MSTORE PUSH1 0x7 DUP3 MSTORE PUSH1 0x40 DUP1 DUP3 KECCAK256 DUP3 SWAP1 SSTORE PUSH1 0x9 SWAP1 SWAP3 MSTORE KECCAK256 DUP1 SLOAD PUSH1 0xFF NOT AND SWAP1 SSTORE PUSH1 0xA DUP1 SLOAD DUP1 PUSH2 0x208B JUMPI PUSH2 0x208B PUSH2 0x3700 JUMP JUMPDEST PUSH0 DUP3 DUP2 MSTORE PUSH1 0x20 SWAP1 KECCAK256 DUP2 ADD PUSH0 NOT SWAP1 DUP2 ADD DUP1 SLOAD PUSH1 0x1 PUSH1 0x1 PUSH1 0xA0 SHL SUB NOT AND SWAP1 SSTORE ADD SWAP1 SSTORE POP POP JUMP JUMPDEST PUSH1 0x1 ADD PUSH2 0x1FA9 JUMP JUMPDEST POP POP JUMP JUMPDEST PUSH0 DUP1 PUSH0 DUP1 PUSH0 PUSH2 0x20C9 DUP7 PUSH2 0x28BA JUMP JUMPDEST SWAP1 POP PUSH0 PUSH2 0x20D6 DUP3 DUP9 PUSH2 0x35C2 JUMP JUMPDEST SWAP1 POP PUSH0 PUSH2 0x20E1 PUSH2 0x28FA JUMP JUMPDEST SWAP1 POP PUSH0 PUSH2 0x20EE DUP3 DUP5 PUSH2 0x36B6 JUMP JUMPDEST SWAP1 POP PUSH0 PUSH2 0x20FB DUP4 DUP12 PUSH2 0x36B6 JUMP JUMPDEST SWAP11 SWAP2 SWAP10 POP SWAP3 SWAP8 POP SWAP1 SWAP6 POP SWAP4 POP POP POP POP JUMP JUMPDEST PUSH1 0x1 PUSH1 0x1 PUSH1 0xA0 SHL SUB DUP4 AND PUSH2 0x216E JUMPI PUSH1 0x40 MLOAD PUSH3 0x461BCD PUSH1 0xE5 SHL DUP2 MSTORE PUSH1 0x20 PUSH1 0x4 DUP3 ADD MSTORE PUSH1 0x24 DUP1 DUP3 ADD MSTORE PUSH32 0x45524332303A20617070726F76652066726F6D20746865207A65726F20616464 PUSH1 0x44 DUP3 ADD MSTORE PUSH4 0x72657373 PUSH1 0xE0 SHL PUSH1 0x64 DUP3 ADD MSTORE PUSH1 0x84 ADD PUSH2 0xAD8 JUMP JUMPDEST PUSH1 0x1 PUSH1 0x1 PUSH1 0xA0 SHL SUB DUP3 AND PUSH2 0x21CF JUMPI PUSH1 0x40 MLOAD PUSH3 0x461BCD PUSH1 0xE5 SHL DUP2 MSTORE PUSH1 0x20 PUSH1 0x4 DUP3 ADD MSTORE PUSH1 0x22 PUSH1 0x24 DUP3 ADD MSTORE PUSH32 0x45524332303A20617070726F766520746F20746865207A65726F206164647265 PUSH1 0x44 DUP3 ADD MSTORE PUSH2 0x7373 PUSH1 0xF0 SHL PUSH1 0x64 DUP3 ADD MSTORE PUSH1 0x84 ADD PUSH2 0xAD8 JUMP JUMPDEST PUSH1 0x1 PUSH1 0x1 PUSH1 0xA0 SHL SUB DUP4 DUP2 AND PUSH0 DUP2 DUP2 MSTORE PUSH1 0x1 PUSH1 0x20 SWAP1 DUP2 MSTORE PUSH1 0x40 DUP1 DUP4 KECCAK256 SWAP5 DUP8 AND DUP1 DUP5 MSTORE SWAP5 DUP3 MSTORE SWAP2 DUP3 SWAP1 KECCAK256 DUP6 SWAP1 SSTORE SWAP1 MLOAD DUP5 DUP2 MSTORE PUSH32 0x8C5BE1E5EBEC7D5BD14F71427D1E84F3DD0314C0F7B2291E5B200AC8C7C3B925 SWAP2 ADD PUSH1 0x40 MLOAD DUP1 SWAP2 SUB SWAP1 LOG3 POP POP POP JUMP JUMPDEST PUSH0 PUSH1 0x1D SLOAD PUSH1 0x1B SLOAD PUSH1 0x19 SLOAD PUSH1 0x15 SLOAD PUSH1 0x11 SLOAD PUSH1 0x17 SLOAD PUSH2 0x224C SWAP2 SWAP1 PUSH2 0x35D5 JUMP JUMPDEST PUSH2 0x2256 SWAP2 SWAP1 PUSH2 0x35D5 JUMP JUMPDEST PUSH2 0x2260 SWAP2 SWAP1 PUSH2 0x35D5 JUMP JUMPDEST PUSH2 0x226A SWAP2 SWAP1 PUSH2 0x35D5 JUMP JUMPDEST PUSH2 0x2274 SWAP2 SWAP1 PUSH2 0x35D5 JUMP JUMPDEST SWAP1 POP PUSH1 0x5 DUP2 GT ISZERO PUSH2 0xE97 JUMPI PUSH1 0x40 MLOAD PUSH3 0x461BCD PUSH1 0xE5 SHL DUP2 MSTORE PUSH1 0x20 PUSH1 0x4 DUP3 ADD MSTORE PUSH1 0x1F PUSH1 0x24 DUP3 ADD MSTORE PUSH32 0x546F74616C20666565732065786365656420746865203525206C696D69742E00 PUSH1 0x44 DUP3 ADD MSTORE PUSH1 0x64 ADD PUSH2 0xAD8 JUMP JUMPDEST PUSH1 0x1 PUSH1 0x1 PUSH1 0xA0 SHL SUB DUP4 AND PUSH2 0x232B JUMPI PUSH1 0x40 MLOAD PUSH3 0x461BCD PUSH1 0xE5 SHL DUP2 MSTORE PUSH1 0x20 PUSH1 0x4 DUP3 ADD MSTORE PUSH1 0x25 PUSH1 0x24 DUP3 ADD MSTORE PUSH32 0x45524332303A207472616E736665722066726F6D20746865207A65726F206164 PUSH1 0x44 DUP3 ADD MSTORE PUSH5 0x6472657373 PUSH1 0xD8 SHL PUSH1 0x64 DUP3 ADD MSTORE PUSH1 0x84 ADD PUSH2 0xAD8 JUMP JUMPDEST PUSH1 0x1 PUSH1 0x1 PUSH1 0xA0 SHL SUB DUP3 AND PUSH2 0x238D JUMPI PUSH1 0x40 MLOAD PUSH3 0x461BCD PUSH1 0xE5 SHL DUP2 MSTORE PUSH1 0x20 PUSH1 0x4 DUP3 ADD MSTORE PUSH1 0x23 PUSH1 0x24 DUP3 ADD MSTORE PUSH32 0x45524332303A207472616E7366657220746F20746865207A65726F2061646472 PUSH1 0x44 DUP3 ADD MSTORE PUSH3 0x657373 PUSH1 0xE8 SHL PUSH1 0x64 DUP3 ADD MSTORE PUSH1 0x84 ADD PUSH2 0xAD8 JUMP JUMPDEST PUSH0 DUP2 GT PUSH2 0x23EE JUMPI PUSH1 0x40 MLOAD PUSH3 0x461BCD PUSH1 0xE5 SHL DUP2 MSTORE PUSH1 0x20 PUSH1 0x4 DUP3 ADD MSTORE PUSH1 0x29 PUSH1 0x24 DUP3 ADD MSTORE PUSH32 0x5472616E7366657220616D6F756E74206D757374206265206772656174657220 PUSH1 0x44 DUP3 ADD MSTORE PUSH9 0x7468616E207A65726F PUSH1 0xB8 SHL PUSH1 0x64 DUP3 ADD MSTORE PUSH1 0x84 ADD PUSH2 0xAD8 JUMP JUMPDEST PUSH0 PUSH2 0x23F8 DUP5 PUSH2 0x1420 JUMP JUMPDEST SWAP1 POP DUP2 DUP2 LT ISZERO PUSH2 0x2459 JUMPI PUSH1 0x40 MLOAD PUSH3 0x461BCD PUSH1 0xE5 SHL DUP2 MSTORE PUSH1 0x20 PUSH1 0x4 DUP3 ADD MSTORE PUSH1 0x26 PUSH1 0x24 DUP3 ADD MSTORE PUSH32 0x45524332303A207472616E7366657220616D6F756E7420657863656564732062 PUSH1 0x44 DUP3 ADD MSTORE PUSH6 0x616C616E6365 PUSH1 0xD0 SHL PUSH1 0x64 DUP3 ADD MSTORE PUSH1 0x84 ADD PUSH2 0xAD8 JUMP JUMPDEST PUSH1 0x5 SLOAD PUSH1 0x1 PUSH1 0x1 PUSH1 0xA0 SHL SUB DUP6 DUP2 AND SWAP2 AND EQ DUP1 ISZERO SWAP1 PUSH2 0x2485 JUMPI POP PUSH1 0x5 SLOAD PUSH1 0x1 PUSH1 0x1 PUSH1 0xA0 SHL SUB DUP5 DUP2 AND SWAP2 AND EQ ISZERO JUMPDEST ISZERO PUSH2 0x24ED JUMPI PUSH1 0x1F SLOAD DUP3 GT ISZERO PUSH2 0x24ED JUMPI PUSH1 0x40 MLOAD PUSH3 0x461BCD PUSH1 0xE5 SHL DUP2 MSTORE PUSH1 0x20 PUSH1 0x4 DUP3 ADD MSTORE PUSH1 0x28 PUSH1 0x24 DUP3 ADD MSTORE PUSH32 0x5472616E7366657220616D6F756E74206578636565647320746865206D617854 PUSH1 0x44 DUP3 ADD MSTORE PUSH8 0x3C20B6B7BAB73A17 PUSH1 0xC1 SHL PUSH1 0x64 DUP3 ADD MSTORE PUSH1 0x84 ADD PUSH2 0xAD8 JUMP JUMPDEST PUSH0 PUSH2 0x24F7 ADDRESS PUSH2 0x1420 JUMP JUMPDEST PUSH1 0x21 SLOAD PUSH1 0x22 SLOAD SWAP2 SWAP3 POP DUP3 LT ISZERO SWAP1 PUSH1 0xFF AND ISZERO DUP1 ISZERO PUSH2 0x251B JUMPI POP PUSH1 0x22 SLOAD PUSH2 0x100 SWAP1 DIV PUSH1 0xFF AND JUMPDEST DUP1 ISZERO PUSH2 0x2558 JUMPI POP PUSH32 0x0 PUSH1 0x1 PUSH1 0x1 PUSH1 0xA0 SHL SUB AND DUP6 PUSH1 0x1 PUSH1 0x1 PUSH1 0xA0 SHL SUB AND EQ JUMPDEST ISZERO PUSH2 0x2571 JUMPI DUP1 ISZERO PUSH2 0x2571 JUMPI PUSH1 0x21 SLOAD SWAP2 POP PUSH2 0x2571 DUP3 PUSH2 0x291B JUMP JUMPDEST PUSH1 0x1 PUSH1 0x1 PUSH1 0xA0 SHL SUB DUP7 AND PUSH0 SWAP1 DUP2 MSTORE PUSH1 0x8 PUSH1 0x20 MSTORE PUSH1 0x40 SWAP1 KECCAK256 SLOAD PUSH1 0x1 SWAP1 PUSH1 0xFF AND DUP1 PUSH2 0x25B1 JUMPI POP PUSH1 0x1 PUSH1 0x1 PUSH1 0xA0 SHL SUB DUP7 AND PUSH0 SWAP1 DUP2 MSTORE PUSH1 0x8 PUSH1 0x20 MSTORE PUSH1 0x40 SWAP1 KECCAK256 SLOAD PUSH1 0xFF AND JUMPDEST ISZERO PUSH2 0x25B9 JUMPI POP PUSH0 JUMPDEST PUSH2 0x25C5 DUP8 DUP8 DUP8 DUP5 PUSH2 0x2B69 JUMP JUMPDEST POP POP POP POP POP POP POP JUMP JUMPDEST PUSH1 0x1 PUSH1 0x1 PUSH1 0xA0 SHL SUB DUP3 AND PUSH2 0x262E JUMPI PUSH1 0x40 MLOAD PUSH3 0x461BCD PUSH1 0xE5 SHL DUP2 MSTORE PUSH1 0x20 PUSH1 0x4 DUP3 ADD MSTORE PUSH1 0x21 PUSH1 0x24 DUP3 ADD MSTORE PUSH32 0x45524332303A206275726E2066726F6D20746865207A65726F20616464726573 PUSH1 0x44 DUP3 ADD MSTORE PUSH1 0x73 PUSH1 0xF8 SHL PUSH1 0x64 DUP3 ADD MSTORE PUSH1 0x84 ADD PUSH2 0xAD8 JUMP JUMPDEST PUSH0 PUSH2 0x2638 DUP4 PUSH2 0x1420 JUMP JUMPDEST SWAP1 POP DUP2 DUP2 LT ISZERO PUSH2 0x2695 JUMPI PUSH1 0x40 MLOAD PUSH3 0x461BCD PUSH1 0xE5 SHL DUP2 MSTORE PUSH1 0x20 PUSH1 0x4 DUP3 ADD MSTORE PUSH1 0x22 PUSH1 0x24 DUP3 ADD MSTORE PUSH32 0x45524332303A206275726E20616D6F756E7420657863656564732062616C616E PUSH1 0x44 DUP3 ADD MSTORE PUSH2 0x6365 PUSH1 0xF0 SHL PUSH1 0x64 DUP3 ADD MSTORE PUSH1 0x84 ADD PUSH2 0xAD8 JUMP JUMPDEST PUSH0 PUSH2 0x269E PUSH2 0x28FA JUMP JUMPDEST SWAP1 POP PUSH0 PUSH2 0x26AB DUP3 DUP6 PUSH2 0x36B6 JUMP JUMPDEST PUSH1 0x1 PUSH1 0x1 PUSH1 0xA0 SHL SUB DUP7 AND PUSH0 SWAP1 DUP2 MSTORE PUSH1 0x9 PUSH1 0x20 MSTORE PUSH1 0x40 SWAP1 KECCAK256 SLOAD SWAP1 SWAP2 POP PUSH1 0xFF AND ISZERO PUSH2 0x270A JUMPI PUSH1 0x1 PUSH1 0x1 PUSH1 0xA0 SHL SUB DUP6 AND PUSH0 SWAP1 DUP2 MSTORE PUSH1 0x7 PUSH1 0x20 MSTORE PUSH1 0x40 SWAP1 KECCAK256 SLOAD PUSH2 0x26F1 SWAP1 DUP6 SWAP1 PUSH2 0x35C2 JUMP JUMPDEST PUSH1 0x1 PUSH1 0x1 PUSH1 0xA0 SHL SUB DUP7 AND PUSH0 SWAP1 DUP2 MSTORE PUSH1 0x7 PUSH1 0x20 MSTORE PUSH1 0x40 SWAP1 KECCAK256 SSTORE JUMPDEST PUSH1 0x1 PUSH1 0x1 PUSH1 0xA0 SHL SUB DUP6 AND PUSH0 SWAP1 DUP2 MSTORE PUSH1 0x6 PUSH1 0x20 MSTORE PUSH1 0x40 SWAP1 KECCAK256 SLOAD PUSH2 0x272D SWAP1 DUP3 SWAP1 PUSH2 0x35C2 JUMP JUMPDEST PUSH1 0x1 PUSH1 0x1 PUSH1 0xA0 SHL SUB DUP7 AND PUSH0 SWAP1 DUP2 MSTORE PUSH1 0x6 PUSH1 0x20 MSTORE PUSH1 0x40 SWAP1 KECCAK256 SSTORE PUSH1 0xE SLOAD PUSH2 0x2753 SWAP1 DUP6 SWAP1 PUSH2 0x35C2 JUMP JUMPDEST PUSH1 0xE SSTORE PUSH1 0xF SLOAD PUSH2 0x2764 SWAP1 DUP3 SWAP1 PUSH2 0x35C2 JUMP JUMPDEST PUSH1 0xF SSTORE PUSH1 0x40 MLOAD DUP5 DUP2 MSTORE PUSH0 SWAP1 PUSH1 0x1 PUSH1 0x1 PUSH1 0xA0 SHL SUB DUP8 AND SWAP1 PUSH0 DUP1 MLOAD PUSH1 0x20 PUSH2 0x37F1 DUP4 CODECOPY DUP2 MLOAD SWAP2 MSTORE SWAP1 PUSH1 0x20 ADD JUMPDEST PUSH1 0x40 MLOAD DUP1 SWAP2 SUB SWAP1 LOG3 POP POP POP POP POP JUMP JUMPDEST PUSH0 PUSH1 0xF SLOAD DUP3 GT ISZERO PUSH2 0x2802 JUMPI PUSH1 0x40 MLOAD PUSH3 0x461BCD PUSH1 0xE5 SHL DUP2 MSTORE PUSH1 0x20 PUSH1 0x4 DUP3 ADD MSTORE PUSH1 0x2A PUSH1 0x24 DUP3 ADD MSTORE PUSH32 0x416D6F756E74206D757374206265206C657373207468616E20746F74616C2072 PUSH1 0x44 DUP3 ADD MSTORE PUSH10 0x65666C656374696F6E73 PUSH1 0xB0 SHL PUSH1 0x64 DUP3 ADD MSTORE PUSH1 0x84 ADD PUSH2 0xAD8 JUMP JUMPDEST PUSH0 PUSH2 0x280B PUSH2 0x28FA JUMP JUMPDEST SWAP1 POP PUSH2 0x2817 DUP2 DUP5 PUSH2 0x36CD JUMP JUMPDEST SWAP4 SWAP3 POP POP POP JUMP JUMPDEST PUSH1 0x5 DUP1 SLOAD PUSH1 0x1 PUSH1 0x1 PUSH1 0xA0 SHL SUB DUP4 DUP2 AND PUSH1 0x1 PUSH1 0x1 PUSH1 0xA0 SHL SUB NOT DUP4 AND DUP2 OR SWAP1 SWAP4 SSTORE PUSH1 0x40 MLOAD SWAP2 AND SWAP2 SWAP1 DUP3 SWAP1 PUSH32 0x8BE0079C531659141344CD1FD0A4F28419497F9722A3DAAFE3B4186F6B6457E0 SWAP1 PUSH0 SWAP1 LOG3 POP POP JUMP JUMPDEST PUSH1 0x13 DUP1 SLOAD PUSH1 0x14 SSTORE PUSH1 0x15 DUP1 SLOAD PUSH1 0x16 SSTORE PUSH1 0x17 DUP1 SLOAD PUSH1 0x18 SSTORE PUSH1 0x11 DUP1 SLOAD PUSH1 0x12 SSTORE PUSH1 0x19 DUP1 SLOAD PUSH1 0x1A SSTORE PUSH1 0x1B DUP1 SLOAD PUSH1 0x1C SSTORE PUSH1 0x1D DUP1 SLOAD PUSH1 0x1E SSTORE PUSH0 SWAP7 DUP8 SWAP1 SSTORE SWAP5 DUP7 SWAP1 SSTORE SWAP3 DUP6 SWAP1 SSTORE SWAP1 DUP5 SWAP1 SSTORE DUP4 SWAP1 SSTORE DUP3 SWAP1 SSTORE SSTORE JUMP JUMPDEST PUSH0 DUP1 PUSH1 0x17 SLOAD PUSH1 0x11 SLOAD PUSH1 0x13 SLOAD PUSH2 0x28CF SWAP2 SWAP1 PUSH2 0x35D5 JUMP JUMPDEST PUSH2 0x28D9 SWAP2 SWAP1 PUSH2 0x35D5 JUMP JUMPDEST SWAP1 POP PUSH0 PUSH1 0x64 PUSH2 0x28E8 DUP4 DUP7 PUSH2 0x36B6 JUMP JUMPDEST PUSH2 0x28F2 SWAP2 SWAP1 PUSH2 0x36CD JUMP JUMPDEST SWAP5 SWAP4 POP POP POP POP JUMP JUMPDEST PUSH0 DUP1 PUSH0 PUSH2 0x2905 PUSH2 0x2BBB JUMP JUMPDEST SWAP1 SWAP3 POP SWAP1 POP PUSH2 0x2914 DUP2 DUP4 PUSH2 0x36CD JUMP JUMPDEST SWAP3 POP POP POP SWAP1 JUMP JUMPDEST PUSH1 0x22 DUP1 SLOAD PUSH1 0xFF NOT AND PUSH1 0x1 OR SWAP1 SSTORE PUSH1 0x13 SLOAD ISZERO PUSH2 0x2B5C JUMPI PUSH1 0x13 SLOAD PUSH1 0x15 SLOAD SELFBALANCE SWAP2 PUSH0 SWAP2 PUSH2 0x2944 SWAP1 DUP6 PUSH2 0x36B6 JUMP JUMPDEST PUSH2 0x294E SWAP2 SWAP1 PUSH2 0x36CD JUMP JUMPDEST SWAP1 POP PUSH0 PUSH2 0x295C PUSH1 0x2 DUP4 PUSH2 0x36CD JUMP JUMPDEST SWAP1 POP PUSH0 PUSH2 0x2969 DUP3 DUP5 PUSH2 0x35C2 JUMP JUMPDEST SWAP1 POP PUSH2 0x297D PUSH2 0x2978 DUP3 DUP8 PUSH2 0x35C2 JUMP JUMPDEST PUSH2 0x2D2B JUMP JUMPDEST PUSH0 PUSH2 0x2988 DUP6 SELFBALANCE PUSH2 0x35C2 JUMP JUMPDEST SWAP1 POP PUSH0 PUSH1 0x2 PUSH1 0x15 SLOAD PUSH1 0xA PUSH2 0x299C SWAP2 SWAP1 PUSH2 0x36B6 JUMP JUMPDEST PUSH2 0x29A6 SWAP2 SWAP1 PUSH2 0x36CD JUMP JUMPDEST PUSH1 0x13 SLOAD PUSH2 0x29B4 SWAP1 PUSH1 0xA PUSH2 0x36B6 JUMP JUMPDEST PUSH2 0x29BE SWAP2 SWAP1 PUSH2 0x35C2 JUMP JUMPDEST PUSH1 0x19 SLOAD PUSH2 0x29CC SWAP1 PUSH1 0xA PUSH2 0x36B6 JUMP JUMPDEST PUSH2 0x29D6 SWAP1 DUP5 PUSH2 0x36B6 JUMP JUMPDEST PUSH2 0x29E0 SWAP2 SWAP1 PUSH2 0x36CD JUMP JUMPDEST PUSH1 0xB SLOAD SWAP1 SWAP2 POP PUSH2 0x29F9 SWAP1 PUSH1 0x1 PUSH1 0x1 PUSH1 0xA0 SHL SUB AND DUP3 PUSH2 0x2ED3 JUMP JUMPDEST PUSH0 PUSH1 0x2 PUSH1 0x15 SLOAD PUSH1 0xA PUSH2 0x2A0B SWAP2 SWAP1 PUSH2 0x36B6 JUMP JUMPDEST PUSH2 0x2A15 SWAP2 SWAP1 PUSH2 0x36CD JUMP JUMPDEST PUSH1 0x13 SLOAD PUSH2 0x2A23 SWAP1 PUSH1 0xA PUSH2 0x36B6 JUMP JUMPDEST PUSH2 0x2A2D SWAP2 SWAP1 PUSH2 0x35C2 JUMP JUMPDEST PUSH1 0x1B SLOAD PUSH2 0x2A3B SWAP1 PUSH1 0xA PUSH2 0x36B6 JUMP JUMPDEST PUSH2 0x2A45 SWAP1 DUP6 PUSH2 0x36B6 JUMP JUMPDEST PUSH2 0x2A4F SWAP2 SWAP1 PUSH2 0x36CD JUMP JUMPDEST PUSH1 0xC SLOAD SWAP1 SWAP2 POP PUSH2 0x2A68 SWAP1 PUSH1 0x1 PUSH1 0x1 PUSH1 0xA0 SHL SUB AND DUP3 PUSH2 0x2ED3 JUMP JUMPDEST PUSH0 PUSH1 0x2 PUSH1 0x15 SLOAD PUSH1 0xA PUSH2 0x2A7A SWAP2 SWAP1 PUSH2 0x36B6 JUMP JUMPDEST PUSH2 0x2A84 SWAP2 SWAP1 PUSH2 0x36CD JUMP JUMPDEST PUSH1 0x13 SLOAD PUSH2 0x2A92 SWAP1 PUSH1 0xA PUSH2 0x36B6 JUMP JUMPDEST PUSH2 0x2A9C SWAP2 SWAP1 PUSH2 0x35C2 JUMP JUMPDEST PUSH1 0x2 PUSH1 0x15 SLOAD DUP7 PUSH2 0x2AAC SWAP2 SWAP1 PUSH2 0x36B6 JUMP JUMPDEST PUSH2 0x2AB7 SWAP1 PUSH1 0xA PUSH2 0x36B6 JUMP JUMPDEST PUSH2 0x2AC1 SWAP2 SWAP1 PUSH2 0x36CD JUMP JUMPDEST PUSH2 0x2ACB SWAP2 SWAP1 PUSH2 0x36CD JUMP JUMPDEST SWAP1 POP PUSH2 0x2AD7 DUP6 DUP3 PUSH2 0x2F72 JUMP JUMPDEST PUSH0 DUP2 DUP4 PUSH2 0x2AE4 DUP7 DUP9 PUSH2 0x35C2 JUMP JUMPDEST PUSH2 0x2AEE SWAP2 SWAP1 PUSH2 0x35C2 JUMP JUMPDEST PUSH2 0x2AF8 SWAP2 SWAP1 PUSH2 0x35C2 JUMP JUMPDEST PUSH1 0xD SLOAD SWAP1 SWAP2 POP PUSH2 0x2B11 SWAP1 PUSH1 0x1 PUSH1 0x1 PUSH1 0xA0 SHL SUB AND DUP3 PUSH2 0x2ED3 JUMP JUMPDEST PUSH1 0x40 DUP1 MLOAD DUP9 DUP2 MSTORE PUSH1 0x20 DUP2 ADD DUP5 SWAP1 MSTORE SWAP1 DUP2 ADD DUP8 SWAP1 MSTORE PUSH32 0x17BBFB9A6069321B6DED73BD96327C9E6B7212A5CD51FF219CD61370ACAFB561 SWAP1 PUSH1 0x60 ADD PUSH1 0x40 MLOAD DUP1 SWAP2 SUB SWAP1 LOG1 POP POP POP POP POP POP POP POP POP JUMPDEST POP PUSH1 0x22 DUP1 SLOAD PUSH1 0xFF NOT AND SWAP1 SSTORE JUMP JUMPDEST DUP1 PUSH2 0x2B76 JUMPI PUSH2 0x2B76 PUSH2 0x286F JUMP JUMPDEST PUSH2 0x2B81 DUP5 DUP5 DUP5 PUSH2 0x304A JUMP JUMPDEST DUP1 PUSH2 0x2BB5 JUMPI PUSH2 0x2BB5 PUSH1 0x14 SLOAD PUSH1 0x13 SSTORE PUSH1 0x16 SLOAD PUSH1 0x15 SSTORE PUSH1 0x18 SLOAD PUSH1 0x17 SSTORE PUSH1 0x12 SLOAD PUSH1 0x11 SSTORE PUSH1 0x1A SLOAD PUSH1 0x19 SSTORE PUSH1 0x1C SLOAD PUSH1 0x1B SSTORE PUSH1 0x1E SLOAD PUSH1 0x1D SSTORE JUMP JUMPDEST POP POP POP POP JUMP JUMPDEST PUSH1 0xF SLOAD PUSH1 0xE SLOAD PUSH0 SWAP2 DUP3 SWAP2 DUP3 JUMPDEST PUSH1 0xA SLOAD DUP2 LT ISZERO PUSH2 0x2CFA JUMPI DUP3 PUSH1 0x6 PUSH0 PUSH1 0xA DUP5 DUP2 SLOAD DUP2 LT PUSH2 0x2BE8 JUMPI PUSH2 0x2BE8 PUSH2 0x36EC JUMP JUMPDEST PUSH0 SWAP2 DUP3 MSTORE PUSH1 0x20 DUP1 DUP4 KECCAK256 SWAP1 SWAP2 ADD SLOAD PUSH1 0x1 PUSH1 0x1 PUSH1 0xA0 SHL SUB AND DUP4 MSTORE DUP3 ADD SWAP3 SWAP1 SWAP3 MSTORE PUSH1 0x40 ADD SWAP1 KECCAK256 SLOAD GT DUP1 PUSH2 0x2C50 JUMPI POP DUP2 PUSH1 0x7 PUSH0 PUSH1 0xA DUP5 DUP2 SLOAD DUP2 LT PUSH2 0x2C2A JUMPI PUSH2 0x2C2A PUSH2 0x36EC JUMP JUMPDEST PUSH0 SWAP2 DUP3 MSTORE PUSH1 0x20 DUP1 DUP4 KECCAK256 SWAP1 SWAP2 ADD SLOAD PUSH1 0x1 PUSH1 0x1 PUSH1 0xA0 SHL SUB AND DUP4 MSTORE DUP3 ADD SWAP3 SWAP1 SWAP3 MSTORE PUSH1 0x40 ADD SWAP1 KECCAK256 SLOAD GT JUMPDEST ISZERO PUSH2 0x2C66 JUMPI PUSH1 0xF SLOAD PUSH1 0xE SLOAD SWAP5 POP SWAP5 POP POP POP POP SWAP1 SWAP2 JUMP JUMPDEST PUSH1 0x6 PUSH0 PUSH1 0xA DUP4 DUP2 SLOAD DUP2 LT PUSH2 0x2C7C JUMPI PUSH2 0x2C7C PUSH2 0x36EC JUMP JUMPDEST PUSH0 SWAP2 DUP3 MSTORE PUSH1 0x20 DUP1 DUP4 KECCAK256 SWAP1 SWAP2 ADD SLOAD PUSH1 0x1 PUSH1 0x1 PUSH1 0xA0 SHL SUB AND DUP4 MSTORE DUP3 ADD SWAP3 SWAP1 SWAP3 MSTORE PUSH1 0x40 ADD SWAP1 KECCAK256 SLOAD PUSH2 0x2CAA SWAP1 DUP5 PUSH2 0x35C2 JUMP JUMPDEST SWAP3 POP PUSH1 0x7 PUSH0 PUSH1 0xA DUP4 DUP2 SLOAD DUP2 LT PUSH2 0x2CC2 JUMPI PUSH2 0x2CC2 PUSH2 0x36EC JUMP JUMPDEST PUSH0 SWAP2 DUP3 MSTORE PUSH1 0x20 DUP1 DUP4 KECCAK256 SWAP1 SWAP2 ADD SLOAD PUSH1 0x1 PUSH1 0x1 PUSH1 0xA0 SHL SUB AND DUP4 MSTORE DUP3 ADD SWAP3 SWAP1 SWAP3 MSTORE PUSH1 0x40 ADD SWAP1 KECCAK256 SLOAD PUSH2 0x2CF0 SWAP1 DUP4 PUSH2 0x35C2 JUMP JUMPDEST SWAP2 POP PUSH1 0x1 ADD PUSH2 0x2BC7 JUMP JUMPDEST POP PUSH1 0xE SLOAD PUSH1 0xF SLOAD PUSH2 0x2D0B SWAP2 SWAP1 PUSH2 0x36CD JUMP JUMPDEST DUP3 LT ISZERO PUSH2 0x2D22 JUMPI PUSH1 0xF SLOAD PUSH1 0xE SLOAD SWAP4 POP SWAP4 POP POP POP SWAP1 SWAP2 JUMP JUMPDEST SWAP1 SWAP4 SWAP1 SWAP3 POP SWAP1 POP JUMP JUMPDEST PUSH1 0x40 DUP1 MLOAD PUSH1 0x2 DUP1 DUP3 MSTORE PUSH1 0x60 DUP3 ADD DUP4 MSTORE PUSH0 SWAP3 PUSH1 0x20 DUP4 ADD SWAP1 DUP1 CALLDATASIZE DUP4 CALLDATACOPY ADD SWAP1 POP POP SWAP1 POP ADDRESS DUP2 PUSH0 DUP2 MLOAD DUP2 LT PUSH2 0x2D5E JUMPI PUSH2 0x2D5E PUSH2 0x36EC JUMP JUMPDEST PUSH1 0x20 MUL PUSH1 0x20 ADD ADD SWAP1 PUSH1 0x1 PUSH1 0x1 PUSH1 0xA0 SHL SUB AND SWAP1 DUP2 PUSH1 0x1 PUSH1 0x1 PUSH1 0xA0 SHL SUB AND DUP2 MSTORE POP POP PUSH32 0x0 PUSH1 0x1 PUSH1 0x1 PUSH1 0xA0 SHL SUB AND PUSH4 0xAD5C4648 PUSH1 0x40 MLOAD DUP2 PUSH4 0xFFFFFFFF AND PUSH1 0xE0 SHL DUP2 MSTORE PUSH1 0x4 ADD PUSH1 0x20 PUSH1 0x40 MLOAD DUP1 DUP4 SUB DUP2 DUP7 GAS STATICCALL ISZERO DUP1 ISZERO PUSH2 0x2DDA JUMPI RETURNDATASIZE PUSH0 DUP1 RETURNDATACOPY RETURNDATASIZE PUSH0 REVERT JUMPDEST POP POP POP POP PUSH1 0x40 MLOAD RETURNDATASIZE PUSH1 0x1F NOT PUSH1 0x1F DUP3 ADD AND DUP3 ADD DUP1 PUSH1 0x40 MSTORE POP DUP2 ADD SWAP1 PUSH2 0x2DFE SWAP2 SWAP1 PUSH2 0x3714 JUMP JUMPDEST DUP2 PUSH1 0x1 DUP2 MLOAD DUP2 LT PUSH2 0x2E11 JUMPI PUSH2 0x2E11 PUSH2 0x36EC JUMP JUMPDEST PUSH1 0x1 PUSH1 0x1 PUSH1 0xA0 SHL SUB SWAP3 DUP4 AND PUSH1 0x20 SWAP2 DUP3 MUL SWAP3 SWAP1 SWAP3 ADD ADD MSTORE PUSH1 0x40 MLOAD PUSH4 0x791AC947 PUSH1 0xE0 SHL DUP2 MSTORE PUSH32 0x0 SWAP1 SWAP2 AND SWAP1 PUSH4 0x791AC947 SWAP1 PUSH2 0x2E75 SWAP1 DUP6 SWAP1 PUSH0 SWAP1 DUP7 SWAP1 ADDRESS SWAP1 TIMESTAMP SWAP1 PUSH1 0x4 ADD PUSH2 0x3772 JUMP JUMPDEST PUSH0 PUSH1 0x40 MLOAD DUP1 DUP4 SUB DUP2 PUSH0 DUP8 DUP1 EXTCODESIZE ISZERO DUP1 ISZERO PUSH2 0x2E8C JUMPI PUSH0 DUP1 REVERT JUMPDEST POP GAS CALL ISZERO DUP1 ISZERO PUSH2 0x2E9E JUMPI RETURNDATASIZE PUSH0 DUP1 RETURNDATACOPY RETURNDATASIZE PUSH0 REVERT JUMPDEST POP POP POP POP PUSH32 0x32CDE87EB454F3A0B875AB23547023107CFAD454363EC88BA5695E2C24AA52A7 DUP3 DUP3 PUSH1 0x40 MLOAD PUSH2 0xC79 SWAP3 SWAP2 SWAP1 PUSH2 0x37AD JUMP JUMPDEST PUSH0 DUP3 PUSH1 0x1 PUSH1 0x1 PUSH1 0xA0 SHL SUB AND DUP3 PUSH1 0x40 MLOAD PUSH0 PUSH1 0x40 MLOAD DUP1 DUP4 SUB DUP2 DUP6 DUP8 GAS CALL SWAP3 POP POP POP RETURNDATASIZE DUP1 PUSH0 DUP2 EQ PUSH2 0x2F1C JUMPI PUSH1 0x40 MLOAD SWAP2 POP PUSH1 0x1F NOT PUSH1 0x3F RETURNDATASIZE ADD AND DUP3 ADD PUSH1 0x40 MSTORE RETURNDATASIZE DUP3 MSTORE RETURNDATASIZE PUSH0 PUSH1 0x20 DUP5 ADD RETURNDATACOPY PUSH2 0x2F21 JUMP JUMPDEST PUSH1 0x60 SWAP2 POP JUMPDEST POP POP SWAP1 POP DUP1 PUSH2 0x1531 JUMPI DUP3 PUSH1 0x1 PUSH1 0x1 PUSH1 0xA0 SHL SUB AND PUSH32 0x1C43B9761B3FBA5321CA8212BFC231945F668CCC0C446F333999EEA9CE8FDA81 DUP4 PUSH1 0x40 MLOAD PUSH2 0x2F65 SWAP2 DUP2 MSTORE PUSH1 0x20 ADD SWAP1 JUMP JUMPDEST PUSH1 0x40 MLOAD DUP1 SWAP2 SUB SWAP1 LOG2 POP POP POP JUMP JUMPDEST PUSH32 0x0 PUSH1 0x1 PUSH1 0x1 PUSH1 0xA0 SHL SUB AND PUSH4 0xF305D719 DUP3 ADDRESS DUP6 PUSH0 DUP1 PUSH2 0x2FB8 PUSH1 0x5 SLOAD PUSH1 0x1 PUSH1 0x1 PUSH1 0xA0 SHL SUB AND SWAP1 JUMP JUMPDEST PUSH1 0x40 MLOAD PUSH1 0xE0 DUP9 SWAP1 SHL PUSH1 0x1 PUSH1 0x1 PUSH1 0xE0 SHL SUB NOT AND DUP2 MSTORE PUSH1 0x1 PUSH1 0x1 PUSH1 0xA0 SHL SUB SWAP6 DUP7 AND PUSH1 0x4 DUP3 ADD MSTORE PUSH1 0x24 DUP2 ADD SWAP5 SWAP1 SWAP5 MSTORE PUSH1 0x44 DUP5 ADD SWAP3 SWAP1 SWAP3 MSTORE PUSH1 0x64 DUP4 ADD MSTORE SWAP1 SWAP2 AND PUSH1 0x84 DUP3 ADD MSTORE TIMESTAMP PUSH1 0xA4 DUP3 ADD MSTORE PUSH1 0xC4 ADD PUSH1 0x60 PUSH1 0x40 MLOAD DUP1 DUP4 SUB DUP2 DUP6 DUP9 GAS CALL ISZERO DUP1 ISZERO PUSH2 0x301E JUMPI RETURNDATASIZE PUSH0 DUP1 RETURNDATACOPY RETURNDATASIZE PUSH0 REVERT JUMPDEST POP POP POP POP POP PUSH1 0x40 MLOAD RETURNDATASIZE PUSH1 0x1F NOT PUSH1 0x1F DUP3 ADD AND DUP3 ADD DUP1 PUSH1 0x40 MSTORE POP DUP2 ADD SWAP1 PUSH2 0x3043 SWAP2 SWAP1 PUSH2 0x37C5 JUMP JUMPDEST POP POP POP POP POP JUMP JUMPDEST PUSH0 DUP1 PUSH0 DUP1 PUSH2 0x3057 DUP6 PUSH2 0x20BB JUMP JUMPDEST PUSH1 0x1 PUSH1 0x1 PUSH1 0xA0 SHL SUB DUP12 AND PUSH0 SWAP1 DUP2 MSTORE PUSH1 0x6 PUSH1 0x20 MSTORE PUSH1 0x40 SWAP1 KECCAK256 SLOAD SWAP4 SWAP8 POP SWAP2 SWAP6 POP SWAP4 POP SWAP2 POP PUSH2 0x3084 SWAP1 DUP6 SWAP1 PUSH2 0x35C2 JUMP JUMPDEST PUSH1 0x1 PUSH1 0x1 PUSH1 0xA0 SHL SUB DUP1 DUP10 AND PUSH0 SWAP1 DUP2 MSTORE PUSH1 0x6 PUSH1 0x20 MSTORE PUSH1 0x40 DUP1 DUP3 KECCAK256 SWAP4 SWAP1 SWAP4 SSTORE SWAP1 DUP9 AND DUP2 MSTORE KECCAK256 SLOAD PUSH2 0x30B3 SWAP1 DUP5 SWAP1 PUSH2 0x35D5 JUMP JUMPDEST PUSH1 0x1 PUSH1 0x1 PUSH1 0xA0 SHL SUB DUP1 DUP9 AND PUSH0 SWAP1 DUP2 MSTORE PUSH1 0x6 PUSH1 0x20 SWAP1 DUP2 MSTORE PUSH1 0x40 DUP1 DUP4 KECCAK256 SWAP5 SWAP1 SWAP5 SSTORE SWAP2 DUP11 AND DUP2 MSTORE PUSH1 0x9 SWAP1 SWAP2 MSTORE KECCAK256 SLOAD PUSH1 0xFF AND DUP1 ISZERO PUSH2 0x3105 JUMPI POP PUSH1 0x1 PUSH1 0x1 PUSH1 0xA0 SHL SUB DUP7 AND PUSH0 SWAP1 DUP2 MSTORE PUSH1 0x9 PUSH1 0x20 MSTORE PUSH1 0x40 SWAP1 KECCAK256 SLOAD PUSH1 0xFF AND ISZERO JUMPDEST ISZERO PUSH2 0x314A JUMPI PUSH1 0x1 PUSH1 0x1 PUSH1 0xA0 SHL SUB DUP8 AND PUSH0 SWAP1 DUP2 MSTORE PUSH1 0x7 PUSH1 0x20 MSTORE PUSH1 0x40 SWAP1 KECCAK256 SLOAD PUSH2 0x312D SWAP1 DUP7 SWAP1 PUSH2 0x35C2 JUMP JUMPDEST PUSH1 0x1 PUSH1 0x1 PUSH1 0xA0 SHL SUB DUP9 AND PUSH0 SWAP1 DUP2 MSTORE PUSH1 0x7 PUSH1 0x20 MSTORE PUSH1 0x40 SWAP1 KECCAK256 SSTORE PUSH2 0x327C JUMP JUMPDEST PUSH1 0x1 PUSH1 0x1 PUSH1 0xA0 SHL SUB DUP8 AND PUSH0 SWAP1 DUP2 MSTORE PUSH1 0x9 PUSH1 0x20 MSTORE PUSH1 0x40 SWAP1 KECCAK256 SLOAD PUSH1 0xFF AND ISZERO DUP1 ISZERO PUSH2 0x3189 JUMPI POP PUSH1 0x1 PUSH1 0x1 PUSH1 0xA0 SHL SUB DUP7 AND PUSH0 SWAP1 DUP2 MSTORE PUSH1 0x9 PUSH1 0x20 MSTORE PUSH1 0x40 SWAP1 KECCAK256 SLOAD PUSH1 0xFF AND JUMPDEST ISZERO PUSH2 0x31CE JUMPI PUSH1 0x1 PUSH1 0x1 PUSH1 0xA0 SHL SUB DUP7 AND PUSH0 SWAP1 DUP2 MSTORE PUSH1 0x7 PUSH1 0x20 MSTORE PUSH1 0x40 SWAP1 KECCAK256 SLOAD PUSH2 0x31B1 SWAP1 DUP4 SWAP1 PUSH2 0x35D5 JUMP JUMPDEST PUSH1 0x1 PUSH1 0x1 PUSH1 0xA0 SHL SUB DUP8 AND PUSH0 SWAP1 DUP2 MSTORE PUSH1 0x7 PUSH1 0x20 MSTORE PUSH1 0x40 SWAP1 KECCAK256 SSTORE PUSH2 0x327C JUMP JUMPDEST PUSH1 0x1 PUSH1 0x1 PUSH1 0xA0 SHL SUB DUP8 AND PUSH0 SWAP1 DUP2 MSTORE PUSH1 0x9 PUSH1 0x20 MSTORE PUSH1 0x40 SWAP1 KECCAK256 SLOAD PUSH1 0xFF AND DUP1 ISZERO PUSH2 0x320C JUMPI POP PUSH1 0x1 PUSH1 0x1 PUSH1 0xA0 SHL SUB DUP7 AND PUSH0 SWAP1 DUP2 MSTORE PUSH1 0x9 PUSH1 0x20 MSTORE PUSH1 0x40 SWAP1 KECCAK256 SLOAD PUSH1 0xFF AND JUMPDEST ISZERO PUSH2 0x327C JUMPI PUSH1 0x1 PUSH1 0x1 PUSH1 0xA0 SHL SUB DUP8 AND PUSH0 SWAP1 DUP2 MSTORE PUSH1 0x7 PUSH1 0x20 MSTORE PUSH1 0x40 SWAP1 KECCAK256 SLOAD PUSH2 0x3234 SWAP1 DUP7 SWAP1 PUSH2 0x35C2 JUMP JUMPDEST PUSH1 0x1 PUSH1 0x1 PUSH1 0xA0 SHL SUB DUP1 DUP10 AND PUSH0 SWAP1 DUP2 MSTORE PUSH1 0x7 PUSH1 0x20 MSTORE PUSH1 0x40 DUP1 DUP3 KECCAK256 SWAP4 SWAP1 SWAP4 SSTORE SWAP1 DUP9 AND DUP2 MSTORE KECCAK256 SLOAD PUSH2 0x3263 SWAP1 DUP4 SWAP1 PUSH2 0x35D5 JUMP JUMPDEST PUSH1 0x1 PUSH1 0x1 PUSH1 0xA0 SHL SUB DUP8 AND PUSH0 SWAP1 DUP2 MSTORE PUSH1 0x7 PUSH1 0x20 MSTORE PUSH1 0x40 SWAP1 KECCAK256 SSTORE JUMPDEST PUSH2 0x3286 DUP6 DUP3 PUSH2 0x32E3 JUMP JUMPDEST PUSH2 0x3291 DUP8 DUP7 DUP4 PUSH2 0x3335 JUMP JUMPDEST PUSH2 0x32A0 DUP8 DUP7 DUP4 PUSH1 0x13 SLOAD ADDRESS PUSH2 0x33B1 JUMP JUMPDEST DUP6 PUSH1 0x1 PUSH1 0x1 PUSH1 0xA0 SHL SUB AND DUP8 PUSH1 0x1 PUSH1 0x1 PUSH1 0xA0 SHL SUB AND PUSH0 DUP1 MLOAD PUSH1 0x20 PUSH2 0x37F1 DUP4 CODECOPY DUP2 MLOAD SWAP2 MSTORE DUP5 PUSH1 0x40 MLOAD PUSH2 0x32D2 SWAP2 DUP2 MSTORE PUSH1 0x20 ADD SWAP1 JUMP JUMPDEST PUSH1 0x40 MLOAD DUP1 SWAP2 SUB SWAP1 LOG3 POP POP POP POP POP POP POP JUMP JUMPDEST PUSH0 PUSH1 0x64 PUSH1 0x11 SLOAD DUP5 PUSH2 0x32F4 SWAP2 SWAP1 PUSH2 0x36B6 JUMP JUMPDEST PUSH2 0x32FE SWAP2 SWAP1 PUSH2 0x36CD JUMP JUMPDEST SWAP1 POP PUSH0 PUSH2 0x330B DUP4 DUP4 PUSH2 0x36B6 JUMP JUMPDEST SWAP1 POP DUP1 PUSH1 0xF SLOAD PUSH2 0x331B SWAP2 SWAP1 PUSH2 0x35C2 JUMP JUMPDEST PUSH1 0xF SSTORE PUSH1 0x10 SLOAD PUSH2 0x332C SWAP1 DUP4 SWAP1 PUSH2 0x35D5 JUMP JUMPDEST PUSH1 0x10 SSTORE POP POP POP POP JUMP JUMPDEST PUSH0 PUSH1 0x64 PUSH1 0x17 SLOAD DUP5 PUSH2 0x3346 SWAP2 SWAP1 PUSH2 0x36B6 JUMP JUMPDEST PUSH2 0x3350 SWAP2 SWAP1 PUSH2 0x36CD JUMP JUMPDEST SWAP1 POP DUP1 ISZERO PUSH2 0x2BB5 JUMPI PUSH0 PUSH2 0x3363 DUP4 DUP4 PUSH2 0x36B6 JUMP JUMPDEST SWAP1 POP DUP2 PUSH1 0xE SLOAD PUSH2 0x3373 SWAP2 SWAP1 PUSH2 0x35C2 JUMP JUMPDEST PUSH1 0xE SSTORE PUSH1 0xF SLOAD PUSH2 0x3384 SWAP1 DUP3 SWAP1 PUSH2 0x35C2 JUMP JUMPDEST PUSH1 0xF SSTORE PUSH1 0x40 MLOAD DUP3 DUP2 MSTORE PUSH0 SWAP1 PUSH1 0x1 PUSH1 0x1 PUSH1 0xA0 SHL SUB DUP8 AND SWAP1 PUSH0 DUP1 MLOAD PUSH1 0x20 PUSH2 0x37F1 DUP4 CODECOPY DUP2 MLOAD SWAP2 MSTORE SWAP1 PUSH1 0x20 ADD PUSH2 0x278D JUMP JUMPDEST PUSH0 PUSH1 0x64 PUSH2 0x33BE DUP5 DUP8 PUSH2 0x36B6 JUMP JUMPDEST PUSH2 0x33C8 SWAP2 SWAP1 PUSH2 0x36CD JUMP JUMPDEST SWAP1 POP DUP1 ISZERO PUSH2 0x3441 JUMPI PUSH0 PUSH2 0x33DB DUP6 DUP4 PUSH2 0x36B6 JUMP JUMPDEST PUSH1 0x1 PUSH1 0x1 PUSH1 0xA0 SHL SUB DUP5 AND PUSH0 SWAP1 DUP2 MSTORE PUSH1 0x6 PUSH1 0x20 MSTORE PUSH1 0x40 SWAP1 KECCAK256 SLOAD SWAP1 SWAP2 POP PUSH2 0x3401 SWAP1 DUP3 SWAP1 PUSH2 0x35D5 JUMP JUMPDEST PUSH1 0x1 PUSH1 0x1 PUSH1 0xA0 SHL SUB DUP1 DUP6 AND PUSH0 DUP2 DUP2 MSTORE PUSH1 0x6 PUSH1 0x20 MSTORE PUSH1 0x40 SWAP1 DUP2 SWAP1 KECCAK256 SWAP4 SWAP1 SWAP4 SSTORE SWAP2 MLOAD SWAP1 DUP10 AND SWAP1 PUSH0 DUP1 MLOAD PUSH1 0x20 PUSH2 0x37F1 DUP4 CODECOPY DUP2 MLOAD SWAP2 MSTORE SWAP1 PUSH2 0x32D2 SWAP1 DUP7 DUP2 MSTORE PUSH1 0x20 ADD SWAP1 JUMP JUMPDEST POP POP POP POP POP POP JUMP JUMPDEST PUSH0 PUSH1 0x20 DUP3 DUP5 SUB SLT ISZERO PUSH2 0x3459 JUMPI PUSH0 DUP1 REVERT JUMPDEST POP CALLDATALOAD SWAP2 SWAP1 POP JUMP JUMPDEST PUSH1 0x20 DUP2 MSTORE PUSH0 DUP3 MLOAD DUP1 PUSH1 0x20 DUP5 ADD MSTORE DUP1 PUSH1 0x20 DUP6 ADD PUSH1 0x40 DUP6 ADD MCOPY PUSH0 PUSH1 0x40 DUP3 DUP6 ADD ADD MSTORE PUSH1 0x40 PUSH1 0x1F NOT PUSH1 0x1F DUP4 ADD AND DUP5 ADD ADD SWAP2 POP POP SWAP3 SWAP2 POP POP JUMP JUMPDEST PUSH1 0x1 PUSH1 0x1 PUSH1 0xA0 SHL SUB DUP2 AND DUP2 EQ PUSH2 0xE97 JUMPI PUSH0 DUP1 REVERT JUMPDEST PUSH0 DUP1 PUSH1 0x40 DUP4 DUP6 SUB SLT ISZERO PUSH2 0x34BA JUMPI PUSH0 DUP1 REVERT JUMPDEST DUP3 CALLDATALOAD PUSH2 0x34C5 DUP2 PUSH2 0x3495 JUMP JUMPDEST SWAP5 PUSH1 0x20 SWAP4 SWAP1 SWAP4 ADD CALLDATALOAD SWAP4 POP POP POP JUMP JUMPDEST PUSH0 PUSH1 0x20 DUP3 DUP5 SUB SLT ISZERO PUSH2 0x34E3 JUMPI PUSH0 DUP1 REVERT JUMPDEST DUP2 CALLDATALOAD PUSH2 0x2817 DUP2 PUSH2 0x3495 JUMP JUMPDEST PUSH0 DUP1 PUSH0 PUSH1 0x60 DUP5 DUP7 SUB SLT ISZERO PUSH2 0x3500 JUMPI PUSH0 DUP1 REVERT JUMPDEST DUP4 CALLDATALOAD PUSH2 0x350B DUP2 PUSH2 0x3495 JUMP JUMPDEST SWAP3 POP PUSH1 0x20 DUP5 ADD CALLDATALOAD PUSH2 0x351B DUP2 PUSH2 0x3495 JUMP JUMPDEST SWAP3 SWAP6 SWAP3 SWAP5 POP POP POP PUSH1 0x40 SWAP2 SWAP1 SWAP2 ADD CALLDATALOAD SWAP1 JUMP JUMPDEST DUP1 ISZERO ISZERO DUP2 EQ PUSH2 0xE97 JUMPI PUSH0 DUP1 REVERT JUMPDEST PUSH0 DUP1 PUSH1 0x40 DUP4 DUP6 SUB SLT ISZERO PUSH2 0x354A JUMPI PUSH0 DUP1 REVERT JUMPDEST DUP3 CALLDATALOAD SWAP2 POP PUSH1 0x20 DUP4 ADD CALLDATALOAD PUSH2 0x355C DUP2 PUSH2 0x352C JUMP JUMPDEST DUP1 SWAP2 POP POP SWAP3 POP SWAP3 SWAP1 POP JUMP JUMPDEST PUSH0 PUSH1 0x20 DUP3 DUP5 SUB SLT ISZERO PUSH2 0x3577 JUMPI PUSH0 DUP1 REVERT JUMPDEST DUP2 CALLDATALOAD PUSH2 0x2817 DUP2 PUSH2 0x352C JUMP JUMPDEST PUSH0 DUP1 PUSH1 0x40 DUP4 DUP6 SUB SLT ISZERO PUSH2 0x3593 JUMPI PUSH0 DUP1 REVERT JUMPDEST DUP3 CALLDATALOAD PUSH2 0x359E DUP2 PUSH2 0x3495 JUMP JUMPDEST SWAP2 POP PUSH1 0x20 DUP4 ADD CALLDATALOAD PUSH2 0x355C DUP2 PUSH2 0x3495 JUMP JUMPDEST PUSH4 0x4E487B71 PUSH1 0xE0 SHL PUSH0 MSTORE PUSH1 0x11 PUSH1 0x4 MSTORE PUSH1 0x24 PUSH0 REVERT JUMPDEST DUP2 DUP2 SUB DUP2 DUP2 GT ISZERO PUSH2 0xBF3 JUMPI PUSH2 0xBF3 PUSH2 0x35AE JUMP JUMPDEST DUP1 DUP3 ADD DUP1 DUP3 GT ISZERO PUSH2 0xBF3 JUMPI PUSH2 0xBF3 PUSH2 0x35AE JUMP JUMPDEST PUSH1 0x1 DUP2 DUP2 SHR SWAP1 DUP3 AND DUP1 PUSH2 0x35FC JUMPI PUSH1 0x7F DUP3 AND SWAP2 POP JUMPDEST PUSH1 0x20 DUP3 LT DUP2 SUB PUSH2 0x361A JUMPI PUSH4 0x4E487B71 PUSH1 0xE0 SHL PUSH0 MSTORE PUSH1 0x22 PUSH1 0x4 MSTORE PUSH1 0x24 PUSH0 REVERT JUMPDEST POP SWAP2 SWAP1 POP JUMP JUMPDEST PUSH1 0x20 DUP1 DUP3 MSTORE DUP2 DUP2 ADD MSTORE PUSH32 0x4F776E61626C653A2063616C6C6572206973206E6F7420746865206F776E6572 PUSH1 0x40 DUP3 ADD MSTORE PUSH1 0x60 ADD SWAP1 JUMP JUMPDEST PUSH1 0x20 DUP1 DUP3 MSTORE PUSH1 0x26 SWAP1 DUP3 ADD MSTORE PUSH32 0x436F6D62696E6564206C6971756964697479206665652063616E6E6F74206265 PUSH1 0x40 DUP3 ADD MSTORE PUSH6 0x103D32B93797 PUSH1 0xD1 SHL PUSH1 0x60 DUP3 ADD MSTORE PUSH1 0x80 ADD SWAP1 JUMP JUMPDEST PUSH0 PUSH1 0x20 DUP3 DUP5 SUB SLT ISZERO PUSH2 0x36AB JUMPI PUSH0 DUP1 REVERT JUMPDEST DUP2 MLOAD PUSH2 0x2817 DUP2 PUSH2 0x352C JUMP JUMPDEST DUP1 DUP3 MUL DUP2 ISZERO DUP3 DUP3 DIV DUP5 EQ OR PUSH2 0xBF3 JUMPI PUSH2 0xBF3 PUSH2 0x35AE JUMP JUMPDEST PUSH0 DUP3 PUSH2 0x36E7 JUMPI PUSH4 0x4E487B71 PUSH1 0xE0 SHL PUSH0 MSTORE PUSH1 0x12 PUSH1 0x4 MSTORE PUSH1 0x24 PUSH0 REVERT JUMPDEST POP DIV SWAP1 JUMP JUMPDEST PUSH4 0x4E487B71 PUSH1 0xE0 SHL PUSH0 MSTORE PUSH1 0x32 PUSH1 0x4 MSTORE PUSH1 0x24 PUSH0 REVERT JUMPDEST PUSH4 0x4E487B71 PUSH1 0xE0 SHL PUSH0 MSTORE PUSH1 0x31 PUSH1 0x4 MSTORE PUSH1 0x24 PUSH0 REVERT JUMPDEST PUSH0 PUSH1 0x20 DUP3 DUP5 SUB SLT ISZERO PUSH2 0x3724 JUMPI PUSH0 DUP1 REVERT JUMPDEST DUP2 MLOAD PUSH2 0x2817 DUP2 PUSH2 0x3495 JUMP JUMPDEST PUSH0 DUP2 MLOAD DUP1 DUP5 MSTORE PUSH1 0x20 DUP1 DUP6 ADD SWAP5 POP PUSH1 0x20 DUP5 ADD PUSH0 JUMPDEST DUP4 DUP2 LT ISZERO PUSH2 0x3767 JUMPI DUP2 MLOAD PUSH1 0x1 PUSH1 0x1 PUSH1 0xA0 SHL SUB AND DUP8 MSTORE SWAP6 DUP3 ADD SWAP6 SWAP1 DUP3 ADD SWAP1 PUSH1 0x1 ADD PUSH2 0x3742 JUMP JUMPDEST POP SWAP5 SWAP6 SWAP5 POP POP POP POP POP JUMP JUMPDEST DUP6 DUP2 MSTORE DUP5 PUSH1 0x20 DUP3 ADD MSTORE PUSH1 0xA0 PUSH1 0x40 DUP3 ADD MSTORE PUSH0 PUSH2 0x3790 PUSH1 0xA0 DUP4 ADD DUP7 PUSH2 0x372F JUMP JUMPDEST PUSH1 0x1 PUSH1 0x1 PUSH1 0xA0 SHL SUB SWAP5 SWAP1 SWAP5 AND PUSH1 0x60 DUP4 ADD MSTORE POP PUSH1 0x80 ADD MSTORE SWAP4 SWAP3 POP POP POP JUMP JUMPDEST DUP3 DUP2 MSTORE PUSH1 0x40 PUSH1 0x20 DUP3 ADD MSTORE PUSH0 PUSH2 0x28F2 PUSH1 0x40 DUP4 ADD DUP5 PUSH2 0x372F JUMP JUMPDEST PUSH0 DUP1 PUSH0 PUSH1 0x60 DUP5 DUP7 SUB SLT ISZERO PUSH2 0x37D7 JUMPI PUSH0 DUP1 REVERT JUMPDEST DUP4 MLOAD SWAP3 POP PUSH1 0x20 DUP5 ADD MLOAD SWAP2 POP PUSH1 0x40 DUP5 ADD MLOAD SWAP1 POP SWAP3 POP SWAP3 POP SWAP3 JUMP INVALID 0xDD CALLCODE MSTORE 0xAD SHL 0xE2 0xC8 SWAP12 PUSH10 0xC2B068FC378DAA952BA7 CALL PUSH4 0xC4A11628 CREATE2 GAS 0x4D CREATE2 0x23 0xB3 0xEF LOG2 PUSH5 0x6970667358 0x22 SLT KECCAK256 SWAP8 BLOBBASEFEE 0xC5 LT PUSH23 0x1FFB8EA91822F6ABC4D023DEDDFD99979FA4D4FD48301B 0x25 SHL 0xDE PUSH13 0x64736F6C634300081900330000 "
		},
		"gasEstimates": {
			"creation": {
				"codeDepositCost": "2881200",
				"executionCost": "infinite",
				"totalCost": "infinite"
			},
			"external": {
				"MAX_BURN_FEE()": "306",
				"MAX_FEE_INDIVIDUAL()": "263",
				"MAX_TOTAL_FEES()": "262",
				"MIN_COMBINED_LIQUIDITY_FEE()": "306",
				"_burnFee()": "2427",
				"_charityFee()": "2385",
				"_developerFee()": "2406",
				"_liquidityPoolFee()": "2362",
				"_marketingFee()": "2363",
				"_maxTxAmount()": "2407",
				"_reflectionFee()": "2406",
				"allowance(address,address)": "infinite",
				"approve(address,uint256)": "24701",
				"balanceOf(address)": "infinite",
				"burn(uint256)": "infinite",
				"burnFrom(address,uint256)": "infinite",
				"charityAddress()": "2447",
				"deadAddress()": "328",
				"decimals()": "244",
				"decreaseAllowance(address,uint256)": "26968",
				"developerAddress()": "2403",
				"excludeAccountFromReward(address)": "infinite",
				"excludeFromFee(address)": "26809",
				"includeAccountinReward(address)": "infinite",
				"includeInFee(address)": "26868",
				"increaseAllowance(address,uint256)": "infinite",
				"isExcluded(address)": "2629",
				"isExcludedFromFee(address)": "2674",
				"marketingAddress()": "2448",
				"minimumTokensBeforeSwapAmount()": "2359",
				"name()": "infinite",
				"owner()": "2420",
				"presale(bool)": "infinite",
				"recoverETHfromContract()": "infinite",
				"recoverTokensFromContract(address,uint256)": "infinite",
				"reflect(uint256)": "infinite",
				"reflectionFromToken(uint256,bool)": "infinite",
				"renounceOwnership()": "28183",
				"setBurnFee(uint256)": "infinite",
				"setCharityAddress(address)": "28123",
				"setCharityFee(uint256)": "infinite",
				"setDeveloperAddress(address)": "28198",
				"setDeveloperFee(uint256)": "infinite",
				"setLiquidityPoolFee(uint256)": "infinite",
				"setMarketingAddress(address)": "28177",
				"setMarketingFee(uint256)": "infinite",
				"setMaxTxAmount(uint256)": "30272",
				"setReflectionFee(uint256)": "infinite",
				"setSwapAndLiquifyEnabled(bool)": "27839",
				"swapAndLiquifyEnabled()": "2388",
				"symbol()": "infinite",
				"totalFeesRedistributed()": "2381",
				"totalSupply()": "2393",
				"transfer(address,uint256)": "infinite",
				"transferFrom(address,address,uint256)": "infinite",
				"transferOwnership(address)": "infinite",
				"uniswapV2Pair()": "infinite",
				"uniswapV2Router()": "infinite"
			},
			"internal": {
				"_burn(address,uint256)": "infinite",
				"_getCompleteTaxValue(uint256)": "infinite",
				"_getCurrentSupply()": "infinite",
				"_getRate()": "infinite",
				"_getTransferValues(uint256)": "infinite",
				"_mintStart(address,uint256,uint256)": "infinite",
				"_reflectFee(uint256,uint256)": "infinite",
				"_tokenTransfer(address,address,uint256,bool)": "infinite",
				"_transfer(address,address,uint256)": "infinite",
				"_transferStandard(address,address,uint256)": "infinite",
				"_validateTotalFees()": "infinite",
				"addLiquidity(uint256,uint256)": "infinite",
				"burnFeeTransfer(address,uint256,uint256)": "infinite",
				"feeTransfer(address,uint256,uint256,uint256,address)": "infinite",
				"getBalance()": "infinite",
				"removeAllFee()": "204522",
				"restoreAllFee()": "infinite",
				"swapETHForTokens(uint256)": "infinite",
				"swapTokens(uint256)": "infinite",
				"swapTokensForEth(uint256)": "infinite",
				"tokenFromReflection(uint256)": "infinite",
				"transferToAddressETH(address payable,uint256)": "infinite"
			}
		},
		"methodIdentifiers": {
			"MAX_BURN_FEE()": "50e8676c",
			"MAX_FEE_INDIVIDUAL()": "40212314",
			"MAX_TOTAL_FEES()": "c3a1ed48",
			"MIN_COMBINED_LIQUIDITY_FEE()": "c580c73a",
			"_burnFee()": "c0b0fda2",
			"_charityFee()": "40f8007a",
			"_developerFee()": "48de478e",
			"_liquidityPoolFee()": "8a0623b4",
			"_marketingFee()": "22976e0d",
			"_maxTxAmount()": "7d1db4a5",
			"_reflectionFee()": "3206b4aa",
			"allowance(address,address)": "dd62ed3e",
			"approve(address,uint256)": "095ea7b3",
			"balanceOf(address)": "70a08231",
			"burn(uint256)": "42966c68",
			"burnFrom(address,uint256)": "79cc6790",
			"charityAddress()": "afcf2fc4",
			"deadAddress()": "27c8f835",
			"decimals()": "313ce567",
			"decreaseAllowance(address,uint256)": "a457c2d7",
			"developerAddress()": "caccd7f7",
			"excludeAccountFromReward(address)": "6049876e",
			"excludeFromFee(address)": "437823ec",
			"includeAccountinReward(address)": "fdeb889f",
			"includeInFee(address)": "ea2f0b37",
			"increaseAllowance(address,uint256)": "39509351",
			"isExcluded(address)": "cba0e996",
			"isExcludedFromFee(address)": "5342acb4",
			"marketingAddress()": "a5ece941",
			"minimumTokensBeforeSwapAmount()": "a073d37f",
			"name()": "06fdde03",
			"owner()": "8da5cb5b",
			"presale(bool)": "edc2fcfb",
			"recoverETHfromContract()": "ce831ed5",
			"recoverTokensFromContract(address,uint256)": "e6be4a72",
			"reflect(uint256)": "053ab182",
			"reflectionFromToken(uint256,bool)": "4549b039",
			"renounceOwnership()": "715018a6",
			"setBurnFee(uint256)": "4bf2c7c9",
			"setCharityAddress(address)": "0c9be46d",
			"setCharityFee(uint256)": "20c7c596",
			"setDeveloperAddress(address)": "dcc345f2",
			"setDeveloperFee(uint256)": "6c317232",
			"setLiquidityPoolFee(uint256)": "a94c8dd2",
			"setMarketingAddress(address)": "906e9dd0",
			"setMarketingFee(uint256)": "625e764c",
			"setMaxTxAmount(uint256)": "ec28438a",
			"setReflectionFee(uint256)": "e547be69",
			"setSwapAndLiquifyEnabled(bool)": "c49b9a80",
			"swapAndLiquifyEnabled()": "4a74bb02",
			"symbol()": "95d89b41",
			"totalFeesRedistributed()": "32035504",
			"totalSupply()": "18160ddd",
			"transfer(address,uint256)": "a9059cbb",
			"transferFrom(address,address,uint256)": "23b872dd",
			"transferOwnership(address)": "f2fde38b",
			"uniswapV2Pair()": "49bd5a5e",
			"uniswapV2Router()": "1694505e"
		}
	},
	"abi": [
		{
			"inputs": [],
			"stateMutability": "payable",
			"type": "constructor"
		},
		{
			"anonymous": false,
			"inputs": [
				{
					"indexed": true,
					"internalType": "address",
					"name": "owner",
					"type": "address"
				},
				{
					"indexed": true,
					"internalType": "address",
					"name": "spender",
					"type": "address"
				},
				{
					"indexed": false,
					"internalType": "uint256",
					"name": "value",
					"type": "uint256"
				}
			],
			"name": "Approval",
			"type": "event"
		},
		{
			"anonymous": false,
			"inputs": [
				{
					"indexed": false,
					"internalType": "string",
					"name": "",
					"type": "string"
				},
				{
					"indexed": false,
					"internalType": "address",
					"name": "",
					"type": "address"
				}
			],
			"name": "AuditLog",
			"type": "event"
		},
		{
			"anonymous": false,
			"inputs": [
				{
					"indexed": false,
					"internalType": "uint256",
					"name": "oldBurnFee",
					"type": "uint256"
				},
				{
					"indexed": false,
					"internalType": "uint256",
					"name": "newBurnFee",
					"type": "uint256"
				}
			],
			"name": "BurnFeeUpdated",
			"type": "event"
		},
		{
			"anonymous": false,
			"inputs": [
				{
					"indexed": false,
					"internalType": "address",
					"name": "oldAddress",
					"type": "address"
				},
				{
					"indexed": false,
					"internalType": "address",
					"name": "newAddress",
					"type": "address"
				}
			],
			"name": "CharityAddressUpdated",
			"type": "event"
		},
		{
			"anonymous": false,
			"inputs": [
				{
					"indexed": false,
					"internalType": "uint256",
					"name": "oldCharityFee",
					"type": "uint256"
				},
				{
					"indexed": false,
					"internalType": "uint256",
					"name": "newCharityFee",
					"type": "uint256"
				}
			],
			"name": "CharityFeeUpdated",
			"type": "event"
		},
		{
			"anonymous": false,
			"inputs": [
				{
					"indexed": false,
					"internalType": "address",
					"name": "oldAddress",
					"type": "address"
				},
				{
					"indexed": false,
					"internalType": "address",
					"name": "newAddress",
					"type": "address"
				}
			],
			"name": "DeveloperAddressUpdated",
			"type": "event"
		},
		{
			"anonymous": false,
			"inputs": [
				{
					"indexed": false,
					"internalType": "uint256",
					"name": "oldDeveloperFee",
					"type": "uint256"
				},
				{
					"indexed": false,
					"internalType": "uint256",
					"name": "newDeveloperFee",
					"type": "uint256"
				}
			],
			"name": "DeveloperFeeUpdated",
			"type": "event"
		},
		{
			"anonymous": false,
			"inputs": [
				{
					"indexed": false,
					"internalType": "uint256",
					"name": "oldLiquidityPoolFee",
					"type": "uint256"
				},
				{
					"indexed": false,
					"internalType": "uint256",
					"name": "newLiquidityPoolFee",
					"type": "uint256"
				}
			],
			"name": "LiquidityPoolFeeUpdated",
			"type": "event"
		},
		{
			"anonymous": false,
			"inputs": [
				{
					"indexed": false,
					"internalType": "string",
					"name": "",
					"type": "string"
				},
				{
					"indexed": false,
					"internalType": "uint256",
					"name": "",
					"type": "uint256"
				}
			],
			"name": "Log",
			"type": "event"
		},
		{
			"anonymous": false,
			"inputs": [
				{
					"indexed": false,
					"internalType": "address",
					"name": "oldAddress",
					"type": "address"
				},
				{
					"indexed": false,
					"internalType": "address",
					"name": "newAddress",
					"type": "address"
				}
			],
			"name": "MarketingAddressUpdated",
			"type": "event"
		},
		{
			"anonymous": false,
			"inputs": [
				{
					"indexed": false,
					"internalType": "uint256",
					"name": "oldMarketingFee",
					"type": "uint256"
				},
				{
					"indexed": false,
					"internalType": "uint256",
					"name": "newMarketingFee",
					"type": "uint256"
				}
			],
			"name": "MarketingFeeUpdated",
			"type": "event"
		},
		{
			"anonymous": false,
			"inputs": [
				{
					"indexed": false,
					"internalType": "uint256",
					"name": "oldMaxTxAmount",
					"type": "uint256"
				},
				{
					"indexed": false,
					"internalType": "uint256",
					"name": "newMaxTxAmount",
					"type": "uint256"
				}
			],
			"name": "MaxTxAmountUpdated",
			"type": "event"
		},
		{
			"anonymous": false,
			"inputs": [
				{
					"indexed": false,
					"internalType": "uint256",
					"name": "oldMinimumTokensBeforeSwap",
					"type": "uint256"
				},
				{
					"indexed": false,
					"internalType": "uint256",
					"name": "newMinimumTokensBeforeSwap",
					"type": "uint256"
				}
			],
			"name": "MinimumTokensBeforeSwapUpdated",
			"type": "event"
		},
		{
			"anonymous": false,
			"inputs": [
				{
					"indexed": true,
					"internalType": "address",
					"name": "previousOwner",
					"type": "address"
				},
				{
					"indexed": true,
					"internalType": "address",
					"name": "newOwner",
					"type": "address"
				}
			],
			"name": "OwnershipTransferred",
			"type": "event"
		},
		{
			"anonymous": false,
			"inputs": [
				{
					"indexed": false,
					"internalType": "bool",
					"name": "presale",
					"type": "bool"
				}
			],
			"name": "PresaleFlagUpdated",
			"type": "event"
		},
		{
			"anonymous": false,
			"inputs": [
				{
					"indexed": false,
					"internalType": "uint256",
					"name": "oldReflectionFee",
					"type": "uint256"
				},
				{
					"indexed": false,
					"internalType": "uint256",
					"name": "newReflectionFee",
					"type": "uint256"
				}
			],
			"name": "ReflectionFeeUpdated",
			"type": "event"
		},
		{
			"anonymous": false,
			"inputs": [
				{
					"indexed": false,
					"internalType": "uint256",
					"name": "tokensSwapped",
					"type": "uint256"
				},
				{
					"indexed": false,
					"internalType": "uint256",
					"name": "ethReceived",
					"type": "uint256"
				},
				{
					"indexed": false,
					"internalType": "uint256",
					"name": "tokensIntoLiqudity",
					"type": "uint256"
				}
			],
			"name": "SwapAndLiquify",
			"type": "event"
		},
		{
			"anonymous": false,
			"inputs": [
				{
					"indexed": false,
					"internalType": "bool",
					"name": "enabled",
					"type": "bool"
				}
			],
			"name": "SwapAndLiquifyEnabledUpdated",
			"type": "event"
		},
		{
			"anonymous": false,
			"inputs": [
				{
					"indexed": false,
					"internalType": "uint256",
					"name": "amountIn",
					"type": "uint256"
				},
				{
					"indexed": false,
					"internalType": "address[]",
					"name": "path",
					"type": "address[]"
				}
			],
			"name": "SwapETHForTokens",
			"type": "event"
		},
		{
			"anonymous": false,
			"inputs": [
				{
					"indexed": false,
					"internalType": "uint256",
					"name": "amountIn",
					"type": "uint256"
				},
				{
					"indexed": false,
					"internalType": "address[]",
					"name": "path",
					"type": "address[]"
				}
			],
			"name": "SwapTokensForETH",
			"type": "event"
		},
		{
			"anonymous": false,
			"inputs": [
				{
					"indexed": true,
					"internalType": "address",
					"name": "from",
					"type": "address"
				},
				{
					"indexed": true,
					"internalType": "address",
					"name": "to",
					"type": "address"
				},
				{
					"indexed": false,
					"internalType": "uint256",
					"name": "value",
					"type": "uint256"
				}
			],
			"name": "Transfer",
			"type": "event"
		},
		{
			"anonymous": false,
			"inputs": [
				{
					"indexed": true,
					"internalType": "address",
					"name": "recipient",
					"type": "address"
				},
				{
					"indexed": false,
					"internalType": "uint256",
					"name": "amount",
					"type": "uint256"
				}
			],
			"name": "TransferFailed",
			"type": "event"
		},
		{
			"inputs": [],
			"name": "MAX_BURN_FEE",
			"outputs": [
				{
					"internalType": "uint256",
					"name": "",
					"type": "uint256"
				}
			],
			"stateMutability": "view",
			"type": "function"
		},
		{
			"inputs": [],
			"name": "MAX_FEE_INDIVIDUAL",
			"outputs": [
				{
					"internalType": "uint256",
					"name": "",
					"type": "uint256"
				}
			],
			"stateMutability": "view",
			"type": "function"
		},
		{
			"inputs": [],
			"name": "MAX_TOTAL_FEES",
			"outputs": [
				{
					"internalType": "uint256",
					"name": "",
					"type": "uint256"
				}
			],
			"stateMutability": "view",
			"type": "function"
		},
		{
			"inputs": [],
			"name": "MIN_COMBINED_LIQUIDITY_FEE",
			"outputs": [
				{
					"internalType": "uint256",
					"name": "",
					"type": "uint256"
				}
			],
			"stateMutability": "view",
			"type": "function"
		},
		{
			"inputs": [],
			"name": "_burnFee",
			"outputs": [
				{
					"internalType": "uint256",
					"name": "",
					"type": "uint256"
				}
			],
			"stateMutability": "view",
			"type": "function"
		},
		{
			"inputs": [],
			"name": "_charityFee",
			"outputs": [
				{
					"internalType": "uint256",
					"name": "",
					"type": "uint256"
				}
			],
			"stateMutability": "view",
			"type": "function"
		},
		{
			"inputs": [],
			"name": "_developerFee",
			"outputs": [
				{
					"internalType": "uint256",
					"name": "",
					"type": "uint256"
				}
			],
			"stateMutability": "view",
			"type": "function"
		},
		{
			"inputs": [],
			"name": "_liquidityPoolFee",
			"outputs": [
				{
					"internalType": "uint256",
					"name": "",
					"type": "uint256"
				}
			],
			"stateMutability": "view",
			"type": "function"
		},
		{
			"inputs": [],
			"name": "_marketingFee",
			"outputs": [
				{
					"internalType": "uint256",
					"name": "",
					"type": "uint256"
				}
			],
			"stateMutability": "view",
			"type": "function"
		},
		{
			"inputs": [],
			"name": "_maxTxAmount",
			"outputs": [
				{
					"internalType": "uint256",
					"name": "",
					"type": "uint256"
				}
			],
			"stateMutability": "view",
			"type": "function"
		},
		{
			"inputs": [],
			"name": "_reflectionFee",
			"outputs": [
				{
					"internalType": "uint256",
					"name": "",
					"type": "uint256"
				}
			],
			"stateMutability": "view",
			"type": "function"
		},
		{
			"inputs": [
				{
					"internalType": "address",
					"name": "owner",
					"type": "address"
				},
				{
					"internalType": "address",
					"name": "spender",
					"type": "address"
				}
			],
			"name": "allowance",
			"outputs": [
				{
					"internalType": "uint256",
					"name": "",
					"type": "uint256"
				}
			],
			"stateMutability": "view",
			"type": "function"
		},
		{
			"inputs": [
				{
					"internalType": "address",
					"name": "spender",
					"type": "address"
				},
				{
					"internalType": "uint256",
					"name": "amount",
					"type": "uint256"
				}
			],
			"name": "approve",
			"outputs": [
				{
					"internalType": "bool",
					"name": "",
					"type": "bool"
				}
			],
			"stateMutability": "nonpayable",
			"type": "function"
		},
		{
			"inputs": [
				{
					"internalType": "address",
					"name": "sender",
					"type": "address"
				}
			],
			"name": "balanceOf",
			"outputs": [
				{
					"internalType": "uint256",
					"name": "",
					"type": "uint256"
				}
			],
			"stateMutability": "view",
			"type": "function"
		},
		{
			"inputs": [
				{
					"internalType": "uint256",
					"name": "amount",
					"type": "uint256"
				}
			],
			"name": "burn",
			"outputs": [],
			"stateMutability": "nonpayable",
			"type": "function"
		},
		{
			"inputs": [
				{
					"internalType": "address",
					"name": "account",
					"type": "address"
				},
				{
					"internalType": "uint256",
					"name": "amount",
					"type": "uint256"
				}
			],
			"name": "burnFrom",
			"outputs": [],
			"stateMutability": "nonpayable",
			"type": "function"
		},
		{
			"inputs": [],
			"name": "charityAddress",
			"outputs": [
				{
					"internalType": "address payable",
					"name": "",
					"type": "address"
				}
			],
			"stateMutability": "view",
			"type": "function"
		},
		{
			"inputs": [],
			"name": "deadAddress",
			"outputs": [
				{
					"internalType": "address",
					"name": "",
					"type": "address"
				}
			],
			"stateMutability": "view",
			"type": "function"
		},
		{
			"inputs": [],
			"name": "decimals",
			"outputs": [
				{
					"internalType": "uint8",
					"name": "",
					"type": "uint8"
				}
			],
			"stateMutability": "view",
			"type": "function"
		},
		{
			"inputs": [
				{
					"internalType": "address",
					"name": "spender",
					"type": "address"
				},
				{
					"internalType": "uint256",
					"name": "subtractedValue",
					"type": "uint256"
				}
			],
			"name": "decreaseAllowance",
			"outputs": [
				{
					"internalType": "bool",
					"name": "",
					"type": "bool"
				}
			],
			"stateMutability": "nonpayable",
			"type": "function"
		},
		{
			"inputs": [],
			"name": "developerAddress",
			"outputs": [
				{
					"internalType": "address payable",
					"name": "",
					"type": "address"
				}
			],
			"stateMutability": "view",
			"type": "function"
		},
		{
			"inputs": [
				{
					"internalType": "address",
					"name": "account",
					"type": "address"
				}
			],
			"name": "excludeAccountFromReward",
			"outputs": [],
			"stateMutability": "nonpayable",
			"type": "function"
		},
		{
			"inputs": [
				{
					"internalType": "address",
					"name": "account",
					"type": "address"
				}
			],
			"name": "excludeFromFee",
			"outputs": [],
			"stateMutability": "nonpayable",
			"type": "function"
		},
		{
			"inputs": [
				{
					"internalType": "address",
					"name": "account",
					"type": "address"
				}
			],
			"name": "includeAccountinReward",
			"outputs": [],
			"stateMutability": "nonpayable",
			"type": "function"
		},
		{
			"inputs": [
				{
					"internalType": "address",
					"name": "account",
					"type": "address"
				}
			],
			"name": "includeInFee",
			"outputs": [],
			"stateMutability": "nonpayable",
			"type": "function"
		},
		{
			"inputs": [
				{
					"internalType": "address",
					"name": "spender",
					"type": "address"
				},
				{
					"internalType": "uint256",
					"name": "addedValue",
					"type": "uint256"
				}
			],
			"name": "increaseAllowance",
			"outputs": [
				{
					"internalType": "bool",
					"name": "",
					"type": "bool"
				}
			],
			"stateMutability": "nonpayable",
			"type": "function"
		},
		{
			"inputs": [
				{
					"internalType": "address",
					"name": "account",
					"type": "address"
				}
			],
			"name": "isExcluded",
			"outputs": [
				{
					"internalType": "bool",
					"name": "",
					"type": "bool"
				}
			],
			"stateMutability": "view",
			"type": "function"
		},
		{
			"inputs": [
				{
					"internalType": "address",
					"name": "account",
					"type": "address"
				}
			],
			"name": "isExcludedFromFee",
			"outputs": [
				{
					"internalType": "bool",
					"name": "",
					"type": "bool"
				}
			],
			"stateMutability": "view",
			"type": "function"
		},
		{
			"inputs": [],
			"name": "marketingAddress",
			"outputs": [
				{
					"internalType": "address payable",
					"name": "",
					"type": "address"
				}
			],
			"stateMutability": "view",
			"type": "function"
		},
		{
			"inputs": [],
			"name": "minimumTokensBeforeSwapAmount",
			"outputs": [
				{
					"internalType": "uint256",
					"name": "",
					"type": "uint256"
				}
			],
			"stateMutability": "view",
			"type": "function"
		},
		{
			"inputs": [],
			"name": "name",
			"outputs": [
				{
					"internalType": "string",
					"name": "",
					"type": "string"
				}
			],
			"stateMutability": "view",
			"type": "function"
		},
		{
			"inputs": [],
			"name": "owner",
			"outputs": [
				{
					"internalType": "address",
					"name": "",
					"type": "address"
				}
			],
			"stateMutability": "view",
			"type": "function"
		},
		{
			"inputs": [
				{
					"internalType": "bool",
					"name": "_presale",
					"type": "bool"
				}
			],
			"name": "presale",
			"outputs": [],
			"stateMutability": "nonpayable",
			"type": "function"
		},
		{
			"inputs": [],
			"name": "recoverETHfromContract",
			"outputs": [],
			"stateMutability": "nonpayable",
			"type": "function"
		},
		{
			"inputs": [
				{
					"internalType": "address",
					"name": "_tokenAddress",
					"type": "address"
				},
				{
					"internalType": "uint256",
					"name": "_amount",
					"type": "uint256"
				}
			],
			"name": "recoverTokensFromContract",
			"outputs": [],
			"stateMutability": "nonpayable",
			"type": "function"
		},
		{
			"inputs": [
				{
					"internalType": "uint256",
					"name": "tAmount",
					"type": "uint256"
				}
			],
			"name": "reflect",
			"outputs": [],
			"stateMutability": "nonpayable",
			"type": "function"
		},
		{
			"inputs": [
				{
					"internalType": "uint256",
					"name": "tAmount",
					"type": "uint256"
				},
				{
					"internalType": "bool",
					"name": "deductTransferFee",
					"type": "bool"
				}
			],
			"name": "reflectionFromToken",
			"outputs": [
				{
					"internalType": "uint256",
					"name": "",
					"type": "uint256"
				}
			],
			"stateMutability": "view",
			"type": "function"
		},
		{
			"inputs": [],
			"name": "renounceOwnership",
			"outputs": [],
			"stateMutability": "nonpayable",
			"type": "function"
		},
		{
			"inputs": [
				{
					"internalType": "uint256",
					"name": "burnFee_",
					"type": "uint256"
				}
			],
			"name": "setBurnFee",
			"outputs": [],
			"stateMutability": "nonpayable",
			"type": "function"
		},
		{
			"inputs": [
				{
					"internalType": "address",
					"name": "_charityAddress",
					"type": "address"
				}
			],
			"name": "setCharityAddress",
			"outputs": [],
			"stateMutability": "nonpayable",
			"type": "function"
		},
		{
			"inputs": [
				{
					"internalType": "uint256",
					"name": "charityFee_",
					"type": "uint256"
				}
			],
			"name": "setCharityFee",
			"outputs": [],
			"stateMutability": "nonpayable",
			"type": "function"
		},
		{
			"inputs": [
				{
					"internalType": "address",
					"name": "_developerAddress",
					"type": "address"
				}
			],
			"name": "setDeveloperAddress",
			"outputs": [],
			"stateMutability": "nonpayable",
			"type": "function"
		},
		{
			"inputs": [
				{
					"internalType": "uint256",
					"name": "developerFee_",
					"type": "uint256"
				}
			],
			"name": "setDeveloperFee",
			"outputs": [],
			"stateMutability": "nonpayable",
			"type": "function"
		},
		{
			"inputs": [
				{
					"internalType": "uint256",
					"name": "liquidityPoolFee_",
					"type": "uint256"
				}
			],
			"name": "setLiquidityPoolFee",
			"outputs": [],
			"stateMutability": "nonpayable",
			"type": "function"
		},
		{
			"inputs": [
				{
					"internalType": "address",
					"name": "_marketingAddress",
					"type": "address"
				}
			],
			"name": "setMarketingAddress",
			"outputs": [],
			"stateMutability": "nonpayable",
			"type": "function"
		},
		{
			"inputs": [
				{
					"internalType": "uint256",
					"name": "marketingFee_",
					"type": "uint256"
				}
			],
			"name": "setMarketingFee",
			"outputs": [],
			"stateMutability": "nonpayable",
			"type": "function"
		},
		{
			"inputs": [
				{
					"internalType": "uint256",
					"name": "maxTxAmount",
					"type": "uint256"
				}
			],
			"name": "setMaxTxAmount",
			"outputs": [],
			"stateMutability": "nonpayable",
			"type": "function"
		},
		{
			"inputs": [
				{
					"internalType": "uint256",
					"name": "newReflectionFee",
					"type": "uint256"
				}
			],
			"name": "setReflectionFee",
			"outputs": [],
			"stateMutability": "nonpayable",
			"type": "function"
		},
		{
			"inputs": [
				{
					"internalType": "bool",
					"name": "_enabled",
					"type": "bool"
				}
			],
			"name": "setSwapAndLiquifyEnabled",
			"outputs": [],
			"stateMutability": "nonpayable",
			"type": "function"
		},
		{
			"inputs": [],
			"name": "swapAndLiquifyEnabled",
			"outputs": [
				{
					"internalType": "bool",
					"name": "",
					"type": "bool"
				}
			],
			"stateMutability": "view",
			"type": "function"
		},
		{
			"inputs": [],
			"name": "symbol",
			"outputs": [
				{
					"internalType": "string",
					"name": "",
					"type": "string"
				}
			],
			"stateMutability": "view",
			"type": "function"
		},
		{
			"inputs": [],
			"name": "totalFeesRedistributed",
			"outputs": [
				{
					"internalType": "uint256",
					"name": "",
					"type": "uint256"
				}
			],
			"stateMutability": "view",
			"type": "function"
		},
		{
			"inputs": [],
			"name": "totalSupply",
			"outputs": [
				{
					"internalType": "uint256",
					"name": "",
					"type": "uint256"
				}
			],
			"stateMutability": "view",
			"type": "function"
		},
		{
			"inputs": [
				{
					"internalType": "address",
					"name": "recipient",
					"type": "address"
				},
				{
					"internalType": "uint256",
					"name": "amount",
					"type": "uint256"
				}
			],
			"name": "transfer",
			"outputs": [
				{
					"internalType": "bool",
					"name": "",
					"type": "bool"
				}
			],
			"stateMutability": "nonpayable",
			"type": "function"
		},
		{
			"inputs": [
				{
					"internalType": "address",
					"name": "sender",
					"type": "address"
				},
				{
					"internalType": "address",
					"name": "recipient",
					"type": "address"
				},
				{
					"internalType": "uint256",
					"name": "amount",
					"type": "uint256"
				}
			],
			"name": "transferFrom",
			"outputs": [
				{
					"internalType": "bool",
					"name": "",
					"type": "bool"
				}
			],
			"stateMutability": "nonpayable",
			"type": "function"
		},
		{
			"inputs": [
				{
					"internalType": "address",
					"name": "newOwner",
					"type": "address"
				}
			],
			"name": "transferOwnership",
			"outputs": [],
			"stateMutability": "nonpayable",
			"type": "function"
		},
		{
			"inputs": [],
			"name": "uniswapV2Pair",
			"outputs": [
				{
					"internalType": "address",
					"name": "",
					"type": "address"
				}
			],
			"stateMutability": "view",
			"type": "function"
		},
		{
			"inputs": [],
			"name": "uniswapV2Router",
			"outputs": [
				{
					"internalType": "contract IUniswapV2Router02",
					"name": "",
					"type": "address"
				}
			],
			"stateMutability": "view",
			"type": "function"
		},
		{
			"stateMutability": "payable",
			"type": "receive"
		}
	]
}