{
	"data": {
		"bytecode": {
			"linkReferences": {},
			"object": "60c0604052600b80546001600160a01b031990811673ed001ebb1a71dc6df6659c4e4edb070342fd4a1f17909155600c8054821673b5df28f0d138275c29536400c1452a816911b77a179055600d8054909116732c9bad149bef185d6b90daf9857aba8841f4dc841790556b033b2e3c9fd0803ce8000000600e819055610087905f196104dd565b610092905f19610510565b600f555f6010556001601155600160125560016013556001601455600160155560016016556001601755600160185560016019556001601a555f601b555f601c556003601d556003601e556a084595161401484a000000601f556a084595161401484a00000060205569152d02c7e14af68000006021556001602260016101000a81548160ff0219169083151502179055506040518060400160405280600a815260200169436f666679204465466960b01b81525060405180604001604052806005815260200164434f46464960d81b815250816003908161017491906105c1565b50600461018182826105c1565b50505061019a6101956103ae60201b60201c565b6103b2565b5f737a250d5630b4cf539739df2c5dacb4c659f2488d9050806001600160a01b031663c45a01556040518163ffffffff1660e01b8152600401602060405180830381865afa1580156101ee573d5f803e3d5ffd5b505050506040513d601f19601f820116820180604052508101906102129190610680565b6001600160a01b031663c9c6539630836001600160a01b031663ad5c46486040518163ffffffff1660e01b8152600401602060405180830381865afa15801561025d573d5f803e3d5ffd5b505050506040513d601f19601f820116820180604052508101906102819190610680565b6040516001600160e01b031960e085901b1681526001600160a01b039283166004820152911660248201526044016020604051808303815f875af11580156102cb573d5f803e3d5ffd5b505050506040513d601f19601f820116820180604052508101906102ef9190610680565b6001600160a01b0390811660a0528116608052600160085f6103196005546001600160a01b031690565b6001600160a01b03908116825260208083019390935260409182015f908120805495151560ff19968716179055600b54821681526008909352818320805485166001908117909155600c54821684528284208054861682179055600d5490911683528183208054851682179055308352912080549092161790556103a861039d3390565b600f54600e54610403565b506106c0565b3390565b600580546001600160a01b038381166001600160a01b0319831681179093556040519116919082907f8be0079c531659141344cd1fd0a4f28419497f9722a3daafe3b4186f6b6457e0905f90a35050565b6001600160a01b03831661045d5760405162461bcd60e51b815260206004820152601f60248201527f45524332303a206d696e7420746f20746865207a65726f206164647265737300604482015260640160405180910390fd5b6001600160a01b0383165f908152600660205260409020546104809083906106ad565b6001600160a01b0384165f818152600660205260408082209390935591519091907fddf252ad1be2c89b69c2b068fc378daa952ba7f163c4a11628f55a4df523b3ef906104d09085815260200190565b60405180910390a3505050565b5f826104f757634e487b7160e01b5f52601260045260245ffd5b500690565b634e487b7160e01b5f52601160045260245ffd5b81810381811115610523576105236104fc565b92915050565b634e487b7160e01b5f52604160045260245ffd5b600181811c9082168061055157607f821691505b60208210810361056f57634e487b7160e01b5f52602260045260245ffd5b50919050565b601f8211156105bc57805f5260205f20601f840160051c8101602085101561059a5750805b601f840160051c820191505b818110156105b9575f81556001016105a6565b50505b505050565b81516001600160401b038111156105da576105da610529565b6105ee816105e8845461053d565b84610575565b602080601f831160018114610621575f841561060a5750858301515b5f19600386901b1c1916600185901b178555610678565b5f85815260208120601f198616915b8281101561064f57888601518255948401946001909101908401610630565b508582101561066c57878501515f19600388901b60f8161c191681555b505060018460011b0185555b505050505050565b5f60208284031215610690575f80fd5b81516001600160a01b03811681146106a6575f80fd5b9392505050565b80820180821115610523576105236104fc565b60805160a05161383861070b5f395f818161059a01526124c801525f81816103df01528181612d1b01528181612dd201528181612e0e01528181612f4e0152612f7501526138385ff3fe60806040526004361061032a575f3560e01c8063715018a6116101a3578063c3a1ed48116100f2578063e547be6911610092578063ec28438a1161006d578063ec28438a14610966578063edc2fcfb14610985578063f2fde38b146109a4578063fdeb889f146109c3575f80fd5b8063e547be6914610909578063e6be4a7214610928578063ea2f0b3714610947575f80fd5b8063cba0e996116100cd578063cba0e9961461085b578063ce831ed514610892578063dcc345f2146108a6578063dd62ed3e146108c5575f80fd5b8063c3a1ed4814610809578063c49b9a801461081d578063caccd7f71461083c575f80fd5b806395d89b411161015d578063a9059cbb11610138578063a9059cbb14610797578063a94c8dd2146107b6578063afcf2fc4146107d5578063c0b0fda2146107f4575f80fd5b806395d89b4114610745578063a457c2d714610759578063a5ece94114610778575f80fd5b8063715018a6146106ac57806379cc6790146106c05780637d1db4a5146106df5780638a0623b4146106f45780638da5cb5b14610709578063906e9dd014610726575f80fd5b806339509351116102795780634a74bb02116102195780636049876e116101f45780636049876e14610630578063625e764c1461064f5780636c3172321461066e57806370a082311461068d575f80fd5b80634a74bb02146105bc5780634bf2c7c9146105da5780635342acb4146105f9575f80fd5b8063437823ec11610254578063437823ec146105365780634549b0391461055557806348de478e1461057457806349bd5a5e14610589575f80fd5b806339509351146104e357806340f8007a1461050257806342966c6814610517575f80fd5b806320c7c596116102e457806327c8f835116102bf57806327c8f8351461048a578063313ce5671461049f57806332035504146104ba5780633206b4aa146104ce575f80fd5b806320c7c5961461043757806322976e0d1461045657806323b872dd1461046b575f80fd5b8063053ab1821461033557806306fdde0314610356578063095ea7b3146103805780630c9be46d146103af5780631694505e146103ce57806318160ddd14610419575f80fd5b3661033157005b5f80fd5b348015610340575f80fd5b5061035461034f36600461344a565b6109e2565b005b348015610361575f80fd5b5061036a610acd565b6040516103779190613461565b60405180910390f35b34801561038b575f80fd5b5061039f61039a3660046134aa565b610b5d565b6040519015158152602001610377565b3480156103ba575f80fd5b506103546103c93660046134d4565b610b73565b3480156103d9575f80fd5b506104017f000000000000000000000000000000000000000000000000000000000000000081565b6040516001600160a01b039091168152602001610377565b348015610424575f80fd5b50600e545b604051908152602001610377565b348015610442575f80fd5b5061035461045136600461344a565b610c68565b348015610461575f80fd5b5061042960175481565b348015610476575f80fd5b5061039f6104853660046134ef565b610d6b565b348015610495575f80fd5b5061040161dead81565b3480156104aa575f80fd5b5060405160128152602001610377565b3480156104c5575f80fd5b50601054610429565b3480156104d9575f80fd5b5061042960135481565b3480156104ee575f80fd5b5061039f6104fd3660046134aa565b610e13565b34801561050d575f80fd5b50610429601b5481565b348015610522575f80fd5b5061035461053136600461344a565b610e4e565b348015610541575f80fd5b506103546105503660046134d4565b610e5b565b348015610560575f80fd5b5061042961056f36600461353a565b610ea8565b34801561057f575f80fd5b5061042960195481565b348015610594575f80fd5b506104017f000000000000000000000000000000000000000000000000000000000000000081565b3480156105c7575f80fd5b5060225461039f90610100900460ff1681565b3480156105e5575f80fd5b506103546105f436600461344a565b610f2e565b348015610604575f80fd5b5061039f6106133660046134d4565b6001600160a01b03165f9081526008602052604090205460ff1690565b34801561063b575f80fd5b5061035461064a3660046134d4565b610ffc565b34801561065a575f80fd5b5061035461066936600461344a565b6111be565b348015610679575f80fd5b5061035461068836600461344a565b6112b7565b348015610698575f80fd5b506104296106a73660046134d4565b6113b0565b3480156106b7575f80fd5b5061035461140c565b3480156106cb575f80fd5b506103546106da3660046134aa565b611441565b3480156106ea575f80fd5b50610429601f5481565b3480156106ff575f80fd5b5061042960155481565b348015610714575f80fd5b506005546001600160a01b0316610401565b348015610731575f80fd5b506103546107403660046134d4565b6114c6565b348015610750575f80fd5b5061036a6115b5565b348015610764575f80fd5b5061039f6107733660046134aa565b6115c4565b348015610783575f80fd5b50600b54610401906001600160a01b031681565b3480156107a2575f80fd5b5061039f6107b13660046134aa565b61165c565b3480156107c1575f80fd5b506103546107d036600461344a565b611668565b3480156107e0575f80fd5b50600d54610401906001600160a01b031681565b3480156107ff575f80fd5b5061042960115481565b348015610814575f80fd5b50610429600681565b348015610828575f80fd5b50610354610837366004613568565b611760565b348015610847575f80fd5b50600c54610401906001600160a01b031681565b348015610866575f80fd5b5061039f6108753660046134d4565b6001600160a01b03165f9081526009602052604090205460ff1690565b34801561089d575f80fd5b506103546117de565b3480156108b1575f80fd5b506103546108c03660046134d4565b611928565b3480156108d0575f80fd5b506104296108df366004613583565b6001600160a01b039182165f90815260016020908152604080832093909416825291909152205490565b348015610914575f80fd5b5061035461092336600461344a565b611a17565b348015610933575f80fd5b506103546109423660046134aa565b611ae5565b348015610952575f80fd5b506103546109613660046134d4565b611cb3565b348015610971575f80fd5b5061035461098036600461344a565b611cfd565b348015610990575f80fd5b5061035461099f366004613568565b611df6565b3480156109af575f80fd5b506103546109be3660046134d4565b611eba565b3480156109ce575f80fd5b506103546109dd3660046134d4565b611f52565b335f8181526009602052604090205460ff1615610a5b5760405162461bcd60e51b815260206004820152602c60248201527f4578636c75646564206164647265737365732063616e6e6f742063616c6c207460448201526b3434b990333ab731ba34b7b760a11b60648201526084015b60405180910390fd5b5f610a65836120f7565b5050506001600160a01b0383165f90815260066020526040902054909150610a8e9082906135c3565b6001600160a01b0383165f90815260066020526040902055600f54610ab49082906135c3565b600f55601054610ac59084906135d6565b601055505050565b606060038054610adc906135e9565b80601f0160208091040260200160405190810160405280929190818152602001828054610b08906135e9565b8015610b535780601f10610b2a57610100808354040283529160200191610b53565b820191905f5260205f20905b815481529060010190602001808311610b3657829003601f168201915b5050505050905090565b5f610b69338484612148565b5060015b92915050565b6005546001600160a01b03163314610b9d5760405162461bcd60e51b8152600401610a5290613621565b6001600160a01b038116610c065760405162461bcd60e51b815260206004820152602a60248201527f4368617269747920616464726573732063616e6e6f7420626520746865207a65604482015269726f206164647265737360b01b6064820152608401610a52565b600d80546001600160a01b038381166001600160a01b031983168117909355604080519190921680825260208201939093527fd824bede52134285982c2dbbfb23840eeda8d21c2ea774a50f74495d6147439291015b60405180910390a15050565b6005546001600160a01b03163314610c925760405162461bcd60e51b8152600401610a5290613621565b5f81601954601754601554601354601154610cad91906135d6565b610cb791906135d6565b610cc191906135d6565b610ccb91906135d6565b610cd591906135d6565b90506006811115610cf85760405162461bcd60e51b8152600401610a5290613656565b601b805490839055601954601754601554859291610d15916135d6565b610d1f91906135d6565b610d2991906135d6565b601d5560408051828152602081018590527fd3d6ff715a7f1ac2a5ed3fb8b1d5473a4d20852a8aac0e70546c851819e25bbc91015b60405180910390a1505050565b5f610d7784848461226b565b6001600160a01b0384165f90815260016020908152604080832033845290915290205482811015610dfb5760405162461bcd60e51b815260206004820152602860248201527f45524332303a207472616e7366657220616d6f756e74206578636565647320616044820152676c6c6f77616e636560c01b6064820152608401610a52565b610e088533858403612148565b506001949350505050565b335f8181526001602090815260408083206001600160a01b03871684529091528120549091610b69918590610e499086906135d6565b612148565b610e583382612572565b50565b6005546001600160a01b03163314610e855760405162461bcd60e51b8152600401610a5290613621565b6001600160a01b03165f908152600860205260409020805460ff19166001179055565b5f600e54831115610efb5760405162461bcd60e51b815260206004820152601f60248201527f416d6f756e74206d757374206265206c657373207468616e20737570706c79006044820152606401610a52565b81610f17575f610f0a846120f7565b50919350610b6d92505050565b5f610f21846120f7565b50909350610b6d92505050565b6005546001600160a01b03163314610f585760405162461bcd60e51b8152600401610a5290613621565b5f601b5460195460175460155460135486610f7391906135d6565b610f7d91906135d6565b610f8791906135d6565b610f9191906135d6565b610f9b91906135d6565b90506006811115610fbe5760405162461bcd60e51b8152600401610a5290613656565b601180549083905560408051828152602081018590527f78f1461296bad7bd716a7673aa3e659cc091c348a7ed4cfef7ce452c3052f2fb9101610d5e565b6005546001600160a01b031633146110265760405162461bcd60e51b8152600401610a5290613621565b6001600160a01b0381165f9081526009602052604090205460ff161561108e5760405162461bcd60e51b815260206004820152601b60248201527f4163636f756e7420697320616c7265616479206578636c7564656400000000006044820152606401610a52565b306001600160a01b038216036111025760405162461bcd60e51b815260206004820152603360248201527f436f6e747261637420616464726573732063616e6e6f74206265206578636c756044820152723232b210333937b6903932b33632b1ba34b7b760691b6064820152608401610a52565b6001600160a01b0381165f9081526006602052604090205415611159576001600160a01b0381165f9081526006602052604090205461114090612740565b6001600160a01b0382165f908152600760205260409020555b6001600160a01b03165f818152600960205260408120805460ff19166001908117909155600a805491820181559091527fc65a7bb8d6351c1cf70c95a316cc6a92839c986682d98bc35f958f4883f9d2a80180546001600160a01b0319169091179055565b6005546001600160a01b031633146111e85760405162461bcd60e51b8152600401610a5290613621565b5f601b546019548360155460135460115461120391906135d6565b61120d91906135d6565b61121791906135d6565b61122191906135d6565b61122b91906135d6565b9050600681111561124e5760405162461bcd60e51b8152600401610a5290613656565b6017805490839055601b5460195460155461126a9086906135d6565b61127491906135d6565b61127e91906135d6565b601d5560408051828152602081018590527f043102402b1ef1ea68f92a353de80186b92415038542af2e8d748f8d6c5250329101610d5e565b6005546001600160a01b031633146112e15760405162461bcd60e51b8152600401610a5290613621565b5f601b54826017546015546013546011546112fc91906135d6565b61130691906135d6565b61131091906135d6565b61131a91906135d6565b61132491906135d6565b905060068111156113475760405162461bcd60e51b8152600401610a5290613656565b6019805490839055601b546017546015548591611363916135d6565b61136d91906135d6565b61137791906135d6565b601d5560408051828152602081018590527fc9d63693638bfc625de9be66171e4bf76ad4d474ac6bef7cd4c766747cd0075f9101610d5e565b6001600160a01b0381165f9081526009602052604081205460ff16156113eb57506001600160a01b03165f9081526007602052604090205490565b6001600160a01b0382165f90815260066020526040902054610b6d90612740565b6005546001600160a01b031633146114365760405162461bcd60e51b8152600401610a5290613621565b61143f5f6127c2565b565b5f61144c83336108df565b9050818110156114aa5760405162461bcd60e51b8152602060048201526024808201527f45524332303a206275726e20616d6f756e74206578636565647320616c6c6f77604482015263616e636560e01b6064820152608401610a52565b6114b78333848403612148565b6114c18383612572565b505050565b6005546001600160a01b031633146114f05760405162461bcd60e51b8152600401610a5290613621565b6001600160a01b03811661155b5760405162461bcd60e51b815260206004820152602c60248201527f4d61726b6574696e6720616464726573732063616e6e6f74206265207468652060448201526b7a65726f206164647265737360a01b6064820152608401610a52565b600b80546001600160a01b038381166001600160a01b031983168117909355604080519190921680825260208201939093527fa8efc72ed34f90017df79620d1972d42b8e3b17eb0077fc5fc46cbf1a19ed9a99101610c5c565b606060048054610adc906135e9565b335f9081526001602090815260408083206001600160a01b0386168452909152812054828110156116455760405162461bcd60e51b815260206004820152602560248201527f45524332303a2064656372656173656420616c6c6f77616e63652062656c6f77604482015264207a65726f60d81b6064820152608401610a52565b6116523385858403612148565b5060019392505050565b5f610b6933848461226b565b6005546001600160a01b031633146116925760405162461bcd60e51b8152600401610a5290613621565b5f601b54601954601754846013546011546116ad91906135d6565b6116b791906135d6565b6116c191906135d6565b6116cb91906135d6565b6116d591906135d6565b905060068111156116f85760405162461bcd60e51b8152600401610a5290613656565b6015805490839055601b5460195460175461171390866135d6565b61171d91906135d6565b61172791906135d6565b601d5560408051828152602081018590527fd72bb987241d30efe97862fae5c01605397a36024557bbae8ebedec081678bc29101610d5e565b6005546001600160a01b0316331461178a5760405162461bcd60e51b8152600401610a5290613621565b602280548215156101000261ff00199091161790556040517f53726dfcaf90650aa7eb35524f4d3220f07413c8d6cb404cc8c18bf5591bc159906117d390831515815260200190565b60405180910390a150565b6005546001600160a01b031633146118085760405162461bcd60e51b8152600401610a5290613621565b600c5460405147915f916001600160a01b039091169083908381818185875af1925050503d805f8114611856576040519150601f19603f3d011682016040523d82523d5f602084013e61185b565b606091505b505090508061189e5760405162461bcd60e51b815260206004820152600f60248201526e151c985b9cd9995c8819985a5b1959608a1b6044820152606401610a52565b600c5460408051818152602e918101919091527f57652068617665207265636f7665726564207468652073746f636b204554482060608201526d333937b69031b7b73a3930b1ba1760911b60808201526001600160a01b0390911660208201527f025dbd6ad989fe1a64db7dc049e29723ff9d35a97d84ae9aab96196f00ec1a009060a001610c5c565b6005546001600160a01b031633146119525760405162461bcd60e51b8152600401610a5290613621565b6001600160a01b0381166119bd5760405162461bcd60e51b815260206004820152602c60248201527f446576656c6f70657220616464726573732063616e6e6f74206265207468652060448201526b7a65726f206164647265737360a01b6064820152608401610a52565b600c80546001600160a01b038381166001600160a01b031983168117909355604080519190921680825260208201939093527f9a8fce0f201607a626cc555ef244d8ed346d879d2141b2964c3a955650554ae09101610c5c565b6005546001600160a01b03163314611a415760405162461bcd60e51b8152600401610a5290613621565b5f601b5460195460175460155485601154611a5c91906135d6565b611a6691906135d6565b611a7091906135d6565b611a7a91906135d6565b611a8491906135d6565b90506006811115611aa75760405162461bcd60e51b8152600401610a5290613656565b601380549083905560408051828152602081018590527f2c52ca41e4d19e67555be53873512bb32ca77e9e6d56b69361d6ac621a8834d19101610d5e565b6005546001600160a01b03163314611b0f5760405162461bcd60e51b8152600401610a5290613621565b306001600160a01b03831603611b865760405162461bcd60e51b815260206004820152603660248201527f4f776e65722063616e277420636c61696d20636f6e747261637427732062616c604482015275616e6365206f6620697473206f776e20746f6b656e7360501b6064820152608401610a52565b600c5460405163a9059cbb60e01b81526001600160a01b039182166004820152602481018390525f9184169063a9059cbb906044016020604051808303815f875af1158015611bd7573d5f803e3d5ffd5b505050506040513d601f19601f82011682018060405250810190611bfb919061368d565b905080611c3c5760405162461bcd60e51b815260206004820152600f60248201526e151c985b9cd9995c8819985a5b1959608a1b6044820152606401610a52565b604080518181526027918101919091527f57652068617665207265636f766572656420746f6b656e732066726f6d20636f606082015266373a3930b1ba1d60c91b6080820152602081018390527fdd970dd9b5bfe707922155b058a407655cb18288b807e2216442bca8ad83d6b59060a001610d5e565b6005546001600160a01b03163314611cdd5760405162461bcd60e51b8152600401610a5290613621565b6001600160a01b03165f908152600860205260409020805460ff19169055565b6005546001600160a01b03163314611d275760405162461bcd60e51b8152600401610a5290613621565b6103e8600e546001611d3991906136a8565b611d4391906136bf565b811015611db85760405162461bcd60e51b815260206004820152603860248201527f4d61785478416d6f756e742073686f756c64206265206174206c65617374203060448201527f2e3125206f662074686520746f74616c20737570706c792e00000000000000006064820152608401610a52565b601f80549082905560408051828152602081018490527fadcf01123294f8514884e924e20eb4f3032288087368896a17c71f09668247c89101610c5c565b6005546001600160a01b03163314611e205760405162461bcd60e51b8152600401610a5290613621565b8015611e4857611e2f5f611760565b611e37612813565b601f54602055600e54601f55611e88565b611e526001611760565b611e81601e54601d55601654601555601254601155601454601355601854601755601a54601955601c54601b55565b602054601f555b60405181151581527f754db841cd0ba8b9d7311dc4b5c8cd44b1ff98bcb4e1d8d9cab86566bce3a1fa906020016117d3565b6005546001600160a01b03163314611ee45760405162461bcd60e51b8152600401610a5290613621565b6001600160a01b038116611f495760405162461bcd60e51b815260206004820152602660248201527f4f776e61626c653a206e6577206f776e657220697320746865207a65726f206160448201526564647265737360d01b6064820152608401610a52565b610e58816127c2565b6005546001600160a01b03163314611f7c5760405162461bcd60e51b8152600401610a5290613621565b6001600160a01b0381165f9081526009602052604090205460ff16611fe35760405162461bcd60e51b815260206004820152601b60248201527f4163636f756e7420697320616c726561647920696e636c7564656400000000006044820152606401610a52565b5f5b600a548110156120f357816001600160a01b0316600a828154811061200c5761200c6136de565b5f918252602090912001546001600160a01b0316036120eb57600a8054612035906001906135c3565b81548110612045576120456136de565b5f91825260209091200154600a80546001600160a01b039092169183908110612070576120706136de565b5f91825260208083209190910180546001600160a01b0319166001600160a01b039485161790559184168152600782526040808220829055600990925220805460ff19169055600a8054806120c7576120c76136f2565b5f8281526020902081015f1990810180546001600160a01b03191690550190555050565b600101611fe5565b5050565b5f805f805f6121058661285e565b90505f61211282886135c3565b90505f61211d61289e565b90505f61212a82846136a8565b90505f612137838b6136a8565b9a9199509297509095509350505050565b6001600160a01b0383166121aa5760405162461bcd60e51b8152602060048201526024808201527f45524332303a20617070726f76652066726f6d20746865207a65726f206164646044820152637265737360e01b6064820152608401610a52565b6001600160a01b03821661220b5760405162461bcd60e51b815260206004820152602260248201527f45524332303a20617070726f766520746f20746865207a65726f206164647265604482015261737360f01b6064820152608401610a52565b6001600160a01b038381165f8181526001602090815260408083209487168084529482529182902085905590518481527f8c5be1e5ebec7d5bd14f71427d1e84f3dd0314c0f7b2291e5b200ac8c7c3b925910160405180910390a3505050565b6001600160a01b0383166122cf5760405162461bcd60e51b815260206004820152602560248201527f45524332303a207472616e736665722066726f6d20746865207a65726f206164604482015264647265737360d81b6064820152608401610a52565b6001600160a01b0382166123315760405162461bcd60e51b815260206004820152602360248201527f45524332303a207472616e7366657220746f20746865207a65726f206164647260448201526265737360e81b6064820152608401610a52565b5f81116123925760405162461bcd60e51b815260206004820152602960248201527f5472616e7366657220616d6f756e74206d7573742062652067726561746572206044820152687468616e207a65726f60b81b6064820152608401610a52565b5f61239c846113b0565b9050818110156123fd5760405162461bcd60e51b815260206004820152602660248201527f45524332303a207472616e7366657220616d6f756e7420657863656564732062604482015265616c616e636560d01b6064820152608401610a52565b6005546001600160a01b0385811691161480159061242957506005546001600160a01b03848116911614155b1561249157601f548211156124915760405162461bcd60e51b815260206004820152602860248201527f5472616e7366657220616d6f756e74206578636565647320746865206d6178546044820152673c20b6b7bab73a1760c11b6064820152608401610a52565b5f61249b306113b0565b6021546022549192508210159060ff161580156124bf5750602254610100900460ff165b80156124fc57507f00000000000000000000000000000000000000000000000000000000000000006001600160a01b0316856001600160a01b0316145b15612515578015612515576021549150612515826128bf565b6001600160a01b0386165f9081526008602052604090205460019060ff168061255557506001600160a01b0386165f9081526008602052604090205460ff165b1561255d57505f5b61256987878784612b04565b50505050505050565b6001600160a01b0382166125d25760405162461bcd60e51b815260206004820152602160248201527f45524332303a206275726e2066726f6d20746865207a65726f206164647265736044820152607360f81b6064820152608401610a52565b5f6125dc836113b0565b9050818110156126395760405162461bcd60e51b815260206004820152602260248201527f45524332303a206275726e20616d6f756e7420657863656564732062616c616e604482015261636560f01b6064820152608401610a52565b5f61264261289e565b90505f61264f82856136a8565b6001600160a01b0386165f9081526009602052604090205490915060ff16156126ae576001600160a01b0385165f908152600760205260409020546126959085906135c3565b6001600160a01b0386165f908152600760205260409020555b6001600160a01b0385165f908152600660205260409020546126d19082906135c3565b6001600160a01b0386165f90815260066020526040902055600e546126f79085906135c3565b600e55600f546127089082906135c3565b600f556040518481525f906001600160a01b038716905f805160206137e3833981519152906020015b60405180910390a35050505050565b5f600f548211156127a65760405162461bcd60e51b815260206004820152602a60248201527f416d6f756e74206d757374206265206c657373207468616e20746f74616c207260448201526965666c656374696f6e7360b01b6064820152608401610a52565b5f6127af61289e565b90506127bb81846136bf565b9392505050565b600580546001600160a01b038381166001600160a01b0319831681179093556040519116919082907f8be0079c531659141344cd1fd0a4f28419497f9722a3daafe3b4186f6b6457e0905f90a35050565b601d8054601e556015805460165560118054601255601380546014556017805460185560198054601a55601b8054601c555f9687905594869055928590559084905583905582905555565b5f80601154601354601d5461287391906135d6565b61287d91906135d6565b90505f606461288c83866136a8565b61289691906136bf565b949350505050565b5f805f6128a9612b56565b90925090506128b881836136bf565b9250505090565b6022805460ff19166001179055601d5415612af757601d5460155447915f916128e890856136a8565b6128f291906136bf565b90505f6129006002836136bf565b90505f61290d82846135c3565b905061292161291c82876135c3565b612cc6565b5f61292c85476135c3565b600b5460155491925061299c916001600160a01b039091169060029061295390600a6136a8565b61295d91906136bf565b601d5461296b90600a6136a8565b61297591906135c3565b60175461298390600a6136a8565b61298d90856136a8565b61299791906136bf565b612ea9565b600c546015546129ee916001600160a01b0316906002906129be90600a6136a8565b6129c891906136bf565b601d546129d690600a6136a8565b6129e091906135c3565b60195461298390600a6136a8565b600d54601554612a40916001600160a01b031690600290612a1090600a6136a8565b612a1a91906136bf565b601d54612a2890600a6136a8565b612a3291906135c3565b601b5461298390600a6136a8565b5f6002601554600a612a5291906136a8565b612a5c91906136bf565b601d54612a6a90600a6136a8565b612a7491906135c3565b6002601554600a612a8591906136a8565b612a8f91906136bf565b612a9990846136a8565b612aa391906136bf565b9050612aaf8382612f48565b60408051858152602081018390529081018490527f17bbfb9a6069321b6ded73bd96327c9e6b7212a5cd51ff219cd61370acafb5619060600160405180910390a15050505050505b506022805460ff19169055565b80612b1157612b11612813565b612b1c84848461304b565b80612b5057612b50601e54601d55601654601555601254601155601454601355601854601755601a54601955601c54601b55565b50505050565b600f54600e545f918291825b600a54811015612c95578260065f600a8481548110612b8357612b836136de565b5f9182526020808320909101546001600160a01b031683528201929092526040019020541180612beb57508160075f600a8481548110612bc557612bc56136de565b5f9182526020808320909101546001600160a01b03168352820192909252604001902054115b15612c0157600f54600e54945094505050509091565b60065f600a8381548110612c1757612c176136de565b5f9182526020808320909101546001600160a01b03168352820192909252604001902054612c4590846135c3565b925060075f600a8381548110612c5d57612c5d6136de565b5f9182526020808320909101546001600160a01b03168352820192909252604001902054612c8b90836135c3565b9150600101612b62565b50600e54600f54612ca691906136bf565b821015612cbd57600f54600e549350935050509091565b90939092509050565b6040805160028082526060820183525f9260208301908036833701905050905030815f81518110612cf957612cf96136de565b60200260200101906001600160a01b031690816001600160a01b0316815250507f00000000000000000000000000000000000000000000000000000000000000006001600160a01b031663ad5c46486040518163ffffffff1660e01b8152600401602060405180830381865afa158015612d75573d5f803e3d5ffd5b505050506040513d601f19601f82011682018060405250810190612d999190613706565b81600181518110612dac57612dac6136de565b60200260200101906001600160a01b031690816001600160a01b031681525050612df7307f000000000000000000000000000000000000000000000000000000000000000084612148565b60405163791ac94760e01b81526001600160a01b037f0000000000000000000000000000000000000000000000000000000000000000169063791ac94790612e4b9085905f90869030904290600401613764565b5f604051808303815f87803b158015612e62575f80fd5b505af1158015612e74573d5f803e3d5ffd5b505050507f32cde87eb454f3a0b875ab23547023107cfad454363ec88ba5695e2c24aa52a78282604051610c5c92919061379f565b5f826001600160a01b0316826040515f6040518083038185875af1925050503d805f8114612ef2576040519150601f19603f3d011682016040523d82523d5f602084013e612ef7565b606091505b50509050806114c157826001600160a01b03167f1c43b9761b3fba5321ca8212bfc231945f668ccc0c446f333999eea9ce8fda8183604051612f3b91815260200190565b60405180910390a2505050565b612f73307f000000000000000000000000000000000000000000000000000000000000000084612148565b7f00000000000000000000000000000000000000000000000000000000000000006001600160a01b031663f305d7198230855f80612fb96005546001600160a01b031690565b60405160e088901b6001600160e01b03191681526001600160a01b03958616600482015260248101949094526044840192909252606483015290911660848201524260a482015260c40160606040518083038185885af115801561301f573d5f803e3d5ffd5b50505050506040513d601f19601f8201168201806040525081019061304491906137b7565b5050505050565b5f805f80613058856120f7565b6001600160a01b038b165f90815260066020526040902054939750919550935091506130859085906135c3565b6001600160a01b038089165f9081526006602052604080822093909355908816815220546130b49084906135d6565b6001600160a01b038088165f90815260066020908152604080832094909455918a1681526009909152205460ff16801561310657506001600160a01b0386165f9081526009602052604090205460ff16155b1561314b576001600160a01b0387165f9081526007602052604090205461312e9086906135c3565b6001600160a01b0388165f9081526007602052604090205561327d565b6001600160a01b0387165f9081526009602052604090205460ff1615801561318a57506001600160a01b0386165f9081526009602052604090205460ff165b156131cf576001600160a01b0386165f908152600760205260409020546131b29083906135d6565b6001600160a01b0387165f9081526007602052604090205561327d565b6001600160a01b0387165f9081526009602052604090205460ff16801561320d57506001600160a01b0386165f9081526009602052604090205460ff165b1561327d576001600160a01b0387165f908152600760205260409020546132359086906135c3565b6001600160a01b038089165f9081526007602052604080822093909355908816815220546132649083906135d6565b6001600160a01b0387165f908152600760205260409020555b61328785826132e4565b613292878683613336565b6132a1878683601d54306133b2565b856001600160a01b0316876001600160a01b03165f805160206137e3833981519152846040516132d391815260200190565b60405180910390a350505050505050565b5f6064601354846132f591906136a8565b6132ff91906136bf565b90505f61330c83836136a8565b905080600f5461331c91906135c3565b600f5560105461332d9083906135d6565b60105550505050565b5f60646011548461334791906136a8565b61335191906136bf565b90508015612b50575f61336483836136a8565b905081600e5461337491906135c3565b600e55600f546133859082906135c3565b600f556040518281525f906001600160a01b038716905f805160206137e383398151915290602001612731565b5f60646133bf84876136a8565b6133c991906136bf565b90508015613442575f6133dc85836136a8565b6001600160a01b0384165f908152600660205260409020549091506134029082906135d6565b6001600160a01b038085165f8181526006602052604090819020939093559151908916905f805160206137e3833981519152906132d39086815260200190565b505050505050565b5f6020828403121561345a575f80fd5b5035919050565b602081525f82518060208401528060208501604085015e5f604082850101526040601f19601f83011684010191505092915050565b6001600160a01b0381168114610e58575f80fd5b5f80604083850312156134bb575f80fd5b82356134c681613496565b946020939093013593505050565b5f602082840312156134e4575f80fd5b81356127bb81613496565b5f805f60608486031215613501575f80fd5b833561350c81613496565b9250602084013561351c81613496565b929592945050506040919091013590565b8015158114610e58575f80fd5b5f806040838503121561354b575f80fd5b82359150602083013561355d8161352d565b809150509250929050565b5f60208284031215613578575f80fd5b81356127bb8161352d565b5f8060408385031215613594575f80fd5b823561359f81613496565b9150602083013561355d81613496565b634e487b7160e01b5f52601160045260245ffd5b81810381811115610b6d57610b6d6135af565b80820180821115610b6d57610b6d6135af565b600181811c908216806135fd57607f821691505b60208210810361361b57634e487b7160e01b5f52602260045260245ffd5b50919050565b6020808252818101527f4f776e61626c653a2063616c6c6572206973206e6f7420746865206f776e6572604082015260600190565b6020808252601f908201527f546f74616c20666565732065786365656420746865203625206c696d69742e00604082015260600190565b5f6020828403121561369d575f80fd5b81516127bb8161352d565b8082028115828204841417610b6d57610b6d6135af565b5f826136d957634e487b7160e01b5f52601260045260245ffd5b500490565b634e487b7160e01b5f52603260045260245ffd5b634e487b7160e01b5f52603160045260245ffd5b5f60208284031215613716575f80fd5b81516127bb81613496565b5f815180845260208085019450602084015f5b838110156137595781516001600160a01b031687529582019590820190600101613734565b509495945050505050565b85815284602082015260a060408201525f61378260a0830186613721565b6001600160a01b0394909416606083015250608001529392505050565b828152604060208201525f6128966040830184613721565b5f805f606084860312156137c9575f80fd5b835192506020840151915060408401519050925092509256feddf252ad1be2c89b69c2b068fc378daa952ba7f163c4a11628f55a4df523b3efa26469706673582212209845412a25170deead585acd3e57ee49215b4734fdba4144f32b7d13c7773f2b64736f6c63430008190033",
			"opcodes": "PUSH1 0xC0 PUSH1 0x40 MSTORE PUSH1 0xB DUP1 SLOAD PUSH1 0x1 PUSH1 0x1 PUSH1 0xA0 SHL SUB NOT SWAP1 DUP2 AND PUSH20 0xED001EBB1A71DC6DF6659C4E4EDB070342FD4A1F OR SWAP1 SWAP2 SSTORE PUSH1 0xC DUP1 SLOAD DUP3 AND PUSH20 0xB5DF28F0D138275C29536400C1452A816911B77A OR SWAP1 SSTORE PUSH1 0xD DUP1 SLOAD SWAP1 SWAP2 AND PUSH20 0x2C9BAD149BEF185D6B90DAF9857ABA8841F4DC84 OR SWAP1 SSTORE PUSH12 0x33B2E3C9FD0803CE8000000 PUSH1 0xE DUP2 SWAP1 SSTORE PUSH2 0x87 SWAP1 PUSH0 NOT PUSH2 0x4DD JUMP JUMPDEST PUSH2 0x92 SWAP1 PUSH0 NOT PUSH2 0x510 JUMP JUMPDEST PUSH1 0xF SSTORE PUSH0 PUSH1 0x10 SSTORE PUSH1 0x1 PUSH1 0x11 SSTORE PUSH1 0x1 PUSH1 0x12 SSTORE PUSH1 0x1 PUSH1 0x13 SSTORE PUSH1 0x1 PUSH1 0x14 SSTORE PUSH1 0x1 PUSH1 0x15 SSTORE PUSH1 0x1 PUSH1 0x16 SSTORE PUSH1 0x1 PUSH1 0x17 SSTORE PUSH1 0x1 PUSH1 0x18 SSTORE PUSH1 0x1 PUSH1 0x19 SSTORE PUSH1 0x1 PUSH1 0x1A SSTORE PUSH0 PUSH1 0x1B SSTORE PUSH0 PUSH1 0x1C SSTORE PUSH1 0x3 PUSH1 0x1D SSTORE PUSH1 0x3 PUSH1 0x1E SSTORE PUSH11 0x84595161401484A000000 PUSH1 0x1F SSTORE PUSH11 0x84595161401484A000000 PUSH1 0x20 SSTORE PUSH10 0x152D02C7E14AF6800000 PUSH1 0x21 SSTORE PUSH1 0x1 PUSH1 0x22 PUSH1 0x1 PUSH2 0x100 EXP DUP2 SLOAD DUP2 PUSH1 0xFF MUL NOT AND SWAP1 DUP4 ISZERO ISZERO MUL OR SWAP1 SSTORE POP PUSH1 0x40 MLOAD DUP1 PUSH1 0x40 ADD PUSH1 0x40 MSTORE DUP1 PUSH1 0xA DUP2 MSTORE PUSH1 0x20 ADD PUSH10 0x436F6666792044654669 PUSH1 0xB0 SHL DUP2 MSTORE POP PUSH1 0x40 MLOAD DUP1 PUSH1 0x40 ADD PUSH1 0x40 MSTORE DUP1 PUSH1 0x5 DUP2 MSTORE PUSH1 0x20 ADD PUSH5 0x434F464649 PUSH1 0xD8 SHL DUP2 MSTORE POP DUP2 PUSH1 0x3 SWAP1 DUP2 PUSH2 0x174 SWAP2 SWAP1 PUSH2 0x5C1 JUMP JUMPDEST POP PUSH1 0x4 PUSH2 0x181 DUP3 DUP3 PUSH2 0x5C1 JUMP JUMPDEST POP POP POP PUSH2 0x19A PUSH2 0x195 PUSH2 0x3AE PUSH1 0x20 SHL PUSH1 0x20 SHR JUMP JUMPDEST PUSH2 0x3B2 JUMP JUMPDEST PUSH0 PUSH20 0x7A250D5630B4CF539739DF2C5DACB4C659F2488D SWAP1 POP DUP1 PUSH1 0x1 PUSH1 0x1 PUSH1 0xA0 SHL SUB AND PUSH4 0xC45A0155 PUSH1 0x40 MLOAD DUP2 PUSH4 0xFFFFFFFF AND PUSH1 0xE0 SHL DUP2 MSTORE PUSH1 0x4 ADD PUSH1 0x20 PUSH1 0x40 MLOAD DUP1 DUP4 SUB DUP2 DUP7 GAS STATICCALL ISZERO DUP1 ISZERO PUSH2 0x1EE JUMPI RETURNDATASIZE PUSH0 DUP1 RETURNDATACOPY RETURNDATASIZE PUSH0 REVERT JUMPDEST POP POP POP POP PUSH1 0x40 MLOAD RETURNDATASIZE PUSH1 0x1F NOT PUSH1 0x1F DUP3 ADD AND DUP3 ADD DUP1 PUSH1 0x40 MSTORE POP DUP2 ADD SWAP1 PUSH2 0x212 SWAP2 SWAP1 PUSH2 0x680 JUMP JUMPDEST PUSH1 0x1 PUSH1 0x1 PUSH1 0xA0 SHL SUB AND PUSH4 0xC9C65396 ADDRESS DUP4 PUSH1 0x1 PUSH1 0x1 PUSH1 0xA0 SHL SUB AND PUSH4 0xAD5C4648 PUSH1 0x40 MLOAD DUP2 PUSH4 0xFFFFFFFF AND PUSH1 0xE0 SHL DUP2 MSTORE PUSH1 0x4 ADD PUSH1 0x20 PUSH1 0x40 MLOAD DUP1 DUP4 SUB DUP2 DUP7 GAS STATICCALL ISZERO DUP1 ISZERO PUSH2 0x25D JUMPI RETURNDATASIZE PUSH0 DUP1 RETURNDATACOPY RETURNDATASIZE PUSH0 REVERT JUMPDEST POP POP POP POP PUSH1 0x40 MLOAD RETURNDATASIZE PUSH1 0x1F NOT PUSH1 0x1F DUP3 ADD AND DUP3 ADD DUP1 PUSH1 0x40 MSTORE POP DUP2 ADD SWAP1 PUSH2 0x281 SWAP2 SWAP1 PUSH2 0x680 JUMP JUMPDEST PUSH1 0x40 MLOAD PUSH1 0x1 PUSH1 0x1 PUSH1 0xE0 SHL SUB NOT PUSH1 0xE0 DUP6 SWAP1 SHL AND DUP2 MSTORE PUSH1 0x1 PUSH1 0x1 PUSH1 0xA0 SHL SUB SWAP3 DUP4 AND PUSH1 0x4 DUP3 ADD MSTORE SWAP2 AND PUSH1 0x24 DUP3 ADD MSTORE PUSH1 0x44 ADD PUSH1 0x20 PUSH1 0x40 MLOAD DUP1 DUP4 SUB DUP2 PUSH0 DUP8 GAS CALL ISZERO DUP1 ISZERO PUSH2 0x2CB JUMPI RETURNDATASIZE PUSH0 DUP1 RETURNDATACOPY RETURNDATASIZE PUSH0 REVERT JUMPDEST POP POP POP POP PUSH1 0x40 MLOAD RETURNDATASIZE PUSH1 0x1F NOT PUSH1 0x1F DUP3 ADD AND DUP3 ADD DUP1 PUSH1 0x40 MSTORE POP DUP2 ADD SWAP1 PUSH2 0x2EF SWAP2 SWAP1 PUSH2 0x680 JUMP JUMPDEST PUSH1 0x1 PUSH1 0x1 PUSH1 0xA0 SHL SUB SWAP1 DUP2 AND PUSH1 0xA0 MSTORE DUP2 AND PUSH1 0x80 MSTORE PUSH1 0x1 PUSH1 0x8 PUSH0 PUSH2 0x319 PUSH1 0x5 SLOAD PUSH1 0x1 PUSH1 0x1 PUSH1 0xA0 SHL SUB AND SWAP1 JUMP JUMPDEST PUSH1 0x1 PUSH1 0x1 PUSH1 0xA0 SHL SUB SWAP1 DUP2 AND DUP3 MSTORE PUSH1 0x20 DUP1 DUP4 ADD SWAP4 SWAP1 SWAP4 MSTORE PUSH1 0x40 SWAP2 DUP3 ADD PUSH0 SWAP1 DUP2 KECCAK256 DUP1 SLOAD SWAP6 ISZERO ISZERO PUSH1 0xFF NOT SWAP7 DUP8 AND OR SWAP1 SSTORE PUSH1 0xB SLOAD DUP3 AND DUP2 MSTORE PUSH1 0x8 SWAP1 SWAP4 MSTORE DUP2 DUP4 KECCAK256 DUP1 SLOAD DUP6 AND PUSH1 0x1 SWAP1 DUP2 OR SWAP1 SWAP2 SSTORE PUSH1 0xC SLOAD DUP3 AND DUP5 MSTORE DUP3 DUP5 KECCAK256 DUP1 SLOAD DUP7 AND DUP3 OR SWAP1 SSTORE PUSH1 0xD SLOAD SWAP1 SWAP2 AND DUP4 MSTORE DUP2 DUP4 KECCAK256 DUP1 SLOAD DUP6 AND DUP3 OR SWAP1 SSTORE ADDRESS DUP4 MSTORE SWAP2 KECCAK256 DUP1 SLOAD SWAP1 SWAP3 AND OR SWAP1 SSTORE PUSH2 0x3A8 PUSH2 0x39D CALLER SWAP1 JUMP JUMPDEST PUSH1 0xF SLOAD PUSH1 0xE SLOAD PUSH2 0x403 JUMP JUMPDEST POP PUSH2 0x6C0 JUMP JUMPDEST CALLER SWAP1 JUMP JUMPDEST PUSH1 0x5 DUP1 SLOAD PUSH1 0x1 PUSH1 0x1 PUSH1 0xA0 SHL SUB DUP4 DUP2 AND PUSH1 0x1 PUSH1 0x1 PUSH1 0xA0 SHL SUB NOT DUP4 AND DUP2 OR SWAP1 SWAP4 SSTORE PUSH1 0x40 MLOAD SWAP2 AND SWAP2 SWAP1 DUP3 SWAP1 PUSH32 0x8BE0079C531659141344CD1FD0A4F28419497F9722A3DAAFE3B4186F6B6457E0 SWAP1 PUSH0 SWAP1 LOG3 POP POP JUMP JUMPDEST PUSH1 0x1 PUSH1 0x1 PUSH1 0xA0 SHL SUB DUP4 AND PUSH2 0x45D JUMPI PUSH1 0x40 MLOAD PUSH3 0x461BCD PUSH1 0xE5 SHL DUP2 MSTORE PUSH1 0x20 PUSH1 0x4 DUP3 ADD MSTORE PUSH1 0x1F PUSH1 0x24 DUP3 ADD MSTORE PUSH32 0x45524332303A206D696E7420746F20746865207A65726F206164647265737300 PUSH1 0x44 DUP3 ADD MSTORE PUSH1 0x64 ADD PUSH1 0x40 MLOAD DUP1 SWAP2 SUB SWAP1 REVERT JUMPDEST PUSH1 0x1 PUSH1 0x1 PUSH1 0xA0 SHL SUB DUP4 AND PUSH0 SWAP1 DUP2 MSTORE PUSH1 0x6 PUSH1 0x20 MSTORE PUSH1 0x40 SWAP1 KECCAK256 SLOAD PUSH2 0x480 SWAP1 DUP4 SWAP1 PUSH2 0x6AD JUMP JUMPDEST PUSH1 0x1 PUSH1 0x1 PUSH1 0xA0 SHL SUB DUP5 AND PUSH0 DUP2 DUP2 MSTORE PUSH1 0x6 PUSH1 0x20 MSTORE PUSH1 0x40 DUP1 DUP3 KECCAK256 SWAP4 SWAP1 SWAP4 SSTORE SWAP2 MLOAD SWAP1 SWAP2 SWAP1 PUSH32 0xDDF252AD1BE2C89B69C2B068FC378DAA952BA7F163C4A11628F55A4DF523B3EF SWAP1 PUSH2 0x4D0 SWAP1 DUP6 DUP2 MSTORE PUSH1 0x20 ADD SWAP1 JUMP JUMPDEST PUSH1 0x40 MLOAD DUP1 SWAP2 SUB SWAP1 LOG3 POP POP POP JUMP JUMPDEST PUSH0 DUP3 PUSH2 0x4F7 JUMPI PUSH4 0x4E487B71 PUSH1 0xE0 SHL PUSH0 MSTORE PUSH1 0x12 PUSH1 0x4 MSTORE PUSH1 0x24 PUSH0 REVERT JUMPDEST POP MOD SWAP1 JUMP JUMPDEST PUSH4 0x4E487B71 PUSH1 0xE0 SHL PUSH0 MSTORE PUSH1 0x11 PUSH1 0x4 MSTORE PUSH1 0x24 PUSH0 REVERT JUMPDEST DUP2 DUP2 SUB DUP2 DUP2 GT ISZERO PUSH2 0x523 JUMPI PUSH2 0x523 PUSH2 0x4FC JUMP JUMPDEST SWAP3 SWAP2 POP POP JUMP JUMPDEST PUSH4 0x4E487B71 PUSH1 0xE0 SHL PUSH0 MSTORE PUSH1 0x41 PUSH1 0x4 MSTORE PUSH1 0x24 PUSH0 REVERT JUMPDEST PUSH1 0x1 DUP2 DUP2 SHR SWAP1 DUP3 AND DUP1 PUSH2 0x551 JUMPI PUSH1 0x7F DUP3 AND SWAP2 POP JUMPDEST PUSH1 0x20 DUP3 LT DUP2 SUB PUSH2 0x56F JUMPI PUSH4 0x4E487B71 PUSH1 0xE0 SHL PUSH0 MSTORE PUSH1 0x22 PUSH1 0x4 MSTORE PUSH1 0x24 PUSH0 REVERT JUMPDEST POP SWAP2 SWAP1 POP JUMP JUMPDEST PUSH1 0x1F DUP3 GT ISZERO PUSH2 0x5BC JUMPI DUP1 PUSH0 MSTORE PUSH1 0x20 PUSH0 KECCAK256 PUSH1 0x1F DUP5 ADD PUSH1 0x5 SHR DUP2 ADD PUSH1 0x20 DUP6 LT ISZERO PUSH2 0x59A JUMPI POP DUP1 JUMPDEST PUSH1 0x1F DUP5 ADD PUSH1 0x5 SHR DUP3 ADD SWAP2 POP JUMPDEST DUP2 DUP2 LT ISZERO PUSH2 0x5B9 JUMPI PUSH0 DUP2 SSTORE PUSH1 0x1 ADD PUSH2 0x5A6 JUMP JUMPDEST POP POP JUMPDEST POP POP POP JUMP JUMPDEST DUP2 MLOAD PUSH1 0x1 PUSH1 0x1 PUSH1 0x40 SHL SUB DUP2 GT ISZERO PUSH2 0x5DA JUMPI PUSH2 0x5DA PUSH2 0x529 JUMP JUMPDEST PUSH2 0x5EE DUP2 PUSH2 0x5E8 DUP5 SLOAD PUSH2 0x53D JUMP JUMPDEST DUP5 PUSH2 0x575 JUMP JUMPDEST PUSH1 0x20 DUP1 PUSH1 0x1F DUP4 GT PUSH1 0x1 DUP2 EQ PUSH2 0x621 JUMPI PUSH0 DUP5 ISZERO PUSH2 0x60A JUMPI POP DUP6 DUP4 ADD MLOAD JUMPDEST PUSH0 NOT PUSH1 0x3 DUP7 SWAP1 SHL SHR NOT AND PUSH1 0x1 DUP6 SWAP1 SHL OR DUP6 SSTORE PUSH2 0x678 JUMP JUMPDEST PUSH0 DUP6 DUP2 MSTORE PUSH1 0x20 DUP2 KECCAK256 PUSH1 0x1F NOT DUP7 AND SWAP2 JUMPDEST DUP3 DUP2 LT ISZERO PUSH2 0x64F JUMPI DUP9 DUP7 ADD MLOAD DUP3 SSTORE SWAP5 DUP5 ADD SWAP5 PUSH1 0x1 SWAP1 SWAP2 ADD SWAP1 DUP5 ADD PUSH2 0x630 JUMP JUMPDEST POP DUP6 DUP3 LT ISZERO PUSH2 0x66C JUMPI DUP8 DUP6 ADD MLOAD PUSH0 NOT PUSH1 0x3 DUP9 SWAP1 SHL PUSH1 0xF8 AND SHR NOT AND DUP2 SSTORE JUMPDEST POP POP PUSH1 0x1 DUP5 PUSH1 0x1 SHL ADD DUP6 SSTORE JUMPDEST POP POP POP POP POP POP JUMP JUMPDEST PUSH0 PUSH1 0x20 DUP3 DUP5 SUB SLT ISZERO PUSH2 0x690 JUMPI PUSH0 DUP1 REVERT JUMPDEST DUP2 MLOAD PUSH1 0x1 PUSH1 0x1 PUSH1 0xA0 SHL SUB DUP2 AND DUP2 EQ PUSH2 0x6A6 JUMPI PUSH0 DUP1 REVERT JUMPDEST SWAP4 SWAP3 POP POP POP JUMP JUMPDEST DUP1 DUP3 ADD DUP1 DUP3 GT ISZERO PUSH2 0x523 JUMPI PUSH2 0x523 PUSH2 0x4FC JUMP JUMPDEST PUSH1 0x80 MLOAD PUSH1 0xA0 MLOAD PUSH2 0x3838 PUSH2 0x70B PUSH0 CODECOPY PUSH0 DUP2 DUP2 PUSH2 0x59A ADD MSTORE PUSH2 0x24C8 ADD MSTORE PUSH0 DUP2 DUP2 PUSH2 0x3DF ADD MSTORE DUP2 DUP2 PUSH2 0x2D1B ADD MSTORE DUP2 DUP2 PUSH2 0x2DD2 ADD MSTORE DUP2 DUP2 PUSH2 0x2E0E ADD MSTORE DUP2 DUP2 PUSH2 0x2F4E ADD MSTORE PUSH2 0x2F75 ADD MSTORE PUSH2 0x3838 PUSH0 RETURN INVALID PUSH1 0x80 PUSH1 0x40 MSTORE PUSH1 0x4 CALLDATASIZE LT PUSH2 0x32A JUMPI PUSH0 CALLDATALOAD PUSH1 0xE0 SHR DUP1 PUSH4 0x715018A6 GT PUSH2 0x1A3 JUMPI DUP1 PUSH4 0xC3A1ED48 GT PUSH2 0xF2 JUMPI DUP1 PUSH4 0xE547BE69 GT PUSH2 0x92 JUMPI DUP1 PUSH4 0xEC28438A GT PUSH2 0x6D JUMPI DUP1 PUSH4 0xEC28438A EQ PUSH2 0x966 JUMPI DUP1 PUSH4 0xEDC2FCFB EQ PUSH2 0x985 JUMPI DUP1 PUSH4 0xF2FDE38B EQ PUSH2 0x9A4 JUMPI DUP1 PUSH4 0xFDEB889F EQ PUSH2 0x9C3 JUMPI PUSH0 DUP1 REVERT JUMPDEST DUP1 PUSH4 0xE547BE69 EQ PUSH2 0x909 JUMPI DUP1 PUSH4 0xE6BE4A72 EQ PUSH2 0x928 JUMPI DUP1 PUSH4 0xEA2F0B37 EQ PUSH2 0x947 JUMPI PUSH0 DUP1 REVERT JUMPDEST DUP1 PUSH4 0xCBA0E996 GT PUSH2 0xCD JUMPI DUP1 PUSH4 0xCBA0E996 EQ PUSH2 0x85B JUMPI DUP1 PUSH4 0xCE831ED5 EQ PUSH2 0x892 JUMPI DUP1 PUSH4 0xDCC345F2 EQ PUSH2 0x8A6 JUMPI DUP1 PUSH4 0xDD62ED3E EQ PUSH2 0x8C5 JUMPI PUSH0 DUP1 REVERT JUMPDEST DUP1 PUSH4 0xC3A1ED48 EQ PUSH2 0x809 JUMPI DUP1 PUSH4 0xC49B9A80 EQ PUSH2 0x81D JUMPI DUP1 PUSH4 0xCACCD7F7 EQ PUSH2 0x83C JUMPI PUSH0 DUP1 REVERT JUMPDEST DUP1 PUSH4 0x95D89B41 GT PUSH2 0x15D JUMPI DUP1 PUSH4 0xA9059CBB GT PUSH2 0x138 JUMPI DUP1 PUSH4 0xA9059CBB EQ PUSH2 0x797 JUMPI DUP1 PUSH4 0xA94C8DD2 EQ PUSH2 0x7B6 JUMPI DUP1 PUSH4 0xAFCF2FC4 EQ PUSH2 0x7D5 JUMPI DUP1 PUSH4 0xC0B0FDA2 EQ PUSH2 0x7F4 JUMPI PUSH0 DUP1 REVERT JUMPDEST DUP1 PUSH4 0x95D89B41 EQ PUSH2 0x745 JUMPI DUP1 PUSH4 0xA457C2D7 EQ PUSH2 0x759 JUMPI DUP1 PUSH4 0xA5ECE941 EQ PUSH2 0x778 JUMPI PUSH0 DUP1 REVERT JUMPDEST DUP1 PUSH4 0x715018A6 EQ PUSH2 0x6AC JUMPI DUP1 PUSH4 0x79CC6790 EQ PUSH2 0x6C0 JUMPI DUP1 PUSH4 0x7D1DB4A5 EQ PUSH2 0x6DF JUMPI DUP1 PUSH4 0x8A0623B4 EQ PUSH2 0x6F4 JUMPI DUP1 PUSH4 0x8DA5CB5B EQ PUSH2 0x709 JUMPI DUP1 PUSH4 0x906E9DD0 EQ PUSH2 0x726 JUMPI PUSH0 DUP1 REVERT JUMPDEST DUP1 PUSH4 0x39509351 GT PUSH2 0x279 JUMPI DUP1 PUSH4 0x4A74BB02 GT PUSH2 0x219 JUMPI DUP1 PUSH4 0x6049876E GT PUSH2 0x1F4 JUMPI DUP1 PUSH4 0x6049876E EQ PUSH2 0x630 JUMPI DUP1 PUSH4 0x625E764C EQ PUSH2 0x64F JUMPI DUP1 PUSH4 0x6C317232 EQ PUSH2 0x66E JUMPI DUP1 PUSH4 0x70A08231 EQ PUSH2 0x68D JUMPI PUSH0 DUP1 REVERT JUMPDEST DUP1 PUSH4 0x4A74BB02 EQ PUSH2 0x5BC JUMPI DUP1 PUSH4 0x4BF2C7C9 EQ PUSH2 0x5DA JUMPI DUP1 PUSH4 0x5342ACB4 EQ PUSH2 0x5F9 JUMPI PUSH0 DUP1 REVERT JUMPDEST DUP1 PUSH4 0x437823EC GT PUSH2 0x254 JUMPI DUP1 PUSH4 0x437823EC EQ PUSH2 0x536 JUMPI DUP1 PUSH4 0x4549B039 EQ PUSH2 0x555 JUMPI DUP1 PUSH4 0x48DE478E EQ PUSH2 0x574 JUMPI DUP1 PUSH4 0x49BD5A5E EQ PUSH2 0x589 JUMPI PUSH0 DUP1 REVERT JUMPDEST DUP1 PUSH4 0x39509351 EQ PUSH2 0x4E3 JUMPI DUP1 PUSH4 0x40F8007A EQ PUSH2 0x502 JUMPI DUP1 PUSH4 0x42966C68 EQ PUSH2 0x517 JUMPI PUSH0 DUP1 REVERT JUMPDEST DUP1 PUSH4 0x20C7C596 GT PUSH2 0x2E4 JUMPI DUP1 PUSH4 0x27C8F835 GT PUSH2 0x2BF JUMPI DUP1 PUSH4 0x27C8F835 EQ PUSH2 0x48A JUMPI DUP1 PUSH4 0x313CE567 EQ PUSH2 0x49F JUMPI DUP1 PUSH4 0x32035504 EQ PUSH2 0x4BA JUMPI DUP1 PUSH4 0x3206B4AA EQ PUSH2 0x4CE JUMPI PUSH0 DUP1 REVERT JUMPDEST DUP1 PUSH4 0x20C7C596 EQ PUSH2 0x437 JUMPI DUP1 PUSH4 0x22976E0D EQ PUSH2 0x456 JUMPI DUP1 PUSH4 0x23B872DD EQ PUSH2 0x46B JUMPI PUSH0 DUP1 REVERT JUMPDEST DUP1 PUSH4 0x53AB182 EQ PUSH2 0x335 JUMPI DUP1 PUSH4 0x6FDDE03 EQ PUSH2 0x356 JUMPI DUP1 PUSH4 0x95EA7B3 EQ PUSH2 0x380 JUMPI DUP1 PUSH4 0xC9BE46D EQ PUSH2 0x3AF JUMPI DUP1 PUSH4 0x1694505E EQ PUSH2 0x3CE JUMPI DUP1 PUSH4 0x18160DDD EQ PUSH2 0x419 JUMPI PUSH0 DUP1 REVERT JUMPDEST CALLDATASIZE PUSH2 0x331 JUMPI STOP JUMPDEST PUSH0 DUP1 REVERT JUMPDEST CALLVALUE DUP1 ISZERO PUSH2 0x340 JUMPI PUSH0 DUP1 REVERT JUMPDEST POP PUSH2 0x354 PUSH2 0x34F CALLDATASIZE PUSH1 0x4 PUSH2 0x344A JUMP JUMPDEST PUSH2 0x9E2 JUMP JUMPDEST STOP JUMPDEST CALLVALUE DUP1 ISZERO PUSH2 0x361 JUMPI PUSH0 DUP1 REVERT JUMPDEST POP PUSH2 0x36A PUSH2 0xACD JUMP JUMPDEST PUSH1 0x40 MLOAD PUSH2 0x377 SWAP2 SWAP1 PUSH2 0x3461 JUMP JUMPDEST PUSH1 0x40 MLOAD DUP1 SWAP2 SUB SWAP1 RETURN JUMPDEST CALLVALUE DUP1 ISZERO PUSH2 0x38B JUMPI PUSH0 DUP1 REVERT JUMPDEST POP PUSH2 0x39F PUSH2 0x39A CALLDATASIZE PUSH1 0x4 PUSH2 0x34AA JUMP JUMPDEST PUSH2 0xB5D JUMP JUMPDEST PUSH1 0x40 MLOAD SWAP1 ISZERO ISZERO DUP2 MSTORE PUSH1 0x20 ADD PUSH2 0x377 JUMP JUMPDEST CALLVALUE DUP1 ISZERO PUSH2 0x3BA JUMPI PUSH0 DUP1 REVERT JUMPDEST POP PUSH2 0x354 PUSH2 0x3C9 CALLDATASIZE PUSH1 0x4 PUSH2 0x34D4 JUMP JUMPDEST PUSH2 0xB73 JUMP JUMPDEST CALLVALUE DUP1 ISZERO PUSH2 0x3D9 JUMPI PUSH0 DUP1 REVERT JUMPDEST POP PUSH2 0x401 PUSH32 0x0 DUP2 JUMP JUMPDEST PUSH1 0x40 MLOAD PUSH1 0x1 PUSH1 0x1 PUSH1 0xA0 SHL SUB SWAP1 SWAP2 AND DUP2 MSTORE PUSH1 0x20 ADD PUSH2 0x377 JUMP JUMPDEST CALLVALUE DUP1 ISZERO PUSH2 0x424 JUMPI PUSH0 DUP1 REVERT JUMPDEST POP PUSH1 0xE SLOAD JUMPDEST PUSH1 0x40 MLOAD SWAP1 DUP2 MSTORE PUSH1 0x20 ADD PUSH2 0x377 JUMP JUMPDEST CALLVALUE DUP1 ISZERO PUSH2 0x442 JUMPI PUSH0 DUP1 REVERT JUMPDEST POP PUSH2 0x354 PUSH2 0x451 CALLDATASIZE PUSH1 0x4 PUSH2 0x344A JUMP JUMPDEST PUSH2 0xC68 JUMP JUMPDEST CALLVALUE DUP1 ISZERO PUSH2 0x461 JUMPI PUSH0 DUP1 REVERT JUMPDEST POP PUSH2 0x429 PUSH1 0x17 SLOAD DUP2 JUMP JUMPDEST CALLVALUE DUP1 ISZERO PUSH2 0x476 JUMPI PUSH0 DUP1 REVERT JUMPDEST POP PUSH2 0x39F PUSH2 0x485 CALLDATASIZE PUSH1 0x4 PUSH2 0x34EF JUMP JUMPDEST PUSH2 0xD6B JUMP JUMPDEST CALLVALUE DUP1 ISZERO PUSH2 0x495 JUMPI PUSH0 DUP1 REVERT JUMPDEST POP PUSH2 0x401 PUSH2 0xDEAD DUP2 JUMP JUMPDEST CALLVALUE DUP1 ISZERO PUSH2 0x4AA JUMPI PUSH0 DUP1 REVERT JUMPDEST POP PUSH1 0x40 MLOAD PUSH1 0x12 DUP2 MSTORE PUSH1 0x20 ADD PUSH2 0x377 JUMP JUMPDEST CALLVALUE DUP1 ISZERO PUSH2 0x4C5 JUMPI PUSH0 DUP1 REVERT JUMPDEST POP PUSH1 0x10 SLOAD PUSH2 0x429 JUMP JUMPDEST CALLVALUE DUP1 ISZERO PUSH2 0x4D9 JUMPI PUSH0 DUP1 REVERT JUMPDEST POP PUSH2 0x429 PUSH1 0x13 SLOAD DUP2 JUMP JUMPDEST CALLVALUE DUP1 ISZERO PUSH2 0x4EE JUMPI PUSH0 DUP1 REVERT JUMPDEST POP PUSH2 0x39F PUSH2 0x4FD CALLDATASIZE PUSH1 0x4 PUSH2 0x34AA JUMP JUMPDEST PUSH2 0xE13 JUMP JUMPDEST CALLVALUE DUP1 ISZERO PUSH2 0x50D JUMPI PUSH0 DUP1 REVERT JUMPDEST POP PUSH2 0x429 PUSH1 0x1B SLOAD DUP2 JUMP JUMPDEST CALLVALUE DUP1 ISZERO PUSH2 0x522 JUMPI PUSH0 DUP1 REVERT JUMPDEST POP PUSH2 0x354 PUSH2 0x531 CALLDATASIZE PUSH1 0x4 PUSH2 0x344A JUMP JUMPDEST PUSH2 0xE4E JUMP JUMPDEST CALLVALUE DUP1 ISZERO PUSH2 0x541 JUMPI PUSH0 DUP1 REVERT JUMPDEST POP PUSH2 0x354 PUSH2 0x550 CALLDATASIZE PUSH1 0x4 PUSH2 0x34D4 JUMP JUMPDEST PUSH2 0xE5B JUMP JUMPDEST CALLVALUE DUP1 ISZERO PUSH2 0x560 JUMPI PUSH0 DUP1 REVERT JUMPDEST POP PUSH2 0x429 PUSH2 0x56F CALLDATASIZE PUSH1 0x4 PUSH2 0x353A JUMP JUMPDEST PUSH2 0xEA8 JUMP JUMPDEST CALLVALUE DUP1 ISZERO PUSH2 0x57F JUMPI PUSH0 DUP1 REVERT JUMPDEST POP PUSH2 0x429 PUSH1 0x19 SLOAD DUP2 JUMP JUMPDEST CALLVALUE DUP1 ISZERO PUSH2 0x594 JUMPI PUSH0 DUP1 REVERT JUMPDEST POP PUSH2 0x401 PUSH32 0x0 DUP2 JUMP JUMPDEST CALLVALUE DUP1 ISZERO PUSH2 0x5C7 JUMPI PUSH0 DUP1 REVERT JUMPDEST POP PUSH1 0x22 SLOAD PUSH2 0x39F SWAP1 PUSH2 0x100 SWAP1 DIV PUSH1 0xFF AND DUP2 JUMP JUMPDEST CALLVALUE DUP1 ISZERO PUSH2 0x5E5 JUMPI PUSH0 DUP1 REVERT JUMPDEST POP PUSH2 0x354 PUSH2 0x5F4 CALLDATASIZE PUSH1 0x4 PUSH2 0x344A JUMP JUMPDEST PUSH2 0xF2E JUMP JUMPDEST CALLVALUE DUP1 ISZERO PUSH2 0x604 JUMPI PUSH0 DUP1 REVERT JUMPDEST POP PUSH2 0x39F PUSH2 0x613 CALLDATASIZE PUSH1 0x4 PUSH2 0x34D4 JUMP JUMPDEST PUSH1 0x1 PUSH1 0x1 PUSH1 0xA0 SHL SUB AND PUSH0 SWAP1 DUP2 MSTORE PUSH1 0x8 PUSH1 0x20 MSTORE PUSH1 0x40 SWAP1 KECCAK256 SLOAD PUSH1 0xFF AND SWAP1 JUMP JUMPDEST CALLVALUE DUP1 ISZERO PUSH2 0x63B JUMPI PUSH0 DUP1 REVERT JUMPDEST POP PUSH2 0x354 PUSH2 0x64A CALLDATASIZE PUSH1 0x4 PUSH2 0x34D4 JUMP JUMPDEST PUSH2 0xFFC JUMP JUMPDEST CALLVALUE DUP1 ISZERO PUSH2 0x65A JUMPI PUSH0 DUP1 REVERT JUMPDEST POP PUSH2 0x354 PUSH2 0x669 CALLDATASIZE PUSH1 0x4 PUSH2 0x344A JUMP JUMPDEST PUSH2 0x11BE JUMP JUMPDEST CALLVALUE DUP1 ISZERO PUSH2 0x679 JUMPI PUSH0 DUP1 REVERT JUMPDEST POP PUSH2 0x354 PUSH2 0x688 CALLDATASIZE PUSH1 0x4 PUSH2 0x344A JUMP JUMPDEST PUSH2 0x12B7 JUMP JUMPDEST CALLVALUE DUP1 ISZERO PUSH2 0x698 JUMPI PUSH0 DUP1 REVERT JUMPDEST POP PUSH2 0x429 PUSH2 0x6A7 CALLDATASIZE PUSH1 0x4 PUSH2 0x34D4 JUMP JUMPDEST PUSH2 0x13B0 JUMP JUMPDEST CALLVALUE DUP1 ISZERO PUSH2 0x6B7 JUMPI PUSH0 DUP1 REVERT JUMPDEST POP PUSH2 0x354 PUSH2 0x140C JUMP JUMPDEST CALLVALUE DUP1 ISZERO PUSH2 0x6CB JUMPI PUSH0 DUP1 REVERT JUMPDEST POP PUSH2 0x354 PUSH2 0x6DA CALLDATASIZE PUSH1 0x4 PUSH2 0x34AA JUMP JUMPDEST PUSH2 0x1441 JUMP JUMPDEST CALLVALUE DUP1 ISZERO PUSH2 0x6EA JUMPI PUSH0 DUP1 REVERT JUMPDEST POP PUSH2 0x429 PUSH1 0x1F SLOAD DUP2 JUMP JUMPDEST CALLVALUE DUP1 ISZERO PUSH2 0x6FF JUMPI PUSH0 DUP1 REVERT JUMPDEST POP PUSH2 0x429 PUSH1 0x15 SLOAD DUP2 JUMP JUMPDEST CALLVALUE DUP1 ISZERO PUSH2 0x714 JUMPI PUSH0 DUP1 REVERT JUMPDEST POP PUSH1 0x5 SLOAD PUSH1 0x1 PUSH1 0x1 PUSH1 0xA0 SHL SUB AND PUSH2 0x401 JUMP JUMPDEST CALLVALUE DUP1 ISZERO PUSH2 0x731 JUMPI PUSH0 DUP1 REVERT JUMPDEST POP PUSH2 0x354 PUSH2 0x740 CALLDATASIZE PUSH1 0x4 PUSH2 0x34D4 JUMP JUMPDEST PUSH2 0x14C6 JUMP JUMPDEST CALLVALUE DUP1 ISZERO PUSH2 0x750 JUMPI PUSH0 DUP1 REVERT JUMPDEST POP PUSH2 0x36A PUSH2 0x15B5 JUMP JUMPDEST CALLVALUE DUP1 ISZERO PUSH2 0x764 JUMPI PUSH0 DUP1 REVERT JUMPDEST POP PUSH2 0x39F PUSH2 0x773 CALLDATASIZE PUSH1 0x4 PUSH2 0x34AA JUMP JUMPDEST PUSH2 0x15C4 JUMP JUMPDEST CALLVALUE DUP1 ISZERO PUSH2 0x783 JUMPI PUSH0 DUP1 REVERT JUMPDEST POP PUSH1 0xB SLOAD PUSH2 0x401 SWAP1 PUSH1 0x1 PUSH1 0x1 PUSH1 0xA0 SHL SUB AND DUP2 JUMP JUMPDEST CALLVALUE DUP1 ISZERO PUSH2 0x7A2 JUMPI PUSH0 DUP1 REVERT JUMPDEST POP PUSH2 0x39F PUSH2 0x7B1 CALLDATASIZE PUSH1 0x4 PUSH2 0x34AA JUMP JUMPDEST PUSH2 0x165C JUMP JUMPDEST CALLVALUE DUP1 ISZERO PUSH2 0x7C1 JUMPI PUSH0 DUP1 REVERT JUMPDEST POP PUSH2 0x354 PUSH2 0x7D0 CALLDATASIZE PUSH1 0x4 PUSH2 0x344A JUMP JUMPDEST PUSH2 0x1668 JUMP JUMPDEST CALLVALUE DUP1 ISZERO PUSH2 0x7E0 JUMPI PUSH0 DUP1 REVERT JUMPDEST POP PUSH1 0xD SLOAD PUSH2 0x401 SWAP1 PUSH1 0x1 PUSH1 0x1 PUSH1 0xA0 SHL SUB AND DUP2 JUMP JUMPDEST CALLVALUE DUP1 ISZERO PUSH2 0x7FF JUMPI PUSH0 DUP1 REVERT JUMPDEST POP PUSH2 0x429 PUSH1 0x11 SLOAD DUP2 JUMP JUMPDEST CALLVALUE DUP1 ISZERO PUSH2 0x814 JUMPI PUSH0 DUP1 REVERT JUMPDEST POP PUSH2 0x429 PUSH1 0x6 DUP2 JUMP JUMPDEST CALLVALUE DUP1 ISZERO PUSH2 0x828 JUMPI PUSH0 DUP1 REVERT JUMPDEST POP PUSH2 0x354 PUSH2 0x837 CALLDATASIZE PUSH1 0x4 PUSH2 0x3568 JUMP JUMPDEST PUSH2 0x1760 JUMP JUMPDEST CALLVALUE DUP1 ISZERO PUSH2 0x847 JUMPI PUSH0 DUP1 REVERT JUMPDEST POP PUSH1 0xC SLOAD PUSH2 0x401 SWAP1 PUSH1 0x1 PUSH1 0x1 PUSH1 0xA0 SHL SUB AND DUP2 JUMP JUMPDEST CALLVALUE DUP1 ISZERO PUSH2 0x866 JUMPI PUSH0 DUP1 REVERT JUMPDEST POP PUSH2 0x39F PUSH2 0x875 CALLDATASIZE PUSH1 0x4 PUSH2 0x34D4 JUMP JUMPDEST PUSH1 0x1 PUSH1 0x1 PUSH1 0xA0 SHL SUB AND PUSH0 SWAP1 DUP2 MSTORE PUSH1 0x9 PUSH1 0x20 MSTORE PUSH1 0x40 SWAP1 KECCAK256 SLOAD PUSH1 0xFF AND SWAP1 JUMP JUMPDEST CALLVALUE DUP1 ISZERO PUSH2 0x89D JUMPI PUSH0 DUP1 REVERT JUMPDEST POP PUSH2 0x354 PUSH2 0x17DE JUMP JUMPDEST CALLVALUE DUP1 ISZERO PUSH2 0x8B1 JUMPI PUSH0 DUP1 REVERT JUMPDEST POP PUSH2 0x354 PUSH2 0x8C0 CALLDATASIZE PUSH1 0x4 PUSH2 0x34D4 JUMP JUMPDEST PUSH2 0x1928 JUMP JUMPDEST CALLVALUE DUP1 ISZERO PUSH2 0x8D0 JUMPI PUSH0 DUP1 REVERT JUMPDEST POP PUSH2 0x429 PUSH2 0x8DF CALLDATASIZE PUSH1 0x4 PUSH2 0x3583 JUMP JUMPDEST PUSH1 0x1 PUSH1 0x1 PUSH1 0xA0 SHL SUB SWAP2 DUP3 AND PUSH0 SWAP1 DUP2 MSTORE PUSH1 0x1 PUSH1 0x20 SWAP1 DUP2 MSTORE PUSH1 0x40 DUP1 DUP4 KECCAK256 SWAP4 SWAP1 SWAP5 AND DUP3 MSTORE SWAP2 SWAP1 SWAP2 MSTORE KECCAK256 SLOAD SWAP1 JUMP JUMPDEST CALLVALUE DUP1 ISZERO PUSH2 0x914 JUMPI PUSH0 DUP1 REVERT JUMPDEST POP PUSH2 0x354 PUSH2 0x923 CALLDATASIZE PUSH1 0x4 PUSH2 0x344A JUMP JUMPDEST PUSH2 0x1A17 JUMP JUMPDEST CALLVALUE DUP1 ISZERO PUSH2 0x933 JUMPI PUSH0 DUP1 REVERT JUMPDEST POP PUSH2 0x354 PUSH2 0x942 CALLDATASIZE PUSH1 0x4 PUSH2 0x34AA JUMP JUMPDEST PUSH2 0x1AE5 JUMP JUMPDEST CALLVALUE DUP1 ISZERO PUSH2 0x952 JUMPI PUSH0 DUP1 REVERT JUMPDEST POP PUSH2 0x354 PUSH2 0x961 CALLDATASIZE PUSH1 0x4 PUSH2 0x34D4 JUMP JUMPDEST PUSH2 0x1CB3 JUMP JUMPDEST CALLVALUE DUP1 ISZERO PUSH2 0x971 JUMPI PUSH0 DUP1 REVERT JUMPDEST POP PUSH2 0x354 PUSH2 0x980 CALLDATASIZE PUSH1 0x4 PUSH2 0x344A JUMP JUMPDEST PUSH2 0x1CFD JUMP JUMPDEST CALLVALUE DUP1 ISZERO PUSH2 0x990 JUMPI PUSH0 DUP1 REVERT JUMPDEST POP PUSH2 0x354 PUSH2 0x99F CALLDATASIZE PUSH1 0x4 PUSH2 0x3568 JUMP JUMPDEST PUSH2 0x1DF6 JUMP JUMPDEST CALLVALUE DUP1 ISZERO PUSH2 0x9AF JUMPI PUSH0 DUP1 REVERT JUMPDEST POP PUSH2 0x354 PUSH2 0x9BE CALLDATASIZE PUSH1 0x4 PUSH2 0x34D4 JUMP JUMPDEST PUSH2 0x1EBA JUMP JUMPDEST CALLVALUE DUP1 ISZERO PUSH2 0x9CE JUMPI PUSH0 DUP1 REVERT JUMPDEST POP PUSH2 0x354 PUSH2 0x9DD CALLDATASIZE PUSH1 0x4 PUSH2 0x34D4 JUMP JUMPDEST PUSH2 0x1F52 JUMP JUMPDEST CALLER PUSH0 DUP2 DUP2 MSTORE PUSH1 0x9 PUSH1 0x20 MSTORE PUSH1 0x40 SWAP1 KECCAK256 SLOAD PUSH1 0xFF AND ISZERO PUSH2 0xA5B JUMPI PUSH1 0x40 MLOAD PUSH3 0x461BCD PUSH1 0xE5 SHL DUP2 MSTORE PUSH1 0x20 PUSH1 0x4 DUP3 ADD MSTORE PUSH1 0x2C PUSH1 0x24 DUP3 ADD MSTORE PUSH32 0x4578636C75646564206164647265737365732063616E6E6F742063616C6C2074 PUSH1 0x44 DUP3 ADD MSTORE PUSH12 0x3434B990333AB731BA34B7B7 PUSH1 0xA1 SHL PUSH1 0x64 DUP3 ADD MSTORE PUSH1 0x84 ADD JUMPDEST PUSH1 0x40 MLOAD DUP1 SWAP2 SUB SWAP1 REVERT JUMPDEST PUSH0 PUSH2 0xA65 DUP4 PUSH2 0x20F7 JUMP JUMPDEST POP POP POP PUSH1 0x1 PUSH1 0x1 PUSH1 0xA0 SHL SUB DUP4 AND PUSH0 SWAP1 DUP2 MSTORE PUSH1 0x6 PUSH1 0x20 MSTORE PUSH1 0x40 SWAP1 KECCAK256 SLOAD SWAP1 SWAP2 POP PUSH2 0xA8E SWAP1 DUP3 SWAP1 PUSH2 0x35C3 JUMP JUMPDEST PUSH1 0x1 PUSH1 0x1 PUSH1 0xA0 SHL SUB DUP4 AND PUSH0 SWAP1 DUP2 MSTORE PUSH1 0x6 PUSH1 0x20 MSTORE PUSH1 0x40 SWAP1 KECCAK256 SSTORE PUSH1 0xF SLOAD PUSH2 0xAB4 SWAP1 DUP3 SWAP1 PUSH2 0x35C3 JUMP JUMPDEST PUSH1 0xF SSTORE PUSH1 0x10 SLOAD PUSH2 0xAC5 SWAP1 DUP5 SWAP1 PUSH2 0x35D6 JUMP JUMPDEST PUSH1 0x10 SSTORE POP POP POP JUMP JUMPDEST PUSH1 0x60 PUSH1 0x3 DUP1 SLOAD PUSH2 0xADC SWAP1 PUSH2 0x35E9 JUMP JUMPDEST DUP1 PUSH1 0x1F ADD PUSH1 0x20 DUP1 SWAP2 DIV MUL PUSH1 0x20 ADD PUSH1 0x40 MLOAD SWAP1 DUP2 ADD PUSH1 0x40 MSTORE DUP1 SWAP3 SWAP2 SWAP1 DUP2 DUP2 MSTORE PUSH1 0x20 ADD DUP3 DUP1 SLOAD PUSH2 0xB08 SWAP1 PUSH2 0x35E9 JUMP JUMPDEST DUP1 ISZERO PUSH2 0xB53 JUMPI DUP1 PUSH1 0x1F LT PUSH2 0xB2A JUMPI PUSH2 0x100 DUP1 DUP4 SLOAD DIV MUL DUP4 MSTORE SWAP2 PUSH1 0x20 ADD SWAP2 PUSH2 0xB53 JUMP JUMPDEST DUP3 ADD SWAP2 SWAP1 PUSH0 MSTORE PUSH1 0x20 PUSH0 KECCAK256 SWAP1 JUMPDEST DUP2 SLOAD DUP2 MSTORE SWAP1 PUSH1 0x1 ADD SWAP1 PUSH1 0x20 ADD DUP1 DUP4 GT PUSH2 0xB36 JUMPI DUP3 SWAP1 SUB PUSH1 0x1F AND DUP3 ADD SWAP2 JUMPDEST POP POP POP POP POP SWAP1 POP SWAP1 JUMP JUMPDEST PUSH0 PUSH2 0xB69 CALLER DUP5 DUP5 PUSH2 0x2148 JUMP JUMPDEST POP PUSH1 0x1 JUMPDEST SWAP3 SWAP2 POP POP JUMP JUMPDEST PUSH1 0x5 SLOAD PUSH1 0x1 PUSH1 0x1 PUSH1 0xA0 SHL SUB AND CALLER EQ PUSH2 0xB9D JUMPI PUSH1 0x40 MLOAD PUSH3 0x461BCD PUSH1 0xE5 SHL DUP2 MSTORE PUSH1 0x4 ADD PUSH2 0xA52 SWAP1 PUSH2 0x3621 JUMP JUMPDEST PUSH1 0x1 PUSH1 0x1 PUSH1 0xA0 SHL SUB DUP2 AND PUSH2 0xC06 JUMPI PUSH1 0x40 MLOAD PUSH3 0x461BCD PUSH1 0xE5 SHL DUP2 MSTORE PUSH1 0x20 PUSH1 0x4 DUP3 ADD MSTORE PUSH1 0x2A PUSH1 0x24 DUP3 ADD MSTORE PUSH32 0x4368617269747920616464726573732063616E6E6F7420626520746865207A65 PUSH1 0x44 DUP3 ADD MSTORE PUSH10 0x726F2061646472657373 PUSH1 0xB0 SHL PUSH1 0x64 DUP3 ADD MSTORE PUSH1 0x84 ADD PUSH2 0xA52 JUMP JUMPDEST PUSH1 0xD DUP1 SLOAD PUSH1 0x1 PUSH1 0x1 PUSH1 0xA0 SHL SUB DUP4 DUP2 AND PUSH1 0x1 PUSH1 0x1 PUSH1 0xA0 SHL SUB NOT DUP4 AND DUP2 OR SWAP1 SWAP4 SSTORE PUSH1 0x40 DUP1 MLOAD SWAP2 SWAP1 SWAP3 AND DUP1 DUP3 MSTORE PUSH1 0x20 DUP3 ADD SWAP4 SWAP1 SWAP4 MSTORE PUSH32 0xD824BEDE52134285982C2DBBFB23840EEDA8D21C2EA774A50F74495D61474392 SWAP2 ADD JUMPDEST PUSH1 0x40 MLOAD DUP1 SWAP2 SUB SWAP1 LOG1 POP POP JUMP JUMPDEST PUSH1 0x5 SLOAD PUSH1 0x1 PUSH1 0x1 PUSH1 0xA0 SHL SUB AND CALLER EQ PUSH2 0xC92 JUMPI PUSH1 0x40 MLOAD PUSH3 0x461BCD PUSH1 0xE5 SHL DUP2 MSTORE PUSH1 0x4 ADD PUSH2 0xA52 SWAP1 PUSH2 0x3621 JUMP JUMPDEST PUSH0 DUP2 PUSH1 0x19 SLOAD PUSH1 0x17 SLOAD PUSH1 0x15 SLOAD PUSH1 0x13 SLOAD PUSH1 0x11 SLOAD PUSH2 0xCAD SWAP2 SWAP1 PUSH2 0x35D6 JUMP JUMPDEST PUSH2 0xCB7 SWAP2 SWAP1 PUSH2 0x35D6 JUMP JUMPDEST PUSH2 0xCC1 SWAP2 SWAP1 PUSH2 0x35D6 JUMP JUMPDEST PUSH2 0xCCB SWAP2 SWAP1 PUSH2 0x35D6 JUMP JUMPDEST PUSH2 0xCD5 SWAP2 SWAP1 PUSH2 0x35D6 JUMP JUMPDEST SWAP1 POP PUSH1 0x6 DUP2 GT ISZERO PUSH2 0xCF8 JUMPI PUSH1 0x40 MLOAD PUSH3 0x461BCD PUSH1 0xE5 SHL DUP2 MSTORE PUSH1 0x4 ADD PUSH2 0xA52 SWAP1 PUSH2 0x3656 JUMP JUMPDEST PUSH1 0x1B DUP1 SLOAD SWAP1 DUP4 SWAP1 SSTORE PUSH1 0x19 SLOAD PUSH1 0x17 SLOAD PUSH1 0x15 SLOAD DUP6 SWAP3 SWAP2 PUSH2 0xD15 SWAP2 PUSH2 0x35D6 JUMP JUMPDEST PUSH2 0xD1F SWAP2 SWAP1 PUSH2 0x35D6 JUMP JUMPDEST PUSH2 0xD29 SWAP2 SWAP1 PUSH2 0x35D6 JUMP JUMPDEST PUSH1 0x1D SSTORE PUSH1 0x40 DUP1 MLOAD DUP3 DUP2 MSTORE PUSH1 0x20 DUP2 ADD DUP6 SWAP1 MSTORE PUSH32 0xD3D6FF715A7F1AC2A5ED3FB8B1D5473A4D20852A8AAC0E70546C851819E25BBC SWAP2 ADD JUMPDEST PUSH1 0x40 MLOAD DUP1 SWAP2 SUB SWAP1 LOG1 POP POP POP JUMP JUMPDEST PUSH0 PUSH2 0xD77 DUP5 DUP5 DUP5 PUSH2 0x226B JUMP JUMPDEST PUSH1 0x1 PUSH1 0x1 PUSH1 0xA0 SHL SUB DUP5 AND PUSH0 SWAP1 DUP2 MSTORE PUSH1 0x1 PUSH1 0x20 SWAP1 DUP2 MSTORE PUSH1 0x40 DUP1 DUP4 KECCAK256 CALLER DUP5 MSTORE SWAP1 SWAP2 MSTORE SWAP1 KECCAK256 SLOAD DUP3 DUP2 LT ISZERO PUSH2 0xDFB JUMPI PUSH1 0x40 MLOAD PUSH3 0x461BCD PUSH1 0xE5 SHL DUP2 MSTORE PUSH1 0x20 PUSH1 0x4 DUP3 ADD MSTORE PUSH1 0x28 PUSH1 0x24 DUP3 ADD MSTORE PUSH32 0x45524332303A207472616E7366657220616D6F756E7420657863656564732061 PUSH1 0x44 DUP3 ADD MSTORE PUSH8 0x6C6C6F77616E6365 PUSH1 0xC0 SHL PUSH1 0x64 DUP3 ADD MSTORE PUSH1 0x84 ADD PUSH2 0xA52 JUMP JUMPDEST PUSH2 0xE08 DUP6 CALLER DUP6 DUP5 SUB PUSH2 0x2148 JUMP JUMPDEST POP PUSH1 0x1 SWAP5 SWAP4 POP POP POP POP JUMP JUMPDEST CALLER PUSH0 DUP2 DUP2 MSTORE PUSH1 0x1 PUSH1 0x20 SWAP1 DUP2 MSTORE PUSH1 0x40 DUP1 DUP4 KECCAK256 PUSH1 0x1 PUSH1 0x1 PUSH1 0xA0 SHL SUB DUP8 AND DUP5 MSTORE SWAP1 SWAP2 MSTORE DUP2 KECCAK256 SLOAD SWAP1 SWAP2 PUSH2 0xB69 SWAP2 DUP6 SWAP1 PUSH2 0xE49 SWAP1 DUP7 SWAP1 PUSH2 0x35D6 JUMP JUMPDEST PUSH2 0x2148 JUMP JUMPDEST PUSH2 0xE58 CALLER DUP3 PUSH2 0x2572 JUMP JUMPDEST POP JUMP JUMPDEST PUSH1 0x5 SLOAD PUSH1 0x1 PUSH1 0x1 PUSH1 0xA0 SHL SUB AND CALLER EQ PUSH2 0xE85 JUMPI PUSH1 0x40 MLOAD PUSH3 0x461BCD PUSH1 0xE5 SHL DUP2 MSTORE PUSH1 0x4 ADD PUSH2 0xA52 SWAP1 PUSH2 0x3621 JUMP JUMPDEST PUSH1 0x1 PUSH1 0x1 PUSH1 0xA0 SHL SUB AND PUSH0 SWAP1 DUP2 MSTORE PUSH1 0x8 PUSH1 0x20 MSTORE PUSH1 0x40 SWAP1 KECCAK256 DUP1 SLOAD PUSH1 0xFF NOT AND PUSH1 0x1 OR SWAP1 SSTORE JUMP JUMPDEST PUSH0 PUSH1 0xE SLOAD DUP4 GT ISZERO PUSH2 0xEFB JUMPI PUSH1 0x40 MLOAD PUSH3 0x461BCD PUSH1 0xE5 SHL DUP2 MSTORE PUSH1 0x20 PUSH1 0x4 DUP3 ADD MSTORE PUSH1 0x1F PUSH1 0x24 DUP3 ADD MSTORE PUSH32 0x416D6F756E74206D757374206265206C657373207468616E20737570706C7900 PUSH1 0x44 DUP3 ADD MSTORE PUSH1 0x64 ADD PUSH2 0xA52 JUMP JUMPDEST DUP2 PUSH2 0xF17 JUMPI PUSH0 PUSH2 0xF0A DUP5 PUSH2 0x20F7 JUMP JUMPDEST POP SWAP2 SWAP4 POP PUSH2 0xB6D SWAP3 POP POP POP JUMP JUMPDEST PUSH0 PUSH2 0xF21 DUP5 PUSH2 0x20F7 JUMP JUMPDEST POP SWAP1 SWAP4 POP PUSH2 0xB6D SWAP3 POP POP POP JUMP JUMPDEST PUSH1 0x5 SLOAD PUSH1 0x1 PUSH1 0x1 PUSH1 0xA0 SHL SUB AND CALLER EQ PUSH2 0xF58 JUMPI PUSH1 0x40 MLOAD PUSH3 0x461BCD PUSH1 0xE5 SHL DUP2 MSTORE PUSH1 0x4 ADD PUSH2 0xA52 SWAP1 PUSH2 0x3621 JUMP JUMPDEST PUSH0 PUSH1 0x1B SLOAD PUSH1 0x19 SLOAD PUSH1 0x17 SLOAD PUSH1 0x15 SLOAD PUSH1 0x13 SLOAD DUP7 PUSH2 0xF73 SWAP2 SWAP1 PUSH2 0x35D6 JUMP JUMPDEST PUSH2 0xF7D SWAP2 SWAP1 PUSH2 0x35D6 JUMP JUMPDEST PUSH2 0xF87 SWAP2 SWAP1 PUSH2 0x35D6 JUMP JUMPDEST PUSH2 0xF91 SWAP2 SWAP1 PUSH2 0x35D6 JUMP JUMPDEST PUSH2 0xF9B SWAP2 SWAP1 PUSH2 0x35D6 JUMP JUMPDEST SWAP1 POP PUSH1 0x6 DUP2 GT ISZERO PUSH2 0xFBE JUMPI PUSH1 0x40 MLOAD PUSH3 0x461BCD PUSH1 0xE5 SHL DUP2 MSTORE PUSH1 0x4 ADD PUSH2 0xA52 SWAP1 PUSH2 0x3656 JUMP JUMPDEST PUSH1 0x11 DUP1 SLOAD SWAP1 DUP4 SWAP1 SSTORE PUSH1 0x40 DUP1 MLOAD DUP3 DUP2 MSTORE PUSH1 0x20 DUP2 ADD DUP6 SWAP1 MSTORE PUSH32 0x78F1461296BAD7BD716A7673AA3E659CC091C348A7ED4CFEF7CE452C3052F2FB SWAP2 ADD PUSH2 0xD5E JUMP JUMPDEST PUSH1 0x5 SLOAD PUSH1 0x1 PUSH1 0x1 PUSH1 0xA0 SHL SUB AND CALLER EQ PUSH2 0x1026 JUMPI PUSH1 0x40 MLOAD PUSH3 0x461BCD PUSH1 0xE5 SHL DUP2 MSTORE PUSH1 0x4 ADD PUSH2 0xA52 SWAP1 PUSH2 0x3621 JUMP JUMPDEST PUSH1 0x1 PUSH1 0x1 PUSH1 0xA0 SHL SUB DUP2 AND PUSH0 SWAP1 DUP2 MSTORE PUSH1 0x9 PUSH1 0x20 MSTORE PUSH1 0x40 SWAP1 KECCAK256 SLOAD PUSH1 0xFF AND ISZERO PUSH2 0x108E JUMPI PUSH1 0x40 MLOAD PUSH3 0x461BCD PUSH1 0xE5 SHL DUP2 MSTORE PUSH1 0x20 PUSH1 0x4 DUP3 ADD MSTORE PUSH1 0x1B PUSH1 0x24 DUP3 ADD MSTORE PUSH32 0x4163636F756E7420697320616C7265616479206578636C756465640000000000 PUSH1 0x44 DUP3 ADD MSTORE PUSH1 0x64 ADD PUSH2 0xA52 JUMP JUMPDEST ADDRESS PUSH1 0x1 PUSH1 0x1 PUSH1 0xA0 SHL SUB DUP3 AND SUB PUSH2 0x1102 JUMPI PUSH1 0x40 MLOAD PUSH3 0x461BCD PUSH1 0xE5 SHL DUP2 MSTORE PUSH1 0x20 PUSH1 0x4 DUP3 ADD MSTORE PUSH1 0x33 PUSH1 0x24 DUP3 ADD MSTORE PUSH32 0x436F6E747261637420616464726573732063616E6E6F74206265206578636C75 PUSH1 0x44 DUP3 ADD MSTORE PUSH19 0x3232B210333937B6903932B33632B1BA34B7B7 PUSH1 0x69 SHL PUSH1 0x64 DUP3 ADD MSTORE PUSH1 0x84 ADD PUSH2 0xA52 JUMP JUMPDEST PUSH1 0x1 PUSH1 0x1 PUSH1 0xA0 SHL SUB DUP2 AND PUSH0 SWAP1 DUP2 MSTORE PUSH1 0x6 PUSH1 0x20 MSTORE PUSH1 0x40 SWAP1 KECCAK256 SLOAD ISZERO PUSH2 0x1159 JUMPI PUSH1 0x1 PUSH1 0x1 PUSH1 0xA0 SHL SUB DUP2 AND PUSH0 SWAP1 DUP2 MSTORE PUSH1 0x6 PUSH1 0x20 MSTORE PUSH1 0x40 SWAP1 KECCAK256 SLOAD PUSH2 0x1140 SWAP1 PUSH2 0x2740 JUMP JUMPDEST PUSH1 0x1 PUSH1 0x1 PUSH1 0xA0 SHL SUB DUP3 AND PUSH0 SWAP1 DUP2 MSTORE PUSH1 0x7 PUSH1 0x20 MSTORE PUSH1 0x40 SWAP1 KECCAK256 SSTORE JUMPDEST PUSH1 0x1 PUSH1 0x1 PUSH1 0xA0 SHL SUB AND PUSH0 DUP2 DUP2 MSTORE PUSH1 0x9 PUSH1 0x20 MSTORE PUSH1 0x40 DUP2 KECCAK256 DUP1 SLOAD PUSH1 0xFF NOT AND PUSH1 0x1 SWAP1 DUP2 OR SWAP1 SWAP2 SSTORE PUSH1 0xA DUP1 SLOAD SWAP2 DUP3 ADD DUP2 SSTORE SWAP1 SWAP2 MSTORE PUSH32 0xC65A7BB8D6351C1CF70C95A316CC6A92839C986682D98BC35F958F4883F9D2A8 ADD DUP1 SLOAD PUSH1 0x1 PUSH1 0x1 PUSH1 0xA0 SHL SUB NOT AND SWAP1 SWAP2 OR SWAP1 SSTORE JUMP JUMPDEST PUSH1 0x5 SLOAD PUSH1 0x1 PUSH1 0x1 PUSH1 0xA0 SHL SUB AND CALLER EQ PUSH2 0x11E8 JUMPI PUSH1 0x40 MLOAD PUSH3 0x461BCD PUSH1 0xE5 SHL DUP2 MSTORE PUSH1 0x4 ADD PUSH2 0xA52 SWAP1 PUSH2 0x3621 JUMP JUMPDEST PUSH0 PUSH1 0x1B SLOAD PUSH1 0x19 SLOAD DUP4 PUSH1 0x15 SLOAD PUSH1 0x13 SLOAD PUSH1 0x11 SLOAD PUSH2 0x1203 SWAP2 SWAP1 PUSH2 0x35D6 JUMP JUMPDEST PUSH2 0x120D SWAP2 SWAP1 PUSH2 0x35D6 JUMP JUMPDEST PUSH2 0x1217 SWAP2 SWAP1 PUSH2 0x35D6 JUMP JUMPDEST PUSH2 0x1221 SWAP2 SWAP1 PUSH2 0x35D6 JUMP JUMPDEST PUSH2 0x122B SWAP2 SWAP1 PUSH2 0x35D6 JUMP JUMPDEST SWAP1 POP PUSH1 0x6 DUP2 GT ISZERO PUSH2 0x124E JUMPI PUSH1 0x40 MLOAD PUSH3 0x461BCD PUSH1 0xE5 SHL DUP2 MSTORE PUSH1 0x4 ADD PUSH2 0xA52 SWAP1 PUSH2 0x3656 JUMP JUMPDEST PUSH1 0x17 DUP1 SLOAD SWAP1 DUP4 SWAP1 SSTORE PUSH1 0x1B SLOAD PUSH1 0x19 SLOAD PUSH1 0x15 SLOAD PUSH2 0x126A SWAP1 DUP7 SWAP1 PUSH2 0x35D6 JUMP JUMPDEST PUSH2 0x1274 SWAP2 SWAP1 PUSH2 0x35D6 JUMP JUMPDEST PUSH2 0x127E SWAP2 SWAP1 PUSH2 0x35D6 JUMP JUMPDEST PUSH1 0x1D SSTORE PUSH1 0x40 DUP1 MLOAD DUP3 DUP2 MSTORE PUSH1 0x20 DUP2 ADD DUP6 SWAP1 MSTORE PUSH32 0x43102402B1EF1EA68F92A353DE80186B92415038542AF2E8D748F8D6C525032 SWAP2 ADD PUSH2 0xD5E JUMP JUMPDEST PUSH1 0x5 SLOAD PUSH1 0x1 PUSH1 0x1 PUSH1 0xA0 SHL SUB AND CALLER EQ PUSH2 0x12E1 JUMPI PUSH1 0x40 MLOAD PUSH3 0x461BCD PUSH1 0xE5 SHL DUP2 MSTORE PUSH1 0x4 ADD PUSH2 0xA52 SWAP1 PUSH2 0x3621 JUMP JUMPDEST PUSH0 PUSH1 0x1B SLOAD DUP3 PUSH1 0x17 SLOAD PUSH1 0x15 SLOAD PUSH1 0x13 SLOAD PUSH1 0x11 SLOAD PUSH2 0x12FC SWAP2 SWAP1 PUSH2 0x35D6 JUMP JUMPDEST PUSH2 0x1306 SWAP2 SWAP1 PUSH2 0x35D6 JUMP JUMPDEST PUSH2 0x1310 SWAP2 SWAP1 PUSH2 0x35D6 JUMP JUMPDEST PUSH2 0x131A SWAP2 SWAP1 PUSH2 0x35D6 JUMP JUMPDEST PUSH2 0x1324 SWAP2 SWAP1 PUSH2 0x35D6 JUMP JUMPDEST SWAP1 POP PUSH1 0x6 DUP2 GT ISZERO PUSH2 0x1347 JUMPI PUSH1 0x40 MLOAD PUSH3 0x461BCD PUSH1 0xE5 SHL DUP2 MSTORE PUSH1 0x4 ADD PUSH2 0xA52 SWAP1 PUSH2 0x3656 JUMP JUMPDEST PUSH1 0x19 DUP1 SLOAD SWAP1 DUP4 SWAP1 SSTORE PUSH1 0x1B SLOAD PUSH1 0x17 SLOAD PUSH1 0x15 SLOAD DUP6 SWAP2 PUSH2 0x1363 SWAP2 PUSH2 0x35D6 JUMP JUMPDEST PUSH2 0x136D SWAP2 SWAP1 PUSH2 0x35D6 JUMP JUMPDEST PUSH2 0x1377 SWAP2 SWAP1 PUSH2 0x35D6 JUMP JUMPDEST PUSH1 0x1D SSTORE PUSH1 0x40 DUP1 MLOAD DUP3 DUP2 MSTORE PUSH1 0x20 DUP2 ADD DUP6 SWAP1 MSTORE PUSH32 0xC9D63693638BFC625DE9BE66171E4BF76AD4D474AC6BEF7CD4C766747CD0075F SWAP2 ADD PUSH2 0xD5E JUMP JUMPDEST PUSH1 0x1 PUSH1 0x1 PUSH1 0xA0 SHL SUB DUP2 AND PUSH0 SWAP1 DUP2 MSTORE PUSH1 0x9 PUSH1 0x20 MSTORE PUSH1 0x40 DUP2 KECCAK256 SLOAD PUSH1 0xFF AND ISZERO PUSH2 0x13EB JUMPI POP PUSH1 0x1 PUSH1 0x1 PUSH1 0xA0 SHL SUB AND PUSH0 SWAP1 DUP2 MSTORE PUSH1 0x7 PUSH1 0x20 MSTORE PUSH1 0x40 SWAP1 KECCAK256 SLOAD SWAP1 JUMP JUMPDEST PUSH1 0x1 PUSH1 0x1 PUSH1 0xA0 SHL SUB DUP3 AND PUSH0 SWAP1 DUP2 MSTORE PUSH1 0x6 PUSH1 0x20 MSTORE PUSH1 0x40 SWAP1 KECCAK256 SLOAD PUSH2 0xB6D SWAP1 PUSH2 0x2740 JUMP JUMPDEST PUSH1 0x5 SLOAD PUSH1 0x1 PUSH1 0x1 PUSH1 0xA0 SHL SUB AND CALLER EQ PUSH2 0x1436 JUMPI PUSH1 0x40 MLOAD PUSH3 0x461BCD PUSH1 0xE5 SHL DUP2 MSTORE PUSH1 0x4 ADD PUSH2 0xA52 SWAP1 PUSH2 0x3621 JUMP JUMPDEST PUSH2 0x143F PUSH0 PUSH2 0x27C2 JUMP JUMPDEST JUMP JUMPDEST PUSH0 PUSH2 0x144C DUP4 CALLER PUSH2 0x8DF JUMP JUMPDEST SWAP1 POP DUP2 DUP2 LT ISZERO PUSH2 0x14AA JUMPI PUSH1 0x40 MLOAD PUSH3 0x461BCD PUSH1 0xE5 SHL DUP2 MSTORE PUSH1 0x20 PUSH1 0x4 DUP3 ADD MSTORE PUSH1 0x24 DUP1 DUP3 ADD MSTORE PUSH32 0x45524332303A206275726E20616D6F756E74206578636565647320616C6C6F77 PUSH1 0x44 DUP3 ADD MSTORE PUSH4 0x616E6365 PUSH1 0xE0 SHL PUSH1 0x64 DUP3 ADD MSTORE PUSH1 0x84 ADD PUSH2 0xA52 JUMP JUMPDEST PUSH2 0x14B7 DUP4 CALLER DUP5 DUP5 SUB PUSH2 0x2148 JUMP JUMPDEST PUSH2 0x14C1 DUP4 DUP4 PUSH2 0x2572 JUMP JUMPDEST POP POP POP JUMP JUMPDEST PUSH1 0x5 SLOAD PUSH1 0x1 PUSH1 0x1 PUSH1 0xA0 SHL SUB AND CALLER EQ PUSH2 0x14F0 JUMPI PUSH1 0x40 MLOAD PUSH3 0x461BCD PUSH1 0xE5 SHL DUP2 MSTORE PUSH1 0x4 ADD PUSH2 0xA52 SWAP1 PUSH2 0x3621 JUMP JUMPDEST PUSH1 0x1 PUSH1 0x1 PUSH1 0xA0 SHL SUB DUP2 AND PUSH2 0x155B JUMPI PUSH1 0x40 MLOAD PUSH3 0x461BCD PUSH1 0xE5 SHL DUP2 MSTORE PUSH1 0x20 PUSH1 0x4 DUP3 ADD MSTORE PUSH1 0x2C PUSH1 0x24 DUP3 ADD MSTORE PUSH32 0x4D61726B6574696E6720616464726573732063616E6E6F742062652074686520 PUSH1 0x44 DUP3 ADD MSTORE PUSH12 0x7A65726F2061646472657373 PUSH1 0xA0 SHL PUSH1 0x64 DUP3 ADD MSTORE PUSH1 0x84 ADD PUSH2 0xA52 JUMP JUMPDEST PUSH1 0xB DUP1 SLOAD PUSH1 0x1 PUSH1 0x1 PUSH1 0xA0 SHL SUB DUP4 DUP2 AND PUSH1 0x1 PUSH1 0x1 PUSH1 0xA0 SHL SUB NOT DUP4 AND DUP2 OR SWAP1 SWAP4 SSTORE PUSH1 0x40 DUP1 MLOAD SWAP2 SWAP1 SWAP3 AND DUP1 DUP3 MSTORE PUSH1 0x20 DUP3 ADD SWAP4 SWAP1 SWAP4 MSTORE PUSH32 0xA8EFC72ED34F90017DF79620D1972D42B8E3B17EB0077FC5FC46CBF1A19ED9A9 SWAP2 ADD PUSH2 0xC5C JUMP JUMPDEST PUSH1 0x60 PUSH1 0x4 DUP1 SLOAD PUSH2 0xADC SWAP1 PUSH2 0x35E9 JUMP JUMPDEST CALLER PUSH0 SWAP1 DUP2 MSTORE PUSH1 0x1 PUSH1 0x20 SWAP1 DUP2 MSTORE PUSH1 0x40 DUP1 DUP4 KECCAK256 PUSH1 0x1 PUSH1 0x1 PUSH1 0xA0 SHL SUB DUP7 AND DUP5 MSTORE SWAP1 SWAP2 MSTORE DUP2 KECCAK256 SLOAD DUP3 DUP2 LT ISZERO PUSH2 0x1645 JUMPI PUSH1 0x40 MLOAD PUSH3 0x461BCD PUSH1 0xE5 SHL DUP2 MSTORE PUSH1 0x20 PUSH1 0x4 DUP3 ADD MSTORE PUSH1 0x25 PUSH1 0x24 DUP3 ADD MSTORE PUSH32 0x45524332303A2064656372656173656420616C6C6F77616E63652062656C6F77 PUSH1 0x44 DUP3 ADD MSTORE PUSH5 0x207A65726F PUSH1 0xD8 SHL PUSH1 0x64 DUP3 ADD MSTORE PUSH1 0x84 ADD PUSH2 0xA52 JUMP JUMPDEST PUSH2 0x1652 CALLER DUP6 DUP6 DUP5 SUB PUSH2 0x2148 JUMP JUMPDEST POP PUSH1 0x1 SWAP4 SWAP3 POP POP POP JUMP JUMPDEST PUSH0 PUSH2 0xB69 CALLER DUP5 DUP5 PUSH2 0x226B JUMP JUMPDEST PUSH1 0x5 SLOAD PUSH1 0x1 PUSH1 0x1 PUSH1 0xA0 SHL SUB AND CALLER EQ PUSH2 0x1692 JUMPI PUSH1 0x40 MLOAD PUSH3 0x461BCD PUSH1 0xE5 SHL DUP2 MSTORE PUSH1 0x4 ADD PUSH2 0xA52 SWAP1 PUSH2 0x3621 JUMP JUMPDEST PUSH0 PUSH1 0x1B SLOAD PUSH1 0x19 SLOAD PUSH1 0x17 SLOAD DUP5 PUSH1 0x13 SLOAD PUSH1 0x11 SLOAD PUSH2 0x16AD SWAP2 SWAP1 PUSH2 0x35D6 JUMP JUMPDEST PUSH2 0x16B7 SWAP2 SWAP1 PUSH2 0x35D6 JUMP JUMPDEST PUSH2 0x16C1 SWAP2 SWAP1 PUSH2 0x35D6 JUMP JUMPDEST PUSH2 0x16CB SWAP2 SWAP1 PUSH2 0x35D6 JUMP JUMPDEST PUSH2 0x16D5 SWAP2 SWAP1 PUSH2 0x35D6 JUMP JUMPDEST SWAP1 POP PUSH1 0x6 DUP2 GT ISZERO PUSH2 0x16F8 JUMPI PUSH1 0x40 MLOAD PUSH3 0x461BCD PUSH1 0xE5 SHL DUP2 MSTORE PUSH1 0x4 ADD PUSH2 0xA52 SWAP1 PUSH2 0x3656 JUMP JUMPDEST PUSH1 0x15 DUP1 SLOAD SWAP1 DUP4 SWAP1 SSTORE PUSH1 0x1B SLOAD PUSH1 0x19 SLOAD PUSH1 0x17 SLOAD PUSH2 0x1713 SWAP1 DUP7 PUSH2 0x35D6 JUMP JUMPDEST PUSH2 0x171D SWAP2 SWAP1 PUSH2 0x35D6 JUMP JUMPDEST PUSH2 0x1727 SWAP2 SWAP1 PUSH2 0x35D6 JUMP JUMPDEST PUSH1 0x1D SSTORE PUSH1 0x40 DUP1 MLOAD DUP3 DUP2 MSTORE PUSH1 0x20 DUP2 ADD DUP6 SWAP1 MSTORE PUSH32 0xD72BB987241D30EFE97862FAE5C01605397A36024557BBAE8EBEDEC081678BC2 SWAP2 ADD PUSH2 0xD5E JUMP JUMPDEST PUSH1 0x5 SLOAD PUSH1 0x1 PUSH1 0x1 PUSH1 0xA0 SHL SUB AND CALLER EQ PUSH2 0x178A JUMPI PUSH1 0x40 MLOAD PUSH3 0x461BCD PUSH1 0xE5 SHL DUP2 MSTORE PUSH1 0x4 ADD PUSH2 0xA52 SWAP1 PUSH2 0x3621 JUMP JUMPDEST PUSH1 0x22 DUP1 SLOAD DUP3 ISZERO ISZERO PUSH2 0x100 MUL PUSH2 0xFF00 NOT SWAP1 SWAP2 AND OR SWAP1 SSTORE PUSH1 0x40 MLOAD PUSH32 0x53726DFCAF90650AA7EB35524F4D3220F07413C8D6CB404CC8C18BF5591BC159 SWAP1 PUSH2 0x17D3 SWAP1 DUP4 ISZERO ISZERO DUP2 MSTORE PUSH1 0x20 ADD SWAP1 JUMP JUMPDEST PUSH1 0x40 MLOAD DUP1 SWAP2 SUB SWAP1 LOG1 POP JUMP JUMPDEST PUSH1 0x5 SLOAD PUSH1 0x1 PUSH1 0x1 PUSH1 0xA0 SHL SUB AND CALLER EQ PUSH2 0x1808 JUMPI PUSH1 0x40 MLOAD PUSH3 0x461BCD PUSH1 0xE5 SHL DUP2 MSTORE PUSH1 0x4 ADD PUSH2 0xA52 SWAP1 PUSH2 0x3621 JUMP JUMPDEST PUSH1 0xC SLOAD PUSH1 0x40 MLOAD SELFBALANCE SWAP2 PUSH0 SWAP2 PUSH1 0x1 PUSH1 0x1 PUSH1 0xA0 SHL SUB SWAP1 SWAP2 AND SWAP1 DUP4 SWAP1 DUP4 DUP2 DUP2 DUP2 DUP6 DUP8 GAS CALL SWAP3 POP POP POP RETURNDATASIZE DUP1 PUSH0 DUP2 EQ PUSH2 0x1856 JUMPI PUSH1 0x40 MLOAD SWAP2 POP PUSH1 0x1F NOT PUSH1 0x3F RETURNDATASIZE ADD AND DUP3 ADD PUSH1 0x40 MSTORE RETURNDATASIZE DUP3 MSTORE RETURNDATASIZE PUSH0 PUSH1 0x20 DUP5 ADD RETURNDATACOPY PUSH2 0x185B JUMP JUMPDEST PUSH1 0x60 SWAP2 POP JUMPDEST POP POP SWAP1 POP DUP1 PUSH2 0x189E JUMPI PUSH1 0x40 MLOAD PUSH3 0x461BCD PUSH1 0xE5 SHL DUP2 MSTORE PUSH1 0x20 PUSH1 0x4 DUP3 ADD MSTORE PUSH1 0xF PUSH1 0x24 DUP3 ADD MSTORE PUSH15 0x151C985B9CD9995C8819985A5B1959 PUSH1 0x8A SHL PUSH1 0x44 DUP3 ADD MSTORE PUSH1 0x64 ADD PUSH2 0xA52 JUMP JUMPDEST PUSH1 0xC SLOAD PUSH1 0x40 DUP1 MLOAD DUP2 DUP2 MSTORE PUSH1 0x2E SWAP2 DUP2 ADD SWAP2 SWAP1 SWAP2 MSTORE PUSH32 0x57652068617665207265636F7665726564207468652073746F636B2045544820 PUSH1 0x60 DUP3 ADD MSTORE PUSH14 0x333937B69031B7B73A3930B1BA17 PUSH1 0x91 SHL PUSH1 0x80 DUP3 ADD MSTORE PUSH1 0x1 PUSH1 0x1 PUSH1 0xA0 SHL SUB SWAP1 SWAP2 AND PUSH1 0x20 DUP3 ADD MSTORE PUSH32 0x25DBD6AD989FE1A64DB7DC049E29723FF9D35A97D84AE9AAB96196F00EC1A00 SWAP1 PUSH1 0xA0 ADD PUSH2 0xC5C JUMP JUMPDEST PUSH1 0x5 SLOAD PUSH1 0x1 PUSH1 0x1 PUSH1 0xA0 SHL SUB AND CALLER EQ PUSH2 0x1952 JUMPI PUSH1 0x40 MLOAD PUSH3 0x461BCD PUSH1 0xE5 SHL DUP2 MSTORE PUSH1 0x4 ADD PUSH2 0xA52 SWAP1 PUSH2 0x3621 JUMP JUMPDEST PUSH1 0x1 PUSH1 0x1 PUSH1 0xA0 SHL SUB DUP2 AND PUSH2 0x19BD JUMPI PUSH1 0x40 MLOAD PUSH3 0x461BCD PUSH1 0xE5 SHL DUP2 MSTORE PUSH1 0x20 PUSH1 0x4 DUP3 ADD MSTORE PUSH1 0x2C PUSH1 0x24 DUP3 ADD MSTORE PUSH32 0x446576656C6F70657220616464726573732063616E6E6F742062652074686520 PUSH1 0x44 DUP3 ADD MSTORE PUSH12 0x7A65726F2061646472657373 PUSH1 0xA0 SHL PUSH1 0x64 DUP3 ADD MSTORE PUSH1 0x84 ADD PUSH2 0xA52 JUMP JUMPDEST PUSH1 0xC DUP1 SLOAD PUSH1 0x1 PUSH1 0x1 PUSH1 0xA0 SHL SUB DUP4 DUP2 AND PUSH1 0x1 PUSH1 0x1 PUSH1 0xA0 SHL SUB NOT DUP4 AND DUP2 OR SWAP1 SWAP4 SSTORE PUSH1 0x40 DUP1 MLOAD SWAP2 SWAP1 SWAP3 AND DUP1 DUP3 MSTORE PUSH1 0x20 DUP3 ADD SWAP4 SWAP1 SWAP4 MSTORE PUSH32 0x9A8FCE0F201607A626CC555EF244D8ED346D879D2141B2964C3A955650554AE0 SWAP2 ADD PUSH2 0xC5C JUMP JUMPDEST PUSH1 0x5 SLOAD PUSH1 0x1 PUSH1 0x1 PUSH1 0xA0 SHL SUB AND CALLER EQ PUSH2 0x1A41 JUMPI PUSH1 0x40 MLOAD PUSH3 0x461BCD PUSH1 0xE5 SHL DUP2 MSTORE PUSH1 0x4 ADD PUSH2 0xA52 SWAP1 PUSH2 0x3621 JUMP JUMPDEST PUSH0 PUSH1 0x1B SLOAD PUSH1 0x19 SLOAD PUSH1 0x17 SLOAD PUSH1 0x15 SLOAD DUP6 PUSH1 0x11 SLOAD PUSH2 0x1A5C SWAP2 SWAP1 PUSH2 0x35D6 JUMP JUMPDEST PUSH2 0x1A66 SWAP2 SWAP1 PUSH2 0x35D6 JUMP JUMPDEST PUSH2 0x1A70 SWAP2 SWAP1 PUSH2 0x35D6 JUMP JUMPDEST PUSH2 0x1A7A SWAP2 SWAP1 PUSH2 0x35D6 JUMP JUMPDEST PUSH2 0x1A84 SWAP2 SWAP1 PUSH2 0x35D6 JUMP JUMPDEST SWAP1 POP PUSH1 0x6 DUP2 GT ISZERO PUSH2 0x1AA7 JUMPI PUSH1 0x40 MLOAD PUSH3 0x461BCD PUSH1 0xE5 SHL DUP2 MSTORE PUSH1 0x4 ADD PUSH2 0xA52 SWAP1 PUSH2 0x3656 JUMP JUMPDEST PUSH1 0x13 DUP1 SLOAD SWAP1 DUP4 SWAP1 SSTORE PUSH1 0x40 DUP1 MLOAD DUP3 DUP2 MSTORE PUSH1 0x20 DUP2 ADD DUP6 SWAP1 MSTORE PUSH32 0x2C52CA41E4D19E67555BE53873512BB32CA77E9E6D56B69361D6AC621A8834D1 SWAP2 ADD PUSH2 0xD5E JUMP JUMPDEST PUSH1 0x5 SLOAD PUSH1 0x1 PUSH1 0x1 PUSH1 0xA0 SHL SUB AND CALLER EQ PUSH2 0x1B0F JUMPI PUSH1 0x40 MLOAD PUSH3 0x461BCD PUSH1 0xE5 SHL DUP2 MSTORE PUSH1 0x4 ADD PUSH2 0xA52 SWAP1 PUSH2 0x3621 JUMP JUMPDEST ADDRESS PUSH1 0x1 PUSH1 0x1 PUSH1 0xA0 SHL SUB DUP4 AND SUB PUSH2 0x1B86 JUMPI PUSH1 0x40 MLOAD PUSH3 0x461BCD PUSH1 0xE5 SHL DUP2 MSTORE PUSH1 0x20 PUSH1 0x4 DUP3 ADD MSTORE PUSH1 0x36 PUSH1 0x24 DUP3 ADD MSTORE PUSH32 0x4F776E65722063616E277420636C61696D20636F6E747261637427732062616C PUSH1 0x44 DUP3 ADD MSTORE PUSH22 0x616E6365206F6620697473206F776E20746F6B656E73 PUSH1 0x50 SHL PUSH1 0x64 DUP3 ADD MSTORE PUSH1 0x84 ADD PUSH2 0xA52 JUMP JUMPDEST PUSH1 0xC SLOAD PUSH1 0x40 MLOAD PUSH4 0xA9059CBB PUSH1 0xE0 SHL DUP2 MSTORE PUSH1 0x1 PUSH1 0x1 PUSH1 0xA0 SHL SUB SWAP2 DUP3 AND PUSH1 0x4 DUP3 ADD MSTORE PUSH1 0x24 DUP2 ADD DUP4 SWAP1 MSTORE PUSH0 SWAP2 DUP5 AND SWAP1 PUSH4 0xA9059CBB SWAP1 PUSH1 0x44 ADD PUSH1 0x20 PUSH1 0x40 MLOAD DUP1 DUP4 SUB DUP2 PUSH0 DUP8 GAS CALL ISZERO DUP1 ISZERO PUSH2 0x1BD7 JUMPI RETURNDATASIZE PUSH0 DUP1 RETURNDATACOPY RETURNDATASIZE PUSH0 REVERT JUMPDEST POP POP POP POP PUSH1 0x40 MLOAD RETURNDATASIZE PUSH1 0x1F NOT PUSH1 0x1F DUP3 ADD AND DUP3 ADD DUP1 PUSH1 0x40 MSTORE POP DUP2 ADD SWAP1 PUSH2 0x1BFB SWAP2 SWAP1 PUSH2 0x368D JUMP JUMPDEST SWAP1 POP DUP1 PUSH2 0x1C3C JUMPI PUSH1 0x40 MLOAD PUSH3 0x461BCD PUSH1 0xE5 SHL DUP2 MSTORE PUSH1 0x20 PUSH1 0x4 DUP3 ADD MSTORE PUSH1 0xF PUSH1 0x24 DUP3 ADD MSTORE PUSH15 0x151C985B9CD9995C8819985A5B1959 PUSH1 0x8A SHL PUSH1 0x44 DUP3 ADD MSTORE PUSH1 0x64 ADD PUSH2 0xA52 JUMP JUMPDEST PUSH1 0x40 DUP1 MLOAD DUP2 DUP2 MSTORE PUSH1 0x27 SWAP2 DUP2 ADD SWAP2 SWAP1 SWAP2 MSTORE PUSH32 0x57652068617665207265636F766572656420746F6B656E732066726F6D20636F PUSH1 0x60 DUP3 ADD MSTORE PUSH7 0x373A3930B1BA1D PUSH1 0xC9 SHL PUSH1 0x80 DUP3 ADD MSTORE PUSH1 0x20 DUP2 ADD DUP4 SWAP1 MSTORE PUSH32 0xDD970DD9B5BFE707922155B058A407655CB18288B807E2216442BCA8AD83D6B5 SWAP1 PUSH1 0xA0 ADD PUSH2 0xD5E JUMP JUMPDEST PUSH1 0x5 SLOAD PUSH1 0x1 PUSH1 0x1 PUSH1 0xA0 SHL SUB AND CALLER EQ PUSH2 0x1CDD JUMPI PUSH1 0x40 MLOAD PUSH3 0x461BCD PUSH1 0xE5 SHL DUP2 MSTORE PUSH1 0x4 ADD PUSH2 0xA52 SWAP1 PUSH2 0x3621 JUMP JUMPDEST PUSH1 0x1 PUSH1 0x1 PUSH1 0xA0 SHL SUB AND PUSH0 SWAP1 DUP2 MSTORE PUSH1 0x8 PUSH1 0x20 MSTORE PUSH1 0x40 SWAP1 KECCAK256 DUP1 SLOAD PUSH1 0xFF NOT AND SWAP1 SSTORE JUMP JUMPDEST PUSH1 0x5 SLOAD PUSH1 0x1 PUSH1 0x1 PUSH1 0xA0 SHL SUB AND CALLER EQ PUSH2 0x1D27 JUMPI PUSH1 0x40 MLOAD PUSH3 0x461BCD PUSH1 0xE5 SHL DUP2 MSTORE PUSH1 0x4 ADD PUSH2 0xA52 SWAP1 PUSH2 0x3621 JUMP JUMPDEST PUSH2 0x3E8 PUSH1 0xE SLOAD PUSH1 0x1 PUSH2 0x1D39 SWAP2 SWAP1 PUSH2 0x36A8 JUMP JUMPDEST PUSH2 0x1D43 SWAP2 SWAP1 PUSH2 0x36BF JUMP JUMPDEST DUP2 LT ISZERO PUSH2 0x1DB8 JUMPI PUSH1 0x40 MLOAD PUSH3 0x461BCD PUSH1 0xE5 SHL DUP2 MSTORE PUSH1 0x20 PUSH1 0x4 DUP3 ADD MSTORE PUSH1 0x38 PUSH1 0x24 DUP3 ADD MSTORE PUSH32 0x4D61785478416D6F756E742073686F756C64206265206174206C656173742030 PUSH1 0x44 DUP3 ADD MSTORE PUSH32 0x2E3125206F662074686520746F74616C20737570706C792E0000000000000000 PUSH1 0x64 DUP3 ADD MSTORE PUSH1 0x84 ADD PUSH2 0xA52 JUMP JUMPDEST PUSH1 0x1F DUP1 SLOAD SWAP1 DUP3 SWAP1 SSTORE PUSH1 0x40 DUP1 MLOAD DUP3 DUP2 MSTORE PUSH1 0x20 DUP2 ADD DUP5 SWAP1 MSTORE PUSH32 0xADCF01123294F8514884E924E20EB4F3032288087368896A17C71F09668247C8 SWAP2 ADD PUSH2 0xC5C JUMP JUMPDEST PUSH1 0x5 SLOAD PUSH1 0x1 PUSH1 0x1 PUSH1 0xA0 SHL SUB AND CALLER EQ PUSH2 0x1E20 JUMPI PUSH1 0x40 MLOAD PUSH3 0x461BCD PUSH1 0xE5 SHL DUP2 MSTORE PUSH1 0x4 ADD PUSH2 0xA52 SWAP1 PUSH2 0x3621 JUMP JUMPDEST DUP1 ISZERO PUSH2 0x1E48 JUMPI PUSH2 0x1E2F PUSH0 PUSH2 0x1760 JUMP JUMPDEST PUSH2 0x1E37 PUSH2 0x2813 JUMP JUMPDEST PUSH1 0x1F SLOAD PUSH1 0x20 SSTORE PUSH1 0xE SLOAD PUSH1 0x1F SSTORE PUSH2 0x1E88 JUMP JUMPDEST PUSH2 0x1E52 PUSH1 0x1 PUSH2 0x1760 JUMP JUMPDEST PUSH2 0x1E81 PUSH1 0x1E SLOAD PUSH1 0x1D SSTORE PUSH1 0x16 SLOAD PUSH1 0x15 SSTORE PUSH1 0x12 SLOAD PUSH1 0x11 SSTORE PUSH1 0x14 SLOAD PUSH1 0x13 SSTORE PUSH1 0x18 SLOAD PUSH1 0x17 SSTORE PUSH1 0x1A SLOAD PUSH1 0x19 SSTORE PUSH1 0x1C SLOAD PUSH1 0x1B SSTORE JUMP JUMPDEST PUSH1 0x20 SLOAD PUSH1 0x1F SSTORE JUMPDEST PUSH1 0x40 MLOAD DUP2 ISZERO ISZERO DUP2 MSTORE PUSH32 0x754DB841CD0BA8B9D7311DC4B5C8CD44B1FF98BCB4E1D8D9CAB86566BCE3A1FA SWAP1 PUSH1 0x20 ADD PUSH2 0x17D3 JUMP JUMPDEST PUSH1 0x5 SLOAD PUSH1 0x1 PUSH1 0x1 PUSH1 0xA0 SHL SUB AND CALLER EQ PUSH2 0x1EE4 JUMPI PUSH1 0x40 MLOAD PUSH3 0x461BCD PUSH1 0xE5 SHL DUP2 MSTORE PUSH1 0x4 ADD PUSH2 0xA52 SWAP1 PUSH2 0x3621 JUMP JUMPDEST PUSH1 0x1 PUSH1 0x1 PUSH1 0xA0 SHL SUB DUP2 AND PUSH2 0x1F49 JUMPI PUSH1 0x40 MLOAD PUSH3 0x461BCD PUSH1 0xE5 SHL DUP2 MSTORE PUSH1 0x20 PUSH1 0x4 DUP3 ADD MSTORE PUSH1 0x26 PUSH1 0x24 DUP3 ADD MSTORE PUSH32 0x4F776E61626C653A206E6577206F776E657220697320746865207A65726F2061 PUSH1 0x44 DUP3 ADD MSTORE PUSH6 0x646472657373 PUSH1 0xD0 SHL PUSH1 0x64 DUP3 ADD MSTORE PUSH1 0x84 ADD PUSH2 0xA52 JUMP JUMPDEST PUSH2 0xE58 DUP2 PUSH2 0x27C2 JUMP JUMPDEST PUSH1 0x5 SLOAD PUSH1 0x1 PUSH1 0x1 PUSH1 0xA0 SHL SUB AND CALLER EQ PUSH2 0x1F7C JUMPI PUSH1 0x40 MLOAD PUSH3 0x461BCD PUSH1 0xE5 SHL DUP2 MSTORE PUSH1 0x4 ADD PUSH2 0xA52 SWAP1 PUSH2 0x3621 JUMP JUMPDEST PUSH1 0x1 PUSH1 0x1 PUSH1 0xA0 SHL SUB DUP2 AND PUSH0 SWAP1 DUP2 MSTORE PUSH1 0x9 PUSH1 0x20 MSTORE PUSH1 0x40 SWAP1 KECCAK256 SLOAD PUSH1 0xFF AND PUSH2 0x1FE3 JUMPI PUSH1 0x40 MLOAD PUSH3 0x461BCD PUSH1 0xE5 SHL DUP2 MSTORE PUSH1 0x20 PUSH1 0x4 DUP3 ADD MSTORE PUSH1 0x1B PUSH1 0x24 DUP3 ADD MSTORE PUSH32 0x4163636F756E7420697320616C726561647920696E636C756465640000000000 PUSH1 0x44 DUP3 ADD MSTORE PUSH1 0x64 ADD PUSH2 0xA52 JUMP JUMPDEST PUSH0 JUMPDEST PUSH1 0xA SLOAD DUP2 LT ISZERO PUSH2 0x20F3 JUMPI DUP2 PUSH1 0x1 PUSH1 0x1 PUSH1 0xA0 SHL SUB AND PUSH1 0xA DUP3 DUP2 SLOAD DUP2 LT PUSH2 0x200C JUMPI PUSH2 0x200C PUSH2 0x36DE JUMP JUMPDEST PUSH0 SWAP2 DUP3 MSTORE PUSH1 0x20 SWAP1 SWAP2 KECCAK256 ADD SLOAD PUSH1 0x1 PUSH1 0x1 PUSH1 0xA0 SHL SUB AND SUB PUSH2 0x20EB JUMPI PUSH1 0xA DUP1 SLOAD PUSH2 0x2035 SWAP1 PUSH1 0x1 SWAP1 PUSH2 0x35C3 JUMP JUMPDEST DUP2 SLOAD DUP2 LT PUSH2 0x2045 JUMPI PUSH2 0x2045 PUSH2 0x36DE JUMP JUMPDEST PUSH0 SWAP2 DUP3 MSTORE PUSH1 0x20 SWAP1 SWAP2 KECCAK256 ADD SLOAD PUSH1 0xA DUP1 SLOAD PUSH1 0x1 PUSH1 0x1 PUSH1 0xA0 SHL SUB SWAP1 SWAP3 AND SWAP2 DUP4 SWAP1 DUP2 LT PUSH2 0x2070 JUMPI PUSH2 0x2070 PUSH2 0x36DE JUMP JUMPDEST PUSH0 SWAP2 DUP3 MSTORE PUSH1 0x20 DUP1 DUP4 KECCAK256 SWAP2 SWAP1 SWAP2 ADD DUP1 SLOAD PUSH1 0x1 PUSH1 0x1 PUSH1 0xA0 SHL SUB NOT AND PUSH1 0x1 PUSH1 0x1 PUSH1 0xA0 SHL SUB SWAP5 DUP6 AND OR SWAP1 SSTORE SWAP2 DUP5 AND DUP2 MSTORE PUSH1 0x7 DUP3 MSTORE PUSH1 0x40 DUP1 DUP3 KECCAK256 DUP3 SWAP1 SSTORE PUSH1 0x9 SWAP1 SWAP3 MSTORE KECCAK256 DUP1 SLOAD PUSH1 0xFF NOT AND SWAP1 SSTORE PUSH1 0xA DUP1 SLOAD DUP1 PUSH2 0x20C7 JUMPI PUSH2 0x20C7 PUSH2 0x36F2 JUMP JUMPDEST PUSH0 DUP3 DUP2 MSTORE PUSH1 0x20 SWAP1 KECCAK256 DUP2 ADD PUSH0 NOT SWAP1 DUP2 ADD DUP1 SLOAD PUSH1 0x1 PUSH1 0x1 PUSH1 0xA0 SHL SUB NOT AND SWAP1 SSTORE ADD SWAP1 SSTORE POP POP JUMP JUMPDEST PUSH1 0x1 ADD PUSH2 0x1FE5 JUMP JUMPDEST POP POP JUMP JUMPDEST PUSH0 DUP1 PUSH0 DUP1 PUSH0 PUSH2 0x2105 DUP7 PUSH2 0x285E JUMP JUMPDEST SWAP1 POP PUSH0 PUSH2 0x2112 DUP3 DUP9 PUSH2 0x35C3 JUMP JUMPDEST SWAP1 POP PUSH0 PUSH2 0x211D PUSH2 0x289E JUMP JUMPDEST SWAP1 POP PUSH0 PUSH2 0x212A DUP3 DUP5 PUSH2 0x36A8 JUMP JUMPDEST SWAP1 POP PUSH0 PUSH2 0x2137 DUP4 DUP12 PUSH2 0x36A8 JUMP JUMPDEST SWAP11 SWAP2 SWAP10 POP SWAP3 SWAP8 POP SWAP1 SWAP6 POP SWAP4 POP POP POP POP JUMP JUMPDEST PUSH1 0x1 PUSH1 0x1 PUSH1 0xA0 SHL SUB DUP4 AND PUSH2 0x21AA JUMPI PUSH1 0x40 MLOAD PUSH3 0x461BCD PUSH1 0xE5 SHL DUP2 MSTORE PUSH1 0x20 PUSH1 0x4 DUP3 ADD MSTORE PUSH1 0x24 DUP1 DUP3 ADD MSTORE PUSH32 0x45524332303A20617070726F76652066726F6D20746865207A65726F20616464 PUSH1 0x44 DUP3 ADD MSTORE PUSH4 0x72657373 PUSH1 0xE0 SHL PUSH1 0x64 DUP3 ADD MSTORE PUSH1 0x84 ADD PUSH2 0xA52 JUMP JUMPDEST PUSH1 0x1 PUSH1 0x1 PUSH1 0xA0 SHL SUB DUP3 AND PUSH2 0x220B JUMPI PUSH1 0x40 MLOAD PUSH3 0x461BCD PUSH1 0xE5 SHL DUP2 MSTORE PUSH1 0x20 PUSH1 0x4 DUP3 ADD MSTORE PUSH1 0x22 PUSH1 0x24 DUP3 ADD MSTORE PUSH32 0x45524332303A20617070726F766520746F20746865207A65726F206164647265 PUSH1 0x44 DUP3 ADD MSTORE PUSH2 0x7373 PUSH1 0xF0 SHL PUSH1 0x64 DUP3 ADD MSTORE PUSH1 0x84 ADD PUSH2 0xA52 JUMP JUMPDEST PUSH1 0x1 PUSH1 0x1 PUSH1 0xA0 SHL SUB DUP4 DUP2 AND PUSH0 DUP2 DUP2 MSTORE PUSH1 0x1 PUSH1 0x20 SWAP1 DUP2 MSTORE PUSH1 0x40 DUP1 DUP4 KECCAK256 SWAP5 DUP8 AND DUP1 DUP5 MSTORE SWAP5 DUP3 MSTORE SWAP2 DUP3 SWAP1 KECCAK256 DUP6 SWAP1 SSTORE SWAP1 MLOAD DUP5 DUP2 MSTORE PUSH32 0x8C5BE1E5EBEC7D5BD14F71427D1E84F3DD0314C0F7B2291E5B200AC8C7C3B925 SWAP2 ADD PUSH1 0x40 MLOAD DUP1 SWAP2 SUB SWAP1 LOG3 POP POP POP JUMP JUMPDEST PUSH1 0x1 PUSH1 0x1 PUSH1 0xA0 SHL SUB DUP4 AND PUSH2 0x22CF JUMPI PUSH1 0x40 MLOAD PUSH3 0x461BCD PUSH1 0xE5 SHL DUP2 MSTORE PUSH1 0x20 PUSH1 0x4 DUP3 ADD MSTORE PUSH1 0x25 PUSH1 0x24 DUP3 ADD MSTORE PUSH32 0x45524332303A207472616E736665722066726F6D20746865207A65726F206164 PUSH1 0x44 DUP3 ADD MSTORE PUSH5 0x6472657373 PUSH1 0xD8 SHL PUSH1 0x64 DUP3 ADD MSTORE PUSH1 0x84 ADD PUSH2 0xA52 JUMP JUMPDEST PUSH1 0x1 PUSH1 0x1 PUSH1 0xA0 SHL SUB DUP3 AND PUSH2 0x2331 JUMPI PUSH1 0x40 MLOAD PUSH3 0x461BCD PUSH1 0xE5 SHL DUP2 MSTORE PUSH1 0x20 PUSH1 0x4 DUP3 ADD MSTORE PUSH1 0x23 PUSH1 0x24 DUP3 ADD MSTORE PUSH32 0x45524332303A207472616E7366657220746F20746865207A65726F2061646472 PUSH1 0x44 DUP3 ADD MSTORE PUSH3 0x657373 PUSH1 0xE8 SHL PUSH1 0x64 DUP3 ADD MSTORE PUSH1 0x84 ADD PUSH2 0xA52 JUMP JUMPDEST PUSH0 DUP2 GT PUSH2 0x2392 JUMPI PUSH1 0x40 MLOAD PUSH3 0x461BCD PUSH1 0xE5 SHL DUP2 MSTORE PUSH1 0x20 PUSH1 0x4 DUP3 ADD MSTORE PUSH1 0x29 PUSH1 0x24 DUP3 ADD MSTORE PUSH32 0x5472616E7366657220616D6F756E74206D757374206265206772656174657220 PUSH1 0x44 DUP3 ADD MSTORE PUSH9 0x7468616E207A65726F PUSH1 0xB8 SHL PUSH1 0x64 DUP3 ADD MSTORE PUSH1 0x84 ADD PUSH2 0xA52 JUMP JUMPDEST PUSH0 PUSH2 0x239C DUP5 PUSH2 0x13B0 JUMP JUMPDEST SWAP1 POP DUP2 DUP2 LT ISZERO PUSH2 0x23FD JUMPI PUSH1 0x40 MLOAD PUSH3 0x461BCD PUSH1 0xE5 SHL DUP2 MSTORE PUSH1 0x20 PUSH1 0x4 DUP3 ADD MSTORE PUSH1 0x26 PUSH1 0x24 DUP3 ADD MSTORE PUSH32 0x45524332303A207472616E7366657220616D6F756E7420657863656564732062 PUSH1 0x44 DUP3 ADD MSTORE PUSH6 0x616C616E6365 PUSH1 0xD0 SHL PUSH1 0x64 DUP3 ADD MSTORE PUSH1 0x84 ADD PUSH2 0xA52 JUMP JUMPDEST PUSH1 0x5 SLOAD PUSH1 0x1 PUSH1 0x1 PUSH1 0xA0 SHL SUB DUP6 DUP2 AND SWAP2 AND EQ DUP1 ISZERO SWAP1 PUSH2 0x2429 JUMPI POP PUSH1 0x5 SLOAD PUSH1 0x1 PUSH1 0x1 PUSH1 0xA0 SHL SUB DUP5 DUP2 AND SWAP2 AND EQ ISZERO JUMPDEST ISZERO PUSH2 0x2491 JUMPI PUSH1 0x1F SLOAD DUP3 GT ISZERO PUSH2 0x2491 JUMPI PUSH1 0x40 MLOAD PUSH3 0x461BCD PUSH1 0xE5 SHL DUP2 MSTORE PUSH1 0x20 PUSH1 0x4 DUP3 ADD MSTORE PUSH1 0x28 PUSH1 0x24 DUP3 ADD MSTORE PUSH32 0x5472616E7366657220616D6F756E74206578636565647320746865206D617854 PUSH1 0x44 DUP3 ADD MSTORE PUSH8 0x3C20B6B7BAB73A17 PUSH1 0xC1 SHL PUSH1 0x64 DUP3 ADD MSTORE PUSH1 0x84 ADD PUSH2 0xA52 JUMP JUMPDEST PUSH0 PUSH2 0x249B ADDRESS PUSH2 0x13B0 JUMP JUMPDEST PUSH1 0x21 SLOAD PUSH1 0x22 SLOAD SWAP2 SWAP3 POP DUP3 LT ISZERO SWAP1 PUSH1 0xFF AND ISZERO DUP1 ISZERO PUSH2 0x24BF JUMPI POP PUSH1 0x22 SLOAD PUSH2 0x100 SWAP1 DIV PUSH1 0xFF AND JUMPDEST DUP1 ISZERO PUSH2 0x24FC JUMPI POP PUSH32 0x0 PUSH1 0x1 PUSH1 0x1 PUSH1 0xA0 SHL SUB AND DUP6 PUSH1 0x1 PUSH1 0x1 PUSH1 0xA0 SHL SUB AND EQ JUMPDEST ISZERO PUSH2 0x2515 JUMPI DUP1 ISZERO PUSH2 0x2515 JUMPI PUSH1 0x21 SLOAD SWAP2 POP PUSH2 0x2515 DUP3 PUSH2 0x28BF JUMP JUMPDEST PUSH1 0x1 PUSH1 0x1 PUSH1 0xA0 SHL SUB DUP7 AND PUSH0 SWAP1 DUP2 MSTORE PUSH1 0x8 PUSH1 0x20 MSTORE PUSH1 0x40 SWAP1 KECCAK256 SLOAD PUSH1 0x1 SWAP1 PUSH1 0xFF AND DUP1 PUSH2 0x2555 JUMPI POP PUSH1 0x1 PUSH1 0x1 PUSH1 0xA0 SHL SUB DUP7 AND PUSH0 SWAP1 DUP2 MSTORE PUSH1 0x8 PUSH1 0x20 MSTORE PUSH1 0x40 SWAP1 KECCAK256 SLOAD PUSH1 0xFF AND JUMPDEST ISZERO PUSH2 0x255D JUMPI POP PUSH0 JUMPDEST PUSH2 0x2569 DUP8 DUP8 DUP8 DUP5 PUSH2 0x2B04 JUMP JUMPDEST POP POP POP POP POP POP POP JUMP JUMPDEST PUSH1 0x1 PUSH1 0x1 PUSH1 0xA0 SHL SUB DUP3 AND PUSH2 0x25D2 JUMPI PUSH1 0x40 MLOAD PUSH3 0x461BCD PUSH1 0xE5 SHL DUP2 MSTORE PUSH1 0x20 PUSH1 0x4 DUP3 ADD MSTORE PUSH1 0x21 PUSH1 0x24 DUP3 ADD MSTORE PUSH32 0x45524332303A206275726E2066726F6D20746865207A65726F20616464726573 PUSH1 0x44 DUP3 ADD MSTORE PUSH1 0x73 PUSH1 0xF8 SHL PUSH1 0x64 DUP3 ADD MSTORE PUSH1 0x84 ADD PUSH2 0xA52 JUMP JUMPDEST PUSH0 PUSH2 0x25DC DUP4 PUSH2 0x13B0 JUMP JUMPDEST SWAP1 POP DUP2 DUP2 LT ISZERO PUSH2 0x2639 JUMPI PUSH1 0x40 MLOAD PUSH3 0x461BCD PUSH1 0xE5 SHL DUP2 MSTORE PUSH1 0x20 PUSH1 0x4 DUP3 ADD MSTORE PUSH1 0x22 PUSH1 0x24 DUP3 ADD MSTORE PUSH32 0x45524332303A206275726E20616D6F756E7420657863656564732062616C616E PUSH1 0x44 DUP3 ADD MSTORE PUSH2 0x6365 PUSH1 0xF0 SHL PUSH1 0x64 DUP3 ADD MSTORE PUSH1 0x84 ADD PUSH2 0xA52 JUMP JUMPDEST PUSH0 PUSH2 0x2642 PUSH2 0x289E JUMP JUMPDEST SWAP1 POP PUSH0 PUSH2 0x264F DUP3 DUP6 PUSH2 0x36A8 JUMP JUMPDEST PUSH1 0x1 PUSH1 0x1 PUSH1 0xA0 SHL SUB DUP7 AND PUSH0 SWAP1 DUP2 MSTORE PUSH1 0x9 PUSH1 0x20 MSTORE PUSH1 0x40 SWAP1 KECCAK256 SLOAD SWAP1 SWAP2 POP PUSH1 0xFF AND ISZERO PUSH2 0x26AE JUMPI PUSH1 0x1 PUSH1 0x1 PUSH1 0xA0 SHL SUB DUP6 AND PUSH0 SWAP1 DUP2 MSTORE PUSH1 0x7 PUSH1 0x20 MSTORE PUSH1 0x40 SWAP1 KECCAK256 SLOAD PUSH2 0x2695 SWAP1 DUP6 SWAP1 PUSH2 0x35C3 JUMP JUMPDEST PUSH1 0x1 PUSH1 0x1 PUSH1 0xA0 SHL SUB DUP7 AND PUSH0 SWAP1 DUP2 MSTORE PUSH1 0x7 PUSH1 0x20 MSTORE PUSH1 0x40 SWAP1 KECCAK256 SSTORE JUMPDEST PUSH1 0x1 PUSH1 0x1 PUSH1 0xA0 SHL SUB DUP6 AND PUSH0 SWAP1 DUP2 MSTORE PUSH1 0x6 PUSH1 0x20 MSTORE PUSH1 0x40 SWAP1 KECCAK256 SLOAD PUSH2 0x26D1 SWAP1 DUP3 SWAP1 PUSH2 0x35C3 JUMP JUMPDEST PUSH1 0x1 PUSH1 0x1 PUSH1 0xA0 SHL SUB DUP7 AND PUSH0 SWAP1 DUP2 MSTORE PUSH1 0x6 PUSH1 0x20 MSTORE PUSH1 0x40 SWAP1 KECCAK256 SSTORE PUSH1 0xE SLOAD PUSH2 0x26F7 SWAP1 DUP6 SWAP1 PUSH2 0x35C3 JUMP JUMPDEST PUSH1 0xE SSTORE PUSH1 0xF SLOAD PUSH2 0x2708 SWAP1 DUP3 SWAP1 PUSH2 0x35C3 JUMP JUMPDEST PUSH1 0xF SSTORE PUSH1 0x40 MLOAD DUP5 DUP2 MSTORE PUSH0 SWAP1 PUSH1 0x1 PUSH1 0x1 PUSH1 0xA0 SHL SUB DUP8 AND SWAP1 PUSH0 DUP1 MLOAD PUSH1 0x20 PUSH2 0x37E3 DUP4 CODECOPY DUP2 MLOAD SWAP2 MSTORE SWAP1 PUSH1 0x20 ADD JUMPDEST PUSH1 0x40 MLOAD DUP1 SWAP2 SUB SWAP1 LOG3 POP POP POP POP POP JUMP JUMPDEST PUSH0 PUSH1 0xF SLOAD DUP3 GT ISZERO PUSH2 0x27A6 JUMPI PUSH1 0x40 MLOAD PUSH3 0x461BCD PUSH1 0xE5 SHL DUP2 MSTORE PUSH1 0x20 PUSH1 0x4 DUP3 ADD MSTORE PUSH1 0x2A PUSH1 0x24 DUP3 ADD MSTORE PUSH32 0x416D6F756E74206D757374206265206C657373207468616E20746F74616C2072 PUSH1 0x44 DUP3 ADD MSTORE PUSH10 0x65666C656374696F6E73 PUSH1 0xB0 SHL PUSH1 0x64 DUP3 ADD MSTORE PUSH1 0x84 ADD PUSH2 0xA52 JUMP JUMPDEST PUSH0 PUSH2 0x27AF PUSH2 0x289E JUMP JUMPDEST SWAP1 POP PUSH2 0x27BB DUP2 DUP5 PUSH2 0x36BF JUMP JUMPDEST SWAP4 SWAP3 POP POP POP JUMP JUMPDEST PUSH1 0x5 DUP1 SLOAD PUSH1 0x1 PUSH1 0x1 PUSH1 0xA0 SHL SUB DUP4 DUP2 AND PUSH1 0x1 PUSH1 0x1 PUSH1 0xA0 SHL SUB NOT DUP4 AND DUP2 OR SWAP1 SWAP4 SSTORE PUSH1 0x40 MLOAD SWAP2 AND SWAP2 SWAP1 DUP3 SWAP1 PUSH32 0x8BE0079C531659141344CD1FD0A4F28419497F9722A3DAAFE3B4186F6B6457E0 SWAP1 PUSH0 SWAP1 LOG3 POP POP JUMP JUMPDEST PUSH1 0x1D DUP1 SLOAD PUSH1 0x1E SSTORE PUSH1 0x15 DUP1 SLOAD PUSH1 0x16 SSTORE PUSH1 0x11 DUP1 SLOAD PUSH1 0x12 SSTORE PUSH1 0x13 DUP1 SLOAD PUSH1 0x14 SSTORE PUSH1 0x17 DUP1 SLOAD PUSH1 0x18 SSTORE PUSH1 0x19 DUP1 SLOAD PUSH1 0x1A SSTORE PUSH1 0x1B DUP1 SLOAD PUSH1 0x1C SSTORE PUSH0 SWAP7 DUP8 SWAP1 SSTORE SWAP5 DUP7 SWAP1 SSTORE SWAP3 DUP6 SWAP1 SSTORE SWAP1 DUP5 SWAP1 SSTORE DUP4 SWAP1 SSTORE DUP3 SWAP1 SSTORE SSTORE JUMP JUMPDEST PUSH0 DUP1 PUSH1 0x11 SLOAD PUSH1 0x13 SLOAD PUSH1 0x1D SLOAD PUSH2 0x2873 SWAP2 SWAP1 PUSH2 0x35D6 JUMP JUMPDEST PUSH2 0x287D SWAP2 SWAP1 PUSH2 0x35D6 JUMP JUMPDEST SWAP1 POP PUSH0 PUSH1 0x64 PUSH2 0x288C DUP4 DUP7 PUSH2 0x36A8 JUMP JUMPDEST PUSH2 0x2896 SWAP2 SWAP1 PUSH2 0x36BF JUMP JUMPDEST SWAP5 SWAP4 POP POP POP POP JUMP JUMPDEST PUSH0 DUP1 PUSH0 PUSH2 0x28A9 PUSH2 0x2B56 JUMP JUMPDEST SWAP1 SWAP3 POP SWAP1 POP PUSH2 0x28B8 DUP2 DUP4 PUSH2 0x36BF JUMP JUMPDEST SWAP3 POP POP POP SWAP1 JUMP JUMPDEST PUSH1 0x22 DUP1 SLOAD PUSH1 0xFF NOT AND PUSH1 0x1 OR SWAP1 SSTORE PUSH1 0x1D SLOAD ISZERO PUSH2 0x2AF7 JUMPI PUSH1 0x1D SLOAD PUSH1 0x15 SLOAD SELFBALANCE SWAP2 PUSH0 SWAP2 PUSH2 0x28E8 SWAP1 DUP6 PUSH2 0x36A8 JUMP JUMPDEST PUSH2 0x28F2 SWAP2 SWAP1 PUSH2 0x36BF JUMP JUMPDEST SWAP1 POP PUSH0 PUSH2 0x2900 PUSH1 0x2 DUP4 PUSH2 0x36BF JUMP JUMPDEST SWAP1 POP PUSH0 PUSH2 0x290D DUP3 DUP5 PUSH2 0x35C3 JUMP JUMPDEST SWAP1 POP PUSH2 0x2921 PUSH2 0x291C DUP3 DUP8 PUSH2 0x35C3 JUMP JUMPDEST PUSH2 0x2CC6 JUMP JUMPDEST PUSH0 PUSH2 0x292C DUP6 SELFBALANCE PUSH2 0x35C3 JUMP JUMPDEST PUSH1 0xB SLOAD PUSH1 0x15 SLOAD SWAP2 SWAP3 POP PUSH2 0x299C SWAP2 PUSH1 0x1 PUSH1 0x1 PUSH1 0xA0 SHL SUB SWAP1 SWAP2 AND SWAP1 PUSH1 0x2 SWAP1 PUSH2 0x2953 SWAP1 PUSH1 0xA PUSH2 0x36A8 JUMP JUMPDEST PUSH2 0x295D SWAP2 SWAP1 PUSH2 0x36BF JUMP JUMPDEST PUSH1 0x1D SLOAD PUSH2 0x296B SWAP1 PUSH1 0xA PUSH2 0x36A8 JUMP JUMPDEST PUSH2 0x2975 SWAP2 SWAP1 PUSH2 0x35C3 JUMP JUMPDEST PUSH1 0x17 SLOAD PUSH2 0x2983 SWAP1 PUSH1 0xA PUSH2 0x36A8 JUMP JUMPDEST PUSH2 0x298D SWAP1 DUP6 PUSH2 0x36A8 JUMP JUMPDEST PUSH2 0x2997 SWAP2 SWAP1 PUSH2 0x36BF JUMP JUMPDEST PUSH2 0x2EA9 JUMP JUMPDEST PUSH1 0xC SLOAD PUSH1 0x15 SLOAD PUSH2 0x29EE SWAP2 PUSH1 0x1 PUSH1 0x1 PUSH1 0xA0 SHL SUB AND SWAP1 PUSH1 0x2 SWAP1 PUSH2 0x29BE SWAP1 PUSH1 0xA PUSH2 0x36A8 JUMP JUMPDEST PUSH2 0x29C8 SWAP2 SWAP1 PUSH2 0x36BF JUMP JUMPDEST PUSH1 0x1D SLOAD PUSH2 0x29D6 SWAP1 PUSH1 0xA PUSH2 0x36A8 JUMP JUMPDEST PUSH2 0x29E0 SWAP2 SWAP1 PUSH2 0x35C3 JUMP JUMPDEST PUSH1 0x19 SLOAD PUSH2 0x2983 SWAP1 PUSH1 0xA PUSH2 0x36A8 JUMP JUMPDEST PUSH1 0xD SLOAD PUSH1 0x15 SLOAD PUSH2 0x2A40 SWAP2 PUSH1 0x1 PUSH1 0x1 PUSH1 0xA0 SHL SUB AND SWAP1 PUSH1 0x2 SWAP1 PUSH2 0x2A10 SWAP1 PUSH1 0xA PUSH2 0x36A8 JUMP JUMPDEST PUSH2 0x2A1A SWAP2 SWAP1 PUSH2 0x36BF JUMP JUMPDEST PUSH1 0x1D SLOAD PUSH2 0x2A28 SWAP1 PUSH1 0xA PUSH2 0x36A8 JUMP JUMPDEST PUSH2 0x2A32 SWAP2 SWAP1 PUSH2 0x35C3 JUMP JUMPDEST PUSH1 0x1B SLOAD PUSH2 0x2983 SWAP1 PUSH1 0xA PUSH2 0x36A8 JUMP JUMPDEST PUSH0 PUSH1 0x2 PUSH1 0x15 SLOAD PUSH1 0xA PUSH2 0x2A52 SWAP2 SWAP1 PUSH2 0x36A8 JUMP JUMPDEST PUSH2 0x2A5C SWAP2 SWAP1 PUSH2 0x36BF JUMP JUMPDEST PUSH1 0x1D SLOAD PUSH2 0x2A6A SWAP1 PUSH1 0xA PUSH2 0x36A8 JUMP JUMPDEST PUSH2 0x2A74 SWAP2 SWAP1 PUSH2 0x35C3 JUMP JUMPDEST PUSH1 0x2 PUSH1 0x15 SLOAD PUSH1 0xA PUSH2 0x2A85 SWAP2 SWAP1 PUSH2 0x36A8 JUMP JUMPDEST PUSH2 0x2A8F SWAP2 SWAP1 PUSH2 0x36BF JUMP JUMPDEST PUSH2 0x2A99 SWAP1 DUP5 PUSH2 0x36A8 JUMP JUMPDEST PUSH2 0x2AA3 SWAP2 SWAP1 PUSH2 0x36BF JUMP JUMPDEST SWAP1 POP PUSH2 0x2AAF DUP4 DUP3 PUSH2 0x2F48 JUMP JUMPDEST PUSH1 0x40 DUP1 MLOAD DUP6 DUP2 MSTORE PUSH1 0x20 DUP2 ADD DUP4 SWAP1 MSTORE SWAP1 DUP2 ADD DUP5 SWAP1 MSTORE PUSH32 0x17BBFB9A6069321B6DED73BD96327C9E6B7212A5CD51FF219CD61370ACAFB561 SWAP1 PUSH1 0x60 ADD PUSH1 0x40 MLOAD DUP1 SWAP2 SUB SWAP1 LOG1 POP POP POP POP POP POP JUMPDEST POP PUSH1 0x22 DUP1 SLOAD PUSH1 0xFF NOT AND SWAP1 SSTORE JUMP JUMPDEST DUP1 PUSH2 0x2B11 JUMPI PUSH2 0x2B11 PUSH2 0x2813 JUMP JUMPDEST PUSH2 0x2B1C DUP5 DUP5 DUP5 PUSH2 0x304B JUMP JUMPDEST DUP1 PUSH2 0x2B50 JUMPI PUSH2 0x2B50 PUSH1 0x1E SLOAD PUSH1 0x1D SSTORE PUSH1 0x16 SLOAD PUSH1 0x15 SSTORE PUSH1 0x12 SLOAD PUSH1 0x11 SSTORE PUSH1 0x14 SLOAD PUSH1 0x13 SSTORE PUSH1 0x18 SLOAD PUSH1 0x17 SSTORE PUSH1 0x1A SLOAD PUSH1 0x19 SSTORE PUSH1 0x1C SLOAD PUSH1 0x1B SSTORE JUMP JUMPDEST POP POP POP POP JUMP JUMPDEST PUSH1 0xF SLOAD PUSH1 0xE SLOAD PUSH0 SWAP2 DUP3 SWAP2 DUP3 JUMPDEST PUSH1 0xA SLOAD DUP2 LT ISZERO PUSH2 0x2C95 JUMPI DUP3 PUSH1 0x6 PUSH0 PUSH1 0xA DUP5 DUP2 SLOAD DUP2 LT PUSH2 0x2B83 JUMPI PUSH2 0x2B83 PUSH2 0x36DE JUMP JUMPDEST PUSH0 SWAP2 DUP3 MSTORE PUSH1 0x20 DUP1 DUP4 KECCAK256 SWAP1 SWAP2 ADD SLOAD PUSH1 0x1 PUSH1 0x1 PUSH1 0xA0 SHL SUB AND DUP4 MSTORE DUP3 ADD SWAP3 SWAP1 SWAP3 MSTORE PUSH1 0x40 ADD SWAP1 KECCAK256 SLOAD GT DUP1 PUSH2 0x2BEB JUMPI POP DUP2 PUSH1 0x7 PUSH0 PUSH1 0xA DUP5 DUP2 SLOAD DUP2 LT PUSH2 0x2BC5 JUMPI PUSH2 0x2BC5 PUSH2 0x36DE JUMP JUMPDEST PUSH0 SWAP2 DUP3 MSTORE PUSH1 0x20 DUP1 DUP4 KECCAK256 SWAP1 SWAP2 ADD SLOAD PUSH1 0x1 PUSH1 0x1 PUSH1 0xA0 SHL SUB AND DUP4 MSTORE DUP3 ADD SWAP3 SWAP1 SWAP3 MSTORE PUSH1 0x40 ADD SWAP1 KECCAK256 SLOAD GT JUMPDEST ISZERO PUSH2 0x2C01 JUMPI PUSH1 0xF SLOAD PUSH1 0xE SLOAD SWAP5 POP SWAP5 POP POP POP POP SWAP1 SWAP2 JUMP JUMPDEST PUSH1 0x6 PUSH0 PUSH1 0xA DUP4 DUP2 SLOAD DUP2 LT PUSH2 0x2C17 JUMPI PUSH2 0x2C17 PUSH2 0x36DE JUMP JUMPDEST PUSH0 SWAP2 DUP3 MSTORE PUSH1 0x20 DUP1 DUP4 KECCAK256 SWAP1 SWAP2 ADD SLOAD PUSH1 0x1 PUSH1 0x1 PUSH1 0xA0 SHL SUB AND DUP4 MSTORE DUP3 ADD SWAP3 SWAP1 SWAP3 MSTORE PUSH1 0x40 ADD SWAP1 KECCAK256 SLOAD PUSH2 0x2C45 SWAP1 DUP5 PUSH2 0x35C3 JUMP JUMPDEST SWAP3 POP PUSH1 0x7 PUSH0 PUSH1 0xA DUP4 DUP2 SLOAD DUP2 LT PUSH2 0x2C5D JUMPI PUSH2 0x2C5D PUSH2 0x36DE JUMP JUMPDEST PUSH0 SWAP2 DUP3 MSTORE PUSH1 0x20 DUP1 DUP4 KECCAK256 SWAP1 SWAP2 ADD SLOAD PUSH1 0x1 PUSH1 0x1 PUSH1 0xA0 SHL SUB AND DUP4 MSTORE DUP3 ADD SWAP3 SWAP1 SWAP3 MSTORE PUSH1 0x40 ADD SWAP1 KECCAK256 SLOAD PUSH2 0x2C8B SWAP1 DUP4 PUSH2 0x35C3 JUMP JUMPDEST SWAP2 POP PUSH1 0x1 ADD PUSH2 0x2B62 JUMP JUMPDEST POP PUSH1 0xE SLOAD PUSH1 0xF SLOAD PUSH2 0x2CA6 SWAP2 SWAP1 PUSH2 0x36BF JUMP JUMPDEST DUP3 LT ISZERO PUSH2 0x2CBD JUMPI PUSH1 0xF SLOAD PUSH1 0xE SLOAD SWAP4 POP SWAP4 POP POP POP SWAP1 SWAP2 JUMP JUMPDEST SWAP1 SWAP4 SWAP1 SWAP3 POP SWAP1 POP JUMP JUMPDEST PUSH1 0x40 DUP1 MLOAD PUSH1 0x2 DUP1 DUP3 MSTORE PUSH1 0x60 DUP3 ADD DUP4 MSTORE PUSH0 SWAP3 PUSH1 0x20 DUP4 ADD SWAP1 DUP1 CALLDATASIZE DUP4 CALLDATACOPY ADD SWAP1 POP POP SWAP1 POP ADDRESS DUP2 PUSH0 DUP2 MLOAD DUP2 LT PUSH2 0x2CF9 JUMPI PUSH2 0x2CF9 PUSH2 0x36DE JUMP JUMPDEST PUSH1 0x20 MUL PUSH1 0x20 ADD ADD SWAP1 PUSH1 0x1 PUSH1 0x1 PUSH1 0xA0 SHL SUB AND SWAP1 DUP2 PUSH1 0x1 PUSH1 0x1 PUSH1 0xA0 SHL SUB AND DUP2 MSTORE POP POP PUSH32 0x0 PUSH1 0x1 PUSH1 0x1 PUSH1 0xA0 SHL SUB AND PUSH4 0xAD5C4648 PUSH1 0x40 MLOAD DUP2 PUSH4 0xFFFFFFFF AND PUSH1 0xE0 SHL DUP2 MSTORE PUSH1 0x4 ADD PUSH1 0x20 PUSH1 0x40 MLOAD DUP1 DUP4 SUB DUP2 DUP7 GAS STATICCALL ISZERO DUP1 ISZERO PUSH2 0x2D75 JUMPI RETURNDATASIZE PUSH0 DUP1 RETURNDATACOPY RETURNDATASIZE PUSH0 REVERT JUMPDEST POP POP POP POP PUSH1 0x40 MLOAD RETURNDATASIZE PUSH1 0x1F NOT PUSH1 0x1F DUP3 ADD AND DUP3 ADD DUP1 PUSH1 0x40 MSTORE POP DUP2 ADD SWAP1 PUSH2 0x2D99 SWAP2 SWAP1 PUSH2 0x3706 JUMP JUMPDEST DUP2 PUSH1 0x1 DUP2 MLOAD DUP2 LT PUSH2 0x2DAC JUMPI PUSH2 0x2DAC PUSH2 0x36DE JUMP JUMPDEST PUSH1 0x20 MUL PUSH1 0x20 ADD ADD SWAP1 PUSH1 0x1 PUSH1 0x1 PUSH1 0xA0 SHL SUB AND SWAP1 DUP2 PUSH1 0x1 PUSH1 0x1 PUSH1 0xA0 SHL SUB AND DUP2 MSTORE POP POP PUSH2 0x2DF7 ADDRESS PUSH32 0x0 DUP5 PUSH2 0x2148 JUMP JUMPDEST PUSH1 0x40 MLOAD PUSH4 0x791AC947 PUSH1 0xE0 SHL DUP2 MSTORE PUSH1 0x1 PUSH1 0x1 PUSH1 0xA0 SHL SUB PUSH32 0x0 AND SWAP1 PUSH4 0x791AC947 SWAP1 PUSH2 0x2E4B SWAP1 DUP6 SWAP1 PUSH0 SWAP1 DUP7 SWAP1 ADDRESS SWAP1 TIMESTAMP SWAP1 PUSH1 0x4 ADD PUSH2 0x3764 JUMP JUMPDEST PUSH0 PUSH1 0x40 MLOAD DUP1 DUP4 SUB DUP2 PUSH0 DUP8 DUP1 EXTCODESIZE ISZERO DUP1 ISZERO PUSH2 0x2E62 JUMPI PUSH0 DUP1 REVERT JUMPDEST POP GAS CALL ISZERO DUP1 ISZERO PUSH2 0x2E74 JUMPI RETURNDATASIZE PUSH0 DUP1 RETURNDATACOPY RETURNDATASIZE PUSH0 REVERT JUMPDEST POP POP POP POP PUSH32 0x32CDE87EB454F3A0B875AB23547023107CFAD454363EC88BA5695E2C24AA52A7 DUP3 DUP3 PUSH1 0x40 MLOAD PUSH2 0xC5C SWAP3 SWAP2 SWAP1 PUSH2 0x379F JUMP JUMPDEST PUSH0 DUP3 PUSH1 0x1 PUSH1 0x1 PUSH1 0xA0 SHL SUB AND DUP3 PUSH1 0x40 MLOAD PUSH0 PUSH1 0x40 MLOAD DUP1 DUP4 SUB DUP2 DUP6 DUP8 GAS CALL SWAP3 POP POP POP RETURNDATASIZE DUP1 PUSH0 DUP2 EQ PUSH2 0x2EF2 JUMPI PUSH1 0x40 MLOAD SWAP2 POP PUSH1 0x1F NOT PUSH1 0x3F RETURNDATASIZE ADD AND DUP3 ADD PUSH1 0x40 MSTORE RETURNDATASIZE DUP3 MSTORE RETURNDATASIZE PUSH0 PUSH1 0x20 DUP5 ADD RETURNDATACOPY PUSH2 0x2EF7 JUMP JUMPDEST PUSH1 0x60 SWAP2 POP JUMPDEST POP POP SWAP1 POP DUP1 PUSH2 0x14C1 JUMPI DUP3 PUSH1 0x1 PUSH1 0x1 PUSH1 0xA0 SHL SUB AND PUSH32 0x1C43B9761B3FBA5321CA8212BFC231945F668CCC0C446F333999EEA9CE8FDA81 DUP4 PUSH1 0x40 MLOAD PUSH2 0x2F3B SWAP2 DUP2 MSTORE PUSH1 0x20 ADD SWAP1 JUMP JUMPDEST PUSH1 0x40 MLOAD DUP1 SWAP2 SUB SWAP1 LOG2 POP POP POP JUMP JUMPDEST PUSH2 0x2F73 ADDRESS PUSH32 0x0 DUP5 PUSH2 0x2148 JUMP JUMPDEST PUSH32 0x0 PUSH1 0x1 PUSH1 0x1 PUSH1 0xA0 SHL SUB AND PUSH4 0xF305D719 DUP3 ADDRESS DUP6 PUSH0 DUP1 PUSH2 0x2FB9 PUSH1 0x5 SLOAD PUSH1 0x1 PUSH1 0x1 PUSH1 0xA0 SHL SUB AND SWAP1 JUMP JUMPDEST PUSH1 0x40 MLOAD PUSH1 0xE0 DUP9 SWAP1 SHL PUSH1 0x1 PUSH1 0x1 PUSH1 0xE0 SHL SUB NOT AND DUP2 MSTORE PUSH1 0x1 PUSH1 0x1 PUSH1 0xA0 SHL SUB SWAP6 DUP7 AND PUSH1 0x4 DUP3 ADD MSTORE PUSH1 0x24 DUP2 ADD SWAP5 SWAP1 SWAP5 MSTORE PUSH1 0x44 DUP5 ADD SWAP3 SWAP1 SWAP3 MSTORE PUSH1 0x64 DUP4 ADD MSTORE SWAP1 SWAP2 AND PUSH1 0x84 DUP3 ADD MSTORE TIMESTAMP PUSH1 0xA4 DUP3 ADD MSTORE PUSH1 0xC4 ADD PUSH1 0x60 PUSH1 0x40 MLOAD DUP1 DUP4 SUB DUP2 DUP6 DUP9 GAS CALL ISZERO DUP1 ISZERO PUSH2 0x301F JUMPI RETURNDATASIZE PUSH0 DUP1 RETURNDATACOPY RETURNDATASIZE PUSH0 REVERT JUMPDEST POP POP POP POP POP PUSH1 0x40 MLOAD RETURNDATASIZE PUSH1 0x1F NOT PUSH1 0x1F DUP3 ADD AND DUP3 ADD DUP1 PUSH1 0x40 MSTORE POP DUP2 ADD SWAP1 PUSH2 0x3044 SWAP2 SWAP1 PUSH2 0x37B7 JUMP JUMPDEST POP POP POP POP POP JUMP JUMPDEST PUSH0 DUP1 PUSH0 DUP1 PUSH2 0x3058 DUP6 PUSH2 0x20F7 JUMP JUMPDEST PUSH1 0x1 PUSH1 0x1 PUSH1 0xA0 SHL SUB DUP12 AND PUSH0 SWAP1 DUP2 MSTORE PUSH1 0x6 PUSH1 0x20 MSTORE PUSH1 0x40 SWAP1 KECCAK256 SLOAD SWAP4 SWAP8 POP SWAP2 SWAP6 POP SWAP4 POP SWAP2 POP PUSH2 0x3085 SWAP1 DUP6 SWAP1 PUSH2 0x35C3 JUMP JUMPDEST PUSH1 0x1 PUSH1 0x1 PUSH1 0xA0 SHL SUB DUP1 DUP10 AND PUSH0 SWAP1 DUP2 MSTORE PUSH1 0x6 PUSH1 0x20 MSTORE PUSH1 0x40 DUP1 DUP3 KECCAK256 SWAP4 SWAP1 SWAP4 SSTORE SWAP1 DUP9 AND DUP2 MSTORE KECCAK256 SLOAD PUSH2 0x30B4 SWAP1 DUP5 SWAP1 PUSH2 0x35D6 JUMP JUMPDEST PUSH1 0x1 PUSH1 0x1 PUSH1 0xA0 SHL SUB DUP1 DUP9 AND PUSH0 SWAP1 DUP2 MSTORE PUSH1 0x6 PUSH1 0x20 SWAP1 DUP2 MSTORE PUSH1 0x40 DUP1 DUP4 KECCAK256 SWAP5 SWAP1 SWAP5 SSTORE SWAP2 DUP11 AND DUP2 MSTORE PUSH1 0x9 SWAP1 SWAP2 MSTORE KECCAK256 SLOAD PUSH1 0xFF AND DUP1 ISZERO PUSH2 0x3106 JUMPI POP PUSH1 0x1 PUSH1 0x1 PUSH1 0xA0 SHL SUB DUP7 AND PUSH0 SWAP1 DUP2 MSTORE PUSH1 0x9 PUSH1 0x20 MSTORE PUSH1 0x40 SWAP1 KECCAK256 SLOAD PUSH1 0xFF AND ISZERO JUMPDEST ISZERO PUSH2 0x314B JUMPI PUSH1 0x1 PUSH1 0x1 PUSH1 0xA0 SHL SUB DUP8 AND PUSH0 SWAP1 DUP2 MSTORE PUSH1 0x7 PUSH1 0x20 MSTORE PUSH1 0x40 SWAP1 KECCAK256 SLOAD PUSH2 0x312E SWAP1 DUP7 SWAP1 PUSH2 0x35C3 JUMP JUMPDEST PUSH1 0x1 PUSH1 0x1 PUSH1 0xA0 SHL SUB DUP9 AND PUSH0 SWAP1 DUP2 MSTORE PUSH1 0x7 PUSH1 0x20 MSTORE PUSH1 0x40 SWAP1 KECCAK256 SSTORE PUSH2 0x327D JUMP JUMPDEST PUSH1 0x1 PUSH1 0x1 PUSH1 0xA0 SHL SUB DUP8 AND PUSH0 SWAP1 DUP2 MSTORE PUSH1 0x9 PUSH1 0x20 MSTORE PUSH1 0x40 SWAP1 KECCAK256 SLOAD PUSH1 0xFF AND ISZERO DUP1 ISZERO PUSH2 0x318A JUMPI POP PUSH1 0x1 PUSH1 0x1 PUSH1 0xA0 SHL SUB DUP7 AND PUSH0 SWAP1 DUP2 MSTORE PUSH1 0x9 PUSH1 0x20 MSTORE PUSH1 0x40 SWAP1 KECCAK256 SLOAD PUSH1 0xFF AND JUMPDEST ISZERO PUSH2 0x31CF JUMPI PUSH1 0x1 PUSH1 0x1 PUSH1 0xA0 SHL SUB DUP7 AND PUSH0 SWAP1 DUP2 MSTORE PUSH1 0x7 PUSH1 0x20 MSTORE PUSH1 0x40 SWAP1 KECCAK256 SLOAD PUSH2 0x31B2 SWAP1 DUP4 SWAP1 PUSH2 0x35D6 JUMP JUMPDEST PUSH1 0x1 PUSH1 0x1 PUSH1 0xA0 SHL SUB DUP8 AND PUSH0 SWAP1 DUP2 MSTORE PUSH1 0x7 PUSH1 0x20 MSTORE PUSH1 0x40 SWAP1 KECCAK256 SSTORE PUSH2 0x327D JUMP JUMPDEST PUSH1 0x1 PUSH1 0x1 PUSH1 0xA0 SHL SUB DUP8 AND PUSH0 SWAP1 DUP2 MSTORE PUSH1 0x9 PUSH1 0x20 MSTORE PUSH1 0x40 SWAP1 KECCAK256 SLOAD PUSH1 0xFF AND DUP1 ISZERO PUSH2 0x320D JUMPI POP PUSH1 0x1 PUSH1 0x1 PUSH1 0xA0 SHL SUB DUP7 AND PUSH0 SWAP1 DUP2 MSTORE PUSH1 0x9 PUSH1 0x20 MSTORE PUSH1 0x40 SWAP1 KECCAK256 SLOAD PUSH1 0xFF AND JUMPDEST ISZERO PUSH2 0x327D JUMPI PUSH1 0x1 PUSH1 0x1 PUSH1 0xA0 SHL SUB DUP8 AND PUSH0 SWAP1 DUP2 MSTORE PUSH1 0x7 PUSH1 0x20 MSTORE PUSH1 0x40 SWAP1 KECCAK256 SLOAD PUSH2 0x3235 SWAP1 DUP7 SWAP1 PUSH2 0x35C3 JUMP JUMPDEST PUSH1 0x1 PUSH1 0x1 PUSH1 0xA0 SHL SUB DUP1 DUP10 AND PUSH0 SWAP1 DUP2 MSTORE PUSH1 0x7 PUSH1 0x20 MSTORE PUSH1 0x40 DUP1 DUP3 KECCAK256 SWAP4 SWAP1 SWAP4 SSTORE SWAP1 DUP9 AND DUP2 MSTORE KECCAK256 SLOAD PUSH2 0x3264 SWAP1 DUP4 SWAP1 PUSH2 0x35D6 JUMP JUMPDEST PUSH1 0x1 PUSH1 0x1 PUSH1 0xA0 SHL SUB DUP8 AND PUSH0 SWAP1 DUP2 MSTORE PUSH1 0x7 PUSH1 0x20 MSTORE PUSH1 0x40 SWAP1 KECCAK256 SSTORE JUMPDEST PUSH2 0x3287 DUP6 DUP3 PUSH2 0x32E4 JUMP JUMPDEST PUSH2 0x3292 DUP8 DUP7 DUP4 PUSH2 0x3336 JUMP JUMPDEST PUSH2 0x32A1 DUP8 DUP7 DUP4 PUSH1 0x1D SLOAD ADDRESS PUSH2 0x33B2 JUMP JUMPDEST DUP6 PUSH1 0x1 PUSH1 0x1 PUSH1 0xA0 SHL SUB AND DUP8 PUSH1 0x1 PUSH1 0x1 PUSH1 0xA0 SHL SUB AND PUSH0 DUP1 MLOAD PUSH1 0x20 PUSH2 0x37E3 DUP4 CODECOPY DUP2 MLOAD SWAP2 MSTORE DUP5 PUSH1 0x40 MLOAD PUSH2 0x32D3 SWAP2 DUP2 MSTORE PUSH1 0x20 ADD SWAP1 JUMP JUMPDEST PUSH1 0x40 MLOAD DUP1 SWAP2 SUB SWAP1 LOG3 POP POP POP POP POP POP POP JUMP JUMPDEST PUSH0 PUSH1 0x64 PUSH1 0x13 SLOAD DUP5 PUSH2 0x32F5 SWAP2 SWAP1 PUSH2 0x36A8 JUMP JUMPDEST PUSH2 0x32FF SWAP2 SWAP1 PUSH2 0x36BF JUMP JUMPDEST SWAP1 POP PUSH0 PUSH2 0x330C DUP4 DUP4 PUSH2 0x36A8 JUMP JUMPDEST SWAP1 POP DUP1 PUSH1 0xF SLOAD PUSH2 0x331C SWAP2 SWAP1 PUSH2 0x35C3 JUMP JUMPDEST PUSH1 0xF SSTORE PUSH1 0x10 SLOAD PUSH2 0x332D SWAP1 DUP4 SWAP1 PUSH2 0x35D6 JUMP JUMPDEST PUSH1 0x10 SSTORE POP POP POP POP JUMP JUMPDEST PUSH0 PUSH1 0x64 PUSH1 0x11 SLOAD DUP5 PUSH2 0x3347 SWAP2 SWAP1 PUSH2 0x36A8 JUMP JUMPDEST PUSH2 0x3351 SWAP2 SWAP1 PUSH2 0x36BF JUMP JUMPDEST SWAP1 POP DUP1 ISZERO PUSH2 0x2B50 JUMPI PUSH0 PUSH2 0x3364 DUP4 DUP4 PUSH2 0x36A8 JUMP JUMPDEST SWAP1 POP DUP2 PUSH1 0xE SLOAD PUSH2 0x3374 SWAP2 SWAP1 PUSH2 0x35C3 JUMP JUMPDEST PUSH1 0xE SSTORE PUSH1 0xF SLOAD PUSH2 0x3385 SWAP1 DUP3 SWAP1 PUSH2 0x35C3 JUMP JUMPDEST PUSH1 0xF SSTORE PUSH1 0x40 MLOAD DUP3 DUP2 MSTORE PUSH0 SWAP1 PUSH1 0x1 PUSH1 0x1 PUSH1 0xA0 SHL SUB DUP8 AND SWAP1 PUSH0 DUP1 MLOAD PUSH1 0x20 PUSH2 0x37E3 DUP4 CODECOPY DUP2 MLOAD SWAP2 MSTORE SWAP1 PUSH1 0x20 ADD PUSH2 0x2731 JUMP JUMPDEST PUSH0 PUSH1 0x64 PUSH2 0x33BF DUP5 DUP8 PUSH2 0x36A8 JUMP JUMPDEST PUSH2 0x33C9 SWAP2 SWAP1 PUSH2 0x36BF JUMP JUMPDEST SWAP1 POP DUP1 ISZERO PUSH2 0x3442 JUMPI PUSH0 PUSH2 0x33DC DUP6 DUP4 PUSH2 0x36A8 JUMP JUMPDEST PUSH1 0x1 PUSH1 0x1 PUSH1 0xA0 SHL SUB DUP5 AND PUSH0 SWAP1 DUP2 MSTORE PUSH1 0x6 PUSH1 0x20 MSTORE PUSH1 0x40 SWAP1 KECCAK256 SLOAD SWAP1 SWAP2 POP PUSH2 0x3402 SWAP1 DUP3 SWAP1 PUSH2 0x35D6 JUMP JUMPDEST PUSH1 0x1 PUSH1 0x1 PUSH1 0xA0 SHL SUB DUP1 DUP6 AND PUSH0 DUP2 DUP2 MSTORE PUSH1 0x6 PUSH1 0x20 MSTORE PUSH1 0x40 SWAP1 DUP2 SWAP1 KECCAK256 SWAP4 SWAP1 SWAP4 SSTORE SWAP2 MLOAD SWAP1 DUP10 AND SWAP1 PUSH0 DUP1 MLOAD PUSH1 0x20 PUSH2 0x37E3 DUP4 CODECOPY DUP2 MLOAD SWAP2 MSTORE SWAP1 PUSH2 0x32D3 SWAP1 DUP7 DUP2 MSTORE PUSH1 0x20 ADD SWAP1 JUMP JUMPDEST POP POP POP POP POP POP JUMP JUMPDEST PUSH0 PUSH1 0x20 DUP3 DUP5 SUB SLT ISZERO PUSH2 0x345A JUMPI PUSH0 DUP1 REVERT JUMPDEST POP CALLDATALOAD SWAP2 SWAP1 POP JUMP JUMPDEST PUSH1 0x20 DUP2 MSTORE PUSH0 DUP3 MLOAD DUP1 PUSH1 0x20 DUP5 ADD MSTORE DUP1 PUSH1 0x20 DUP6 ADD PUSH1 0x40 DUP6 ADD MCOPY PUSH0 PUSH1 0x40 DUP3 DUP6 ADD ADD MSTORE PUSH1 0x40 PUSH1 0x1F NOT PUSH1 0x1F DUP4 ADD AND DUP5 ADD ADD SWAP2 POP POP SWAP3 SWAP2 POP POP JUMP JUMPDEST PUSH1 0x1 PUSH1 0x1 PUSH1 0xA0 SHL SUB DUP2 AND DUP2 EQ PUSH2 0xE58 JUMPI PUSH0 DUP1 REVERT JUMPDEST PUSH0 DUP1 PUSH1 0x40 DUP4 DUP6 SUB SLT ISZERO PUSH2 0x34BB JUMPI PUSH0 DUP1 REVERT JUMPDEST DUP3 CALLDATALOAD PUSH2 0x34C6 DUP2 PUSH2 0x3496 JUMP JUMPDEST SWAP5 PUSH1 0x20 SWAP4 SWAP1 SWAP4 ADD CALLDATALOAD SWAP4 POP POP POP JUMP JUMPDEST PUSH0 PUSH1 0x20 DUP3 DUP5 SUB SLT ISZERO PUSH2 0x34E4 JUMPI PUSH0 DUP1 REVERT JUMPDEST DUP2 CALLDATALOAD PUSH2 0x27BB DUP2 PUSH2 0x3496 JUMP JUMPDEST PUSH0 DUP1 PUSH0 PUSH1 0x60 DUP5 DUP7 SUB SLT ISZERO PUSH2 0x3501 JUMPI PUSH0 DUP1 REVERT JUMPDEST DUP4 CALLDATALOAD PUSH2 0x350C DUP2 PUSH2 0x3496 JUMP JUMPDEST SWAP3 POP PUSH1 0x20 DUP5 ADD CALLDATALOAD PUSH2 0x351C DUP2 PUSH2 0x3496 JUMP JUMPDEST SWAP3 SWAP6 SWAP3 SWAP5 POP POP POP PUSH1 0x40 SWAP2 SWAP1 SWAP2 ADD CALLDATALOAD SWAP1 JUMP JUMPDEST DUP1 ISZERO ISZERO DUP2 EQ PUSH2 0xE58 JUMPI PUSH0 DUP1 REVERT JUMPDEST PUSH0 DUP1 PUSH1 0x40 DUP4 DUP6 SUB SLT ISZERO PUSH2 0x354B JUMPI PUSH0 DUP1 REVERT JUMPDEST DUP3 CALLDATALOAD SWAP2 POP PUSH1 0x20 DUP4 ADD CALLDATALOAD PUSH2 0x355D DUP2 PUSH2 0x352D JUMP JUMPDEST DUP1 SWAP2 POP POP SWAP3 POP SWAP3 SWAP1 POP JUMP JUMPDEST PUSH0 PUSH1 0x20 DUP3 DUP5 SUB SLT ISZERO PUSH2 0x3578 JUMPI PUSH0 DUP1 REVERT JUMPDEST DUP2 CALLDATALOAD PUSH2 0x27BB DUP2 PUSH2 0x352D JUMP JUMPDEST PUSH0 DUP1 PUSH1 0x40 DUP4 DUP6 SUB SLT ISZERO PUSH2 0x3594 JUMPI PUSH0 DUP1 REVERT JUMPDEST DUP3 CALLDATALOAD PUSH2 0x359F DUP2 PUSH2 0x3496 JUMP JUMPDEST SWAP2 POP PUSH1 0x20 DUP4 ADD CALLDATALOAD PUSH2 0x355D DUP2 PUSH2 0x3496 JUMP JUMPDEST PUSH4 0x4E487B71 PUSH1 0xE0 SHL PUSH0 MSTORE PUSH1 0x11 PUSH1 0x4 MSTORE PUSH1 0x24 PUSH0 REVERT JUMPDEST DUP2 DUP2 SUB DUP2 DUP2 GT ISZERO PUSH2 0xB6D JUMPI PUSH2 0xB6D PUSH2 0x35AF JUMP JUMPDEST DUP1 DUP3 ADD DUP1 DUP3 GT ISZERO PUSH2 0xB6D JUMPI PUSH2 0xB6D PUSH2 0x35AF JUMP JUMPDEST PUSH1 0x1 DUP2 DUP2 SHR SWAP1 DUP3 AND DUP1 PUSH2 0x35FD JUMPI PUSH1 0x7F DUP3 AND SWAP2 POP JUMPDEST PUSH1 0x20 DUP3 LT DUP2 SUB PUSH2 0x361B JUMPI PUSH4 0x4E487B71 PUSH1 0xE0 SHL PUSH0 MSTORE PUSH1 0x22 PUSH1 0x4 MSTORE PUSH1 0x24 PUSH0 REVERT JUMPDEST POP SWAP2 SWAP1 POP JUMP JUMPDEST PUSH1 0x20 DUP1 DUP3 MSTORE DUP2 DUP2 ADD MSTORE PUSH32 0x4F776E61626C653A2063616C6C6572206973206E6F7420746865206F776E6572 PUSH1 0x40 DUP3 ADD MSTORE PUSH1 0x60 ADD SWAP1 JUMP JUMPDEST PUSH1 0x20 DUP1 DUP3 MSTORE PUSH1 0x1F SWAP1 DUP3 ADD MSTORE PUSH32 0x546F74616C20666565732065786365656420746865203625206C696D69742E00 PUSH1 0x40 DUP3 ADD MSTORE PUSH1 0x60 ADD SWAP1 JUMP JUMPDEST PUSH0 PUSH1 0x20 DUP3 DUP5 SUB SLT ISZERO PUSH2 0x369D JUMPI PUSH0 DUP1 REVERT JUMPDEST DUP2 MLOAD PUSH2 0x27BB DUP2 PUSH2 0x352D JUMP JUMPDEST DUP1 DUP3 MUL DUP2 ISZERO DUP3 DUP3 DIV DUP5 EQ OR PUSH2 0xB6D JUMPI PUSH2 0xB6D PUSH2 0x35AF JUMP JUMPDEST PUSH0 DUP3 PUSH2 0x36D9 JUMPI PUSH4 0x4E487B71 PUSH1 0xE0 SHL PUSH0 MSTORE PUSH1 0x12 PUSH1 0x4 MSTORE PUSH1 0x24 PUSH0 REVERT JUMPDEST POP DIV SWAP1 JUMP JUMPDEST PUSH4 0x4E487B71 PUSH1 0xE0 SHL PUSH0 MSTORE PUSH1 0x32 PUSH1 0x4 MSTORE PUSH1 0x24 PUSH0 REVERT JUMPDEST PUSH4 0x4E487B71 PUSH1 0xE0 SHL PUSH0 MSTORE PUSH1 0x31 PUSH1 0x4 MSTORE PUSH1 0x24 PUSH0 REVERT JUMPDEST PUSH0 PUSH1 0x20 DUP3 DUP5 SUB SLT ISZERO PUSH2 0x3716 JUMPI PUSH0 DUP1 REVERT JUMPDEST DUP2 MLOAD PUSH2 0x27BB DUP2 PUSH2 0x3496 JUMP JUMPDEST PUSH0 DUP2 MLOAD DUP1 DUP5 MSTORE PUSH1 0x20 DUP1 DUP6 ADD SWAP5 POP PUSH1 0x20 DUP5 ADD PUSH0 JUMPDEST DUP4 DUP2 LT ISZERO PUSH2 0x3759 JUMPI DUP2 MLOAD PUSH1 0x1 PUSH1 0x1 PUSH1 0xA0 SHL SUB AND DUP8 MSTORE SWAP6 DUP3 ADD SWAP6 SWAP1 DUP3 ADD SWAP1 PUSH1 0x1 ADD PUSH2 0x3734 JUMP JUMPDEST POP SWAP5 SWAP6 SWAP5 POP POP POP POP POP JUMP JUMPDEST DUP6 DUP2 MSTORE DUP5 PUSH1 0x20 DUP3 ADD MSTORE PUSH1 0xA0 PUSH1 0x40 DUP3 ADD MSTORE PUSH0 PUSH2 0x3782 PUSH1 0xA0 DUP4 ADD DUP7 PUSH2 0x3721 JUMP JUMPDEST PUSH1 0x1 PUSH1 0x1 PUSH1 0xA0 SHL SUB SWAP5 SWAP1 SWAP5 AND PUSH1 0x60 DUP4 ADD MSTORE POP PUSH1 0x80 ADD MSTORE SWAP4 SWAP3 POP POP POP JUMP JUMPDEST DUP3 DUP2 MSTORE PUSH1 0x40 PUSH1 0x20 DUP3 ADD MSTORE PUSH0 PUSH2 0x2896 PUSH1 0x40 DUP4 ADD DUP5 PUSH2 0x3721 JUMP JUMPDEST PUSH0 DUP1 PUSH0 PUSH1 0x60 DUP5 DUP7 SUB SLT ISZERO PUSH2 0x37C9 JUMPI PUSH0 DUP1 REVERT JUMPDEST DUP4 MLOAD SWAP3 POP PUSH1 0x20 DUP5 ADD MLOAD SWAP2 POP PUSH1 0x40 DUP5 ADD MLOAD SWAP1 POP SWAP3 POP SWAP3 POP SWAP3 JUMP INVALID 0xDD CALLCODE MSTORE 0xAD SHL 0xE2 0xC8 SWAP12 PUSH10 0xC2B068FC378DAA952BA7 CALL PUSH4 0xC4A11628 CREATE2 GAS 0x4D CREATE2 0x23 0xB3 0xEF LOG2 PUSH5 0x6970667358 0x22 SLT KECCAK256 SWAP9 GASLIMIT COINBASE 0x2A 0x25 OR 0xD 0xEE 0xAD PC GAS 0xCD RETURNDATACOPY JUMPI 0xEE BLOBHASH 0x21 JUMPDEST SELFBALANCE CALLVALUE REVERT 0xBA COINBASE PREVRANDAO RETURN 0x2B PUSH30 0x13C7773F2B64736F6C634300081900330000000000000000000000000000 "
		},
		"gasEstimates": {
			"creation": {
				"codeDepositCost": "2878400",
				"executionCost": "infinite",
				"totalCost": "infinite"
			},
			"external": {
				"MAX_TOTAL_FEES()": "262",
				"_burnFee()": "2427",
				"_charityFee()": "2385",
				"_developerFee()": "2406",
				"_liquidityPoolFee()": "2406",
				"_marketingFee()": "2385",
				"_maxTxAmount()": "2384",
				"_reflectionFee()": "2428",
				"allowance(address,address)": "infinite",
				"approve(address,uint256)": "24678",
				"balanceOf(address)": "infinite",
				"burn(uint256)": "infinite",
				"burnFrom(address,uint256)": "infinite",
				"charityAddress()": "2447",
				"deadAddress()": "283",
				"decimals()": "266",
				"decreaseAllowance(address,uint256)": "26968",
				"developerAddress()": "2448",
				"excludeAccountFromReward(address)": "infinite",
				"excludeFromFee(address)": "26809",
				"includeAccountinReward(address)": "infinite",
				"includeInFee(address)": "26846",
				"increaseAllowance(address,uint256)": "infinite",
				"isExcluded(address)": "2607",
				"isExcludedFromFee(address)": "2652",
				"marketingAddress()": "2448",
				"name()": "infinite",
				"owner()": "2464",
				"presale(bool)": "infinite",
				"recoverETHfromContract()": "infinite",
				"recoverTokensFromContract(address,uint256)": "infinite",
				"reflect(uint256)": "infinite",
				"reflectionFromToken(uint256,bool)": "infinite",
				"renounceOwnership()": "28160",
				"setBurnFee(uint256)": "infinite",
				"setCharityAddress(address)": "28202",
				"setCharityFee(uint256)": "infinite",
				"setDeveloperAddress(address)": "28211",
				"setDeveloperFee(uint256)": "infinite",
				"setLiquidityPoolFee(uint256)": "infinite",
				"setMarketingAddress(address)": "28256",
				"setMarketingFee(uint256)": "infinite",
				"setMaxTxAmount(uint256)": "30272",
				"setReflectionFee(uint256)": "infinite",
				"setSwapAndLiquifyEnabled(bool)": "27839",
				"swapAndLiquifyEnabled()": "2388",
				"symbol()": "infinite",
				"totalFeesRedistributed()": "2403",
				"totalSupply()": "2437",
				"transfer(address,uint256)": "infinite",
				"transferFrom(address,address,uint256)": "infinite",
				"transferOwnership(address)": "infinite",
				"uniswapV2Pair()": "infinite",
				"uniswapV2Router()": "infinite"
			},
			"internal": {
				"_burn(address,uint256)": "infinite",
				"_getCompleteTaxValue(uint256)": "infinite",
				"_getCurrentSupply()": "infinite",
				"_getRate()": "infinite",
				"_getTransferValues(uint256)": "infinite",
				"_mintStart(address,uint256,uint256)": "infinite",
				"_reflectFee(uint256,uint256)": "infinite",
				"_tokenTransfer(address,address,uint256,bool)": "infinite",
				"_transfer(address,address,uint256)": "infinite",
				"_transferStandard(address,address,uint256)": "infinite",
				"addLiquidity(uint256,uint256)": "infinite",
				"burnFeeTransfer(address,uint256,uint256)": "infinite",
				"feeTransfer(address,uint256,uint256,uint256,address)": "infinite",
				"getBalance()": "infinite",
				"removeAllFee()": "204522",
				"restoreAllFee()": "infinite",
				"swapTokens(uint256)": "infinite",
				"swapTokensForEth(uint256)": "infinite",
				"tokenFromReflection(uint256)": "infinite",
				"transferToAddressETH(address payable,uint256)": "infinite"
			}
		},
		"methodIdentifiers": {
			"MAX_TOTAL_FEES()": "c3a1ed48",
			"_burnFee()": "c0b0fda2",
			"_charityFee()": "40f8007a",
			"_developerFee()": "48de478e",
			"_liquidityPoolFee()": "8a0623b4",
			"_marketingFee()": "22976e0d",
			"_maxTxAmount()": "7d1db4a5",
			"_reflectionFee()": "3206b4aa",
			"allowance(address,address)": "dd62ed3e",
			"approve(address,uint256)": "095ea7b3",
			"balanceOf(address)": "70a08231",
			"burn(uint256)": "42966c68",
			"burnFrom(address,uint256)": "79cc6790",
			"charityAddress()": "afcf2fc4",
			"deadAddress()": "27c8f835",
			"decimals()": "313ce567",
			"decreaseAllowance(address,uint256)": "a457c2d7",
			"developerAddress()": "caccd7f7",
			"excludeAccountFromReward(address)": "6049876e",
			"excludeFromFee(address)": "437823ec",
			"includeAccountinReward(address)": "fdeb889f",
			"includeInFee(address)": "ea2f0b37",
			"increaseAllowance(address,uint256)": "39509351",
			"isExcluded(address)": "cba0e996",
			"isExcludedFromFee(address)": "5342acb4",
			"marketingAddress()": "a5ece941",
			"name()": "06fdde03",
			"owner()": "8da5cb5b",
			"presale(bool)": "edc2fcfb",
			"recoverETHfromContract()": "ce831ed5",
			"recoverTokensFromContract(address,uint256)": "e6be4a72",
			"reflect(uint256)": "053ab182",
			"reflectionFromToken(uint256,bool)": "4549b039",
			"renounceOwnership()": "715018a6",
			"setBurnFee(uint256)": "4bf2c7c9",
			"setCharityAddress(address)": "0c9be46d",
			"setCharityFee(uint256)": "20c7c596",
			"setDeveloperAddress(address)": "dcc345f2",
			"setDeveloperFee(uint256)": "6c317232",
			"setLiquidityPoolFee(uint256)": "a94c8dd2",
			"setMarketingAddress(address)": "906e9dd0",
			"setMarketingFee(uint256)": "625e764c",
			"setMaxTxAmount(uint256)": "ec28438a",
			"setReflectionFee(uint256)": "e547be69",
			"setSwapAndLiquifyEnabled(bool)": "c49b9a80",
			"swapAndLiquifyEnabled()": "4a74bb02",
			"symbol()": "95d89b41",
			"totalFeesRedistributed()": "32035504",
			"totalSupply()": "18160ddd",
			"transfer(address,uint256)": "a9059cbb",
			"transferFrom(address,address,uint256)": "23b872dd",
			"transferOwnership(address)": "f2fde38b",
			"uniswapV2Pair()": "49bd5a5e",
			"uniswapV2Router()": "1694505e"
		}
	},
	"abi": [
		{
			"inputs": [],
			"stateMutability": "payable",
			"type": "constructor"
		},
		{
			"anonymous": false,
			"inputs": [
				{
					"indexed": true,
					"internalType": "address",
					"name": "owner",
					"type": "address"
				},
				{
					"indexed": true,
					"internalType": "address",
					"name": "spender",
					"type": "address"
				},
				{
					"indexed": false,
					"internalType": "uint256",
					"name": "value",
					"type": "uint256"
				}
			],
			"name": "Approval",
			"type": "event"
		},
		{
			"anonymous": false,
			"inputs": [
				{
					"indexed": false,
					"internalType": "string",
					"name": "",
					"type": "string"
				},
				{
					"indexed": false,
					"internalType": "address",
					"name": "",
					"type": "address"
				}
			],
			"name": "AuditLog",
			"type": "event"
		},
		{
			"anonymous": false,
			"inputs": [
				{
					"indexed": false,
					"internalType": "uint256",
					"name": "oldBurnFee",
					"type": "uint256"
				},
				{
					"indexed": false,
					"internalType": "uint256",
					"name": "newBurnFee",
					"type": "uint256"
				}
			],
			"name": "BurnFeeUpdated",
			"type": "event"
		},
		{
			"anonymous": false,
			"inputs": [
				{
					"indexed": false,
					"internalType": "address",
					"name": "oldAddress",
					"type": "address"
				},
				{
					"indexed": false,
					"internalType": "address",
					"name": "newAddress",
					"type": "address"
				}
			],
			"name": "CharityAddressUpdated",
			"type": "event"
		},
		{
			"anonymous": false,
			"inputs": [
				{
					"indexed": false,
					"internalType": "uint256",
					"name": "oldCharityFee",
					"type": "uint256"
				},
				{
					"indexed": false,
					"internalType": "uint256",
					"name": "newCharityFee",
					"type": "uint256"
				}
			],
			"name": "CharityFeeUpdated",
			"type": "event"
		},
		{
			"anonymous": false,
			"inputs": [
				{
					"indexed": false,
					"internalType": "address",
					"name": "oldAddress",
					"type": "address"
				},
				{
					"indexed": false,
					"internalType": "address",
					"name": "newAddress",
					"type": "address"
				}
			],
			"name": "DeveloperAddressUpdated",
			"type": "event"
		},
		{
			"anonymous": false,
			"inputs": [
				{
					"indexed": false,
					"internalType": "uint256",
					"name": "oldDeveloperFee",
					"type": "uint256"
				},
				{
					"indexed": false,
					"internalType": "uint256",
					"name": "newDeveloperFee",
					"type": "uint256"
				}
			],
			"name": "DeveloperFeeUpdated",
			"type": "event"
		},
		{
			"anonymous": false,
			"inputs": [
				{
					"indexed": false,
					"internalType": "uint256",
					"name": "oldLiquidityPoolFee",
					"type": "uint256"
				},
				{
					"indexed": false,
					"internalType": "uint256",
					"name": "newLiquidityPoolFee",
					"type": "uint256"
				}
			],
			"name": "LiquidityPoolFeeUpdated",
			"type": "event"
		},
		{
			"anonymous": false,
			"inputs": [
				{
					"indexed": false,
					"internalType": "string",
					"name": "",
					"type": "string"
				},
				{
					"indexed": false,
					"internalType": "uint256",
					"name": "",
					"type": "uint256"
				}
			],
			"name": "Log",
			"type": "event"
		},
		{
			"anonymous": false,
			"inputs": [
				{
					"indexed": false,
					"internalType": "address",
					"name": "oldAddress",
					"type": "address"
				},
				{
					"indexed": false,
					"internalType": "address",
					"name": "newAddress",
					"type": "address"
				}
			],
			"name": "MarketingAddressUpdated",
			"type": "event"
		},
		{
			"anonymous": false,
			"inputs": [
				{
					"indexed": false,
					"internalType": "uint256",
					"name": "oldMarketingFee",
					"type": "uint256"
				},
				{
					"indexed": false,
					"internalType": "uint256",
					"name": "newMarketingFee",
					"type": "uint256"
				}
			],
			"name": "MarketingFeeUpdated",
			"type": "event"
		},
		{
			"anonymous": false,
			"inputs": [
				{
					"indexed": false,
					"internalType": "uint256",
					"name": "oldMaxTxAmount",
					"type": "uint256"
				},
				{
					"indexed": false,
					"internalType": "uint256",
					"name": "newMaxTxAmount",
					"type": "uint256"
				}
			],
			"name": "MaxTxAmountUpdated",
			"type": "event"
		},
		{
			"anonymous": false,
			"inputs": [
				{
					"indexed": true,
					"internalType": "address",
					"name": "previousOwner",
					"type": "address"
				},
				{
					"indexed": true,
					"internalType": "address",
					"name": "newOwner",
					"type": "address"
				}
			],
			"name": "OwnershipTransferred",
			"type": "event"
		},
		{
			"anonymous": false,
			"inputs": [
				{
					"indexed": false,
					"internalType": "bool",
					"name": "presale",
					"type": "bool"
				}
			],
			"name": "PresaleFlagUpdated",
			"type": "event"
		},
		{
			"anonymous": false,
			"inputs": [
				{
					"indexed": false,
					"internalType": "uint256",
					"name": "oldReflectionFee",
					"type": "uint256"
				},
				{
					"indexed": false,
					"internalType": "uint256",
					"name": "newReflectionFee",
					"type": "uint256"
				}
			],
			"name": "ReflectionFeeUpdated",
			"type": "event"
		},
		{
			"anonymous": false,
			"inputs": [
				{
					"indexed": false,
					"internalType": "uint256",
					"name": "tokensSwapped",
					"type": "uint256"
				},
				{
					"indexed": false,
					"internalType": "uint256",
					"name": "ethReceived",
					"type": "uint256"
				},
				{
					"indexed": false,
					"internalType": "uint256",
					"name": "tokensIntoLiqudity",
					"type": "uint256"
				}
			],
			"name": "SwapAndLiquify",
			"type": "event"
		},
		{
			"anonymous": false,
			"inputs": [
				{
					"indexed": false,
					"internalType": "bool",
					"name": "enabled",
					"type": "bool"
				}
			],
			"name": "SwapAndLiquifyEnabledUpdated",
			"type": "event"
		},
		{
			"anonymous": false,
			"inputs": [
				{
					"indexed": false,
					"internalType": "uint256",
					"name": "amountIn",
					"type": "uint256"
				},
				{
					"indexed": false,
					"internalType": "address[]",
					"name": "path",
					"type": "address[]"
				}
			],
			"name": "SwapTokensForETH",
			"type": "event"
		},
		{
			"anonymous": false,
			"inputs": [
				{
					"indexed": true,
					"internalType": "address",
					"name": "from",
					"type": "address"
				},
				{
					"indexed": true,
					"internalType": "address",
					"name": "to",
					"type": "address"
				},
				{
					"indexed": false,
					"internalType": "uint256",
					"name": "value",
					"type": "uint256"
				}
			],
			"name": "Transfer",
			"type": "event"
		},
		{
			"anonymous": false,
			"inputs": [
				{
					"indexed": true,
					"internalType": "address",
					"name": "recipient",
					"type": "address"
				},
				{
					"indexed": false,
					"internalType": "uint256",
					"name": "amount",
					"type": "uint256"
				}
			],
			"name": "TransferFailed",
			"type": "event"
		},
		{
			"inputs": [],
			"name": "MAX_TOTAL_FEES",
			"outputs": [
				{
					"internalType": "uint256",
					"name": "",
					"type": "uint256"
				}
			],
			"stateMutability": "view",
			"type": "function"
		},
		{
			"inputs": [],
			"name": "_burnFee",
			"outputs": [
				{
					"internalType": "uint256",
					"name": "",
					"type": "uint256"
				}
			],
			"stateMutability": "view",
			"type": "function"
		},
		{
			"inputs": [],
			"name": "_charityFee",
			"outputs": [
				{
					"internalType": "uint256",
					"name": "",
					"type": "uint256"
				}
			],
			"stateMutability": "view",
			"type": "function"
		},
		{
			"inputs": [],
			"name": "_developerFee",
			"outputs": [
				{
					"internalType": "uint256",
					"name": "",
					"type": "uint256"
				}
			],
			"stateMutability": "view",
			"type": "function"
		},
		{
			"inputs": [],
			"name": "_liquidityPoolFee",
			"outputs": [
				{
					"internalType": "uint256",
					"name": "",
					"type": "uint256"
				}
			],
			"stateMutability": "view",
			"type": "function"
		},
		{
			"inputs": [],
			"name": "_marketingFee",
			"outputs": [
				{
					"internalType": "uint256",
					"name": "",
					"type": "uint256"
				}
			],
			"stateMutability": "view",
			"type": "function"
		},
		{
			"inputs": [],
			"name": "_maxTxAmount",
			"outputs": [
				{
					"internalType": "uint256",
					"name": "",
					"type": "uint256"
				}
			],
			"stateMutability": "view",
			"type": "function"
		},
		{
			"inputs": [],
			"name": "_reflectionFee",
			"outputs": [
				{
					"internalType": "uint256",
					"name": "",
					"type": "uint256"
				}
			],
			"stateMutability": "view",
			"type": "function"
		},
		{
			"inputs": [
				{
					"internalType": "address",
					"name": "owner",
					"type": "address"
				},
				{
					"internalType": "address",
					"name": "spender",
					"type": "address"
				}
			],
			"name": "allowance",
			"outputs": [
				{
					"internalType": "uint256",
					"name": "",
					"type": "uint256"
				}
			],
			"stateMutability": "view",
			"type": "function"
		},
		{
			"inputs": [
				{
					"internalType": "address",
					"name": "spender",
					"type": "address"
				},
				{
					"internalType": "uint256",
					"name": "amount",
					"type": "uint256"
				}
			],
			"name": "approve",
			"outputs": [
				{
					"internalType": "bool",
					"name": "",
					"type": "bool"
				}
			],
			"stateMutability": "nonpayable",
			"type": "function"
		},
		{
			"inputs": [
				{
					"internalType": "address",
					"name": "sender",
					"type": "address"
				}
			],
			"name": "balanceOf",
			"outputs": [
				{
					"internalType": "uint256",
					"name": "",
					"type": "uint256"
				}
			],
			"stateMutability": "view",
			"type": "function"
		},
		{
			"inputs": [
				{
					"internalType": "uint256",
					"name": "amount",
					"type": "uint256"
				}
			],
			"name": "burn",
			"outputs": [],
			"stateMutability": "nonpayable",
			"type": "function"
		},
		{
			"inputs": [
				{
					"internalType": "address",
					"name": "account",
					"type": "address"
				},
				{
					"internalType": "uint256",
					"name": "amount",
					"type": "uint256"
				}
			],
			"name": "burnFrom",
			"outputs": [],
			"stateMutability": "nonpayable",
			"type": "function"
		},
		{
			"inputs": [],
			"name": "charityAddress",
			"outputs": [
				{
					"internalType": "address payable",
					"name": "",
					"type": "address"
				}
			],
			"stateMutability": "view",
			"type": "function"
		},
		{
			"inputs": [],
			"name": "deadAddress",
			"outputs": [
				{
					"internalType": "address",
					"name": "",
					"type": "address"
				}
			],
			"stateMutability": "view",
			"type": "function"
		},
		{
			"inputs": [],
			"name": "decimals",
			"outputs": [
				{
					"internalType": "uint8",
					"name": "",
					"type": "uint8"
				}
			],
			"stateMutability": "view",
			"type": "function"
		},
		{
			"inputs": [
				{
					"internalType": "address",
					"name": "spender",
					"type": "address"
				},
				{
					"internalType": "uint256",
					"name": "subtractedValue",
					"type": "uint256"
				}
			],
			"name": "decreaseAllowance",
			"outputs": [
				{
					"internalType": "bool",
					"name": "",
					"type": "bool"
				}
			],
			"stateMutability": "nonpayable",
			"type": "function"
		},
		{
			"inputs": [],
			"name": "developerAddress",
			"outputs": [
				{
					"internalType": "address payable",
					"name": "",
					"type": "address"
				}
			],
			"stateMutability": "view",
			"type": "function"
		},
		{
			"inputs": [
				{
					"internalType": "address",
					"name": "account",
					"type": "address"
				}
			],
			"name": "excludeAccountFromReward",
			"outputs": [],
			"stateMutability": "nonpayable",
			"type": "function"
		},
		{
			"inputs": [
				{
					"internalType": "address",
					"name": "account",
					"type": "address"
				}
			],
			"name": "excludeFromFee",
			"outputs": [],
			"stateMutability": "nonpayable",
			"type": "function"
		},
		{
			"inputs": [
				{
					"internalType": "address",
					"name": "account",
					"type": "address"
				}
			],
			"name": "includeAccountinReward",
			"outputs": [],
			"stateMutability": "nonpayable",
			"type": "function"
		},
		{
			"inputs": [
				{
					"internalType": "address",
					"name": "account",
					"type": "address"
				}
			],
			"name": "includeInFee",
			"outputs": [],
			"stateMutability": "nonpayable",
			"type": "function"
		},
		{
			"inputs": [
				{
					"internalType": "address",
					"name": "spender",
					"type": "address"
				},
				{
					"internalType": "uint256",
					"name": "addedValue",
					"type": "uint256"
				}
			],
			"name": "increaseAllowance",
			"outputs": [
				{
					"internalType": "bool",
					"name": "",
					"type": "bool"
				}
			],
			"stateMutability": "nonpayable",
			"type": "function"
		},
		{
			"inputs": [
				{
					"internalType": "address",
					"name": "account",
					"type": "address"
				}
			],
			"name": "isExcluded",
			"outputs": [
				{
					"internalType": "bool",
					"name": "",
					"type": "bool"
				}
			],
			"stateMutability": "view",
			"type": "function"
		},
		{
			"inputs": [
				{
					"internalType": "address",
					"name": "account",
					"type": "address"
				}
			],
			"name": "isExcludedFromFee",
			"outputs": [
				{
					"internalType": "bool",
					"name": "",
					"type": "bool"
				}
			],
			"stateMutability": "view",
			"type": "function"
		},
		{
			"inputs": [],
			"name": "marketingAddress",
			"outputs": [
				{
					"internalType": "address payable",
					"name": "",
					"type": "address"
				}
			],
			"stateMutability": "view",
			"type": "function"
		},
		{
			"inputs": [],
			"name": "name",
			"outputs": [
				{
					"internalType": "string",
					"name": "",
					"type": "string"
				}
			],
			"stateMutability": "view",
			"type": "function"
		},
		{
			"inputs": [],
			"name": "owner",
			"outputs": [
				{
					"internalType": "address",
					"name": "",
					"type": "address"
				}
			],
			"stateMutability": "view",
			"type": "function"
		},
		{
			"inputs": [
				{
					"internalType": "bool",
					"name": "_presale",
					"type": "bool"
				}
			],
			"name": "presale",
			"outputs": [],
			"stateMutability": "nonpayable",
			"type": "function"
		},
		{
			"inputs": [],
			"name": "recoverETHfromContract",
			"outputs": [],
			"stateMutability": "nonpayable",
			"type": "function"
		},
		{
			"inputs": [
				{
					"internalType": "address",
					"name": "_tokenAddress",
					"type": "address"
				},
				{
					"internalType": "uint256",
					"name": "_amount",
					"type": "uint256"
				}
			],
			"name": "recoverTokensFromContract",
			"outputs": [],
			"stateMutability": "nonpayable",
			"type": "function"
		},
		{
			"inputs": [
				{
					"internalType": "uint256",
					"name": "tAmount",
					"type": "uint256"
				}
			],
			"name": "reflect",
			"outputs": [],
			"stateMutability": "nonpayable",
			"type": "function"
		},
		{
			"inputs": [
				{
					"internalType": "uint256",
					"name": "tAmount",
					"type": "uint256"
				},
				{
					"internalType": "bool",
					"name": "deductTransferFee",
					"type": "bool"
				}
			],
			"name": "reflectionFromToken",
			"outputs": [
				{
					"internalType": "uint256",
					"name": "",
					"type": "uint256"
				}
			],
			"stateMutability": "view",
			"type": "function"
		},
		{
			"inputs": [],
			"name": "renounceOwnership",
			"outputs": [],
			"stateMutability": "nonpayable",
			"type": "function"
		},
		{
			"inputs": [
				{
					"internalType": "uint256",
					"name": "burnFee_",
					"type": "uint256"
				}
			],
			"name": "setBurnFee",
			"outputs": [],
			"stateMutability": "nonpayable",
			"type": "function"
		},
		{
			"inputs": [
				{
					"internalType": "address",
					"name": "_charityAddress",
					"type": "address"
				}
			],
			"name": "setCharityAddress",
			"outputs": [],
			"stateMutability": "nonpayable",
			"type": "function"
		},
		{
			"inputs": [
				{
					"internalType": "uint256",
					"name": "charityFee_",
					"type": "uint256"
				}
			],
			"name": "setCharityFee",
			"outputs": [],
			"stateMutability": "nonpayable",
			"type": "function"
		},
		{
			"inputs": [
				{
					"internalType": "address",
					"name": "_developerAddress",
					"type": "address"
				}
			],
			"name": "setDeveloperAddress",
			"outputs": [],
			"stateMutability": "nonpayable",
			"type": "function"
		},
		{
			"inputs": [
				{
					"internalType": "uint256",
					"name": "developerFee_",
					"type": "uint256"
				}
			],
			"name": "setDeveloperFee",
			"outputs": [],
			"stateMutability": "nonpayable",
			"type": "function"
		},
		{
			"inputs": [
				{
					"internalType": "uint256",
					"name": "liquidityPoolFee_",
					"type": "uint256"
				}
			],
			"name": "setLiquidityPoolFee",
			"outputs": [],
			"stateMutability": "nonpayable",
			"type": "function"
		},
		{
			"inputs": [
				{
					"internalType": "address",
					"name": "_marketingAddress",
					"type": "address"
				}
			],
			"name": "setMarketingAddress",
			"outputs": [],
			"stateMutability": "nonpayable",
			"type": "function"
		},
		{
			"inputs": [
				{
					"internalType": "uint256",
					"name": "marketingFee_",
					"type": "uint256"
				}
			],
			"name": "setMarketingFee",
			"outputs": [],
			"stateMutability": "nonpayable",
			"type": "function"
		},
		{
			"inputs": [
				{
					"internalType": "uint256",
					"name": "maxTxAmount",
					"type": "uint256"
				}
			],
			"name": "setMaxTxAmount",
			"outputs": [],
			"stateMutability": "nonpayable",
			"type": "function"
		},
		{
			"inputs": [
				{
					"internalType": "uint256",
					"name": "reflectionFee_",
					"type": "uint256"
				}
			],
			"name": "setReflectionFee",
			"outputs": [],
			"stateMutability": "nonpayable",
			"type": "function"
		},
		{
			"inputs": [
				{
					"internalType": "bool",
					"name": "_enabled",
					"type": "bool"
				}
			],
			"name": "setSwapAndLiquifyEnabled",
			"outputs": [],
			"stateMutability": "nonpayable",
			"type": "function"
		},
		{
			"inputs": [],
			"name": "swapAndLiquifyEnabled",
			"outputs": [
				{
					"internalType": "bool",
					"name": "",
					"type": "bool"
				}
			],
			"stateMutability": "view",
			"type": "function"
		},
		{
			"inputs": [],
			"name": "symbol",
			"outputs": [
				{
					"internalType": "string",
					"name": "",
					"type": "string"
				}
			],
			"stateMutability": "view",
			"type": "function"
		},
		{
			"inputs": [],
			"name": "totalFeesRedistributed",
			"outputs": [
				{
					"internalType": "uint256",
					"name": "",
					"type": "uint256"
				}
			],
			"stateMutability": "view",
			"type": "function"
		},
		{
			"inputs": [],
			"name": "totalSupply",
			"outputs": [
				{
					"internalType": "uint256",
					"name": "",
					"type": "uint256"
				}
			],
			"stateMutability": "view",
			"type": "function"
		},
		{
			"inputs": [
				{
					"internalType": "address",
					"name": "recipient",
					"type": "address"
				},
				{
					"internalType": "uint256",
					"name": "amount",
					"type": "uint256"
				}
			],
			"name": "transfer",
			"outputs": [
				{
					"internalType": "bool",
					"name": "",
					"type": "bool"
				}
			],
			"stateMutability": "nonpayable",
			"type": "function"
		},
		{
			"inputs": [
				{
					"internalType": "address",
					"name": "sender",
					"type": "address"
				},
				{
					"internalType": "address",
					"name": "recipient",
					"type": "address"
				},
				{
					"internalType": "uint256",
					"name": "amount",
					"type": "uint256"
				}
			],
			"name": "transferFrom",
			"outputs": [
				{
					"internalType": "bool",
					"name": "",
					"type": "bool"
				}
			],
			"stateMutability": "nonpayable",
			"type": "function"
		},
		{
			"inputs": [
				{
					"internalType": "address",
					"name": "newOwner",
					"type": "address"
				}
			],
			"name": "transferOwnership",
			"outputs": [],
			"stateMutability": "nonpayable",
			"type": "function"
		},
		{
			"inputs": [],
			"name": "uniswapV2Pair",
			"outputs": [
				{
					"internalType": "address",
					"name": "",
					"type": "address"
				}
			],
			"stateMutability": "view",
			"type": "function"
		},
		{
			"inputs": [],
			"name": "uniswapV2Router",
			"outputs": [
				{
					"internalType": "contract IUniswapV2Router02",
					"name": "",
					"type": "address"
				}
			],
			"stateMutability": "view",
			"type": "function"
		},
		{
			"stateMutability": "payable",
			"type": "receive"
		}
	]
}